S01E00007372632F6C636D332F6170702F6C636D332D626173652E737265634A
S3150800900000100020E9920008ED920008F39200088B
S315080090100D930008139300082D9300080000000024
S31508009020FFFFFFFF00000000000000004793000854
S315080090304D93000800000000539300085993000858
S3150800904091040108A1040108B1040108C10401083A
S31508009050D1040108E1040108F10401080105010829
S315080090601105010821050108310501084105010816
S315080090705105010861050108710501088105010806
S3150800908091050108A1050108B1050108C1050108F6
S31508009090D1050108E1050108F105010801060108E5
S315080090A011060108210601083106010841060108D2
S315080090B051060108610601087106010881060108C2
S315080090C091060108A1060108B1060108C1060108B2
S315080090D0D1060108E1060108F106010801070108A1
S315080090E0110701082107010831070108410701088E
S315080090F0510701086107010871070108810701087E
S3150800910000000000000000000000000091070108B0
S31508009110A1070108B1070108C1070108D10701081D
S31508009120E1070108F107010801080108110801080B
S3150800913021080108310801080000000000000000AD
S3150800914041080108510801086108010800000000EB
S315080091500000000000000000000000000000000001
S3150800916000000000000000007108010881080108DD
S31508009170910801080000000000000000000000003F
S30D0800918000000000A108010827
S31508009188636365623235310070B52B4CA36A43F0C8
S315080091988053A362A36A23F08053A362636943F0EA
S315080091A880536361E36A23F4F873E362E36A43F47A
S315080091B88073E362BFF34F8F204DAB6823F04053AB
S315080091C8AB60AB6842F2107043F08053AB6000F0B6
S315080091D89FFBAB6843F00043AB60AB68002BFCDB36
S315080091E8382000F095FBAB68154843F00103AB60DF
S315080091F807F0CCFDC1232B630026AB684FF47A70C1
S3150800920843F00403AB6000F083FB2B685B07FCD5CF
S315080092182B6CB3F5946FF0D30136642EEDD1A36A9F
S3150800922843F08053A362A36A23F08053A362636959
S3150800923823F08053636170BD00100240000000509F
S315080092487CF201081C4B1A6822F450221A601A6824
S3150800925842F480321A601A689103FCD5174A5201FB
S3150800926802F18442012111604FF480625A60144A5F
S31508009278116821F0040111606FF07F41516011688F
S3150800928841F0010111600F4A5A600022DA621A6831
S3150800929842F080721A601A689201FCD50A4A1221AD
S315080092A811605A6842F002025A605A6802F00C02C3
S315080092B8082AFAD1704700BF00100240241002405D
S315080092C810E000E0000411000020024008B506F08E
S315080092D8E7FCFFF7B7FFBDE80840FFF755BF00BF33
S315080092E81C48004708B509F0A3FC1EF0040F0CBF7C
S315080092F8EFF30880EFF309807146174A104708B557
S3150800930809F096FC08B509F093FC1EF0040F0CBF8B
S31508009318EFF30880EFF309807146104A104708B53D
S3150800932809F086FC1EF0040F0CBFEFF30880EFF374
S31508009338098071460A4A104708B509F079FC08B544
S3150800934809F076FC08B509F073FC08B509F070FC55
S31508009358704700006D9300080793000827930008D4
S315080093684193000808B5FFF7B1FF1D4A1D48824218
S3150800937817D31D4A1D4900208A421DD30BF042F80F
S315080093881B4D1C4B5B1B9C100026B4421DDC1A4D5A
S315080093981A4B5B1B9C100026B4421BDC06F068FCC3
S315080093A8FEE7D2E9001394680C32C91A9C42DED942
S315080093B85D5843F8045BF9E752F8083B52F8044C41
S315080093C89C42D9D943F8040BFAE755F8043B984761
S315080093D80136DAE755F8043B98470136DCE700BF5B
S315080093E80894000814940008149400081C940008AB
S315080093F81C9400081C9400081C940008289400086B
S31508009408E036020800100020181300201813002060
S31508009418C83D0020854401082DAC010859AC01084F
S31508009428007970470020704700207047B0F904009B
S31508009438704700207047007970470171012070470E
S3150800944810B50446406807F03DFD237B5840C0B276
S3150800945810BD10B50446406807F042FD237A584007
S31508009468C0B210BD08B5037A4068594007F032FD06
S31508009478012008BD1268F0B50468023A944200D380
S31508009488F0BDB1F900E020461346054630F9027BDF
S31508009498BE45FADC1E46B6F900C0E6453346A6F1CF
S315080094A80206F8DB9D4206D8864220F802CC054615
S315080094B81F803346E9D2994288BF2C46A94238BF4D
S315080094C81A46DBE7F8B5214B0360214BC0F8CC35C3
S315080094D8204BC0F8F035044600F5BE600AF0ABFD2F
S315080094E804F2CC500AF0A7FD04F29C5007F09CFE43
S315080094F804F5AB6007F0E4FF04F5A56007F0E0FFA4
S31508009508154E04F20C5504F21C47AF4205D045F82F
S315080095183C6D28460AF08FFDF7E7104BC4F8303241
S3150800952804F50C700AF087FD04F5907007F02AFC1C
S3150800953804F5867007F098FA04F5807007F094FA2F
S3150800954820460AF00DFE2046F8BD00BFF8F00108CF
S315080095583CF4010824F401080CF40108D8080208A8
S3150800956810B50446FFF7AEFF20464FF4C0610AF06F
S315080095787FFF204610BD2DE9F341456915F0010F17
S31508009588044605F1FF3600EB450721D14FEA560890
S3150800959826F001010144CDE9000701AA6846FFF74C
S315080095A869FF34F9186025F001014FEA550868463D
S315080095B801AA2144CDE90047FFF75CFF34F91800F2
S315080095C8304400EBD07040F34F0002B0BDE8F0819C
S315080095D8CDE90007811901AA6846FFF74BFFA05F86
S315080095E8F3E7F0B5D0E9064787B0002305933B1B98
S315080095F85D10002BB8BF0B350A2D064601D915F0A4
S315080096089DFC25B16A000021684615F0CDFC059534
S315080096186B461636BC4204D16846FFF7ACFF07B05E
S31508009628F0BD34F9022B23F8022BB442F2D3163CC8
S31508009638FBE7F8B50446D0E907300A2928BF0A2106
S315080096480129A0EB030038BF012143100028B8BF41
S315080096580B33CD1A2E4604F11A07002E0EDB002D01
S31508009668A3EB0103C8BF00232B4404F11A0673B9F8
S315080096781DB1201DFFF7B5FF2085F8BDE06902304A
S31508009688B84202D2E0610136E7E71638F8E7206AF9
S31508009698811CB14203D20280013B2162E7E71639F1
S315080096A8F7E700002DE9F84F04460AF027FD684B4E
S315080096B8236007F019FF674BA3616749207704F110
S315080096C8200006F0DFFB1622002104F1D80015F069
S315080096D86BFC0025614BC4F8F830C4E93C0042F637
S315080096E8E0620A2104F1D400C4F8FC50FFF7A1FF90
S315080096F85B4ADFF870A1DFF870B104F1200104F5C0
S31508009708807007F0A3F9594A04F1200104F5867018
S3150800971807F09CF904F1200104F58C7006F034FD75
S3150800972804F59277524904F5907007F019FB514AE7
S3150800973804F59071384607F06BFA4F4A394604F52E
S315080097480C7007F00DFE04F21C4704F51E7000F0B5
S31508009758D1FC4A49384600F0C5FE494904F58B60EC
S3150800976800F0C0FE474904F2944000F0BBFE4649A3
S3150800977804F59A6000F0B6FE444BC4F80C35444B21
S315080097884448C4F81435012384F81835C4F8100574
S3150800979807F0FCFA4048C4F82005C4F81CA584F864
S315080097A8245507F0F3FA294604F21C50FFF75AFE27
S315080097B83A4904F5A56007F02BFE394904F5AB606C
S315080097C807F026FE3748C4F88C05C4F888A584F837
S315080097D8905507F0DBFA294604F5B160FFF742FE13
S315080097E8314904F2945007F09BFB304904F29C5027
S315080097F807F08AFC04F2CC5000F078FF242D1BD120
S315080098082B4B2C4A1A6004F2CC5120460AF050FC1D
S3150800981804F50C7120460AF04BFC04F20C55AF42CD
S3150800982810D104F1200006F0EFFA04F5907007F05D
S3150800983891FA2046BDE8F88F0BEB050007F0A6FA63
S315080098480C35DBE7394620460AF032FC3C37E6E7B2
S31508009858F8F00108E8F001085CF10108D8F00108F9
S3150800986844F10108C8F0010808F101082CF10108BB
S315080098780000004040F2010834F20108CCF1010862
S31508009888D8F10108E4F10108F0F10108B8F0010877
S31508009898A8F0010864F2010870F20108B0F101089D
S315080098A888F1010858F2010820F2010864F1010854
S315080098B820000140C100030010B504460AF0DAFB8F
S315080098C8D4F8F430B4F9002404F1D800023B9842DD
S315080098D819D8C4F8F430D4F8F030023B984214D8B2
S315080098E81A80C4F8F030FFF77CFEB0F5165FA4F8C6
S315080098F8FC0002DA072007F0E5FD04F12000BDE8C0
S31508009908104006F045BA1633E1E71633E6E70000D5
S3150800991838B50E4B0E4C9842A5680DD800EBC0001A
S315080099284FF47A73B0FBF3F00230A368EB1A23F00E
S315080099387F439842F9D838BD09214FF47A72002333
S31508009948A0FB010115F058F9EEE700BF1BC7711C0B
S3150800995810E000E038B51C4652B91B681D690B684B
S3150800996808461B68984701462046A847012038BD7F
S315080099780020FCE713B50C466AB91A680DF106010A
S315080099881846126990472368BDF806105B68204692
S31508009998984702B010BD0020FBE738B51C4652B9F7
S315080099A81B681D680B6808461B68984701462046C9
S315080099B8A847012038BD0020FCE713B50C466AB94C
S315080099C81A680DF1070118461268904723689DF82A
S315080099D807105B682046984702B010BD0020FBE7D1
S315080099E838B51C4652B91B689D690B6808461B683A
S315080099F8984701462046A847012038BD0020FCE7BD
S31508009A0813B50C465AB91A6801A9184692699047B7
S31508009A18236801995B682046984702B010BD002064
S31508009A28FBE738B51C4652B91B68DD680B6808465B
S31508009A381B68984701462046A847012038BD0020DC
S31508009A48FCE713B50C466AB91A680DF106011846FB
S31508009A58D26890472368BDF906105B682046984780
S31508009A6802B010BD0020FBE713B50C4672B91A6898
S31508009A780DF1070192681846904723689DF8071064
S31508009A885B68204602B0BDE810401847002002B0BF
S31508009A9810BD10B51C4652B90B6808461B6898478E
S31508009AA8236801469B6820469847012010BD002078
S31508009AB8FCE770B50D461646044610200AF0CCFC9D
S31508009AC833462A462146BDE870400AF047BE70B5B7
S31508009AD80D461646044610200AF0BEFC33462A46AA
S31508009AE82146BDE870400AF039BE000038B50C4674
S31508009AF801F51E7105460DF0E9FB04F58071424A29
S31508009B084248FFF7E4FF04F58C713F4A4048FFF7DF
S31508009B18DEFF04F57F713C4A3E48FFF7D8FF04F19B
S31508009B28F801394A3C48FFF7D2FF04F58671364AE8
S31508009B383A48FFF7CCFF10200AF08EFC04F5147299
S31508009B48374B38490AF00AFE10200AF085FC364BCE
S31508009B58364904F118020AF001FE04F22C41344A87
S31508009B683448FFF7A6FF04F58D61314A3248FFF7F6
S31508009B78A0FF04F2A4412E4A3048FFF79AFF04F5DD
S31508009B889C612B4A2E48FFF794FF04F58A61284AF8
S31508009B982C48FFF78EFF04F28C41254A2A48FFF71E
S31508009BA888FF04F59961224A2848FFF782FF04F2DC
S31508009BB804511F4A2648FFF77CFF10200AF04CFC80
S31508009BC804F5A562234B24490AF0C8FD10200AF0BB
S31508009BD843FC204B214904F5AB620AF0BFFD04F5A6
S31508009BE8B161134A1E48FFF764FF04F20C51104A84
S31508009BF81C48FFF75EFF0E4A1B4804F21C51FFF784
S31508009C0858FF284638BD00BFFCF2010844F301088E
S31508009C1840F301083CF3010838F3010834F3010856
S31508009C28F8F2010848F30108F4F201084CF30108B0
S31508009C38F0F2010830F3010828F3010820F30108B7
S31508009C4818F301082CF3010824F301081CF301088A
S31508009C5814F30108ECF2010810F3010800F30108EF
S31508009C680CF3010808F3010804F3010810B50446C3
S31508009C780DF01CFC204610BD38B5D0F880300446D7
S31508009C881B6880300D46984768B9084BA5F6BB226D
S31508009C989A4207D8B4F85431C4F858510133A4F88D
S31508009CA85431012038BD0020FCE700BF65B4020026
S31508009CB800207047406870474068FFF7DDBF1268A4
S31508009CC8F0B50468023A944200D3F0BDB1F900E051
S31508009CD820461346054630F9027BBE45FADC1E4681
S31508009CE8B6F900C0E6453346A6F10206F8DB9D42FA
S31508009CF806D8864220F802CC05461F803346E9D2A4
S31508009D08994288BF2C46A94238BF1A46DBE74368FA
S31508009D181868704743681868B0FA80F040097047B1
S31508009D288268C368022A03F1010338BF02229342F4
S31508009D3828BF0023C3607047294B984205D1294A92
S31508009D48936943F40063936107E0274B984207D168
S31508009D58244AD36943F00103D361BFF34F8F704791
S31508009D68224B984204D11F4AD36943F00203F3E70A
S31508009D781F4B984204D11B4AD36943F00403EBE707
S31508009D881C4B984204D1174AD36943F01003E3E7FA
S31508009D98194B984204D1134AD36943F02003DBE7E9
S31508009DA8164B984204D10F4A936943F40053CAE7FD
S31508009DB8134B984204D10B4A936943F48033C2E79C
S31508009DC8104B984204D1074A936943F40033BAE71B
S31508009DD80D4B9842C1D1034A936943F48023B2E7ED
S31508009DE8002C01400010024000000040000400401A
S31508009DF800080040001000400014004000340140EC
S31508009E08004001400044014000480140EFF3108239
S31508009E18D24302F0010272B6114BD96821F001014A
S31508009E28D960198821F001011980D96A013959625E
S31508009E38198841F0010119801988C906FCD5816875
S31508009E48022938BF02210239C16000211961D9687F
S31508009E5841F00101D9600AB162B6704772B6704717
S31508009E6800080040124B1A88C368DB43C2F3001285
S31508009E7803F001039A4210B5044601D1FFF750FFD3
S31508009E880C4B1A6822F001021A600B4A0F2151601E
S31508009E98E16802225A6004F59A7202EB8102DA60D6
S31508009EA8064A0121D1601A680A431A6010BD00BF24
S31508009EB8000800400804024000040240000100505F
S31508009EC808B50A4B5A68022A05D01A6822F0010210
S31508009ED81A60FFF7C7FF064A936843F004039360BE
S31508009EE8044B6FF001021A6108BD00BF080402405E
S31508009EF800010050000800404068FFF7E1BF000075
S31508009F08B0F85431B0F856219BB292B2934270B564
S31508009F18044651D0D0F85811A0F8563146F2A8137D
S31508009F28994283BF01F543434F334CF2503201231C
S31508009F3884BFB3FBF2F35B00016083604FF4FA72E7
S31508009F484D001E4EB5FBF3F3436042F20F7002FB59
S31508009F580100B04284BF42F21072B0FBF2F26261AD
S31508009F684FF4FA02B2FBF3F3FA22A36142F20F7333
S31508009F7802FB0133124942F210723431B3FBF2F391
S31508009F880022C4F898310F4BB3FBF5F3236141F867
S31508009F98083C5B08102A02D08B500432FAE704F111
S31508009FA824000CF05FFB04F124000CF073FB204638
S31508009FB8BDE87040FFF72ABF70BD00BF3F4B4C0095
S31508009FC800080040002A75152DE9F341456915F082
S31508009FD8010F044605F1FF3600EB450721D14FEA84
S31508009FE8560826F001010144CDE9000701AA68468A
S31508009FF8FFF765FE34F9186025F001014FEA5508A0
S3150800A008684601AA2144CDE90047FFF758FE34F906
S3150800A0181800304400EBD07040F34F0002B0BDE89A
S3150800A028F081CDE90007811901AA6846FFF747FEBE
S3150800A038A05FF3E7F0B5D0E9054787B00023059395
S3150800A0483B1B5D10002BB8BF0A35092D064601D9FA
S3150800A05814F074FF25B16A000021684614F0A4FFBD
S3150800A06805956B461436BC4204D16846FFF7ACFF23
S3150800A07807B0F0BD34F9022B23F8022BB442F2D309
S3150800A088143CFBE7F8B50446D0E90630092928BF89
S3150800A09809210129A0EB030038BF01214310002834
S3150800A0A8B8BF0A33CD1A2E4604F11807002E0EDB60
S3150800A0B8002DA3EB0103C8BF00232B4404F118069F
S3150800A0C873B91DB1201DFFF7B5FFA084F8BDA069B7
S3150800A0D80230B84202D2A0610136E7E71438F8E739
S3150800A0E8E069811CB14203D20280013BE161E7E7DE
S3150800A0F81439F7E72DE9F041634B644A86B00446FC
S3150800A10800254CF25037C0E907300760604B856177
S3150800A118C0E90455014604F59A76009524300CF0F2
S3150800A128B1FE20222946304614F03EFFA4F85451C1
S3150800A138C4F8587114222946A4F8565104F5B07083
S3150800A14814F032FF534FC4F88051C4E95D0042F653
S3150800A158E0620921C4F87C7104F5AE70FFF792FF36
S3150800A16842F6E063C4E961752268A4F888314A4B67
S3150800A178C4F88C31FA2142F20F7301FB023342F21A
S3150800A1881071B3FBF1F3C4E96533444BC4F89C3149
S3150800A19804F5CA73C4F8A03104F5AA739B1BAB422D
S3150800A1A8C4F890515DDC52003D4FB7FBF2F704F155
S3150800A1B8100304F114029A425CD1DFF8E8800025FE
S3150800A1C8242D5AD1384805F099FD3749374A43F2BC
S3150800A1D881030B63536943F002035361BFF34F8F3F
S3150800A1E8334A344D42F28253136001F140039360B7
S3150800A1F8314B3249D66004A8CDE9043406F0E6F8AE
S3150800A2082F4B1B88ADF80C302E4B03A904A8CDE9B3
S3150800A218043406F0DBF82846FFF78EFD60232B800A
S3150800A22820236B6001232B85EF626B6147F6680371
S3150800A238AB61EB6141F2111321682B6220464FF49A
S3150800A24800436B64FFF718FD2046FFF759FE2046C2
S3150800A258FFF766FD2046FFF705FE204606B0BDE86F
S3150800A268F08103F59A73234431468B429BD021F833
S3150800A278025BFAE743F8047B9DE708EB050006F05E
S3150800A28885FD0C359CE700BF68F30108B4F301089F
S3150800A29834080040D8F0010878F3010858F3010893
S3150800A2A8002A751590F301080001005000100240B5
S3150800A2B80804024000080040019F000884F30108CA
S3150800A2C8C0F301082DA400082DE9F84F534B1A6866
S3150800A2D89207044640F19D80514A5268002A40F088
S3150800A2E89880856802225A60C368013D9D4228BF46
S3150800A2F81D464FF47A77012D07D92046FFF710FD3A
S3150800A3082046BDE8F84FFFF7ADBD002D3FD0A3683E
S3150800A318022B38BF0223194600231A4604F59B7CEC
S3150800A3283CF8220001328A420344F9D148F6CC5156
S3150800A3384B431B0BB3FBF2F3D4F87821A4F8883106
S3150800A34804F5B070023A90425FD8C4F87821D4F878
S3150800A3587421023A90425AD81380C4F87421FFF738
S3150800A36869FE42F21B518842A4F88001D8BF002131
S3150800A37804F5CA70C8BF012109F0C9FFD4F890319D
S3150800A3880133C4F890312046FFF7BAFD21E004F1FD
S3150800A39824000CF0B9F9A368022B38BF022303F18D
S3150800A3A8010CC0F57A784FEA5C0C2146AA462B467A
S3150800A3B8A9460122D4450FD100FB03F109FB081170
S3150800A3C804F12400B1FBFCF1B1FBF7F189B20CF0FA
S3150800A3D89BFCA3681D448EE7B1F834B1B1F838E19F
S3150800A3E8D94473445AB1ABF5807BBBF5606F0AD87C
S3150800A3F8AEF5807EBEF5606F8CBF002201220AF199
S3150800A408010A0831D6E70022F9E714329BE7143225
S3150800A418A0E702225A60BDE8F88F00BF0004024090
S3150800A428080402404068FFF74FBF037D13B1037E57
S3150800A43883F00103184670470079704730B5C3683A
S3150800A4480D46044693E8070085B001AB83E8070084
S3150800A4586B1C01A88DF80C3006F098FC0120A5762F
S3150800A46805B030BD037D10B504460376C06806F00E
S3150800A47829FD94F82030A27E5840637EC0B25B005E
S3150800A488824208BF43F0010303F00F0363760BB952
S3150800A498237510BD0F2BFCD10123F9E710B5034B23
S3150800A4A80360044609F0C7FD204610BD0CF40108F0
S3150800A4B810B50446FFF7F2FF20463C2109F0D8FFFD
S3150800A4C8204610BD4068FFF7B9BF4368987E7047B5
S3150800A4D84068FFF7AABF43681A7D0AB9187E70470D
S3150800A4E80020704738B504460D4609F0ADFD0F4BF8
S3150800A4F8236000236361238323620D4BE3610D4ABE
S3150800A5080D4B22612A7AE560C4E909340B4B911E82
S3150800A518C4E90B344A420A4B4A412846C4E90D3471
S3150800A528A27606F033FC204638BD00BF0CF40108B5
S3150800A538A8F00108CCF30108DCF30108ECF30108DC
S3150800A548FCF30108C268D3680A3313617047000030
S3150800A55810B5034B0360044609F06DFD204610BD8F
S3150800A56824F4010810B50446FFF7F2FF2046102127
S3150800A57809F07EFF204610BD10B5054B044640F885
S3150800A588243BFFF7E5FF204609F055FD204610BD98
S3150800A5983CF4010810B50446FFF7EEFF20463421BF
S3150800A5A809F066FF204610BD014B00229A607047E5
S3150800A5B8002C00402DE9FF41C3680133C360C26817
S3150800A5C803699B1A002B044641DB434F386805F09C
S3150800A5D83FF8D0F8043400F204401B6898478046D0
S3150800A5E8386805F035F8836AC26A9342227E1ABF2C
S3150800A5F8C36201260026012362BB384A237645F240
S3150800A6085553C4F814801360D36813F00203FBD1BA
S3150800A6184FF4837191604CF6CC4111603049CA6990
S3150800A62842F40062CA61BFF34F8F2E4AADF8043070
S3150800A63840F2FF215160F52111602B4B40F2D221DF
S3150800A648516002A801A9CDE9023405F0BFFE04B09D
S3150800A658BDE8F081656923763868C4F8148004F083
S3150800A668F7FF94F82020D0F87C32A8EB050582B3CA
S3150800A678E269E36141F28737012184F8201003F57E
S3150800A688FA7041F288343B444FF47A7CB3FBF4F110
S3150800A698B0FBFCF002F5FA733A44B3FBFCF3471A2D
S3150800A6A8B2FBF4F29C1ABC4228BF3C46A542CED35C
S3150800A6B813440844834238BF03469D42C7D8002E30
S3150800A6C8C5D0064B4AF6AA221A60064BF5221A6026
S3150800A6D8BDE71A46CDE700BF181300200030004032
S3150800A6E800100240002C0040B1A5000810B5044629
S3150800A6F809F0AAFC084B23600023C4E90433C4E91B
S3150800A7080633E360236204F1240009F09DFC034B39
S3150800A71863622463204610BD3CF4010824F401084A
S3150800A72800797047B0F9040070470B6808469B68BB
S3150800A73818478180012070470079704700207047C4
S3150800A74843685856704780687047002070474068C5
S3150800A75803681B681847007970474068704783681C
S3150800A7681A68914205D35B68994202D8416001206C
S3150800A77870470020704713B50C4672B91A680DF170
S3150800A788070192681846904723689DF807105B6882
S3150800A798204602B0BDE810401847002002B010BD98
S3150800A7A810B51C4652B90B6808461B6898472368B3
S3150800A7B801469B6820469847012010BD0020FCE703
S3150800A7C873B51E460B6808469B6815460C46984797
S3150800A7D8A8420FD933680DF107015B6830469847D8
S3150800A7E823689DF907205B682946204602B0BDE81C
S3150800A7F870401847002002B070BD70B51D460B683A
S3150800A80808469B6816460C469847B0420BD92368F3
S3150800A81831461B68204698472B6801465B682846D8
S3150800A8289847012070BD0020FCE713B50C4672B99D
S3150800A8381A680DF1070192681846904723689DF82B
S3150800A84807105B68204602B0BDE81040184700208C
S3150800A85802B010BD10B51C4652B90B6808461B68ED
S3150800A8689847236801469B6820469847012010BDEB
S3150800A8780020FCE7B1F5803F10B50AD20268948833
S3150800A8888BB29C4205D8D2889A4202D381600120AD
S3150800A89810BD0020FCE708B54068FFF7EBFF08BDC8
S3150800A8A870B50D4616460446102009F0D5FD334600
S3150800A8B82A462146BDE8704009F050BF90F90C3089
S3150800A8C8934207DC90F90D30934203DB4368012075
S3150800A8D85A54704700207047436898687047436819
S3150800A8E81868704710B504680CB9204610BD60682A
S3150800A8F803681B6898470028F8D12468F4E710B558
S3150800A90804462430FFF7EEFF30B104F12800FFF7BC
S3150800A918E9FF80F00100C0B210BD10B50446406BCF
S3150800A928436A24301B68984760B904F11C00FFF78E
S3150800A9380EFF48B904F11400FFF709FF30B994F877
S3150800A948440010BD0220FCE70420FAE70320F8E7D4
S3150800A95808B590F83C300344503093F9601093F8E2
S3150800A9686030042B03D8FFF7FAFE012008BD002142
S3150800A978FFF7F5FE0020F9E7002380F87C3080F819
S3150800A988B03080F8B830A0F8C030012380F8A83075
S3150800A998704738B50546406B0C460CF03DFE08B1C5
S3150800A9A8B5F9C840204638BDF8B504463030FFF733
S3150800A9B899FF10B1002384F87C302046FFF7C8FFBA
S3150800A9C8054630B104F12C00FFF78CFF80F001052D
S3150800A9D8EDB2294604F1840009F099FC35B1D4F89A
S3150800A9E8843043BB94F87C5085F0010584F8B05050
S3150800A9F82046FFF784FF94F87C5007460DB994F86B
S3150800AA08B05004F10C00FFF7A2FE00BBAFB101235A
S3150800AA1884F8B83004F10C00FFF799FE78B975B9CF
S3150800AA280323B4F9C81084F8A8302046FFF7B1FF05
S3150800AA38A4F8C000F8BD0025D8E784F8B85094F8FB
S3150800AA487C3053B1052384F8A8300021EDE70123AB
S3150800AA5884F8B830002FDDD1F1E794F8B0302BB17F
S3150800AA680423B4F9D81084F8A830DEE794F8B800B7
S3150800AA7828B10223B4F9D01084F8A830D5E7012301
S3150800AA8884F8A830D4E710B50446FFF746FF02282D
S3150800AA9804BF002384F84430636B84F83C0093F8B9
S3150800AAA8FC3020461BB9BDE81040FFF77DBFBDE85E
S3150800AAB81040FFF761BF00002DE9F74F04460191E2
S3150800AAC809F0C2FA5C4B5D4A23605D495D4B236217
S3150800AAD80025C4E90432C4E90632C4E91415019B01
S3150800AAE8636304F14801A165574B5849A363216676
S3150800AAF8574B5849E260A166052204F16001C4E98A
S3150800AB081B12C4E91E352364E264534BC4F880302B
S3150800AB1840F2FF42A4F874204FF4FA734F4AE563EB
S3150800AB28C4E90955C4E90B556564A56484F86450F5
S3150800AB38C4E9213304F18403C4E92323484AC4E950
S3150800AB482523484BC4F89C3004F18003C4F8A03088
S3150800AB58102009F081FC4449444B04F19C0209F091
S3150800AB68FDFD434BC4F8A430424BC4F8AC30C4E9E5
S3150800AB782D35414BC4F8BC30404BC4F8C850642244
S3150800AB88C4E93335C4E93535C4F8C430A4F8C8204F
S3150800AB98C4F8A850C4F8B050C4F8C050102009F03A
S3150800ABA85BFC04F13802364B364909F0D7FD10200C
S3150800ABB809F052FC04F168023349344B09F0CEFD1A
S3150800ABC8019B04F1B4061E62102009F045FC304BBF
S3150800ABD83049324609F0C2FD04F1BC012E4A2F4815
S3150800ABE8FFF75EFE04F1C4012B4A2D48FFF758FE0D
S3150800ABF804F1D40704F1CC01274A2A48FFF750FE86
S3150800AC083946254A2848FFF74BFE102009F024FC48
S3150800AC1804F178021E4B254909F0A0FD102009F019
S3150800AC281BFC234B234904F1A40209F097FD20468F
S3150800AC3803B0BDE8F08F00BFE8F4010884F4010802
S3150800AC4864F4010800100020A4F401080001FF02BA
S3150800AC58A8F00108B4F4010840F5010858F30108FA
S3150800AC6854F4010894F4010860F50108F8F201089B
S3150800AC78C8F40108CCF30108D8F00108D8F401088B
S3150800AC883CF5010864F5010868F5010838F5010876
S3150800AC98F0F2010870F50108FCF201086CF50108E4
S3150800ACA85CF5010858F5010854F5010850F501083E
S3150800ACB834F501084CF5010838B50446006808B9A2
S3150800ACC8204638BD0568082109F0D2FB2846F6E76C
S3150800ACD80B4B10B5044640F8303BFFF7EDFF04F17F
S3150800ACE82C00FFF7E9FF04F12800FFF7E5FF04F158
S3150800ACF82400FFF7E1FF204609F09DF9204610BD1C
S3150800AD08E8F4010810B50446FFF7E2FF2046DC21FF
S3150800AD1809F0AEFB204610BD10B504460C3009F004
S3150800AD286CFB606903681B68984708B12369E36088
S3150800AD3810BD000010B5034B0360044609F07BF903
S3150800AD48204610BD8CF5010810B50446FFF7F2FF3A
S3150800AD582046282109F08CFB204610BD4368D86890
S3150800AD6800B1187F7047000038B504460D4609F04B
S3150800AD786BF90D4B23604FF416720023C4E90332AE
S3150800AD88E3610A4BA36101232377094B6561C4E98B
S3150800AD980834102009F060FB064B074904F118022D
S3150800ADA809F0DCFC204638BD8CF50108A8F0010836
S3150800ADB87CF50108F0F201089CF5010810B504466F
S3150800ADC8C06803681B689847B4F91030B4F91220AC
S3150800ADD88342B8BF03461BB29342A8BF13464FF037
S3150800ADE8640113FB01F393FBF2F3238310BD8088F8
S3150800ADF8704700207047000010B5034B03600446EF
S3150800AE0809F019F9204610BDB8F5010810B5044629
S3150800AE18FFF7F2FF20461C2109F02AFB204610BD41
S3150800AE2870B504460E46154609F00EF9054B23601B
S3150800AE3800232382A361044BE6606582636120468A
S3150800AE4870BD00BFB8F50108A8F5010810B5044695
S3150800AE58283009F0D2FA636A20469847606210BD1E
S3150800AE6838B5084B03600446006A20B9204609F03D
S3150800AE78E2F8204638BD0568082109F0F9FA284697
S3150800AE88F3E700BFD0F5010810B50446FFF7E8FF59
S3150800AE982046302109F0ECFA204610BD10B5D0E955
S3150800AEA80340C36C4C301B689847D4E9013203EB5E
S3150800AEB842029A42194605D0B1F90040844203F184
S3150800AEC80203F6D1501A18BF012010BD38B5C36859
S3150800AED89C7805462CB90069C3691C301B689847D5
S3150800AEE804462846FFF7DAFF80F001002040C0B282
S3150800AEF838BD036993F8F400C0F34000704710B5ED
S3150800AF080446FFF7F6FF28B92046FFF7DFFF10B912
S3150800AF18246A0CB9002010BD606803681B68984746
S3150800AF280028F8D12468F4E710B504468069E26871
S3150800AF38036851785B6898476069C36D01215B6847
S3150800AF485C309847004810BDC1AF000810B50446E4
S3150800AF58C069036801215B6898470F23C4E90A3367
S3150800AF68004810BDEDAF000810B5044680690368AF
S3150800AF7800215B6898476069C36D00215B685C308F
S3150800AF889847E069036800215B6898470F23C4E976
S3150800AF980A33014810BD00BF11B0000810B50446B1
S3150800AFA8FFF7ADFF20B92046BDE81040FFF7DCBF24
S3150800AFB8004810BDC1AF0008FFF7F0BF10B504463A
S3150800AFC8FFF79DFF20B92046BDE81040FFF7CCBF24
S3150800AFD8A36A1BB92046FFF7A7FF10BD0048FCE780
S3150800AFE8EDAF0008FFF7EABF836A10B504463BB918
S3150800AFF8FFF785FF20B12046BDE81040FFF7A6BF3A
S3150800B008004810BD11B00008FFF7EEBF70B504463A
S3150800B0180D46164609F018F8124B2360E6602846CE
S3150800B02804F090FD2061284604F012FB33784FF4AB
S3150800B038887202FB030000F527706061284604F051
S3150800B04807FB00F21C50A061284604F001FB064ADB
S3150800B058002300F5B160E061C4E909232362E362CD
S3150800B068204670BDD0F5010811B0000838B5044669
S3150800B0780069C36E6C301B689847054660690368A3
S3150800B0881B689847854294BF0020012038BDA0F167
S3150800B0980C00FFF7EBBF0B6808469B681847436820
S3150800B0A833F81100704780687047000010B5044BE4
S3150800B0B803601C330446C36008F0BDFF204610BD74
S3150800B0C8E8F5010810B50446FFF7F0FF20461821F1
S3150800B0D809F0CEF9204610BDF8B51D460B68084696
S3150800B0E89B6816460C469847B0420BD92B681F69C9
S3150800B0F8236831461B682046984701462846B847BC
S3150800B1080120F8BD0020FCE773B51E460B68084603
S3150800B1189B6815460C469847A8420ED933680DF120
S3150800B12806011B69304698472368BDF806205B6800
S3150800B13829462046984702B070BD0020FBE7838958
S3150800B148934207D8C389934204D34368012023F856
S3150800B158112070470020704770B5846840682368D6
S3150800B1681D68836808301B6898472B4601462046A1
S3150800B178BDE87040184700002DE9F34716460D4606
S3150800B1881F46044608F060FF1F4AD6F804901F4B6E
S3150800B19822601C32C4E90327B5F808A02F68D5F839
S3150800B1A804804FEA4905994594BF28464FF0FF3071
S3150800B1B809F054F9CDE900090544A84221D110201F
S3150800B1C809F04AF903460546114A43F8042BDDE90E
S3150800B1D8000183E80300C5F80C80102009F03CF943
S3150800B1E80C4B2A46394609F0B9FA0C2009F034F905
S3150800B1F8094B8560C0E900366061204602B0BDE8A3
S3150800B208F08720F802ABD8E7E8F50108FCFFFF3F0E
S3150800B21814F6010844F601083CF60108B0F90400DA
S3150800B22870470B6808469B6818474368585C704718
S3150800B238436801205A5470478068704710B5044B14
S3150800B24803601C330446C36008F0F5FE204610BDAB
S3150800B25860F6010810B50446FFF7F0FF20462421DA
S3150800B26809F006F9204610BDF8B51D460B680846CC
S3150800B2789B6816460C469847B0420BD92B681F6838
S3150800B288236831461B682046984701462846B8472A
S3150800B2980120F8BD0020FCE773B51E460B68084672
S3150800B2A89B6815460C469847A8420ED933680DF18F
S3150800B2B807011B683046984723689DF807205B688E
S3150800B2C829462046984702B070BD0020FBE710B50E
S3150800B2D80446406903681B68984758B12069D0F83E
S3150800B2E88C308C301B689847B4F91C308342D4BF1D
S3150800B2F80020012010BDA0F10C00FFF7E8BF70B5CB
S3150800B3088468406823681D68836808301B689847FE
S3150800B3182B4601462046BDE870401847B0F9063066
S3150800B3288B4206DCB0F908308B4202DB81800120AB
S3150800B33870470020704700002DE9F7430D461E4662
S3150800B3480446174608F080FE244A22601C32C4E9DF
S3150800B35803267E68D5F8008095F80490304609F0EB
S3150800B3687DF8CDE900060644864234D10C2009F05A
S3150800B37873F8034606461A4A43F8042BDDE9000122
S3150800B38883E80300102009F067F832464146154B52
S3150800B39809F0E4F90C2009F05FF8134BB5F90C200D
S3150800B3A8B5F910108660C0E900376061B5F90E3046
S3150800B3B80E48AD68A061A183E2832384102009F0B2
S3150800B3C84BF80B4B04F11802294609F0C7F9204631
S3150800B3D803B0BDE8F08300F8019BC5E760F60108ED
S3150800B3E88CF60108BCF60108B4F6010850F60108FF
S3150800B3F8FCF2010810B504460069436914301B6855
S3150800B408984738B92069C36D5C301B689847C0F3FC
S3150800B418C03010BD0020FCE7A0F10C00FFF7EABF1A
S3150800B42810B5044B03601C330446C36008F003FEDA
S3150800B438204610BDC8F6010810B50446FFF7F0FF08
S3150800B4482046142109F014F8204610BD38B50446DC
S3150800B4580D4608F0F9FD034B23601C33C4E9033590
S3150800B468204638BDC8F6010810B504460069C36CFD
S3150800B4784C301B689847D4E9053203EB42029A42D6
S3150800B488194605D0B1F90040844203F10203F6D102
S3150800B498501A18BF012010BDA0F10C00FFF7E4BF31
S3150800B4A810B5044B03601C330446C36008F0C3FD9B
S3150800B4B8204610BDF4F6010810B50446FFF7F0FF5C
S3150800B4C820461C2108F0D4FF204610BD37B504468F
S3150800B4D80D468DE80C0008F0B7FD9DE80300054BFE
S3150800B4E82360C4E905011C332046C4E9033503B0C3
S3150800B4F830BD00BFF4F6010890F8240080F001007A
S3150800B5087047A0F10C00F7E710B5044B03601C332D
S3150800B5180446C36008F08FFD204610BD20F70108D1
S3150800B52810B50446FFF7F0FF2046282108F0A0FFCB
S3150800B538204610BD70B504460069436F74301B6811
S3150800B54898470646606903681B6898470546A069D0
S3150800B55803681B689847AE4234BF00230123A27FBD
S3150800B568864288BF00239A4203D000226277A377CF
S3150800B57870BD637F217F994286BF0133637784F85C
S3150800B5882420F5E72DE9F743D0F804801A4B0E680E
S3150800B598B1F808904F684FEA48040546984594BF9D
S3150800B5A820464FF0FF3008F059FFCDE9000804445B
S3150800B5B8A0421ED1102008F04FFF034604460F4A42
S3150800B5C843F8042BDDE9000183E80300E76010204F
S3150800B5D808F042FF0A4B2246314609F0BFF80C200C
S3150800B5E808F03AFF074B8460C0E9003503B0BDE8A8
S3150800B5F8F08320F8029BDBE7FCFFFF3F14F60108FF
S3150800B60844F601083CF60108F8B504461F460D46F7
S3150800B618164608F019FD0D4A22601C32C4E90327AC
S3150800B62829463046FFF7AEFF05F10C016061304642
S3150800B638FFF7A8FF2B7E064A237763770023A061C6
S3150800B648A377226284F824302046F8BD20F701083B
S3150800B658CCF3010838B504460069C36C4C301B683E
S3150800B66898470546606903681B6898478542ACBFD2
S3150800B6780020012038BDA0F10C00FFF7EBBF0B68CE
S3150800B68808469B681847436833F91100704780686D
S3150800B6987047000010B5044B03601C330446C360AA
S3150800B6A808F0C9FC204610BD4CF7010810B5044639
S3150800B6B8FFF7F0FF2046182108F0DAFE204610BDED
S3150800B6C8F8B51D460B6808469B6816460C46984703
S3150800B6D8B0420BD92B68DF68236831461B682046B9
S3150800B6E8984701462846B8470120F8BD0020FCE7D8
S3150800B6F873B51E460B6808469B6815460C46984758
S3150800B708A8420ED933680DF10601DB68304698471A
S3150800B7182368BDF906205B6829462046984702B083
S3150800B72870BD0020FBE770B58468406823681D680B
S3150800B738836808301B6898472B4601462046BDE8AB
S3150800B74870401847B0F90C30934208DCB0F90E304F
S3150800B758934204DB4368012023F811207047002030
S3150800B768704700002DE9F34716460D461F4604465E
S3150800B77808F06AFC1F4AD6F804901F4B22601C3250
S3150800B788C4E90327B5F908A02F68D5F804804FEA55
S3150800B7984905994594BF28464FF0FF3008F05EFEE4
S3150800B7A8CDE900090544A84221D1102008F054FE25
S3150800B7B803460546114A43F8042BDDE9000183E8E8
S3150800B7C80300C5F80C80102008F046FE0C4B2A46E4
S3150800B7D8394608F0C3FF0C2008F03EFE094B856081
S3150800B7E8C0E900366061204602B0BDE8F08720F857
S3150800B7F802ABD8E74CF70108FCFFFF3F78F70108CA
S3150800B808A8F70108A0F70108807E7047807B704773
S3150800B81838B50446406903681B6898470546206991
S3150800B82803681B68984718B1237E23B145B9607E1B
S3150800B838A076657638BD2DB1607E80F00100F7E701
S3150800B8480020F5E72846F3E710B5044B03601C33D8
S3150800B8580446C36008F0EFFB204610BDB4F701089C
S3150800B86810B50446FFF7F0FF20461C2108F000FE35
S3150800B878204610BD2DE9F34717460E460446984656
S3150800B88808F0E2FB1C4B7D6823601C332846E360FE
S3150800B898D6F8049096F808A008F0E0FDCDE900056A
S3150800B8A80544854225D10C2008F0D6FD03460546F1
S3150800B8B8124A43F8042BDDE9000183E80300102047
S3150800B8C808F0CAFD0E4B2A46494608F047FF0C20E1
S3150800B8D808F0C2FD0B4B8560C0E90037337823763C
S3150800B8E8C4E90408002320466376A37602B0BDE8B7
S3150800B8F8F08700F801ABD4E7B4F701088CF601081D
S3150800B908BCF60108B4F6010890F8280080F0010092
S3150800B9187047A0F10C00F7E710B5044B03601C3319
S3150800B9280446C36008F087FB204610BDE0F7010807
S3150800B93810B50446FFF7F0FF20462C2108F098FDBD
S3150800B948204610BDF8B50446806903681B68984701
S3150800B9580646E06903681B6898470546A0690368B0
S3150800B9681B6898470746606903681B689847BD427D
S3150800B97828BF3D46ADB2002808BF3546206903688A
S3150800B9881B68984794F82230A84234BF0020012043
S3150800B998984205D0002384F8213084F82200F8BD9F
S3150800B9A894F8213094F820209A4286BF013384F807
S3150800B9B8213084F82800F2E7F8B504460D461646FD
S3150800B9C81F4608F041FB104A069B22601C32C4E950
S3150800B9D80327636129463046FFF7D4FD05F10C01B4
S3150800B9E8A0613046FFF7CEFD2B7E084A84F8203042
S3150800B9F884F821300023E06184F82230626284F8F2
S3150800BA0828302046F8BD00BFE0F70108CCF3010846
S3150800BA1873B54368ADF80610A3B1046803F180430B
S3150800BA28B4F90050013BA94204EB830634F92330E4
S3150800BA38BABF294622460DF106028B42B8BF3246DE
S3150800BA48B2F900100181012002B070BD08B540683E
S3150800BA58FFF7DEFF012008BD074B10B50446036053
S3150800BA68C06818B16169091A08F002FD204608F08D
S3150800BA78E2FA204610BD00BF54F8010810B504467E
S3150800BA88FFF7EAFF2046502108F0F2FC204610BDD1
S3150800BA98B0F91030934209DCB0F91230934205DB4D
S3150800BAA8036803EB810301205A807047002070471A
S3150800BAB84368B3F9080070474368D3E90030C01AE9
S3150800BAC8801070474368D3E90030C01A8010704761
S3150800BAD843681B6803EB8103B3F9020070474368A0
S3150800BAE81B6833F92100704708B54068FFF7D0FF8F
S3150800BAF808BDB0F90C30934210B517DCB0F90E3012
S3150800BB08934213DB046804EB810324F82120416877
S3150800BB1804330431994201D1012010BD33F9040CCC
S3150800BB289042B8BF23F8042C0433F3E70020F4E75F
S3150800BB3808B54068FFF7DDFF08BD000070B5044684
S3150800BB4826460D4608F080FA324B46F80C3B40204C
S3150800BB5808F082FC00F14002E060626103460021B9
S3150800BB681980598004339A42FAD14FF096632261B4
S3150800BB784FF0FA62C4E90623274B284AC4E908366F
S3150800BB88274BC4E90A36031D4430118823F8041CD8
S3150800BB98518823F8021C0433834202F10402F4D1C3
S3150800BBA8102008F059FC04F120021E4B1E490646CF
S3150800BBB808F0D4FD304608F033FD102008F04CFC98
S3150800BBC804F12802174B1949064608F0C7FD3046FE
S3150800BBD808F026FDD4E903135B1A9B10C4E90C1375
S3150800BBE800232387124B134804F13002C4E90F32A5
S3150800BBF8114B2946C4E911320CF0EAF9E064102021
S3150800BC0808F02AFC0D4B0E4904F13C0208F0A6FD83
S3150800BC18204670BD54F801080CF8010864F80108B4
S3150800BC2820F80108A8F70108ECF80108CCF801087B
S3150800BC3834F80108A4F8010844F80108FCF20108D8
S3150800BC48C8F80108F0B585B0CDE9020100EB810511
S3150800BC5841F31D030446002B06DCAC4211D134F926
S3150800BC68023C184605B0F0BD591004EB810634F9B4
S3150800BC7821709742DEBF591A01F1FF31341D0B4670
S3150800BC88E9E7A042B4F90230EBD0B4F9005034F928
S3150800BC98021C34F9040C00922A4608F0FCFB03B28D
S3150800BCA8DFE708B543682BB1B0F9082003C8FFF7E2
S3150800BCB8C9FF08BD1846FCE708B54068FFF7F1FF55
S3150800BCC808BDC36C70B503F164055B6E44305C68E7
S3150800BCD8FFF7F2FF234601462846BDE87040184795
S3150800BCE8074B10B504460360C06818B16169091A9C
S3150800BCF808F0BEFB204608F09EF9204610BD00BF96
S3150800BD0814F9010810B50446FFF7EAFF2046502142
S3150800BD1808F0AEFB204610BD70B5044626460D460B
S3150800BD2808F092F9324B46F80C3B402008F094FB91
S3150800BD3800F14002E06062610346002119805980DB
S3150800BD4804339A42FAD14FF0966322614FF0FA62A9
S3150800BD58C4E90623274B284AC4E90836274BC4E909
S3150800BD680A36031D4430118823F8041C518823F821
S3150800BD78021C0433834202F10402F4D1102008F0AD
S3150800BD886BFB04F120021E4B1E49064608F0E6FC2A
S3150800BD98304608F045FC102008F05EFB04F128023E
S3150800BDA8174B1949064608F0D9FC304608F038FCFE
S3150800BDB8D4E903135B1A9B10C4E90C1300232387E1
S3150800BDC8124B134804F13002C4E90F32114B2946C5
S3150800BDD8C4E911320CF0FCF8E064102008F03CFBCA
S3150800BDE80D4B0E4904F13C0208F0B8FC204670BD1C
S3150800BDF814F901080CF8010848F9010820F801089F
S3150800BE08A8F70108ECF80108CCF8010834F8010885
S3150800BE1824F9010844F80108FCF20108C8F80108E1
S3150800BE28C36C70B503F164055B6E44305C68FFF754
S3150800BE3843FF234601462846BDE8704018470000D8
S3150800BE48074B10B504460360C06818B16169091A3A
S3150800BE5808F00EFB204608F0EEF8204610BD00BF95
S3150800BE6890F9010810B50446FFF7EAFF2046502165
S3150800BE7808F0FEFA204610BD70B5044626460D465B
S3150800BE8808F0E2F8324B46F80C3B402008F0E4FA92
S3150800BE9800F14002E060626103460021198059807A
S3150800BEA804339A42FAD14FF0966322614FF0FA6248
S3150800BEB8C4E90623274B284AC4E90836274BC4E9A8
S3150800BEC80A36031D4430118823F8041C518823F8C0
S3150800BED8021C0433834202F10402F4D1102008F04C
S3150800BEE8BBFA04F120021E4B1E49064608F036FC2A
S3150800BEF8304608F095FB102008F0AEFA04F128023F
S3150800BF08174B1949064608F029FC304608F088FBFD
S3150800BF18D4E903135B1A9B10C4E90C13002323877F
S3150800BF28124B134804F13002C4E90F32114B294663
S3150800BF38C4E911320CF04CF8E064102008F08CFAC9
S3150800BF480D4B0E4904F13C0208F008FC204670BD6A
S3150800BF5890F901080CF80108A0F9010820F8010869
S3150800BF68A8F70108ECF80108CCF8010834F8010824
S3150800BF78E0F9010844F80108FCF20108C8F80108C4
S3150800BF88C36C70B503F164055B6E44305C68FFF7F3
S3150800BF9893FE234601462846BDE870401847000028
S3150800BFA8074B10B504460360C06818B16169091AD9
S3150800BFB808F05EFA204608F03EF8204610BD00BF95
S3150800BFC80CFA010810B50446FFF7EAFF2046502187
S3150800BFD808F04EFA204610BD70B5044626460D46AA
S3150800BFE808F032F8324B46F80C3B402008F034FA91
S3150800BFF800F14002E0606261034600211980598019
S3150800C00804339A42FAD14FF0966322614FF0FA62E6
S3150800C018C4E90623274B284AC4E90836274BC4E946
S3150800C0280A36031D4430118823F8041C518823F85E
S3150800C038021C0433834202F10402F4D1102008F0EA
S3150800C0480BFA04F120021E4B1E49064608F086FB29
S3150800C058304608F0E5FA102008F0FEF904F128023F
S3150800C068174B1949064608F079FB304608F0D8FAFE
S3150800C078D4E903135B1A9B10C4E90C13002323871E
S3150800C088124B134804F13002C4E90F32114B294602
S3150800C098C4E911320BF09CFFE064102008F0DCF9C3
S3150800C0A80D4B0E4904F13C0208F058FB204670BDBA
S3150800C0B80CFA01080CF801081CFA010820F801080E
S3150800C0C8A8F70108ECF80108CCF8010834F80108C3
S3150800C0D85CFA010844F80108FCF20108C8F80108E6
S3150800C0E8C36C70B503F164055B6E44305C68FFF792
S3150800C0F8E3FD234601462846BDE870401847000078
S3150800C108074B10B504460360C06818B16169091A77
S3150800C11808F0AEF9204607F08EFF204610BD00BF8E
S3150800C12888FA010810B50446FFF7EAFF20465021A9
S3150800C13808F09EF9204610BD70B5044626460D46F9
S3150800C14807F082FF324B46F80C3B402008F084F98A
S3150800C15800F14002E06062610346002119805980B7
S3150800C16804339A42FAD14FF0966322614FF0FA6285
S3150800C178C4E90623274B284AC4E90836274BC4E9E5
S3150800C1880A36031D4430118823F8041C518823F8FD
S3150800C198021C0433834202F10402F4D1102008F089
S3150800C1A85BF904F120021E4B1E49064608F0D6FA2A
S3150800C1B8304608F035FA102008F04EF904F128023E
S3150800C1C8174B1949064608F0C9FA304608F028FAFE
S3150800C1D8D4E903135B1A9B10C4E90C1300232387BD
S3150800C1E8124B134804F13002C4E90F32114B2946A1
S3150800C1F8C4E911320BF0ECFEE064102008F02CF9C3
S3150800C2080D4B0E4904F13C0208F0A8FA204670BD09
S3150800C21888FA01080CF8010898FA010820F80108B4
S3150800C228A8F70108ECF80108CCF8010834F8010861
S3150800C238D8FA010844F80108FCF20108C8F8010808
S3150800C248C36C70B503F164055B6E44305C68FFF730
S3150800C25833FD234601462846BDE87040184770B5A1
S3150800C268064603F06FFC0446A82008F0F5F83146A0
S3150800C27805460FF0A1FD294604F1C000BDE8704047
S3150800C28807F016BF10B5034B0360044607F0D3FE44
S3150800C298204610BD04FB010810B50446FFF7F2FF57
S3150800C2A820466C2108F0E4F8204610BD10B5034B6B
S3150800C2B80360044607F0BFFE204610BD1CFB0108B4
S3150800C2C810B50446FFF7F2FF20463C2108F0D0F8DF
S3150800C2D8204610BD10B5034B03600446FFF7E6FF7A
S3150800C2E8204610BD44FB010810B50446FFF7F2FFC7
S3150800C2F82046442108F0BCF8204610BDC268B0F9AB
S3150800C308203073B5B2F948100B44B0F93C108B428B
S3150800C318CCBF01230023044680F8603003DD9088EB
S3150800C328A08202B070BD806903681B689847E368F5
S3150800C338B3F93A10B4F93C30194488420546B4BFF3
S3150800C3480021012104F1440007F0E1FFE368B4F98C
S3150800C3582010B3F922302B448B42CCBF002101218F
S3150800C36804F1280007F0D3FFB4F92060B4F93C00BB
S3150800C378E36894F85820D9891B8AB542B8BF354668
S3150800C3882DB28542A8BF0546009522B90246304611
S3150800C39808F081F8C4E73246FAE770B50D4616463E
S3150800C3A80446102008F058F833462A462146BDE8C0
S3150800C3B8704008F0D3B910B500210446283007F0B4
S3150800C3C8A0FF002104F1440007F09BFF002384F82E
S3150800C3D86030E3689B88A38210BD08B5FFF7EBFFBA
S3150800C3E808BD10B50446FFF7E6FF626E9389013368
S3150800C3F89381A26E93890133938110BD08B540686D
S3150800C408FFF7EFFF08BDF8B5054610200E46174694
S3150800C41808F022F83B4604463246294608F09EF9B3
S3150800C4282046F8BDD0E906239B1A5810002BB8BF3A
S3150800C4380B30704770B504461430FFF7F3FF002237
S3150800C44804F12A01904208D1002304F12A051E4660
S3150800C4589A420BD10023238770BDE36A02338B42C5
S3150800C46802D2E3620132EDE7163BF8E7206B811C3E
S3150800C478A94203D2068001332163E9E71639F7E7AB
S3150800C488406808B50430FFF7CDFF80B208BD38B557
S3150800C498D0E90632002400F116019A4205D1FFF7C1
S3150800C4A8C1FFB4FBF0F080B238BD33F8025B2C4408
S3150800C4B88B42F2D3163BFBE710B50446C0680368FF
S3150800C4C81B689847236B04F11402023B9A420BD85F
S3150800C4D82363E36A023B9A4208D81880E362104647
S3150800C4E8FFF7D5FF208710BD1633EFE71633F2E7B7
S3150800C4F80A29F8B528BF0A21071D0129044638461E
S3150800C5080D46164638BF0125FFF78CFF2A1A11462D
S3150800C51804F11A0C00290EDB002AA0EB0500C8BF97
S3150800C5280020104404F11A0570B91AB13846FFF705
S3150800C538AEFF2085F8BDE3690233634502D2E3619D
S3150800C5480131E7E7163BF8E7216A8B1CAB4203D2B1
S3150800C5580E8001382362E7E7163BF7E72DE9F04F27
S3150800C5688DB005460068049103F0ECFA83462868FE
S3150800C578DFF890A1644F03F06BF881466C2007F04A
S3150800C5886BFF044604F1100607F05EFD5F4B236057
S3150800C5984FF0000809F58073C4F80CA041F28839F1
S3150800C5A8C6F80480A3615A4BE361C4F82090A4F83E
S3150800C5B824900AF12401276104F1280008F05CFD9B
S3150800C5C8534BA4F84090C4E90E380AF13C0104F12B
S3150800C5D8440008F051FD4F4B6365C4F858800222A1
S3150800C5E841F2017104F15C0004F1380808F008FD0D
S3150800C5F8494A4A484146FFF706FF04F11C09464AD4
S3150800C608606649464648FFF7FEFE464AA066314632
S3150800C6184548FFF7C2FEA1693F4A4448FFF7F3FEBB
S3150800C628E368D96C49B11020059107F015FF404B0E
S3150800C638059904F1540208F091F821460BF1C00057
S3150800C64807F036FD286803F07DFAA369CDF824803B
S3150800C658CDE90739374B82464820CDE90A3407F031
S3150800C668FBFE0CAB044613E90F008DE80F00079B89
S3150800C678049A3149204609F02BF921460AF1C000E7
S3150800C68807F016FD286803F05DFA8046442007F08F
S3150800C698E3FE044607F0D8FC284B2360E66016221A
S3150800C6A8002104F1140012F07FFC04F110060022A0
S3150800C6B8C4E90B00C4E90D7230460A21FFF718FFD2
S3150800C6C804F13401174A1E48FFF767FE1D4B23601D
S3150800C6D81D4B144A1D48C4E90F3604F13C01FFF7FF
S3150800C6E85CFE214608F1C00007F0E2FC0D4A18482E
S3150800C6F804F13401FFF751FE04F134000DB0BDE82A
S3150800C708F08F00BF54FB0108A8F5010804FB0108CF
S3150800C71850F60108A8F00108FCF20108D8FB010840
S3150800C728DCFB0108ECF20108CCFB0108C4FB010894
S3150800C738F0F2010805C40008A4FB01081CFB01085F
S3150800C748C8FB010844FB010834FB0108D4FB0108AF
S3150800C758D0FB01080A2908B505D840680022FFF762
S3150800C768C7FE012008BD0020FCE703685B68184778
S3150800C77870B5D0E90334226855681A6818461268ED
S3150800C78890472B4601462046BDE8704018470000EA
S3150800C79810B5034B0360044607F04DFC204610BD50
S3150800C7A8F0FB010810B50446FFF7F2FF20461C21E6
S3150800C7B807F05EFE204610BD10B5034B036004461D
S3150800C7C807F039FC204610BD20FC010810B50446C0
S3150800C7D8FFF7F2FF2046142107F04AFE204610BD4F
S3150800C7E810B5034B0360044607F025FC204610BD28
S3150800C7F808FC010810B50446FFF7F2FF20461C217D
S3150800C80807F036FE204610BDF8B5054614200F4633
S3150800C818164607F021FE044607F016FC054B23606A
S3150800C828C4E90376214605F1C000BDE8F84007F0DB
S3150800C8383FBC00BF20FC010803F084B938B504469C
S3150800C84808200D4607F008FE236845600360206047
S3150800C85838BD000070B50546006802F0F9FE0646C0
S3150800C8681C2007F0F9FD044607F0EEFB0F4B236082
S3150800C8784FF47A720023E28106F5A5660C4AA3816D
S3150800C8882376626128682661FFF7D6FF696804F18E
S3150800C8981402AC31FFF7B8FF2868FFF7CDFF214629
S3150800C8A8C030BDE8704007F003BC00BFF0FB0108C4
S3150800C8B8A8F0010870B50446006802F0C9FE0646E5
S3150800C8C8282007F0C9FD06F5AB61C822054609F018
S3150800C8D811FB2068FFF7B0FF616805F118024031BF
S3150800C8E8FFF792FF2068FFF7A7FF616805F11002B6
S3150800C8F87831FFF789FF2068FFF79EFF2946C03081
S3150800C908BDE8704007F0D4BB2DE9F0410446D0E9EC
S3150800C9180006FFF791FF62680746206802F1480596
S3150800C928FFF78AFF8046282007F096FD4346044607
S3150800C9382A460849FEF768FE214607F1C00007F0AF
S3150800C948B7FB04F10C0106F12C00FFF777FFBDE8E9
S3150800C958F08100BF84FC01082DE9F041054600680E
S3150800C968FFF76AFF6A680746286802F14806FFF76C
S3150800C97863FF8046182007F06FFD43460446324693
S3150800C9880B49FEF7F9FB214607F1C00007F090FBB3
S3150800C9986D6804F10C0105F12C00FFF74FFF04F14F
S3150800C9A80C0105F13000FFF749FFBDE8F08100BF2B
S3150800C9B878FC01082DE9F0410446D0E90006FFF79E
S3150800C9C83BFF62680746206802F14805FFF734FF0F
S3150800C9D88046182007F040FD434604462A4608497B
S3150800C9E8FEF7C0FE214607F1C00007F061FB04F117
S3150800C9F80C0106F12C00FFF721FFBDE8F08100BF06
S3150800CA086CFC01082DE9F7430446D0E90007FFF74F
S3150800CA1813FF62688046206802F14805FFF70CFF95
S3150800CA2881462C20646807F017FDAC34064609F5DC
S3150800CA38E4732A4608490094FEF7BEFF314608F112
S3150800CA48C00007F035FB06F10C0107F12C00FFF7CB
S3150800CA58F5FE03B0BDE8F08350FC010870B505463D
S3150800CA68006802F0F5FD00F58D642868FFF7E4FE16
S3150800CA788462102007F0F0FC2246034B0349BDE800
S3150800CA88704007F06BBE00BFF0F20108CCFC010845
S3150800CA98F7B505460068FFF7CFFE06462868FFF78C
S3150800CAA8CBFE07461C2007F0D7FC0F4B0093032341
S3150800CAB80193DDE9002304463946FEF707FD2146BA
S3150800CAC806F1C00007F0F4FA6D6804F10C0105F1E7
S3150800CAD82C00FFF7B3FE04F10C0105F13000FFF74F
S3150800CAE8ADFE03B0F0BD00BFA0FC0108F8B50446CA
S3150800CAF8D0E90005FFF7A0FE06462068FFF79CFE6A
S3150800CB080746142007F0A8FC39460446FEF79EFC9B
S3150800CB18214606F1C00007F0CBFA04F10C0105F12D
S3150800CB282C00FFF78BFEF8BD2DE9F0410446006896
S3150800CB38FFF782FE62680746206802F14805FFF794
S3150800CB487BFE8046242007F087FC434606462A468D
S3150800CB580749FEF7F1FB314607F1C00007F0A8FAC6
S3150800CB68606806F10C013030FFF768FEBDE8F08111
S3150800CB783CFC01082DE9F041044600688846FFF7A1
S3150800CB885BFE626807461C2002F1480507F064FC4C
S3150800CB98434606462A460849FEF76CFE314607F11B
S3150800CBA8C00007F085FA606806F10C013030FFF717
S3150800CBB845FEBDE8F08100BF30FC010843681961ED
S3150800CBC8704743689961704743681962704708B5A2
S3150800CBD840682430FFF732FE08BD08B5406828309B
S3150800CBE8FFF72CFE08BDF7B5044600688DE8060071
S3150800CBF8FFF722FE06462068FFF71EFE07461C209A
S3150800CC0807F02AFC9DE80C0005463946FEF75EFC47
S3150800CC18294606F1C00007F04BFA05F10C01204633
S3150800CC2803B0BDE8F040FFF7D8BF00002DE9F74389
S3150800CC3805460846296801920BF0CAF90646286887
S3150800CC48FFF7FAFD07461C20BDF90490BDF90680D2
S3150800CC5807F002FC044607F0F7F9134B2360134B59
S3150800CC6863616436002323762661A4F80C90A4F839
S3150800CC780E80214607F1C00007F01AFA2868FFF760
S3150800CC88DBFD06462868FFF7D7FD143400F11C01BA
S3150800CC9822463046FFF7B8FD2868FFF7CDFD8461C0
S3150800CCA803B0BDE8F08300BF08FC0108A8F0010836
S3150800CCB82DE9F8430446006888469146FFF7BCFD07
S3150800CCC806462068FFF7B8FD07464FF48C7007F04C
S3150800CCD8C3FB4B460546424639460DF0FDFD294637
S3150800CCE806F1C00007F0E4F9702007F0B5FB064620
S3150800CCF82068FFF7A1FD05F1BC0100F19402304652
S3150800CD080DF0C4F963682068BC3368362B61AE61D8
S3150800CD18FFF792FD06462068FFF78EFD0746D820DE
S3150800CD2807F09AFB3946044605F134020CF0DCFF95
S3150800CD38214606F1C000BDE8F84307F0B9B910B5B1
S3150800CD4804460068FFF78BFA204610BD2DE9FF4117
S3150800CD58044601600846FFF76FFD06462068FFF798
S3150800CD686BFD0746DC2007F077FB39460546FDF7D5
S3150800CD78A3FE294606F1C00007F09AF965602068FF
S3150800CD8802F066FCD0F8503406465B68002100F5C8
S3150800CD988A609847274A51681068128901AB03C305
S3150800CDA820681A804FF096730193FFF745FD0746EA
S3150800CDB8782007F051FB01AA054606F22C4108F02F
S3150800CDC8E5FF294607F1C00007F072F92068FFF762
S3150800CDD833FD62680746142002F1400607F03CFB5B
S3150800CDE83246804605F1340109F03EF8414607F116
S3150800CDF8C00007F05DF92068FFF71EFD6268074660
S3150800CE08142002F1780607F027FB3246804605F11A
S3150800CE181C0109F029F8414607F1C00007F048F94E
S3150800CE282046FFF717FD2046FFF744FD204604B0C5
S3150800CE38BDE8F081D0FC010803460069197E02683E
S3150800CE48526811B1B3F90E101047B3F90C10FBE785
S3150800CE5808B5FFF7F1FF08BD08B5FFF7EDFF08BDF0
S3150800CE6803460069197E0268526809B1D9891047CC
S3150800CE789989FCE708B5FFF7F3FF08BD08B5FFF77A
S3150800CE88EFFF08BD70474368084618472DE9F7437A
S3150800CE98814602F057FE0646484602F0E5FB00F5CD
S3150800CEA86875382007F0D8FA06F1C00407462946F7
S3150800CEB80EF026FC3946204607F0FAF8382007F01F
S3150800CEC8CBFA294680460EF047FD4146204608F12A
S3150800CED8300807F0EDF8C6F860801C2007F0BCFAA1
S3150800CEE84FF49A7207464146FDF79AFF3946204697
S3150800CEF8143707F0DDF8B767C6F88070102007F012
S3150800CF08ABFA3A46654B664907F028FC382007F01D
S3150800CF18A3FA294607460EF059FD39462046303702
S3150800CF2807F0C6F8C6F89070382007F095FA29462B
S3150800CF3807460EF0BFFD39462046303707F0B8F8E1
S3150800CF48C6F89870382007F087FA294607460EF07B
S3150800CF58EBFD39462046303707F0AAF8C6F8A07020
S3150800CF68382007F079FA294607460EF017FE39469B
S3150800CF782046303707F09CF8B762382007F06CFA75
S3150800CF88294607460EF052FC39462046303707F040
S3150800CF988FF83761382007F05FFA294607460EF0FA
S3150800CFA8E9FB39462046303707F082F837673820D4
S3150800CFB807F052FA294607460EF042FD394620463A
S3150800CFC807F076F8382007F047FA294607460EF09C
S3150800CFD86BFC3946204607F06BF849466846FFF762
S3150800CFE8B5FE6846FFF7B8FC6846FFF78DFC684645
S3150800CFF8FFF7E0FC6846FFF74BFD6846FFF702FDBA
S3150800D0086846FFF791FD4C2007F026FA2946074699
S3150800D0180EF030FE3946204607F04AF807F1200890
S3150800D028102007F019FA42461E4B1F4907F096FBCF
S3150800D03807F12805102007F00FFA1A4B1B492A464C
S3150800D04807F08CFB07F13C01C6F850803563684643
S3150800D058FFF7B4FD502007F0FFF949460546FEF7E5
S3150800D0686DFD302007F0F8F9114A06464946FDF7DE
S3150800D078CDFF3146204607F01BF805F13C02684605
S3150800D0880C49FFF715FE2946204607F011F86846A9
S3150800D098FFF755FE03B0BDE8F08300BFECF20108C0
S3150800D0A8D0FB0108FCF2010850FD010854FD0108EF
S3150800D0B82CFD010838FD01082DE9F04F85B0894691
S3150800D0C8074602F03FFD0546384602F0C1FA824691
S3150800D0D8384602F0C9FA00F56876382007F0BCF930
S3150800D0E805F1C004804631460FF0AEFA414620469F
S3150800D0F806F0DEFF382007F0AFF9314683460FF011
S3150800D10855FB594620460BF1300B06F0D1FFC5F8FA
S3150800D11860B01C2007F0A0F94FF49A728046594669
S3150800D128FDF77EFE4146204608F1140806F0C0FFC2
S3150800D138C5F87880C5F88080102007F08DF9424632
S3150800D1486C4B6D4907F00AFB382007F085F931461C
S3150800D15880460FF065FB4146204606F0A9FF08F110
S3150800D1683003C5F89030642007F076F90AF514728A
S3150800D1788046624908F060FA4146204606F098FF5C
S3150800D18808F14C03C5F89830382007F065F9314698
S3150800D19880460FF02BFC4146204606F089FF08F129
S3150800D1A83003C5F8A030B9F1000F0DD0382007F0C4
S3150800D1B853F9314680460FF06DFB4146204606F086
S3150800D1C877FF08F13003AB62382007F045F9314696
S3150800D1D880460FF0ADFA4146204606F069FF08F189
S3150800D1E830032B61382007F037F9314680460FF0AF
S3150800D1F865FA4146204606F05BFF08F130032B67BF
S3150800D20839466846FFF7A2FD6846FFF7A5FB684654
S3150800D218FFF77AFB6846FFF7CDFB6846FFF738FC49
S3150800D2286846FFF7EFFB6846FFF77EFC482007F0DD
S3150800D23813F9314680460FF0A1FB4146204606F011
S3150800D24837FF08F12009102007F006F94A462C4B43
S3150800D2582C4907F083FA08F12806102007F0FCF88D
S3150800D2683246274B284907F079FA102007F0F4F8D0
S3150800D27808F14002254B264907F070FA08F14001E3
S3150800D2886846FFF777FCC5F850902E6308F1380111
S3150800D2986846FFF79CFC1F4B029301230393DDE9BD
S3150800D2A802126846FFF79FFC502007F0D5F8394662
S3150800D2B80546FEF7E1FD302007F0CEF8164A064681
S3150800D2C83946FDF7A3FE3146204606F0F1FE05F17C
S3150800D2D83C0268461149FFF7EBFC2946204606F04A
S3150800D2E8E7FE3846FEF7BBFF6846FFF728FD05B098
S3150800D2F8BDE8F08FECF20108D0FB0108D815020842
S3150800D308FCF2010850FD010854FD0108F0F2010875
S3150800D318DCFD0108D8FD0108CCFD0108BCFD0108A3
S3150800D3280121FFF7C9BE0021FFF7C6BE2DE9FF4751
S3150800D338074602F007FC0546384602F089F9814691
S3150800D348384602F091F900F56876382007F084F82F
S3150800D35805F1C004804631460FF076F94146204665
S3150800D36806F0A6FE382007F077F8314682460FF011
S3150800D3781DFA514620460AF1300A06F099FEC5F804
S3150800D38860A01C2007F068F84FF49A728046514648
S3150800D398FDF746FD4146204608F1140806F088FEC2
S3150800D3A8C5F87880C5F88080102007F055F84246F9
S3150800D3B86B4B6C4907F0D2F9382007F04DF831461F
S3150800D3C880460FF02DFA4146204606F071FE08F110
S3150800D3D83003C5F89030642007F03EF809F5147252
S3150800D3E88046614908F028F94146204606F060FE5D
S3150800D3F808F14C03C5F89830382007F02DF831465F
S3150800D40880460FF0F3FA4146204606F051FE08F129
S3150800D4183003C5F8A030382007F01EF83146804694
S3150800D4280FF038FA4146204606F042FE08F1300366
S3150800D438AB62382007F010F8314680460FF078F9C5
S3150800D4484146204606F034FE08F130032B613820A1
S3150800D45807F002F8314680460FF030F94146204673
S3150800D46806F026FE08F130032B6739466846FFF7AB
S3150800D4786DFC6846FFF770FA6846FFF745FA68468E
S3150800D488FFF798FA6846FFF703FB6846FFF7BAFA04
S3150800D4986846FFF749FB482006F0DEFF3146804616
S3150800D4A80FF06CFA4146204606F002FE08F12009FC
S3150800D4B8102006F0D1FF4A462C4B2D4907F04EF9A5
S3150800D4C808F12806102006F0C7FF3246274B2949D7
S3150800D4D807F044F9102006F0BFFF08F14002264B72
S3150800D4E8264907F03BF908F140016846FFF742FB71
S3150800D4F8C5F850902E6308F138016846FFF767FBB0
S3150800D5081F4B029301230393DDE902126846FFF7CE
S3150800D5186AFB502006F0A0FF39460546FEF70CFEC2
S3150800D528302006F099FF174A06463946FDF76EFD7C
S3150800D5383146204606F0BCFD05F13C02684612490C
S3150800D548FFF7B6FB2946204606F0B2FD3846FEF731
S3150800D55886FE6846FFF7F3FB04B0BDE8F08700BF10
S3150800D568ECF20108D0FB0108A0150208FCF2010834
S3150800D57850FD010854FD0108F0F20108DCFD010818
S3150800D588D8FD010830FE010844FE01082DE9FF47C9
S3150800D598804602F069F800F56875404602F0D2FA46
S3150800D5A80646382006F058FF06F1C00407462946FD
S3150800D5B810F036F93946204606F07AFD382006F086
S3150800D5C84BFF2946814610F0DDF94946204609F100
S3150800D5D8300906F06DFDC6F860901C2006F03CFF81
S3150800D5E84FF49A7207464946FDF71AFC394620460B
S3150800D5F8143706F05DFDB767C6F88070102006F088
S3150800D6082BFF3A46764B774907F0A8F8382006F0F4
S3150800D61823FF2946074610F0EFF9394620463037E2
S3150800D62806F046FDC6F89070382006F015FF29461C
S3150800D638074610F01BFA39462046303706F038FDFB
S3150800D648C6F89870382006F007FF2946074610F0EE
S3150800D65847FA39462046303706F02AFDC6F8A0703C
S3150800D668382006F0F9FE2946074610F073FA3946B7
S3150800D6782046303706F01CFDB762382006F0ECFE67
S3150800D6882946074610F040F939462046303706F04D
S3150800D6980FFD3761382006F0DFFE2946074610F0E9
S3150800D6A8F9F839462046303706F002FD414637670D
S3150800D6B86846FFF74BFB6846FFF74EF96846FFF7DB
S3150800D6C823F96846FFF712FA6846FFF773F96846BA
S3150800D6D8FFF7DEF96846FFF795F96846FFF724FA73
S3150800D6E84C2006F0B9FE2946074610F0BBFA39461B
S3150800D6F8204606F0DDFC07F1200A102006F0ACFEED
S3150800D7085246394B394907F029F807F128091020F4
S3150800D71806F0A2FE4A46344B354907F01FF8C6F804
S3150800D72850A0C6F8309007F13C016846FFF746FA5C
S3150800D73807F144016846FFF74AFA2E4B029301237C
S3150800D7480393DDE902126846FFF74DFA402006F012
S3150800D75883FE2946064610F0DFFA3146204606F0CB
S3150800D768A7FC06F12005102006F076FE2A46224B6D
S3150800D778224906F0F3FF102006F06EFE1E4B2049DC
S3150800D78806F1300206F0EAFF29466846FFF7F2F97D
S3150800D79806F130016846FFF714FA502006F05CFED9
S3150800D7A841460546FEF718FC302006F055FE154A90
S3150800D7B806464146FDF72AFC3146204606F078FC1F
S3150800D7C805F13C0268461049FFF772FA29462046D1
S3150800D7D806F06EFC6846FFF7B2FA04B0BDE8F087B3
S3150800D7E8ECF20108D0FB0108FCF2010850FD01081B
S3150800D7F854FD0108D8FD0108F0F20108DCFD01080E
S3150800D808C0FE0108B4FE0108A4FE01082DE9FF4779
S3150800D818074601466846FFF799FA384601F024FF95
S3150800D82800F56874384602F08DF90546382006F082
S3150800D83813FE05F1C006804621460FF029FC41462D
S3150800D848304606F035FC382006F006FE21468146A5
S3150800D8580FF048FD4946304609F1300906F028FC1C
S3150800D868C5F860901C2006F0F7FD4FF49A728046BA
S3150800D8784946FDF7D5FA4146304608F1140806F038
S3150800D88817FCC5F87880C5F88080102006F0E4FDF6
S3150800D8984246734B734906F061FF382006F0DCFDF3
S3150800D8A8214680460FF092FD4146304606F000FCB8
S3150800D8B808F13003C5F89030382006F0CDFD21462A
S3150800D8C880460FF0BDFD4146304606F0F1FB08F1EB
S3150800D8D83003C5F89830902006F0BEFD21468046EC
S3150800D8E80FF040FF4146304606F0E2FB08F1880390
S3150800D8F8C5F8A030382006F0AFFD214680460FF05F
S3150800D90813FE4146304606F0D3FB08F13003AB62F6
S3150800D918382006F0A1FD214680460FF02DFC414629
S3150800D928304606F0C5FB08F130032B61382006F0AF
S3150800D93893FD214680460FF0E5FB4146304606F042
S3150800D948B7FB08F130032B676846FFF705F8684602
S3150800D958FEF7DAFF6846FFF72DF86846FFF798F8E6
S3150800D9686846FFF74FF86846FFF7DEF84C2006F0DA
S3150800D97873FD214680460FF059FE4146304606F0AB
S3150800D98897FB08F1200A102006F066FD5246364B2A
S3150800D998364906F0E3FE08F12809102006F05CFD72
S3150800D9A84A46314B324906F0D9FEC5F850A0C5F8A3
S3150800D9B8309008F13C016846FFF700F908F1440180
S3150800D9C86846FFF704F92B4B029301230393DDE915
S3150800D9D802126846FFF707F9282006F03DFD21469A
S3150800D9E805460FF069FE2946304606F061FB102009
S3150800D9F806F032FD204B214905F1200206F0AEFE5D
S3150800DA0805F120016846FFF7B5F8384602F09AF896
S3150800DA1800F1C004502006F01FFD39460546FEF7FA
S3150800DA28DBFA302006F018FD154A06463946FDF792
S3150800DA38EDFA3146204606F03BFB05F13C026846FE
S3150800DA481049FFF735F92946204606F031FB3846CE
S3150800DA58FEF705FC6846FFF772F904B0BDE8F087DB
S3150800DA68ECF20108D0FB0108FCF2010850FD010898
S3150800DA7854FD0108D8FD0108F0F20108DCFD01088B
S3150800DA8824FF010814FF01082DE9F04385B08046F4
S3150800DA9801F0EAFD00F56875404602F053F80446B9
S3150800DAA8404601F0D5FD8146382006F0D5FC04F13C
S3150800DAB8C006074629460EF04FFA3946304630372B
S3150800DAC806F0F6FAA767102006F0C6FC3A46344B65
S3150800DAD8344906F043FE382006F0BEFC29460746B8
S3150800DAE80EF074FA39463046303706F0E1FAC4F8CB
S3150800DAF89070382006F0B0FC294607460EF0A0FAC2
S3150800DB0839463046303706F0D3FA2763382006F008
S3150800DB18A3FC294607460EF0CDFA39463046303773
S3150800DB2806F0C6FAC4F89870382006F095FC294617
S3150800DB3807460EF0F9FA3946304606F0B9FA30378C
S3150800DB4809F58D63A3624146C4F8A07002A8FFF7D9
S3150800DB58FDF802A8FEF782FF02A8FEF7D5FE02A87E
S3150800DB68FEF728FF02A8FEF7DFFF02A8FEF74AFF1E
S3150800DB780D494FF07A7202A8FFF758F8302006F0D8
S3150800DB886BFC0A4A04464146FDF740FA21463046E8
S3150800DB9806F08EFA02A8FFF7D2F805B0BDE8F083BA
S3150800DBA8ECF20108C8FB01087CFF0108A0FF010880
S3150800DBB82DE9F04385B0804601F056FD00F56876F4
S3150800DBC8404601F0BFFF0546382006F045FC3146B9
S3150800DBD807460EF0E3FA394605F1C00006F068FA7A
S3150800DBE8382006F039FC314681460EF089FB49464D
S3150800DBF805F1C00009F1300906F05AFAC5F860902F
S3150800DC081C2006F029FC4FF49A7207464946FDF788
S3150800DC1807F9394605F1C000143706F049FAAF671F
S3150800DC28C5F88070102006F017FC3A46734B7449FD
S3150800DC3806F094FD382006F00FFC314607460EF02C
S3150800DC4899FB394605F1C000303706F031FAC5F8B0
S3150800DC589070382006F000FC314607460EF0C4FBE3
S3150800DC68394605F1C000303706F022FAC5F898702B
S3150800DC78382006F0F1FB314607460EF0EFFB394629
S3150800DC8805F1C000303706F013FAC5F8A070382039
S3150800DC9806F0E2FB314607460EF01AFC394605F14E
S3150800DCA8C000303706F004FAAF62382006F0D4FB15
S3150800DCB8314607460EF0E6FA394605F1C000303710
S3150800DCC806F0F6F92F61382006F0C6FB31460746F6
S3150800DCD80EF09EFA394605F1C000303706F0E8F925
S3150800DCE841462F676846FFF731F86846FEF734FE5F
S3150800DCF86846FEF709FE6846FEF75CFE6846FEF7C4
S3150800DD08C7FE6846FEF77EFE6846FEF70DFF5820F2
S3150800DD1806F0A2FB314607460EF05AFC394605F1CD
S3150800DD28C00006F0C5F907F12009102006F094FB93
S3150800DD384A46344B344906F011FD07F128061020E7
S3150800DD4806F08AFB32462F4B304906F007FD2E634C
S3150800DD58C5F85090102006F07FFB07F130022C4BCF
S3150800DD682C4906F0FBFC07F130016846FEF702FF6E
S3150800DD7807F140016846FEF721FF07F1500168469A
S3150800DD88FEF725FF244B029301230393DDE90212CC
S3150800DD986846FEF728FF502006F05EFB4146064611
S3150800DDA8FEF7CAF9302006F057FB1C4A07464146D3
S3150800DDB8FDF72CF9394605F1C00006F079F94FF454
S3150800DDC88C7006F049FB164A06F13C0307462946B5
S3150800DDD80CF082FD394605F1C00006F069F93146AE
S3150800DDE805F1C00006F064F94046FEF738FA6846B9
S3150800DDF8FEF7A5FF05B0BDE8F08300BFECF2010801
S3150800DE08D0FB0108FCF2010850FD010854FD010881
S3150800DE18F0F20108DCFD0108D8FD0108FCFF01083D
S3150800DE28100002082DE9F743804601F01DFC00F5AD
S3150800DE386877404601F086FE0446382006F00CFB53
S3150800DE4804F1C005064639460EF00AFE314628464C
S3150800DE58303606F02DF9A667C4F88060102006F05B
S3150800DE68FBFA3246594B5A4906F078FC382006F030
S3150800DE78F3FA394606460EF06BFE31462846303622
S3150800DE8806F016F9C4F89060382006F0E5FA39461F
S3150800DE9806460EF097FE31462846303606F008F94B
S3150800DEA8C4F89860382006F0D7FA394606460EF0C0
S3150800DEB8C3FE31462846303606F0FAF8C4F8A0609C
S3150800DEC8382006F0C9FA394606460EF003FE3146EA
S3150800DED82846303606F0ECF8414626616846FEF7CD
S3150800DEE835FF6846FEF738FD6846FEF70DFD6846B5
S3150800DEF8FEF760FD6846FEF7CBFD6846FEF782FD2D
S3150800DF086846FEF7ABFD6846FEF70EFE404601F08A
S3150800DF189FFB012100F58B60FCF790FA482006F074
S3150800DF289BFA394606460EF0F7FE3146284606F0AD
S3150800DF38BFF806F12009102006F08EFA4A46254B46
S3150800DF48254906F00BFC06F12807102006F084FA86
S3150800DF583A46204B214906F001FC06F13801C4F877
S3150800DF68509027636846FEF729FE102006F074FAD3
S3150800DF781B4B1C4906F1300206F0F0FB06F130018E
S3150800DF886846FEF7F7FD502006F066FA414604464D
S3150800DF98FDF7C2FE302006F05FFA134A06464146E8
S3150800DFA8FDF734F83146284606F082F804F13C02B3
S3150800DFB868460E49FEF77CFE2146284606F078F89C
S3150800DFC86846FEF7BCFE03B0BDE8F083ECF201082C
S3150800DFD8D0FB0108FCF2010850FD010854FD0108B0
S3150800DFE8F0F20108DCFD010890000208800002082A
S3150800DFF82DE9FF41804601F037FB00F56875404674
S3150800E00801F0A0FD0446382006F026FA04F1C006F9
S3150800E018074629460EF0B8FE39463046303706F028
S3150800E02847F8A767102006F017FA04F174024B4B55
S3150800E0384B4906F093FB382006F00EFA29460746A0
S3150800E0480EF01AFF39463046303706F031F8C4F86C
S3150800E0589070382006F000FA294607460EF084FF25
S3150800E06839463046303706F023F8C4F8A070382009
S3150800E07806F0F2F9294607460EF0C0FE394630463C
S3150800E088303706F015F84146276102A8FEF75EFE06
S3150800E09802A8FEF739FC02A8FEF78CFC02A8FEF7D0
S3150800E0A8F7FC02A8FEF740FD02A8FEF7ABFC02A89B
S3150800E0B8FEF752FC382006F0CFF9294607460EF037
S3150800E0C815FF3946304605F0F3FF07F1300102A877
S3150800E0D8FEF777FD302006F0BFF9294607460EF009
S3150800E0E8A5FF3946304605F0E3FF07F1200510205D
S3150800E0F806F0B2F92A461B4B1B4906F02FFB1020DF
S3150800E10806F0AAF92A46174B184906F027FB2837B6
S3150800E11825632565102006F09FF9154B15493A46DB
S3150800E12806F01CFB394602A8FEF74EFD12494FF0C9
S3150800E1387A7202A8FEF77AFD302006F08DF90F4AA2
S3150800E14804464146FCF762FF2146304605F0B0FF13
S3150800E15802A8FEF7F4FD04B0BDE8F081ECF2010868
S3150800E168C8FB0108FCF2010850FD010854FD010826
S3150800E178F0F2010814010208E4000208080102087E
S3150800E18870B50D4616460446102006F065F933465E
S3150800E1982A462146BDE8704006F0E0BA2DE9F04364
S3150800E1A885B0054601F0CEFC0746284601F050FA28
S3150800E1B833490295044602A8FEF7D0F9B8676420E1
S3150800E1C806F04AF904F5147206462E4907F034FA99
S3150800E1D8314607F1C0004C3605F06AFF2946C7F8EC
S3150800E1E8A06002A8FEF7B2FD02A8FEF78DFB02A8FA
S3150800E1F8FEF708FC02A8FEF7AFFB284601F028FA46
S3150800E2084FF0010900F58D661F4A80F87894314663
S3150800E2181E48FFF7B5FF49463E6104F29440FCF7ED
S3150800E2280DF9194A1A4804F2A441FFF7A9FF04F29E
S3150800E238A44102A8FEF7C5FC134A164804F59C61D2
S3150800E248FFF79EFF04F59C6102A8FEF7BDFC12497C
S3150800E2584FF07A7202A8FEF7E9FC302006F0FCF8BF
S3150800E2680E4A04462946FCF7D1FE214607F1C000A6
S3150800E27805F01EFF02A8FEF762FD05B0BDE8F083AB
S3150800E288001000204C010208F0F201089801020863
S3150800E298C0FE010814010208680102088C01020878
S3150800E2A82DE9F74F804601F0D3F90746404601F0B5
S3150800E2B849FC0446404601F0D7F9414600F5687519
S3150800E2C86846FEF743FD6846FEF71EFB6846FEF7F6
S3150800E2D899FB382006F0C0F804F1C006814629469D
S3150800E2E810F0E6FA4946304605F0E2FE09F1300331
S3150800E2F8C4F89030382006F0AFF82946814610F061
S3150800E3089DFA4946304609F1300905F0D1FEC4F8A8
S3150800E3187890102006F0A0F84A46464B464906F07B
S3150800E3281DFA382006F098F82946814610F060FB51
S3150800E3384946304605F0BCFE09F13003C4F8983062
S3150800E348382006F089F82946814610F0A7FB494681
S3150800E358304605F0ADFE09F1200B102006F07CF8D2
S3150800E3685A46364B364906F0F9F909F1280A1020B3
S3150800E37806F072F85246314B324906F0EFF9C4F8FE
S3150800E38850B0C4F830A0202006F066F82946824620
S3150800E39810F0ECFA5146304605F08AFE0AF11003E9
S3150800E3A8A362382006F058F82946824610F0AAFBD8
S3150800E3B85146304605F07CFE0AF13003C4F8A03011
S3150800E3C809F130016846FEF7F9FBD7F8C834012188
S3150800E3D85B6807F59960984707F2A447102006F086
S3150800E3E83BF83A46184B194906F0B8F927616846C2
S3150800E3F8FEF7B2FA6846FEF7DDFA4146144809F010
S3150800E408E7FD436E4FF47A715B68643098473020AD
S3150800E41806F022F80F4A04464146FCF7F7FD21465E
S3150800E428304605F045FE6846FEF789FC03B0BDE8A8
S3150800E438F08F00BFECF20108C8FB0108FCF20108DE
S3150800E44850FD010854FD0108F0F201089801020878
S3150800E458D8010208FC0102082DE9FF47804601F0A9
S3150800E46871FB0646404601F0FFF800F56875382046
S3150800E47805F0F2FF06F1C004074629460FF080FCAE
S3150800E4883946204605F014FE382005F0E5FF2946EA
S3150800E49881460FF027FD4946204609F1300905F05F
S3150800E4A807FEC6F860901C2005F0D6FF4FF49A724E
S3150800E4B807464946FCF7B4FC39462046143705F0A2
S3150800E4C8F7FDB767C6F88070102005F0C5FF3A460D
S3150800E4D8754B764906F042F9382005F0BDFF2946FE
S3150800E4E807460FF039FD39462046303705F0E0FD76
