S02B0000453A5C68676D5C7265706F735C63735C72656C656173655C6C636D325C6C636D325C6D61696E5C6C6C
S315080090000020002025920008299200082B920008CB
S315080090104192000843920008599200080000000097
S31508009020FFFFFFFF00000000000000006F9200082D
S3150800903071920008000000007392000875920008FB
S31508009040112A0108212A0108312A0108412A0108A2
S31508009050512A0108612A0108712A0108812A010892
S31508009060912A0108A12A0108B12A0108C12A010882
S31508009070D12A0108E12A0108F12A0108012B010871
S31508009080112B0108212B0108312B0108412B01085E
S31508009090512B0108612B0108712B0108812B01084E
S315080090A0912B0108A12B0108B12B0108C12B01083E
S315080090B0D12B0108E12B0108F12B0108012C01082D
S315080090C0112C0108212C0108312C0108412C01081A
S315080090D0512C0108612C0108712C0108812C01080A
S315080090E0912C0108A12C0108B12C0108C12C0108FA
S315080090F0D12C0108E12C0108F12C0108012D0108E9
S31508009100000000000000000000000000112D01080A
S31508009110212D0108312D0108412D0108512D010885
S31508009120612D0108712D0108812D0108912D010875
S31508009130A12D0108B12D0108000000000000000063
S31508009140C12D0108D12D0108E12D010800000000FC
S315080091500000000000000000000000000000000001
S315080091600000000000000000F12D0108012E010892
S31508009170112E010800000000000000000000000099
S3150800918000000000212E010808B500F0C1F81D4DA9
S315080091901D4AAA420BD2D2E900130C3252F8044CEB
S315080091A0C91A9C42F5D9585843F8040BF9E7174AE7
S315080091B0174C0021A24208D252F8083B52F8040C78
S315080091C09842F7D943F8041BFAE7124C124D02F0FD
S315080091D021FC2D1BAD100026B54204DD54F8043BD6
S315080091E098470136F8E70D4C0D4D2D1BAD1000269E
S315080091F0B54204DD54F8043B98470136F8E70EF00B
S31508009200C1FDFEE7289400081C940008289400086D
S315080092103094000830940008309400083094000810
S315080092204094000814480047FEE71EF0040F0CBFE0
S31508009230EFF30880EFF309807146104A1047FEE7FE
S31508009240FEE71EF0040F0CBFEFF30880EFF309806A
S3150800925071460B4A1047FEE71EF0040F0CBFEFF3EA
S315080092600880EFF309807146064A1047FEE7FEE7D5
S31508009270FEE7FEE770470000899100083F92000864
S31508009280579200086D9200081C4B1A6822F4502267
S315080092901A601A6842F480321A601A689103FCD57B
S315080092A0174A520102F18442012111604FF480628B
S315080092B05A60144A116821F0040111606FF07F4169
S315080092C05160116841F0010111600F4A5A6000228D
S315080092D0DA621A6842F080721A601A689201FCD53E
S315080092E00A4A122111605A6842F002025A605A6804
S315080092F002F00C02082AFAD1704700BF001002409B
S315080093002410020010E000E00004110000200240D2
S3150800931038B53C4C2368002243F0010323606260A1
S31508009320236823F0847323F480332360E26223687E
S3150800933023F480232360A260E36843F00103E3601B
S31508009340E36823F00103E360A36943F00103A36123
S31508009350FFF79AFF2C4B2D4A9A6062B62C4ADA60C0
S31508009360A36A43F08053A362A36A23F08053A362DF
S31508009370636943F080536361E36A23F4F873E36235
S31508009380E36A43F48073E362BFF34F8F214DAB6802
S3150800939023F04053AB60AB6842F2107043F0805341
S315080093A0AB6006F0AFFDAB6843F00043AB60AB685B
S315080093B0002BFCDB382006F0A5FDAB68164843F009
S315080093C00103AB6008F042FCC1232B630023AA68A3
S315080093D042F00402AA602A685207FCD52A6CB2F544
S315080093E0946F00D30133642BF1D1A36A43F0805301
S315080093F0A362A36A23F08053A362636923F08053B0
S31508009400636138BD0010024000ED00E000900008DE
S311080094100003FA0500000050B88F0108A0
S3150800941C089C010800200020E0200020E020002005
S3150800942C7456002085BA0008B9ED0008E5ED000869
S3090800943C5130010894
S315080094400020704700797047017101207047007944
S31508009450704701710120704700207047002070474F
S31508009460024A026000224260704700BF6194000809
S31508009470024A026000224260704700BF71940008E9
S31508009480024A026000224260704700BF59AE0008D7
S3150800949038B5CB68044658680D461830012108F0DF
S315080094A07DFC05F16400142102F09AFA024B236050
S315080094B000236360204638BDA9A1000838B5B1F875
S315080094C05630A1F8843001230C46054681F88630CB
S315080094D001F1D40002F081FA04F1DC0002F07DFA11
S315080094E0034A002384F84030C5E90023284638BDDE
S315080094F02DB00008012804D002280CBF1020002037
S315080095007047022070478268117082680132826053
S315080095107047000008B5054B984201D90EF04AFC81
S315080095202C235843BDE8084002F096BA5D74D1056D
S315080095300368024613F8010B1360704710B50469F7
S315080095408368CAB2090A2CB95A701970836802333B
S31508009550836010BD1A705970F8E70000F0B58BB03B
S3150800956001AA0DF10B0306460D4605A80121CDE912
S315080095700632059208930991FFF7C5FF4FF68A410F
S3150800958005A8FFF7DBFF032105A8FFF7BCFF0321AA
S3150800959005A8FFF7B8FF002105A8FFF7B4FF2B6958
S315080095A0D3E9021403AF3846641A09F049FCDDE929
S315080095B00331C91AE4B201312144C9B205A8FFF73B
S315080095C0A2FF079B059A0792CDE90323E86808934B
S315080095D097E8060006F0E8FD05F164000A2102F0A6
S315080095E0FFF9034B33603046002373600BB0F0BDC0
S315080095F0C9AD000870B501258AB001AA0DF10903A5
S3150800960004460E4605A82946CDE906320592089372
S315080096100995FFF778FF4FF68F4105A8FFF78EFFEC
S31508009620294605A8FFF76FFF0A2105A8FFF76BFF74
S31508009630079B059A0893CDE9032303AB0792F068C5
S3150800964093E8060006F0B0FD06F164000A2102F070
S31508009650C7F9034B23602046002363600AB070BD38
S31508009660D9AC000830B591F83430B3FA83F30C4618
S315080096705B0991B081F8543001210DF13E0308AA27
S3150800968084F85510054603A8CDE90631CDE904321C
S315080096900392FFF738FF4FF6864103A8FFF74EFF00
S315080096A01A2103A8FFF72FFF002103A8FFF72BFFB6
S315080096B0002103A8FFF727FF1023002103A8FFF7BF
S315080096C022FF013BF9D1072103A8FFF71CFF102150
S315080096D003A8FFF718FF03A81946FFF714FF079911
S315080096E0059A19BBD370937053701370059B94F841
S315080096F05510043303A80593FFF705FF059B039A46
S315080097000693CDE9012301AB0592E06893E80600CC
S3150800971006F04AFD04F164000A2102F061F9064BDD
S315080097202B60284600236B6011B030BD1370537050
S315080097309370D370DAE700BF6DAC0008024A026086
S3150800974000224260704700BF3D970008F0B5034607
S315080097500C460F46054601F1100C3E4603CE6645FB
S3150800976028606960374605F10805F6D13068286033
S31508009770217D1975617D5975A17D9975DA75E27D29
S315080097801A76D4E90612C3E9071200225A6283F848
S31508009790282083F826201846F0BD90F8263082B097
S315080097A08BB94FF60453ADF8043001238DF8063013
S315080097B0BDF80430002063F30F00BDF8063063F3EC
S315080097C01F4002B07047D0E907329A4218BF90F896
S315080097D028304FF6065214BF83F001030023ADF874
S315080097E00420E3E784B02DE9F843DDE90E57044683
S315080097F009A880E80E000DF1340C034622461E46E1
S3150800980003CE664510605160334602F10802F6D170
S31508009810306810607E1B002301227611C4E90523F7
S31508009820C4E90733A376636216D03046FFF772FEA3
S3150800983080462C2303FB06866662C4F81C80C14654
S315080098402E46B7420AD0314648460122FFF77EFF28
S31508009850203609F12C09F4E7B046EAE7701B4009FF
S315080098602C2202FB00802B4620629E420AD05A7D9B
S3150800987012F0300F626914BF032102210A446261A3
S315080098802033F2E72046BDE8F84304B07047837EEC
S3150800989013B58BB94FF60253ADF8003001238DF896
S315080098A00230BDF80030002063F30F00BDF8023027
S315080098B063F31F4002B010BDD0E907148C420DD0E7
S315080098C00846FFF76AFFC0F307432C31002BF5D093
S315080098D001908DF80630019B0093E2E70023F8E734
S315080098E038B5002405460160C0E9014421460C301C
S315080098F002F070F80823EB6105F122036C61AC6194
S315080099001846AC75AC76402221460EF023FC05F1CC
S315080099106203046044608470847108308342F8D11D
S31508009920024B2846C5E9013438BD00BFDD9A000858
S31508009930837D37B50446BBB10C3002F066F8A368E0
S315080099405A1013F0010F04EB0201636818BFA258FE
S315080099506D46284618BFD358984795E8030004343F
S3150800996084E8030003B030BD014AC0E90123F9E7E2
S31508009970DD9A000810B58EB005AA0DF1220304463B
S31508009980019109A80121CDE90A3209920C930D919A
S31508009990FFF7B9FD4FF6815109A8FFF7CFFD0A2158
S315080099A009A8FFF7B0FDA18A09A8FFF7C7FDBDF80A
S315080099B0041009A8FFF7C2FDBDF8061009A8FFF7AD
S315080099C0BDFD002109A8FFF7B9FDC82109A8FFF7C1
S315080099D0B5FD0B9B099A0C93CDE9032303AB0B92B8
S315080099E0206893E8060006F0DFFB0EB010BD000005
S315080099F0F8B5002307460C4608461E461A46194679
S31508009A0094F824501DB1658CDAB18D4219D30D46F0
S31508009A1094F8281019B1E18CB2B1A94214D3294699
S31508009A200133082B04F10804EAD122B1084B53F894
S31508009A302610FFF79FFF074B3B6000237B603846E5
S31508009A40F8BD1E460122E3E71E460122E8E700BFED
S31508009A505C8301087194000838B50446084672B15B
S31508009A600023CB6180F820301A4BC26953F82210C4
S31508009A70FFF780FF184B23600023636022E08B7E8C
S31508009A809BB10B4601F1400293F8241019B15D8C85
S31508009A90018B8D4212D393F8281019B1DD8C018BF6
S31508009AA08D420BD308339A42EED190F82020C36931
S31508009AB01AB9072B08D10123D4E743B90146204632
S31508009AC0FFF796FF204638BD0133C361CCE7013B5B
S31508009AD0FBE700BF5C830108619400088B7D10B525
S31508009AE0044623B10122FFF7B7FF204610BD024AFC
S31508009AF0C0E90023F9E700BFDD9A0008CA68F8B58F
S31508009B0005468AB991F82030CF699B0003EBC70355
S31508009B1001F12206F4184FF6FE77F7520123A370D7
S31508009B20FFF79AFF2846F8BD024B036000234360FF
S31508009B30F8E700BFFD9A000838B504460C200D4624
S31508009B4001F08AFF0346021D95E8030082E8030038
S31508009B50E26E1A60E36638BD70B501258AB001AABF
S31508009B600DF1090304460E4605A82946CDE9063235
S31508009B70059208930995FFF7C6FC4FF6854105A897
S31508009B80FFF7DCFC294605A8FFF7BDFC032105A85D
S31508009B90FFF7B9FC079B059A0893CDE9032303ABA6
S31508009BA00792F06893E8060006F0FEFA06F16400EC
S31508009BB00A2101F015FF034B23602046002363604A
S31508009BC00AB070BD51AC000870B588B00B460546A2
S31508009BD001AC012103A816460791CDF80CD00494D0
S31508009BE0CDF814D00694FFF78EFC03A81946FFF7A4
S31508009BF0A5FC002103A8FFF786FC059B039A05929E
S31508009C00CDE90123E868069394E8060006F0CCFA45
S31508009C10314605F1640001F0E3FE08B070BD0000AE
S31508009C2010B50A220446084641F20101FFF7CCFFA7
S31508009C30024B236000236360204610BD2DAD00084B
S31508009C4010B50A22044608464FF69241FFF7BCFFB4
S31508009C50024B236000236360204610BDFDAB00085D
S31508009C6010B50A22044608464FF60151FFF7ACFF25
S31508009C70024B236000236360204610BD19AC000820
S31508009C8010B50A22044608464FF69441FFF79CFF92
S31508009C90024B236000236360204610BD89AC000890
S31508009CA082B002A901E90C00009B1A78042A01BFB8
S31508009CB05A7802700333436005BF019B8360002313
S31508009CC00123037302B0704730B585B06B4683E84D
S31508009CD00600456803680C461146AB421CD01A6854
S31508009CE0A24206D15A688A4205D014B90A43D20755
S31508009CF001D50C33F1E71B89ADF80C3001238DF83B
S31508009D000E30BDF80C30002063F30F00BDF80E309E
S31508009D1063F31F4005B030BD0023F0E71FB5426866
S31508009D20283292E8030002AB83E80300074893E869
S31508009D300600FFF7C9FF019010F47F0F14BFBDF8A6
S31508009D4004004FF6FF7005B05DF804FB7082010849
S31508009D501FB54268203292E8030002AB83E803008D
S31508009D60074893E80600FFF7AFFF019010F47F0F4E
S31508009D7014BFBDF804004FF6FF7005B05DF804FB8C
S31508009D807082010838B504460B461546AB4205D025
S31508009D9013F8011B2046FFF7B6FBF7E7204638BD48
S31508009DA02DE9F041AAB0541A0546684680E806002F
S31508009DB00E460AA804F10A010144CDE90501CDE9D8
S31508009DC00701012105A8984617460991E4B2FFF74D
S31508009DD09AFB4FF6065105A8FFF7B0FBA11DC9B2BD
S31508009DE005A8FFF790FB414605A8FFF7A7FBBDF8B6
S31508009DF0C01005A8FFF7A2FB002105A8FFF783FB03
S31508009E00214605A8FFF77FFB3A46314605A8FFF726
S31508009E10B9FF079B059A0893CDE9032303AB07927D
S31508009E20284693E8060006F0BFF92AB0BDE8F08197
S31508009E3010B588B002AB83E8060090F858309BB19D
S31508009E40039A531A142B0FD88369DC699B69059307
S31508009E50CDE90612B4F85020009208AA9BB212E97E
S31508009E600600C068FFF79CFF08B010BD2DE9F04159
S31508009E700E4696B0074602A808F0E2FF3469DDE907
S31508009E80021506ABA068D4F80CC09846ACEB0002E5
S31508009E90002A04DD10F8012B03F8012BF6E7D4E9B4
S31508009EA002239B1A16AA13446D1A4FF0200203F8D0
S31508009EB0402C07D0D4E90230C01A01302A46404463
S31508009EC00EF02EF9D4E902320135D21A2A44424458
S31508009ED0CDE90482B6F85E30009304AAB6F85A3083
S31508009EE0F06806CAFFF75CFF06F164000A2101F074
S31508009EF077FD044B3B60384600237B6016B0BDE80F
S31508009F00F08100BF35AC0008F0B50B690D46D3E902
S31508009F10001495B0641A07AA012704F11203134422
S31508009F200646394602A8CDE90223CDE90423069759
S31508009F30FFF7E9FA4FF6834102A8FFF7FFFA04F1A3
S31508009F400E01C9B202A8FFF7DEFA002102A8FFF740
S31508009F50DAFA202102A8FFF7F1FA202102A8FFF772
S31508009F60EDFA394602A8FFF7CEFA002102A8FFF754
S31508009F70CAFA2B69D3E90031C91A3944C9B202A809
S31508009F80FFF7C1FA08210DEB0100FFF7BCFA2B69B0
S31508009F9002A8D3E90012FFF7F5FE002102A8FFF791
S31508009FA0B2FA002102A8FFF7C9FA002102A8FFF7B2
S31508009FB0C5FA049B029A0593CDE900236B460492E1
S31508009FC0E86893E8060006F0EFF805F164000A2150
S31508009FD001F006FD034B336030460023736015B06D
S31508009FE0F0BD00BFBDAC000891F83420012A10B5B9
S31508009FF0044605D891F83C3043B9FFF785FF03E0DE
S3150800A000044B036000234360204610BDFFF738FE6B
S3150800A010FAE700BFE99F0008F0B58BB00D46164673
S3150800A02002A90DF11302CDE906210446059105A8FA
S3150800A03001211F4608920991FFF765FA4FF6A441D8
S3150800A04005A8FFF77BFA072105A8FFF75CFA39464A
S3150800A05005A8FFF758FAB21D314605A8FFF792FE84
S3150800A060079B059A0893CDE900236B460792E86893
S3150800A07093E8060006F098F805F164000A2101F055
S3150800A080AFFC034B23602046002363600BB0F0BD92
S3150800A09011AD000883780BB100238370704710B5A3
S3150800A0A004462430FFF7F6FF002384F8283010BD55
S3150800A0B038B504461830FFF7EDFFD4E90745A54241
S3150800A0C004D02046FFF7EBFF2C34F8E738BD000034
S3150800A0D070B505460C4652B101F1200201F128037C
S3150800A0E092E8030083E80300012384F84030E66819
S3150800A0F070680021183007F051FE0123C6F82C338A
S3150800A1006069FFF7D5FF0026A069FFF7D1FF04F1C4
S3150800A1105A00E661FFF7BEFF04F15E00FFF7BAFFDB
S3150800A120024B2846C5E9003670BD00BF9194000869
S3150800A1307FB50446643001F068FC04F1D40001F0F0
S3150800A14064FC04F1DC0001F060FC636A5A1013F049
S3150800A150010F04EB0201236A18BFA25802AE18BF0A
S3150800A160D3583046984796E8030004F1200585E859
S3150800A170030004F17000FFF7DBFBE36893F8302374
S3150800A18012B993F8312362B100226E46A3F8302340
S3150800A190214630460122FFF79BFF96E8030085E833
S3150800A1A0030004B070BD00002DE9F047DFF86C909D
S3150800A1B0A4B004460E4600250DF110080DF18F0ACD
S3150800A1C0CDE9028A02AB0CCBF168684606F07EFA46
S3150800A1D09DF8047057B1009A062AF1D149464046BF
S3150800A1E00DF082FF002808BF3D46E9E73DB131463C
S3150800A1F02046FFF715FD204624B0BDE8F087736EAC
S3150800A2002BB9012231462046FFF762FFF3E7024BDE
S3150800A210C4E90035EFE700BFA9A100089C8301083F
S3150800A22091F8553010B5044613B1002381F855301E
S3150800A23001F15600FFF72EFF024B236000236360EF
S3150800A240204610BDE99F000838B505460C46D4E9F6
S3150800A25002329A4206D013F8011BA3602846FFF77C
S3150800A26052F9F4E7284638BD2DE9F04390F8265010
S3150800A2709FB004460E4617469846002D6FD1414DAD
S3150800A2800078AA4294BF09250A25FFF733F9054441
S3150800A2900EAA4FF001092B1D1344494604A8CDE91F
S3150800A2A00423CDE90623CDF82090FFF72CF94FF6C5
S3150800A2B0045104A8FFF742F9E9B204A8FFF723F905
S3150800A2C0414604A8FFF73AF9217804A8FFF71BF9D5
S3150800A2D0234604A813F8042B4A4503BFA11CCDE95D
S3150800A2E00913CDE90B1304F1140209A91BBFCDE923
S3150800A2F00932CDE90B320D92CDF83490FFF7A4FF61
S3150800A300204B217D9F4204A826D8FFF7FCF8617DE3
S3150800A31004A8FFF7F8F8A17D04A8FFF7F4F8E17D93
S3150800A32004A8FFF7F0F8072104A8FFF7ECF8217E48
S3150800A33004A8FFF7E8F8069B049A0793CDE90223D9
S3150800A34002AB0692304693E8060005F02DFF01257C
S3150800A35028461FB0BDE8F083FFF7F0F8D7E7D0E945
S3150800A360072191420BD090F8282042B9828C00929E
S3150800A3701C3494E806003046FFF712FDE8E700258E
S3150800A380E6E700BF1F0007002DE9F041837E9CB079
S3150800A39004460E461746002B4DD10078FFF7AAF85B
S3150800A3A001270CAAC31D13440546394602A8CDE960
S3150800A3B00223CDE904230697FFF7A5F84FF60251C5
S3150800A3C002A8FFF7BBF8E91CC9B202A8FFF79BF879
S3150800A3D0217802A8FFF797F8234602A813F8042B5A
S3150800A3E0BA4209BFA11C04F11402CDE90713CDE94D
S3150800A3F0091307A91BBFCDE90732CDE909320B922C
S3150800A4000B97FFF721FF012102A8FFF77CF8217DB2
S3150800A41002A8FFF778F8049B029A0593CDE9002372
S3150800A4206B460492304693E8060005F0BDFE01200F
S3150800A4301CB0BDE8F081D0E90758454509D0284643
S3150800A440238B3A463146FFF70FFF2C350028F4D008
S3150800A450EEE70020ECE7000038B50C460546CA6969
S3150800A4606069C968FFF790FF58B9E269E168A069B1
S3150800A470FFF78AFF28B921462846FFF76DFB2846CD
S3150800A48038BD024B2B6000236B60F8E7EBAA000887
S3150800A490F0B50B6993B0064693F820000C46FFF713
S3150800A4A029F801270CAAC31D13440546394602A8F4
S3150800A4B0CDE90223CDE904230697FFF724F84FF6E2
S3150800A4C08E4102A8FFF73AF8E91CC9B202A8FFF7BD
S3150800A4D01AF8236993F82000FFF70CF8811CC9B213
S3150800A4E002A8FFF710F8236993F82000FFF702F88F
S3150800A4F0C119C9B202A8FFF706F8072102A8FFF793
S3150800A50002F8236993F82010B94203F1240206BF22
S3150800A5100B912233343307A902A807BFCDE90732C6
S3150800A520CDE90932CDE90723CDE9092318BF0B97F1
S3150800A530FFF78AFE049B029A0593CDE900236B4632
S3150800A5400492E06893E8060005F02EFE04F1640024
S3150800A5500A2101F045FA034B336030460023736045
S3150800A56013B0F0BDF5AC000810B58268046913781D
S3150800A57051782CB941EA032302328260184610BD8D
S3150800A58043EA0123F8E770B588B06B4683E806000E
S3150800A59090F82630044613BB019BCDE90313CDE999
S3150800A5A005135B1A0125022B07950CBF2E460026BC
S3150800A5B005D103A8FFF7D8FF84F82650A0848DF8A4
S3150800A5C0086001238DF809309DF80830002063F3F0
S3150800A5D007009DF8093063F30F2008B070BDD0E975
S3150800A5E007329A4209D090F8283033B9012380F807
S3150800A5F0283001228DF80820E4E70023F9E72DE941
S3150800A600F0418AB06B4683E80600837E05460E460F
S3150800A6101446B3B9541A0127022CCDE90512CDE91F
S3150800A620071209970CBF3C46002404D105A8FFF77A
S3150800A6309BFFAF7628838DF8104001238DF81130E3
S3150800A64012E0D0E9075805AF454519D0CDE90564AC
S3150800A650284697E80600FFF796FF10F47F4F05F1A6
S3150800A6602C05F1D0ADF810009DF81030002063F3EA
S3150800A67007009DF8113063F30F200AB0BDE8F0819A
S3150800A6800023DBE72DE9F04304460A78D1E90130D7
S3150800A69089B001253E2A8846CDE90330CDE9053043
S3150800A6A0079500F09480FF2A2BD00F2A19D16168EC
S3150800A6B0604A914215D1A7689FB9C01A032810D9D4
S3150800A6C013F8016B059305A8FEF732FF03A8FFF7F9
S3150800A6D04BFF4FF68153984203D12EB9564BC4E926
S3150800A6E0013609B0BDE8F08394F82030E1699B0093
S3150800A6F004F1220203EBC103D11806F50056D6521F
S3150800A70049E061684C4A9142EBD1A768002FE8D12D
S3150800A710C31A042BE5D903A8FFF726FF814603A829
S3150800A720FFF722FF059B1E4616F8012B0596D8E96A
S3150800A73001160532711A8A42D3D8A28A8242D0D12A
S3150800A740B9F5006F17D10A29CBD95E7805A8023367
S3150800A7500593FEF7EDFE03A8FFF706FF132E054641
S3150800A7601BD1D0B9C82104F10C0001F039F9334BDB
S3150800A770C4E90135B5E740F601039945B1D194F826
S3150800A7802030E1699B0004F1220203EBC103D118D2
S3150800A7904FF6FE70D0528D700DE0E36994F82010E4
S3150800A7A0DB0003EB810304F12202D11805F50055FD
S3150800A7B0D55201238B706D46214628460022FFF7A5
S3150800A7C04BF995E80300043484E8030089E7C01AC6
S3150800A7D0052886D91A4612F8011B0592032980D145
S3150800A7E05E7803A802330593FFF7BEFEA38A834269
S3150800A7F07FF477AF03A8FFF7B7FED4E901230E4924
S3150800A80020838A42A57610D1002B7FF46AAFE369CC
S3150800A81094F82010DB0004F1220203EB8103D1181F
S3150800A8200125002E7FF469AFB4E704498A427FF414
S3150800A83058AFE9E7619400083D970008FD9A0008BB
S3150800A84030B50B78052B87B0054603D00024204683
S3150800A85007B030BDD1E90132D11A0329F6D9CDE9BD
S3150800A8600332CDE901320122059213F8014B039315
S3150800A87001A8FFF779FE002CE8D195F85840002C7E
S3150800A880E4D0B5F856308342E0D105F15600FFF71B
S3150800A89001FCDCE72DE9F041A8B006460C4608ADF8
S3150800A8A00DF19F08CDE9045804AF97E80C00E1685C
S3150800A8B0684605F00BFF9DF8043083B9636E43B90B
S3150800A8C0002221463046FFF703FC304628B0BDE893
S3150800A8D0F081203494E8030086E80300F5E7009B3E
S3150800A8E02B44CDE9025302AB0CCB21463846FFF781
S3150800A8F0D7F99DF81C30002BD4D039462046FFF7EF
S3150800A9009FFF0028CED0DBE730B591F858308BB0E2
S3150800A91005460C46002B35D001AA0DF10B03012183
S3150800A92005A8CDE90632059208930991FEF7EBFDD5
S3150800A9304FF6934105A8FEF701FE032105A8FEF789
S3150800A940E2FDB4F8561005A8FEF7F8FD132105A890
S3150800A950FEF7D9FD079B059A0893CDE9032303ABB8
S3150800A9600792E06893E8060005F01EFC322104F120
S3150800A970640001F035F821462846FFF78BFF284684
S3150800A9800BB030BD0122FFF7A3FBF8E710B50B7833
S3150800A9900E2B86B017D1D1E90123991A022912D9AB
S3150800A9A0012403A8CDE90123CDE903230594FEF785
S3150800A9B0BFFD01A8FFF7D8FD4FF60653984202D10E
S3150800A9C0039B1B7813B1002006B010BD2046FBE799
S3150800A9D010B5914209D0D0E902349C4205D013F84B
S3150800A9E0014B836001F8014BF3E710BD2DE9F04FE9
S3150800A9F0ABB08A46694681E80C00349D8146174605
S3150800AA0098460AAE05AC0DF1A7030596069394E899
S3150800AA100C00D9F80C1003A805F058FE9DF8103064
S3150800AA209BB9D9F86420002A43D140F2FF13ADF848
S3150800AA3008309DF80830002063F307009DF80930B8
S3150800AA4063F30F202BB0BDE8F08F039B9DF8281009
S3150800AA509DF829203344CDE9056308930DF12B00B1
S3150800AA6001230429099307909DF82A30CBD10E2A91
S3150800AA7022D1022BC7D907A8FEF75AFD2046FFF7B1
S3150800AA8073FD5045BFD1079B13F8016B07933DB182
S3150800AA90089AD31AA8EB0702934294BF2B602A6040
S3150800AAA027B1424639462046FFF792FF8DF80860DF
S3150800AAB001238DF80930BCE70F2AA4D1032BA2D9AC
S3150800AAC00BAB07A807939DF82BB0FEF731FD204680
S3150800AAD0FFF74AFD824596D1BBF1000F93D00DB121
S3150800AAE000232B608DF808B0E2E72DE9F04307460E
S3150800AAF091B048690C46FEF7CAFE10F47F0F81B282
S3150800AB0003D1A069FEF7C3FE81B210AB079308AE66
S3150800AB1005AB069600930DF1180898E80C00204638
S3150800AB20FFF764FF10F47F4FADF8080008D1203412
S3150800AB3094E8030087E80300384611B0BDE8F083BF
S3150800AB409DF80830E3B904F1100504F118094D45DC
S3150800AB5016D0059B55F8040F3344CDE9066398E8EB
S3150800AB600600FFF74CFD10F47F4FADF80C00EED051
S3150800AB709DF80C3023B121463846FFF76DFCDBE71C
S3150800AB80012221463846FFF7A3FAD5E782B0F0B589
S3150800AB9087B01E460D930023CDE9043300930C4677
S3150800ABA006AB1146054613E90C0020460E9FFFF733
S3150800ABB01DFF10F47F4FADF80C000AD1203494E83D
S3150800ABC0030085E80300284607B0BDE8F04002B058
S3150800ABD070479DF80C3053B97B10FA0704EB030154
S3150800ABE048BFE358284648BF9E59B047EBE70122BD
S3150800ABF021462846FFF76CFAE5E700001FB5002353
S3150800AC0000934FF69242034B0446FFF7BFFF2046D8
S3150800AC1004B010BD619C00081FB5002300934FF6D1
S3150800AC200152034B0446FFF7B1FF204604B010BD9E
S3150800AC305D9500081FB5002300934FF60652034B97
S3150800AC400446FFF7A3FF204604B010BD59A4000828
S3150800AC501FB5002300934FF68542034B0446FFF7C2
S3150800AC6095FF204604B010BD659600081FB5002361
S3150800AC7000934FF68642034B0446FFF787FF2046AC
S3150800AC8004B010BD21A2000830B585B004460023E3
S3150800AC9000934FF69442074B0D46FFF777FF22685D
S3150800ACA0054B9A4203D163680BB985F83C302046B8
S3150800ACB005B030BD099F0008BDAC00081FB50023CC
S3150800ACC000934FF68342034B0446FFF75FFF204687
S3150800ACD004B010BDF59500081FB5002300934FF684
S3150800ACE08F42034B0446FFF751FF204604B010BDC0
S3150800ACF091A400081FB5002300934FF68E42034B1C
S3150800AD000446FFF743FF204604B010BD81940008AF
S3150800AD101FB5002300934FF6A442034B0446FFF7E2
S3150800AD2035FF204604B010BDBD9400082DE9F0415A
S3150800AD308CB003AB0DF110080DF119070C46CDF8D0
S3150800AD401C800897009307AE054696E80C0041F26A
S3150800AD5001012046FFF74AFE10F47F4FADF80800C0
S3150800AD6008D1203494E8030085E8030028460CB08F
S3150800AD70BDE8F0819DF8083003BB039B082B1DD165
S3150800AD80012309A80B93CDE90787CDE90987FEF7C3
S3150800AD90CFFB3046FFF7E8FB099B304613F8017BEB
S3150800ADA00993FFF7E1FB3046FFF7DEFB40EA074071
S3150800ADB0E06121462846FEF743FFD7E701222146F0
S3150800ADC02846FFF785F9D1E72DE9F0418CB004ABA9
S3150800ADD005AE0DF11B050C460796089500930DF177
S3150800ADE01C08074698E80C004FF68A412046FFF7EC
S3150800ADF0FDFD10F47F4FADF80C0008D1203494E81F
S3150800AE00030087E8030038460CB0BDE8F0819DF8DA
S3150800AE100C30DBB9049B062B18D1CDE90765CDE9C3
S3150800AE200965404601250B95FFF79EFB84F85C50A3
S3150800AE30A4F85A004046FFF797FB84F86050A4F838
S3150800AE405E0021463846FFF711F8DCE70122214665
S3150800AE503846FFF73DF9D6E72DE9F04391F83C303F
S3150800AE60AFB006460C461BBB91F834309A1E012A31
S3150800AE701ED991F85420B3FA83F35B099A4217D185
S3150800AE800EAD0DF1B708CDE9095809AF97E80C00E2
S3150800AE90E16803A805F01AFC9DF8103073B9203450
S3150800AEA094E8030086E8030030462FB0BDE8F08337
S3150800AEB0002221463046FFF70BF9F5E7039B2B44A2
S3150800AEC0CDE90953214697E80C0005A8FEF7E8FEE8
S3150800AED09DF82030002BD6D005A904F17000FFF7A5
S3150800AEE0D1FB0121DDE906320D919DF814103E29AA
S3150800AEF0CDE90932CDE90B3204D005A92046FFF782
S3150800AF009FFCC0E7D21A032AF7D91A4612F8019B02
S3150800AF100B92B9F1010FF0D15A7802330B93002A3C
S3150800AF20EBD13846FFF720FB94F83430A4F85600E6
S3150800AF3084F85890D3B1DDE909239B1A0B2B01D865
S3150800AF404A46B6E70BA8FEF7F3FA0B9A12F8015B26
S3150800AF500B9201A90DF10A023846FFF739FD2B4677
S3150800AF6001AA21463046FFF757F89DE721463046A5
S3150800AF70FEF7A4FA98E72DE9F0410B78FF2B8EB07F
S3150800AF80054604D0002630460EB0BDE8F081D1E96A
S3150800AF900123991A0929F5D9CDE90423CDE9062310
S3150800AFA004A801230893FFF7DFFA064604A8FFF76B
S3150800AFB0DBFA804604A8FFF7D7FA069B074613F87C
S3150800AFC0014B069304A8FFF7CFFA40F601439E42C9
S3150800AFD0D8D195F85860002ED4D0B5F856304345E8
S3150800AFE0D0D1DDE906239B1A9C42CBD10028C9D1D2
S3150800AFF0AB69DB695B6A019301339BB29F42C1D19E
S3150800B000142C11D809AF3C442246394604A8FFF748
S3150800B010DFFCED6E002DB6D06B68281DCDE90274F5
S3150800B02002A998472D68F5E70646ACE72DE9F041F1
S3150800B03091F83430032BACB005460C4602D1FFF725
S3150800B04063FC3BE0D1F8D4800CAF07AEB8F1000F33
S3150800B05022D103AA04AB01213846CDE90D320C9260
S3150800B0600F931091FEF74FFA4FF47C413846FEF7DE
S3150800B07065FA41463846FEF746FA0E9B0C9A0E923A
S3150800B080CDE90723E0680F9396E8060005F08CF8EB
S3150800B09004F1D40000F0A1FC0DF1AF08CDE9077862
S3150800B0A0E16896E80C0001A805F010FB9DF8083049
S3150800B0B043B9203494E8030085E8030028462CB0F9
S3150800B0C0BDE8F081019B3B44CDE90773214696E82C
S3150800B0D00C0003A8FEF7E4FD9DF81830002BDDD020
S3150800B0E003A904F17000FFF7CDFA03A92046FFF77C
S3150800B0F0A7FB28B1002221462846FEF7E9FFDDE72F
S3150800B10003A92046FFF737FF03A92046FFF798FB58
S3150800B11003A92046FFF73AFC38B104F1D40000F041
S3150800B1205CFC04F1DC0000F058FC9DF80C300E2B9A
S3150800B13014D1DDE9042309A8CDE90723CDE90923BC
S3150800B14001230B93FEF7F4F93046FFF70DFAB0F535
S3150800B1507C4F03D104F1DC0000F03FFCD4F8DC306E
S3150800B16053B904F1200292E8030004F1280383E8A6
S3150800B17003002146284662E7024B2B6000236B60DA
S3150800B1809CE700BF2DB0000810B5044648B1C06959
S3150800B19008B100F06DFC20462821BDE8104000F0FB
S3150800B1A069BC10BD10B50446006808B1FFF7ECFF8E
S3150800B1B0204610BD2DE9F04F0446A9B016460D46A7
S3150800B1C000F00AFA724B2360724B2363724BA36337
S3150800B1D0724BC4E91134724BC4E903560025C4E91D
S3150800B1E01334C4F85650C4F85A50C4F85E50294669
S3150800B1F0C4E90555C4E90855C4E90A5584F8345024
S3150800B20084F83C5084F8405084F8555084F85850D7
S3150800B21084F85C5084F8605004F1640000F0DAFBAE
S3150800B220E168E56604F17000FEF75AFB192104F19E
S3150800B230D40000F0CFFB332104F1DC0000F0CAFB98
S3150800B24010AF07A8A4F8E45007F0FAFD29466022D3
S3150800B2503846DDE907980CF07DFF42F6292342F6C9
S3150800B2602422ADF862202169ADF84230012002237C
S3150800B27042F625228DF860008DF880008DF875302D
S3150800B280ADF882208DF895308DF85530D1E9042334
S3150800B2909B1A8DF85430D1E90423CDE91623D1E958
S3150800B2A006239B1A8DF87430D1E90632CDE91E3291
S3150800B2B0A8EB090329468DF840008DF894308DF8DF
S3150800B2C02C0041F60A0310220CA8CDE92698ADF801
S3150800B2D02E300CF03FFF28AB282009970A9300F080
S3150800B2E0BBFB0DF12408834698E803000DF1080A14
S3150800B2F08AE803000DF1380999E803008DE8030090
S3150800B3000BAF97E80E005846FEF76CFA6369C4F867
S3150800B31014B0384609930B952036FFF743FF40468D
S3150800B320FFF740FF0FCEBC46ACE80F003368CCF8F9
S3150800B33000301C4B0993282040330A9300F08CFBFD
S3150800B340064698E803008AE8030099E803008DE8B2
S3150800B3500300304697E80E00FEF744FAA369A66193
S3150800B3603846099304AE0B95FFF71CFF4046FFF7D6
S3150800B37019FF214630462A46FEF7AAFE96E803003C
S3150800B38004F1200383E80300204629B0BDE8F08FC6
S3150800B3908483010838820108488201085882010816
S3150800B3A068820108A483010838B50A4B036004467D
S3150800B3B0C06E20B1056800F05BFB2846F9E76069B6
S3150800B3C0FFF7E2FEA069FFF7DFFE204600F0FBF874
S3150800B3D0204638BD8483010810B50446FFF7E4FF0C
S3150800B3E02046E82100F046FB204610BD0D4B10B55F
S3150800B3F0044640F8503B00F093FB04F1400002F08D
S3150800B4009FFA04F1300002F09BFA04F1200002F0E2
S3150800B41097FA04F1100002F093FA204600F0D3F8E8
S3150800B420204610BDEC83010810B50446FFF7DEFF81
S3150800B4302046742100F01EFB204610BDC36850301C
S3150800B44093F8401000F044BB38B504460D4600F0AA
S3150800B450C3F8134B236005F13002E560114904F186
S3150800B460100002F0F6F905F138020F4904F1200040
S3150800B47002F0BCF905F144020C4904F1300002F06F
S3150800B480CEF905F14C020A4904F1400002F0C7F969
S3150800B4900222084904F1500000F028FB204638BD76
S3150800B4A0EC83010814990108DC9601083496010812
S3150800B4B0DC9701089C92010870B5154604460E46AD
S3150800B4C001F50562296802F0AAF906F65C02A96880
S3150800B4D004F1100002F0A3F906F66402696804F1A3
S3150800B4E0200002F09CF906F66C02296904F1300086
S3150800B4F002F0AFF906F67402E96804F1400002F0BA
S3150800B500A8F9204670BD10B50446403002F018FA76
S3150800B51004F1300002F014FA04F1200002F010FAE7
S3150800B52004F1100002F00CFA204602F009FA20464F
S3150800B53010BD30B501249440013C1BB1012B17D036
S3150800B540002030BD8568C368C1F140018A1A2DBA4A
S3150800B550C2F120001BBAA2F1200105FA00F023FA75
S3150800B56002F2024325FA01F10A4304EA0200E8E777
S3150800B570D0E90235C1F12000A1F1200205FA00F058
S3150800B58023FA01F1014325FA02F2114304EA010004
S3150800B590D7E74068704700207047808870478368FF
S3150800B5A0994205D3C368994202D841600120704781
S3150800B5B00020704703681988014B186802F035BCEB
S3150800B5C0F82000207047704710B50C21044600F09B
S3150800B5D051FA204610BD0000024A02600022C0E966
S3150800B5E0012270472C84010838B5054655F8104FD6
S3150800B5F0AC4206D054F8043C201F9B689847246840
S3150800B600F6E738BD38B5054655F8104FAC4206D0B2
S3150800B61054F8043C201FDB6898472468F6E738BDD1
S3150800B62038B5054655F8104FAC4206D054F8043CD8
S3150800B630201F1B6998472468F6E738BD38B50546C4
S3150800B64055F8104FAC4206D054F8043C201F5B69ED
S3150800B65098472468F6E738BD10B50346002153F825
S3150800B660042F934204D01468C2E900112246F8E771
S3150800B670C0E90133016010BD10B5054B044640F81A
S3150800B6800C3BFFF7E9FF2046FFF79DFF204610BD5C
S3150800B6904C84010810B50446FFF7EEFF2046182132
S3150800B6A000F0E8F9204610BD10B5054B044640F8F1
S3150800B6B00C3BFFF7D1FF2046FFF7DEFF204610BD03
S3150800B6C06C84010810B50446FFF7EEFF20461821E2
S3150800B6D000F0D0F9204610BD10B50446FFF77CFFF0
S3150800B6E0044B23600023E36004F11003C4E9043328
S3150800B6F0204610BD4C84010843698B6010B50A1DAD
S3150800B70000F110044C6042611A60C3680133C360DB
S3150800B71010BDF8B50446054654F8103F00269C426D
S3150800B7200AD0181F1F68C3E9006603D053F8043C03
S3150800B7305B6898473B46F2E7C5E90444EE60F8BD06
S3150800B74010B50446FFF7C8FF014B2360204610BD1D
S3150800B7506C840108D0E901239B1A82B099423BBF49
S3150800B760535C8DF80430002301238DF805309DF8CD
S3150800B7700430002063F307009DF8053063F30F20BB
S3150800B78002B0704700207047D0E90102101A7047CE
S3150800B790436818687047000038B5044600F06EF92B
S3150800B7A01D4D1E4925600C302246606004F10800D4
S3150800B7B002F042F800F062F9083004F11802E0617C
S3150800B7C01749A56104F1200002F036F800F056F991
S3150800B7D004F13002C4E90C50124904F1380002F0B1
S3150800B7E02BF800F04BF90430E06404F14802A56434
S3150800B7F00D4904F1500002F01FF80C4B23660C4B60
S3150800B80063660933A36604F160020A4904F16C0011
S3150800B81002F06DF8204638BD8C840108249701088B
S3150800B8202C9701087C980108349801089C84010823
S3150800B830A88401081C98010810B504466C3002F06B
S3150800B8407FF804F1500002F07BF804F1380002F0AA
S3150800B85077F804F1200002F073F804F1080002F00A
S3150800B8606FF8204610BD00797047B0F9040070479C
S3150800B870002070478088704700797047C368017157
S3150800B8808360704719B9C36801718360704783681C
S3150800B89023B1013B83600023037170470123FBE753
S3150800B8A0034A026000220271C0E90221704700BF04
S3150800B8B0BC840108124B13B51860124B1B6803F2BF
S3150800B8C0AC43044643600830FFF73AFF04F1200012
S3150800B8D0FFF736FF60680023E36384F83830236493
S3150800B8E003694FF47A715B6810309847064B6068B5
S3150800B8F06946CDE9003406F0CFFA204602B010BDFD
S3150800B900E0200020BC25002041B9000838B5C36BEB
S3150800B9100133C36304464068836918301B68984737
S3150800B92094F8383005461BB104F10800FFF778FE95
S3150800B9306068836918301B689847401B206438BDC7
S3150800B9404068FFF7E3BF000090F8383070B504464A
S3150800B9502BBB00F10806304604F12005FFF744FE2C
S3150800B9602846FFF741FE0E4B186802F098FA304653
S3150800B970FFF748FE2846FFF745FE012384F83830CE
S3150800B9802846FFF74DFE94F83830002BF8D130469C
S3150800B990FFF754FE2846BDE87040FFF74FBE70BD5E
S3150800B9A0F820002037B50446694600254068CDE9E9
S3150800B9B0005506F071FA04F12000FFF775FE04F150
S3150800B9C00800FFF771FE024B20461D6003B030BD2C
S3150800B9D0E0200020C0E90011704743680360704703
S3150800B9E0C0E900117047436833B1026864205043C8
S3150800B9F0B0FBF3F398B270471846704708B5FFF7DF
S3150800BA00F2FFC0F1640080B208BD03680BB1013BC8
S3150800BA10036070477047FEE708B50CF05FFB5823D4
S3150800BA2003604FF0FF3008BD094A1168013110B5AF
S3150800BA30116041070749034618BF20F00703086845
S3150800BA4018BF0833C4180C6091680B44936010BD86
S3150800BA50E420002028200020FFF7E6BFFFF7E4BF18
S3150800BA60024A536801335360704700BFE420002040
S3150800BA70FFF7F6BFFFF7F4BFFFF7F2BF00487047BE
S3150800BA80E4200020024B0349034A5B1AD36070473F
S3150800BA90C07F002074560020E4200020FEE75B1AD1
S3150800BAA010B507D0121A05D0029C241A634393FBDB
S3150800BAB0F2F31944084610BD4068704741600120FA
S3150800BAC0704700880B8898422CBF002001207047D9
S3150800BAD0037D2BB921B1C3697E2B9CBF0133C3619A
S3150800BAE0017570470023C3610375704710B502736B
S3150800BAF0084A0261084A81600023C0E90623C0E9B2
S3150800BB0000330375054B04460146186800F0FAFB36
S3150800BB10204610BD48820108FC840108F420002054
S3150800BB2010B5044B04460146186800F03DFA204655
S3150800BB3010BD00BFF42000200C3000F02BB8000028
S3150800BB4038B504460D46FFF747FD2046034B40F837
S3150800BB500C3B294600F035F8204638BD0C8501080F
S3150800BB6010B5054B044640F80C3BFFF7D9FF2046B5
S3150800BB70FFF729FD204610BD0C85010810B50446BF
S3150800BB802430FFF77FFE94F828102046BDE81040C1
S3150800BB90FFF79EBF10B50446FFF7A4FF04F1240083
S3150800BBA00021BDE81040FFF769BE38B504461D46BA
S3150800BBB0FFF79CFF294604F12400FFF771FE204693
S3150800BBC038BD38B50C4605460A790968FFF78EFF71
S3150800BBD0A16805F12400FFF763FE284638BD00205A
S3150800BBE070474368D3F8100A7047002070474368C7
S3150800BBF0D3F8100A70474368D3F8102A91423CBF1D
S3150800BC00142202FB013182B03DBF0B691B88ADF8D7
S3150800BC100430002338BF01238DF80630BDF8043000
S3150800BC20002063F30F00BDF8063063F31F4002B02F
S3150800BC3070474368D3F8100A704710B5D1E9014335
S3150800BC401B1BB2EBA30F3BBF54F822300360002343
S3150800BC500123037110BDD0E90103181A801070473B
S3150800BC60406870470268142303FB0121016070478E
S3150800BC701E4B70B50446036000F6EC2001F060FE2A
S3150800BC8004F6D42001F05CFE04F6BC2001F058FE50
S3150800BC9004F6A42001F054FE04F6782001F050FEC4
S3150800BCA004F64C2001F04CFE04F6342001F048FE60
S3150800BCB004F61C2001F044FED4F8102A04F1100101
S3150800BCC0002562B10846013A50F80C3F834204D079
S3150800BCD01E68C3E900553346F8E71431F1E7044B0B
S3150800BCE020461A60FFF76FFC204670BD8C85010858
S3150800BCF0F420002010B50446FFF7BAFF204640F6A8
S3150800BD00FC21FFF7B7FE204610BD50F80C3F8342D2
S3150800BD1003D01A7D12B91B68F9E70022104670474E
S3150800BD2007B54068D0F8103A8B4216D9142310305C
S3150800BD3003FB0100FFF7E9FF01238DF804008DF8E6
S3150800BD4005309DF80430002063F307009DF80530A0
S3150800BD5063F30F2003B05DF804FB0023EFE750F808
S3150800BD600C3F0022834203D0D9691B680A44F9E7CD
S3150800BD70104670474B68D3F8101A914210B504461E
S3150800BD800AD91033142000FB0230FFF7E8FF01231D
S3150800BD9020602371204610BD0023FAE738B5054612
S3150800BDA055F80C4FAC4204D02046FFF79BFE24689A
S3150800BDB0F8E738BD03790A7B934228BF1346037117
S3150800BDC003694B6000F10C020A600161196083681F
S3150800BDD001338360704710B58B680A7B03600023C4
S3150800BDE0836000F10C030271C0E90333FFF7E2FF39
S3150800BDF010BD02460423037152F80C3F70B50025A6
S3150800BE00934213D099420AD1D1E90046346066605C
S3150800BE108468013C8460C1E900551B68F0E71C7B17
S3150800BE200679B44228BF34460471F6E770BD38B5C2
S3150800BE30D0F8103A00F110044BB1142505FB034560
S3150800BE40A54204D02046FFF7A9FF1434F8E738BD09
S3150800BE50FFF7EDBF2DE9F84390F8183A044623B1E9
S3150800BE60002380F8183AFFF7E2FFD4F8107A002387
S3150800BE7004F65C29C4F85C3AC4F8603AC4F8643A33
S3150800BE80C4F8683A04F68828C4F8883AC4F88C3A9C
S3150800BE90C4F8903AC4F8943A04F11005EFB11423A3
S3150800BEA003FB0757BD4218D028462E79FFF72DFF0A
S3150800BEB030B104EB8602D2F85C3A0133C2F85C3A38
S3150800BEC02846FFF74CFF30B104EB8606D6F8883AC9
S3150800BED00133C6F8883A1435E4E704F66C210023E2
S3150800BEE0894503D059F8042B1344F9E7C4F8303AC6
S3150800BEF004F698210023884503D058F8042B1344E8
S3150800BF00F9E7C4F8483ABDE8F8830000D1F8103AD2
S3150800BF102DE9F34706468846174601F1100503B38F
S3150800BF20142202FB03535B1B194A9B1002FB03F9FD
S3150800BF302C46B9F1000F16DD4FEA690A514601A8E9
S3150800BF400194FFF78FFE019B39461868FFF7B9FD84
S3150800BF5028B1019CA9EB0A0A14340AF1FF3AD14622
S3150800BF60E7E72B46DFE7D8F8103A13B1142202FBAD
S3150800BF700355AC4206D021683846FFF7A2FD0028D3
S3150800BF8018BF2C463046346002B0BDE8F08700BFC3
S3150800BF90CDCCCCCCD1F8102A01F1100312B1142162
S3150800BFA001FB02330360704737B58A6805460C46BD
S3150800BFB001466846FFF7AAFF01A82946FFF7EAFFE8
S3150800BFC0DDE90003834202D02146FFF712FF03B0E2
S3150800BFD030BD0000F8B50446FFF7FEFA3C4B236077
S3150800BFE03C4B3D4E1C6000253C4BC4F8143A04F605
S3150800BFF01422C4F8105A84F8185A394904F61C2031
S3150800C00001F0F4FBC4F82C6A04F62C22C4F8305A62
S3150800C010344904F6342001F00FFCC4F8446A04F6E7
S3150800C0204422C4F8485A3049304E04F64C2001F0F0
S3150800C03003FC102704F65C233A46294618460CF0FA
S3150800C04089F804F66C22C4F8700AC4F8742AC4F88D
S3150800C0506C6A274904F6782001F03CFC04F688232C
S3150800C0603A46294618460CF075F804F69822C4F89C
S3150800C0709C0AC4F8A02AC4F8986A1E4904F6A420A3
S3150800C08001F028FC1C4BC4F8B43A04F6B422C4F8F0
S3150800C090B84A1A4904F6BC2001F00FFC184BC4F83C
S3150800C0A0CC3A04F6CC22C4F8D04A164904F6D42071
S3150800C0B001F010FC144BC4F8E43AC4F8E84A04F654
S3150800C0C0E422124904F6EC2001F0D0FB2046F8BD24
S3150800C0D08C850108F42000202C8501084882010877
S3150800C0E01C9901086C960108B49601083C8501085C
S3150800C0F064970108AC970108508501080C99010856
S3150800C10064850108049901087885010824990108BD
S3150800C1108142F0B524D002680B680AB9C0E900006C
S3150800C1200BB9C1E90011D1E90064D0E900C5776807
S3150800C130DCF804E0CCF80470C6F804E027682E683A
S3150800C1402F60266004680D6805600C604D684468B9
S3150800C15045604C600AB9C1E900220BB9C0E9003351
S3150800C160F0BD00002DE9F84380460E4617461046F6
S3150800C17008F10C054FF00009A5F10C039E4200F1E9
S3150800C180140419D055F80C3C44F8143C15F8083C2E
S3150800C1900371C0F808900C3044E902002946FFF7FD
S3150800C1A0B7FF55F8042C54F80C3C44F80C2C1435FD
S3150800C1B045F8183C2046DFE7A6EB08060448B6080B
S3150800C1C0464326F04046142000FB0670BDE8F88377
S3150800C1D0CDCCCC0C38B50B6803600B790371002302
S3150800C1E0044683600D460C30C4E903000C31FFF7A2
S3150800C1F08FFFA368AA68A2602046AB6038BD00001E
S3150800C2002DE9F84F002303600371D1F8003A804600
S3150800C2100E461746EBB14FF0140909FB0319A9EBB3
S3150800C2200605AB10364D34465D431423ADB14FEACF
S3150800C230550A03FB0AF23968A05804EB020BFFF70C
S3150800C24040FC142338B1013DA5EB0A050BEB0304AA
S3150800C250ECE78946E3E75546E8E7A14508D1D6F86D
S3150800C260002A0123802A88F804300ED10BF028FF13
S3150800C27021683868FFF725FC0028F0D188F80450B3
S3150800C280C8F800404046BDE8F88F142303FB026255
S3150800C290944209D139462046FFF79CFFD6F8003A62
S3150800C2A00133C6F8003AEBE7A2F114051146284611
S3150800C2B0FFF758FFD6F8003A0133C6F8003AAC4201
S3150800C2C00FD055F8143D6B612B792B7605F10C01CF
S3150800C2D005F12000FFF71CFFEB69AA68EA61AB606D
S3150800C2E0EDE73B6823603B79237107F10C0104F104
S3150800C2F00C00FFF70DFFA368BA68A260BB60BFE732
S3150800C300CDCCCCCC30B589B08A6804460D460146FA
S3150800C3106846FFF7FBFD214603A8FFF73BFE00989A
S3150800C320039B8342294603D0FFF744FD09B030BD7D
S3150800C33003A8FFF750FD03AA01A804F11001FFF7AF
S3150800C3405FFF069B06A800228342EFD01968C3E95F
S3150800C35000220B46F8E7B0F9040070470020704742
S3150800C3604068704700207047007970470020704782
S3150800C3704368988A7047B0F90400704781800120A5
S3150800C3807047007F012802D0031F58425841704762
S3150800C39090F8E43023B9034B1B6893F8840170477F
S3150800C3A000207047C02500204068FFF7F1BF000055
S3150800C3B0044BC0681B689B6803EB5003B3FBF0F0A3
S3150800C3C0704700BFC02500204068FFF7F1BF000096
S3150800C3D011B9C16001207047064B1B689B68B1EB19
S3150800C3E0430F05D803EB5103B3FBF1F3C360F1E741
S3150800C3F000207047C02500204068FFF7E9BF00000D
S3150800C400044B00691B689B6803EB5003B3FBF0F011
S3150800C410704700BFC02500204068FFF7F1BF000045
S3150800C42021B90161C0F88C1001207047094B1B68BF
S3150800C4309B68B1EB430F0BD803EB5103B3FBF1F148
S3150800C440838A016159434FF47A73B1FBF3F1E9E743
S3150800C45000207047C02500204068FFF7E1BF037F32
S3150800C460032B0BD1B1F57A7F08D8B0F892308B42FE
S3150800C47028BF0B46A0F8943001207047002070476B
S3150800C4804068FFF7ECBFB1F57A7F036928BF4FF420
S3150800C4907A7181824B434FF47A71B3FBF1F3C0F89A
S3150800C4A08C30012070474068FFF7EDBF0B4B0C49F5
S3150800C4B01A6802F12803C31ADB104B4302EB830206
S3150800C4C04FF4FA6352695343A3F50C43A03B520059
S3150800C4D0B3FBF2F3A0F89230704700BFC0250020E6
S3150800C4E0DF7BEFBD124B70B51D686A6842F20F74A8
S3150800C4F00A2342F2107103FB0242B2FBF1F2C0F8C2
S3150800C500BC206A68642606FB0242B2FBF1F2C0F858
S3150800C510CC206A6806FB0242B2FBF1F2C0F8DC20C6
S3150800C5206B6806FB0343B3FBF1F3C0F8EC3070BD50
S3150800C530C0250020006805F037BC006805F02EBC51
S3150800C540037A10B50BB1C1F57A71094B44681B68BB
S3150800C55003F12802801A074AC010504303EB8003F0
S3150800C5605B6959434FF47A73B1FBF3F1216010BD4F
S3150800C570C0250020DF7BEFBD0B4B0C491A6802F182
S3150800C5802803C31ADB104B4302EB8302017A436884
S3150800C59052691B6801B1D31A4FF47A705843B0FB3D
S3150800C5A0F2F080B2704700BFC0250020DF7BEFBDE8
S3150800C5B04068FFF7E1BF38B500250446C0E93C5599
S3150800C5C0C0E92655C0E92855C0E92A552946C0308C
S3150800C5D0FFF754F9294604F1D000BDE83840FFF7C3
S3150800C5E04DB90023C0E92633C0E92833C0E92A3308
S3150800C5F07047000082B0F0B5D0E927548D42069303
S3150800C60064DD491B067F022E65D0A6F1050CDCF118
S3150800C610000646EB0C060029D4BF00270127B6EB17
S3150800C620D17F0CBF01FB01F30023B7426FF41C76E0
S3150800C63033440CBF49430021002BD0F8A8604CDADC
S3150800C640334423EAE373C0F8A8306FF41C73194423
S3150800C6500029D0F8AC3048DA194421EAE171274BB1
S3150800C660079E1B68C0F8AC10DF69069B9642A8BFF8
S3150800C6701646711B9A42B8BF1A46002943F6FF733D
S3150800C680B8BF494207FB01310029B8BFC91805EBF5
S3150800C690A135131BB542D4BFC0F89C50C0F89C60A6
S3150800C6A0002BB8BF5B4243F6FF7107FB0313002B51
S3150800C6B0B8BF5B18A4EBA333BDE8F0409342ACBF08
S3150800C6C0C0F8A030C0F8A02002B07047A142CCBF85
S3150800C6D0091B002196E701269DE76FF00047BF1B5F
S3150800C6E09F42D4BFF319F318ADE76FF00046F61A68
S3150800C6F08E42D4BF99195918B1E700BFC02500204A
S3150800C700D0E92A301844054B1B689A6940F2712310
S3150800C71053439842D4BF002001207047C02500200B
S3150800C720D0F8F430026901339342C0F8F43021BFDF
S3150800C7300023C0F8F430012380F89030D0F8F420B4
S3150800C740D0F88C309A4224BF002380F89030704786
S3150800C750D0F8F020F8B5C5680132AA4228BF0023F0
S3150800C760C0F8F02028BFC0F8F03004460F46FFF79F
S3150800C77008FEB4F9506048B3724294F890300BB989
S3150800C780216971BB05B3002E636BB8BF764273434C
S3150800C790B3FBF7F14FF47A736943B1FBF3F16B1E00
S3150800C7A09942A8BF1946B4F92C30B342A8BF3346FC
S3150800C7B000B15B42D4F8F000884209DAC1EB4000C8
S3150800C7C0434393FBF1F10A441046F8BD3246D4E7D9
S3150800C7D06D1A411AA5EB41014B4393FBF5F31A4435
S3150800C7E0F2E71A46F0E700002DE9F04F164687B043
S3150800C7F004468846FFF794FF3146FFF7A9FF6B4BBF
S3150800C8001A680746956852680A20B5FBF0FAB2FB23
S3150800C810F0F25245A8BF524640F6B83318252046CE
S3150800C82041F288315A4305FB0AF5B2FBF1F24FEAA9
S3150800C8308A13B5FBF1F50392B3FBF1F10291FFF709
S3150800C840A0FD0028606B0299039A4FF47A7300FBE7
S3150800C85007F090FBF3F0D4F8A43014BFB1464FF0BC
S3150800C8600009A7EB080C4B4340F6B83ED4F89810DD
S3150800C87048BFFF3305FB0CF50EFB0AFE05EB232329
S3150800C88002FB0C12CEF10005AA42A8EB070B48449E
S3150800C890C4F8A43003DB96457546A8BF154603447D
S3150800C8A0C4F8985095FBFAF52B444FF47A755D4316
S3150800C8B095FBF6F3B3F57A7F05DDBBF1000F07DAD2
S3150800C8C0C4F8981004E0002B02DABBF1000FF7DC7D
S3150800C8D0B4F892509D42A8BF1D4625EAE575A9B24F
S3150800C8E02046FFF72DFE20460121FFF726FE207F72
S3150800C8F0626BB4F8923002284AD005284FEA420CF7
S3150800C90046D04FF6184116FB01F1A3F57A7391FB51
S3150800C910FCF104914FF47A717343520893FBF1F3D7
S3150800C9204B4393FBF2F30593059B00933A46414626
S3150800C930049B2046FFF75EFE616B4FF47A7301FB9A
S3150800C94007F8754398FBF3F795FBF3F5FFF719FD21
S3150800C950A5EB09097F004FF4FA6318B3394698FB2B
S3150800C960F3F7A1F5FA714945D4BF0021012104F175
S3150800C970C000FEF787FF07F5FA774F45ACBF0021E1
S3150800C980012104F1D00007B0BDE8F04FFEF77ABFE9
S3150800C990002104914FF47A717343520093FBF1F32B
S3150800C9A04B43BEE798FBF3F1DBE700BFC025002049
S3150800C9B02DE9F04105460E461746FFF7B1FEB0F9D8
S3150800C9C0504034B190F890401CB90469B4FA84F424
S3150800C9D064092846FFF7D5FC844214BFB5F89210BF
S3150800C9E0002180462846FFF7ABFD01212846FFF7C0
S3150800C9F0A4FD2846FFF7F5FDFFF7C3FC444514BF21
S3150800CA003C460024002808BF0027E41B4FF47A732D
S3150800CA10696B5C4394FBF1F404EBD4777F106400F4
S3150800CA20A7423946B8BF21463231B142ACBF0021D0
S3150800CA30012105F1C000FEF725FFBC42A8BF3C4610
S3150800CA40A4F13201B14205F1D000D4BF0021012181
S3150800CA50BDE8F041FEF716BF134B1B6870B50446D8
S3150800CA609E68FFF789FD05462046FFF763FDB4F883
S3150800CA709420B0B10D4BB3FBF6F3E91A8A4203DBF7
S3150800CA8059199142A8BF1146204689B2FFF758FDA9
S3150800CA9020460121FFF751FD2046BDE87040FFF70B
S3150800CAA08ABD1146F0E700BFC025002040420F00AE
S3150800CAB0F8B5A1F5006140F68D154D4348BF05F25E
S3150800CAC0FF7504461646ED12FFF75BFC002838D0C2
S3150800CAD06B421BB205F6CA01A4F8683041F29413FA
S3150800CAE0994204F1B00794BF002101213846FEF7A8
S3150800CAF0C9FE1EB901213846FEF7C0FE94F8483033
S3150800CB000BBB00212046FFF718FD237F032B00F0FF
S3150800CB1086804FF4FA712046FFF712FD2046FFF78C
S3150800CB204AFD002DB8BF6D42182D77DC94F8B43055
S3150800CB30002B73D104F1E0000121BDE8F840FEF7AF
S3150800CB40A1BE2BB2C6E794F8E460002ED9D0237FA5
S3150800CB505A1E012A0BD91A1F012A46D8314B1B68BF
S3150800CB602946B3F96C212046FFF722FF07E02D4B33
S3150800CB701B682946B3F96C212046FFF735FE204687
S3150800CB80FFF7BEFD50B1D4E92A320A2192FBF1F033
S3150800CB90834235DA062384F87830002694F8B430D0
S3150800CBA01BB1032384F87830002694F8C4301BB1EF
S3150800CBB0022384F87830002694F8D4303BB3012356
S3150800CBC084F87830002104F1E000FEF757FE237F51
S3150800CBD0032B0CBFB4F89430B4F95030C4F8803045
S3150800CBE0B4F86830A4F8883013E0032B03D1204644
S3150800CBF0FFF732FFC3E7072384F878300026BEE73D
S3150800CC0093FBF1F39342CCBF05230423C3E7002E1D
S3150800CC10D8D094F8E430002B3FF473AFF8BDB4F8DD
S3150800CC20941078E7C025002038B5C0E900120372D1
S3150800CC30324A4FF47A7300258382314B8361C0E907
S3150800CC400C25304B304A0577C0E90830C0E90F207B
S3150800CC502E4B2F4A83624264C3642E4A2E4B858527
S3150800CC60C0E91530C0E91B202C4B2D4A42672D4AD6
S3150800CC7080F84850C0E917302B4BA0F8505043664F
S3150800CC80A0F8685080F87850C0E90355C0E91F2518
S3150800CC90C0F8843040F2DE33A0F892304FF4FA73CD
S3150800CCA00446A0F89430A0F88850C0F88C5080F854
S3150800CCB09050C0E92655C0E92855C0E92A552946A5
S3150800CCC0B030FEF7EDFD294604F1C000FEF7E8FD99
S3150800CCD0294604F1D000FEF7E3FD294604F1E000F9
S3150800CCE0FEF7DEFD2068C4E93C5504F0AFFF206876
S3150800CCF0294605F053F8204638BD00BFFC840108D4
S3150800CD0038820108BC850108DC850108CC85010844
S3150800CD10488201080C860108EC850108FC85010893
S3150800CD201C8601082C860108AC85010813B5D0E9D4
S3150800CD3001430F4A1B1BDB105343994216D2F820B6
S3150800CD4000FB0140843003681B6898470123ADF84F
S3150800CD5004008DF80630BDF80430002063F30F0098
S3150800CD60BDF8063063F31F4002B010BD0023F0E79C
S3150800CD70DF7BEFBDD0E901031B1A0248DB105843DD
S3150800CD80704700BFDF7BEFBD10B50446D1E901034C
S3150800CD9009491B1ADB104B439A420BD2F82303FBB3
S3150800CDA002007C3003681B689847012320602371C2
S3150800CDB0204610BD0023FAE7DF7BEFBD0020704751
S3150800CDC0D0E901031B1A0248DB105843704700BF1D
S3150800CDD0DF7BEFBD13B5D0E901430F4A1B1BDB1000
S3150800CDE05343994216D2F82000FB01407430036879
S3150800CDF01B68984701238DF804008DF805309DF8C7
S3150800CE000430002063F307009DF8053063F30F2014
S3150800CE1002B010BD0023F0E7DF7BEFBDD0E90103C8
S3150800CE201B1A0248DB105843704700BFDF7BEFBD73
S3150800CE3013B5D0E901430F4A1B1BDB105343994234
S3150800CE4016D2F82000FB01406C3003681B6898472F
S3150800CE5001238DF804008DF805309DF80430002074
S3150800CE6063F307009DF8053063F30F2002B010BD89
S3150800CE700023F0E7DF7BEFBDD0E901031B1A024868
S3150800CE80DB105843704700BFDF7BEFBD13B5D0E911
S3150800CE9001430F4A1B1BDB105343994216D2F82055
S3150800CEA000FB0140643003681B6898470123ADF80E
S3150800CEB004008DF80630BDF80430002063F30F0037
S3150800CEC0BDF8063063F31F4002B010BD0023F0E73B
S3150800CED0DF7BEFBDD0E901031B1A0248DB1058437C
S3150800CEE0704700BFDF7BEFBD13B5D0E901430F4A9A
S3150800CEF01B1BDB105343994216D2F82000FB014056
S3150800CF005C3003681B6898470123ADF804008DF868
S3150800CF100630BDF80430002063F30F00BDF8063074
S3150800CF2063F31F4002B010BD0023F0E7DF7BEFBDBF
S3150800CF3070B4D0E90164094DA41BE4106C43A14206
S3150800CF4008D2F82000FB01605C30036811465B6874
S3150800CF5070BC1847002070BC704700BFDF7BEFBD70
S3150800CF60D0E901031B1A0248DB105843704700BF7B
S3150800CF70DF7BEFBD13B5D0E901430F4A1B1BDB105E
S3150800CF805343994216D2F82000FB014054300368F7
S3150800CF901B6898470123ADF804008DF80630BDF8E4
S3150800CFA00430002063F30F00BDF8063063F31F401A
S3150800CFB002B010BD0023F0E7DF7BEFBD70B4D0E907
S3150800CFC00164094DA41BE4106C43A14208D2F82061
S3150800CFD000FB01605430036811465B6870BC184753
S3150800CFE0002070BC704700BFDF7BEFBDD0E90103AE
S3150800CFF01B1A0248DB105843704700BFDF7BEFBDA2
S3150800D00013B5D0E901430F4A1B1BDB105343994262
S3150800D01016D2F82000FB01404C3003681B6898477D
S3150800D0200123ADF804008DF80630BDF80430002061
S3150800D03063F30F00BDF8063063F31F4002B010BD5E
S3150800D0400023F0E7DF7BEFBD70B4D0E90164094D3A
S3150800D050A41BE4106C43A14208D2F82000FB01602F
S3150800D0604C30036811465B6870BC1847002070BCDA
S3150800D070704700BFDF7BEFBDD0E901031B1A0248EA
S3150800D080DB105843704700BFDF7BEFBD13B5D0E90F
S3150800D09001430F4A1B1BDB105343994216D2F82053
S3150800D0A000FB0140443003681B68984701238DF84C
S3150800D0B004008DF805309DF80430002063F307005E
S3150800D0C09DF8053063F30F2002B010BD0023F0E78A
S3150800D0D0DF7BEFBD70B4D0E90164094DA41BE410F1
S3150800D0E06C43A14208D2F82000FB01604430036873
S3150800D0F011465B6870BC1847002070BC704700BFBB
S3150800D100DF7BEFBDD0E901031B1A0248DB10584349
S3150800D110704700BFDF7BEFBD10B50446D1E90103B8
S3150800D12009491B1ADB104B439A420BD2F82303FB1F
S3150800D13002003C3003681B6898470123206023716E
S3150800D140204610BD0023FAE7DF7BEFBD70B4D0E9B7
S3150800D1500164094DA41BE4106C43A14208D2F820CF
S3150800D16000FB01603C30036811465B6870BC1847D9
S3150800D170002070BC704700BFDF7BEFBDD0E901031C
S3150800D1801B1A0248DB105843704700BFDF7BEFBD10
S3150800D19010B50446D1E9010309491B1ADB104B43B4
S3150800D1A09A420BD2F82303FB0200303003681B684F
S3150800D1B09847012320602371204610BD0023FAE713
S3150800D1C0DF7BEFBD70B4D0E90164094DA41BE41000
S3150800D1D06C43A14208D2F82000FB01603030036896
S3150800D1E011465B6870BC1847002070BC704700BFCA
S3150800D1F0DF7BEFBDD0E901031B1A0248DB10584359
S3150800D200704700BFDF7BEFBD13B5D0E901430F4A76
S3150800D2101B1BDB105343994216D2F82000FB014032
S3150800D220283003681B6898470123ADF804008DF879
S3150800D2300630BDF80430002063F30F00BDF8063051
S3150800D24063F31F4002B010BD0023F0E7DF7BEFBD9C
S3150800D25070B4D0E90164094DA41BE4106C43A142E3
S3150800D26008D2F82000FB01602830036811465B6885
S3150800D27070BC1847002070BC704700BFDF7BEFBD4D
S3150800D280D0E901031B1A0248DB105843704700BF58
S3150800D290DF7BEFBD10B50446D1E9010309491B1A26
S3150800D2A0DB104B439A420BD2F82303FB02002030D3
S3150800D2B003681B689847012320602371204610BD28
S3150800D2C00023FAE7DF7BEFBD70B4D0E90164094DAE
S3150800D2D0A41BE4106C43A14208D2F82000FB0160AD
S3150800D2E02030036811465B6870BC1847002070BC84
S3150800D2F0704700BFDF7BEFBDD0E901031B1A024868
S3150800D300DB105843704700BFDF7BEFBD13B5D0E98C
S3150800D31001430F4A1B1BDB105343994216D2F820D0
S3150800D32000FB0140183003681B68984701238DF8F5
S3150800D33004008DF805309DF80430002063F30700DB
S3150800D3409DF8053063F30F2002B010BD0023F0E707
S3150800D350DF7BEFBD70B4D0E90164094DA41BE4106E
S3150800D3606C43A14208D2F82000FB0160183003681C
S3150800D37011465B6870BC1847002070BC704700BF38
S3150800D380DF7BEFBDD0E901031B1A0248DB105843C7
S3150800D390704700BFDF7BEFBD544B70B501F128061F
S3150800D3A001F590750446C0E9003685600246504985
S3150800D3B00C3000F09CFA4F4B6562C4E9073604F15D
S3150800D3C01C024D4904F1280000F084FA4B4B2564F1
S3150800D3D0C4E90E3604F13802494904F1440000F064
S3150800D3E052FA484BE565C4E9153604F15402464934
S3150800D3F004F1600000F06EFA444BA567C4E91C36D8
S3150800D40004F17002424904F17C0000F063FA414BD2
S3150800D410C4F89450C4E9233604F18C023E4904F159
S3150800D420980000F023FA3D4BC4F8B050C4E92A36F8
S3150800D43004F1A8023A4904F1B40000F024FA394B81
S3150800D440C4F8CC50C4E9313604F1C402364904F1B3
S3150800D450D00000F032FA354BC4F8E850C4E9383643
S3150800D46004F1E002324904F1EC0000F026FA314BEF
S3150800D470C4F80451C4E93F3604F1FC022E4904F508
S3150800D480847000F000FA2D4BC4F82051C4E94636E2
S3150800D49004F58C722A4904F5927000F0E7F9294BD5
S3150800D4A0C4F83C51C4E94D3604F59A72264904F588
S3150800D4B0A07000F01CFA254BC4F85851C4E954363C
S3150800D4C004F5A872224904F5AE7000F0E9F9214B7B
S3150800D4D0C4F87451C4E95B3604F5B6721E4904F5FE
S3150800D4E0BC7000F0D0F9204670BD00BF3C8601082C
S3150800D4F0C497010850860108C49801086486010883
S3150800D500BC98010878860108F49801088C860108F9
S3150800D510D4980108A086010814980108B486010861
S3150800D520B4980108C8860108CC980108DC86010869
S3150800D53064980108F08601083C98010804870108E8
S3150800D5404498010818870108A49801082C8701083F
S3150800D550E498010840870108EC98010810B50446CC
S3150800D56000F5BC7000F0ECF904F5AE7000F0E8F9CF
S3150800D57004F5A07000F0E4F904F5927000F0E0F903
S3150800D58004F5847000F0DCF904F1EC0000F0D8F939
S3150800D59004F1D00000F0D4F904F1B40000F0D0F999
S3150800D5A004F1980000F0CCF904F17C0000F0C8F909
S3150800D5B004F1600000F0C4F904F1440000F0C0F979
S3150800D5C004F1280000F0BCF904F10C0000F0B8F9E9
S3150800D5D0204610BD10B504460846636811462278F1
S3150800D5E0FDF7A7FF237A2BB123785A1E0123934010
S3150800D5F05840C01A10BD82896AB14369994203DB53
S3150800D60083698B42A8BF0B46B0F90A104B430169E0
S3150800D61093FBF2F319440846704743698B4205DCCD
S3150800D62080698842B4BF00200120704700207047F7
S3150800D63070B50D460446114628461A46FFF7CAFF36
S3150800D640D5E90731024603EBC1018B42184609D0DA
S3150800D65053F8086B9642F8D1436823600123237177
S3150800D660204670BD11462846FFF7D7FF20B1284649
S3150800D670FFF7C1FF2060F1E72071F1E741617047CC
S3150800D68003691A7B42641B694361704703691B6916
S3150800D6904361704710B5044601211830FEF76EFA4B
S3150800D6A094F82C3013B123691B69636110BD00001F
S3150800D6B013B50C4B0C4A0360C3680446CDE9002039
S3150800D6C06946D86803F08DFF04F14C00FEF728FA86
S3150800D6D004F11800FEF724FA2046FDF774FF2046E9
S3150800D6E002B010BD548701084FD7000810B504468C
S3150800D6F0FFF7DEFF20467021FEF7BCF9204610BD75
S3150800D70037B5044600690A46037D00F118016846E4
S3150800D710FFF78EFF9DF8043004F14C0583B12368AA
S3150800D72000999B692046984728460021FEF7D0F9BC
S3150800D730002104F1180003B0BDE83040FEF71EBA18
S3150800D7400121284603B0BDE83040FEF7C1B940685C
S3150800D750FFF7D6BF7FB5044615460E46FDF73CFFD4
S3150800D760C4E90365164B23602B6963616B7BAA7B4F
S3150800D770A96804F11800FEF718FAAA7B696804F18B
S3150800D7804C00FEF7B3F90F4AE068D5E90F31CDE949
S3150800D7900224019A23F0004302F000421A43009B38
S3150800D7A0019203F0004321F000421343009301AABB
S3150800D7B06B4602A903F090F8204604B070BD00BF7E
S3150800D7C0548701084FD70008034B1868D0F814325D
S3150800D7D000F505701B681847F8200020024B014623
S3150800D7E0186800F0C3BC00BFF820002010B500235D
S3150800D7F083810446016082604360C381FFF7EEFFC0
S3150800D800204610BD10B505234360002383810446D6
S3150800D81001608260C381FFF7E1FF204610BD10B5A5
S3150800D8200223436000238381044601608260C3812A
S3150800D830FFF7D4FF204610BD10B50323436000232D
S3150800D8408381044601608260C381FFF7C7FF2046D3
S3150800D85010BD10B50123436000238381044601608F
S3150800D8608260C381FFF7BAFF204610BD10B50723B3
S3150800D870436000238381044601608260C381FFF709
S3150800D880ADFF204610BD10B50C23436000238381ED
S3150800D890044601608260C381FFF7A0FF204610BDE1
S3150800D8A010B50D234360002383810446016082601E
S3150800D8B0C381FFF793FF204610BD10B509234360C7
S3150800D8C000238381044601608260C381FFF786FFD7
S3150800D8D0204610BD10B50A23436000238381044601
S3150800D8E001608260C381FFF779FF204610BD10B53D
S3150800D8F00823436000238381044601608260C38154
S3150800D900FFF76CFF204610BD10B50468FFF75CFFF3
S3150800D9102044807810BD10B50468FFF755FF2044F1
S3150800D920007910BD03689B790BB1FFF7F4BF184661
S3150800D93070470368D8439842B8BF18467047000036
S3150800D940074B10B501460446186800F0F5FA201D85
S3150800D950FFF7EFFF0D2801D90AF0B2FB204610BDEC
S3150800D960F820002073B5069904460D2A00F2818036
S3150800D970DFE802F00C0C0C0C0C0C0C1D1D326C456F
S3150800D980596C00232046237102B070BD1E680D68CD
S3150800D9903068FFF7B9FF0028F3D07368002BF0D181
S3150800D9A02B6828461B68984720600123EAE71E680B
S3150800D9B00D683068FFF7A8FF0028E2D02B68716869
S3150800D9C01B682846984710F47F4FADF80000D8D05A
S3150800D9D09DF800302360E8E71E680D683068FFF799
S3150800D9E093FF0028CDD02B6871681B682846984796
S3150800D9F010F47F0F0090C4D0BDF80030EAE71E6827
S3150800DA000D683068FFF780FF0028BAD02B68716868
S3150800DA101B682846984710F47F4FADF80000B0D031
S3150800DA209DF90030D6E71E680D683068FFF76CFF71
S3150800DA300028A6D02B6871681B682846984710F4FA
S3150800DA407F0F00909DD0BDF90030C3E71E680D68B2
S3150800DA503068FFF759FF002893D02B6872681B6857
S3150800DA602946684698479DF80430002B89D0009BC4
S3150800DA70B0E70AF025FB30B58BB0054608AB081DA4
S3150800DA800C46CDE908120793FFF753FF0023CDE9AB
S3150800DA9003338DF808308DF8043004F10803009339
S3150800DAA0024607AB28466168FFF75CFF28460BB0BD
S3150800DAB030BD70B50D2900F2D580DFE811F00E00F3
S3150800DAC0250036006B004A005B006B007D00900065
S3150800DAD09C00C400AC00B800C40014681D68206827
S3150800DAE0FFF719FF002800F0BF806368002B40F09D
S3150800DAF0BB80A36819682B6800315B6818BF0121D1
S3150800DB002846BDE87040184714681D682068FFF766
S3150800DB1002FF002800F0A8806368002B40F0A4806C
S3150800DB20A2682B6811785B68EAE714681D682068A4
S3150800DB30FFF7F1FE002800F097806368002B40F09D
S3150800DB409380A2682B6811885B682846BDE87040F8
S3150800DB50184714681D682068FFF7DDFE002800F0E6
S3150800DB6083806368002B7FD1A2682B6892F9001026
S3150800DB705B68C5E714681D682068FFF7CCFE0028B7
S3150800DB8072D06368002B6FD1A2682B68B2F90010B7
S3150800DB905B68DAE714681D682068FFF7BCFE002892
S3150800DBA062D06368002B5FD1A2682B6811685B6836
S3150800DBB02846BDE87040184714681D682068FFF7B6
S3150800DBC0AAFE002850D0A3681A682B6800325B6842
S3150800DBD018BF012261682846BDE8704018471468D6
S3150800DBE01D682068FFF797FE00283DD0A2682B68BD
S3150800DBF012785B68EEE714681D682068FFF78BFEED
S3150800DC00002831D0A2682B6812885B6861682846AC
S3150800DC10BDE87040184714681D682068FFF77BFE4A
S3150800DC2010B3A2682B6892F900205B68D2E71468E3
S3150800DC301D682068FFF76FFEB0B1A2682B68B2F9BD
S3150800DC4000205B68E2E714681D682068FFF763FE3A
S3150800DC5050B1A2682B6861685B6812682846BDE8FF
S3150800DC60704018470AF02CFA002070BD30B589B00C
S3150800DC700446CDE9050105AB043007920493FFF786
S3150800DC8058FE0023CDE902338DF804308DF80030B4
S3150800DC90014604F1080304AA6068FFF70AFF05466F
S3150800DCA038B12046FFF73EFE18B1A38901339BB26F
S3150800DCB0A381284609B030BD01207047436818473C
S3150800DCC038B5D1F840220A4B9A4204460BD1D1F80E
S3150800DCD0445245B901F5077006F071FE054BC4E9D3
S3150800DCE00035204638BD044B236000236360F8E7FF
S3150800DCF0613401086DDD0008C1DC0008036803EB28
S3150800DD00810101607047000010B5EFF31083DB4313
S3150800DD1003F0010372B6B1F87425B1F8764592B2EC
S3150800DD20A24208D1B1F87825B1F87A4592B2A24252
S3150800DD300DD10B4A05E0A1F87625012281F87C254C
S3150800DD40084A02600022426043B162B610BDA1F8DB
S3150800DD507A25012281F87C25034AF2E772B6F5E7AF
S3150800DD6009DD0008B1DD0008C1DC0008D1F8402251
S3150800DD70074B9A4208D1D1F844322BB9054A81F8A3
S3150800DD807C35026043607047034B03600023F9E764
S3150800DD906134010809DD00086DDD0008D1F810229C
S3150800DDA001F110030AB103EB820303607047000018
S3150800DDB037B5154BD1F840229A4204460D4602D192
S3150800DDC0D1F844320BB1114B09E0294601A8FFF7F7
S3150800DDD0E5FFD5F87035019A934206D10C4B2360BE
S3150800DDE020460023636003B030BD53F8041BC5F812
S3150800DDF070358B89CA899BB29342E6D0CB8105F5EB
S3150800DE00077006F047FEDEE761340108B1DD000859
S3150800DE10C1DC00080B681968136808881B681B882A
S3150800DE2098422CBF002001207047D0F810222DE917
S3150800DE30F34180460F4600F11004C2B104EB82029A
S3150800DE40121B92102646002A13DD5510294601A8F2
S3150800DE500196FFF753FF019B196809680988B942BB
S3150800DE603EBF551B05F1FF351E1D2A46EBE7224628
S3150800DE70E6E7D8F810320BB104EB8304B44208D0B5
S3150800DE80306803681B88BB4288BF002002B0BDE823
S3150800DE90F0810020FAE700F5077006F0C0BD37B537
S3150800DEA0044600F11005014601A8FFF777FF019B1C
S3150800DEB0AB4205D055F8041B2046FFF7ECFFF6E702
S3150800DEC003B030BD00F11003C0F87035B0F87435F2
S3150800DED001339BB2A0F87435012380F87C3570476E
S3150800DEE073B50446014601A8FFF758FF04F110066A
S3150800DEF0019BB3420BD056F8045B2846FFF712FD88
S3150800DF000028F5D0AB8901339BB2AB81F0E72046F8
S3150800DF10FFF7D8FF02B070BD10B5044600F50770CC
S3150800DF2006F052FDB4F8783501339BB2A4F878357B
S3150800DF30012384F87C3510BD2DE9F74FD0F810720F
S3150800DF400191064600F11004CFB104EB87052D1B9D
S3150800DF50AD10A046002D65D04FEA550B4FEA8B0A47
S3150800DF6008EB0A0901AA49462046FFF753FF40B1C4
S3150800DF70013D09F10408A5EB0B0B5D46EAE72546CA
S3150800DF80E5E74A4601A92046FFF744FF0028F4D1F1
S3150800DF9008EB85054FEAAA0ABAF1000F14D04FEA32
S3150800DFA05A0B08EB8B03194601AA20460093FFF784
S3150800DFB031FF009B30B10AF1FF3AAAEB0B0A03F1D5
S3150800DFC00408E9E7DA46E7E709F10409A5EB0905D4
S3150800DFD0AD108DB14FEA550A09EB8A0B5A4601A9CD
S3150800DFE02046FFF717FF28B9013DA5EB0A050BF1F7
S3150800DFF00409EEE75546ECE7C14513D004EB870460
S3150800E000A14507D0A4EB090540462A4649460AF029
S3150800E01087F8A844D6F81032A4EB0804A3EBA404A6
S3150800E020C6F8104203B0BDE8F08F000073B5044689
S3150800E030FDF7D2FA194B2360194B1C60194BC4F82B
S3150800E0401432012384F81832174B0093174B0193A7
S3150800E050002502AB04F5077613E90600C4F810524A
S3150800E060304606F0B5FC124BC4F86835214604F56F
S3150800E070AE60C4F86C55FFF791FEA4F8745584F8A1
S3150800E0807C55A4F876553046A4F87855A4F87A5500
S3150800E09006F068FD204602B070BD00BF788701080B
S3150800E0A0F820002048820108BDDC0008B9DC000819
S3150800E0B009DD00082DE9F74FD1F8007200238046E4
S3150800E0C00C46914603600371BFB101EB870AAAEBC0
S3150800E0D00406B6102546A6B14FEA560B05EB8B0388
S3150800E0E019464A4620460193FFF794FE019B30B134
S3150800E0F0013EA6EB0B061D1DEDE78A46E7E75E46E1
S3150800E100E9E7AA4506D10123802F88F804300ED105
S3150800E11009F0D6FF2A4649462046FFF77BFE002827
S3150800E120F1D14046C8F8005003B0BDE8F08F04EBC3
S3150800E1308706B54206D1D9F800302B600137C4F8F6
S3150800E1400072EEE7371F04223946304609F0E8FF29
S3150800E150D4F800327A1B0133C4F800322946B01AC3
S3150800E16009F0DEFFD9F800302B60DAE71FB5019118
S3150800E17001AA00F1100102A8FFF79CFF05B05DF89F
S3150800E18004FB000010B5074B0360044600F5077052
S3150800E19006F0C6FC044B002220461A60FDF713FA67
S3150800E1A0204610BD78870108F820002010B50446DF
S3150800E1B0FFF7E8FF20464FF4B061FDF75BFC204609
S3150800E1C010BD37B5044600F5077006F0C8FCD4F84C
S3150800E1D06C355A1013F0010F04EB0201D4F86835B8
S3150800E1E018BFA2586D46284618BFD358984795E8D1
S3150800E1F0030004F5AD6484E8030003B030BD10B530
S3150800E2000D291CD8DFE801F01D1D071F1D071F0972
S3150800E210090F15090F15022010BD18680368BDE817
S3150800E22010409B681847186803689B689847400021
S3150800E230F2E7186803689B6898478000ECE709F0DE
S3150800E2403FFF0120E8E70420E6E77FB5034640687C
S3150800E25004AAC143059281424FF00002CDE9022289
S3150800E2608DF804208DF8002003F1080305AAB8BF2D
S3150800E2700146FFF7C4FF80B207B05DF804FB80884B
S3150800E28070478180012070474368188C70470000EA
S3150800E29010B5094B044640F8443BFFF751FB04F11F
S3150800E2A02C00FFF74DFB04F11000FFF749FB204651
S3150800E2B0FDF789F9204610BDB887010810B5044650
S3150800E2C0FFF7E6FF20465421FDF7D4FB204610BD94
S3150800E2D00346C068198CB3F8402003688A1A51426D
S3150800E2E05B6851411847FFF7F3BF08B5B0F84030EF
S3150800E2F023B10184FFF7ECFF012008BD1846FCE7AF
S3150800E3004068FFF7F2BF000038B50446FDF764F928
S3150800E310124B2360124B13491A6802F50572E26024
S3150800E32004F11000FFF762FA0F4B10490025C4E903
S3150800E330093404F12402258404F12C00FFF76FFA4E
S3150800E3400B4BE363A4F8405004F13C02094904F17D
S3150800E3504400FFF764FA204638BD00BFB8870108B5
S3150800E360F8200020149601089887010844960108A9
S3150800E370A8870108F496010810B5074B044640F82B
S3150800E380743BFFF7DDFA04F15400FFF7D9FA20468B
S3150800E390FDF719F9204610BDD887010810B50446BF
S3150800E3A0FFF7EAFF20468421FDF764FB204610BDEF
S3150800E3B010B50446806E70B1E06803681B6898471C
S3150800E3C023695843A36EB0FBF3F043F698239842AB
S3150800E3D028BF184680B210BDD0E90B239B1A5810E7
S3150800E3E0002BB8BF1630704770B504461830FFF7D3
S3150800E3F0F3FF002104F14402884208D0636C02331B
S3150800E400934201D32C3BFBE763640131F4E7002315
S3150800E41004F144061D46994209D0A06C821CB242FA
S3150800E42001D32C3AFBE705800133A264F3E7002306
S3150800E430A4F8503070BDFFF7D7BF2DE9F0430C683C
S3150800E440196802398C4225D21768B7F80090254614
S3150800E4500B4628462E4630F802EBCE4518D39C4686
S3150800E460BCF80080C8456346ACF1020CF8D8AB424C
S3150800E47007D3844520F8028C0646A3F800E06346D5
S3150800E48006D29F4288BF3446B74238BF1946D9E7F5
S3150800E4900546DEE7BDE8F083D0E90023D26A934259
S3150800E4A036BF03F12C00981A801A401070472DE9E0
S3150800E4B0F04192B007464FF0000808460E46CDF8E0
S3150800E4C04480FFF789FF1528054601D909F0F8FDAC
S3150800E4D006AC41464200204609F03CFE119B1D440D
S3150800E4E0D6E90B2302A8CDE90262CDE904631195AA
