S01E00007372632F6C636D332F6170702F6C636D332D626173652E737265634A
S3150800900000100020E9920008ED920008F39200088B
S315080090100D930008139300082D9300080000000024
S31508009020FFFFFFFF00000000000000004793000854
S315080090304D93000800000000539300085993000858
S31508009040510401086104010871040108810401083A
S3150800905091040108A1040108B1040108C10401082A
S31508009060D1040108E1040108F10401080105010819
S315080090701105010821050108310501084105010806
S3150800908051050108610501087105010881050108F6
S3150800909091050108A1050108B1050108C1050108E6
S315080090A0D1050108E1050108F105010801060108D5
S315080090B011060108210601083106010841060108C2
S315080090C051060108610601087106010881060108B2
S315080090D091060108A1060108B1060108C1060108A2
S315080090E0D1060108E1060108F10601080107010891
S315080090F0110701082107010831070108410701087E
S3150800910000000000000000000000000051070108F0
S31508009110610701087107010881070108910701081D
S31508009120A1070108B1070108C1070108D10701080D
S31508009130E1070108F107010800000000000000002F
S3150800914001080108110801082108010800000000AB
S315080091500000000000000000000000000000000001
S31508009160000000000000000031080108410801085D
S31508009170510801080000000000000000000000007F
S30D08009180000000006108010867
S31508009188666138326330340070B52B4CA36A43F0F5
S315080091988053A362A36A23F08053A362636943F0EA
S315080091A880536361E36A23F4F873E362E36A43F47A
S315080091B88073E362BFF34F8F204DAB6823F04053AB
S315080091C8AB60AB6842F2107043F08053AB6000F0B6
S315080091D8A3FBAB6843F00043AB60AB68002BFCDB32
S315080091E8382000F099FBAB68154843F00103AB60DB
S315080091F807F0ACFDC1232B630026AB684FF47A70E1
S3150800920843F00403AB6000F087FB2B685B07FCD5CB
S315080092182B6CB3F5946FF0D30136642EEDD1A36A9F
S3150800922843F08053A362A36A23F08053A362636959
S3150800923823F08053636170BD00100240000000509F
S31508009248B04D02081C4B1A6822F450221A601A6894
S3150800925842F480321A601A689103FCD5174A5201FB
S3150800926802F18442012111604FF480625A60144A5F
S31508009278116821F0040111606FF07F41516011688F
S3150800928841F0010111600F4A5A600022DA621A6831
S3150800929842F080721A601A689201FCD50A4A1221AD
S315080092A811605A6842F002025A605A6802F00C02C3
S315080092B8082AFAD1704700BF00100240241002405D
S315080092C810E000E0000411000020024008B506F08E
S315080092D8C7FCFFF7B7FFBDE80840FFF755BF00BF53
S315080092E81C48004708B509F083FC1EF0040F0CBF9C
S315080092F8EFF30880EFF309807146174A104708B557
S3150800930809F076FC08B509F073FC1EF0040F0CBFCB
S31508009318EFF30880EFF309807146104A104708B53D
S3150800932809F066FC1EF0040F0CBFEFF30880EFF394
S31508009338098071460A4A104708B509F059FC08B564
S3150800934809F056FC08B509F053FC08B509F050FCB5
S31508009358704700006D9300080793000827930008D4
S315080093684193000808B5FFF7B1FF1D4A1D48824218
S3150800937817D31D4A1D4900208A421DD30BF066F8EB
S315080093881B4D1C4B5B1B9C100026B4421DDC1A4D5A
S315080093981A4B5B1B9C100026B4421BDC06F044FCE7
S315080093A8FEE7D2E9001394680C32C91A9C42DED942
S315080093B85D5843F8045BF9E752F8083B52F8044C41
S315080093C89C42D9D943F8040BFAE755F8043B984761
S315080093D80136DAE755F8043B98470136DCE700BF5B
S315080093E80894000814940008149400081C940008AB
S315080093F81C9400081C9400081C940008289400086B
S31508009408DC9002080010002018130020181300200A
S31508009418C83D0020CD44010875AC0108A1AC010877
S31508009430007970470020704700207047B0F9040093
S315080094407047002070470079704701710120704706
S3150800945010B50446406807F019FD237B5840C0B292
S3150800946010BD10B50446406807F01EFD237A584023
S31508009470C0B210BD08B5037A4068594007F00EFD22
S31508009480012008BD1268F0B50468023A944200D378
S31508009490F0BDB1F900E020461346054630F9027BD7
S315080094A0BE45FADC1E46B6F900C0E6453346A6F1C7
S315080094B00206F8DB9D4206D8864220F802CC05460D
S315080094C01F803346E9D2994288BF2C46A94238BF45
S315080094D01A46DBE7F8B5214B0360214BC0F8CC35BB
S315080094E0204BC0F8F035044600F5BE600AF0CBFD07
S315080094F004F2CC500AF0C7FD04F29C5007F078FE3F
S3150800950004F5AB6007F0C0FF04F5A56007F0BCFFE3
S31508009510154E04F20C5504F21C47AF4205D045F827
S315080095203C6D28460AF0AFFDF7E7104BC4F8303219
S3150800953004F50C700AF0A7FD04F5907007F006FC18
S3150800954004F5867007F074FA04F5807007F070FA6F
S3150800955020460AF02DFE2046F8BD00BF2C4C020816
S31508009560704F0208584F0208404F0208106402085C
S3150800957010B50446FFF7AEFF20464FF4C0610AF067
S315080095809FFF204610BD2DE9F341456915F0010FEF
S31508009590044605F1FF3600EB450721D14FEA560888
S315080095A026F001010144CDE9000701AA6846FFF744
S315080095B069FF34F9186025F001014FEA5508684635
S315080095C001AA2144CDE90047FFF75CFF34F91800EA
S315080095D0304400EBD07040F34F0002B0BDE8F08194
S315080095E0CDE90007811901AA6846FFF74BFFA05F7E
S315080095F0F3E7F0B5D0E9064787B0002305933B1B90
S315080096005D10002BB8BF0B350A2D064601D915F09B
S315080096100BFC25B16A000021684615F03BFC059550
S315080096206B461636BC4204D16846FFF7ACFF07B056
S31508009630F0BD34F9022B23F8022BB442F2D3163CC0
S31508009640FBE7F8B50446D0E907300A2928BF0A21FE
S315080096500129A0EB030038BF012143100028B8BF39
S315080096600B33CD1A2E4604F11A07002E0EDB002DF9
S31508009670A3EB0103C8BF00232B4404F11A0673B9F0
S315080096801DB1201DFFF7B5FF2085F8BDE069023042
S31508009690B84202D2E0610136E7E71638F8E7206AF1
S315080096A0811CB14203D20280013B2162E7E71639E9
S315080096B0F7E700002DE9F84F04460AF047FD684B26
S315080096C0236007F0F5FE674BA3616749207704F12D
S315080096D0200006F0BBFB1622002104F1D80015F085
S315080096E0D9FB0025614BC4F8F830C4E93C0042F6C2
S315080096F0E0620A2104F1D400C4F8FC50FFF7A1FF88
S315080097005B4ADFF870A1DFF870B104F1200104F5B7
S31508009710807007F07FF9594A04F1200104F5867034
S3150800972007F078F904F1200104F58C7006F010FDB5
S3150800973004F59277524904F5907007F0F5FA514A04
S3150800974004F59071384607F047FA4F4A394604F54A
S315080097500C7007F0E9FD04F21C4704F51E7000F0D2
S31508009760D1FC4A49384600F0C5FE494904F58B60E4
S3150800977000F0C0FE474904F2944000F0BBFE46499B
S3150800978004F59A6000F0B6FE444BC4F80C35444B19
S315080097904448C4F81435012384F81835C4F810056C
S315080097A007F0D8FA4048C4F82005C4F81CA584F880
S315080097B0245507F0CFFA294604F21C50FFF75AFE43
S315080097C03A4904F5A56007F007FE394904F5AB6088
S315080097D007F002FE3748C4F88C05C4F888A584F853
S315080097E0905507F0B7FA294604F5B160FFF742FE2F
S315080097F0314904F2945007F077FB304904F29C5043
S3150800980007F066FC04F2CC5000F078FF242D1BD13B
S315080098102B4B2C4A1A6004F2CC5120460AF070FCF5
S3150800982004F50C7120460AF06BFC04F20C55AF42A5
S3150800983010D104F1200006F0CBFA04F5907007F079
S315080098406DFA2046BDE8F88F0BEB050007F082FAA3
S315080098500C35DBE7394620460AF052FC3C37E6E78A
S315080098602C4C02081C4C0208904C02080C4C0208AE
S31508009870784C0208FC4B02083C4C0208604C020873
S3150800988000000040744D0208684D0208004D0208A9
S315080098900C4D0208184D0208244D0208EC4B02082C
S315080098A0DC4B0208984D0208A44D0208E44C020855
S315080098B0BC4C02088C4D0208544D0208984C02080C
S315080098C020000140C100030010B504460AF0FAFB67
S315080098D0D4F8F430B4F9002404F1D800023B9842D5
S315080098E019D8C4F8F430D4F8F030023B984214D8AA
S315080098F01A80C4F8F030FFF77CFEB0F5165FA4F8BE
S31508009900FC0002DA072007F0C1FD04F12000BDE8DB
S31508009910104006F021BA1633E1E71633E6E70000F1
S3150800992038B50E4B0E4C9842A5680DD800EBC00012
S315080099304FF47A73B0FBF3F00230A368EB1A23F006
S315080099407F439842F9D838BD09214FF47A7200232B
S31508009950A0FB010115F0C6F8EEE700BF1BC7711C96
S3150800996010E000E038B51C4652B91B681D690B6843
S3150800997008461B68984701462046A847012038BD77
S315080099800020FCE713B50C466AB91A680DF1060102
S315080099901846126990472368BDF806105B6820468A
S315080099A0984702B010BD0020FBE738B51C4652B9EF
S315080099B01B681D680B6808461B68984701462046C1
S315080099C0A847012038BD0020FCE713B50C466AB944
S315080099D01A680DF1070118461268904723689DF822
S315080099E007105B682046984702B010BD0020FBE7C9
S315080099F038B51C4652B91B689D690B6808461B6832
S31508009A00984701462046A847012038BD0020FCE7B4
S31508009A1013B50C465AB91A6801A9184692699047AF
S31508009A20236801995B682046984702B010BD00205C
S31508009A30FBE738B51C4652B91B68DD680B68084653
S31508009A401B68984701462046A847012038BD0020D4
S31508009A50FCE713B50C466AB91A680DF106011846F3
S31508009A60D26890472368BDF906105B682046984778
S31508009A7002B010BD0020FBE713B50C4672B91A6890
S31508009A800DF1070192681846904723689DF807105C
S31508009A905B68204602B0BDE810401847002002B0B7
S31508009AA010BD10B51C4652B90B6808461B68984786
S31508009AB0236801469B6820469847012010BD002070
S31508009AC0FCE770B50D461646044610200AF0ECFC75
S31508009AD033462A462146BDE870400AF067BE70B58F
S31508009AE00D461646044610200AF0DEFC33462A4682
S31508009AF02146BDE870400AF059BE000038B50C464C
S31508009B0001F51E7105460DF009FC04F58071424AFF
S31508009B104248FFF7E4FF04F58C713F4A4048FFF7D7
S31508009B20DEFF04F57F713C4A3E48FFF7D8FF04F193
S31508009B30F801394A3C48FFF7D2FF04F58671364AE0
S31508009B403A48FFF7CCFF10200AF0AEFC04F5147271
S31508009B50374B38490AF02AFE10200AF0A5FC364B86
S31508009B60364904F118020AF021FE04F22C41344A5F
S31508009B703448FFF7A6FF04F58D61314A3248FFF7EE
S31508009B80A0FF04F2A4412E4A3048FFF79AFF04F5D5
S31508009B909C612B4A2E48FFF794FF04F58A61284AF0
S31508009BA02C48FFF78EFF04F28C41254A2A48FFF716
S31508009BB088FF04F59961224A2848FFF782FF04F2D4
S31508009BC004511F4A2648FFF77CFF10200AF06CFC58
S31508009BD004F5A562234B24490AF0E8FD10200AF093
S31508009BE063FC204B214904F5AB620AF0DFFD04F55E
S31508009BF0B161134A1E48FFF764FF04F20C51104A7C
S31508009C001C48FFF75EFF0E4A1B4804F21C51FFF77B
S31508009C1058FF284638BD00BF304E0208784E020865
S31508009C20744E0208704E02086C4E0208684E02080E
S31508009C302C4E02087C4E0208284E0208804E020866
S31508009C40244E0208644E02085C4E0208544E02086E
S31508009C504C4E0208604E0208584E0208504E020842
S31508009C60484E0208204E0208444E0208344E0208A6
S31508009C70404E02083C4E0208384E020810B504460B
S31508009C800DF03CFC204610BD38B5D0F880300446AF
S31508009C901B6880300D46984768B9084BA5F6BB2265
S31508009CA09A4207D8B4F85431C4F858510133A4F885
S31508009CB05431012038BD0020FCE700BF65B402001E
S31508009CC000207047406870474068FFF7DDBF12689C
S31508009CD0F0B50468023A944200D3F0BDB1F900E049
S31508009CE020461346054630F9027BBE45FADC1E4679
S31508009CF0B6F900C0E6453346A6F10206F8DB9D42F2
S31508009D0006D8864220F802CC05461F803346E9D29B
S31508009D10994288BF2C46A94238BF1A46DBE74368F2
S31508009D201868704743681868B0FA80F040097047A9
S31508009D308268C368022A03F1010338BF02229342EC
S31508009D4028BF0023C3607047294B984205D1294A8A
S31508009D50936943F40063936107E0274B984207D160
S31508009D60244AD36943F00103D361BFF34F8F704789
S31508009D70224B984204D11F4AD36943F00203F3E702
S31508009D801F4B984204D11B4AD36943F00403EBE7FF
S31508009D901C4B984204D1174AD36943F01003E3E7F2
S31508009DA0194B984204D1134AD36943F02003DBE7E1
S31508009DB0164B984204D10F4A936943F40053CAE7F5
S31508009DC0134B984204D10B4A936943F48033C2E794
S31508009DD0104B984204D1074A936943F40033BAE713
S31508009DE00D4B9842C1D1034A936943F48023B2E7E5
S31508009DF0002C014000100240000000400004004012
S31508009E0000080040001000400014004000340140E3
S31508009E10004001400044014000480140EFF3108231
S31508009E20D24302F0010272B6114BD96821F0010142
S31508009E30D960198821F001011980D96A0139596256
S31508009E40198841F0010119801988C906FCD581686D
S31508009E50022938BF02210239C16000211961D96877
S31508009E6041F00101D9600AB162B6704772B670470F
S31508009E7000080040124B1A88C368DB43C2F300127D
S31508009E8003F001039A4210B5044601D1FFF750FFCB
S31508009E900C4B1A6822F001021A600B4A0F21516016
S31508009EA0E16802225A6004F59A7202EB8102DA60CE
S31508009EB0064A0121D1601A680A431A6010BD00BF1C
S31508009EC00008004008040240000402400001005057
S31508009ED008B50A4B5A68022A05D01A6822F0010208
S31508009EE01A60FFF7C7FF064A936843F004039360B6
S31508009EF0044B6FF001021A6108BD00BF0804024056
S31508009F0000010050000800404068FFF7E1BF00006C
S31508009F10B0F85431B0F856219BB292B2934270B55C
S31508009F20044651D0D0F85811A0F8563146F2A81375
S31508009F30994283BF01F543434F334CF25032012314
S31508009F4084BFB3FBF2F35B00016083604FF4FA72DF
S31508009F504D001E4EB5FBF3F3436042F20F7002FB51
S31508009F600100B04284BF42F21072B0FBF2F26261A5
S31508009F704FF4FA02B2FBF3F3FA22A36142F20F732B
S31508009F8002FB0133124942F210723431B3FBF2F389
S31508009F900022C4F898310F4BB3FBF5F3236141F85F
S31508009FA0083C5B08102A02D08B500432FAE704F109
S31508009FB024000CF07FFB04F124000CF093FB2046F0
S31508009FC0BDE87040FFF72ABF70BD00BF3F4B4C008D
S31508009FD000080040002A75152DE9F341456915F07A
S31508009FE0010F044605F1FF3600EB450721D14FEA7C
S31508009FF0560826F001010144CDE9000701AA684682
S3150800A000FFF765FE34F9186025F001014FEA550897
S3150800A010684601AA2144CDE90047FFF758FE34F9FE
S3150800A0201800304400EBD07040F34F0002B0BDE892
S3150800A030F081CDE90007811901AA6846FFF747FEB6
S3150800A040A05FF3E7F0B5D0E9054787B0002305938D
S3150800A0503B1B5D10002BB8BF0A35092D064601D9F2
S3150800A06014F0E2FE25B16A000021684614F012FFDA
S3150800A07005956B461436BC4204D16846FFF7ACFF1B
S3150800A08007B0F0BD34F9022B23F8022BB442F2D301
S3150800A090143CFBE7F8B50446D0E90630092928BF81
S3150800A0A009210129A0EB030038BF0121431000282C
S3150800A0B0B8BF0A33CD1A2E4604F11807002E0EDB58
S3150800A0C0002DA3EB0103C8BF00232B4404F1180697
S3150800A0D073B91DB1201DFFF7B5FFA084F8BDA069AF
S3150800A0E00230B84202D2A0610136E7E71438F8E731
S3150800A0F0E069811CB14203D20280013BE161E7E7D6
S3150800A1001439F7E72DE9F041634B644A86B00446F3
S3150800A11000254CF25037C0E907300760604B85616F
S3150800A120C0E90455014604F59A76009524300CF0EA
S3150800A130D1FE20222946304614F0ACFEA4F854512C
S3150800A140C4F8587114222946A4F8565104F5B0707B
S3150800A15014F0A0FE534FC4F88051C4E95D0042F6DE
S3150800A160E0620921C4F87C7104F5AE70FFF792FF2E
S3150800A17042F6E063C4E961752268A4F888314A4B5F
S3150800A180C4F88C31FA2142F20F7301FB023342F212
S3150800A1901071B3FBF1F3C4E96533444BC4F89C3141
S3150800A1A004F5CA73C4F8A03104F5AA739B1BAB4225
S3150800A1B0C4F890515DDC52003D4FB7FBF2F704F14D
S3150800A1C0100304F114029A425CD1DFF8E8800025F6
S3150800A1D0242D5AD1384805F075FD3749374A43F2D8
S3150800A1E081030B63536943F002035361BFF34F8F37
S3150800A1F0334A344D42F28253136001F140039360AF
S3150800A200314B3249D66004A8CDE9043406F0C2F8C9
S3150800A2102F4B1B88ADF80C302E4B03A904A8CDE9AB
S3150800A220043406F0B7F82846FFF78EFD60232B8026
S3150800A23020236B6001232B85EF626B6147F6680369
S3150800A240AB61EB6141F2111321682B6220464FF492
S3150800A25000436B64FFF718FD2046FFF759FE2046BA
S3150800A260FFF766FD2046FFF705FE204606B0BDE867
S3150800A270F08103F59A73234431468B429BD021F82B
S3150800A280025BFAE743F8047B9DE708EB050006F056
S3150800A29061FD0C359CE700BF9C4E0208E84E02089B
S3150800A2A0340800400C4C0208AC4E02088C4E0208DA
S3150800A2B0002A7515C44E020800010050001002401D
S3150800A2C00804024000080040099F0008B84E02082A
S3150800A2D0F44E020835A400082DE9F84F534B1A68C6
S3150800A2E09207044640F19D80514A5268002A40F080
S3150800A2F09880856802225A60C368013D9D4228BF3E
S3150800A3001D464FF47A77012D07D92046FFF710FD31
S3150800A3102046BDE8F84FFFF7ADBD002D3FD0A36836
S3150800A320022B38BF0223194600231A4604F59B7CE4
S3150800A3303CF8220001328A420344F9D148F6CC514E
S3150800A3404B431B0BB3FBF2F3D4F87821A4F88831FE
S3150800A35004F5B070023A90425FD8C4F87821D4F870
S3150800A3607421023A90425AD81380C4F87421FFF730
S3150800A37069FE42F21B518842A4F88001D8BF002129
S3150800A38004F5CA70C8BF012109F0E9FFD4F8903175
S3150800A3900133C4F890312046FFF7BAFD21E004F1F5
S3150800A3A024000CF0D9F9A368022B38BF022303F165
S3150800A3B0010CC0F57A784FEA5C0C2146AA462B4672
S3150800A3C0A9460122D4450FD100FB03F109FB081168
S3150800A3D004F12400B1FBFCF1B1FBF7F189B20CF0F2
S3150800A3E0BBFCA3681D448EE7B1F834B1B1F838E177
S3150800A3F0D94473445AB1ABF5807BBBF5606F0AD874
S3150800A400AEF5807EBEF5606F8CBF002201220AF190
S3150800A410010A0831D6E70022F9E714329BE714321D
S3150800A420A0E702225A60BDE8F88F00BF0004024088
S3150800A430080402404068FFF74FBF037D13B1037E4F
S3150800A44083F00103184670470079704730B5C36832
S3150800A4500D46044693E8070085B001AB83E807007C
S3150800A4606B1C01A88DF80C3006F074FC0120A5764B
S3150800A47005B030BD037D10B504460376C06806F006
S3150800A48005FD94F82030A27E5840637EC0B25B007A
S3150800A490824208BF43F0010303F00F0363760BB94A
S3150800A4A0237510BD0F2BFCD10123F9E710B5034B1B
S3150800A4B00360044609F0E7FD204610BD404F020838
S3150800A4C010B50446FFF7F2FF20463C2109F0F8FFD5
S3150800A4D0204610BD4068FFF7B9BF4368987E7047AD
S3150800A4E04068FFF7AABF43681A7D0AB9187E704705
S3150800A4F00020704738B504460D4609F0CDFD0F4BD0
S3150800A500236000236361238323620D4BE3610D4AB5
S3150800A5100D4B22612A7AE560C4E909340B4B911E7A
S3150800A520C4E90B344A420A4B4A412846C4E90D3469
S3150800A530A27606F00FFC204638BD00BF404F020841
S3150800A540DC4B0208004F0208104F0208204F020891
S3150800A550304F0208C268D3680A3313617047000097
S3150800A56010B5034B0360044609F08DFD204610BD67
S3150800A570584F020810B50446FFF7F2FF204610218F
S3150800A58009F09EFF204610BD10B5054B044640F85D
S3150800A590243BFFF7E5FF204609F075FD204610BD70
S3150800A5A0704F020810B50446FFF7EEFF2046342127
S3150800A5B009F086FF204610BD014B00229A607047BD
S3150800A5C0002C00402DE9FF41C3680133C360C2680F
S3150800A5D003699B1A002B044641DB434F386805F094
S3150800A5E017F8D0F8043400F204401B6898478046F0
S3150800A5F0386805F00DF8836AC26A9342227E1ABF4C
S3150800A600C36201260026012362BB384A237645F237
S3150800A6105553C4F814801360D36813F00203FBD1B2
S3150800A6204FF4837191604CF6CC4111603049CA6988
S3150800A63042F40062CA61BFF34F8F2E4AADF8043068
S3150800A64040F2FF215160F52111602B4B40F2D221D7
S3150800A650516002A801A9CDE9023405F09BFE04B0B9
S3150800A660BDE8F081656923763868C4F8148004F07B
S3150800A670CFFF94F82020D0F87C32A8EB050582B3EA
S3150800A680E269E36141F28737012184F8201003F576
S3150800A690FA7041F288343B444FF47A7CB3FBF4F108
S3150800A6A0B0FBFCF002F5FA733A44B3FBFCF3471A25
S3150800A6B0B2FBF4F29C1ABC4228BF3C46A542CED354
S3150800A6C013440844834238BF03469D42C7D8002E28
S3150800A6D0C5D0064B4AF6AA221A60064BF5221A601E
S3150800A6E0BDE71A46CDE700BF18130020003000402A
S3150800A6F000100240002C0040B9A5000810B5044619
S3150800A70009F0CAFC084B23600023C4E90433C4E9F2
S3150800A7100633E360236204F1240009F0BDFC034B11
S3150800A72063622463204610BD704F0208584F020822
S3150800A73000797047B0F9040070470B6808469B68B3
S3150800A74018478180012070470079704700207047BC
S3150800A75043685856704780687047002070474068BD
S3150800A76003681B6818470079704740687047836814
S3150800A7701A68914205D35B68994202D84160012064
S3150800A78070470020704713B50C4672B91A680DF168
S3150800A790070192681846904723689DF807105B687A
S3150800A7A0204602B0BDE810401847002002B010BD90
S3150800A7B010B51C4652B90B6808461B6898472368AB
S3150800A7C001469B6820469847012010BD0020FCE7FB
S3150800A7D073B51E460B6808469B6815460C4698478F
S3150800A7E0A8420FD933680DF107015B6830469847D0
S3150800A7F023689DF907205B682946204602B0BDE814
S3150800A80070401847002002B070BD70B51D460B6831
S3150800A81008469B6816460C469847B0420BD92368EB
S3150800A82031461B68204698472B6801465B682846D0
S3150800A8309847012070BD0020FCE713B50C4672B995
S3150800A8401A680DF1070192681846904723689DF823
S3150800A85007105B68204602B0BDE810401847002084
S3150800A86002B010BD10B51C4652B90B6808461B68E5
S3150800A8709847236801469B6820469847012010BDE3
S3150800A8800020FCE7B1F5803F10B50AD2026894882B
S3150800A8908BB29C4205D8D2889A4202D381600120A5
S3150800A8A010BD0020FCE708B54068FFF7EBFF08BDC0
S3150800A8B070B50D4616460446102009F0F5FD3346D8
S3150800A8C02A462146BDE8704009F070BF90F90C3061
S3150800A8D0934207DC90F90D30934203DB436801206D
S3150800A8E05A54704700207047436898687047436811
S3150800A8F01868704710B504680CB9204610BD606822
S3150800A90003681B6898470028F8D12468F4E710B54F
S3150800A91004462430FFF7EEFF30B104F12800FFF7B4
S3150800A920E9FF80F00100C0B210BD10B50446406BC7
S3150800A930436A24301B68984760B904F11C00FFF786
S3150800A9400EFF48B904F11400FFF709FF30B994F86F
S3150800A950440010BD0220FCE70420FAE70320F8E7CC
S3150800A96008B590F83C300344503093F9601093F8DA
S3150800A9706030042B03D8FFF7FAFE012008BD00213A
S3150800A980FFF7F5FE0020F9E7002380F87C3080F811
S3150800A990B03080F8B830A0F8C030012380F8A8306D
S3150800A9A0704738B50546406B0C460CF05DFE08B19D
S3150800A9B0B5F9C840204638BDF8B504463030FFF72B
S3150800A9C099FF10B1002384F87C302046FFF7C8FFB2
S3150800A9D0054630B104F12C00FFF78CFF80F0010525
S3150800A9E0EDB2294604F1840009F0B9FC35B1D4F872
S3150800A9F0843043BB94F87C5085F0010584F8B05048
S3150800AA002046FFF784FF94F87C5007460DB994F862
S3150800AA10B05004F10C00FFF7A2FE00BBAFB1012352
S3150800AA2084F8B83004F10C00FFF799FE78B975B9C7
S3150800AA300323B4F9C81084F8A8302046FFF7B1FFFD
S3150800AA40A4F8C000F8BD0025D8E784F8B85094F8F3
S3150800AA507C3053B1052384F8A8300021EDE70123A3
S3150800AA6084F8B830002FDDD1F1E794F8B0302BB177
S3150800AA700423B4F9D81084F8A830DEE794F8B800AF
S3150800AA8028B10223B4F9D01084F8A830D5E70123F9
S3150800AA9084F8A830D4E710B50446FFF746FF022825
S3150800AAA004BF002384F84430636B84F83C0093F8B1
S3150800AAB0FC3020461BB9BDE81040FFF77DBFBDE856
S3150800AAC01040FFF761BF00002DE9F74F04460191DA
S3150800AAD009F0E2FA5C4B5D4A23605D495D4B2362EF
S3150800AAE00025C4E90432C4E90632C4E91415019BF9
S3150800AAF0636304F14801A165574B5849A36321666E
S3150800AB00574B5849E260A166052204F16001C4E981
S3150800AB101B12C4E91E352364E264534BC4F8803023
S3150800AB2040F2FF42A4F874204FF4FA734F4AE563E3
S3150800AB30C4E90955C4E90B556564A56484F86450ED
S3150800AB40C4E9213304F18403C4E92323484AC4E948
S3150800AB502523484BC4F89C3004F18003C4F8A03080
S3150800AB60102009F0A1FC4449444B04F19C0209F069
S3150800AB701DFE434BC4F8A430424BC4F8AC30C4E9BC
S3150800AB802D35414BC4F8BC30404BC4F8C85064223C
S3150800AB90C4E93335C4E93535C4F8C430A4F8C82047
S3150800ABA0C4F8A850C4F8B050C4F8C050102009F032
S3150800ABB07BFC04F13802364B364909F0F7FD1020C4
S3150800ABC009F072FC04F168023349344B09F0EEFDD2
S3150800ABD0019B04F1B4061E62102009F065FC304B97
S3150800ABE03049324609F0E2FD04F1BC012E4A2F48ED
S3150800ABF0FFF75EFE04F1C4012B4A2D48FFF758FE05
S3150800AC0004F1D40704F1CC01274A2A48FFF750FE7D
S3150800AC103946254A2848FFF74BFE102009F044FC20
S3150800AC2004F178021E4B254909F0C0FD102009F0F1
S3150800AC303BFC234B234904F1A40209F0B7FD204647
S3150800AC4003B0BDE8F08F00BF1C500208B84F0208D9
S3150800AC50984F020800100020D84F02080001FF0292
S3150800AC60DC4B0208E84F0208745002088C4E0208B2
S3150800AC70884F0208C84F0208945002082C4E020852
S3150800AC80FC4F0208004F02080C4C02080C50020840
S3150800AC9070500208985002089C5002086C5002082E
S3150800ACA0244E0208A4500208304E0208A05002089A
S3150800ACB0905002088C5002088850020884500208F6
S3150800ACC0685002088050020838B50446006808B97A
S3150800ACD0204638BD0568082109F0F2FB2846F6E744
S3150800ACE00B4B10B5044640F8303BFFF7EDFF04F177
S3150800ACF02C00FFF7E9FF04F12800FFF7E5FF04F150
S3150800AD002400FFF7E1FF204609F0BDF9204610BDF3
S3150800AD101C50020810B50446FFF7E2FF2046DC2166
S3150800AD2009F0CEFB204610BD10B504460C3009F0DC
S3150800AD308CFB606903681B68984708B12369E36060
S3150800AD4010BD000010B5034B0360044609F09BF9DB
S3150800AD50204610BDC050020810B50446FFF7F2FFA2
S3150800AD602046282109F0ACFB204610BD4368D86868
S3150800AD7000B1187F7047000038B504460D4609F043
S3150800AD808BF90D4B23604FF416720023C4E9033286
S3150800AD90E3610A4BA36101232377094B6561C4E983
S3150800ADA00834102009F080FB064B074904F1180205
S3150800ADB009F0FCFC204638BDC0500208DC4B0208EE
S3150800ADC0B0500208244E0208D050020810B50446B6
S3150800ADD0C06803681B689847B4F91030B4F91220A4
S3150800ADE08342B8BF03461BB29342A8BF13464FF02F
S3150800ADF0640113FB01F393FBF2F3238310BD8088F0
S3150800AE00704700207047000010B5034B03600446E6
S3150800AE1009F039F9204610BDEC50020810B5044671
S3150800AE20FFF7F2FF20461C2109F04AFB204610BD19
S3150800AE3070B504460E46154609F02EF9054B2360F3
S3150800AE4000232382A361044BE66065826361204682
S3150800AE5070BD00BFEC500208DC50020810B504466D
S3150800AE60283009F0F2FA636A20469847606210BDF6
S3150800AE7038B5084B03600446006A20B9204609F035
S3150800AE8002F9204638BD0568082109F019FB28464D
S3150800AE90F3E700BF0451020810B50446FFF7E8FFC0
S3150800AEA02046302109F00CFB204610BD10B5D0E92C
S3150800AEB00340C36C4C301B689847D4E9013203EB56
S3150800AEC042029A42194605D0B1F90040844203F17C
S3150800AED00203F6D1501A18BF012010BD38B5C36851
S3150800AEE09C7805462CB90069C3691C301B689847CD
S3150800AEF004462846FFF7DAFF80F001002040C0B27A
S3150800AF0038BD036993F8F400C0F34000704710B5E4
S3150800AF100446FFF7F6FF28B92046FFF7DFFF10B90A
S3150800AF20246A0CB9002010BD606803681B6898473E
S3150800AF300028F8D12468F4E710B504468069E26869
S3150800AF40036851785B6898476069C36D01215B683F
S3150800AF505C309847004810BDC9AF000810B50446D4
S3150800AF60C069036801215B6898470F23C4E90A335F
S3150800AF70004810BDF5AF000810B50446806903689F
S3150800AF8000215B6898476069C36D00215B685C3087
S3150800AF909847E069036800215B6898470F23C4E96E
S3150800AFA00A33014810BD00BF19B0000810B50446A1
S3150800AFB0FFF7ADFF20B92046BDE81040FFF7DCBF1C
S3150800AFC0004810BDC9AF0008FFF7F0BF10B504462A
S3150800AFD0FFF79DFF20B92046BDE81040FFF7CCBF1C
S3150800AFE0A36A1BB92046FFF7A7FF10BD0048FCE778
S3150800AFF0F5AF0008FFF7EABF836A10B504463BB908
S3150800B000FFF785FF20B12046BDE81040FFF7A6BF31
S3150800B010004810BD19B00008FFF7EEBF70B504462A
S3150800B0200D46164609F038F8124B2360E6602846A6
S3150800B03004F068FD2061284604F0EAFA33784FF4F4
S3150800B040887202FB030000F527706061284604F049
S3150800B050DFFA00F21C50A061284604F0D9FA064A25
S3150800B060002300F5B160E061C4E909232362E362C5
S3150800B070204670BD0451020819B0000838B50446C8
S3150800B0800069C36E6C301B6898470546606903689B
S3150800B0901B689847854294BF0020012038BDA0F15F
S3150800B0A00C00FFF7EBBF0B6808469B681847436818
S3150800B0B033F81100704780687047000010B5044BDC
S3150800B0C003601C330446C36008F0DDFF204610BD4C
S3150800B0D01C51020810B50446FFF7F0FF2046182158
S3150800B0E009F0EEF9204610BDF8B51D460B6808466E
S3150800B0F09B6816460C469847B0420BD92B681F69C1
S3150800B100236831461B682046984701462846B847B3
S3150800B1100120F8BD0020FCE773B51E460B680846FB
S3150800B1209B6815460C469847A8420ED933680DF118
S3150800B13006011B69304698472368BDF806205B68F8
S3150800B14029462046984702B070BD0020FBE7838950
S3150800B150934207D8C389934204D34368012023F84E
S3150800B160112070470020704770B5846840682368CE
S3150800B1701D68836808301B6898472B460146204699
S3150800B180BDE87040184700002DE9F34716460D46FE
S3150800B1901F46044608F080FF1F4AD6F804901F4B46
S3150800B1A022601C32C4E90327B5F808A02F68D5F831
S3150800B1B004804FEA4905994594BF28464FF0FF3069
S3150800B1C009F074F9CDE900090544A84221D11020F7
S3150800B1D009F06AF903460546114A43F8042BDDE9E6
S3150800B1E0000183E80300C5F80C80102009F05CF91B
S3150800B1F00C4B2A46394609F0D9FA0C2009F054F9BD
S3150800B200094B8560C0E900366061204602B0BDE89A
S3150800B210F08720F802ABD8E71C510208FCFFFF3F75
S3150800B220485102087851020870510208B0F9040022
S3150800B23070470B6808469B6818474368585C704710
S3150800B240436801205A5470478068704710B5044B0C
S3150800B25003601C330446C36008F015FF204610BD82
S3150800B2609451020810B50446FFF7F0FF2046242142
S3150800B27009F026F9204610BDF8B51D460B680846A4
S3150800B2809B6816460C469847B0420BD92B681F6830
S3150800B290236831461B682046984701462846B84722
S3150800B2A00120F8BD0020FCE773B51E460B6808466A
S3150800B2B09B6815460C469847A8420ED933680DF187
S3150800B2C007011B683046984723689DF807205B6886
S3150800B2D029462046984702B070BD0020FBE710B506
S3150800B2E00446406903681B68984758B12069D0F836
S3150800B2F08C308C301B689847B4F91C308342D4BF15
S3150800B3000020012010BDA0F10C00FFF7E8BF70B5C2
S3150800B3108468406823681D68836808301B689847F6
S3150800B3202B4601462046BDE870401847B0F906305E
S3150800B3308B4206DCB0F908308B4202DB81800120A3
S3150800B34070470020704700002DE9F7430D461E465A
S3150800B3500446174608F0A0FE244A22601C32C4E9B7
S3150800B36003267E68D5F8008095F80490304609F0E3
S3150800B3709DF8CDE900060644864234D10C2009F032
S3150800B38093F8034606461A4A43F8042BDDE90001FA
S3150800B39083E80300102009F087F832464146154B2A
S3150800B3A009F004FA0C2009F07FF8134BB5F90C20C4
S3150800B3B0B5F910108660C0E900376061B5F90E303E
S3150800B3C00E48AD68A061A183E2832384102009F0AA
S3150800B3D06BF80B4B04F11802294609F0E7F92046E9
S3150800B3E003B0BDE8F08300F8019BC5E79451020855
S3150800B3F0C0510208F0510208E851020884510208B7
S3150800B400304E020810B504460069436914301B68BB
S3150800B410984738B92069C36D5C301B689847C0F3F4
S3150800B420C03010BD0020FCE7A0F10C00FFF7EABF12
S3150800B43010B5044B03601C330446C36008F023FEB2
S3150800B440204610BDFC51020810B50446FFF7F0FF70
S3150800B4502046142109F034F8204610BD38B50446B4
S3150800B4600D4608F019FE034B23601C33C4E9033567
S3150800B470204638BDFC51020810B504460069C36C65
S3150800B4804C301B689847D4E9053203EB42029A42CE
S3150800B490194605D0B1F90040844203F10203F6D1FA
S3150800B4A0501A18BF012010BDA0F10C00FFF7E4BF29
S3150800B4B010B5044B03601C330446C36008F0E3FD73
S3150800B4C0204610BD2852020810B50446FFF7F0FFC3
S3150800B4D020461C2108F0F4FF204610BD37B5044667
S3150800B4E00D468DE80C0008F0D7FD9DE80300054BD6
S3150800B4F02360C4E905011C332046C4E9033503B0BB
S3150800B50030BD00BF2852020890F8240080F00100E0
S3150800B5107047A0F10C00F7E710B5044B03601C3325
S3150800B5200446C36008F0AFFD204610BD5452020819
S3150800B53010B50446FFF7F0FF2046282108F0C0FFA3
S3150800B540204610BD70B504460069436F74301B6809
S3150800B55098470646606903681B6898470546A069C8
S3150800B56003681B689847AE4234BF00230123A27FB5
S3150800B570864288BF00239A4203D000226277A377C7
S3150800B58070BD637F217F994286BF0133637784F854
S3150800B5902420F5E72DE9F743D0F804801A4B0E6806
S3150800B5A0B1F808904F684FEA48040546984594BF95
S3150800B5B020464FF0FF3008F079FFCDE90008044433
S3150800B5C0A0421ED1102008F06FFF034604460F4A1A
S3150800B5D043F8042BDDE9000183E80300E760102047
S3150800B5E008F062FF0A4B2246314609F0DFF80C20C4
S3150800B5F008F05AFF074B8460C0E9003503B0BDE880
S3150800B600F08320F8029BDBE7FCFFFF3F4851020866
S3150800B6107851020870510208F8B504461F460D46CF
S3150800B620164608F039FD0D4A22601C32C4E9032784
S3150800B63029463046FFF7AEFF05F10C01606130463A
S3150800B640FFF7A8FF2B7E064A237763770023A061BE
S3150800B650A377226284F824302046F8BD54520208A3
S3150800B660004F020838B504460069C36C4C301B68A5
S3150800B67098470546606903681B6898478542ACBFCA
S3150800B6800020012038BDA0F10C00FFF7EBBF0B68C6
S3150800B69008469B681847436833F911007047806865
S3150800B6A07047000010B5044B03601C330446C360A2
S3150800B6B008F0E9FC204610BD8052020810B5044681
S3150800B6C0FFF7F0FF2046182108F0FAFE204610BDC5
S3150800B6D0F8B51D460B6808469B6816460C469847FB
S3150800B6E0B0420BD92B68DF68236831461B682046B1
S3150800B6F0984701462846B8470120F8BD0020FCE7D0
S3150800B70073B51E460B6808469B6815460C4698474F
S3150800B710A8420ED933680DF10601DB683046984712
S3150800B7202368BDF906205B6829462046984702B07B
S3150800B73070BD0020FBE770B58468406823681D6803
S3150800B740836808301B6898472B4601462046BDE8A3
S3150800B75070401847B0F90C30934208DCB0F90E3047
S3150800B760934204DB4368012023F811207047002028
S3150800B770704700002DE9F34716460D461F46044656
S3150800B78008F08AFC1F4AD6F804901F4B22601C3228
S3150800B790C4E90327B5F908A02F68D5F804804FEA4D
S3150800B7A04905994594BF28464FF0FF3008F07EFEBC
S3150800B7B0CDE900090544A84221D1102008F074FEFD
S3150800B7C003460546114A43F8042BDDE9000183E8E0
S3150800B7D00300C5F80C80102008F066FE0C4B2A46BC
S3150800B7E0394608F0E3FF0C2008F05EFE094B856039
S3150800B7F0C0E900366061204602B0BDE8F08720F84F
S3150800B80002ABD8E780520208FCFFFF3FAC520208A1
S3150800B810DC520208D4520208807E7047807B70474B
S3150800B82038B50446406903681B6898470546206989
S3150800B83003681B68984718B1237E23B145B9607E13
S3150800B840A076657638BD2DB1607E80F00100F7E7F9
S3150800B8500020F5E72846F3E710B5044B03601C33D0
S3150800B8600446C36008F00FFC204610BDE8520208E3
S3150800B87010B50446FFF7F0FF20461C2108F020FE0D
S3150800B880204610BD2DE9F34717460E46044698464E
S3150800B89008F002FC1C4B7D6823601C332846E360D5
S3150800B8A0D6F8049096F808A008F000FECDE9000541
S3150800B8B00544854225D10C2008F0F6FD03460546C9
S3150800B8C0124A43F8042BDDE9000183E8030010203F
S3150800B8D008F0EAFD0E4B2A46494608F067FF0C2099
S3150800B8E008F0E2FD0B4B8560C0E900373378237614
S3150800B8F0C4E90408002320466376A37602B0BDE8AF
S3150800B900F08700F801ABD4E7E8520208C0510208F4
S3150800B910F0510208E851020890F8280080F001006A
S3150800B9207047A0F10C00F7E710B5044B03601C3311
S3150800B9300446C36008F0A7FB204610BD145302084E
S3150800B94010B50446FFF7F0FF20462C2108F0B8FD95
S3150800B950204610BDF8B50446806903681B689847F9
S3150800B9600646E06903681B6898470546A0690368A8
S3150800B9701B6898470746606903681B689847BD4275
S3150800B98028BF3D46ADB2002808BF35462069036882
S3150800B9901B68984794F82230A84234BF002001203B
S3150800B9A0984205D0002384F8213084F82200F8BD97
S3150800B9B094F8213094F820209A4286BF013384F8FF
S3150800B9C0213084F82800F2E7F8B504460D461646F5
S3150800B9D01F4608F061FB104A069B22601C32C4E928
S3150800B9E00327636129463046FFF7D4FD05F10C01AC
S3150800B9F0A0613046FFF7CEFD2B7E084A84F820303A
S3150800BA0084F821300023E06184F82230626284F8E9
S3150800BA1028302046F8BD00BF14530208004F02081C
S3150800BA2073B54368ADF80610A3B1046803F1804303
S3150800BA30B4F90050013BA94204EB830634F92330DC
S3150800BA40BABF294622460DF106028B42B8BF3246D6
S3150800BA50B2F900100181012002B070BD08B5406836
S3150800BA60FFF7DEFF012008BD074B10B5044603604B
S3150800BA70C06818B16169091A08F022FD204608F065
S3150800BA8002FB204610BD00BF8853020810B50446C5
S3150800BA90FFF7EAFF2046502108F012FD204610BDA8
S3150800BAA0B0F91030934209DCB0F91230934205DB45
S3150800BAB0036803EB810301205A8070470020704712
S3150800BAC04368B3F9080070474368D3E90030C01AE1
S3150800BAD0801070474368D3E90030C01A8010704759
S3150800BAE043681B6803EB8103B3F902007047436898
S3150800BAF01B6833F92100704708B54068FFF7D0FF87
S3150800BB0008BDB0F90C30934210B517DCB0F90E3009
S3150800BB10934213DB046804EB810324F8212041686F
S3150800BB2004330431994201D1012010BD33F9040CC4
S3150800BB309042B8BF23F8042C0433F3E70020F4E757
S3150800BB4008B54068FFF7DDFF08BD000070B504467C
S3150800BB5026460D4608F0A0FA324B46F80C3B402024
S3150800BB6008F0A2FC00F14002E06062610346002191
S3150800BB701980598004339A42FAD14FF096632261AC
S3150800BB804FF0FA62C4E90623274B284AC4E9083667
S3150800BB90274BC4E90A36031D4430118823F8041CD0
S3150800BBA0518823F8021C0433834202F10402F4D1BB
S3150800BBB0102008F079FC04F120021E4B1E490646A7
S3150800BBC008F0F4FD304608F053FD102008F06CFC30
S3150800BBD004F12802174B1949064608F0E7FD3046D6
S3150800BBE008F046FDD4E903135B1A9B10C4E90C134D
S3150800BBF000232387124B134804F13002C4E90F329D
S3150800BC00114B2946C4E911320CF00AFAE0641020F7
S3150800BC1008F04AFC0D4B0E4904F13C0208F0C6FD3B
S3150800BC20204670BD885302084053020898530208FC
S3150800BC3054530208DC520208205402080054020831
S3150800BC4068530208D853020878530208304E02088F
S3150800BC50FC530208F0B585B0CDE9020100EB810579
S3150800BC6041F31D030446002B06DCAC4211D134F91E
S3150800BC70023C184605B0F0BD591004EB810634F9AC
S3150800BC8021709742DEBF591A01F1FF31341D0B4668
S3150800BC90E9E7A042B4F90230EBD0B4F9005034F920
S3150800BCA0021C34F9040C00922A4608F01CFC03B264
S3150800BCB0DFE708B543682BB1B0F9082003C8FFF7DA
S3150800BCC0C9FF08BD1846FCE708B54068FFF7F1FF4D
S3150800BCD008BDC36C70B503F164055B6E44305C68DF
S3150800BCE0FFF7F2FF234601462846BDE8704018478D
S3150800BCF0074B10B504460360C06818B16169091A94
S3150800BD0008F0DEFB204608F0BEF9204610BD00BF4D
S3150800BD104854020810B50446FFF7EAFF20465021AA
S3150800BD2008F0CEFB204610BD70B5044626460D46E3
S3150800BD3008F0B2F9324B46F80C3B402008F0B4FB49
S3150800BD4000F14002E06062610346002119805980D3
S3150800BD5004339A42FAD14FF0966322614FF0FA62A1
S3150800BD60C4E90623274B284AC4E90836274BC4E901
S3150800BD700A36031D4430118823F8041C518823F819
S3150800BD80021C0433834202F10402F4D1102008F0A5
S3150800BD908BFB04F120021E4B1E49064608F006FDE1
S3150800BDA0304608F065FC102008F07EFB04F12802F6
S3150800BDB0174B1949064608F0F9FC304608F058FCB6
S3150800BDC0D4E903135B1A9B10C4E90C1300232387D9
S3150800BDD0124B134804F13002C4E90F32114B2946BD
S3150800BDE0C4E911320CF01CF9E064102008F05CFB81
S3150800BDF00D4B0E4904F13C0208F0D8FC204670BDF4
S3150800BE0048540208405302087C5402085453020856
S3150800BE10DC5202082054020800540208685302083B
S3150800BE205854020878530208304E0208FC53020898
S3150800BE30C36C70B503F164055B6E44305C68FFF74C
S3150800BE4043FF234601462846BDE8704018470000D0
S3150800BE50074B10B504460360C06818B16169091A32
S3150800BE6008F02EFB204608F00EF9204610BD00BF4C
S3150800BE70C454020810B50446FFF7EAFF20465021CD
S3150800BE8008F01EFB204610BD70B5044626460D4632
S3150800BE9008F002F9324B46F80C3B402008F004FB48
S3150800BEA000F14002E0606261034600211980598072
S3150800BEB004339A42FAD14FF0966322614FF0FA6240
S3150800BEC0C4E90623274B284AC4E90836274BC4E9A0
S3150800BED00A36031D4430118823F8041C518823F8B8
S3150800BEE0021C0433834202F10402F4D1102008F044
S3150800BEF0DBFA04F120021E4B1E49064608F056FCE2
S3150800BF00304608F0B5FB102008F0CEFA04F12802F6
S3150800BF10174B1949064608F049FC304608F0A8FBB5
S3150800BF20D4E903135B1A9B10C4E90C130023238777
S3150800BF30124B134804F13002C4E90F32114B29465B
S3150800BF40C4E911320CF06CF8E064102008F0ACFA81
S3150800BF500D4B0E4904F13C0208F028FC204670BD42
S3150800BF60C454020840530208D45402085453020821
S3150800BF70DC520208205402080054020868530208DA
S3150800BF801455020878530208304E0208FC5302087A
S3150800BF90C36C70B503F164055B6E44305C68FFF7EB
S3150800BFA093FE234601462846BDE870401847000020
S3150800BFB0074B10B504460360C06818B16169091AD1
S3150800BFC008F07EFA204608F05EF8204610BD00BF4D
S3150800BFD04055020810B50446FFF7EAFF20465021EF
S3150800BFE008F06EFA204610BD70B5044626460D4682
S3150800BFF008F052F8324B46F80C3B402008F054FA49
S3150800C00000F14002E0606261034600211980598010
S3150800C01004339A42FAD14FF0966322614FF0FA62DE
S3150800C020C4E90623274B284AC4E90836274BC4E93E
S3150800C0300A36031D4430118823F8041C518823F856
S3150800C040021C0433834202F10402F4D1102008F0E2
S3150800C0502BFA04F120021E4B1E49064608F0A6FBE1
S3150800C060304608F005FB102008F01EFA04F12802F5
S3150800C070174B1949064608F099FB304608F0F8FAB6
S3150800C080D4E903135B1A9B10C4E90C130023238716
S3150800C090124B134804F13002C4E90F32114B2946FA
S3150800C0A0C4E911320BF0BCFFE064102008F0FCF97B
S3150800C0B00D4B0E4904F13C0208F078FB204670BD92
S3150800C0C040550208405302085055020854530208C6
S3150800C0D0DC52020820540208005402086853020879
S3150800C0E09055020878530208304E0208FC5302089D
S3150800C0F0C36C70B503F164055B6E44305C68FFF78A
S3150800C100E3FD234601462846BDE87040184700006F
S3150800C110074B10B504460360C06818B16169091A6F
S3150800C12008F0CEF9204607F0AEFF204610BD00BF46
S3150800C130BC55020810B50446FFF7EAFF2046502111
S3150800C14008F0BEF9204610BD70B5044626460D46D1
S3150800C15007F0A2FF324B46F80C3B402008F0A4F942
S3150800C16000F14002E06062610346002119805980AF
S3150800C17004339A42FAD14FF0966322614FF0FA627D
S3150800C180C4E90623274B284AC4E90836274BC4E9DD
S3150800C1900A36031D4430118823F8041C518823F8F5
S3150800C1A0021C0433834202F10402F4D1102008F081
S3150800C1B07BF904F120021E4B1E49064608F0F6FAE2
S3150800C1C0304608F055FA102008F06EF904F12802F6
S3150800C1D0174B1949064608F0E9FA304608F048FAB6
S3150800C1E0D4E903135B1A9B10C4E90C1300232387B5
S3150800C1F0124B134804F13002C4E90F32114B294699
S3150800C200C4E911320BF00CFFE064102008F04CF979
S3150800C2100D4B0E4904F13C0208F0C8FA204670BDE1
S3150800C220BC55020840530208CC550208545302086C
S3150800C230DC52020820540208005402086853020817
S3150800C2400C56020878530208304E0208FC530208BE
S3150800C250C36C70B503F164055B6E44305C68FFF728
S3150800C26033FD234601462846BDE87040184770B599
S3150800C270064603F047FC0446A82008F015F931469F
S3150800C28005460FF0C1FD294604F1C000BDE870401F
S3150800C29007F036BF10B5034B0360044607F0F3FEFC
S3150800C2A0204610BD3856020810B50446FFF7F2FFBF
S3150800C2B020466C2108F004F9204610BD10B5034B42
S3150800C2C00360044607F0DFFE204610BD50560208FC
S3150800C2D010B50446FFF7F2FF20463C2108F0F0F8B7
S3150800C2E0204610BD10B5034B03600446FFF7E6FF72
S3150800C2F0204610BD7856020810B50446FFF7F2FF2F
S3150800C3002046442108F0DCF8204610BDC268B0F982
S3150800C310203073B5B2F948100B44B0F93C108B4283
S3150800C320CCBF01230023044680F8603003DD9088E3
S3150800C330A08202B070BD806903681B689847E368ED
S3150800C340B3F93A10B4F93C30194488420546B4BFEB
S3150800C3500021012104F1440008F001F8E368B4F96A
S3150800C3602010B3F922302B448B42CCBF0021012187
S3150800C37004F1280007F0F3FFB4F92060B4F93C0093
S3150800C380E36894F85820D9891B8AB542B8BF354660
S3150800C3902DB28542A8BF0546009522B90246304609
S3150800C3A008F0A1F8C4E73246FAE770B50D46164616
S3150800C3B00446102008F078F833462A462146BDE898
S3150800C3C0704008F0F3B910B500210446283007F08C
S3150800C3D0C0FF002104F1440007F0BBFF002384F8E6
S3150800C3E06030E3689B88A38210BD08B5FFF7EBFFB2
S3150800C3F008BD10B50446FFF7E6FF626E9389013360
S3150800C4009381A26E93890133938110BD08B5406864
S3150800C410FFF7EFFF08BDF8B5054610200E4617468C
S3150800C42008F042F83B4604463246294608F0BEF96B
S3150800C4302046F8BDD0E906239B1A5810002BB8BF32
S3150800C4400B30704770B504461430FFF7F3FF00222F
S3150800C45004F12A01904208D1002304F12A051E4658
S3150800C4609A420BD10023238770BDE36A02338B42BD
S3150800C47002D2E3620132EDE7163BF8E7206B811C36
S3150800C480A94203D2068001332163E9E71639F7E7A3
S3150800C490406808B50430FFF7CDFF80B208BD38B54F
S3150800C4A0D0E90632002400F116019A4205D1FFF7B9
S3150800C4B0C1FFB4FBF0F080B238BD33F8025B2C4400
S3150800C4C08B42F2D3163BFBE710B50446C0680368F7
S3150800C4D01B689847236B04F11402023B9A420BD857
S3150800C4E02363E36A023B9A4208D81880E36210463F
S3150800C4F0FFF7D5FF208710BD1633EFE71633F2E7AF
S3150800C5000A29F8B528BF0A21071D01290446384615
S3150800C5100D46164638BF0125FFF78CFF2A1A114625
S3150800C52004F11A0C00290EDB002AA0EB0500C8BF8F
S3150800C5300020104404F11A0570B91AB13846FFF7FD
S3150800C540AEFF2085F8BDE3690233634502D2E36195
S3150800C5500131E7E7163BF8E7216A8B1CAB4203D2A9
S3150800C5600E8001382362E7E7163BF7E72DE9F04F1F
S3150800C5708DB005460068049103F0C4FA834628681E
S3150800C580DFF890A1644F03F043F881466C2007F06A
S3150800C5908BFF044604F1100607F07EFD5F4B23600F
S3150800C5A04FF0000809F58073C4F80CA041F28839E9
S3150800C5B0C6F80480A3615A4BE361C4F82090A4F836
S3150800C5C024900AF12401276104F1280008F07CFD73
S3150800C5D0534BA4F84090C4E90E380AF13C0104F123
S3150800C5E0440008F071FD4F4B6365C4F85880022279
S3150800C5F041F2017104F15C0004F1380808F028FDE5
S3150800C600494A4A484146FFF706FF04F11C09464ACB
S3150800C610606649464648FFF7FEFE464AA06631462A
S3150800C6204548FFF7C2FEA1693F4A4448FFF7F3FEB3
S3150800C630E368D96C49B11020059107F035FF404BE6
S3150800C640059904F1540208F0B1F821460BF1C0002F
S3150800C65007F056FD286803F055FAA369CDF824803B
S3150800C660CDE90739374B82464820CDE90A3407F029
S3150800C6701BFF0CAB044613E90F008DE80F00079B60
S3150800C680049A3149204609F04BF921460AF1C000BF
S3150800C69007F036FD286803F035FA8046442007F08F
S3150800C6A003FF044607F0F8FC284B2360E6601622D1
S3150800C6B0002104F1140012F0EDFB04F1100600222B
S3150800C6C0C4E90B00C4E90D7230460A21FFF718FFCA
S3150800C6D004F13401174A1E48FFF767FE1D4B236015
S3150800C6E01D4B144A1D48C4E90F3604F13C01FFF7F7
S3150800C6F05CFE214608F1C00007F002FD0D4A184805
S3150800C70004F13401FFF751FE04F134000DB0BDE821
S3150800C710F08F00BF88560208DC5002083856020817
S3150800C72084510208DC4B0208304E02080C570208F6
S3150800C73010570208204E020800570208F856020849
S3150800C740244E02080DC40008D8560208505602089E
S3150800C750FC56020878560208685602080857020866
S3150800C760045702080A2908B505D840680022FFF7C9
S3150800C770C7FE012008BD0020FCE703685B68184770
S3150800C78070B5D0E90334226855681A6818461268E5
S3150800C79090472B4601462046BDE8704018470000E2
S3150800C7A010B5034B0360044607F06DFC204610BD28
S3150800C7B02457020810B50446FFF7F2FF20461C214D
S3150800C7C007F07EFE204610BD10B5034B03600446F5
S3150800C7D007F059FC204610BD5457020810B5044608
S3150800C7E0FFF7F2FF2046142107F06AFE204610BD27
S3150800C7F010B5034B0360044607F045FC204610BD00
S3150800C8003C57020810B50446FFF7F2FF20461C21E4
S3150800C81007F056FE204610BDF8B5054614200F460B
S3150800C820164607F041FE044607F036FC054B236022
S3150800C830C4E90376214605F1C000BDE8F84007F0D3
S3150800C8405FBC00BF5457020803F05CB938B504460C
S3150800C85008200D4607F028FE23684560036020601F
S3150800C86038BD000070B50546006802F0D1FE0646E0
S3150800C8701C2007F019FE044607F00EFC0F4B236038
S3150800C8804FF47A720023E28106F5A5660C4AA38165
S3150800C8902376626128682661FFF7D6FF696804F186
S3150800C8A01402AC31FFF7B8FF2868FFF7CDFF214621
S3150800C8B0C030BDE8704007F023BC00BF245702080B
S3150800C8C0DC4B020870B50446006802F0A1FE064675
S3150800C8D0282007F0E9FD06F5AB61C822054609F0F0
S3150800C8E031FB2068FFF7B0FF616805F11802403197
S3150800C8F0FFF792FF2068FFF7A7FF616805F11002AE
S3150800C9007831FFF789FF2068FFF79EFF2946C03078
S3150800C910BDE8704007F0F4BB2DE9F0410446D0E9C4
S3150800C9200006FFF791FF62680746206802F148058E
S3150800C930FFF78AFF8046282007F0B6FD43460446DF
S3150800C9402A460849FEF768FE214607F1C00007F0A7
S3150800C950D7FB04F10C0106F12C00FFF777FFBDE8C1
S3150800C960F08100BFB85702082DE9F0410546006876
S3150800C970FFF76AFF6A680746286802F14806FFF764
S3150800C98063FF8046182007F08FFD4346044632466B
S3150800C9900B49FEF7F9FB214607F1C00007F0B0FB8B
S3150800C9A06D6804F10C0105F12C00FFF74FFF04F147
S3150800C9B00C0105F13000FFF749FFBDE8F08100BF23
S3150800C9C0AC5702082DE9F0410446D0E90006FFF706
S3150800C9D03BFF62680746206802F14805FFF734FF07
S3150800C9E08046182007F060FD434604462A46084953
S3150800C9F0FEF7C0FE214607F1C00007F081FB04F1EF
S3150800CA000C0106F12C00FFF721FFBDE8F08100BFFD
S3150800CA10A05702082DE9F7430446D0E90007FFF7B7
S3150800CA2013FF62688046206802F14805FFF70CFF8D
S3150800CA3081462C20646807F037FDAC34064609F5B4
S3150800CA40E4732A4608490094FEF7BEFF314608F10A
S3150800CA50C00007F055FB06F10C0107F12C00FFF7A3
S3150800CA60F5FE03B0BDE8F0838457020870B50546A5
S3150800CA70006802F0CDFD00F58D642868FFF7E4FE36
S3150800CA808462102007F010FD2246034B0349BDE8D7
S3150800CA90704007F08BBE00BF244E020800580208FB
S3150800CAA0F7B505460068FFF7CFFE06462868FFF784
S3150800CAB0CBFE07461C2007F0F7FC0F4B0093032319
S3150800CAC00193DDE9002304463946FEF707FD2146B2
S3150800CAD006F1C00007F014FB6D6804F10C0105F1BE
S3150800CAE02C00FFF7B3FE04F10C0105F13000FFF747
S3150800CAF0ADFE03B0F0BD00BFD4570208F8B5044632
S3150800CB00D0E90005FFF7A0FE06462068FFF79CFE61
S3150800CB100746142007F0C8FC39460446FEF79EFC73
S3150800CB20214606F1C00007F0EBFA04F10C0105F105
S3150800CB302C00FFF78BFEF8BD2DE9F041044600688E
S3150800CB40FFF782FE62680746206802F14805FFF78C
S3150800CB507BFE8046242007F0A7FC434606462A4665
S3150800CB600749FEF7F1FB314607F1C00007F0C8FA9E
S3150800CB70606806F10C013030FFF768FEBDE8F08109
S3150800CB80705702082DE9F041044600688846FFF709
S3150800CB905BFE626807461C2002F1480507F084FC24
S3150800CBA0434606462A460849FEF76CFE314607F113
S3150800CBB0C00007F0A5FA606806F10C013030FFF7EF
S3150800CBC045FEBDE8F08100BF645702084368196155
S3150800CBD0704743689961704743681962704708B59A
S3150800CBE040682430FFF732FE08BD08B54068283093
S3150800CBF0FFF72CFE08BDF7B5044600688DE8060069
S3150800CC00FFF722FE06462068FFF71EFE07461C2091
S3150800CC1007F04AFC9DE80C0005463946FEF75EFC1F
S3150800CC20294606F1C00007F06BFA05F10C0120460B
S3150800CC3003B0BDE8F040FFF7D8BF00002DE9F74381
S3150800CC4005460846296801920BF0EAF9064628685F
S3150800CC50FFF7FAFD07461C20BDF90490BDF90680CA
S3150800CC6007F022FC044607F017FA134B2360134B10
S3150800CC7063616436002323762661A4F80C90A4F831
S3150800CC800E80214607F1C00007F03AFA2868FFF738
S3150800CC90DBFD06462868FFF7D7FD143400F11C01B2
S3150800CCA022463046FFF7B8FD2868FFF7CDFD8461B8
S3150800CCB003B0BDE8F08300BF3C570208DC4B02080E
S3150800CCC02DE9F8430446006888469146FFF7BCFDFF
S3150800CCD006462068FFF7B8FD07464FF48C7007F044
S3150800CCE0E3FB4B460546424639460DF01DFE2946EE
S3150800CCF006F1C00007F004FA702007F0D5FB0646D7
S3150800CD002068FFF7A1FD05F1BC0100F19402304649
S3150800CD100DF0E4F963682068BC3368362B61AE61B0
S3150800CD20FFF792FD06462068FFF78EFD0746D820D6
S3150800CD3007F0BAFB3946044605F134020CF0FCFF4D
S3150800CD40214606F1C000BDE8F84307F0D9B910B589
S3150800CD5004460068FFF78BFA204610BD2DE9FF410F
S3150800CD60044601600846FFF76FFD06462068FFF790
S3150800CD706BFD0746DC2007F097FB39460546FDF7AD
S3150800CD80A3FE294606F1C00007F0BAF965602068D7
S3150800CD9002F03EFCD0F8503406465B68002100F5E8
S3150800CDA08A609847274A51681068128901AB03C3FD
S3150800CDB020681A804FF096730193FFF745FD0746E2
S3150800CDC0782007F071FB01AA054606F22C4109F006
S3150800CDD005F8294607F1C00007F092F92068FFF721
S3150800CDE033FD62680746142002F1400607F05CFB33
S3150800CDF03246804605F1340109F05EF8414607F1EE
S3150800CE00C00007F07DF92068FFF71EFD6268074637
S3150800CE10142002F1780607F047FB3246804605F1F2
S3150800CE201C0109F049F8414607F1C00007F068F906
S3150800CE302046FFF717FD2046FFF744FD204604B0BD
S3150800CE40BDE8F0810458020803460069197E0268A5
S3150800CE50526811B1B3F90E101047B3F90C10FBE77D
S3150800CE6008B5FFF7F1FF08BD08B5FFF7EDFF08BDE8
S3150800CE7003460069197E0268526809B1D9891047C4
S3150800CE809989FCE708B5FFF7F3FF08BD08B5FFF772
S3150800CE90EFFF08BD70474368084618472DE9F74372
S3150800CEA0814602F02FFE0646484602F0BDFB00F515
S3150800CEB06875382007F0F8FA06F1C00407462946CF
S3150800CEC00EF046FC3946204607F01AF9382007F0D6
S3150800CED0EBFA294680460EF067FD4146204608F1E2
S3150800CEE0300807F00DF9C6F860801C2007F0DCFA58
S3150800CEF04FF49A7207464146FDF79AFF394620468F
S3150800CF00143707F0FDF8B767C6F88070102007F0E9
S3150800CF10CBFA3A46654B664907F048FC382007F0D5
S3150800CF20C3FA294607460EF079FD394620463037BA
S3150800CF3007F0E6F8C6F89070382007F0B5FA2946E3
S3150800CF4007460EF0DFFD39462046303707F0D8F899
S3150800CF50C6F89870382007F0A7FA294607460EF053
S3150800CF600BFE39462046303707F0CAF8C6F8A070D7
S3150800CF70382007F099FA294607460EF037FE394653
S3150800CF802046303707F0BCF8B762382007F08CFA2D
S3150800CF90294607460EF072FC39462046303707F018
S3150800CFA0AFF83761382007F07FFA294607460EF0B2
S3150800CFB009FC39462046303707F0A2F8376738208B
S3150800CFC007F072FA294607460EF062FD39462046F2
S3150800CFD007F096F8382007F067FA294607460EF054
S3150800CFE08BFC3946204607F08BF849466846FFF71A
S3150800CFF0B5FE6846FFF7B8FC6846FFF78DFC68463D
S3150800D000FFF7E0FC6846FFF74BFD6846FFF702FDB1
S3150800D0106846FFF791FD4C2007F046FA2946074671
S3150800D0200EF050FE3946204607F06AF807F1200848
S3150800D030102007F039FA42461E4B1F4907F0B6FB87
S3150800D04007F12805102007F02FFA1A4B1B492A4624
S3150800D05007F0ACFB07F13C01C6F85080356368461B
S3150800D060FFF7B4FD502007F01FFA49460546FEF7BC
S3150800D0706DFD302007F018FA114A06464946FDF7B5
S3150800D080CDFF3146204607F03BF805F13C026846DD
S3150800D0900C49FFF715FE2946204607F031F8684681
S3150800D0A0FFF755FE03B0BDE8F08300BF204E020827
S3150800D0B004570208304E0208885802088C5802089D
S3150800D0C0605802086C5802082DE9F04F85B0894669
S3150800D0D0074602F017FD0546384602F099FA8246D9
S3150800D0E0384602F0A1FA00F56876382007F0DCF930
S3150800D0F005F1C004804631460FF0CEFA4146204677
S3150800D10006F0FEFF382007F0CFF9314683460FF0C8
S3150800D11075FB594620460BF1300B06F0F1FFC5F8B2
S3150800D12060B01C2007F0C0F94FF49A728046594641
S3150800D130FDF77EFE4146204608F1140806F0E0FF9A
S3150800D140C5F87880C5F88080102007F0ADF942460A
S3150800D1506C4B6D4907F02AFB382007F0A5F93146D4
S3150800D16080460FF085FB4146204606F0C9FF08F1C8
S3150800D1703003C5F89030642007F096F90AF5147262
S3150800D1808046624908F080FA4146204606F0B8FF14
S3150800D19008F14C03C5F89830382007F085F9314670
S3150800D1A080460FF04BFC4146204606F0A9FF08F1E1
S3150800D1B03003C5F8A030B9F1000F0DD0382007F0BC
S3150800D1C073F9314680460FF08DFB4146204606F03E
S3150800D1D097FF08F13003AB62382007F065F931464E
S3150800D1E080460FF0CDFA4146204606F089FF08F141
S3150800D1F030032B61382007F057F9314680460FF087
S3150800D20085FA4146204606F07BFF08F130032B6776
S3150800D21039466846FFF7A2FD6846FFF7A5FB68464C
S3150800D220FFF77AFB6846FFF7CDFB6846FFF738FC41
S3150800D2306846FFF7EFFB6846FFF77EFC482007F0D5
S3150800D24033F9314680460FF0C1FB4146204606F0C9
S3150800D25057FF08F12009102007F026F94A462C4BFB
S3150800D2602C4907F0A3FA08F12806102007F01CF944
S3150800D2703246274B284907F099FA102007F014F987
S3150800D28008F14002254B264907F090FA08F14001BB
S3150800D2906846FFF777FCC5F850902E6308F1380109
S3150800D2A06846FFF79CFC1F4B029301230393DDE9B5
S3150800D2B002126846FFF79FFC502007F0F5F839463A
S3150800D2C00546FEF7E1FD302007F0EEF8164A064659
S3150800D2D03946FDF7A3FE3146204606F011FF05F153
S3150800D2E03C0268461149FFF7EBFC2946204606F042
S3150800D2F007FF3846FEF7BBFF6846FFF728FD05B06F
S3150800D300BDE8F08F204E0208045702081071020883
S3150800D310304E0208885802088C580208244E020823
S3150800D320145902081059020804590208F458020848
S3150800D3300121FFF7C9BE0021FFF7C6BE2DE9FF4749
S3150800D340074602F0DFFB0546384602F061F98146DA
S3150800D350384602F069F900F56876382007F0A4F82F
S3150800D36005F1C004804631460FF096F9414620463D
S3150800D37006F0C6FE382007F097F8314682460FF0C9
S3150800D3803DFA514620460AF1300A06F0B9FEC5F8BC
S3150800D39060A01C2007F088F84FF49A728046514620
S3150800D3A0FDF746FD4146204608F1140806F0A8FE9A
S3150800D3B0C5F87880C5F88080102007F075F84246D1
S3150800D3C06B4B6C4907F0F2F9382007F06DF83146D7
S3150800D3D080460FF04DFA4146204606F091FE08F1C8
S3150800D3E03003C5F89030642007F05EF809F514722A
S3150800D3F08046614908F048F94146204606F080FE15
S3150800D40008F14C03C5F89830382007F04DF8314636
S3150800D41080460FF013FB4146204606F071FE08F1E0
S3150800D4203003C5F8A030382007F03EF8314680466C
S3150800D4300FF058FA4146204606F062FE08F130031E
S3150800D440AB62382007F030F8314680460FF098F97D
S3150800D4504146204606F054FE08F130032B61382079
S3150800D46007F022F8314680460FF050F9414620462B
S3150800D47006F046FE08F130032B6739466846FFF783
S3150800D4806DFC6846FFF770FA6846FFF745FA684686
S3150800D490FFF798FA6846FFF703FB6846FFF7BAFAFC
S3150800D4A06846FFF749FB482006F0FEFF31468046EE
S3150800D4B00FF08CFA4146204606F022FE08F12009B4
S3150800D4C0102006F0F1FF4A462C4B2D4907F06EF95D
S3150800D4D008F12806102006F0E7FF3246274B2949AF
S3150800D4E007F064F9102006F0DFFF08F14002264B2A
S3150800D4F0264907F05BF908F140016846FFF742FB49
S3150800D500C5F850902E6308F138016846FFF767FBA7
S3150800D5101F4B029301230393DDE902126846FFF7C6
S3150800D5206AFB502006F0C0FF39460546FEF70CFE9A
S3150800D530302006F0B9FF174A06463946FDF76EFD54
S3150800D5403146204606F0DCFD05F13C0268461249E4
S3150800D550FFF7B6FB2946204606F0D2FD3846FEF709
S3150800D56086FE6846FFF7F3FB04B0BDE8F08700BF08
S3150800D570204E020804570208D8700208304E0208E6
S3150800D580885802088C580208244E020814590208C2
S3150800D59010590208685902087C5902082DE9FF4704
S3150800D5A0804602F041F800F56875404602F0AAFA8E
S3150800D5B00646382006F078FF06F1C00407462946D5
S3150800D5C010F0A4F83946204606F09AFD382006F0F1
S3150800D5D06BFF2946814610F04BF94946204609F16A
S3150800D5E0300906F08DFDC6F860901C2006F05CFF39
S3150800D5F04FF49A7207464946FDF71AFC3946204603
S3150800D600143706F07DFDB767C6F88070102006F05F
S3150800D6104BFF3A46764B774907F0C8F8382006F0AC
S3150800D62043FF2946074610F05DF93946204630374C
S3150800D63006F066FDC6F89070382006F035FF2946D4
S3150800D640074610F089F939462046303706F058FD66
S3150800D650C6F89870382006F027FF2946074610F0C6
S3150800D660B5F939462046303706F04AFDC6F8A070A7
S3150800D670382006F019FF2946074610F0E1F9394621
S3150800D6802046303706F03CFDB762382006F00CFF1E
S3150800D6902946074610F0AEF839462046303706F0D8
S3150800D6A02FFD3761382006F0FFFE2946074610F0A1
S3150800D6B067F839462046303706F022FD4146376777
S3150800D6C06846FFF74BFB6846FFF74EF96846FFF7D3
S3150800D6D023F96846FFF712FA6846FFF773F96846B2
S3150800D6E0FFF7DEF96846FFF795F96846FFF724FA6B
S3150800D6F04C2006F0D9FE2946074610F029FA394685
S3150800D700204606F0FDFC07F1200A102006F0CCFEA4
S3150800D7105246394B394907F049F807F128091020CC
S3150800D72006F0C2FE4A46344B354907F03FF8C6F8BC
S3150800D73050A0C6F8309007F13C016846FFF746FA54
S3150800D74007F144016846FFF74AFA2E4B0293012374
S3150800D7500393DDE902126846FFF74DFA402006F00A
S3150800D760A3FE2946064610F04DFA3146204606F035
S3150800D770C7FC06F12005102006F096FE2A46224B25
S3150800D780224907F013F8102006F08EFE1E4B20499A
S3150800D79006F1300207F00AF829466846FFF7F2F95B
S3150800D7A006F130016846FFF714FA502006F07CFEB1
S3150800D7B041460546FEF718FC302006F075FE154A68
S3150800D7C006464146FDF72AFC3146204606F098FCF7
S3150800D7D005F13C0268461049FFF772FA29462046C9
S3150800D7E006F08EFC6846FFF7B2FA04B0BDE8F0878B
S3150800D7F0204E020804570208304E020888580208CC
S3150800D8008C58020810590208244E020814590208B6
S3150800D810F8590208EC590208DC5902082DE9FF47B5
S3150800D820074601466846FFF799FA384601F0FCFEB6
S3150800D83000F56874384602F065F90546382006F0A2
S3150800D84033FE05F1C006804621460FF049FC4146E5
S3150800D850304606F055FC382006F026FE214681465D
S3150800D8600FF02AFD4946304609F1300906F048FC12
S3150800D870C5F860901C2006F017FE4FF49A72804691
S3150800D8804946FDF7D5FA4146304608F1140806F030
S3150800D89037FCC5F87880C5F88080102006F004FEAD
S3150800D8A04246734B734906F081FF382006F0FCFDAB
S3150800D8B0214680460FF03AFD4146304606F020FCE8
S3150800D8C008F13003C5F89030382006F0EDFD214602
S3150800D8D080460FF065FD4146304606F011FC08F11A
S3150800D8E03003C5F89830902006F0DEFD21468046C4
S3150800D8F00FF0AEFE4146304606F002FC08F18803FA
S3150800D900C5F8A030382006F0CFFD214680460FF036
S3150800D91081FD4146304606F0F3FB08F13003AB6261
S3150800D920382006F0C1FD214680460FF04DFC4146E1
S3150800D930304606F0E5FB08F130032B61382006F087
S3150800D940B3FD214680460FF005FC4146304606F0F9
S3150800D950D7FB08F130032B676846FFF705F86846DA
S3150800D960FEF7DAFF6846FFF72DF86846FFF798F8DE
S3150800D9706846FFF74FF86846FFF7DEF84C2006F0D2
S3150800D98093FD214680460FF0C7FD4146304606F016
S3150800D990B7FB08F1200A102006F086FD5246364BE2
S3150800D9A0364906F003FF08F12809102006F07CFD29
S3150800D9B04A46314B324906F0F9FEC5F850A0C5F87B
S3150800D9C0309008F13C016846FFF700F908F1440178
S3150800D9D06846FFF704F92B4B029301230393DDE90D
S3150800D9E002126846FFF707F9282006F05DFD214672
S3150800D9F005460FF0D7FD2946304606F081FB102074
S3150800DA0006F052FD204B214905F1200206F0CEFE14
S3150800DA1005F120016846FFF7B5F8384602F072F8B6
S3150800DA2000F1C004502006F03FFD39460546FEF7D2
S3150800DA30DBFA302006F038FD154A06463946FDF76A
S3150800DA40EDFA3146204606F05BFB05F13C026846D6
S3150800DA501049FFF735F92946204606F051FB3846A6
S3150800DA60FEF705FC6846FFF772F904B0BDE8F087D3
S3150800DA70204E020804570208304E02088858020849
S3150800DA808C58020810590208244E02081459020834
S3150800DA905C5A02084C5A02082DE9F04385B08046C4
S3150800DAA001F0C2FD00F56875404602F02BF8044601
S3150800DAB0404601F0ADFD8146382006F0F5FC04F13C
S3150800DAC0C006074629460EF06FFA39463046303703
S3150800DAD006F016FBA767102006F0E6FC3A46344B1C
S3150800DAE0344906F063FE382006F0DEFC2946074670
S3150800DAF00EF094FA39463046303706F001FBC4F882
S3150800DB009070382006F0D0FC294607460EF0C0FA79
S3150800DB1039463046303706F0F3FA2763382006F0E0
S3150800DB20C3FC294607460EF0EDFA3946304630372B
S3150800DB3006F0E6FAC4F89870382006F0B5FC2946CF
S3150800DB4007460EF019FB3946304606F0D9FA303743
S3150800DB5009F58D63A3624146C4F8A07002A8FFF7D1
S3150800DB60FDF802A8FEF782FF02A8FEF7D5FE02A876
S3150800DB70FEF728FF02A8FEF7DFFF02A8FEF74AFF16
S3150800DB800D494FF07A7202A8FFF758F8302006F0D0
S3150800DB908BFC0A4A04464146FDF740FA21463046C0
S3150800DBA006F0AEFA02A8FFF7D2F805B0BDE8F08392
S3150800DBB0204E0208FC560208B45A0208D85A02082F
S3150800DBC02DE9F04385B0804601F02EFD00F5687614
S3150800DBD0404601F097FF0546382006F065FC3146B9
S3150800DBE007460EF003FB394605F1C00006F088FA31
S3150800DBF0382006F059FC314681460EF0A9FB494605
S3150800DC0005F1C00009F1300906F07AFAC5F8609006
S3150800DC101C2006F049FC4FF49A7207464946FDF760
S3150800DC2007F9394605F1C000143706F069FAAF67F7
S3150800DC30C5F88070102006F037FC3A46734B7449D5
S3150800DC4006F0B4FD382006F02FFC314607460EF0E4
S3150800DC50B9FB394605F1C000303706F051FAC5F868
S3150800DC609070382006F020FC314607460EF0E4FB9B
S3150800DC70394605F1C000303706F042FAC5F8987003
S3150800DC80382006F011FC314607460EF00FFC3946DF
S3150800DC9005F1C000303706F033FAC5F8A070382011
S3150800DCA006F002FC314607460EF03AFC394605F105
S3150800DCB0C000303706F024FAAF62382006F0F4FBCD
S3150800DCC0314607460EF006FB394605F1C0003037E7
S3150800DCD006F016FA2F61382006F0E6FB31460746AD
S3150800DCE00EF0BEFA394605F1C000303706F008FADC
S3150800DCF041462F676846FFF731F86846FEF734FE57
S3150800DD006846FEF709FE6846FEF75CFE6846FEF7BB
S3150800DD10C7FE6846FEF77EFE6846FEF70DFF5820EA
S3150800DD2006F0C2FB314607460EF07AFC394605F185
S3150800DD30C00006F0E5F907F12009102006F0B4FB4B
S3150800DD404A46344B344906F031FD07F128061020BF
S3150800DD5006F0AAFB32462F4B304906F027FD2E6304
S3150800DD60C5F85090102006F09FFB07F130022C4BA7
S3150800DD702C4906F01BFD07F130016846FEF702FF45
S3150800DD8007F140016846FEF721FF07F15001684692
S3150800DD90FEF725FF244B029301230393DDE90212C4
S3150800DDA06846FEF728FF502006F07EFB41460646E9
S3150800DDB0FEF7CAF9302006F077FB1C4A07464146AB
S3150800DDC0FDF72CF9394605F1C00006F099F94FF42C
S3150800DDD08C7006F069FB164A06F13C03074629468D
S3150800DDE00CF0A2FD394605F1C00006F089F9314666
S3150800DDF005F1C00006F084F94046FEF738FA684691
S3150800DE00FEF7A5FF05B0BDE8F08300BF204E020867
S3150800DE1004570208304E0208885802088C5802082F
S3150800DE20244E02081459020810590208345B0208E5
S3150800DE30485B02082DE9F743804601F0F5FB00F53B
S3150800DE406877404601F05EFE0446382006F02CFB53
S3150800DE5004F1C005064639460EF02AFE3146284624
S3150800DE60303606F04DF9A667C4F88060102006F033
S3150800DE701BFB3246594B5A4906F098FC382006F0E7
S3150800DE8013FB394606460EF08BFE314628463036D9
S3150800DE9006F036F9C4F89060382006F005FB3946D6
S3150800DEA006460EF0B7FE31462846303606F028F903
S3150800DEB0C4F89860382006F0F7FA394606460EF098
S3150800DEC0E3FE31462846303606F01AF9C4F8A06053
S3150800DED0382006F0E9FA394606460EF023FE3146A2
S3150800DEE02846303606F00CF9414626616846FEF7A4
S3150800DEF035FF6846FEF738FD6846FEF70DFD6846AD
S3150800DF00FEF760FD6846FEF7CBFD6846FEF782FD24
S3150800DF106846FEF7ABFD6846FEF70EFE404601F082
S3150800DF2077FB012100F58B60FCF790FA482006F094
S3150800DF30BBFA394606460EF017FF3146284606F064
S3150800DF40DFF806F12009102006F0AEFA4A46254BFE
S3150800DF50254906F02BFC06F12807102006F0A4FA3E
S3150800DF603A46204B214906F021FC06F13801C4F84F
S3150800DF70509027636846FEF729FE102006F094FAAB
S3150800DF801B4B1C4906F1300206F010FC06F1300165
S3150800DF906846FEF7F7FD502006F086FA4146044625
S3150800DFA0FDF7C2FE302006F07FFA134A06464146C0
S3150800DFB0FDF734F83146284606F0A2F804F13C028B
S3150800DFC068460E49FEF77CFE2146284606F098F874
S3150800DFD06846FEF7BCFE03B0BDE8F083204E020893
S3150800DFE004570208304E0208885802088C5802085E
S3150800DFF0244E020814590208C85B0208B85B0208D6
S3150800E0002DE9FF41804601F00FFB00F56875404693
S3150800E01001F078FD0446382006F046FA04F1C006F9
S3150800E020074629460EF0D8FE39463046303706F000
S3150800E03067F8A767102006F037FA04F174024B4B0D
S3150800E0404B4906F0B3FB382006F02EFA2946074658
S3150800E0500EF03AFF39463046303706F051F8C4F824
S3150800E0609070382006F020FA294607460EF0A4FFDD
S3150800E07039463046303706F043F8C4F8A0703820E1
S3150800E08006F012FA294607460EF0E0FE39463046F3
S3150800E090303706F035F84146276102A8FEF75EFEDE
S3150800E0A002A8FEF739FC02A8FEF78CFC02A8FEF7C8
S3150800E0B0F7FC02A8FEF740FD02A8FEF7ABFC02A893
S3150800E0C0FEF752FC382006F0EFF9294607460EF00F
S3150800E0D035FF3946304606F013F807F1300102A835
S3150800E0E0FEF777FD302006F0DFF9294607460EF0E1
S3150800E0F0C5FF3946304606F003F807F1200510201B
S3150800E10006F0D2F92A461B4B1B4906F04FFB102096
S3150800E11006F0CAF92A46174B184906F047FB28376E
S3150800E12025632565102006F0BFF9154B15493A46B3
S3150800E13006F03CFB394602A8FEF74EFD12494FF0A1
S3150800E1407A7202A8FEF77AFD302006F0ADF90F4A7A
S3150800E15004464146FCF762FF2146304605F0D0FFEB
S3150800E16002A8FEF7F4FD04B0BDE8F081204E0208CF
S3150800E170FC560208304E0208885802088C580208D5
S3150800E180244E02084C5C02081C5C0208405C02082B
S3150800E19070B50D4616460446102006F085F9334636
S3150800E1A02A462146BDE8704006F000BB2DE9F0433B
S3150800E1B085B0054601F0A6FC0746284601F028FA70
S3150800E1C033490295044602A8FEF7D0F9B8676420D9
S3150800E1D006F06AF904F5147206462E4907F054FA51
S3150800E1E0314607F1C0004C3605F08AFF2946C7F8C4
S3150800E1F0A06002A8FEF7B2FD02A8FEF78DFB02A8F2
S3150800E200FEF708FC02A8FEF7AFFB284601F000FA65
S3150800E2104FF0010900F58D661F4A80F8789431465B
S3150800E2201E48FFF7B5FF49463E6104F29440FCF7E5
S3150800E2300DF9194A1A4804F2A441FFF7A9FF04F296
S3150800E240A44102A8FEF7C5FC134A164804F59C61CA
S3150800E250FFF79EFF04F59C6102A8FEF7BDFC124974
S3150800E2604FF07A7202A8FEF7E9FC302006F01CF996
S3150800E2700E4A04462946FCF7D1FE214607F1C0009E
S3150800E28005F03EFF02A8FEF762FD05B0BDE8F08383
S3150800E29000100020845C0208244E0208D05C0208A4
S3150800E2A0F85902084C5C0208A05C0208C45C020823
S3150800E2B02DE9F74F804601F0ABF90746404601F0D5
S3150800E2C021FC0446404601F0AFF9414600F5687561
S3150800E2D06846FEF743FD6846FEF71EFB6846FEF7EE
S3150800E2E099FB382006F0E0F804F1C0068146294675
S3150800E2F010F054FA4946304605F002FF09F130039A
S3150800E300C4F89030382006F0CFF82946814610F038
S3150800E3100BFA4946304609F1300905F0F1FEC4F812
S3150800E3207890102006F0C0F84A46464B464906F053
S3150800E3303DFA382006F0B8F82946814610F0CEFA9C
S3150800E3404946304605F0DCFE09F13003C4F898303A
S3150800E350382006F0A9F82946814610F015FB4946EB
S3150800E360304605F0CDFE09F1200B102006F09CF88A
S3150800E3705A46364B364906F019FA09F1280A10208A
S3150800E38006F092F85246314B324906F00FFAC4F8B5
S3150800E39050B0C4F830A0202006F086F829468246F8
S3150800E3A010F05AFA5146304605F0AAFE0AF1100353
S3150800E3B0A362382006F078F82946824610F018FB42
S3150800E3C05146304605F09CFE0AF13003C4F8A030E9
S3150800E3D009F130016846FEF7F9FBD7F8C834012180
S3150800E3E05B6807F59960984707F2A447102006F07E
S3150800E3F05BF83A46184B194906F0D8F9276168467A
S3150800E400FEF7B2FA6846FEF7DDFA4146144809F007
S3150800E41007FE436E4FF47A715B6864309847302084
S3150800E42006F042F80F4A04464146FCF7F7FD214636
S3150800E430304605F065FE6846FEF789FC03B0BDE880
S3150800E440F08F00BF204E0208FC560208304E020824
S3150800E450885802088C580208244E0208D05C020824
S3150800E460105D0208345D02082DE9FF47804601F079
S3150800E47049FB0646404601F0D7F800F5687538208E
S3150800E48006F012F806F1C004074629460FF0EEFB1F
S3150800E4903946204605F034FE382006F005F82946A8
S3150800E4A081460FF095FC4946204609F1300905F0EA
S3150800E4B027FEC6F860901C2005F0F6FF4FF49A7206
S3150800E4C007464946FCF7B4FC39462046143705F09A
S3150800E4D017FEB767C6F88070102005F0E5FF3A46C4
S3150800E4E0754B764906F062F9382005F0DDFF2946B6
S3150800E4F007460FF0A7FC39462046303705F000FEE0
