S01E00007372632F6C636D332F6170702F6C636D332D626173652E737265634A
S3150800900000100020E9920008ED920008F39200088B
S315080090100D930008139300082D9300080000000024
S31508009020FFFFFFFF00000000000000004793000854
S315080090304D93000800000000539300085993000858
S31508009040D9040108E9040108F90401080905010819
S315080090501905010829050108390501084905010806
S3150800906059050108690501087905010889050108F6
S3150800907099050108A9050108B9050108C9050108E6
S31508009080D9050108E9050108F905010809060108D5
S3150800909019060108290601083906010849060108C2
S315080090A059060108690601087906010889060108B2
S315080090B099060108A9060108B9060108C9060108A2
S315080090C0D9060108E9060108F90601080907010891
S315080090D0190701082907010839070108490701087E
S315080090E0590701086907010879070108890701086E
S315080090F099070108A9070108B9070108C90701085E
S31508009100000000000000000000000000D907010868
S31508009110E9070108F90701080908010819080108FB
S3150800912029080108390801084908010859080108E9
S31508009130690801087908010800000000000000001D
S315080091408908010899080108A90801080000000013
S315080091500000000000000000000000000000000001
S315080091600000000000000000B9080108C90801084D
S31508009170D9080108000000000000000000000000F7
S30D0800918000000000E9080108DF
S31508009188336431323335630070B52B4CA36A43F028
S315080091988053A362A36A23F08053A362636943F0EA
S315080091A880536361E36A23F4F873E362E36A43F47A
S315080091B88073E362BFF34F8F204DAB6823F04053AB
S315080091C8AB60AB6842F2107043F08053AB6000F0B6
S315080091D8A3FBAB6843F00043AB60AB68002BFCDB32
S315080091E8382000F099FBAB68154843F00103AB60DB
S315080091F807F0F0FDC1232B630026AB684FF47A709D
S3150800920843F00403AB6000F087FB2B685B07FCD5CB
S315080092182B6CB3F5946FF0D30136642EEDD1A36A9F
S3150800922843F08053A362A36A23F08053A362636959
S3150800923823F08053636170BD00100240000000509F
S31508009248804E02081C4B1A6822F450221A601A68C3
S3150800925842F480321A601A689103FCD5174A5201FB
S3150800926802F18442012111604FF480625A60144A5F
S31508009278116821F0040111606FF07F41516011688F
S3150800928841F0010111600F4A5A600022DA621A6831
S3150800929842F080721A601A689201FCD50A4A1221AD
S315080092A811605A6842F002025A605A6802F00C02C3
S315080092B8082AFAD1704700BF00100240241002405D
S315080092C810E000E0000411000020024008B506F08E
S315080092D80BFDFFF7B7FFBDE80840FFF755BF00BF0E
S315080092E81C48004708B509F0C7FC1EF0040F0CBF58
S315080092F8EFF30880EFF309807146174A104708B557
S3150800930809F0BAFC08B509F0B7FC1EF0040F0CBF43
S31508009318EFF30880EFF309807146104A104708B53D
S3150800932809F0AAFC1EF0040F0CBFEFF30880EFF350
S31508009338098071460A4A104708B509F09DFC08B520
S3150800934809F09AFC08B509F097FC08B509F094FCE9
S31508009358704700006D9300080793000827930008D4
S315080093684193000808B5FFF7B1FF1D4A1D48824218
S3150800937817D31D4A1D4900208A421DD30BF0AAF8A7
S315080093881B4D1C4B5B1B9C100026B4421DDC1A4D5A
S315080093981A4B5B1B9C100026B4421BDC06F088FCA3
S315080093A8FEE7D2E9001394680C32C91A9C42DED942
S315080093B85D5843F8045BF9E752F8083B52F8044C41
S315080093C89C42D9D943F8040BFAE755F8043B984761
S315080093D80136DAE755F8043B98470136DCE700BF5B
S315080093E80894000814940008149400081C940008AB
S315080093F81C9400081C9400081C940008289400086B
S315080094084C92020800100020181300201813002098
S31508009418403E00205545010849AD010875AD0108CB
S31508009430007970470020704700207047B0F9040093
S315080094407047002070470079704701710120704706
S3150800945010B50446406807F05DFD237B5840C0B24E
S3150800946010BD10B50446406807F062FD237A5840DF
S31508009470C0B210BD08B5037A4068594007F052FDDE
S31508009480012008BD1268F0B50468023A944200D378
S31508009490F0BDB1F900E020461346054630F9027BD7
S315080094A0BE45FADC1E46B6F900C0E6453346A6F1C7
S315080094B00206F8DB9D4206D8864220F802CC05460D
S315080094C01F803346E9D2994288BF2C46A94238BF45
S315080094D01A46DBE7F8B5214B0360214BC0F8CC35BB
S315080094E0204BC0F8F035044600F5BE600AF00FFEC2
S315080094F004F2CC500AF00BFE04F29C5007F0BCFEB6
S3150800950004F5AB6008F004F804F5A56008F000F867
S31508009510154E04F20C5504F21C47AF4205D045F827
S315080095203C6D28460AF0F3FDF7E7104BC4F83032D5
S3150800953004F50C700AF0EBFD04F5907007F04AFC90
S3150800954004F5867007F0B8FA04F5807007F0B4FAE7
S3150800955020460AF071FE2046F8BD00BFFC4C020802
S3150800956040500208285002081050020854650208A4
S3150800957010B50446FFF7AEFF20464FF4C0610AF067
S31508009580E3FF204610BD2DE9F341456915F0010FAB
S31508009590044605F1FF3600EB450721D14FEA560888
S315080095A026F001010144CDE9000701AA6846FFF744
S315080095B069FF34F9186025F001014FEA5508684635
S315080095C001AA2144CDE90047FFF75CFF34F91800EA
S315080095D0304400EBD07040F34F0002B0BDE8F08194
S315080095E0CDE90007811901AA6846FFF74BFFA05F7E
S315080095F0F3E7F0B5D0E9064787B0002305933B1B90
S315080096005D10002BB8BF0B350A2D064601D915F09B
S3150800961075FC25B16A000021684615F0A5FC05957C
S315080096206B461636BC4204D16846FFF7ACFF07B056
S31508009630F0BD34F9022B23F8022BB442F2D3163CC0
S31508009640FBE7F8B50446D0E907300A2928BF0A21FE
S315080096500129A0EB030038BF012143100028B8BF39
S315080096600B33CD1A2E4604F11A07002E0EDB002DF9
S31508009670A3EB0103C8BF00232B4404F11A0673B9F0
S315080096801DB1201DFFF7B5FF2085F8BDE069023042
S31508009690B84202D2E0610136E7E71638F8E7206AF1
S315080096A0811CB14203D20280013B2162E7E71639E9
S315080096B0F7E700002DE9F84F04460AF08BFD684BE2
S315080096C0236007F039FF674BA3616749207704F1E8
S315080096D0200006F0FFFB1622002104F1D80015F041
S315080096E043FC0025614BC4F8F830C4E93C0042F657
S315080096F0E0620A2104F1D400C4F8FC50FFF7A1FF88
S315080097005B4ADFF870A1DFF870B104F1200104F5B7
S31508009710807007F0C3F9594A04F1200104F58670F0
S3150800972007F0BCF904F1200104F58C7006F054FD2D
S3150800973004F59277524904F5907007F039FB514ABF
S3150800974004F59071384607F08BFA4F4A394604F506
S315080097500C7007F02DFE04F21C4704F51E7000F08D
S31508009760D1FC4A49384600F0C5FE494904F58B60E4
S3150800977000F0C0FE474904F2944000F0BBFE46499B
S3150800978004F59A6000F0B6FE444BC4F80C35444B19
S315080097904448C4F81435012384F81835C4F810056C
S315080097A007F01CFB4048C4F82005C4F81CA584F83B
S315080097B0245507F013FB294604F21C50FFF75AFEFE
S315080097C03A4904F5A56007F04BFE394904F5AB6044
S315080097D007F046FE3748C4F88C05C4F888A584F80F
S315080097E0905507F0FBFA294604F5B160FFF742FEEB
S315080097F0314904F2945007F0BBFB304904F29C50FF
S3150800980007F0AAFC04F2CC5000F078FF242D1BD1F7
S315080098102B4B2C4A1A6004F2CC5120460AF0B4FCB1
S3150800982004F50C7120460AF0AFFC04F20C55AF4261
S3150800983010D104F1200006F00FFB04F5907007F034
S31508009840B1FA2046BDE8F88F0BEB050007F0C6FA1B
S315080098500C35DBE7394620460AF096FC3C37E6E746
S31508009860FC4C0208EC4C0208604D0208DC4C02086D
S31508009870484D0208CC4C02080C4D0208304D02082F
S3150800988000000040444E0208384E0208D04D020837
S31508009890DC4D0208E84D0208F44D0208BC4C0208EB
S315080098A0AC4C0208684E0208744E0208B44D020811
S315080098B08C4D02085C4E0208244E0208684D0208C8
S315080098C020000140C100030010B504460AF03EFC22
S315080098D0D4F8F430B4F9002404F1D800023B9842D5
S315080098E019D8C4F8F430D4F8F030023B984214D8AA
S315080098F01A80C4F8F030FFF77CFEB0F5165FA4F8BE
S31508009900FC0002DA072007F005FE04F12000BDE896
S31508009910104006F065BA1633E1E71633E6E70000AD
S3150800992038B50E4B0E4C9842A5680DD800EBC00012
S315080099304FF47A73B0FBF3F00230A368EB1A23F006
S315080099407F439842F9D838BD09214FF47A7200232B
S31508009950A0FB010115F030F9EEE700BF1BC7711C2B
S3150800996010E000E038B51C4652B91B681D690B6843
S3150800997008461B68984701462046A847012038BD77
S315080099800020FCE713B50C466AB91A680DF1060102
S315080099901846126990472368BDF806105B6820468A
S315080099A0984702B010BD0020FBE738B51C4652B9EF
S315080099B01B681D680B6808461B68984701462046C1
S315080099C0A847012038BD0020FCE713B50C466AB944
S315080099D01A680DF1070118461268904723689DF822
S315080099E007105B682046984702B010BD0020FBE7C9
S315080099F038B51C4652B91B689D690B6808461B6832
S31508009A00984701462046A847012038BD0020FCE7B4
S31508009A1013B50C465AB91A6801A9184692699047AF
S31508009A20236801995B682046984702B010BD00205C
S31508009A30FBE738B51C4652B91B68DD680B68084653
S31508009A401B68984701462046A847012038BD0020D4
S31508009A50FCE713B50C466AB91A680DF106011846F3
S31508009A60D26890472368BDF906105B682046984778
S31508009A7002B010BD0020FBE713B50C4672B91A6890
S31508009A800DF1070192681846904723689DF807105C
S31508009A905B68204602B0BDE810401847002002B0B7
S31508009AA010BD10B51C4652B90B6808461B68984786
S31508009AB0236801469B6820469847012010BD002070
S31508009AC0FCE770B50D461646044610200AF030FD30
S31508009AD033462A462146BDE870400AF0ABBE70B54B
S31508009AE00D461646044610200AF022FD33462A463D
S31508009AF02146BDE870400AF09DBE000038B50C4608
S31508009B0001F51E7105460DF04DFC04F58071424ABB
S31508009B104248FFF7E4FF04F58C713F4A4048FFF7D7
S31508009B20DEFF04F57F713C4A3E48FFF7D8FF04F193
S31508009B30F801394A3C48FFF7D2FF04F58671364AE0
S31508009B403A48FFF7CCFF10200AF0F2FC04F514722D
S31508009B50374B38490AF06EFE10200AF0E9FC364BFE
S31508009B60364904F118020AF065FE04F22C41344A1B
S31508009B703448FFF7A6FF04F58D61314A3248FFF7EE
S31508009B80A0FF04F2A4412E4A3048FFF79AFF04F5D5
S31508009B909C612B4A2E48FFF794FF04F58A61284AF0
S31508009BA02C48FFF78EFF04F28C41254A2A48FFF716
S31508009BB088FF04F59961224A2848FFF782FF04F2D4
S31508009BC004511F4A2648FFF77CFF10200AF0B0FC14
S31508009BD004F5A562234B24490AF02CFE10200AF04E
S31508009BE0A7FC204B214904F5AB620AF023FE04F5D5
S31508009BF0B161134A1E48FFF764FF04F20C51104A7C
S31508009C001C48FFF75EFF0E4A1B4804F21C51FFF77B
S31508009C1058FF284638BD00BF004F0208484F0208C3
S31508009C20444F0208404F02083C4F0208384F0208CA
S31508009C30FC4E02084C4F0208F84E0208504F020824
S31508009C40F44E0208344F02082C4F0208244F02082B
S31508009C501C4F0208304F0208284F0208204F0208FE
S31508009C60184F0208F04E0208144F0208044F020863
S31508009C70104F02080C4F0208084F020810B5044698
S31508009C800DF080FC204610BD38B5D0F8803004466B
S31508009C901B6880300D46984768B9084BA5F6BB2265
S31508009CA09A4207D8B4F85431C4F858510133A4F885
S31508009CB05431012038BD0020FCE700BF65B402001E
S31508009CC000207047406870474068FFF7DDBF12689C
S31508009CD0F0B50468023A944200D3F0BDB1F900E049
S31508009CE020461346054630F9027BBE45FADC1E4679
S31508009CF0B6F900C0E6453346A6F10206F8DB9D42F2
S31508009D0006D8864220F802CC05461F803346E9D29B
S31508009D10994288BF2C46A94238BF1A46DBE74368F2
S31508009D201868704743681868B0FA80F040097047A9
S31508009D308268C368022A03F1010338BF02229342EC
S31508009D4028BF0023C3607047294B984205D1294A8A
S31508009D50936943F40063936107E0274B984207D160
S31508009D60244AD36943F00103D361BFF34F8F704789
S31508009D70224B984204D11F4AD36943F00203F3E702
S31508009D801F4B984204D11B4AD36943F00403EBE7FF
S31508009D901C4B984204D1174AD36943F01003E3E7F2
S31508009DA0194B984204D1134AD36943F02003DBE7E1
S31508009DB0164B984204D10F4A936943F40053CAE7F5
S31508009DC0134B984204D10B4A936943F48033C2E794
S31508009DD0104B984204D1074A936943F40033BAE713
S31508009DE00D4B9842C1D1034A936943F48023B2E7E5
S31508009DF0002C014000100240000000400004004012
S31508009E0000080040001000400014004000340140E3
S31508009E10004001400044014000480140EFF3108231
S31508009E20D24302F0010272B6114BD96821F0010142
S31508009E30D960198821F001011980D96A0139596256
S31508009E40198841F0010119801988C906FCD581686D
S31508009E50022938BF02210239C16000211961D96877
S31508009E6041F00101D9600AB162B6704772B670470F
S31508009E7000080040124B1A88C368DB43C2F300127D
S31508009E8003F001039A4210B5044601D1FFF750FFCB
S31508009E900C4B1A6822F001021A600B4A0F21516016
S31508009EA0E16802225A6004F59A7202EB8102DA60CE
S31508009EB0064A0121D1601A680A431A6010BD00BF1C
S31508009EC00008004008040240000402400001005057
S31508009ED008B50A4B5A68022A05D01A6822F0010208
S31508009EE01A60FFF7C7FF064A936843F004039360B6
S31508009EF0044B6FF001021A6108BD00BF0804024056
S31508009F0000010050000800404068FFF7E1BF00006C
S31508009F10B0F85431B0F856219BB292B2934270B55C
S31508009F20044651D0D0F85811A0F8563146F2A81375
S31508009F30994283BF01F543434F334CF25032012314
S31508009F4084BFB3FBF2F35B00016083604FF4FA72DF
S31508009F504D001E4EB5FBF3F3436042F20F7002FB51
S31508009F600100B04284BF42F21072B0FBF2F26261A5
S31508009F704FF4FA02B2FBF3F3FA22A36142F20F732B
S31508009F8002FB0133124942F210723431B3FBF2F389
S31508009F900022C4F898310F4BB3FBF5F3236141F85F
S31508009FA0083C5B08102A02D08B500432FAE704F109
S31508009FB024000CF0C3FB04F124000CF0D7FB204668
S31508009FC0BDE87040FFF72ABF70BD00BF3F4B4C008D
S31508009FD000080040002A75152DE9F341456915F07A
S31508009FE0010F044605F1FF3600EB450721D14FEA7C
S31508009FF0560826F001010144CDE9000701AA684682
S3150800A000FFF765FE34F9186025F001014FEA550897
S3150800A010684601AA2144CDE90047FFF758FE34F9FE
S3150800A0201800304400EBD07040F34F0002B0BDE892
S3150800A030F081CDE90007811901AA6846FFF747FEB6
S3150800A040A05FF3E7F0B5D0E9054787B0002305938D
S3150800A0503B1B5D10002BB8BF0A35092D064601D9F2
S3150800A06014F04CFF25B16A000021684614F07CFF05
S3150800A07005956B461436BC4204D16846FFF7ACFF1B
S3150800A08007B0F0BD34F9022B23F8022BB442F2D301
S3150800A090143CFBE7F8B50446D0E90630092928BF81
S3150800A0A009210129A0EB030038BF0121431000282C
S3150800A0B0B8BF0A33CD1A2E4604F11807002E0EDB58
S3150800A0C0002DA3EB0103C8BF00232B4404F1180697
S3150800A0D073B91DB1201DFFF7B5FFA084F8BDA069AF
S3150800A0E00230B84202D2A0610136E7E71438F8E731
S3150800A0F0E069811CB14203D20280013BE161E7E7D6
S3150800A1001439F7E72DE9F041634B644A86B00446F3
S3150800A11000254CF25037C0E907300760604B85616F
S3150800A120C0E90455014604F59A76009524300CF0EA
S3150800A13015FF20222946304614F016FFA4F854517C
S3150800A140C4F8587114222946A4F8565104F5B0707B
S3150800A15014F00AFF534FC4F88051C4E95D0042F673
S3150800A160E0620921C4F87C7104F5AE70FFF792FF2E
S3150800A17042F6E063C4E961752268A4F888314A4B5F
S3150800A180C4F88C31FA2142F20F7301FB023342F212
S3150800A1901071B3FBF1F3C4E96533444BC4F89C3141
S3150800A1A004F5CA73C4F8A03104F5AA739B1BAB4225
S3150800A1B0C4F890515DDC52003D4FB7FBF2F704F14D
S3150800A1C0100304F114029A425CD1DFF8E8800025F6
S3150800A1D0242D5AD1384805F0B9FD3749374A43F294
S3150800A1E081030B63536943F002035361BFF34F8F37
S3150800A1F0334A344D42F28253136001F140039360AF
S3150800A200314B3249D66004A8CDE9043406F006F984
S3150800A2102F4B1B88ADF80C302E4B03A904A8CDE9AB
S3150800A220043406F0FBF82846FFF78EFD60232B80E2
S3150800A23020236B6001232B85EF626B6147F6680369
S3150800A240AB61EB6141F2111321682B6220464FF492
S3150800A25000436B64FFF718FD2046FFF759FE2046BA
S3150800A260FFF766FD2046FFF705FE204606B0BDE867
S3150800A270F08103F59A73234431468B429BD021F82B
S3150800A280025BFAE743F8047B9DE708EB050006F056
S3150800A290A5FD0C359CE700BF6C4F0208B84F0208B5
S3150800A2A034080040DC4C02087C4F02085C4F020868
S3150800A2B0002A7515944F020800010050001002404C
S3150800A2C00804024000080040099F0008884F020859
S3150800A2D0C44F020835A400082DE9F84F534B1A68F5
S3150800A2E09207044640F19D80514A5268002A40F080
S3150800A2F09880856802225A60C368013D9D4228BF3E
S3150800A3001D464FF47A77012D07D92046FFF710FD31
S3150800A3102046BDE8F84FFFF7ADBD002D3FD0A36836
S3150800A320022B38BF0223194600231A4604F59B7CE4
S3150800A3303CF8220001328A420344F9D148F6CC514E
S3150800A3404B431B0BB3FBF2F3D4F87821A4F88831FE
S3150800A35004F5B070023A90425FD8C4F87821D4F870
S3150800A3607421023A90425AD81380C4F87421FFF730
S3150800A37069FE42F21B518842A4F88001D8BF002129
S3150800A38004F5CA70C8BF01210AF02DF8D4F8903137
S3150800A3900133C4F890312046FFF7BAFD21E004F1F5
S3150800A3A024000CF01DFAA368022B38BF022303F120
S3150800A3B0010CC0F57A784FEA5C0C2146AA462B4672
S3150800A3C0A9460122D4450FD100FB03F109FB081168
S3150800A3D004F12400B1FBFCF1B1FBF7F189B20CF0F2
S3150800A3E0FFFCA3681D448EE7B1F834B1B1F838E133
S3150800A3F0D94473445AB1ABF5807BBBF5606F0AD874
S3150800A400AEF5807EBEF5606F8CBF002201220AF190
S3150800A410010A0831D6E70022F9E714329BE714321D
S3150800A420A0E702225A60BDE8F88F00BF0004024088
S3150800A430080402404068FFF74FBF037D13B1037E4F
S3150800A44083F00103184670470079704730B5C36832
S3150800A4500D46044693E8070085B001AB83E807007C
S3150800A4606B1C01A88DF80C3006F0B8FC0120A57607
S3150800A47005B030BD037D10B504460376C06806F006
S3150800A48049FD94F82030A27E5840637EC0B25B0036
S3150800A490824208BF43F0010303F00F0363760BB94A
S3150800A4A0237510BD0F2BFCD10123F9E710B5034B1B
S3150800A4B00360044609F02BFE204610BD1050020822
S3150800A4C010B50446FFF7F2FF20463C210AF03CF897
S3150800A4D0204610BD4068FFF7B9BF4368987E7047AD
S3150800A4E04068FFF7AABF43681A7D0AB9187E704705
S3150800A4F00020704738B504460D4609F011FE0F4B8B
S3150800A500236000236361238323620D4BE3610D4AB5
S3150800A5100D4B22612A7AE560C4E909340B4B911E7A
S3150800A520C4E90B344A420A4B4A412846C4E90D3469
S3150800A530A27606F053FC204638BD00BF105002082C
S3150800A540AC4C0208D04F0208E04F0208F04F020850
S3150800A55000500208C268D3680A33136170470000C6
S3150800A56010B5034B0360044609F0D1FD204610BD23
S3150800A5702850020810B50446FFF7F2FF20461021BE
S3150800A58009F0E2FF204610BD10B5054B044640F819
S3150800A590243BFFF7E5FF204609F0B9FD204610BD2C
S3150800A5A04050020810B50446FFF7EEFF2046342156
S3150800A5B009F0CAFF204610BD014B00229A60704779
S3150800A5C0002C00402DE9FF41C3680133C360C2680F
S3150800A5D003699B1A002B044641DB434F386805F094
S3150800A5E042F8D0F8043400F204401B6898478046C5
S3150800A5F0386805F038F8836AC26A9342227E1ABF21
S3150800A600C36201260026012362BB384A237645F237
S3150800A6105553C4F814801360D36813F00203FBD1B2
S3150800A6204FF4837191604CF6CC4111603049CA6988
S3150800A63042F40062CA61BFF34F8F2E4AADF8043068
S3150800A64040F2FF215160F52111602B4B40F2D221D7
S3150800A650516002A801A9CDE9023405F0DFFE04B075
S3150800A660BDE8F081656923763868C4F8148004F07B
S3150800A670FAFF94F82020D0F87C32A8EB050582B3BF
S3150800A680E269E36141F28737012184F8201003F576
S3150800A690FA7041F288343B444FF47A7CB3FBF4F108
S3150800A6A0B0FBFCF002F5FA733A44B3FBFCF3471A25
S3150800A6B0B2FBF4F29C1ABC4228BF3C46A542CED354
S3150800A6C013440844834238BF03469D42C7D8002E28
S3150800A6D0C5D0064B4AF6AA221A60064BF5221A601E
S3150800A6E0BDE71A46CDE700BF18130020003000402A
S3150800A6F000100240002C0040B9A5000810B5044619
S3150800A70009F00EFD084B23600023C4E90433C4E9AD
S3150800A7100633E360236204F1240009F001FD034BCC
S3150800A72063622463204610BD405002082850020880
S3150800A73000797047B0F9040070470B6808469B68B3
S3150800A74018478180012070470079704700207047BC
S3150800A75043685856704780687047002070474068BD
S3150800A76003681B6818470079704740687047836814
S3150800A7701A68914205D35B68994202D84160012064
S3150800A78070470020704713B50C4672B91A680DF168
S3150800A790070192681846904723689DF807105B687A
S3150800A7A0204602B0BDE810401847002002B010BD90
S3150800A7B010B51C4652B90B6808461B6898472368AB
S3150800A7C001469B6820469847012010BD0020FCE7FB
S3150800A7D073B51E460B6808469B6815460C4698478F
S3150800A7E0A8420FD933680DF107015B6830469847D0
S3150800A7F023689DF907205B682946204602B0BDE814
S3150800A80070401847002002B070BD70B51D460B6831
S3150800A81008469B6816460C469847B0420BD92368EB
S3150800A82031461B68204698472B6801465B682846D0
S3150800A8309847012070BD0020FCE713B50C4672B995
S3150800A8401A680DF1070192681846904723689DF823
S3150800A85007105B68204602B0BDE810401847002084
S3150800A86002B010BD10B51C4652B90B6808461B68E5
S3150800A8709847236801469B6820469847012010BDE3
S3150800A8800020FCE7B1F5803F10B50AD2026894882B
S3150800A8908BB29C4205D8D2889A4202D381600120A5
S3150800A8A010BD0020FCE708B54068FFF7EBFF08BDC0
S3150800A8B070B50D4616460446102009F039FE334693
S3150800A8C02A462146BDE8704009F0B4BF90F90C301D
S3150800A8D0934207DC90F90D30934203DB436801206D
S3150800A8E05A54704700207047436898687047436811
S3150800A8F01868704710B504680CB9204610BD606822
S3150800A90003681B6898470028F8D12468F4E710B54F
S3150800A91004462430FFF7EEFF30B104F12800FFF7B4
S3150800A920E9FF80F00100C0B210BD10B50446406BC7
S3150800A930436A24301B68984760B904F11C00FFF786
S3150800A9400EFF48B904F11400FFF709FF30B994F86F
S3150800A950440010BD0220FCE70420FAE70320F8E7CC
S3150800A96008B590F83C300344503093F9601093F8DA
S3150800A9706030042B03D8FFF7FAFE012008BD00213A
S3150800A980FFF7F5FE0020F9E7002380F87C3080F811
S3150800A990B03080F8B830A0F8C030012380F8A8306D
S3150800A9A0704738B50546406B0C460CF0A1FE08B159
S3150800A9B0B5F9C840204638BDF8B504463030FFF72B
S3150800A9C099FF10B1002384F87C302046FFF7C8FFB2
S3150800A9D0054630B104F12C00FFF78CFF80F0010525
S3150800A9E0EDB2294604F1840009F0FDFC35B1D4F82E
S3150800A9F0843043BB94F87C5085F0010584F8B05048
S3150800AA002046FFF784FF94F87C5007460DB994F862
S3150800AA10B05004F10C00FFF7A2FE00BBAFB1012352
S3150800AA2084F8B83004F10C00FFF799FE78B975B9C7
S3150800AA300323B4F9C81084F8A8302046FFF7B1FFFD
S3150800AA40A4F8C000F8BD0025D8E784F8B85094F8F3
S3150800AA507C3053B1052384F8A8300021EDE70123A3
S3150800AA6084F8B830002FDDD1F1E794F8B0302BB177
S3150800AA700423B4F9D81084F8A830DEE794F8B800AF
S3150800AA8028B10223B4F9D01084F8A830D5E70123F9
S3150800AA9084F8A830D4E710B50446FFF746FF022825
S3150800AAA004BF002384F84430636B84F83C0093F8B1
S3150800AAB0FC3020461BB9BDE81040FFF77DBFBDE856
S3150800AAC01040FFF761BF00002DE9F74F04460191DA
S3150800AAD009F026FB5C4B5D4A23605D495D4B2362AA
S3150800AAE00025C4E90432C4E90632C4E91415019BF9
S3150800AAF0636304F14801A165574B5849A36321666E
S3150800AB00574B5849E260A166052204F16001C4E981
S3150800AB101B12C4E91E352364E264534BC4F8803023
S3150800AB2040F2FF42A4F874204FF4FA734F4AE563E3
S3150800AB30C4E90955C4E90B556564A56484F86450ED
S3150800AB40C4E9213304F18403C4E92323484AC4E948
S3150800AB502523484BC4F89C3004F18003C4F8A03080
S3150800AB60102009F0E5FC4449444B04F19C0209F025
S3150800AB7061FE434BC4F8A430424BC4F8AC30C4E978
S3150800AB802D35414BC4F8BC30404BC4F8C85064223C
S3150800AB90C4E93335C4E93535C4F8C430A4F8C82047
S3150800ABA0C4F8A850C4F8B050C4F8C050102009F032
S3150800ABB0BFFC04F13802364B364909F03BFE10203B
S3150800ABC009F0B6FC04F168023349344B09F032FE49
S3150800ABD0019B04F1B4061E62102009F0A9FC304B53
S3150800ABE03049324609F026FE04F1BC012E4A2F48A8
S3150800ABF0FFF75EFE04F1C4012B4A2D48FFF758FE05
S3150800AC0004F1D40704F1CC01274A2A48FFF750FE7D
S3150800AC103946254A2848FFF74BFE102009F088FCDC
S3150800AC2004F178021E4B254909F004FE102009F0AC
S3150800AC307FFC234B234904F1A40209F0FBFD2046BF
S3150800AC4003B0BDE8F08F00BFEC5002088850020838
S3150800AC506850020800100020A85002080001FF02F0
S3150800AC60AC4C0208B8500208445102085C4F02086E
S3150800AC70585002089850020864510208FC4E02080F
S3150800AC80CC500208D04F0208DC4C0208DC500208FF
S3150800AC9040510208685102086C5102083C510208EA
S3150800ACA0F44E020874510208004F02087051020857
S3150800ACB0605102085C5102085851020854510208B2
S3150800ACC0385102085051020838B50446006808B9D8
S3150800ACD0204638BD0568082109F036FC2846F6E7FF
S3150800ACE00B4B10B5044640F8303BFFF7EDFF04F177
S3150800ACF02C00FFF7E9FF04F12800FFF7E5FF04F150
S3150800AD002400FFF7E1FF204609F001FA204610BDAE
S3150800AD10EC50020810B50446FFF7E2FF2046DC2196
S3150800AD2009F012FC204610BD10B504460C3009F097
S3150800AD30D0FB606903681B68984708B12369E3601C
S3150800AD4010BD000010B5034B0360044609F0DFF997
S3150800AD50204610BD9051020810B50446FFF7F2FFD1
S3150800AD602046282109F0F0FB204610BD4368D86824
S3150800AD7000B1187F7047000038B504460D4609F043
S3150800AD80CFF90D4B23604FF416720023C4E9033242
S3150800AD90E3610A4BA36101232377094B6561C4E983
S3150800ADA00834102009F0C4FB064B074904F11802C1
S3150800ADB009F040FD204638BD90510208AC4C020807
S3150800ADC080510208F44E0208A051020810B5044644
S3150800ADD0C06803681B689847B4F91030B4F91220A4
S3150800ADE08342B8BF03461BB29342A8BF13464FF02F
S3150800ADF0640113FB01F393FBF2F3238310BD8088F0
S3150800AE00704700207047000010B5034B03600446E6
S3150800AE1009F07DF9204610BDBC51020810B504465C
S3150800AE20FFF7F2FF20461C2109F08EFB204610BDD5
S3150800AE3070B504460E46154609F072F9054B2360AF
S3150800AE4000232382A361044BE66065826361204682
S3150800AE5070BD00BFBC510208AC51020810B50446CB
S3150800AE60283009F036FB636A20469847606210BDB1
S3150800AE7038B5084B03600446006A20B9204609F035
S3150800AE8046F9204638BD0568082109F05DFB2846C5
S3150800AE90F3E700BFD451020810B50446FFF7E8FFF0
S3150800AEA02046302109F050FB204610BD10B5D0E9E8
S3150800AEB00340C36C4C301B689847D4E9013203EB56
S3150800AEC042029A42194605D0B1F90040844203F17C
S3150800AED00203F6D1501A18BF012010BD38B5C36851
S3150800AEE09C7805462CB90069C3691C301B689847CD
S3150800AEF004462846FFF7DAFF80F001002040C0B27A
S3150800AF0038BD036993F8F400C0F34000704710B5E4
S3150800AF100446FFF7F6FF28B92046FFF7DFFF10B90A
S3150800AF20246A0CB9002010BD606803681B6898473E
S3150800AF300028F8D12468F4E710B504468069E26869
S3150800AF40036851785B6898476069C36D01215B683F
S3150800AF505C309847004810BDC9AF000810B50446D4
S3150800AF60C069036801215B6898470F23C4E90A335F
S3150800AF70004810BDF5AF000810B50446806903689F
S3150800AF8000215B6898476069C36D00215B685C3087
S3150800AF909847E069036800215B6898470F23C4E96E
S3150800AFA00A33014810BD00BF19B0000810B50446A1
S3150800AFB0FFF7ADFF20B92046BDE81040FFF7DCBF1C
S3150800AFC0004810BDC9AF0008FFF7F0BF10B504462A
S3150800AFD0FFF79DFF20B92046BDE81040FFF7CCBF1C
S3150800AFE0A36A1BB92046FFF7A7FF10BD0048FCE778
S3150800AFF0F5AF0008FFF7EABF836A10B504463BB908
S3150800B000FFF785FF20B12046BDE81040FFF7A6BF31
S3150800B010004810BD19B00008FFF7EEBF70B504462A
S3150800B0200D46164609F07CF8124B2360E660284662
S3150800B03004F0ACFD2061284604F015FB33784FF484
S3150800B040887202FB030000F527706061284604F049
S3150800B0500AFB00F21C50A061284604F004FB064ACD
S3150800B060002300F5B160E061C4E909232362E362C5
S3150800B070204670BDD451020819B0000838B50446F8
S3150800B0800069C36E6C301B6898470546606903689B
S3150800B0901B689847854294BF0020012038BDA0F15F
S3150800B0A00C00FFF7EBBF0B6808469B681847436818
S3150800B0B033F81100704780687047000010B5044BDC
S3150800B0C003601C330446C36009F021F8204610BD0E
S3150800B0D0EC51020810B50446FFF7F0FF2046182188
S3150800B0E009F032FA204610BDF8B51D460B68084629
S3150800B0F09B6816460C469847B0420BD92B681F69C1
S3150800B100236831461B682046984701462846B847B3
S3150800B1100120F8BD0020FCE773B51E460B680846FB
S3150800B1209B6815460C469847A8420ED933680DF118
S3150800B13006011B69304698472368BDF806205B68F8
S3150800B14029462046984702B070BD0020FBE7838950
S3150800B150934207D8C389934204D34368012023F84E
S3150800B160112070470020704770B5846840682368CE
S3150800B1701D68836808301B6898472B460146204699
S3150800B180BDE87040184700002DE9F34716460D46FE
S3150800B1901F46044608F0C4FF1F4AD6F804901F4B02
S3150800B1A022601C32C4E90327B5F808A02F68D5F831
S3150800B1B004804FEA4905994594BF28464FF0FF3069
S3150800B1C009F0B8F9CDE900090544A84221D11020B3
S3150800B1D009F0AEF903460546114A43F8042BDDE9A2
S3150800B1E0000183E80300C5F80C80102009F0A0F9D7
S3150800B1F00C4B2A46394609F01DFB0C2009F098F934
S3150800B200094B8560C0E900366061204602B0BDE89A
S3150800B210F08720F802ABD8E7EC510208FCFFFF3FA5
S3150800B220185202084852020840520208B0F90400AF
S3150800B23070470B6808469B6818474368585C704710
S3150800B240436801205A5470478068704710B5044B0C
S3150800B25003601C330446C36008F059FF204610BD3E
S3150800B2606452020810B50446FFF7F0FF2046242171
S3150800B27009F06AF9204610BDF8B51D460B68084660
S3150800B2809B6816460C469847B0420BD92B681F6830
S3150800B290236831461B682046984701462846B84722
S3150800B2A00120F8BD0020FCE773B51E460B6808466A
S3150800B2B09B6815460C469847A8420ED933680DF187
S3150800B2C007011B683046984723689DF807205B6886
S3150800B2D029462046984702B070BD0020FBE710B506
S3150800B2E00446406903681B68984758B12069D0F836
S3150800B2F08C308C301B689847B4F91C308342D4BF15
S3150800B3000020012010BDA0F10C00FFF7E8BF70B5C2
S3150800B3108468406823681D68836808301B689847F6
S3150800B3202B4601462046BDE870401847B0F906305E
S3150800B3308B4206DCB0F908308B4202DB81800120A3
S3150800B34070470020704700002DE9F7430D461E465A
S3150800B3500446174608F0E4FE244A22601C32C4E973
S3150800B36003267E68D5F8008095F80490304609F0E3
S3150800B370E1F8CDE900060644864234D10C2009F0EE
S3150800B380D7F8034606461A4A43F8042BDDE90001B6
S3150800B39083E80300102009F0CBF832464146154BE6
S3150800B3A009F048FA0C2009F0C3F8134BB5F90C203C
S3150800B3B0B5F910108660C0E900376061B5F90E303E
S3150800B3C00E48AD68A061A183E2832384102009F0AA
S3150800B3D0AFF80B4B04F11802294609F02BFA204660
S3150800B3E003B0BDE8F08300F8019BC5E76452020884
S3150800B3F090520208C0520208B85202085452020873
S3150800B400004F020810B504460069436914301B68EA
S3150800B410984738B92069C36D5C301B689847C0F3F4
S3150800B420C03010BD0020FCE7A0F10C00FFF7EABF12
S3150800B43010B5044B03601C330446C36008F067FE6E
S3150800B440204610BDCC52020810B50446FFF7F0FF9F
S3150800B4502046142109F078F8204610BD38B5044670
S3150800B4600D4608F05DFE034B23601C33C4E9033523
S3150800B470204638BDCC52020810B504460069C36C94
S3150800B4804C301B689847D4E9053203EB42029A42CE
S3150800B490194605D0B1F90040844203F10203F6D1FA
S3150800B4A0501A18BF012010BDA0F10C00FFF7E4BF29
S3150800B4B010B5044B03601C330446C36008F027FE2E
S3150800B4C0204610BDF852020810B50446FFF7F0FFF3
S3150800B4D020461C2109F038F8204610BD37B5044629
S3150800B4E00D468DE80C0008F01BFE9DE80300054B91
S3150800B4F02360C4E905011C332046C4E9033503B0BB
S3150800B50030BD00BFF852020890F8240080F0010010
S3150800B5107047A0F10C00F7E710B5044B03601C3325
S3150800B5200446C36008F0F3FD204610BD2453020804
S3150800B53010B50446FFF7F0FF2046282109F004F865
S3150800B540204610BD70B504460069436F74301B6809
S3150800B55098470646606903681B6898470546A069C8
S3150800B56003681B689847AE4234BF00230123A27FB5
S3150800B570864288BF00239A4203D000226277A377C7
S3150800B58070BD637F217F994286BF0133637784F854
S3150800B5902420F5E72DE9F743D0F804801A4B0E6806
S3150800B5A0B1F808904F684FEA48040546984594BF95
S3150800B5B020464FF0FF3008F0BDFFCDE900080444EF
S3150800B5C0A0421ED1102008F0B3FF034604460F4AD6
S3150800B5D043F8042BDDE9000183E80300E760102047
S3150800B5E008F0A6FF0A4B2246314609F023F90C203B
S3150800B5F008F09EFF074B8460C0E9003503B0BDE83C
S3150800B600F08320F8029BDBE7FCFFFF3F1852020895
S3150800B6104852020840520208F8B504461F460D462D
S3150800B620164608F07DFD0D4A22601C32C4E9032740
S3150800B63029463046FFF7AEFF05F10C01606130463A
S3150800B640FFF7A8FF2B7E064A237763770023A061BE
S3150800B650A377226284F824302046F8BD24530208D2
S3150800B660D04F020838B504460069C36C4C301B68D5
S3150800B67098470546606903681B6898478542ACBFCA
S3150800B6800020012038BDA0F10C00FFF7EBBF0B68C6
S3150800B69008469B681847436833F911007047806865
S3150800B6A07047000010B5044B03601C330446C360A2
S3150800B6B008F02DFD204610BD5053020810B504466B
S3150800B6C0FFF7F0FF2046182108F03EFF204610BD80
S3150800B6D0F8B51D460B6808469B6816460C469847FB
S3150800B6E0B0420BD92B68DF68236831461B682046B1
S3150800B6F0984701462846B8470120F8BD0020FCE7D0
S3150800B70073B51E460B6808469B6815460C4698474F
S3150800B710A8420ED933680DF10601DB683046984712
S3150800B7202368BDF906205B6829462046984702B07B
S3150800B73070BD0020FBE770B58468406823681D6803
S3150800B740836808301B6898472B4601462046BDE8A3
S3150800B75070401847B0F90C30934208DCB0F90E3047
S3150800B760934204DB4368012023F811207047002028
S3150800B770704700002DE9F34716460D461F46044656
S3150800B78008F0CEFC1F4AD6F804901F4B22601C32E4
S3150800B790C4E90327B5F908A02F68D5F804804FEA4D
S3150800B7A04905994594BF28464FF0FF3008F0C2FE78
S3150800B7B0CDE900090544A84221D1102008F0B8FEB9
S3150800B7C003460546114A43F8042BDDE9000183E8E0
S3150800B7D00300C5F80C80102008F0AAFE0C4B2A4678
S3150800B7E0394609F027F80C2008F0A2FE094B8560B7
S3150800B7F0C0E900366061204602B0BDE8F08720F84F
S3150800B80002ABD8E750530208FCFFFF3F7C530208FF
S3150800B810AC530208A4530208807E7047807B7047A9
S3150800B82038B50446406903681B6898470546206989
S3150800B83003681B68984718B1237E23B145B9607E13
S3150800B840A076657638BD2DB1607E80F00100F7E7F9
S3150800B8500020F5E72846F3E710B5044B03601C33D0
S3150800B8600446C36008F053FC204610BDB8530208CE
S3150800B87010B50446FFF7F0FF20461C2108F064FEC9
S3150800B880204610BD2DE9F34717460E46044698464E
S3150800B89008F046FC1C4B7D6823601C332846E36091
S3150800B8A0D6F8049096F808A008F044FECDE90005FD
S3150800B8B00544854225D10C2008F03AFE0346054684
S3150800B8C0124A43F8042BDDE9000183E8030010203F
S3150800B8D008F02EFE0E4B2A46494608F0ABFF0C2010
S3150800B8E008F026FE0B4B8560C0E9003733782376CF
S3150800B8F0C4E90408002320466376A37602B0BDE8AF
S3150800B900F08700F801ABD4E7B85302089052020852
S3150800B910C0520208B852020890F8280080F00100C8
S3150800B9207047A0F10C00F7E710B5044B03601C3311
S3150800B9300446C36008F0EBFB204610BDE45302083A
S3150800B94010B50446FFF7F0FF20462C2108F0FCFD51
S3150800B950204610BDF8B50446806903681B689847F9
S3150800B9600646E06903681B6898470546A0690368A8
S3150800B9701B6898470746606903681B689847BD4275
S3150800B98028BF3D46ADB2002808BF35462069036882
S3150800B9901B68984794F82230A84234BF002001203B
S3150800B9A0984205D0002384F8213084F82200F8BD97
S3150800B9B094F8213094F820209A4286BF013384F8FF
S3150800B9C0213084F82800F2E7F8B504460D461646F5
S3150800B9D01F4608F0A5FB104A069B22601C32C4E9E4
S3150800B9E00327636129463046FFF7D4FD05F10C01AC
S3150800B9F0A0613046FFF7CEFD2B7E084A84F820303A
S3150800BA0084F821300023E06184F82230626284F8E9
S3150800BA1028302046F8BD00BFE4530208D04F02087C
S3150800BA2073B54368ADF80610A3B1046803F1804303
S3150800BA30B4F90050013BA94204EB830634F92330DC
S3150800BA40BABF294622460DF106028B42B8BF3246D6
S3150800BA50B2F900100181012002B070BD08B5406836
S3150800BA60FFF7DEFF012008BD074B10B5044603604B
S3150800BA70C06818B16169091A08F066FD204608F021
S3150800BA8046FB204610BD00BF5854020810B50446B0
S3150800BA90FFF7EAFF2046502108F056FD204610BD64
S3150800BAA0B0F91030934209DCB0F91230934205DB45
S3150800BAB0036803EB810301205A8070470020704712
S3150800BAC04368B3F9080070474368D3E90030C01AE1
S3150800BAD0801070474368D3E90030C01A8010704759
S3150800BAE043681B6803EB8103B3F902007047436898
S3150800BAF01B6833F92100704708B54068FFF7D0FF87
S3150800BB0008BDB0F90C30934210B517DCB0F90E3009
S3150800BB10934213DB046804EB810324F8212041686F
S3150800BB2004330431994201D1012010BD33F9040CC4
S3150800BB309042B8BF23F8042C0433F3E70020F4E757
S3150800BB4008B54068FFF7DDFF08BD000070B504467C
S3150800BB5026460D4608F0E4FA324B46F80C3B4020E0
S3150800BB6008F0E6FC00F14002E0606261034600214D
S3150800BB701980598004339A42FAD14FF096632261AC
S3150800BB804FF0FA62C4E90623274B284AC4E9083667
S3150800BB90274BC4E90A36031D4430118823F8041CD0
S3150800BBA0518823F8021C0433834202F10402F4D1BB
S3150800BBB0102008F0BDFC04F120021E4B1E49064663
S3150800BBC008F038FE304608F097FD102008F0B0FC63
S3150800BBD004F12802174B1949064608F02BFE304691
S3150800BBE008F08AFDD4E903135B1A9B10C4E90C1309
S3150800BBF000232387124B134804F13002C4E90F329D
S3150800BC00114B2946C4E911320CF04EFAE0641020B3
S3150800BC1008F08EFC0D4B0E4904F13C0208F00AFEB2
S3150800BC20204670BD58540208105402086854020889
S3150800BC3024540208AC530208F0540208D0540208EF
S3150800BC4038540208A854020848540208004F02084B
S3150800BC50CC540208F0B585B0CDE9020100EB8105A8
S3150800BC6041F31D030446002B06DCAC4211D134F91E
S3150800BC70023C184605B0F0BD591004EB810634F9AC
S3150800BC8021709742DEBF591A01F1FF31341D0B4668
S3150800BC90E9E7A042B4F90230EBD0B4F9005034F920
S3150800BCA0021C34F9040C00922A4608F060FC03B220
S3150800BCB0DFE708B543682BB1B0F9082003C8FFF7DA
S3150800BCC0C9FF08BD1846FCE708B54068FFF7F1FF4D
S3150800BCD008BDC36C70B503F164055B6E44305C68DF
S3150800BCE0FFF7F2FF234601462846BDE8704018478D
S3150800BCF0074B10B504460360C06818B16169091A94
S3150800BD0008F022FC204608F002FA204610BD00BFC3
S3150800BD101855020810B50446FFF7EAFF20465021D9
S3150800BD2008F012FC204610BD70B5044626460D469E
S3150800BD3008F0F6F9324B46F80C3B402008F0F8FBC1
S3150800BD4000F14002E06062610346002119805980D3
S3150800BD5004339A42FAD14FF0966322614FF0FA62A1
S3150800BD60C4E90623274B284AC4E90836274BC4E901
S3150800BD700A36031D4430118823F8041C518823F819
S3150800BD80021C0433834202F10402F4D1102008F0A5
S3150800BD90CFFB04F120021E4B1E49064608F04AFD59
S3150800BDA0304608F0A9FC102008F0C2FB04F128026E
S3150800BDB0174B1949064608F03DFD304608F09CFC2D
S3150800BDC0D4E903135B1A9B10C4E90C1300232387D9
S3150800BDD0124B134804F13002C4E90F32114B2946BD
S3150800BDE0C4E911320CF060F9E064102008F0A0FBF9
S3150800BDF00D4B0E4904F13C0208F01CFD204670BDAF
S3150800BE0018550208105402084C5502082454020812
S3150800BE10AC530208F0540208D054020838540208F9
S3150800BE202855020848540208004F0208CC54020854
S3150800BE30C36C70B503F164055B6E44305C68FFF74C
S3150800BE4043FF234601462846BDE8704018470000D0
S3150800BE50074B10B504460360C06818B16169091A32
S3150800BE6008F072FB204608F052F9204610BD00BFC4
S3150800BE709455020810B50446FFF7EAFF20465021FC
S3150800BE8008F062FB204610BD70B5044626460D46EE
S3150800BE9008F046F9324B46F80C3B402008F048FBC0
S3150800BEA000F14002E0606261034600211980598072
S3150800BEB004339A42FAD14FF0966322614FF0FA6240
S3150800BEC0C4E90623274B284AC4E90836274BC4E9A0
S3150800BED00A36031D4430118823F8041C518823F8B8
S3150800BEE0021C0433834202F10402F4D1102008F044
S3150800BEF01FFB04F120021E4B1E49064608F09AFC59
S3150800BF00304608F0F9FB102008F012FB04F128026D
S3150800BF10174B1949064608F08DFC304608F0ECFB2D
S3150800BF20D4E903135B1A9B10C4E90C130023238777
S3150800BF30124B134804F13002C4E90F32114B29465B
S3150800BF40C4E911320CF0B0F8E064102008F0F0FAF9
S3150800BF500D4B0E4904F13C0208F06CFC204670BDFE
S3150800BF609455020810540208A455020824540208DD
S3150800BF70AC530208F0540208D05402083854020898
S3150800BF80E455020848540208004F0208CC54020837
S3150800BF90C36C70B503F164055B6E44305C68FFF7EB
S3150800BFA093FE234601462846BDE870401847000020
S3150800BFB0074B10B504460360C06818B16169091AD1
S3150800BFC008F0C2FA204608F0A2F8204610BD00BFC5
S3150800BFD01056020810B50446FFF7EAFF204650211E
S3150800BFE008F0B2FA204610BD70B5044626460D463E
S3150800BFF008F096F8324B46F80C3B402008F098FAC1
S3150800C00000F14002E0606261034600211980598010
S3150800C01004339A42FAD14FF0966322614FF0FA62DE
S3150800C020C4E90623274B284AC4E90836274BC4E93E
S3150800C0300A36031D4430118823F8041C518823F856
S3150800C040021C0433834202F10402F4D1102008F0E2
S3150800C0506FFA04F120021E4B1E49064608F0EAFB59
S3150800C060304608F049FB102008F062FA04F128026D
S3150800C070174B1949064608F0DDFB304608F03CFB2D
S3150800C080D4E903135B1A9B10C4E90C130023238716
S3150800C090124B134804F13002C4E90F32114B2946FA
S3150800C0A0C4E911320CF000F8E064102008F040FAF8
S3150800C0B00D4B0E4904F13C0208F0BCFB204670BD4E
S3150800C0C01056020810540208205602082454020882
S3150800C0D0AC530208F0540208D05402083854020837
S3150800C0E06056020848540208004F0208CC54020859
S3150800C0F0C36C70B503F164055B6E44305C68FFF78A
S3150800C100E3FD234601462846BDE87040184700006F
S3150800C110074B10B504460360C06818B16169091A6F
S3150800C12008F012FA204607F0F2FF204610BD00BFBD
S3150800C1308C56020810B50446FFF7EAFF2046502140
S3150800C14008F002FA204610BD70B5044626460D468C
S3150800C15007F0E6FF324B46F80C3B402008F0E8F9BA
S3150800C16000F14002E06062610346002119805980AF
S3150800C17004339A42FAD14FF0966322614FF0FA627D
S3150800C180C4E90623274B284AC4E90836274BC4E9DD
S3150800C1900A36031D4430118823F8041C518823F8F5
S3150800C1A0021C0433834202F10402F4D1102008F081
S3150800C1B0BFF904F120021E4B1E49064608F03AFB59
S3150800C1C0304608F099FA102008F0B2F904F128026E
S3150800C1D0174B1949064608F02DFB304608F08CFA2D
S3150800C1E0D4E903135B1A9B10C4E90C1300232387B5
S3150800C1F0124B134804F13002C4E90F32114B294699
S3150800C200C4E911320BF050FFE064102008F090F9F1
S3150800C2100D4B0E4904F13C0208F00CFB204670BD9C
S3150800C2208C560208105402089C5602082454020828
S3150800C230AC530208F0540208D054020838540208D5
S3150800C240DC56020848540208004F0208CC5402087B
S3150800C250C36C70B503F164055B6E44305C68FFF728
S3150800C26033FD234601462846BDE87040184770B599
S3150800C270064603F08BFC0446A82008F059F9314617
S3150800C28005460FF02BFE294604F1C000BDE87040B4
S3150800C29007F07ABF10B5034B0360044607F037FF73
S3150800C2A0204610BD0857020810B50446FFF7F2FFEE
S3150800C2B020466C2108F048F9204610BD10B5034BFE
S3150800C2C00360044607F023FF204610BD20570208E6
S3150800C2D010B50446FFF7F2FF20463C2108F034F972
S3150800C2E0204610BD10B5034B03600446FFF7E6FF72
S3150800C2F0204610BD4857020810B50446FFF7F2FF5E
S3150800C3002046442108F020F9204610BDC268B0F93D
S3150800C310203073B5B2F948100B44B0F93C108B4283
S3150800C320CCBF01230023044680F8603003DD9088E3
S3150800C330A08202B070BD806903681B689847E368ED
S3150800C340B3F93A10B4F93C30194488420546B4BFEB
S3150800C3500021012104F1440008F045F8E368B4F926
S3150800C3602010B3F922302B448B42CCBF0021012187
S3150800C37004F1280008F037F8B4F92060B4F93C0055
S3150800C380E36894F85820D9891B8AB542B8BF354660
S3150800C3902DB28542A8BF0546009522B90246304609
S3150800C3A008F0E5F8C4E73246FAE770B50D461646D2
S3150800C3B00446102008F0BCF833462A462146BDE854
S3150800C3C0704008F037BA10B500210446283008F046
S3150800C3D004F8002104F1440007F0FFFF002384F865
S3150800C3E06030E3689B88A38210BD08B5FFF7EBFFB2
S3150800C3F008BD10B50446FFF7E6FF626E9389013360
S3150800C4009381A26E93890133938110BD08B5406864
S3150800C410FFF7EFFF08BDF8B5054610200E4617468C
S3150800C42008F086F83B4604463246294608F002FAE2
S3150800C4302046F8BDD0E906239B1A5810002BB8BF32
S3150800C4400B30704770B504461430FFF7F3FF00222F
S3150800C45004F12A01904208D1002304F12A051E4658
S3150800C4609A420BD10023238770BDE36A02338B42BD
S3150800C47002D2E3620132EDE7163BF8E7206B811C36
S3150800C480A94203D2068001332163E9E71639F7E7A3
S3150800C490406808B50430FFF7CDFF80B208BD38B54F
S3150800C4A0D0E90632002400F116019A4205D1FFF7B9
S3150800C4B0C1FFB4FBF0F080B238BD33F8025B2C4400
S3150800C4C08B42F2D3163BFBE710B50446C0680368F7
S3150800C4D01B689847236B04F11402023B9A420BD857
S3150800C4E02363E36A023B9A4208D81880E36210463F
S3150800C4F0FFF7D5FF208710BD1633EFE71633F2E7AF
S3150800C5000A29F8B528BF0A21071D01290446384615
S3150800C5100D46164638BF0125FFF78CFF2A1A114625
S3150800C52004F11A0C00290EDB002AA0EB0500C8BF8F
S3150800C5300020104404F11A0570B91AB13846FFF7FD
S3150800C540AEFF2085F8BDE3690233634502D2E36195
S3150800C5500131E7E7163BF8E7216A8B1CAB4203D2A9
S3150800C5600E8001382362E7E7163BF7E72DE9F04F1F
S3150800C5708DB005460068049103F008FB83462868D9
S3150800C580DFF890A1644F03F06EF881466C2007F03F
S3150800C590CFFF044604F1100607F0C2FD5F4B236087
S3150800C5A04FF0000809F58073C4F80CA041F28839E9
S3150800C5B0C6F80480A3615A4BE361C4F82090A4F836
S3150800C5C024900AF12401276104F1280008F0C0FD2F
S3150800C5D0534BA4F84090C4E90E380AF13C0104F123
S3150800C5E0440008F0B5FD4F4B6365C4F85880022235
S3150800C5F041F2017104F15C0004F1380808F06CFDA1
S3150800C600494A4A484146FFF706FF04F11C09464ACB
S3150800C610606649464648FFF7FEFE464AA06631462A
S3150800C6204548FFF7C2FEA1693F4A4448FFF7F3FEB3
S3150800C630E368D96C49B11020059107F079FF404BA2
S3150800C640059904F1540208F0F5F821460BF1C000EB
S3150800C65007F09AFD286803F099FAA369CDF82480B3
S3150800C660CDE90739374B82464820CDE90A3407F029
S3150800C6705FFF0CAB044613E90F008DE80F00079B1C
S3150800C680049A3149204609F08FF921460AF1C0007B
S3150800C69007F07AFD286803F079FA8046442007F007
S3150800C6A047FF044607F03CFD284B2360E660162248
S3150800C6B0002104F1140012F057FC04F110060022C0
S3150800C6C0C4E90B00C4E90D7230460A21FFF718FFCA
S3150800C6D004F13401174A1E48FFF767FE1D4B236015
S3150800C6E01D4B144A1D48C4E90F3604F13C01FFF7F7
S3150800C6F05CFE214608F1C00007F046FD0D4A1848C1
S3150800C70004F13401FFF751FE04F134000DB0BDE821
S3150800C710F08F00BF58570208AC51020808570208A4
S3150800C72054520208AC4C0208004F0208DC570208B3
S3150800C730E0570208F04E0208D0570208C857020808
S3150800C740F44E02080DC40008A8570208205702082C
S3150800C750CC5702084857020838570208D857020823
S3150800C760D45702080A2908B505D840680022FFF7F9
S3150800C770C7FE012008BD0020FCE703685B68184770
S3150800C78070B5D0E90334226855681A6818461268E5
S3150800C79090472B4601462046BDE8704018470000E2
S3150800C7A010B5034B0360044607F0B1FC204610BDE4
S3150800C7B0F457020810B50446FFF7F2FF20461C217D
S3150800C7C007F0C2FE204610BD10B5034B03600446B1
S3150800C7D007F09DFC204610BD2458020810B50446F3
S3150800C7E0FFF7F2FF2046142107F0AEFE204610BDE3
S3150800C7F010B5034B0360044607F089FC204610BDBC
S3150800C8000C58020810B50446FFF7F2FF20461C2113
S3150800C81007F09AFE204610BD70B50D46164604462A
S3150800C820102007F085FE33462A462146BDE87040AB
S3150800C83008F000B8F8B5054614200F46164607F066
S3150800C84077FE044607F06CFC054B2360C4E90376C3
S3150800C850214605F1C000BDE8F84007F095BC00BFC9
S3150800C8602458020803F092B938B5044608200D4644
S3150800C87007F05EFE236845600360206038BD00004F
S3150800C88070B50546006802F0EEFE06461C2007F065
S3150800C8904FFE044607F044FC0F4B23604FF47A72B0
S3150800C8A00023E28106F5A5660C4AA3812376626118
S3150800C8B028682661FFF7D6FF696804F11402AC31CF
S3150800C8C0FFF7B8FF2868FFF7CDFF2146C030BDE85F
S3150800C8D0704007F059BC00BFF4570208AC4C020878
S3150800C8E070B50446006802F0BEFE0646282007F02A
S3150800C8F01FFE06F5AB61C822054609F067FB2068EE
S3150800C900FFF7B0FF616805F118024031FFF792FFA3
S3150800C9102068FFF7A7FF616805F110027831FFF775
S3150800C92089FF2068FFF79EFF2946C030BDE87040A2
S3150800C93007F02ABC2DE9F0410446D0E90006FFF7C6
S3150800C94091FF62680746206802F14805FFF78AFFEB
S3150800C9508046282007F0ECFD434604462A46084947
S3150800C960FEF75AFE214607F1C00007F00DFC04F158
S3150800C9700C0106F12C00FFF777FFBDE8F08100BF38
S3150800C980885802082DE9F04105460068FFF76AFF56
S3150800C9906A680746286802F14806FFF763FF80467B
S3150800C9A0182007F0C5FD4346044632460B49FEF7F4
S3150800C9B0EBFB214607F1C00007F0E6FB6D6804F1C2
S3150800C9C00C0105F12C00FFF74FFF04F10C0105F1EE
S3150800C9D03000FFF749FFBDE8F08100BF7C58020828
S3150800C9E02DE9F0410446D0E90006FFF73BFF6268EF
S3150800C9F00746206802F14805FFF734FF80461820ED
S3150800CA0007F096FD434604462A460849FEF7B2FE55
S3150800CA10214607F1C00007F0B7FB04F10C0106F147
S3150800CA202C00FFF721FFBDE8F08100BF705802080F
S3150800CA302DE9F7430446D0E90007FFF713FF6268BC
S3150800CA408046206802F14805FFF70CFF81462C2036
S3150800CA50646807F06DFDAC34064609F5E4732A46AA
S3150800CA6008490094FEF7B0FF314608F1C00007F008
S3150800CA708BFB06F10C0107F12C00FFF7F5FE03B05E
S3150800CA80BDE8F0835458020870B5006816460C468F
S3150800CA9002F0E9FD3C235C4300F21C4531462819A7
S3150800CAA0FDF7D4FC04F11000284470BD38B50A46D9
S3150800CAB001210546FFF7E8FF04462868FFF7D2FE7E
S3150800CAC021468462024A0348BDE83840FFF7A4BEFF
S3150800CAD0F44E0208D058020838B50A46022105461F
S3150800CAE0FFF7D2FF044A044601460448FFF794FEBE
S3150800CAF06B689C6138BD00BFF44E0208D85802081E
S3150800CB0038B50A4603210546FFF7BEFF044A044620
S3150800CB1001460448FFF780FE6B681C6238BD00BFFB
S3150800CB20F44E0208DC580208F8B5044600680D46BB
S3150800CB301F46164602F097FD3C2303FB05002946CF
S3150800CB4080F83C7432462046FFF79EFF054A0146A8
S3150800CB5005460548FFF760FE2068FFF783FE056176
S3150800CB60F8BD00BFF44E0208D4580208F7B50546CA
S3150800CB700068FFF777FE06462868FFF773FE074644
S3150800CB801C2007F0D5FC0F4B009303230193DDE926
S3150800CB90002304463946FEF7A1FC214606F1C000EB
S3150800CBA007F0F2FA6D6804F10C0105F12C00FFF7A5
S3150800CBB05BFE04F10C0105F13000FFF755FE03B0EA
S3150800CBC0F0BD00BFA4580208F8B50446D0E9000530
S3150800CBD0FFF748FE06462068FFF744FE074614207E
S3150800CBE007F0A6FC39460446FEF738FC214606F14E
S3150800CBF0C00007F0C9FA04F10C0105F12C00FFF793
S3150800CC0033FEF8BD2DE9F04104460068FFF72AFE19
S3150800CC1062680746206802F14805FFF723FE80464A
S3150800CC20242007F085FC434606462A460749FEF7B0
S3150800CC308BFB314607F1C00007F0A6FA606806F1DB
S3150800CC400C013030FFF710FEBDE8F08140580208AD
S3150800CC502DE9F041044600688846FFF703FE62683E
S3150800CC6007461C2002F1480507F062FC43460646C3
S3150800CC702A460849FEF706FE314607F1C00007F0C6
S3150800CC8083FA606806F10C013030FFF7EDFDBDE868
S3150800CC90F08100BF34580208436819617047436839
S3150800CCA09961704743681962704708B5406824302F
S3150800CCB0FFF7DAFD08BD08B540682830FFF7D4FD50
S3150800CCC008BDF7B5044600688DE80600FFF7CAFDFB
S3150800CCD006462068FFF7C6FD07461C2007F028FC15
S3150800CCE09DE80C0005463946FEF7F8FB294606F18D
S3150800CCF0C00007F049FA05F10C01204603B0BDE86B
S3150800CD00F040FFF7D8BF00002DE9F743054608466F
S3150800CD10296801920BF0C8F906462868FFF7A2FDB4
S3150800CD2007461C20BDF90490BDF9068007F000FCF3
S3150800CD30044607F0F5F9134B2360134B6361643619
S3150800CD40002323762661A4F80C90A4F80E802146C9
S3150800CD5007F1C00007F018FA2868FFF783FD0646B2
S3150800CD602868FFF77FFD143400F11C01224630467F
S3150800CD70FFF760FD2868FFF775FD846103B0BDE81D
S3150800CD80F08300BF0C580208AC4C02082DE9F843A2
S3150800CD900446006888469146FFF764FD0646206803
S3150800CDA0FFF760FD07464FF48C7007F0C1FB4B4652
S3150800CDB00546424639460DF021FE294606F1C000D1
S3150800CDC007F0E2F9702007F0B3FB06462068FFF784
S3150800CDD049FD05F1BC0100F1940230460DF0E8F971
S3150800CDE063682068BC3368362B61AE61FFF73AFD8D
S3150800CDF006462068FFF736FD0746D82007F098FB59
S3150800CE003946044605F134020DF000F8214606F1CC
S3150800CE10C000BDE8F84307F0B7B910B50446006886
S3150800CE20FFF725FA204610BD2DE9FF4104460160AB
S3150800CE300846FFF717FD06462068FFF713FD074665
S3150800CE40DC2007F075FB39460546FDF73DFE294609
S3150800CE5006F1C00007F098F96560206802F003FC47
S3150800CE60D0F8503406465B68002100F58A6098477A
S3150800CE70274A51681068128901AB03C320681A80D3
S3150800CE804FF096730193FFF7EDFC0746782007F0FD
S3150800CE904FFB01AA054606F22C4108F0E3FF294696
S3150800CEA007F1C00007F070F92068FFF7DBFC62683D
S3150800CEB00746142002F1400607F03AFB3246804640
S3150800CEC005F1340109F03CF8414607F1C00007F0C6
S3150800CED05BF92068FFF7C6FC62680746142002F172
S3150800CEE0780607F025FB3246804605F11C0109F055
S3150800CEF027F8414607F1C00007F046F92046FFF734
S3150800CF00BFFC2046FFF7ECFC204604B0BDE8F081E4
S3150800CF10E058020803460069197E0268526811B192
S3150800CF20B3F90E101047B3F90C10FBE708B5FFF775
S3150800CF30F1FF08BD08B5FFF7EDFF08BD0346006918
S3150800CF40197E0268526809B1D98910479989FCE7A0
S3150800CF5008B5FFF7F3FF08BD08B5FFF7EFFF08BDF3
S3150800CF6070474368084618472DE9F743814602F09B
S3150800CF700DFE0646484602F082FB00F56875382025
S3150800CF8007F0D6FA06F1C004074629460EF04AFC11
S3150800CF903946204607F0F8F8382007F0C9FA294636
S3150800CFA080460EF06BFD4146204608F1300807F032
S3150800CFB0EBF8C6F860801C2007F0BAFA4FF49A72AC
S3150800CFC007464146FDF734FF39462046143707F031
S3150800CFD0DBF8B767C6F88070102007F0A9FA3A465A
S3150800CFE0654B664907F026FC382007F0A1FA294662
S3150800CFF007460EF07DFD39462046303707F0C4F85F
S3150800D000C6F89070382007F093FA294607460EF0BE
S3150800D010E3FD39462046303707F0B6F8C6F898706B
S3150800D020382007F085FA294607460EF00FFE3946DE
S3150800D0302046303707F0A8F8C6F8A070382007F061
S3150800D04077FA294607460EF03BFE39462046303722
S3150800D05007F09AF8B762382007F06AFA29460746B1
S3150800D0600EF076FC39462046303707F08DF83761E2
S3150800D070382007F05DFA294607460EF00DFC3946BA
S3150800D0802046303707F080F83767382007F050FA1F
S3150800D090294607460EF066FD3946204607F074F81D
S3150800D0A0382007F045FA294607460EF08FFC394620
S3150800D0B0204607F069F849466846FFF7B5FE684610
S3150800D0C0FFF760FC6846FFF735FC6846FFF788FC03
S3150800D0D06846FFF74BFD6846FFF7AAFC6846FFF768
S3150800D0E091FD4C2007F024FA294607460EF054FE17
S3150800D0F03946204607F048F807F12008102007F0BF
S3150800D10017FA42461E4B1F4907F094FB07F12805FC
S3150800D110102007F00DFA1A4B1B492A4607F08AFB1E
S3150800D12007F13C01C6F8508035636846FFF7B4FD41
S3150800D130502007F0FDF949460546FEF707FD302061
S3150800D14007F0F6F9114A06464946FDF767FF3146E4
S3150800D150204607F019F805F13C0268460C49FFF726
S3150800D16015FE2946204607F00FF86846FFF755FED4
S3150800D17003B0BDE8F08300BFF04E0208D45702089A
S3150800D180004F020860590208645902083C5902080F
S3150800D190485902082DE9F04F85B08946074602F03E
S3150800D1A0F5FC0546384602F05EFA8246384602F035
S3150800D1B066FA00F56876382007F0BAF905F1C00472
S3150800D1C0804631460FF0D2FA4146204606F0DCFF8B
S3150800D1D0382007F0ADF9314683460FF079FB5946FA
S3150800D1E020460BF1300B06F0CFFFC5F860B01C20C7
S3150800D1F007F09EF94FF49A7280465946FDF718FED5
S3150800D2004146204608F1140806F0BEFFC5F87880A6
S3150800D210C5F88080102007F08BF942466C4B6D49A3
S3150800D22007F008FB382007F083F9314680460FF0EF
S3150800D23089FB4146204606F0A7FF08F13003C5F8EA
S3150800D2409030642007F074F90AF514728046624932
S3150800D25008F05EFA4146204606F096FF08F14C03B0
S3150800D260C5F89830382007F063F9314680460FF044
S3150800D2704FFC4146204606F087FF08F13003C5F803
S3150800D280A030B9F1000F0DD0382007F051F931461A
S3150800D29080460FF091FB4146204606F075FF08F1DF
S3150800D2A03003AB62382007F043F9314680460FF069
S3150800D2B0D1FA4146204606F067FF08F130032B6194
S3150800D2C0382007F035F9314680460FF089FA41468D
S3150800D2D0204606F059FF08F130032B6739466846A1
S3150800D2E0FFF7A2FD6846FFF74DFB6846FFF722FBEE
S3150800D2F06846FFF775FB6846FFF738FC6846FFF790
S3150800D30097FB6846FFF77EFC482007F011F931467F
S3150800D31080460FF0C5FB4146204606F035FF08F16A
S3150800D3202009102007F004F94A462C4B2C4907F02F
S3150800D33081FA08F12806102007F0FAF83246274B3A
S3150800D340284907F077FA102007F0F2F808F14002AA
S3150800D350254B264907F06EFA08F140016846FFF7A3
S3150800D36077FCC5F850902E6308F138016846FFF738
S3150800D3709CFC1F4B029301230393DDE902126846C6
S3150800D380FFF79FFC502007F0D3F839460546FEF70D
S3150800D3907BFD302007F0CCF8164A06463946FDF7DD
S3150800D3A03DFE3146204606F0EFFE05F13C02684692
S3150800D3B01149FFF7EBFC2946204606F0E5FE3846FC
S3150800D3C0FEF755FF6846FFF728FD05B0BDE8F08F64
S3150800D3D0F04E0208D457020880720208004F02086D
S3150800D3E06059020864590208F44E0208EC5902080A
S3150800D3F0E8590208DC590208CC5902080121FFF74E
S3150800D400C9BE0021FFF7C6BE2DE9FF47074602F051
S3150800D410BDFB0546384602F026F98146384602F035
S3150800D4202EF900F56876382007F082F805F1C00471
S3150800D430804631460FF09AF94146204606F0A4FE8A
S3150800D440382007F075F8314682460FF041FA514602
S3150800D45020460AF1300A06F097FEC5F860A01C209F
S3150800D46007F066F84FF49A7280465146FDF7E0FCDD
S3150800D4704146204608F1140806F086FEC5F878806D
S3150800D480C5F88080102007F053F842466B4B6C496C
S3150800D49007F0D0F9382007F04BF8314680460FF0F0
S3150800D4A051FA4146204606F06FFE08F13003C5F8EA
S3150800D4B09030642007F03CF809F5147280466149FB
S3150800D4C008F026F94146204606F05EFE08F14C03B0
S3150800D4D0C5F89830382007F02BF8314680460FF00B
S3150800D4E017FB4146204606F04FFE08F13003C5F803
S3150800D4F0A030382007F01CF8314680460FF05CFA59
S3150800D5004146204606F040FE08F13003AB6238205B
S3150800D51007F00EF8314680460FF09CF94146204642
S3150800D52006F032FE08F130032B61382007F000F8C8
S3150800D530314680460FF054F94146204606F024FE4F
S3150800D54008F130032B6739466846FFF76DFC6846D5
S3150800D550FFF718FA6846FFF7EDF96846FFF740FA4D
S3150800D5606846FFF703FB6846FFF762FA6846FFF767
S3150800D57049FB482006F0DCFF314680460FF090FA5A
S3150800D5804146204606F000FE08F12009102006F064
S3150800D590CFFF4A462C4B2D4907F04CF908F12806CF
S3150800D5A0102006F0C5FF3246274B294907F042F9F5
S3150800D5B0102006F0BDFF08F14002264B264907F069
S3150800D5C039F908F140016846FFF742FBC5F8509063
S3150800D5D02E6308F138016846FFF767FB1F4B029375
S3150800D5E001230393DDE902126846FFF76AFB502020
S3150800D5F006F09EFF39460546FEF7A6FD302006F0E2
S3150800D60097FF174A06463946FDF708FD3146204674
S3150800D61006F0BAFD05F13C0268461249FFF7B6FB6B
S3150800D6202946204606F0B0FD3846FEF720FE684635
S3150800D630FFF7F3FB04B0BDE8F08700BFF04E020821
S3150800D640D457020848720208004F020860590208B7
S3150800D65064590208F44E0208EC590208E85902080F
S3150800D660405A0208545A02082DE9FF47804602F03C
S3150800D67006F800F56875404602F088FA064638202E
S3150800D68006F056FF06F1C0040746294610F0A8F82A
S3150800D6903946204606F078FD382006F049FF294627
S3150800D6A0814610F04FF94946204609F1300906F03F
S3150800D6B06BFDC6F860901C2006F03AFF4FF49A728C
S3150800D6C007464946FDF7B4FB39462046143706F0A7
S3150800D6D05BFDB767C6F88070102006F029FF3A464A
S3150800D6E0764B774907F0A6F8382006F021FF294639
S3150800D6F0074610F061F939462046303706F044FDF2
S3150800D700C6F89070382006F013FF2946074610F031
S3150800D7108DF939462046303706F036FDC6F898703A
S3150800D720382006F005FF2946074610F0B9F93946AC
S3150800D7302046303706F028FDC6F8A070382006F0D7
S3150800D740F7FE2946074610F0E5F9394620463037F0
S3150800D75006F01AFDB762382006F0EAFE29460746A3
S3150800D76010F0B2F839462046303706F00DFD37611D
S3150800D770382006F0DDFE2946074610F06BF83946D4
S3150800D7802046303706F000FD414637676846FFF702
S3150800D7904BFB6846FFF7F6F86846FFF7CBF868468E
S3150800D7A0FFF712FA6846FFF71BF96846FFF7DEF936
S3150800D7B06846FFF73DF96846FFF724FA4C2006F05D
S3150800D7C0B7FE2946074610F02DFA3946204606F0D8
S3150800D7D0DBFC07F1200A102006F0AAFE5246394B58
S3150800D7E0394907F027F807F12809102006F0A0FEA6
S3150800D7F04A46344B354907F01DF8C6F850A0C6F816
S3150800D800309007F13C016846FFF746FA07F14401F4
S3150800D8106846FFF74AFA2E4B029301230393DDE984
S3150800D82002126846FFF74DFA402006F081FE2946A7
S3150800D830064610F051FA3146204606F0A5FC06F1D8
S3150800D8402005102006F074FE2A46224B224906F0CF
S3150800D850F1FF102006F06CFE1E4B204906F130023F
S3150800D86006F0E8FF29466846FFF7F2F906F13001A7
S3150800D8706846FFF714FA502006F05AFE4146054658
S3150800D880FEF7B2FB302006F053FE154A064641461F
S3150800D890FDF7C4FB3146204606F076FC05F13C024E
S3150800D8A068461049FFF772FA2946204606F06CFCCE
S3150800D8B06846FFF7B2FA04B0BDE8F087F04E0208F2
S3150800D8C0D4570208004F0208605902086459020832
S3150800D8D0E8590208F44E0208EC590208D85802081A
S3150800D8E0C45A0208B45A02082DE9FF4707460146FA
S3150800D8F06846FFF799FA384601F0C1FE00F56874E4
S3150800D900384602F043F90546382006F011FE05F1BF
S3150800D910C006804621460FF04DFC4146304606F0CB
S3150800D92033FC382006F004FE214681460FF02EFD12
S3150800D9304946304609F1300906F026FCC5F86090DC
S3150800D9401C2006F0F5FD4FF49A7280464946FDF70D
S3150800D9506FFA4146304608F1140806F015FCC5F87A
S3150800D9607880C5F88080102006F0E2FD4246734BA9
S3150800D970734906F05FFF382006F0DAFD2146804637
S3150800D9800FF03EFD4146304606F0FEFB08F1300337
S3150800D990C5F89030382006F0CBFD214680460FF0BA
S3150800D9A069FD4146304606F0EFFB08F13003C5F83D
S3150800D9B09830902006F0BCFD214680460FF0B2FE56
S3150800D9C04146304606F0E0FB08F18803C5F8A0306A
S3150800D9D0382006F0ADFD214680460FF085FD41460C
S3150800D9E0304606F0D1FB08F13003AB62382006F06A
S3150800D9F09FFD214680460FF051FC4146304606F011
S3150800DA00C3FB08F130032B61382006F091FD21464F
S3150800DA1080460FF009FC4146304606F0B5FB08F192
S3150800DA2030032B676846FEF7ADFF6846FEF782FFB0
S3150800DA306846FEF7D5FF6846FFF798F86846FEF78A
S3150800DA40F7FF6846FFF7DEF84C2006F071FD214621
S3150800DA5080460FF0CBFD4146304606F095FB08F1AF
S3150800DA60200A102006F064FD5246364B364906F069
S3150800DA70E1FE08F12809102006F05AFD4A46314B06
S3150800DA80324906F0D7FEC5F850A0C5F8309008F11F
S3150800DA903C016846FFF700F908F144016846FFF7BC
S3150800DAA004F92B4B029301230393DDE9021268461E
S3150800DAB0FFF707F9282006F03BFD214605460FF03B
S3150800DAC0DBFD2946304606F05FFB102006F030FDE8
S3150800DAD0204B214905F1200206F0ACFE05F1200194
S3150800DAE06846FFF7B5F8384602F050F800F1C0046A
S3150800DAF0502006F01DFD39460546FEF775FA30201A
S3150800DB0006F016FD154A06463946FDF787FA3146E8
S3150800DB10204606F039FB05F13C0268461049FFF736
S3150800DB2035F92946204606F02FFB3846FEF79FFBB7
S3150800DB306846FFF772F904B0BDE8F087F04E0208B0
S3150800DB40D4570208004F02086059020864590208AF
S3150800DB50E8590208F44E0208EC590208305B02083C
S3150800DB60205B02082DE9FF41804601F088FD00F59B
S3150800DB706874404602F00AF80646382006F0D8FCD3
S3150800DB80214607460EF07AFA394606F1C0003037C4
S3150800DB9006F0FAFAB767102006F0CAFC364B374982
S3150800DBA03A4606F047FE382006F0C2FC21460746EC
S3150800DBB00EF09EFA394606F1C000303706F0E4FA50
S3150800DBC0C6F89070382006F0B3FC214607460EF0DA
S3150800DBD0C9FA394606F1C000303706F0D5FA376378
S3150800DBE0382006F0A5FC214607460EF0F5FA394618
S3150800DBF006F1C000303706F0C7FAC6F89870382024
S3150800DC0006F096FC214607460EF020FB394606F13B
S3150800DC10C000303706F0B8FA4146C6F8A07002A828
S3150800DC20FFF702F9002102A8FEF740FF02A8FEF757
S3150800DC3081FE02A8FEF7D4FE02A8FEF7E3FF02A8BB
S3150800DC40FEF7F6FE0E494FF07A7202A8FFF75CF867
S3150800DC50302006F06DFC0B4A04464146FDF7DEF916
S3150800DC60214606F1C00006F08FFA02A8FFF7D5F89C
S3150800DC7004B0BDE8F08100BFF04E0208CC57020898
S3150800DC80885B0208AC5B02082DE9F04385B0804644
S3150800DC9001F0F5FC00F56876404601F077FF054689
S3150800DCA0382006F045FC314607460EF009FB394692
S3150800DCB005F1C00006F068FA382006F039FC31464E
S3150800DCC081460EF0AFFB494605F1C00009F130095F
S3150800DCD006F05AFAC5F860901C2006F029FC4FF4A5
S3150800DCE09A7207464946FDF7A3F8394605F1C0007A
S3150800DCF0143706F049FAAF67C5F88070102006F0A9
S3150800DD0017FC3A46734B744906F094FD382006F022
S3150800DD100FFC314607460EF0BFFB394605F1C00039
S3150800DD20303706F031FAC5F89070382006F000FC56
S3150800DD30314607460EF0EAFB394605F1C000303792
S3150800DD4006F022FAC5F89870382006F0F1FB31463D
S3150800DD5007460EF015FC394605F1C000303706F0C7
S3150800DD6013FAC5F8A070382006F0E2FB31460746DC
S3150800DD700EF040FC394605F1C000303706F004FACB
S3150800DD80AF62382006F0D4FB314607460EF00CFB8E
S3150800DD90394605F1C000303706F0F6F92F6138200C
S3150800DDA006F0C6FB314607460EF0C4FA394605F1B9
S3150800DDB0C000303706F0E8F941462F676846FFF796
S3150800DDC033F86846FEF7DEFD6846FEF7B3FD68469B
S3150800DDD0FEF706FE6846FEF7C9FE6846FEF728FE09
S3150800DDE06846FEF70FFF582006F0A2FB31460746A5
S3150800DDF00EF080FC394605F1C00006F0C5F907F1BA
S3150800DE002009102006F094FB4A46344B344906F0A4
S3150800DE1011FD07F12806102006F08AFB32462F4B23
S3150800DE20304906F007FD2E63C5F85090102006F01D
S3150800DE307FFB07F130022C4B2C4906F0FBFC07F15F
S3150800DE4030016846FEF704FF07F140016846FEF711
S3150800DE5023FF07F150016846FEF727FF244B02937C
S3150800DE6001230393DDE902126846FEF72AFF5020D4
S3150800DE7006F05EFB41460646FEF766F9302006F0D8
S3150800DE8057FB1C4A07464146FDF7C8F8394605F1CF
S3150800DE90C00006F079F94FF48C7006F049FB164A73
S3150800DEA006F13C03074629460CF0A8FD394605F15C
S3150800DEB0C00006F069F9314605F1C00006F064F9BC
S3150800DEC04046FEF7D4F96846FEF7A7FF05B0BDE859
S3150800DED0F08300BFF04E0208D4570208004F02082C
S3150800DEE06059020864590208F44E0208EC590208FF
S3150800DEF0E8590208085C02081C5C02082DE9F74389
S3150800DF00804601F0BCFB00F56877404601F03EFE0E
S3150800DF100446382006F00CFB04F1C00506463946CF
S3150800DF200EF030FE31462846303606F02DF9A66743
S3150800DF30C4F88060102006F0FBFA3246564B574963
S3150800DF4006F078FC382006F0F3FA394606460EF055
S3150800DF5091FE31462846303606F016F9C4F8906028
S3150800DF60382006F0E5FA394606460EF0BDFE31467B
S3150800DF702846303606F008F9C4F89860382006F0C6
S3150800DF80D7FA394606460EF0E9FE314628463036B7
S3150800DF9006F0FAF8C4F8A060382006F0C9FA39463F
S3150800DFA006460EF029FE31462846303606F0ECF8CD
S3150800DFB0414626616846FEF737FF6846FEF7E2FCEB
S3150800DFC06846FEF7B7FC6846FEF70AFD6846FEF7A0
S3150800DFD0CDFD6846FEF72CFD01216846FEF766FD75
S3150800DFE06846FEF70FFE482006F0A2FA39460646AE
S3150800DFF00EF024FF3146284606F0C6F806F1200939
S3150800E000102006F095FA4A46254B264906F012FCDA
S3150800E01006F12807102006F08BFA3A46204B2249CB
S3150800E02006F008FC06F13801C4F8509027636846E4
S3150800E030FEF732FE102006F07BFA1C4B1C4906F14F
S3150800E040300206F0F7FB06F130016846FEF700FEDF
S3150800E050502006F06DFA41460446FDF765FE30206D
S3150800E06006F066FA134A06464146FCF7D7FF3146DC
S3150800E070284606F089F804F13C0268460E49FEF780
S3150800E08085FE2146284606F07FF86846FEF7C5FE57
S3150800E09003B0BDE8F08300BFF04E0208D45702086B
S3150800E0A0004F02086059020864590208F44E020833
S3150800E0B0EC5902089C5C02088C5C02082DE9FF41B9
S3150800E0C0804601F0DCFA00F56875404601F05EFD11
S3150800E0D00446382006F02CFA04F1C00607462946FD
S3150800E0E00EF0E4FE39463046303706F04DF8A7679D
S3150800E0F0102006F01DFA04F174024B4B4B4906F04A
S3150800E10099FB382006F014FA294607460EF046FF12
S3150800E11039463046303706F037F8C4F8907038205C
S3150800E12006F006FA294607460EF0B0FF394630468D
S3150800E130303706F029F8C4F8A070382006F0F8F948
S3150800E140294607460EF0ECFE39463046303706F0CB
S3150800E1501BF84146276102A8FEF766FE02A8FEF7ED
S3150800E160E9FB02A8FEF73CFC02A8FEF7FFFC02A8A2
S3150800E170FEF748FD02A8FEF75BFC02A8FEF702FCC4
S3150800E180382006F0D5F9294607460EF041FF3946EC
S3150800E190304605F0F9FF07F1300102A8FEF77FFDCA
S3150800E1A0302006F0C5F9294607460EF0D1FF394654
S3150800E1B0304605F0E9FF07F12005102006F0B8F90A
S3150800E1C02A461B4B1B4906F035FB102006F0B0F912
S3150800E1D02A46174B184906F02DFB2837256325656F
S3150800E1E0102006F0A5F9154B15493A4606F022FB0C
S3150800E1F0394602A8FEF756FD12494FF07A7202A870
S3150800E200FEF782FD302006F093F90F4A0446414690
S3150800E210FCF704FF2146304605F0B6FF02A8FEF7D4
S3150800E220FCFD04B0BDE8F081F04E0208CC570208A8
S3150800E230004F02086059020864590208F44E0208A1
S3150800E240DC580208F05C0208145D0208F0B585B0D7
S3150800E250044601F09BFC0646204601F004FA2549CF
S3150800E2600294074602A8FEF781F9B067642006F013
S3150800E2705FF907F51472054606F1C0071E4907F04F
S3150800E28047FA294638464C3505F07EFF2146C6F83A
S3150800E290A05002A8FEF7C8FD02A8FEF74BFB02A88D
S3150800E2A0FEF7C6FB02A8FEF76DFB012319460022FE
S3150800E2B002A8FEF739FC02A80121FEF70DFC02A808
S3150800E2C00021FEF71DFC0D494FF07A7202A8FEF7F1
S3150800E2D01BFD302006F02CF9094A05462146FCF7B5
S3150800E2E09DFE2946384605F04FFF02A8FEF795FD24
S3150800E2F005B0F0BD00100020545D0208705D0208EC
S3150800E300945D02082DE9F347804601F03FFC044678
S3150800E310404601F0B4F9414600F568756846FEF7CF
S3150800E32083FD6846FEF706FB6846FEF781FB382044
S3150800E33006F0FEF804F1C0060746294610F098FADA
S3150800E34039463046303705F01FFFC4F8907038203C
S3150800E35006F0EEF82946074610F050FA39463046D8
S3150800E360303705F011FFA767102006F0E1F83A46A6
S3150800E3703F4B404906F05EFA382006F0D9F82946A0
S3150800E380074610F015FB39463046303705F0FCFED7
S3150800E390C4F89870382006F0CBF82946074610F0DE
S3150800E3A05DFB3946304605F0EFFE07F1200A1020DE
S3150800E3B006F0BEF85246304B304906F03BFA07F1F4
S3150800E3C02809102006F0B4F84A462B4B2C4906F0CB
S3150800E3D031FAC4F850A0C4F83090202006F0A8F806
S3150800E3E02946814610F0A2FA4946304605F0CCFE89
S3150800E3F009F11003A362382006F09AF829468146E7
S3150800E40010F060FB4946304605F0BEFE09F13003C0
S3150800E410C4F8A03007F130016846FEF73DFC01223A
S3150800E420002302216846FEF77FFB6846FEF7AAFA34
S3150800E4306846FEF7D5FA4146124809F035FE436E9E
S3150800E4404FF47A715B6864309847302006F070F8AC
S3150800E4500D4A04464146FCF7E1FD2146304605F0E3
S3150800E46093FE6846FEF7D9FC02B0BDE8F08700BF08
S3150800E470F04E0208CC570208004F020860590208FD
S3150800E48064590208DC5D0208005E02082DE9FF47B0
S3150800E490804601F07BFB0646404601F0F0F800F5A1
S3150800E4A06875382006F044F806F1C0040746294680
S3150800E4B00FF046FC3946204605F066FE382006F081
S3150800E4C037F8294681460FF0EDFC4946204609F102
S3150800E4D0300905F059FEC6F860901C2006F028F8A9
S3150800E4E04FF49A7207464946FCF7A2FC394620467D
S3150800E4F0143705F049FEB767C6F88070102006F095
