S02B0000453A5C7265706F735C63735C72656C656173655C6C636D335C6C636D335C6170705C6C636D332D62D4
S31508009000002000202D9200083192000837920008AF
S31508009010519200085792000871920008000000005B
S31508009020FFFFFFFF00000000000000008B92000811
S315080090309192000800000000979200089D9200088F
S31508009040ED4D0108FD4D01080D4E01081D4E0108A4
S315080090502D4E01083D4E01084D4E01085D4E010892
S315080090606D4E01087D4E01088D4E01089D4E010882
S31508009070AD4E0108BD4E0108CD4E0108DD4E010872
S31508009080ED4E0108FD4E01080D4F01081D4F010860
S315080090902D4F01083D4F01084D4F01085D4F01084E
S315080090A06D4F01087D4F01088D4F01089D4F01083E
S315080090B0AD4F0108BD4F0108CD4F0108DD4F01082E
S315080090C0ED4F0108FD4F01080D5001081D5001081C
S315080090D02D5001083D5001084D5001085D5001080A
S315080090E06D5001087D5001088D5001089D500108FA
S315080090F0AD500108BD500108CD500108DD500108EA
S31508009100000000000000000000000000ED5001080B
S31508009110FD5001080D5101081D5101082D51010886
S315080091203D5101084D5101085D5101086D51010875
S315080091307D5101088D510108000000000000000063
S315080091409D510108AD510108BD51010800000000FC
S315080091500000000000000000000000000000000001
S315080091600000000000000000CD510108DD51010893
S31508009170ED5101080000000000000000000000009A
S30D0800918000000000FD51010882
S31508009188383035663331300008B500F0D1F81D4A55
S315080091981D48824217D31D4A1D4900208A421DD3FD
S315080091A81C4D1D4C02F072F9641BA4100026B4422B
S315080091B81DDC1A4D1A4C641BA4100026B4421BDC8D
S315080091C812F0ECF8FEE7D2E9001394680C32C91AD3
S315080091D89C42DED95D5843F8045BF9E752F8083B28
S315080091E852F8044C9C42D9D943F8040BFAE755F8C7
S315080091F8043B98470136DAE755F8043B98470136A1
S31508009208DCE700BF4494000850940008509400080E
S315080092185894000858940008589400085894000868
S31508009228649400081C48004708B509F06DF81EF054
S31508009238040F0CBFEFF30880EFF309807146174A4D
S31508009248104708B509F060F808B509F05DF81EF08A
S31508009258040F0CBFEFF30880EFF309807146104A34
S31508009268104708B509F050F81EF0040F0CBFEFF3C5
S315080092780880EFF3098071460A4A104708B509F0CD
S3150800928843F808B509F040F808B509F03DF808B5F7
S3150800929809F03AF870470000919100084B920008C7
S315080092A86B920008859200081C4B1A6822F4502213
S315080092B81A601A6842F480321A601A689103FCD553
S315080092C8174A520102F18442012111604FF4806263
S315080092D85A60144A116821F0040111606FF07F4141
S315080092E85160116841F0010111600F4A5A60002265
S315080092F8DA621A6842F080721A601A689201FCD516
S315080093080A4A122111605A6842F002025A605A68DB
S3150800931802F00C02082AFAD1704700BF0010024072
S315080093282410020010E000E00004110000200240AA
S3150800933838B53C4C2368002243F001032360626079
S31508009348236823F0847323F480332360E262236856
S3150800935823F480232360A260E36843F00103E360F3
S31508009368E36823F00103E360A36943F00103A361FB
S31508009378FFF79AFF2C4B2D4A9A6062B62C4ADA6098
S31508009388A36A43F08053A362A36A23F08053A362B7
S31508009398636943F080536361E36A23F4F873E3620D
S315080093A8E36A43F48073E362BFF34F8F214DAB68DA
S315080093B823F04053AB60AB6842F2107043F0805319
S315080093C8AB6009F011F8AB6843F00043AB60AB68D3
S315080093D8002BFCDB382009F007F8AB68164843F081
S315080093E80103AB600AF048FDC1232B630023AA6872
S315080093F842F00402AA602A685207FCD52A6CB2F51C
S31508009408946FF4D30133642BF1D1A36A43F08053E4
S31508009418A362A36A23F08053A362636923F0805387
S31508009428636138BD0010024000ED00E000900008B6
S311080094380003FA0500000050C4310208C9
S31508009444084402080020002030230020302300208E
S315080094546C4B002001B50008C9040108F50401088D
S315080094700020704700797047017101207047007914
S3150800948070470171012070470048704773A90008AA
S3150800949008B5406800F020FB08BD000008B5034683
S315080094A078B1084A904206D9074A904201D911F084
S315080094B098FF11F093FF2C205843BDE8084002F0AE
S315080094C00BB808BD2EBAE8025D74D10510B5D1E90E
S315080094D00232934200D110BD5A1C8A601A788368FA
S315080094E05C1C84601A70F2E737B502AB03E9060024
S315080094F00B460A449A4201D103B030BD816813F87D
S31508009500014B4D1C85600C70F4E713B50446ADF8A5
S31508009510061002220DF10601806812F07BF9A36895
S315080095200233A36002B010BD13B504468DF80710C8
S3150800953001220DF10701806812F06CF9A368013366
S31508009540A36002B010BD000070B590F87830B3FA89
S3150800955083F38EB001215B0906AA80F8983080F85B
S3150800956099100DF13603044602A8CDE9033202929A
S315080095700593FFF7D9FF4FF6864102A8FFF7C5FF07
S315080095801A2102A8FFF7D0FF002102A8FFF7CCFF97
S31508009590002102A8FFF7C8FF1025002102A8FFF73F
S315080095A0C3FF013DF9D102A80721FFF7BDFF02A8B5
S315080095B01021FFF7B9FF294602A8FFF7B5FF049E59
S315080095C000956D4604222946304612F023F90436E2
S315080095D094F89810049602A8FFF7A6FF029A049B2F
S315080095E0E0689B1ACDE9002395E8060009F070F8B3
S315080095F002480A23C4E92A330EB070BDA1AC00089C
S3150800960030B504468BB0B43001F02AFF002504F1CA
S31508009610BC0001F025FF02AA0DF1160306A884F87E
S3150800962084500121CDE9073206920993FFF77CFFA2
S3150800963006A84FF68151FFF768FF06A80A21FFF72B
S3150800964073FFB4F89A1006A8FFF75FFF06A806216D
S31508009650FFF75BFF06A80C21FFF757FF294606A868
S31508009660FFF753FF06A8C821FFF74FFF069A089B86
S31508009670E0689B1ACDE900231A46009909F028F8F4
S3150800968001480BB030BD00BF65A8000810B588B00A
S315080096900DF105030446012104A805930793CDF8A7
S315080096A010D0CDF818D0FFF73FFF04A84FF68F412A
S315080096B0FFF72BFF04A80121FFF736FF04A80A21AC
S315080096C0FFF732FF049A069BE0689B1ACDE902234E
S315080096D01A46029908F0FCFF02480A23C4E92A330D
S315080096E008B010BD41AD000870B592B0044601A897
S315080096F00BF094FD029D0BAA0DF14603082D07A851
S315080097004FF0010128BF0825CDE9083207920A93D0
S31508009710FFF70AFF07A84FF68341FFF7F6FE05F1A4
S315080097200E0107A8C9B2FFF7FFFE07A80021FFF739
S31508009730FBFE07A82021FFF7E8FE07A82021FFF770
S31508009740E4FE07A80121FFF7EFFE07A80021FFF7AF
S31508009750EBFE691CC9B207A805AEFFF7E5FE304661
S315080097600BF05CFD069B092B34BF0921082107A8CD
S31508009770FFF7DAFE019BCDE9053507A896E806004E
S31508009780FFF7B2FE0021FFF7CFFE07A80021FFF77B
S31508009790BCFE07A80021FFF7B8FE079A099BE068F8
S315080097A09B1ACDE903231A46039908F091FF03484B
S315080097B00A23C4E92A3312B070BD00BFF9AC000809
S315080097C030B589B00DF107030446012104A80593B5
S315080097D00793CDF810D0CDF818D0FFF7A5FE04A84A
S315080097E04FF68A41FFF791FE04A80321FFF79CFE76
S315080097F004A80321FFF798FE02AD002104A8FFF78D
S3150800980093FE28460BF00AFD9DF80C1004A8FFF7F6
S315080098108BFE049A069BE0689B1ACDE9022395E81D
S31508009820060008F055FF03480A23C4E92A3309B09D
S3150800983030BD00BFE9AA0008F0B5A9B06C4684E8B7
S31508009840060006461F4604A80DF19F03154601218A
S3150800985008AACDE9053207930492EDB2FFF764FE34
S3150800986004A84FF60651FFF750FEA91D04A8C9B271
S31508009870FFF75AFE394604A8FFF747FEBDF8B810A9
S3150800988004A8FFF742FE04A80021FFF74DFE29466B
S3150800989004A8FFF749FE94E8060004A8FFF724FE8B
S315080098A0049A069B9B1ACDE90223304602991A466A
S315080098B008F00EFF29B0F0BD012804D0831E5842D7
S315080098C05841000170470220704708B5406800F00B
S315080098D006F908BD70B594B00BAE044630460BF0D9
S315080098E09DFC0C9B082B05D8204614B0BDE870409B
S315080098F0FFF7CCBE01A80BF091FC029D079614ABAE
S315080099001D2D4FF0010107A828BF1D25CDE90836F2
S315080099100A93FFF709FE42F2090107A8FFF7F5FDCA
S31508009920EEB2202107A8FFF7FFFDB11CC9B207A8B0
S31508009930FFF7FAFD711CC9B207A8FFF7F5FD092163
S3150800994007A8FFF7F1FD019B2A46194607A8CDE9A6
S315080099500335FFF7C9FDDDE9092393420ED1079ABE
S3150800996005929B1AE068059906931A4608F0B0FE18
S3150800997005480A23C4E92A3314B070BD002107A894
S31508009980FFF7D2FDE7E700BF1DAD00080F4B70B526
S3150800999004460360D0F8B00040B9666E04F11405B9
S315080099A056B9204601F0F7FA204670BD05680C2125
S315080099B001F09EFD2846EFE7E869013E18B1696A9D
S315080099C0091A01F095FD2835EAE700BF5017020885
S315080099D010B50446FFF7DAFF2046C82101F088FDD6
S315080099E0204610BD90F8993013B1002380F89930BD
S315080099F090F89C3013B1002380F89C3000487047DB
S31508009A00F9A1000830B5036991B00446187CFFF740
S31508009A1053FF0AAA0DF13F030546012102A8CDE925
S31508009A20033202920593FFF77FFD02A84FF68E4197
S31508009A30FFF76BFDE91C02A8C9B2FFF775FD23699C
S31508009A40187CFFF739FF811CC9B202A8FFF76CFD25
S31508009A502369187CFFF730FF411CC9B202A8FFF73B
S31508009A6063FD02A80721FFF75FFD23691A7C012A17
S31508009A7006A903F1140202A809BF12332433CDE95B
S31508009A800632CDE908321CBFCDE90623CDE9082305
S31508009A90FFF71CFD029A049BE0689B1ACDE9002398
S31508009AA01A46009908F014FE02480A23C4E92A3324
S31508009AB011B030BD65AD0008064B1422013A02D13B
S31508009AC04FF6FF7070471968814201D19888704730
S31508009AD00833F3E7A8170208C06EFFF7EDBF006F5B
S31508009AE0FFF7EABFF0B503460C460F46054601F1F7
S31508009AF0100C3E4603CE664528606960374605F178
S31508009B000805F6D130682860A17DA08A98829975E3
S31508009B10D4E90601DA75E27D1A7603F11C0282E8B9
S31508009B200300002283F8262083F828201846F0BD73
S31508009B3090F8262000230AB180F8263080F82830CD
S31508009B40704700002DE9F041164690F826209CB093
S31508009B5004460D461F46002A65D100783A4AFFF7A3
S31508009B60ABFE964294BF09220A220CAB00EB020810
S31508009B7001211CAA04A8CDE9052304930792FFF73F
S31508009B80D3FC4FF6045104A8FFF7BFFC5FFA88F12F
S31508009B9004A8FFF7C9FC394604A8FFF7B6FC2178E4
S31508009BA004A8FFF7C1FC234608A913F8042B012AC9
S31508009BB00CBFA21C04F1140204A807BFCDE90823B0
S31508009BC0CDE90A23CDE90832CDE90A32FFF77EFC52
S31508009BD01D4B217D9E4223D8FFF7A6FC617D04A874
S31508009BE0FFF7A2FCA17D04A8FFF79EFCE17D04A86F
S31508009BF0FFF79AFC072104A8FFF796FC217E04A824
S31508009C00FFF792FC049A069B9B1ACDE90223284685
S31508009C1002991A4608F05CFD01201CB0BDE8F081E7
S31508009C20FFF773FCDAE7006A0028F6D094F82820D4
S31508009C303AB9A28C0092D4E907122846FFF7FCFD30
S31508009C40EAE70020E9E700BF1F00070090F8263082
S31508009C5082B08BB94FF60453ADF8043001238DF862
S31508009C600630BDF80430002063F30F00BDF8063057
S31508009C7063F31F4002B07047036A1BB190F828309F
S31508009C8083F001034FF60652ADF80420E7E700001B
S31508009C9084B02DE9F041DDE90C5C044607A880E8AC
S31508009CA00E000BAF034622461E4603CEBE42106088
S31508009CB05160334602F10802F6D13068106001237C
S31508009CC063610023C4E90733A3766362194BB3EBD8
S31508009CD04C1F05EB4C184CF31A0702D2164811F024
S31508009CE083FB3846FFF7DAFB2C2303FB070767627B
S31508009CF00646E0612F46B84508D126622B464345FD
S31508009D000CD12046BDE8F04104B0704739463046CC
S31508009D100122FFF7E7FE20372C36ECE75A7D12F0D2
S31508009D20300F62690CBF022103210A4462612033A5
S31508009D30E5E700BFC045175DF416020808B5837E3F
S31508009D400BB100238376D0E90701814200D108BD13
S31508009D50FFF7EEFE2C30F8E72DE9F041837E9AB046
S31508009D6004460E461746002B45D10078FFF7A4FD9A
S31508009D701AAA0AAB0546012102A8CDE903230293D4
S31508009D8005920335FFF7D0FB4FF6025102A8FFF7FD
S31508009D90BCFBE9B202A8FFF7C7FB217802A8FFF7C8
S31508009DA0C3FB234602A813F8042B012A0CBFA21CE6
S31508009DB004F1140206A907BFCDE90623CDE9082355
S31508009DC0CDE90632CDE90832FFF780FB0121FFF71E
S31508009DD0ABFB217D02A8FFF7A7FB029A049B9B1AFF
S31508009DE0CDE90023304600991A4608F071FC012097
S31508009DF01AB0BDE8F081D0E90758A84501D100207E
S31508009E00F6E72846238B3A463146FFF79BFE2C3564
S31508009E100028F2D0EBE7837E13B58BB94FF60253D1
S31508009E20ADF8003001238DF80230BDF8003000206F
S31508009E3063F30F00BDF8023063F31F4002B010BD94
S31508009E40D0E907148C4201D100230BE00846FFF73E
S31508009E50FDFE10F47F0F009001F12C01C0F30743BB
S31508009E60F0D001908DF80630019B0093DDE738B5F8
S31508009E7004460C200D4601F02FFB0346021D95E80B
S31508009E80030082E80300D4F8B0201A60C4F8B030A2
S31508009E9038BD10B590F89C3086B002AC84E8060050
S31508009EA06BB1142A0BD8D0E91532B2F850200092BB
S31508009EB0059394E80600C0689BB2FFF7BDFC06B0A0
S31508009EC010BD000070B5044621B1C36E03670123B7
S31508009ED080F88430E5686868002118300AF07EF852
S31508009EE00123C5F82C33636E04F11405282202FBFE
S31508009EF00356B5420ED194F8A0200023A3660AB1F2
S31508009F0084F8A03094F8A43013B1002384F8A43060
S31508009F10034870BD2846FFF711FF2835E9E700BF5B
S31508009F20899F000810B50446A83001F0AEFA04F17E
S31508009F30B40001F0AAFA04F1BC0001F0A6FAE36E37
S31508009F4020469847E368E06693F8302312B993F8F9
S31508009F5031233AB10022A3F8302301212046FFF726
S31508009F60B1FFE06610BD0000C36810B50446586826
S31508009F70012118300AF032F81423C4E92A330148BB
S31508009F8010BD00BF99A10008FFF7EEBF7FB50446D4
S31508009F9002ADC66828460BF041F9B4F8A230009322
S31508009FA0B4F89E30304695E80600FFF745FC0348AE
S31508009FB00A23C4E92A3304B070BD00BF59AC0008AF
S31508009FC010B588B00DF105030446012104A80593D0
S31508009FD00793CDF810D0CDF818D0FFF7A5FA04A846
S31508009FE04FF68541FFF791FA04A80121FFF79CFA7D
S31508009FF004A80321FFF798FA049A069BE0689B1ABF
S3150800A000CDE902231A46029908F062FB02480A23A0
S3150800A010C4E92A3308B010BD7DAC0008436E70B59C
S3150800A020282200F11405044602FB0356AE4204D169
S3150800A0302046BDE87040FFF7C3BF2846A26EE16818
S3150800A040FFF78AFE28350028F0D0014870BD00BF0A
S3150800A05093AB000870B58AB00DF1170304460D4698
S3150800A060164606A803AA0121CDE9073206920993E6
S3150800A070FFF75AFA06A84FF6A441FFF746FA06A8CC
S3150800A0800721FFF751FA314606A8FFF74DFA0623CE
S3150800A0900195029301AD95E8060006A8FFF724FA94
S3150800A0A0069A089BE0689B1ACDE9012395E8060005
S3150800A0B008F00EFB02480A23C4E92A330AB070BD29
S3150800A0C089AD0008F0B589B001AB044602AE0F466B
S3150800A0D004A801211546CDE9056304930796FFF701
S3150800A0E023FA394604A8FFF710FA04A80021FFF757
S3150800A0F01BFA049A069BE0689B1ACDE9022396E8A8
S3150800A100060008F0E5FAC4E92A5509B0F0BD0000D2
S3150800A11008B50A2241F20101FFF7D4FF004808BD3D
S3150800A1200DAE00082DE9F043DFF86480A5B00446BB
S3150800A130002504AF4FF07F09E1684B463A4668466A
S3150800A140CDE9027908F098FC9DF8046056B1009AAA
S3150800A150062AF1D14146384611F023FB002808BFEC
S3150800A1603546E9E72DB1204625B0BDE8F043FFF7AF
S3150800A170CFBFD4F8A83033B90121204625B0BDE8B1
S3150800A180F043FFF79FBE034825B0BDE8F08300BF44
S3150800A190A017020899A10008FFF7C4BF08B50A224C
S3150800A1A04FF69241FFF78EFF004808BD11AC000834
S3150800A1B008B50A224FF60151FFF784FF004808BD8B
S3150800A1C035AC000808B50A224FF69441FFF77AFF26
S3150800A1D0004808BDD5AC000890F87820012A06D8B2
S3150800A1E090F880300BB1FFF7EDBFFFF77DBA014855
S3150800A1F0704700BFF9A10008FFF7EEBF82B002A9B9
S3150800A20001E90C0013461278042A01BF019A59780D
S3150800A2100170033305BF033AC0E901320023012365
S3150800A220037302B0704700002DE9F04F0446A7B04B
S3150800A23016460D4600F0B8FE594B2360594B636726
S3150800A240594BE367594BC4E92234594BC4E90356C1
S3150800A2500025C4E924342946C4E91B55656684F8F3
S3150800A260785084F8805084F8845084F8995084F89B
S3150800A2709C5084F8A05084F8A45004F1A80001F07A
S3150800A280E9F81921C4F8B05004F1B40001F0E2F875
S3150800A29005AF332104F1BC0001F0DCF80DF13809F3
S3150800A2A03846A4F8C4500AF0B9FF60222946484641
S3150800A2B011F0A1FA3F4B0E93A3F5A023169303F5CD
S3150800A2C080331E934FF0020A23698DF84DA08DF84E
S3150800A2D06DA08DF88DA05A688DF84C20D3E9001230
S3150800A2E0CDE91412DA688DF86C20D3E9022397E8D1
S3150800A2F00300CDE91C23069B8DF88C3026AB03E9B9
S3150800A300030010222C4B099329460AA811F073FA68
S3150800A310636E04F114084FF0280B53450BFB038CAE
S3150800A3201CD0CDF81C900798032319460DF108098F
S3150800A330089389E80300DDE90C018DE8030009AFFD
S3150800A34097E80E006046FFF7A3FC636E013353459A
S3150800A350636606F1100C0BFB038801D111F010FAA5
S3150800A360164BCDE9093A97E8030089E80300F06936
S3150800A370316A6B4603C34046DCF808303169DCF8BD
S3150800A3800420FFF785FC636E013363662946204681
S3150800A390FFF798FDE066204627B0BDE8F08F00BFBE
S3150800A3A050170208DC160208EC16020830170208D5
S3150800A3B0401702080100292A01000A186017020836
S3150800A3C013B50446816802220DF1060011F022FA3F
S3150800A3D0A368BDF806000233A36002B010BD30B50D
S3150800A3E089B06B4683E8060090F8263004460BBB16
S3150800A3F00B46022A1144CDE90431CDE906310CBFDA
S3150800A4000125002506D104A8FFF7DAFF0123A08459
S3150800A41084F826308DF80C5001238DF80D309DF800
S3150800A4200C30002063F307009DF80D3063F30F200E
S3150800A43009B030BD036A2BB190F8283033B901232F
S3150800A44080F8283001228DF80C20E6E70023F9E78A
S3150800A45070B5837E88B06D4685E806000446B3B9B4
S3150800A4600B46022A1144CDE90431CDE906310CBF69
S3150800A4700125002505D104A8FFF7A2FF01232083A3
S3150800A480A3768DF80C5001238DF80D3013E0D0E932
S3150800A4900746B44201D10023F6E7204695E80600B0
S3150800A4A0FFF79DFF10F47F4FADF8100004F12C0460
S3150800A4B0EFD0ADF80C009DF80C30002063F30700D0
S3150800A4C09DF80D3063F30F2008B070BD13B5044630
S3150800A4D0816801220DF1070011F09CF9A3689DF827
S3150800A4E007000133A36002B010BD30B50B78052B09
S3150800A4F085B0044602D0002005B030BD8B68032B1A
S3150800A500F9D94A6868461344CDE90023CDE9022300
S3150800A510FFF7DCFF05466846FFF752FF0346002DA6
S3150800A520E9D194F89C000028E5D0B4F89A209A421C
S3150800A530E1D184F89C50DFE7F0B5A9B0044608AE2F
S3150800A5407F27CDE9046704AD95E80C00E168684605
S3150800A55008F092FA9DF8043053B9D4F8A8302BB90C
S3150800A56000212046FFF7AEFC29B0F0BDE06EFBE700
S3150800A570009B03933246214628460296FFF73EFE85
S3150800A5809DF81C30002BDCD029462046FFF7ADFF8E
S3150800A5900028D6D0E4E7FFF7CFBF10B590F89C3077
S3150800A5A088B004462BB9012108B0BDE81040FFF772
S3150800A5B089BC0DF1070304A8012105930793CDF87B
S3150800A5C010D0CDF818D0FEF7AFFF04A84FF6934188
S3150800A5D0FEF79BFF04A80321FEF7A6FFB4F89A101E
S3150800A5E004A8FEF792FF04A81321FEF79DFF049A1C
S3150800A5F0069BE0689B1ACDE902231A46029908F0E1
S3150800A60067F83223C4E92A332046FFF795FF08B0D6
S3150800A61010BD1FB50B780E2B03D0002005B05DF8D2
S3150800A62004FB8B68022BF8D94A6868461344CDE9BF
S3150800A6300023CDE90223FFF749FF6846FFF7C0FE6E
S3150800A6404FF606539842E8D16846FFF73FFFB0FA3F
S3150800A65080F04009E2E773B502AB03E90600044659
S3150800A6600E460D46019B33449D4209D0D4E9023279
S3150800A6709A4205D02046FFF729FF05F8010BF1E7B6
S3150800A68002B070BD2DE9F0410B78FF2B90B005465E
S3150800A69004D00027384610B0BDE8F0818B68092B36
S3150800A6A0F7D94A6807A81344CDE90723CDE9092352
S3150800A6B0FFF786FE074607A8FFF782FE804607A82B
S3150800A6C0FFF77EFE064607A8FFF700FF044607A821
S3150800A6D0FFF776FE40F601439F42DAD195F89C7063
S3150800A6E0002FD6D0B5F89A304345D2D1DDE9091303
S3150800A6F05B1A9C42CDD10028CBD1AB6D5B6A029325
S3150800A7000B93019301339BB29E42C2D1142C13D8EA
S3150800A7100BAE2246314607A8CDE90364FFF79BFF37
S3150800A720D5F8B050002DB5D06B68281DCDE9056465
S3150800A73005A998472D68F5E70746ABE770B590F881
S3150800A7407830032BAAB0044604D12AB0BDE870407D
S3150800A750FFF723BFD0F8B46006AD06BB02AA03AB69
S3150800A76001210AA8CDE90B320A920D93FEF7DCFE09
S3150800A7704FF47C410AA8FEF7C8FE31460AA8FEF740
S3150800A780D3FE0A9A0C9BE0689B1ACDE9062395E846
S3150800A790060007F09DFF04F1B40000F061FE7F2675
S3150800A7A00AABCDE90636E16895E80C00684608F07C
S3150800A7B063F99DF8043013B9E06E2AB070BD0AAB90
S3150800A7C00693009B079395E80C00214602A8FFF71D
S3150800A7D015FD9DF81430002BE2D001462046FFF700
S3150800A7E084FE20B100212046FFF76CFBE5E702A9AD
S3150800A7F02046FFF747FF02A92046FFF776FE02A983
S3150800A8002046FFF706FF38B104F1B40000F028FE31
S3150800A81004F1BC0000F024FE9DF808300E2B13D17D
S3150800A820DDE9032328461344CDE90623CDE90823A9
S3150800A830FFF74CFE2846FFF7C3FDB0F57C4F03D162
S3150800A84004F1BC0000F00CFED4F8BC302BB9E36E62
S3150800A85023672046FFF7A1FEAFE70148ADE700BF33
S3150800A86065A80008FFF76ABF2DE9F04190F8803027
S3150800A870AEB00446F3B990F878309A1E012A19D971
S3150800A88090F89820B3FA83F35B099A4212D10EAF77
S3150800A8904FF07F08CDE90A780AAD95E80C00E16823
S3150800A8A002A808F0E9F89DF80C3053B9E06E2EB00E
S3150800A8B0BDE8F081002120462EB0BDE8F041FFF743
S3150800A8C001BB029B0A970B9395E80C00214606A844
S3150800A8D0FFF794FC9DF82430002BDBD0DDE9073226
S3150800A8E09918CDE90A31CDE90C319DF818303E2B7F
S3150800A8F004D006A92046FFF7F8FDCBE7032AF8D9C6
S3150800A9002846FFF7E3FD01280646F2D12846FFF759
S3150800A910DDFD0028EDD12846FFF752FD94F8783082
S3150800A920A4F89A0084F89C60FBB1DDE90A239B1A17
S3150800A9300B2B04D831462046FFF7C4FAB7E728465A
S3150800A940FFF7C4FD2846FFF7C1FD062306461A464B
S3150800A95069462846CDF810D00593FFF77CFE3246A7
S3150800A96069462046FFF776FBA1E72046FEF748FE34
S3150800A9709DE7FFF779BF2DE9F04FABB0E94689E8C7
S3150800A9800C00349E074688460DF1280A06AC7F233C
S3150800A990CDF818A0079394E80C00F96804A808F005
S3150800A9A06BF89DF8143093B9D7F8A8200AB940F285
S3150800A9B0FF13ADF80C309DF80C30002063F3070048
S3150800A9C09DF80D3063F30F202BB0BDE8F08F049B84
S3150800A9D020465344CDE906A3CDE908A3FFF776FD43
S3150800A9E083462046FFF772FD05462046FFF76EFDB3
S3150800A9F0BBF1040FCBD10E2D23D10228C7D920468F
S3150800AA00FFF764FD2046FFF7DBFC4045BFD1204633
S3150800AA10FFF75CFD05463EB1DDE908239B1A019A5E
S3150800AA20934294BF33603260009B23B199E80600D5
S3150800AA302046FFF710FE01238DF80C508DF80D30D7
S3150800AA40B9E70F2DA3D10328A1D92046FFF73EFD6C
S3150800AA5005462046FFF73AFD2046FFF7B1FC80453C
S3150800AA6095D1002D93D0002EE5D000233360E2E780
S3150800AA7070B58AB00723079304AE03AB0696009316
S3150800AA8006AD95E80C004FF68A410446FFF773FFBA
S3150800AA9010F47F4FADF8080002D1E06E0AB070BD21
S3150800AAA09DF80830DBB9039B062B18D10DF1170367
S3150800AAB02846CDE9073606960993FFF781FC012655
S3150800AAC0A4F89E0084F8A0602846FFF779FC84F86D
S3150800AAD0A460A4F8A2002046FFF758FADEE7012191
S3150800AAE02046FFF7EFF9D9E7FFF7C2BF2DE9F04196
S3150800AAF0436E00F11405282290B0044602FB035861
S3150800AB002F462E460021464508D03046FFF783F9E2
S3150800AB1010F47F0F81B206F12806F4D0202307939C
S3150800AB2008AE05AB069600930DF1180898E80C00D8
S3150800AB302046FFF720FF10F47F4FADF8080003D139
S3150800AB40E06E10B0BDE8F0819DF8083023B1012110
S3150800AB502046FFF7B7F9F4E7636E282202FB035590
S3150800AB60AF42F4D0059B06960793384698E8060048
S3150800AB70FFF76EFC10F47F4FADF80C0007F12807BD
S3150800AB80EED09DF80C30002BE1D02046FFF746FAB0
S3150800AB90D7E7FFF7ABBF30B589B002AD85E80C0043
S3150800ABA00023CDE90633009308AB154613E90C00DC
S3150800ABB00446FFF7E0FE10F47F4FADF8140002D10B
S3150800ABC0E06E09B030BD9DF814304BB9039B5A109E
S3150800ABD004EB6300DB0744BFA3585D59A847F0E7B9
S3150800ABE00121204609B0BDE83040FFF76BB90000E7
S3150800ABF082B0064B00930023019302AB13E90C00C5
S3150800AC004FF6924102B0FFF7C6BF00BFB1A10008D8
S3150800AC10FFF7EEBF82B0064B00930023019302AB09
S3150800AC2013E90C004FF6015102B0FFF7B4BF00BF9D
S3150800AC30C1970008FFF7EEBF82B0064B00930023CA
S3150800AC40019302AB13E90C004FF6065102B0FFF769
S3150800AC50A2BF00BF1DA00008FFF7EEBF82B0064BDB
S3150800AC6000930023019302AB13E90C004FF68541CC
S3150800AC7002B0FFF790BF00BF49950008FFF7EEBF87
S3150800AC8082B0064B00930023019302AB13E90C0034
S3150800AC904FF6864102B0FFF77EBF00BFE599000870
S3150800ACA0FFF7EEBF37B5094B00930025019502ABB8
S3150800ACB013E90C004FF694410446FFF76CFF044B6A
S3150800ACC0984208BF84F8805003B030BDE996000862
S3150800ACD0F9AC0008FFF7E6BF82B0064B00930023E5
S3150800ACE0019302AB13E90C004FF6834102B0FFF75C
S3150800ACF052BF00BFD5980008FFF7EEBF82B0064BDB
S3150800AD0000930023019302AB13E90C0042F20901F8
S3150800AD1002B0FFF740BF00BF8D960008FFF7EEBFF1
S3150800AD2082B0064B00930023019302AB13E90C0093
S3150800AD304FF68F4102B0FFF72EBF00BF059A0008F5
S3150800AD40FFF7EEBF82B0064B00930023019302ABD8
S3150800AD5013E90C004FF68E4102B0FFF71CBF00BF87
S3150800AD6089940008FFF7EEBF82B0064B00930023D4
S3150800AD70019302AB13E90C004FF6A44102B0FFF7AA
S3150800AD800ABF00BF01960008FFF7EEBF70B58CB08A
S3150800AD900923099305AE04AB0896009308AC94E81A
S3150800ADA00C0041F201010546FFF7E5FD10F47F4F5F
S3150800ADB0ADF80C0002D1E86E0CB070BD9DF80C30F1
S3150800ADC0FBB9049B082B1CD10DF11D032046CDE9C8
S3150800ADD009360B930896FFF779FB2046FFF7F0FA3A
S3150800ADE02046FFF773FB06462046FFF7E9FA20469A
S3150800ADF0FFF7E6FA40EA0640A8662846FFF7CEF9C6
S3150800AE00DAE701212846FFF75DF8D5E7FFF7BEBF69
S3150800AE1010B5054B044640F8103B00F0EBFB204606
S3150800AE2000F0B9F8204610BD4818020810B50446C7
S3150800AE30FFF7EEFF20462C2100F05AFB204610BDF6
S3150800AE40C368103093F8841000F0ACBB73B50546A0
S3150800AE500C4600F0A9F8194B2B600122EC60184942
S3150800AE6005F1100000F0ACFB04F174030093694689
S3150800AE70012314488DF8043003F078F804F17C03B4
S3150800AE8000936946002310488DF80430022603F023
S3150800AE906DF804F1880369460C4800938DF8046040
S3150800AEA0903403F063F86946094800948DF8046005
S3150800AEB003F05CF8284602B070BD00BF48180208C7
S3150800AEC092320208DC390208A4390208B4390208A9
S3150800AED0AC39020873B505460C4601F5056302262A
S3150800AEE06946006800938DF8046003F03FF804F69D
S3150800AEF05C036946A86800938DF8046003F036F889
S3150800AF0004F664036946686800938DF8046003F0E4
S3150800AF102DF8012604F66C036946286900938DF816
S3150800AF20046004F6740403F021F8E868009469469E
S3150800AF308DF8046003F01AF802B070BD30B5044607
S3150800AF400120904001381BB1012B15D0002030BDDF
S3150800AF50A568E368C1F140018A1A2DBA1BBAC2F185
S3150800AF602004A2F12001D34005FA04F4234325FA6C
S3150800AF7001F10B431840EAE7D4E90235C1F1200490
S3150800AF80A1F12002CB4005FA04F4234325FA02F284
S3150800AF901343EFE77047704710B50C21044600F0DD
S3150800AFA0A7FA204610BD0000024A02600022C0E946
S3150800AFB0012270476018020838B5054655F8104F43
S3150800AFC0A54200D138BD54F8043C201F1B68984799
S3150800AFD02468F5E738B5044654F8105FA54200D151
S3150800AFE038BD55F8043C281F5B6898472D68F5E777
S3150800AFF010B50446FFF7D8FF044B23600023E3602F
S3150800B00004F11003C4E90433204610BD7818020879
S3150800B01043698B6010B50A1D00F110044C6042614B
S3150800B0201A60C3680133C36010BDF8B50546044607
S3150800B03055F8100F0026854203D1C4E90455E66089
S3150800B040F8BD50F8042C0768D268C0E900660438D1
S3150800B05090473846EFE7000010B50446FFF7C8FFEB
S3150800B060014B2360204610BD9018020810B5034610
S3150800B070002153F8042F934203D1C0E9013301603C
S3150800B08010BD1468C2E900112246F4E710B5054B55
S3150800B090044640F80C3BFFF7E9FF2046FFF77BFF25
S3150800B0A0204610BD7818020810B50446FFF7EEFFD3
S3150800B0B02046182100F01CFA204610BD10B5054B95
S3150800B0C0044640F80C3BFFF7D1FF2046FFF7DEFFAA
S3150800B0D0204610BD9018020810B50446FFF7EEFF8B
S3150800B0E02046182100F004FA204610BD80687047F3
S3150800B0F000207047436818687047002070478368C7
S3150800B100994238BF436882B03CBF5B5C8DF8043017
S3150800B1109DF8040034BF0123002340EA032002B04F
S3150800B1207047000030B587B0044600F0E5F92F4DAA
S3150800B13025600C30606000F0DFF90830A560E0603B
S3150800B14000F0DAF9C4E9045000F0D6F90430A56134
S3150800B150E06102A800F07EF8029B254D6362039B1E
S3150800B1602562A36204A800F07FF8049B2363059B6D
S3150800B170E5626363032569461E488DF8045000940A
S3150800B18002F0F4FE04F1080369461B4800938DF8A3
S3150800B190045002F0EBFE04F11003694617480093C9
S3150800B1A08DF8045002F0E2FE04F1180369461448CB
S3150800B1B000938DF8045002F0D9FE082504F1200307
S3150800B1C01048009369468DF8045002F0CFFE636B71
S3150800B1D043B104F12C030C48009369468DF80450DA
S3150800B1E002F0C4FE204607B030BD00BFA81802080A
S3150800B1F0B8180208843902088C3902087C39020812
S3150800B200743902089C39020894390208704729B132
S3150800B210037A83F001030371017270470B46FAE75C
S3150800B22019B9037A0371017270470023FAE720F00F
S3150800B2302003413B052B0AD9A0F13003092B06D977
S3150800B240A0F12B035842584180F0010070470120B5
S3150800B250FAE70000034A034692E8030083E803007E
S3150800B26018467047C4180208254970B504460226D0
S3150800B2700D460878FFF7DBFF00283FD14878FFF72F
S3150800B280D6FF68B14A1C521B062AD6BF0023C4E95A
S3150800B2900052C4E90033204670BD01261146E8E78E
S3150800B2A08878FFF7C4FF08B18A1CECE7C878FFF76F
S3150800B2B0BEFF08B1CA1CE6E7012E01F10402ECD173
S3150800B2C01048831A022B0BD0032B03D0012B0DD069
S3150800B2D00246D8E71078FFF7AAFF0028D3D14A1DFF
S3150800B2E01078FFF7A4FF0028CDD101321078FFF7B8
S3150800B2F09EFF044B002808BF1A46C4E70A46C2E761
S3150800B3008801000890010008704708B507F000F8A2
S3150800B310027843781AB11B0183F3118870470BB181
S3150800B32062B6704772B670470068B0FA80F0400996
S3150800B33070470020704708B54068FFF7F5FF08BD5D
S3150800B34011B94368036070470023FBE709B100F0B1
S3150800B3509CB800F085B8000010B5044600F07AF8ED
S3150800B360024B2046C4E9023410BD00BFD4180208B7
S3150800B3704368184713B5044640F8041BFFF76CFEEC
S3150800B38004F11C00FFF768FE20680023A36384F815
S3150800B3903430E36303694FF47A715B681030984779
S3150800B3A0044B20686946CDE9003408F039FF204689
S3150800B3B002B010BDEBB3000838B5836B0133836365
S3150800B3C004460068836918301B68984794F8343037
S3150800B3D0054613B1201DFFF7FDFD20688369183067
S3150800B3E01B689847401BE06338BD4068FFF7E4BF19
S3150800B3F038B590F8343004466BB9043004F11C05AE
S3150800B400FFF7DAFD2846FFF7D7FD012384F8343025
S3150800B41094F8343003B938BD2846FFF7DBFDF7E763
S3150800B42037B505460446094B55F81C0B0093694683
S3150800B430074B019308F0F4FE2846FFF73FFE201D50
S3150800B440FFF73CFE204603B030BD00BF71B30008CD
S3150800B45009B30008C0E900117047C0E90012704737
S3150800B460436803607047436833B1026864214A43FE
S3150800B470B2FBF3F398B270471846704708B5FFF762
S3150800B480F2FFC0F1640080B208BD03680BB1013B4E
S3150800B490036070477047FEE708B510F0B5F9582302
S3150800B4A003604FF0FF3008BD094A1168013110B535
S3150800B4B0116041070749034618BF20F007030868CB
S3150800B4C018BF0833C4180C6091681944916010BD00
S3150800B4D03423002000200020FFF7E6BFFFF7E4BF73
S3150800B4E0024A536801335360704700BF3423002073
S3150800B4F0FFF7F6BFFFF7F4BF004870473423002074
S3150800B500024B0349034A5B1AD3607047C07F002089
S3150800B5106C4B002034230020FEE75B1A10B5044666
S3150800B520084607D0121B05D00299091B594391FBFF
S3150800B530F2F1084410BDF0B5002304460D464FF05D
S3150800B54080429C4275EB020105D30020014653EA6E
S3150800B550020605D1F0BD9B0843EA82739208F0E71C
S3150800B5601E1842EB0107B44275EB070C05D3A41B62
S3150800B57065EB0705F01847EB020140089B0840EA0F
S3150800B580C17043EA827349089208E0E74068704749
S3150800B59041600120704700880B8898422CBF002024
S3150800B5A001207047037B2BB921B143697E2B9CBFD1
S3150800B5B00133436101737047002343610373704786
S3150800B5C010B5094B0271094A83600023C0E90423B8
S3150800B5D00373074B0160044618680FF04AFC2146BE
S3150800B5E000F00DFC204610BDEC160208E41802080F
S3150800B5F03023002010B5054B044618680FF039FCB7
S3150800B600214600F070FB204610BD00BF3023002005
S3150800B61010B50446806A03681B689847014604F11A
S3150800B6200C00BDE81040FFF7BDBF000010B5054B84
S3150800B630044640F80C3BFFF7DDFF2046FFF7ABFC5E
S3150800B640204610BDF418020810B50446FFF7EEFFB1
S3150800B65020462C21FFF74CFF204610BD70B5044646
S3150800B6600D461646FFF7A0FC2046054B40F80C3B56
S3150800B6702A792968FFF7A4FFA662204670BD00BF95
S3150800B680F418020873B50C46054600F0E1F804F50F
S3150800B6900A7300936946002325488DF8043003266B
S3150800B6A002F064FC04F50C736946224800938DF891
S3150800B6B0046002F05BFC04F50E7369461E480093AD
S3150800B6C08DF8046002F052FC0A2604F514736946E4
S3150800B6D01A4800938DF8046002F048FC04F51B73C1
S3150800B6E06946174800938DF8046002F03FFC04F59C
S3150800B6F01E7300936946092312488DF8043002F038
S3150800B70035FC04F5207369460F4800938DF80460EC
S3150800B71004F5227402F02AFC072369460B480094B4
S3150800B7208DF8043002F022FC284602B070BD00BF36
S3150800B730643902082C3902085C39020824390208DF
S3150800B740543902084C390208443902083C390208BF
S3150800B75070470C3000F02CB838B504460D46FFF794
S3150800B76023FC2046034B40F80C3B294600F037F8EB
S3150800B770204638BD0C19020810B5054B044640F89A
S3150800B7800C3BFFF737FF2046FFF705FC204610BDA8
S3150800B7900C19020810B504461C30FFF7D7FDE169FD
S3150800B7A0B1FA81F120464909BDE81040FFF7FABE13
S3150800B7B010B50446FFF700FF04F11C000021BDE8A0
S3150800B7C01040FFF7BDBD38B504461D46FFF7F8FE25
S3150800B7D0294604F11C00FFF7BFFD204638BD38B5E1
S3150800B7E00C460A7909680546FFF7EAFEA16805F1DD
S3150800B7F01C00FFF7B1FD284638BD036824334360B3
S3150800B8000120704738B504462368656803F12402A9
S3150800B810D3F8243202EB83039D4202D162600020F2
S3150800B82038BD2B1D6360284600F0DDF80028EBD0F4
S3150800B830284600F0C5F80488284600F0C5F844EA0A
S3150800B840C070EDE74068FFF7DDBF4068FFF7D5BF7A
S3150800B85013B50A4B0160C0E90230243100F1080330
S3150800B8600446416000936946032305488DF8043071
S3150800B87002F07CFB204602B010BD00BF2419020866
S3150800B88034390208D0F82402704700EB8100436A75
S3150800B8905B681B681888704700207047002070474F
S3150800B8A000207047806870474068704710B5054BA0
S3150800B8B003600446FFF7B9FB2046FFF7E7FB20467F
S3150800B8C010BD00BF3419020810B50446FFF7EEFF95
S3150800B8D020461821FFF70CFE204610BD8B689A42B9
S3150800B8E03DBF4B6853F822300360002338BF01235D
S3150800B8F00371704708B54068FFF7C4FF08BD70B507
S3150800B9000446084616460D46FFF7F4FFB04208D926
S3150800B9106868314600F070F80123206023712046DC
S3150800B92070BD0023FAE770B5044600680D4620B9D5
S3150800B93020602B682360286070BD06680821FFF721
S3150800B940D7FD3046F3E708B54068FFF79BFF08BD0B
S3150800B95037B50C460546FFF7F6FFA0420CD96868CE
S3150800B960214600F03BF801238DF804009DF80400F9
S3150800B97040EA032003B030BD0023F7E708B5406866
S3150800B980FFF780FF08BD37B50C460546FFF7F6FFFB
S3150800B990A04213D968682146FFF777FF0123ADF85F
S3150800B9A004008DF80630BDF80430002063F30F005C
S3150800B9B0BDF8063063F31F4003B030BD0023F0E73F
S3150800B9C003685B681868704703680BB918467047C0
S3150800B9D05A68107B0028FAD11B68F6E7243000EB7A
S3150800B9E08100FFF7F1BF0368002003B970475A6862
S3150800B9F01B6852691044F8E7243000EB8100FFF712
S3150800BA00F2BF10B5046804B910BD6068FFF7D4FD2D
S3150800BA102468F8E713685B6808461968FFF7BBBD32
S3150800BA200B685B6811461868FFF7B5BD13685A6856
S3150800BA300B6811685B681868FFF7ADBD38B5D0F8B4
S3150800BA40245200F1240404EB8505A54200D138BD33
S3150800BA502046FFF7D6FF0434F7E710B50446FFF78C
S3150800BA60EDFF04F10C00BDE81040FFF7A5BA2DE97B
S3150800BA70F84304460C30FFF7ADFA94F82C322BB194
S3150800BA80002384F82C322046FFF7D8FF0023D4F889
S3150800BA902422C4E99033C4E99233C4E99733C4E94C
S3150800BAA0993304F1240304F5107504F5147C04F5A0
S3150800BAB0177004F51B7703EB820E73450BD1002331
S3150800BAC0AC4526D1C4F834320023874225D1C4F8C0
S3150800BAD03C32BDE8F88353F8041B0029EDD0D1F8B1
S3150800BAE0048098F80C6098F8042036B104EB8209B3
S3150800BAF0D9F840620136C9F84062D8F8146036B100
S3150800BB0004EB8202D2F85C620136C2F85C6209680C
S3150800BB10E3E755F8042B1344D2E750F8042B1344F3
S3150800BB20D3E700002DE9F0410446FFF73DFA234626
S3150800BB301F4A43F80C2B0021182218460FF05BFE0B
S3150800BB40FFF756FA1B4BE3601B4BC4F828321B4B16
S3150800BB501B4F0025C4E98C35C4E98E354FF0100813
S3150800BB6004F5107342462946C4F8245284F82C5228
S3150800BB7018460FF040FE042604F51773C4E99470BE
S3150800BB80C4F858624246294618460FF034FE0D4B53
S3150800BB90C4F87462C4E99E340B4BC4E9A0340B4B59
S3150800BBA0C4E99B70C4E9A2342046BDE8F08100BF11
S3150800BBB0AC19020834190208EC1602084C190208D6
S3150800BBC05C190208701902088419020898190208F3
S3150800BBD038B50446006808B9204638BD0568082106
S3150800BBE0FFF786FC2846F6E770B505460A4B45F882
S3150800BBF0243BD0F82462044646B904F10C00FFF74A
S3150800BC0055FE2046FFF7C7F9204670BD2846FFF7C0
S3150800BC10DFFF013E0435EFE7AC19020810B504460C
S3150800BC20FFF7E2FF20464FF42471FFF761FC204638
S3150800BC3010BD13B500230193034618461B6843B18C
S3150800BC405C680A689442F8D11A680260019A1A6018
S3150800BC50F1E701A8FFF7BCFF02B010BD38B50446EE
S3150800BC6008200D46FFF738FC2B68436023680360FD
S3150800BC70206038BD13B500230191036001A904466D
S3150800BC80FFF7ECFF204602B010BD2DE9F047D1F8CA
S3150800BC90004206460D46904644F31D040F4684B9F5
S3150800BCA0D5F80042376005EB8404BC4206D03A4614
S3150800BCB041462846FFF7AEFE00B134603046BDE87F
S3150800BCC0F0874FEA540907EB890A42465146284647
S3150800BCD0FFF7A6FE28B1013C0AF10407A4EB090404
S3150800BCE0DDE74C46DBE7F7B500F1240605460A68AA
S3150800BCF00F4668463146FFF7C8FFD5F82432009C40
S3150800BD0006EB83039C4215D001A920460197FFF74D
S3150800BD1090FF236873B9D5F8243206EB83060434FA
S3150800BD20A64209D1301FFFF753FFD5F82432013B4D
S3150800BD30C5F8243203B0F0BD2146201FFFF7F3FDF6
S3150800BD40EDE72DE9F84FD1F80052002301EB850AFB
S3150800BD5007460C4690460360037145F31D050E46DB
S3150800BD604DB9B24519D1D4F800220123802A3B7176
S3150800BD701FD10FF005FD4FEA550B06EB8B0942461E
S3150800BD8049462046FFF752FE28B1013D09F104064F
S3150800BD90A5EB0B05E4E75D46E2E732464146204659
S3150800BDA0FFF744FE0028DED13D713E603846BDE807
S3150800BDB0F88F04EB8203B34202F101004FF0000151
S3150800BDC007D1D8F800303360C8F80010C4F800026C
S3150800BDD0EBE753F804CC44F822C043F8041C1D1FB3
S3150800BDE0C4F80002AE4204D141463046FFF79BFD37
S3150800BDF0DBE7043D2946281DFFF795FDF2E77FB5E9
S3150800BE0000F1240605460A6868460C463146FFF7DF
S3150800BE103CFFD5F82432009806EB8303984205D0F8
S3150800BE2002A90294FFF71AFF04B070BD214601A8C3
S3150800BE30FFF720FF02A801AA3146FFF782FF01A8F3
S3150800BE40FFF7C6FEF0E7B0F9040070470020704718
S3150800BE50002070470346D0F8080128B11B68D3F8BC
S3150800BE60A401B0FA80F040097047036802695B686C
S3150800BE7003EB5203B3FBF2F0704741B103685B680A
S3150800BE80B1EB430F06D803EB5103B3FBF1F10161A4
S3150800BE900120704700207047036842695B6803EB1E
S3150800BEA05203B3FBF2F0704721B94161C0F8B410F0
S3150800BEB00120704703685B68B1EB430F0BD803EBAF
S3150800BEC05103B3FBF1F3018B436159434FF47A7382
S3150800BED0B1FBF3F1EAE70020704790F84430032BF2
S3150800BEE00BD1B1F57A7F08D8B0F8BC308B4228BFA1
S3150800BEF00B46A0F8BE300120704700207047436902
S3150800BF00B1F57A7F28BF4FF47A71018359434FF40C
S3150800BF107A73B1FBF3F1C0F8B4100120704740689A
S3150800BF207047002070470079704700207047B0F9C5
S3150800BF30040070478180012070474068704741605F
S3150800BF40012070474068FFF7A7BF4068FFF782BF28
S3150800BF504068FFF7C2BF4068FFF787BF4368188B82
S3150800BF6070474068FFF7A0BF4068FFF786BF406884
S3150800BF70FFF7C5BF90F84400012802D0031F5842B6
S3150800BF805841704702680A4902F12403C31A5B1133
S3150800BF904B4302EB83024FF4FA6312695343A3F54A
S3150800BFA00C43A03B5200B3FBF2F3A0F8BC30704739
S3150800BFB0398EE338036810B51C680A2242F20F73FB
S3150800BFC002FB043242F21071B2FBF1F2C0F8DC2037
S3150800BFD0642202FB0433B3FBF1F3C0F8EC30C0F87B
S3150800BFE0FC30C0F80C3110BD406807F0FDBF406852
S3150800BFF007F0F4BF037B10B50BB1C1F57A7103687E
S3150800C000826803F12404001B064C4011604303EBCD
S3150800C01080031B6959434FF47A73B1FBF3F111603E
S3150800C02010BD00BF398EE33802680A4902F12403BD
S3150800C030C31A5B114B4302EB8302017B13698268C7
S3150800C040106801B1181A4FF47A725043B0FBF3F036
S3150800C05080B27047398EE3384068FFF7E5BF0023A2
S3150800C060C0E93033C0E93233C0E93433012380F8FC
S3150800C070B930704738B50025C0E94655FFF7EFFFD8
S3150800C08004462946E830FFF75BF9294604F1F8002B
S3150800C090BDE83840FFF754B970B5D0F8C44090F8F9
S3150800C0A044208C42D0E9343506DD022AA1EB04018E
S3150800C0B010D10122002617E0D0F8C8408C4205DBD3
S3150800C0C0022A01D0052A34D000242FE0022AA1EB47
S3150800C0D0040125D0541F624262410029D4BF0026BC
S3150800C0E00126B2EBD17F1DD1494396420CBF0C46BF
S3150800C0F000246FF41C721144002929DA0B4423EA40
S3150800C100E373C0F8D0306FF41C73E318002B19DB07
S3150800C1106FF00041491B9942D4BF6D18ED1814E021
S3150800C12001221646964204D101FB01F46FF41C71F4
S3150800C130E4E76FF41C710B4423EAE373C0F8D030CC
S3150800C1406FF41C731D4425EAE575C0F8D45070BD1C
S3150800C1506FF00042D21A8A42D4BF9B185B18D0E708
S3150800C160D0E934321A4403685B6940F271214B43C3
S3150800C1709A42D4BF002001207047426922B9C0F80C
S3150800C1801C2180F8B8207047D0F81C3101339A4238
S3150800C19097BF0023C0F81C31C0F81C3180F8B830AE
S3150800C1A0D0F81C21D0F8B4309A4224BF012380F875
S3150800C1B0B83070472DE9F041D0F81841066990F873
S3150800C1C0B8300134B44228BF002405468846C0F872
S3150800C1D0184193BBFFF7CEFEB5F978301A4600B181
S3150800C1E05A423EB3002BB8BF5B429FB2EB6D7B430E
S3150800C1F0B3FBF8F14FF47A737143B1FBF3F1731E95
S3150800C2009942A8BF1946B5F95430BB42A8BF3B4668
S3150800C21000B15B42A142DBBF641A761AC1EB440443
S3150800C220A6EB4404CBBF5C435C4394FBF1F494FB5C
S3150800C230F6F422441046BDE8F0810022FAE791F8A8
S3150800C240B83070B51BB100230360436070BD91F828
S3150800C2504460CC6DB1F8BC30022E4FEA440514D0C8
S3150800C260052E12D04FF61841A3F57A7312FB01F189
S3150800C27053434FF47A72640891FBF5F193FBF2F39A
S3150800C2800160534393FBF4F3DFE75A4300214FF46D
S3150800C2907A73016092FBF3F25A4392FBF5F242601D
S3150800C2A0D4E7F7B503680E460446014668469D6915
S3150800C2B0FFF7C5FF019BB342A8BF3346D4E9310255
S3150800C2C01946009B9E42B8BF1E460B1A002B43F622
S3150800C2D0FF77B8BF5B4205FB0373002BB8BFDB19BA
S3150800C2E000EBA330B31A8842D4BFC4F8C400C4F81C
S3150800C2F0C410002B43F6FF71B8BF5B4205FB03135E
S3150800C300002BB8BF5B18A2EBA332B242ACBFC4F88D
S3150800C310C820C4F8C86003B0F0BD2DE9F04F044644
S3150800C320164685B089463146FFF727FFFFF742FFD5
S3150800C3302368D3E90082054620460A23B2FBF3FAAE
S3150800C340FFF718FEE26A236A0292A26B94F8B870A5
S3150800C35041F2883102FB0AF203FB0AF393FBF1F37D
S3150800C36092FBF1F1021E0192E26D14BFB3464FF043
S3150800C370000B4FF47A706A4392FBF0F25A44039228
S3150800C380D4F8CC20A5EB0900514348BFFF314343FD
S3150800C39003EB2123A9EB050CD4F8C010C4F8CC3064
S3150800C3A0EFB94FF00A0E40F6B832B8FBFEF8DDF8E2
S3150800C3B008E0D045A8BFD04602FB0AF20EFB08F8F3
S3150800C3C041F2883E98FBFEF800FB0818504280456B
S3150800C3D003DB4245A8BF42461046C4F8C000D4F85D
S3150800C3E0C02092FBFAFA039A13449A444FF47A73DC
S3150800C3F003FB0AFA9AFBF6FABAF57A7F94F8B9308B
S3150800C4000CDDBCF1000F0CDA0123C4F8C01084F867
S3150800C410B9302046FFF7AEFD60B907E0BAF1000F64
S3150800C42053DB002B5FD1002384F8B93094F8BA3077
S3150800C430002B5BD10027B4F8BC80D045A8BFD046F6
S3150800C4403946204628EAE878FFF7D1FD1FFA88F131
S3150800C4502046FFF7CFFD94F8BA303BB1494620464F
S3150800C460FFF71AFE32462946FFF71BFF3FB3E36D77
S3150800C47008FB06F603FB05F14FF47A7391FBF3F715
S3150800C48096FBF3F64FF4FA6391FBF3F1019BA6EBE7
S3150800C4900B0604F1E80004F1F80553B301F5FA7147
S3150800C4A08E42D4BF00210121FA3FFEF74FFFB6EBBB
S3150800C4B0470FB4BF012100212846FEF747FF012395
S3150800C4C084F8BA3005B0BDE8F08FBCF1000FA8DDDE
S3150800C4D00123C4F8C01084F8B9302046FFF74AFD96
S3150800C4E00028A3D1A6E7C4F8C0109CE787F0010787
S3150800C4F0A1E7A1F5FA718E42ACBF00210121FA37F6
S3150800C500FEF724FFB6EB470FCCBF01210021D3E786
S3150800C5102DE9F0479046FFF730FEB0F978700546EA
S3150800C5200E461FB190F8B87087F001072846FFF746
S3150800C53021FD95F8BA4081461CB195F8B84084F0BB
S3150800C54001044F4514BFB5F8BCA04FF0000A2146B8
S3150800C5502846FFF74CFD28465146FFF74BFD28466F
S3150800C560FFF77DFD2CB34F4514BF44460024EB6D01
S3150800C57005F1E80005F1F8074FF47A72B9F1000FF2
S3150800C5801CD0A4EB0804544394FBF3F4610032393D
S3150800C590B142D4BF00210121FEF7D8FE04EBD471C5
S3150800C5A049103231B142ACBF002101213846FEF7AD
S3150800C5B0CDFE012385F8BA30BDE8F08714FB02F4F6
S3150800C5C094FBF3F461003231B142ACBF0021012182
S3150800C5D0FEF7BCFE04EBD47149103239B142D4BF20
S3150800C5E000210121E2E700007FB5FFF7C6FD0368D9
S3150800C5F004465E68FFF718FD05462046FFF7F4FC7B
S3150800C600B4F8BE1030B3144BB3FBF6F3EA1A9142F2
S3150800C6101D440292AABF0A4602AB01AB9542B8BFB7
S3150800C62003AB019103951D6894F8BA1019B194F8F3
S3150800C630B81081F001012046FFF7D9FCA9B22046BF
S3150800C640FFF7D8FC2046FFF715FD012384F8BA301A
S3150800C65004B070BD0D46E7E740420F00F8B5A1F5F6
S3150800C660006140F68D154D4348BF05F2FF75044637
S3150800C6701646ED12FFF77EFC00283CD06B421BB233
S3150800C68005F6CA01A4F8903041F29413994204F1D0
S3150800C690D80794BF002101213846FEF757FE1EB978
S3150800C6A001213846FEF74CFE94F870602EBB002137
S3150800C6B02046FFF79CFC002384F8BA3094F84430EF
S3150800C6C0032B00F088804FF4FA712046FFF792FC9E
S3150800C6D02046FFF7CFFC002DB8BF6D42182D79DC38
S3150800C6E0D4F8D830002B75D004F584700121BDE844
S3150800C6F0F840FEF72BBE2BB2C2E7D4F80821002A71
S3150800C700D5D194F84430591E01290AD9191F01298F
S3150800C71043D823682946B3F990212046FFF7F8FE47
S3150800C72006E023682946B3F990212046FFF7F5FD70
S3150800C7302046FFF715FD50B1D4E934320A2192FBA1
S3150800C740F1F0834234DA062384F8A0300026D4F8C0
S3150800C750D810D4F8E820D4F8F83081BB032184F83F
S3150800C760A01012B9012284F8A02013B9022384F874
S3150800C770A030002104F58470FEF7E2FD94F84430F9
S3150800C780032B0CBFB4F8BE30B4F97830C4F8A8301F
S3150800C790B4F89030A4F8B03017E0032B04D0072380
S3150800C7A084F8A0301646C3E72046FFF71DFFBFE70B
S3150800C7B093FBF1F39342D4BF04230523C4E7002A6D
S3150800C7C0D0D0002BD2D0002ED3D0D4F80831002BED
S3150800C7D07FF46DAFF8BDB4F8BE1076E738B5836060
S3150800C7E09DF8103003734FF47A730383384BC36193
S3150800C7F0836243634023C0E9001283631822354BE2
S3150800C8000262036440F6B832334BC262334A0025EB
S3150800C810C0E91230324B0365C0E916254367314A31
S3150800C820314B80F84450C0E91920C0E91F302F4A1F
S3150800C8302F4BC2662F4AA0F8545080F87050A0F8C3
S3150800C8407850C0E90455C0E921302B4BC0F88C302C
S3150800C850C0E92520C0F8AC30284AC0F89C204FF41F
S3150800C8608073274AA0F8B830264BA0F890500446A3
S3150800C870C0E92925C0E92F35C0E93155C0E9335546
S3150800C88080F8A050A0F8B050C0F8B45080F8BA505C
S3150800C890C0F8D4502946D830FEF75EFD294604F183
S3150800C8A0E800FEF759FD294604F1F800FEF754FDA5
S3150800C8B0294604F58470FEF74FFD6068C4E94655BD
S3150800C8C007F0DEFA6068294607F088FB204638BD7F
S3150800C8D0D4190208DC160208E4190208E41802084A
S3150800C8E0F4190208041A0208141A0208EC160208B7
S3150800C8F0241A0208341A0208C4190208441A02083B
S3150800C900541A0208DE03F40148307047583070475D
S3150800C91064307047806870470020704780687047A9
S3150800C920806870478068704780687047806870477D
S3150800C930806870478068704780687047806870476D
S3150800C940806870478068704780687047806870475D
S3150800C9500B4611468268934208D240684FF490729B
S3150800C96002FB03006C3003685B68184700207047B9
S3150800C9700B4611468268934208D240684FF490727B
S3150800C98002FB0300403003685B68184700207047C5
S3150800C9908368994207B512D240684FF4907303FB37
S3150800C9A001006C3003681B68984701238DF8040062
S3150800C9B09DF8040040EA032003B05DF804FB002359
S3150800C9C0F6E78368994207B519D240684FF4907321
S3150800C9D003FB01008C3003681B6898470123ADF8F8
S3150800C9E004008DF80630BDF80430002063F30F000C
S3150800C9F0BDF8063063F31F4003B05DF804FB00235F
S3150800CA00EFE78368994207B519D240684FF49073E7
S3150800CA1003FB0100AC3003681B6898470123ADF897
S3150800CA2004008DF80630BDF80430002063F30F00CB
S3150800CA30BDF8063063F31F4003B05DF804FB00231E
S3150800CA40EFE78368994207B512D240684FF49073AE
S3150800CA5003FB0100403003681B68984701238DF8E3
S3150800CA6004009DF8040040EA032003B05DF804FBC7
S3150800CA700023F6E78B689A4210B504460DD248683B
S3150800CA804FF4907303FB0200A43003681B689847B1
S3150800CA90012320602371204610BD0023FAE783682E
S3150800CAA0994207B512D240684FF4907303FB010010
S3150800CAB0943003681B68984701238DF804009DF895
S3150800CAC0040040EA032003B05DF804FB0023F6E700
S3150800CAD08368994207B512D240684FF4907303FBF6
S3150800CAE001009C3003681B68984701238DF80400F1
S3150800CAF09DF8040040EA032003B05DF804FB002318
S3150800CB00F6E70B4611468268934208D240684FF40E
S3150800CB10907202FB0300843003685B6818470020A4
S3150800CB2070478368994207B519D240684FF49073E5
S3150800CB3003FB0100843003681B6898470123ADF89E
S3150800CB4004008DF80630BDF80430002063F30F00AA
S3150800CB50BDF8063063F31F4003B05DF804FB0023FD
S3150800CB60EFE70B4611468268934208D240684FF4B5
S3150800CB70907202FB03007C3003685B68184700204C
S3150800CB8070478368994207B519D240684FF4907385
S3150800CB9003FB01007C3003681B6898470123ADF846
S3150800CBA004008DF80630BDF80430002063F30F004A
S3150800CBB0BDF8063063F31F4003B05DF804FB00239D
S3150800CBC0EFE70B4611468268934208D240684FF455
S3150800CBD0907202FB0300743003685B6818470020F4
S3150800CBE070478368994207B519D240684FF4907325
S3150800CBF003FB0100743003681B6898470123ADF8EE
S3150800CC0004008DF80630BDF80430002063F30F00E9
S3150800CC10BDF8063063F31F4003B05DF804FB00233C
S3150800CC20EFE70B4611468268934208D240684FF4F4
S3150800CC30907202FB0300503003685B6818470020B7
S3150800CC4070478368994207B519D240684FF49073C4
S3150800CC5003FB0100503003681B6898470123ADF8B1
S3150800CC6004008DF80630BDF80430002063F30F0089
S3150800CC70BDF8063063F31F4003B05DF804FB0023DC
S3150800CC80EFE70000634A644B2DE9F3412431C0E91C
S3150800CC900321624AC0E90621614AC0E90921614ABD
S3150800CCA0C0E90C21604AC0E90F21604AC0E9122197
S3150800CCB05F4AC0E915215F4AC0E918215E4AC0E902
S3150800CCC01B215E4AC0E90031012383604361036288
S3150800CCD0C362836343640365C36583664367C0E9C8
S3150800CCE01E21574AC0F88030C0E92121554AC0F8AC
S3150800CCF08C30C0E92421544AC0F89830C0E927216D
S3150800CD000446C0F8A4300090082769464F488DF8B5
S3150800CD1004700A2601F02AF904F10C0369464C4806
S3150800CD2000930C258DF8046001F020F904F118032E
S3150800CD306946484800938DF8045001F017F904F144
S3150800CD4024036946444800938DF8046001F00EF9FF
S3150800CD5004F130036946414800938DF8046001F0F8
S3150800CD6005F9072604F13C0369463D4800938DF80A
S3150800CD70046001F0FBF804F148036946394800935A
S3150800CD804FF009088DF8045001F0F0F804F1540347
S3150800CD906946354800938DF8048001F0E7F804F1F8
S3150800CDA060036946314800938DF8048001F0DEF887
S3150800CDB004F16C0369462E4800938DF8045001F07F
S3150800CDC0D5F804F1780369462A4800938DF804607B
S3150800CDD001F0CCF804F184036946274800938DF8DE
S3150800CDE0047001F0C3F804F19003009369460D231B
S3150800CDF022488DF8043001F0B9F804F19C0369461D
S3150800CE001F4800938DF8045001F0B0F8204602B090
S3150800CE10BDE8F081781A0208641A02088C1A02081A
S3150800CE20A01A0208B41A0208C81A0208DC1A02086C
S3150800CE30F01A0208041B0208181B02082C1B020819
S3150800CE40401B0208541B0208681B0208BC3502086E
S3150800CE50243602081C360208143602080C36020864
S3150800CE60FC350208F435020804360208C4350208FF
S3150800CE70EC350208E4350208DC350208D435020828
S3150800CE80CC3502087047D0E9003201EB620018473A
S3150800CE908368994213B5144612D20B4B00930023AC
S3150800CEA0019343684FF4907202FB01316846FFF71D
S3150800CEB0EAFF03685B68214602B0BDE810401847E0
S3150800CEC0002002B010BD00BF09C900088368994256
S3150800CED013B5144612D20B4B0093002301934368F3
S3150800CEE04FF4907202FB01316846FFF7CCFF0368E6
S3150800CEF05B68214602B0BDE810401847002002B022
S3150800CF0010BD00BF0DC900088368994213B51446C1
S3150800CF1012D20B4B00930023019343684FF490728F
S3150800CF2002FB01316846FFF7AEFF03685B682146DE
S3150800CF3002B0BDE810401847002002B010BD00BF7F
S3150800CF4011C900088B689A4213B54FF000030446CE
S3150800CF500FD20A48CDE900034B684FF4907101FBE4
S3150800CF6002316846FFF78FFF03681B68984701235D
S3150800CF7020602046237102B010BD00BF09C9000811
S3150800CF808B689A4213B54FF0000304460FD20A483D
S3150800CF90CDE900034B684FF4907101FB02316846F6
S3150800CFA0FFF771FF03681B68984701232060204636
S3150800CFB0237102B010BD00BF0DC900088B689A42E4
S3150800CFC013B54FF0000304460FD20A48CDE9000313
S3150800CFD04B684FF4907101FB02316846FFF753FF27
S3150800CFE003681B689847012320602046237102B016
S3150800CFF010BD00BF11C9000810B50446084663688D
S3150800D00011462278FDF79AFF237A2BB1227801235D
S3150800D010013A93405840C01A10BD8289034672B13E
S3150800D02040698142B8BF014698698142A8BF014656
S3150800D030B3F90A001B69414391FBF2F1194408460A
S3150800D040704743698B4205DC80698842B4BF00207B
S3150800D050012070470020704770B50D4604461146FA
S3150800D06028461A46FFF7C8FFD5E90732014603EBFB
S3150800D070C2029342184608D12846FFF7E2FF70B16C
S3150800D0802846FFF7CAFF206005E053F8086B8E4272
S3150800D090EFD14368236001232371204670BD2071B8
S3150800D0A0FBE74161704737B504460D461830002145
S3150800D0B0FEF770FB216968460B7D2A461831FFF793
S3150800D0C0CBFF94F8603004F1440083B99DF804104E
S3150800D0D081F00101FEF766FA9DF804304BB123682A
S3150800D0E000991B69204603B0BDE830401847002167
S3150800D0F0F0E703B030BD000013B50C4B0C4A0360D3
S3150800D100C368CDE9002004466946D86806F0F0FBF6
S3150800D11004F14400FEF76EFA04F11800FEF76AFA05
S3150800D1202046FDF738FF204602B010BD7C1B0208DA
S3150800D1307BD1000810B50446FFF7DEFF20466421C0
S3150800D140FEF7D6F9204610BD10B590F860300446B3
S3150800D1501BB1013B80F8603010BD03695B7B002B77
S3150800D160FAD001211830FEF715FB94F82430002B6D
S3150800D170F2D023691B696361EEE74068FFF793BF46
S3150800D1807FB5044615460E46FDF70EFF184B23607D
S3150800D1902B69AA7BA9686361C4E903656B7B04F103
S3150800D1A01800FEF710FBAA7B696804F14400FEF735
S3150800D1B007FA2B7B84F860300E4BE068D5E90F122E
S3150800D1C0CDE90234019B21F0004103F000430B43F3
S3150800D1D00193009B22F0004203F00043134300939F
S3150800D1E001AA6B4602A905F018FD204604B070BDD9
S3150800D1F07C1B02087BD100087047036810B51B69C1
S3150800D2000446984730B104F110000021BDE81040EB
S3150800D210FEF796B810BD4068FFF7EFBF0021103043
S3150800D220FEF78EB8FFF7FABF10B504460121103095
S3150800D230FEF78CF8236943B9236820465B6998474B
S3150800D2402046BDE81040FFF7E9BF10BDF0B504461B
S3150800D25085B015460F461E46FDF7A6FE134B2360FE
S3150800D2603146E76004F11000FEF776F80A9BE0689D
S3150800D27019680B9B1A680E4BCDE90234019B21F005
S3150800D280004103F000430B430193009B22F0004248
S3150800D29003F0004313430093C4E904556B4601AAFF
S3150800D2A002A905F0BAFC204605B0F0BD981B020895
S3150800D2B017D2000813B5084B084A0360C368CDE9BE
S3150800D2C0002004466946D86806F012FB2046FDF79A
S3150800D2D062FE204602B010BD981B020817D200084D
S3150800D2E00079704710B5034B03600446FEF744FA0D
S3150800D2F0204610BDC81B020810B50446FFF7F2FF0A
S3150800D30020464021FEF7F4F8204610BD10B5034B21
S3150800D31003600446FEF730FA204610BDE01B0208FB
S3150800D32010B50446FFF7F2FF20464021FEF7E0F865
S3150800D330204610BD10B50446806B03681B689847E5
S3150800D340B4F93C108142A8BF002104F10C00B8BF13
S3150800D3500121BDE81040FEF71DBA10B50446806BE2
S3150800D36003681B689847B4F93C108142D8BF00216E
S3150800D37004F10C00C8BF0121BDE81040FEF70ABA47
S3150800D3802DE9F0410546402035F9048B0E4617462F
S3150800D390FEF7A2F829460446FEF7DEF9054B236098
S3150800D3A0A763A4F83C80214606F10C00BDE8F041CD
S3150800D3B0FDF72EBEC81B02082DE9F04105464020A0
S3150800D3C035F9048B0E461746FEF786F829460446B5
S3150800D3D0FEF7C2F9054B2360A763A4F83C802146F3
S3150800D3E006F10C00BDE8F041FDF712BEE01B02088D
S3150800D3F02DE9F0410546402035F9048B0E461746BF
S3150800D400FEF76AF829460446FEF7A6F9054B236097
S3150800D410A763A4F83C80214606F10C00BDE8F0415C
S3150800D420FDF7F6BDE01B020838B50A4604460D4668
S3150800D43001460748FFF7A4FF2A4621460548FFF795
S3150800D4409FFF2A4621460448BDE83840FFF7B4BF87
S3150800D450101C0208001C0208F01B020810B5034B3A
S3150800D46003600446FDF797FD204610BD281C0208F8
S3150800D47010B50446FFF7F2FF20463021FEF738F8CC
S3150800D480204610BD70B50446C06803681B689847F7
S3150800D490014604F11400FDF759FF6169B1FA81F1FB
S3150800D4A0490904F12400FDF7B2FE94F828306BB15F
S3150800D4B0246923682046D3E90035984780F001019E
S3150800D4C02B462046C9B2BDE87040184770BD10B556
S3150800D4D0002104461430FDF739FF04F12400002129
S3150800D4E0BDE81040FDF793BEFFF7F1BFF8B5044657
S3150800D4F016460F461D46FDF757FD094B2360C4E93E
S3150800D5000376294604F11400FDF726FF0023054A91
S3150800D51084F82C30626284F828302046F8BD00BFB3
S3150800D520281C0208B81B020810B5054B044640F82B
S3150800D5300C3BFEF75FF82046FDF72DFD204610BD93
S3150800D540401C020810B50446FFF7EEFF20463021BE
S3150800D550FDF7CEFF204610BD03460C3093F82C305D
S3150800D5600BB1FEF729B80121FEF71CB813B504461E
S3150800D570FDF71AFD20460C4B40F80C3B0B490322DD
S3150800D580FEF71EF80A4BA362002304F1280284F86A
S3150800D5902C306946074800928DF8043000F0E6FC06
S3150800D5A0204602B010BD00BF401C0208C232020865
S3150800D5B0EC1602080C39020880887047C3888B422B
S3150800D5C005D803898B4202D3818001207047002049
S3150800D5D07047F8B50446C06803681B68984704F1A5
S3150800D5E01807267D207505463846FDF74EFFA369C0
S3150800D5F03BB9012E15D0A5B13846BDE8F840FDF770
S3150800D6002FBF012D0DD066B125692B682846D3E9B1
S3150800D6100036984780F00101C9B22846B047002372
S3150800D620A361F8BD10B5034B03600446FDF7B3FCD0
S3150800D630204610BD681C020810B50446FFF7F2FF25
S3150800D64020462021FDF754FF204610BDF8B50446B4
S3150800D6500F4616461D46FDF7A7FC064B236000211C
S3150800D660C4E9037621752A4604F11800FDF7F5FE8C
S3150800D6702046F8BD681C020802207047042070473F
S3150800D680064B10B518680DF0F0FBD0F82033BDE84E
S3150800D69010401B6800F54870184700BF302300206B
S3150800D6A001207047086808B503689B68984780009A
S3150800D6B008BD086808B503689B689847400008BD18
S3150800D6C0086808B503689B689847800008BD08681D
S3150800D6D008B503689B689847400008BD0420704752
S3150800D6E001207047012070470220704708680368C8
S3150800D6F09B681847086803689B68184708680368A2
S3150800D7009B68184707B5054B027A011D53F8223066
S3150800D71001A8984703B05DF804FB00BF781C02080F
S3150800D72010B5054B044618680DF09FFB2146BDE869
S3150800D730104000F0EDBC00BF3023002010B504688F
S3150800D740FFF79EFF0444A07810BD73B50446086829
S3150800D75016680D46FFF7F2FF18B92071204602B089
S3150800D76070BD6A68336812681B6831466846984710
S3150800D7709DF8043013B1009B236001232371EDE764
S3150800D78073B50446086816680D46FFF7D7FF18B93B
S3150800D7902071204602B070BD6A68336811681B683C
S3150800D7A03046984710F47F0F0190C0F307431EBF19
S3150800D7B0BDF90430236001232371EAE773B50446F3
S3150800D7C0086816680D46FFF7B9FF18B92071204694
S3150800D7D002B070BD6A68336811681B68304698479E
S3150800D7E010F47F4FADF80400C0F307231EBF9DF960
S3150800D7F00430236001232371E9E773B504460868FA
S3150800D80016680D46FFF79AFF18B92071204602B030
S3150800D81070BD6A68336812681B683146684698475F
S3150800D8209DF8043013B1009B236001232371EDE7B3
S3150800D83073B50446086816680D46FFF77FFF18B9E2
S3150800D8402071204602B070BD6A68336811681B688B
S3150800D8503046984710F47F0F0190C0F307431EBF68
S3150800D860BDF80430236001232371EAE773B5044643
S3150800D870086816680D46FFF761FF18B9207120463B
S3150800D88002B070BD6A68336811681B6830469847ED
S3150800D89010F47F4FADF80400C0F307231EBF9DF8B0
S3150800D8A00430236001232371E9E773B50446086849
S3150800D8B016680D46FFF742FF18B92071204602B0D8
S3150800D8C070BD6A68336811681B683046984710F45B
S3150800D8D07F4FADF80400C0F307231EBF9DF8043040
S3150800D8E0236001232371E9E770B5044608681668C2
S3150800D8F00D46FFF723FF10B92071204670BD6B68EF
S3150800D9001B683BB9336830461B689847012320607B
S3150800D9102371F2E70023FBE770B50446086816682A
S3150800D9200D46FFF70BFF10B92071204670BD6B68D6
S3150800D9301B683BB9336830461B689847012320604B
S3150800D9402371F2E70023FBE770B5044608681668FA
S3150800D9500D46FFF7F3FE10B92071204670BD6B68BF
S3150800D9601B683BB9336830461B689847012320601B
S3150800D9702371F2E70023FBE770B5044608681668CA
S3150800D9800D46FFF7DBFE10B92071204670BD6B68A7
S3150800D9901B683BB9336830461B68984701232060EB
S3150800D9A02371F2E70023FBE770B50446086816689A
S3150800D9B00D46FFF7C3FE10B92071204670BD6B688F
S3150800D9C01B683BB9336830461B68984701232060BB
S3150800D9D02371F2E70023FBE770B50446086816686A
S3150800D9E00D46FFF7ABFE10B92071204670BD6B6877
S3150800D9F01B683BB9336830461B689847012320608B
S3150800DA002371F2E70023FBE770B504460868166839
S3150800DA100D46FFF793FE10B92071204670BD6B685E
S3150800DA201B683BB9336830461B689847012320605A
S3150800DA302371F2E70023FBE773B504460868166806
S3150800DA400D46FFF77BFE18B92071204602B070BD5F
S3150800DA506A68336812681B683146684698479DF8B5
S3150800DA60043013B1009B236001232371EDE773B5DE
S3150800DA700446086816680D46FFF760FE18B9207157
S3150800DA80204602B070BD6A68336811681B68304664
S3150800DA90984710F47F0F0190C0F307431EBFBDF9E6
S3150800DAA00430236001232371EAE773B50446086846
S3150800DAB016680D46FFF742FE18B92071204602B0D7
S3150800DAC070BD6A68336811681B683046984710F459
S3150800DAD07F4FADF80400C0F307231EBF9DF904303D
S3150800DAE0236001232371E9E773B5044608681668BD
S3150800DAF00D46FFF723FE18B92071204602B070BD07
S3150800DB006A68336812681B683146684698479DF804
S3150800DB10043013B1009B236001232371EDE773B52D
S3150800DB200446086816680D46FFF708FE18B92071FE
S3150800DB30204602B070BD6A68336811681B683046B3
S3150800DB40984710F47F0F0190C0F307431EBFBDF836
S3150800DB500430236001232371EAE773B50446086895
S3150800DB6016680D46FFF7EAFD18B92071204602B07F
S3150800DB7070BD6A68336811681B683046984710F4A8
S3150800DB807F4FADF80400C0F307231EBF9DF804308D
S3150800DB90236001232371E9E773B50446086816680C
S3150800DBA00D46FFF7CBFD18B92071204602B070BDAF
S3150800DBB06A68336811681B683046984710F47F4FC7
S3150800DBC0ADF80400C0F307231EBF9DF80430236098
S3150800DBD001232371E9E770B50446086816680D46FF
S3150800DBE0FFF7ACFD10B92071204670BD6B681B6845
S3150800DBF03BB9336830461B68984701232060237178
S3150800DC00F2E70023FBE770B50446086816680D4678
S3150800DC10FFF794FD10B92071204670BD6B681B682C
S3150800DC203BB9336830461B68984701232060237147
S3150800DC30F2E70023FBE770B50446086816680D4648
S3150800DC40FFF77CFD10B92071204670BD6B681B6814
S3150800DC503BB9336830461B68984701232060237117
S3150800DC60F2E70023FBE770B50446086816680D4618
S3150800DC70FFF764FD10B92071204670BD6B681B68FC
S3150800DC803BB9336830461B689847012320602371E7
S3150800DC90F2E70023FBE770B50446086816680D46E8
S3150800DCA0FFF74CFD10B92071204670BD6B681B68E4
S3150800DCB03BB9336830461B689847012320602371B7
S3150800DCC0F2E70023FBE770B50446086816680D46B8
S3150800DCD0FFF734FD10B92071204670BD6B681B68CC
S3150800DCE03BB9336830461B68984701232060237187
S3150800DCF0F2E70023FBE770B50446086816680D4688
S3150800DD00FFF71CFD10B92071204670BD6B681B68B3
S3150800DD103BB9336830461B68984701232060237156
S3150800DD20F2E70023FBE710B50468FFF7A9FC0444F3
S3150800DD30207910BD70B5044600680D68FFF7F3FF3B
S3150800DD4068B163681B6853B9A36819682B680039FA
S3150800DD5028465B68BDE8704018BF012118470020B7
S3150800DD6070BD70B5044600680D68FFF7DCFF50B15A
S3150800DD7063681B683BB9A2682B6811785B682846FC
S3150800DD80BDE870401847002070BD70B504460068AD
S3150800DD900D68FFF7C8FF50B163681B683BB9A268F6
S3150800DDA02B6811885B682846BDE870401847002034
S3150800DDB070BD70B5044600680D68FFF7B4FF50B132
S3150800DDC063681B683BB9A2682B6811685B682846BC
S3150800DDD0BDE870401847002070BD70B5044600685D
S3150800DDE00D68FFF7A0FF58B163681B6843B9A268BE
S3150800DDF02B6892F900105B682846BDE87040184702
S3150800DE00002070BD70B5044600680D68FFF78BFFEB
S3150800DE1058B163681B6843B9A2682B68B2F9001049
S3150800DE205B682846BDE870401847002070BD70B58D
S3150800DE30044600680D68FFF776FF50B163681B68F3
S3150800DE403BB9A2682B6811685B682846BDE8704034
S3150800DE501847002070BD70B5044600680D68FFF7C6
S3150800DE6062FF60B1A36861681A682B6809685B6815
S3150800DE70003A284618BF0122BDE87040184770BD11
S3150800DE8070B5044600680D68FFF74DFF48B1D4E940
S3150800DE9001122B6812785B6809682846BDE870404D
S3150800DEA0184770BD70B5044600680D68FFF73BFF5C
S3150800DEB048B1D4E901122B6812885B6809682846BC
S3150800DEC0BDE87040184770BD70B5044600680D6817
S3150800DED0FFF729FF48B1D4E901122B6812685B687D
S3150800DEE009682846BDE87040184770BD70B50446F5
S3150800DEF000680D68FFF717FF50B1D4E901122B68C7
S3150800DF0092F900205B6809682846BDE87040184702
S3150800DF1070BD70B5044600680D68FFF704FF50B180
S3150800DF20D4E901122B68B2F900205B680968284613
S3150800DF30BDE87040184770BD70B5044600680D68A6
S3150800DF40FFF7F1FE48B1D4E901122B6812685B6845
S3150800DF5009682846BDE87040184770BD03689B7974
S3150800DF600BB1FFF7E0BE18467047000073B50646CA
S3150800DF7010200D46FDF7B0FA0346044695E803005F
S3150800DF8043F8046B83E803000023A381E381084B6D
S3150800DF9018680CF06AFF01A9019400F047FA019885
S3150800DFA010B11021FDF7A4FA204602B070BD00BFDB
S3150800DFB0302300201FB501ABCDE9012103930A7A6E
S3150800DFC0044B53F822300A1D02A9044698472046F6
S3150800DFD004B010BD201D02081FB501ABCDE9012113
S3150800DFE003930A7A044B53F822300A1D02A9044601
S3150800DFF09847204604B010BDE81C020830B587B023
S3150800E00001ABCDE90432027A0A4B01910390011D56
S3150800E01053F82230044603A89847054638B12046E7
S3150800E020FFF79CFF18B1A38901339BB2A381284649
S3150800E03007B030BDB01C020810B5044600F54A709A
S3150800E04008F052FBD4F8F43720469847C4F8F4078A
S3150800E05010BD0079704707F0B5BA0B6819681368E0
S3150800E06008881B681B8898422CBF0020012070472F
S3150800E07000F10C03D0F81C0370B503EB800440F3E1
S3150800E0801D0040B99C4205D0186803681B888B425E
S3150800E09088BF002070BD420803EB820553F8226052
S3150800E0A0366836888E423DBF00F1FF302B1D801A38
S3150800E0B01046E6E710B509880446FFF7D9FF01467A
S3150800E0C028B104F54A70BDE8104008F0BFBE10BD7F
S3150800E0D0B0F8FC27B0F8FE3792B29BB29A420AD142
S3150800E0E0B0F80028B0F8023892B29BB29A4202D130
S3150800E0F090F8040870470120704710B5044620467A
S3150800E100FFF7E6FF00B910BD2046FFF795FFF6E7D3
S3150800E11000F54A7008F09ABED0F81C3370B500F1C5
S3150800E1200C05044605EB8306B54200D170BD55F8CB
S3150800E130041B2046FFF7ECFFF6E710B5044600F58A
S3150800E1404A7008F0C3FE40B1B4F8003801339BB2F8
S3150800E150A4F80038012384F8043810BD10B50988DE
S3150800E1600446FFF785FF014620B12046BDE810406A
S3150800E170FFF7E3BF10BD00F10C03C0F8F837B0F89D
S3150800E180FC3701339BB2A0F8FC37012380F804382A
S3150800E1907047D0F81C3370B500F10C04054604EB43
S3150800E1A08306A64204D12846BDE87040FFF7E3BFC0
S3150800E1B02068FFF7D3FE20B12268938901339BB20A
S3150800E1C093810434EDE710B5044600F54A7008F06B
S3150800E1D0C2FEB4F8003801339BB2A4F80038012314
S3150800E1E084F8043810BD0000EFF3108172B6B0F859
S3150800E1F0FC37B0F8FE279BB292B293420CD1B0F826
S3150800E2000038B0F802289BB292B293420BD10A4862
S3150800E210CB070FD462B67047A0F8FE37012380F803
S3150800E22004380648F4E7A0F80238012380F80438D1
S3150800E2300348EDE772B6704745E200089DE200081C
S3150800E240C9E20008FFF7D0BFD0F83823104B9A422E
S3150800E25010B518D1D0F81C2300F10C0303EB820388
S3150800E260D0F8F827934210D0111DC0F8F817116896
S3150800E2708A89CC8992B2A4B2A242F1D0CA8100F5A9
S3150800E2804A7008F023FE034800E0034810BD00BFAB
S3150800E29057E000089DE20008C9E20008FFF7D4BF6E
S3150800E2A008B5D0F83823054B9A4205D100F54A70CF
S3150800E2B008F04CFE024808BD0248FCE757E0000893
S3150800E2C0F1E20008C9E20008FFF7EABFD0F83823F0
S3150800E2D0044B9A4203BF002380F8043802480348D7
S3150800E2E0704700BF57E0000845E20008F1E2000861
S3150800E2F0FFF7ECBF70B50446FCF756FE124B2360D9
S3150800E300124BC4F820330025012304F54A76104938
S3150800E31084F82433C4F81C53304608F01FFE0D4B0E
S3150800E320A4F8FC57C4F8F437A4F8FE57C4F8F8570D
S3150800E330A4F8005884F80458A4F80258304608F09F
S3150800E3406DFD204670BD00BF701D0208EC16020860
S3150800E3500420002045E200082DE9F74FD1F81053B4
S3150800E360002381460E469046036001EB850B45F374
S3150800E3701D040F46A4B9BB4524D10123C42D89F831
S3150800E38004302AD0D8F800303B600135C8F8004080
S3150800E390C6F810534846C9F8007003B0BDE8F08FB8
S3150800E3A04FEA540A07EB8A01424630460191FFF7C5
S3150800E3B054FE019920B1013C0F1DA4EB0A04D9E7CC
S3150800E3C05446D7E73A4641463046FFF746FE89F8AF
S3150800E3D004000028DED0C42D01D10DF0D1F95BF878
S3150800E3E0043C46F8253001354BF8044CABF1040AD9
S3150800E3F0C6F81053BA450BD1D8F80030C8F8004013
S3150800E40038683B600028C5D01021FDF771F8C1E7D0
S3150800E4105AF8043DCAF80040DAF80400CAF804308D
S3150800E4200028E7D01021FDF763F8E3E707B50A46A9
S3150800E43000F10C016846FFF78FFF03B05DF804FB97
S3150800E44070B50D4B0360044600F54A7008F050F9A4
S3150800E450D4F81C5304F10C0625B92046FCF79BFD9D
S3150800E460204670BD56F8040B013D0028F4D0102153
S3150800E470FDF73EF8F0E700BF701D020810B5044628
S3150800E480FFF7DEFF204640F60801FDF731F8204683
S3150800E49010BD008A704780887047818001207047C8
S3150800E4A010B5034B03600446FCF775FD204610BD06
S3150800E4B0A81D020810B50446FFF7F2FF20462421DE
S3150800E4C0FDF716F8204610BD4068FFF7E2BF406822
S3150800E4D000F00CB80346C068198A1A8C03688A1AB1
S3150800E4E051425B6851411847FFF7F4BF08B5038CE2
S3150800E4F023B10182FFF7EEFF012008BD1846FCE7AD
