S02B0000433A5C55736572735C646F75675C6465765C61726D5C63735C72656C656173655C6C636D335C6C6342
S315080090000020002025920008299200082B920008CB
S315080090104192000843920008599200080000000097
S31508009020FFFFFFFF00000000000000006F9200082D
S3150800903071920008000000007392000875920008FB
S315080090403D3101084D3101085D3101086D310108D6
S315080090507D3101088D3101089D310108AD310108C6
S31508009060BD310108CD310108DD310108ED310108B6
S31508009070FD3101080D3201081D3201082D320108A3
S315080090803D3201084D3201085D3201086D32010892
S315080090907D3201088D3201089D320108AD32010882
S315080090A0BD320108CD320108DD320108ED32010872
S315080090B0FD3201080D3301081D3301082D3301085F
S315080090C03D3301084D3301085D3301086D3301084E
S315080090D07D3301088D3301089D330108AD3301083E
S315080090E0BD330108CD330108DD330108ED3301082E
S315080090F0FD3301080D3401081D3401082D3401081B
S315080091000000000000000000000000003D340108D7
S315080091104D3401085D3401086D3401087D340108B9
S315080091208D3401089D340108AD340108BD340108A9
S31508009130CD340108DD3401080000000000000000FD
S31508009140ED340108FD3401080D3501080000000062
S315080091500000000000000000000000000000000001
S3150800916000000000000000001D3501082D3501082B
S315080091703D35010800000000000000000000000066
S31508009180000000004D35010808B500F0C1F81D4D76
S315080091901D4AAA420AD2D2E9001394680C32C91AA7
S315080091A09C42F6D9585843F8040BF9E7174A184C65
S315080091B00021A24208D252F8083B52F8040C984201
S315080091C0F7D943F8041BFAE7124C134D02F0E5FBF6
S315080091D02D1BAD100026B54204DD54F8043B984714
S315080091E00136F8E70D4C0E4D2D1BAD100026B54285
S315080091F004DD54F8043B98470136F8E70FF062F8A7
S31508009200FEE700BF289400081C940008289400086C
S315080092103094000830940008309400083094000810
S315080092203C94000814480047FEE71EF0040F0CBFE4
S31508009230EFF30880EFF309807146104A1047FEE7FE
S31508009240FEE71EF0040F0CBFEFF30880EFF309806A
S3150800925071460B4A1047FEE71EF0040F0CBFEFF3EA
S315080092600880EFF309807146064A1047FEE7FEE7D5
S31508009270FEE7FEE770470000899100083F92000864
S31508009280579200086D9200081C4B1A6822F4502267
S315080092901A601A6842F480321A601A689103FCD57B
S315080092A0174A520102F18442012111604FF480628B
S315080092B05A60144A116821F0040111606FF07F4169
S315080092C05160116841F0010111600F4A5A6000228D
S315080092D0DA621A6842F080721A601A689201FCD53E
S315080092E00A4A122111605A6842F002025A605A6804
S315080092F002F00C02082AFAD1704700BF001002409B
S315080093002410020010E000E00004110000200240D2
S3150800931038B53C4C2368002243F0010323606260A1
S31508009320236823F0847323F480332360E26223687E
S3150800933023F480232360A260E36843F00103E3601B
S31508009340E36823F00103E360A36943F00103A36123
S31508009350FFF79AFF2C4B2D4A9A6062B62C4ADA60C0
S31508009360A36A43F08053A362A36A23F08053A362DF
S31508009370636943F080536361E36A23F4F873E36235
S31508009380E36A43F48073E362BFF34F8F214DAB6802
S3150800939023F04053AB60AB6842F2107043F0805341
S315080093A0AB6007F0FDF8AB6843F00043AB60AB6811
S315080093B0002BFCDB382007F0F3F8AB68164843F0BF
S315080093C00103AB6008F002FFC1232B630023AA68E0
S315080093D042F00402AA602A685207FCD52A6CB2F544
S315080093E0946F00D30133642BF1D1A36A43F0805301
S315080093F0A362A36A23F08053A362636923F08053B0
S31508009400636138BD0010024000ED00E000900008DE
S311080094100003FA05000000508C9C0108BF
S3150800941C84AA010800200020D0200020D02000209B
S3150800942C644F00200DBA0008B9EC0008E5EC0008FA
S3150800943C0020704700797047017101207047007948
S3150800944C7047017101207047002070470020704753
S3150800945C024A026000224260704700BF5D94000811
S3150800946C024A026000224260704700BF6D940008F1
S3150800947C024A026000224260704700BFA9B0000889
S3150800948C38B5CB68044658680D461830012108F0E3
S3150800949C45FF05F16400142102F060FA024B2360C3
S315080094AC00236360204638BD7DAD000838B5B1F899
S315080094BC5630A1F8843001230C46054681F88630CF
S315080094CC01F1D40002F047FA04F1DC0002F043FA89
S315080094DC034A0023C5E9002384F84030284638BDE2
S315080094EC61AF0008012804D0022814BF0020102000
S315080094FC70470220704713B50446016802220DF125
S3150800950C06000FF097F82368BDF8060002332360AF
S3150800951C02B010BD08B5054B984201D90EF0E4FE11
S3150800952C2C235843BDE8084002F054BA2EBAE80278
S3150800953C13B50446016801220DF107000FF07AF8FD
S3150800954C23689DF807000133236002B010BD0000A4
S3150800955C024A026000224260704700BF5D9500080F
S3150800956CF0B503460C460F46054601F1100C3E466F
S3150800957C03CE664528606960374605F10805F6D1BD
S3150800958C30682860A17DA08A98829975D4E906016D
S3150800959CDA75E27D1A7603F11C0282E803000022D2
S315080095AC5A6283F8282083F826201846F0BD90F8CE
S315080095BC263082B08BB94FF60453ADF8043001232C
S315080095CC8DF80630BDF80430002063F30F00BDF8A3
S315080095DC063063F31F4002B07047036A1BB190F85C
S315080095EC283083F001034FF60652ADF80420E7E75E
S315080095FC30B589B06B4683E8060090F826300446E9
S3150800960C0BBB0B46022A1144CDE90431CDE90631D0
S3150800961C0CBF0125002506D106A8FFF76CFF012310
S3150800962CA08484F826308DF80C5001238DF80D3063
S3150800963C9DF80C30002063F307009DF80D3063F39A
S3150800964C0F2009B030BD036A2BB190F8283033B916
S3150800965C012380F8283001228DF80C20E6E7002338
S3150800966CF9E7000084B02DE9F843DDE90E650446F8
S3150800967C09A880E80E000DF1340C034622461F4655
S3150800968C03CF6745106051603B4602F10802F6D1DC
S3150800969C3868106000230122C4E90523C4E907339E
S315080096ACA37663621D4B06EB451845F31A059D42D6
S315080096BC02D91B480EF01BFEADB12846FFF72AFF50
S315080096CC07462C2303FB05756562E761B9463546E3
S315080096DCA8450AD0294648460122FFF741FF2035FE
S315080096EC09F12C09F4E72F46EBE7A81B40092C22B5
S315080096FC02FB0077334627629D420AD05A7D12F048
S3150800970C300F626914BF032102210A4462612033B7
S3150800971CF2E72046BDE8F84304B070472EBAE802D3
S3150800972C8C870108837E13B58BB94FF60253ADF8B7
S3150800973C003001238DF80230BDF80030002063F3A9
S3150800974C0F00BDF8023063F31F4002B010BDD0E91C
S3150800975C07148C420FD00846FFF729FF10F47F0F29
S3150800976CC0F3074301F12C01F3D001908DF80630B4
S3150800977C019B0093E0E70023F8E770B5837E88B079
S3150800978C6D4685E806000446B3B90B46022A114411
S3150800979CCDE90431CDE906310CBF0125002505D1EB
S315080097AC06A8FFF7A8FE01232083A3768DF80C5094
S315080097BC01238DF80D3011E0D0E90746B44218D0D4
S315080097CC204695E80600FFF713FF10F47F4FADF817
S315080097DC100004F12C04F1D0ADF80C009DF80C30F7
S315080097EC002063F307009DF80D3063F30F2008B0D3
S315080097FC70BD0023DDE7000038B50025044601607E
S3150800980CC0E9015529460C3002F0A2F80823E36199
S3150800981C04F122036561A5611846A575A576402253
S3150800982C29460EF02FFF04F162030560456085702A
S3150800983C857108309842F8D1024B2046C4E90135A7
S3150800984C38BD00BFCD9A0008837D37B50446BBB139
S3150800985C0C3002F097F8A168636811F0010F4FEA13
S3150800986C61016D4618BF62582846214418BFD35863
S3150800987C984795E80300043484E8030003B030BD28
S3150800988C014AC0E90123F9E7CD9A000838B5044620
S3150800989C0C200D4602F09EF80346021D95E80300BF
S315080098AC82E80300E26E1A60E36638BD82B002A94C
S315080098BC01E90C00009B1A78042A01BF019A597811
S315080098CC0170033305BF033AC0E9013200230123B3
S315080098DC037302B070471FB50B780E2B03D000200C
S315080098EC05B05DF804FB8B68022BF8D94A6802A808
S315080098FC1344CDE90023CDE90223FFF719FE02A88C
S3150800990CFFF7F9FD4FF606539842E8D102A8FFF780
S3150800991C0FFEB0FA80F04009E2E713B504468DF85D
S3150800992C071001220DF1070180680EF083FEA3686B
S3150800993C20460133A36002B010BD13B50446ADF83A
S3150800994C061002220DF1060180680EF073FEA3685C
S3150800995C20460233A36002B010BD10B58CB004AA21
S3150800996C0DF11E030446019108A80121CDE909321F
S3150800997C08920B93FFF7D1FF4FF6815108A8FFF712
S3150800998CDCFF0A2108A8FFF7C8FFA18A08A8FFF779
S3150800999CD4FFBDF8041008A8FFF7CFFFBDF80610D2
S315080099AC08A8FFF7CAFF002108A8FFF7C6FFC821B9
S315080099BC08A8FFF7C2FF089A0A9B02920B939B1AF8
S315080099CC0A920299206803931A4606F027FF0CB0F0
S315080099DC10BD0000F8B5002307460D4608469C4600
S315080099EC1A461C4695F8241019B16E8CDAB1B44295
S315080099FC19D8264695F8281019B1EC8CB2B1B44290
S31508009A0C14D334460133082B05F10805EAD122B1E3
S31508009A1C084B53F82C10FFF7A0FF074B3B600023AD
S31508009A2C7B603846F8BD9C460122E3E79C4601223A
S31508009A3CE8E700BFC48801086D94000838B50446E9
S31508009A4C084672B10023CB6180F820301A4BC269E4
S31508009A5C53F82210FFF781FF184B2360002363602D
S31508009A6C22E08B7E9BB10B4601F1400293F8241041
S31508009A7C19B15D8C018B8D4212D393F8281019B14C
S31508009A8CDD8C018B8D420BD308339A42EED190F8BC
S31508009A9C2020C3691AB9072B08D10123D4E743B987
S31508009AAC01462046FFF796FF204638BD0133C361B1
S31508009ABCCCE7013BFBE700BFC48801085D940008AE
S31508009ACC8B7D10B5044623B10122FFF7B7FF20465C
S31508009ADC10BD024AC0E90023F9E700BFCD9A000879
S31508009AECCA68F8B505468AB991F82030CF699B0043
S31508009AFC03EBC70301F12206F4184FF6FE77F7526B
S31508009B0C0123A370FFF79AFF2846F8BD024B0360A2
S31508009B1C00234360F8E700BFED9A00082DE9F041F1
S31508009B2CD1E901230D4686B0D118CDE90221CDE93C
S31508009B3C04212A783E2A044600F08C80FF2A38D065
S31508009B4C0F2A19D141685E4A914215D186689EB989
S31508009B5C032B11D904A8FFF7EBFC054604A8FFF75D
S31508009B6CE7FC04A8FFF7C7FC4FF68153984203D1CC
S31508009B7C2DB9544BC4E9013506B0BDE8F08194F80B
S31508009B8C2030E1699B0004F1220203EBC10305F5C1
S31508009B9C0055D552D11801238B706D46214628469F
S31508009BAC0022FFF74BFF95E80300043484E8030012
S31508009BBCE2E74168434A9142DED1D0F80880B8F111
S31508009BCC000FD9D1042BD7D904A8FFF794FC064665
S31508009BDC04A8FFF790FC074604A8FFF7A9FCAB6896
S31508009BEC05309842C8D8A28ABA42C5D1B6F5006FD4
S31508009BFC16D10A2BC0D904A8FFF79AFC064604A866
S31508009C0CFFF796FC04A8FFF776FC132E054618D129
S31508009C1CB8B9C82104F10C0001F0A0FE2A4BA9E73B
S31508009C2C40F601039E42A7D194F82030E1699B00C7
S31508009C3C04F1220203EBC1034FF6FE70D052D11881
S31508009C4CA9E7E36994F82010DB0004F1220203EB80
S31508009C5C81039CE7052B8FD904A8FFF769FC032819
S31508009C6C8AD104A8FFF764FC054604A8FFF743FC51
S31508009C7CA38A834280D104A8FFF73DFC0123A3766F
S31508009C8CD4E901230F4920838A4210D1002B7FF493
S31508009C9C73AF94F82030E1699B0004F1220203EBC0
S31508009CACC103D11801263DB9D0528E7075E7064905
S31508009CBC8A427FF461AFE9E705F50055D552F4E71A
S31508009CCC5D9400085D950008ED9A000870B588B09B
S31508009CDC0DF1070304460D4604A8012105930793C5
S31508009CECCDF810D0CDF818D0FFF717FE4FF68A41ED
S31508009CFC04A8FFF722FE032104A8FFF70EFE032192
S31508009D0C04A8FFF70AFE02AE002104A8FFF705FE19
S31508009D1C304609F025FC9DF80C1004A8FFF7FDFD4C
S31508009D2C049A069B07939B1A03930292E868069279
S31508009D3C96E8060006F072FD05F164000A2101F0AA
S31508009D4C0DFE034B236020460023636008B070BDEC
S31508009D5C13AA000830B589B00DF1050304460D4663
S31508009D6C04A8012105930793CDF810D0CDF818D087
S31508009D7CFFF7D3FD4FF6854104A8FFF7DEFD012159
S31508009D8C04A8FFF7CAFD032104A8FFF7C6FD049A29
S31508009D9C069B029207939B1A0299E86806921A4642
S31508009DAC039306F03BFD05F164000A2101F0D6FD8C
S31508009DBC034B236020460023636009B030BD00BF07
S31508009DCCF5AB000830B589B00DF1050304460D4610
S31508009DDC04A8012105930793CDF810D0CDF818D017
S31508009DECFFF79BFD4FF68F4104A8FFF7A6FD01214F
S31508009DFC04A8FFF792FD0A2104A8FFF78EFD049A22
S31508009E0C069B029207939B1A0299E86806921A46D1
S31508009E1C039306F003FD05F164000A2101F09EFD8B
S31508009E2C034B236020460023636009B030BD00BF96
S31508009E3C99AC0008F0B589B001AB044602AD0F46E3
S31508009E4C04A801211646CDE9055304930795FFF797
S31508009E5C64FD394604A8FFF770FD002104A8FFF736
S31508009E6C5CFD049A069B07939B1A03930292E0687F
S31508009E7C069295E8060006F0D1FC314604F164001A
S31508009E8C01F06CFD09B0F0BD10B50A22044608466F
S31508009E9C41F20101FFF7CEFF024B236000236360FA
S31508009EAC204610BDEDAC000810B50A22044608463B
S31508009EBC4FF69241FFF7BEFF024B23600023636007
S31508009ECC204610BDA1AB000810B50A220446084668
S31508009EDC4FF60151FFF7AEFF024B23600023636078
S31508009EEC204610BDBDAB000810B50A22044608462C
S31508009EFC4FF69441FFF79EFF024B236000236360E5
S31508009F0C204610BD2DAC0008F0B591F83430B3FAE4
S31508009F1C83F30C465B098FB081F85430012106AAED
S31508009F2C0DF1360384F85510064602A8CDE903321E
S31508009F3C02920593FFF7F1FC4FF6864102A8FFF74C
S31508009F4CFCFC1A2102A8FFF7E8FC002102A8FFF77F
S31508009F5CE4FC002102A8FFF7E0FC1025002102A86A
S31508009F6CFFF7DBFC013DF9D1072102A8FFF7D5FC69
S31508009F7C102102A8FFF7D1FC6F46294602A8FFF765
S31508009F8CCCFC04223946049800950EF053FB049B2E
S31508009F9C94F85510043302A80493FFF7BEFC029AF2
S31508009FAC049B05939B1A01930092E068049297E828
S31508009FBC060006F033FC04F164000A2101F0CEFC1D
S31508009FCC024B3046C6E900350FB0F0BD11AC00089F
S31508009FDC37B502AB03E90600DDE900321A449342B1
S31508009FEC06D0816813F8014B4D1C85600C70F6E79A
S31508009FFC03B030BDF0B5A9B06C4684E80600064639
S3150800A00C1F4615460DF19F0308AA012104A8CDE9A0
S3150800A01C053207930492EDB2FFF77FFC4FF6065113
S3150800A02C04A8FFF78AFCA91DC9B204A8FFF775FC9A
S3150800A03C394604A8FFF781FCBDF8B81004A8FFF749
S3150800A04C7CFC002104A8FFF768FC294604A8FFF746
S3150800A05C64FC94E8060004A8FFF7BAFF049A069B6A
S3150800A06C029207939B1A0692029903931A46304654
S3150800A07C06F0D4FB29B0F0BD10B590F8583086B070
S3150800A08C02AC84E806007BB1039B142B0CD88369BD
S3150800A09CD3E90632B2F850200092059394E80600EC
S3150800A0ACC0689BB2FFF7A6FF06B010BDF0B585B029
S3150800A0BC0C4602AE05463046CF6809F051FAB4F89C
S3150800A0CC5E30009396E80600B4F85A303846FFF727
S3150800A0DC91FF04F164000A2101F040FC034B2B604C
S3150800A0EC284600236B6005B0F0BD00BFD9AB00084D
S3150800A0FCF0B593B0044601A80E4609F031FA029D54
S3150800A10C0BAA0DF14603082D4FF0010107A828BF2D
S3150800A11C0825CDE9083207920A93FFF7FEFB4FF69E
S3150800A12C834107A8FFF709FC05F10E01C9B207A878
S3150800A13CFFF7F3FB002107A8FFF7EFFB202107A881
S3150800A14CFFF7FBFB202107A8FFF7F7FB012107A860
S3150800A15CFFF7E3FB002107A8FFF7DFFB691CC9B271
S3150800A16C05AF07A8FFF7D9FB384609F0F9F9069B9E
S3150800A17C082B8CBF0821092107A8FFF7CEFB019BEA
S3150800A18CCDE9053507A897E80600FFF721FF00215A
S3150800A19C07A8FFF7C2FB002107A8FFF7CEFB002193
S3150800A1AC07A8FFF7CAFB079A099B03920A939B1AFF
S3150800A1BC0399F06809921A46049306F02FFB06F1E8
S3150800A1CC64000A2101F0CAFB034B236020460023D6
S3150800A1DC636013B0F0BD00BF61AC000891F8342081
S3150800A1EC012A10B5044605D891F83C3043B9FFF757
S3150800A1FC7FFF03E0044B036000234360204610BD39
S3150800A20CFFF772FEFAE700BFE9A10008F0B595B0B2
S3150800A21C0BAF044638460D4609F0A2F90C9B082BE1
S3150800A22C06D829462046FFF7CDFD204615B0F0BDC9
S3150800A23C01A809F095F9029E079714AB1D2E4FF04D
S3150800A24C010107A828BF1D26CDE908370A93FFF791
S3150800A25C64FB42F2090107A8FFF76FFBF7B220214E
S3150800A26C07A8FFF75AFBB91CC9B207A8FFF755FB95
S3150800A27C791CC9B207A8FFF750FB092107A8FFF7F5
S3150800A28C4CFB019B3246194607A8CDE90336FFF766
S3150800A29C9FFEDDE90923934204D0002107A8FFF7A6
S3150800A2AC3CFBF6E7079A05929B1A0599E86809920A
S3150800A2BC1A46069306F0B2FA0A2105F1640001F073
S3150800A2CC4DFB024B236000236360AEE77DAC0008B0
S3150800A2DCF0B58BB004460D4616461F4603AA0DF17B
S3150800A2EC1703012106A8CDE9073206920993FFF751
S3150800A2FC14FB4FF6A44106A8FFF71FFB072106A877
S3150800A30CFFF70BFB394606A8FFF707FB0623019652
S3150800A31C029301AE96E8060006A8FFF759FE069AC0
S3150800A32C089B09939B1A02930192E868089296E88F
S3150800A33C060006F073FA05F164000A2101F00EFB1B
S3150800A34C034B23602046002363600BB0F0BD00BFAF
S3150800A35CD1AC000810B5D1E902329A4207D05A1C82
S3150800A36C8A601A7883685C1C84601A70F3E710BDDF
S3150800A37C2DE9F04190F826509CB004460E46174637
S3150800A38C9846002D67D13B4D0078AA4294BF092503
S3150800A39C0A25FFF7A7F80CAB1CAA0544012104A84B
S3150800A3ACCDE9052304930792FFF7B7FA4FF6045144
S3150800A3BC04A8FFF7C2FAE9B204A8FFF7AEFA4146B9
S3150800A3CC04A8FFF7BAFA217804A8FFF7A6FA2346D9
S3150800A3DC08A913F8042B012A0CBFA21C04F11402B9
S3150800A3EC04A807BFCDE90823CDE90A23CDE908322D
S3150800A3FCCDE90A32FFF7AEFF1E4B217D9F4204A81A
S3150800A40C26D8FFF78AFA617D04A8FFF786FAA17D9C
S3150800A41C04A8FFF782FAE17D04A8FFF77EFA072164
S3150800A42C04A8FFF77AFA217E04A8FFF776FA049AAD
S3150800A43C069B029207939B1A0692029903931A4655
S3150800A44C304606F0EBF9012528461CB0BDE8F0812C
S3150800A45CFFF773FAD7E7026A52B190F828203AB98F
S3150800A46C828C0092D0E907123046FFF7C3FDEBE762
S3150800A47C0025E9E71F0007002DE9F041837E9AB015
S3150800A48C04460E461746002B48D10078FFF72AF8E3
S3150800A49C0AAB1AAA0546012102A8CDE903230293A1
S3150800A4AC05920335FFF739FA4FF6025102A8FFF762
S3150800A4BC44FAE9B202A8FFF730FA217802A8FFF7A6
S3150800A4CC2CFA234606A913F8042B012A0CBFA21C46
S3150800A4DC04F1140202A807BFCDE90623CDE9082327
S3150800A4ECCDE90632CDE90832FFF734FF012102A87F
S3150800A4FCFFF713FA217D02A8FFF70FFA029A049BBD
S3150800A50C009205939B1A04923046009901931A46B9
S3150800A51C06F084F901201AB0BDE8F081D0E9075895
S3150800A52C454509D02846238B3A463146FFF720FF86
S3150800A53C2C350028F4D0EEE70020ECE738B50C46AD
S3150800A54CCA69C96805466069FFF796FF58B9E26992
S3150800A55CE168A069FFF790FF28B921462846FFF75E
S3150800A56CF9FB284638BD024B2B6000236B60F8E7D5
S3150800A57C99AA000870B50B6990B00546187C0C466C
S3150800A58CFEF7B0FF0AAA0DF13F030646012102A801
S3150800A59CCDE9033202920593FFF7BFF94FF68E41C8
S3150800A5AC02A8FFF7CAF9F11CC9B202A8FFF7B5F958
S3150800A5BC2369187CFEF796FF811CC9B202A8FFF71F
S3150800A5CCACF92369187CFEF78DFF411CC9B202A8A9
S3150800A5DCFFF7A3F9072102A8FFF79FF923691A7C4D
S3150800A5EC012A06A903F1140202A809BF123324335F
S3150800A5FCCDE90632CDE908321CBFCDE90623CDE9F3
S3150800A60C0823FFF7A7FE029A049B009205939B1A50
S3150800A61C0099E06804921A46019306F0FFF804F1D3
S3150800A62C64000A2101F09AF9034B2B602846002393
S3150800A63C6B6010B070BD00BFB5AC0008F7B502ABC7
S3150800A64C03E90600009E0446354600F10807019BFF
S3150800A65C33449D4209D0D4E902329A4205D0384691
S3150800A66CFEF766FF05F8010BF1E7204603B0F0BDCF
S3150800A67C2DE9F04FABB0E84688E80C00349D064649
S3150800A68C0F460DF128090DF1180A7F23CDF81890FD
S3150800A69C07939AE80C00F16804A806F032FB9DF8BB
S3150800A6AC143093B9726E002A46D140F2FF13ADF8F6
S3150800A6BC0C309DF80C30002063F307009DF80D3024
S3150800A6CC63F30F202BB0BDE8F08F049B08A84B440E
S3150800A6DCCDE90693CDE90893FEF72AFF834608A829
S3150800A6ECFEF726FF044608A8FEF722FFBBF1040F67
S3150800A6FCCBD10E2C23D10228C7D908A8FEF718FFF0
S3150800A70C08A8FEF7F8FEB842BFD108A8FEF710FF56
S3150800A71C04463DB1DDE908239B1A019A934294BF7E
S3150800A72C2B602A60009B23B198E806005046FFF779
S3150800A73C85FF8DF80C4001238DF80D30B9E70F2CE9
S3150800A74CA3D10328A1D908A8FEF7F2FE044608A847
S3150800A75CFEF7EEFE08A8FEF7CEFE874295D1002C32
S3150800A76C93D0002DE5D000232B60E2E72DE9F041CC
S3150800A77C0B78FF2B8EB0054604D0002738460EB052
S3150800A78CBDE8F0818B68092BF7D94A6807A81344EA
S3150800A79CCDE90523CDE90723FEF7ADFE074607A845
S3150800A7ACFEF7A9FE804607A8FEF7A5FE064607A8EB
S3150800A7BCFEF7BEFE044607A8FEF79DFE40F60143CB
S3150800A7CC9F42DAD195F85870002FD6D0B5F8563086
S3150800A7DC4345D2D1DDE907135B1A9C42CDD100283B
S3150800A7ECCBD1AB69DB695B6A009301339BB29E42A2
S3150800A7FCC3D1142C12D809AE2246314605A8CDE988
S3150800A80C0164FFF71BFFED6E002DB7D06B68281D92
S3150800A81CCDE9036403A998472D68F5E70746ADE724
S3150800A82C10B586B002AC84E80300694681E80C00D2
S3150800A83C039A0C21034601FB0201DDE900048B4255
S3150800A84C1CD01A68824206D15A68944205D010B9AF
S3150800A85C2243D20701D50C33F1E71B89ADF8143026
S3150800A86C01238DF81630BDF81430002063F30F0061
S3150800A87CBDF8163063F31F4006B010BD0023F0E791
S3150800A88C7FB54368D3E90A32CDE902320A4B049301
S3150800A89C1323059306A9134611E90300029AFFF739
S3150800A8ACBFFF82B210F47F0F4FF6FF7018BF104629
S3150800A8BC07B05DF804FB00BFE08701087FB5436865
S3150800A8CCD3E90832CDE902320A4B049313230593D4
S3150800A8DC06A9134611E90300029AFFF7A1FF82B2F3
S3150800A8EC10F47F0F4FF6FF7018BF104607B05DF8CF
S3150800A8FC04FB00BFE087010883780BB10023837043
S3150800A90C704710B504462430FFF7F6FF002384F889
S3150800A91C283010BD38B504461830FFF7EDFFD4E9DA
S3150800A92C0745A54204D02046FFF7EBFF2C34F8E781
S3150800A93C38BD000070B505460C4642B101F1280336
S3150800A94CD1E9080183E80300012384F84030E6685E
S3150800A95C70680021183007F0E1FC0123C6F82C3387
S3150800A96C6069FFF7D7FF0026A069FFF7D3FF04F14C
S3150800A97C5A00E661FFF7C0FF04F15E00FFF7BCFF63
S3150800A98C024B2846C5E9003670BD00BF8D940008F9
S3150800A99C7FB50446643000F0F5FF04F1D40000F0EE
S3150800A9ACF1FF04F1DC0000F0EDFF616A236A11F097
S3150800A9BC010F4FEA610102AE18BF6258304618BF44
S3150800A9CCD3582144984796E8030004F1200585E8F6
S3150800A9DC030004F17000FEF737FFE36893F83023A1
S3150800A9EC12B993F8312362B100226E46A3F83023CC
S3150800A9FC214630460122FFF79DFF96E8030085E8BD
S3150800AA0C030004B070BD70B58AB007230C4604AEBB
S3150800AA1C079303AB00930546072332464FF68A4144
S3150800AA2C20460696FFF724FE10F47F4FADF8080073
S3150800AA3C06D1D4E9080185E8030028460AB070BD9A
S3150800AA4C9DF80830E3B9039B062B19D10DF11703B2
S3150800AA5C08A8CDE9073606960993FEF74CFD01269C
S3150800AA6CA4F85A0084F85C6008A8FEF744FD84F83C
S3150800AA7C6060A4F85E0021462846FFF717FBDCE762
S3150800AA8C012221462846FFF755FFD6E72DE9F04364
S3150800AA9C054691B048690C46FEF744FE10F47F0F44
S3150800AAAC81B203D1A069FEF73DFE81B2202307933C
S3150800AABC08AE05AB0696009306AF97E80C00204641
S3150800AACCFFF7D6FD10F47F4FADF8080007D1D4E98F
S3150800AADC080185E80300284611B0BDE8F0839DF807
S3150800AAEC0830DBB904F1100804F11809C84515D06B
S3150800AAFC059B0696079397E8060058F8040FFEF789
S3150800AB0C3CFE10F47F4FADF80C00EFD09DF80C30DE
S3150800AB1C23B121462846FFF711FDDCE70122214621
S3150800AB2C2846FFF707FFD6E782B0F0B587B01E4672
S3150800AB3C0D930023CDE9043300930C4606AB11465E
S3150800AB4C054613E90C0020460E9FFFF791FD10F4FD
S3150800AB5C7F4FADF80C0009D1D4E9080185E803004C
S3150800AB6C284607B0BDE8F04002B070479DF80C3097
S3150800AB7C53B97B10FA0748BFE35804EB670148BF83
S3150800AB8C9E592846B047EBE7012221462846FFF78F
S3150800AB9CD1FEE5E71FB5002300934FF69242034B0F
S3150800ABAC0446FFF7C1FF204604B010BDD59E000829
S3150800ABBC1FB5002300934FF60152034B0446FFF7CB
S3150800ABCCB3FF204604B010BDD99C00081FB500235E
S3150800ABDC00934FF60652034B0446FFF7A5FF204693
S3150800ABEC04B010BD49A500081FB5002300934FF605
S3150800ABFC8542034B0446FFF797FF204604B010BD69
S3150800AC0C159F00081FB5002300934FF68642034B89
S3150800AC1C0446FFF789FF204604B010BDF5AD0008C1
S3150800AC2C30B585B00446002300934FF69442074B83
S3150800AC3C0D46FFF779FF2268054B9A4203D16368E4
S3150800AC4C0BB985F83C30204605B030BDFDA0000890
S3150800AC5C61AC00081FB5002300934FF68342034BE3
S3150800AC6C0446FFF761FF204604B010BD19A2000880
S3150800AC7C1FB50023009342F20902034B0446FFF763
S3150800AC8C53FF204604B010BDD19D00081FB5002304
S3150800AC9C00934FF68F42034B0446FFF745FF2046B9
S3150800ACAC04B010BD81A500081FB5002300934FF60C
S3150800ACBC8E42034B0446FFF737FF204604B010BDFF
S3150800ACCC7D9400081FB5002300934FF6A442034B4E
S3150800ACDC0446FFF729FF204604B010BDB9940008B6
S3150800ACEC70B58CB009230C4605AE099304AB0093DA
S3150800ACFC05460923324641F2010120460896FFF71C
S3150800AD0CB7FC10F47F4FADF80C0006D1D4E9080156
S3150800AD1C85E8030028460CB070BD9DF80C3003BBC3
S3150800AD2C049B082B1DD10DF11D030AA8CDE9093684
S3150800AD3C0B930896FEF7FCFB0AA8FEF7DCFB0AA8A1
S3150800AD4CFEF7F6FB06460AA8FEF7D5FB0AA8FEF799
S3150800AD5CD2FB40EA0640E06121462846FFF7A4F8F4
S3150800AD6CD8E7012221462846FFF7E4FDD2E7000082
S3150800AD7C2DE9F047DFF86C90A4B004460D46002682
S3150800AD8C0DF110084FF07F0AE968534642466846AB
S3150800AD9CCDE9028A05F0B5FF9DF8047057B1009A03
S3150800ADAC062AF1D1494640460DF036FC002808BF64
S3150800ADBC3E46E9E73EB129462046FFF765F82046A8
S3150800ADCC24B0BDE8F0876B6E2BB9012229462046C4
S3150800ADDCFFF7B0FDF3E7024BC4E90036EFE700BF17
S3150800ADEC7DAD0008FC88010891F8553010B504466D
S3150800ADFC13B1002381F8553001F15600FFF77CFD9D
S3150800AE0C024B236000236360204610BDE9A10008AD
S3150800AE1C30B50B78052B85B0044603D0002528469B
S3150800AE2C05B030BD8B68032BF8D94A6802A81344C1
S3150800AE3CCDE90023CDE90223FEF77AFB054602A8E5
S3150800AE4CFEF759FB002DE9D194F85850002DE5D0A2
S3150800AE5CB4F856308342E1D104F15600FFF74CFDA5
S3150800AE6CDDE72DE9F041A8B005460C4608AF4FF0D2
S3150800AE7C7F08CDE9047804AE96E80C00E1686846CC
S3150800AE8C05F03FFF9DF804307BB9636E43B9002289
S3150800AE9C21462846FFF74EFD284628B0BDE8F08126
S3150800AEACD4E9080185E80300F6E7009B03933A46C4
S3150800AEBC214630460297FEF7F9FC9DF81C30002B0C
S3150800AECCD7D031462046FFF7A3FF0028D1D0DEE7BE
S3150800AEDC30B591F8583089B005460C46002B35D05C
S3150800AEEC0DF10703012104A805930793CDF810D09B
S3150800AEFCCDF818D0FEF711FD4FF6934104A8FEF7CE
S3150800AF0C1CFD032104A8FEF708FDB4F8561004A886
S3150800AF1CFEF713FD132104A8FEF7FFFC049A069B03
S3150800AF2C029207939B1A0299E06806921A460393B3
S3150800AF3C05F074FC322104F1640000F00FFD214683
S3150800AF4C2846FFF78EFF284609B030BD0122FFF7C9
S3150800AF5CF1FCF8E7F0B591F83430032BABB00546A5
S3150800AF6C0C4602D1FFF7B4FF37E0D1F8D47006AE21
S3150800AF7C17BB02AA03AB01210AA8CDE90B320A9228
S3150800AF8C0D93FEF7CAFC4FF47C410AA8FEF7D5FCD4
S3150800AF9C39460AA8FEF7C1FC0A9A0C9B0D939B1A14
S3150800AFAC06920793E0680C9296E8060005F036FCC4
S3150800AFBC04F1D40000F0CFFC7F270AABCDE90637A5
S3150800AFCCE16896E80C00684605F09BFE9DF804308F
S3150800AFDC33B9D4E9080185E8030028462BB0F0BD3F
S3150800AFEC0AAB0693009B079396E80C00214602A829
S3150800AFFCFEF75CFC9DF81430002BDED002A904F198
S3150800B00C7000FEF78BFD02A92046FFF701FF28B159
S3150800B01C002221462846FFF78DFCDEE702A92046CA
S3150800B02CFFF7A4FB02A92046FFF7F2FE02A9204669
S3150800B03CFEF751FC38B104F1D40000F08CFC04F195
S3150800B04CDC0000F088FC9DF808300E2B13D1DDE9E6
S3150800B05C032308A81344CDE90623CDE90823FEF7F4
S3150800B06C67FA08A8FEF747FAB0F57C4F03D104F146
S3150800B07CDC0000F070FCD4F8DC3043B9D4E90801E4
S3150800B08C04F1280383E80300214628466AE7024BA5
S3150800B09C2B6000236B60A0E761AF00082DE9F04335
S3150800B0AC91F83C30AFB005460C4613BB91F83430DA
S3150800B0BC9A1E012A1DD991F85420B3FA83F35B0919
S3150800B0CC9A4216D10EAF4FF07F09CDE90A790AAE2E
S3150800B0DC96E80C00E16802A805F013FE9DF80C3002
S3150800B0EC6BB9D4E9080185E8030028462FB0BDE8FA
S3150800B0FCF083002221462846FFF71CFCF5E7029B45
S3150800B10C0A970B9396E80C00214606A8FEF7CEFB89
S3150800B11C9DF82430002BD8D006A904F17000FEF750
S3150800B12CFDFCDDE907329918CDE90A31CDE90C3178
S3150800B13C9DF818303E2B04D006A92046FFF768FE6A
S3150800B14CC3E7032AF8D90CA8FEF7F2F901288046BA
S3150800B15CF2D10CA8FEF7ECF90028EDD10CA8FEF7F5
S3150800B16CCAF994F83430A4F8560084F85880EBB130
S3150800B17CDDE90A239B1A0B2B01D84246BAE70CA821
S3150800B18CFEF7D6F90CA8FEF7D3F9062307461A4696
S3150800B19C694630460593CDF810D0FFF74FFA3B4673
S3150800B1AC6A4621462846FFF793F89EE72146284625
S3150800B1BCFEF77CF999E710B5044648B1C06908B1A1
S3150800B1CC00F014FC20462821BDE8104000F010BC05
S3150800B1DC10BD10B50446006808B1FFF7ECFF204611
S3150800B1EC10BD00002DE9F04F0446A9B016460D46D1
S3150800B1FC00F0E4F9724B2360724B2363724BA36322
S3150800B20C724BC4E91134724BC4E903560025C4E9E0
S3150800B21C1334C4F85650C4F85A50C4F85E5029462C
S3150800B22CC4E90555C4E90855C4E90A5584F83450E7
S3150800B23C84F83C5084F8405084F8555084F858509B
S3150800B24C84F85C5084F8605004F1640000F080FBCC
S3150800B25CE168E56604F17000FEF7CEFA192104F1EF
S3150800B26CD40000F075FB07AF332104F1DC0000F0C5
S3150800B27C6FFB0DF140083846A4F8E45008F070F955
S3150800B28C2946602240460DF0FDF942F62923ADF811
S3150800B29C423042F62423ADF8623042F625234FF0AD
S3150800B2AC020AADF8823023698DF855A08DF875A081
S3150800B2BC8DF895A059688DF85410D3E90010CDE98E
S3150800B2CC1610D9688DF87410D3E90213CDE91E133C
S3150800B2DC97E80300089B8DF89430012228AB03E904
S3150800B2EC03008DF8402029468DF860208DF88020C3
S3150800B2FC8DF82C2041F60A0310220CA8ADF82E3036
S3150800B30C0DF0C0F903232820CDF824800A9300F009
S3150800B31C61FB0DF12408834698E803000DF1080932
S3150800B32C89E803000EAB93E803008DE803000BAF26
S3150800B33C97E80E005846FEF795F96369C4F814B0F9
S3150800B34C384609930B951036FFF743FF4046FFF72F
S3150800B35C40FF0FCEBC46ACE80F003368CCF8003083
S3150800B36C1C4B2820CDE9093A00F034FB064698E830
S3150800B37C030089E803000EAB93E803008DE803008D
S3150800B38C304697E80E00FEF76DF9A369A6613846B4
S3150800B39C099304AE0B95FFF71CFF4046FFF719FF00
S3150800B3AC214630462A46FFF7C5FA96E8030004F10B
S3150800B3BC200383E80300204629B0BDE8F08F00BFC0
S3150800B3CCEC8801087487010884870108C887010876
S3150800B3DCD88701080489010838B50A4B0360044666
S3150800B3ECC06E20B1056800F001FB2846F9E76069D4
S3150800B3FCFFF7E1FEA069FFF7DEFE204600F0D5F860
S3150800B40C204638BDEC88010810B50446FFF7E4FF62
S3150800B41C2046E82100F0ECFA204610BD10B5054B85
S3150800B42C044640F8103B00F03BFB204600F0BDF804
S3150800B43C204610BD4C89010810B50446FFF7EEFFEF
S3150800B44C2046342100F0D4FA204610BDC3681030CB
S3150800B45C93F8401000F0FBBA73B505460C4600F09D
S3150800B46CADF8194B2B600222EC60184905F1100057
S3150800B47C00F0FCFA04F130030093694601231448E2
S3150800B48C8DF8043002F022FA04F138030093694669
S3150800B49C002310488DF80430022602F017FA04F13E
S3150800B4AC440369460C4800938DF804604C3402F04A
S3150800B4BC0DFA6946094800948DF8046002F006FAFC
S3150800B4CC284602B070BD00BF4C8901086C9D010866
S3150800B4DC20A4010880A10108C8A00108B8A2010887
S3150800B4EC73B505460C4601F50563022669460068E0
S3150800B4FC00938DF8046002F0E9F904F65C036946DA
S3150800B50CA86800938DF8046002F0E0F904F6640369
S3150800B51C6946686800938DF8046002F0D7F901262D
S3150800B52C04F66C036946286900938DF8046004F6E2
S3150800B53C740402F0CBF9E868009469468DF8046047
S3150800B54C02F0C4F902B070BD70B501259540013DF5
S3150800B55C1BB1012B17D0002070BD8668C368C1F1DA
S3150800B56C4004A41A36BA1BBAC4F1200006FA00F035
S3150800B57CA4F1200123FA04F2024326FA01F10A4344
S3150800B58C05EA0200E8E7D0E90234C1F12000A1F18E
S3150800B59C200204FA00F023FA01F1014324FA02F21C
S3150800B5AC114305EA0100D7E77047704710B50C211F
S3150800B5BC044600F01DFA204610BD0000024A02603F
S3150800B5CC0022C0E9012270476489010838B505468E
S3150800B5DC55F8104FAC4206D054F8043C201F1B6893
S3150800B5EC98472468F6E738BD38B5054655F8104F20
S3150800B5FCAC4206D054F8043C201F5B689847246874
S3150800B60CF6E738BD10B50346002153F8042F9342CC
S3150800B61C04D01468C2E900112246F8E7C0E90133E0
S3150800B62C016010BD10B5054B044640F80C3BFFF7FE
S3150800B63CE9FF2046FFF7B9FF204610BD7C890108B3
S3150800B64C10B50446FFF7EEFF2046182100F0D0F996
S3150800B65C204610BD10B5054B044640F80C3BFFF7C9
S3150800B66CD1FF2046FFF7DEFF204610BD948901085E
S3150800B67C10B50446FFF7EEFF2046182100F0B8F97E
S3150800B68C204610BD10B50446FFF798FF044B2360FF
S3150800B69C0023E36004F11003C4E90433204610BD0B
S3150800B6AC7C89010843698B6010B50A1D00F11004EA
S3150800B6BC4C6042611A60C3680133C36010BDF8B5AB
S3150800B6CC0546044655F8100F0026854209D050F851
S3150800B6DC042C0768D268C0E90066043890473846D7
S3150800B6ECF3E7C4E90455E660F8BD000010B5044656
S3150800B6FCFFF7C8FF014B2360204610BD948901084B
S3150800B70C8368994238BF436882B03BBF5B5C8DF84F
S3150800B71C0430002301238DF805309DF804300020F1
S3150800B72C63F307009DF8053063F30F2002B07047EA
S3150800B73C0020704780687047436818687047000097
S3150800B74C37B5044600F058F9234D25600C30606077
S3150800B75C00F052F90830A560E06000F04DF9C4E934
S3150800B76C045000F049F91D4B23621D4B63620430EB
S3150800B77C0723A561E0610325A3626946194800946D
S3150800B78C8DF8045002F0A2F804F10803694616482D
S3150800B79C00938DF8045002F099F804F110036946E9
S3150800B7AC124800938DF8045002F090F804F118032F
S3150800B7BC69460F4800938DF8045002F087F804F197
S3150800B7CC20030093694608230A488DF8043002F0D2
S3150800B7DC7DF8204603B030BDAC890108BC89010848
S3150800B7ECC8890108D0A10108D8A1010868A30108D5
S3150800B7FC18A3010800A301087047007970470020B8
S3150800B80C7047027843781AB11B0183F31188704785
S3150800B81C0BB162B6704772B67047C3680171836024
S3150800B82C704719B9C368017183607047836823B17F
S3150800B83C013B83600023037170470123FBE700007B
S3150800B84C034A02600022C0E902210271704700BF58
S3150800B85CD8890108124B13B51860124B1B6803F5EF
S3150800B86CA563044640F8043BFFF740FF04F11C00AF
S3150800B87CFFF73CFF20680023A36384F83430E363A6
S3150800B88C03694FF47A715B6810309847064B206849
S3150800B89C6946CDE9003406F0BFFD204602B010BD5E
S3150800B8ACD0200020D8200020EBB8000838B5836BD0
S3150800B8BC0133836304460068836918301B6898470C
S3150800B8CC94F83430054613B1201DFFF78DFE206819
S3150800B8DC836918301B689847401BE06338BD40687D
S3150800B8ECFFF7E4BF38B590F834300446ABB90430EA
S3150800B8FC04F11C05FFF76AFE2846FFF767FE074B9F
S3150800B90C186802F0CFFB012384F834302846FFF779
S3150800B91C6BFE94F83430002BF8D138BDD4200020B7
S3150800B92C73B50646044656F81C0B69460025CDE940
S3150800B93C005506F071FD3046FFF78CFE201DFFF70B
S3150800B94C89FE024B20461D6002B070BDD020002037
S3150800B95CC0E900117047436803607047C0E90011DD
S3150800B96C70470346406828B11A6864235343B3FBEF
S3150800B97CF0F080B2704708B5FFF7F3FFC0F164002A
S3150800B98C80B208BD03680BB1013B03607047704772
S3150800B99CFEE708B50CF03AFE582303604FF0FF306B
S3150800B9AC08BD0000094A1168013110B5116041073C
S3150800B9BC0749034618BF20F00703086818BF083361
S3150800B9CCC4180C6091680B44936010BDDC200020F1
S3150800B9DC00200020FFF7E6BFFFF7E4BF024A5368D2
S3150800B9EC01335360704700BFDC200020FFF7F6BF19
S3150800B9FCFFF7F4BFFFF7F2BF00487047DC200020C2
S3150800BA0C024B0349034A5B1AD3607047C07F002078
S3150800BA1C644F0020DC200020FEE75B1A10B50446B4
S3150800BA2C084607D0121B05D002990C1B634393FBDF
S3150800BA3CF2F3184410BD4068704741600120704706
S3150800BA4C00880B8898422CBF002001207047037D84
S3150800BA5C2BB921B1C3697E2B9CBF0133C361017518
S3150800BA6C70470023C36103757047000010B5027355
S3150800BA7C084A0261084A81600023C0E90623C0E926
S3150800BA8C00330375054B04460146186800F0F5FBB0
S3150800BA9C204610BD84870108E8890108EC2000209F
S3150800BAAC10B5044B04460146186800F0ADFA20465A
S3150800BABC10BD00BFEC20002073B50C46054600F0FF
S3150800BACCDDF804F6280300936946002325488DF80B
S3150800BADC0430032601F0FAFE04F50363694622488E
S3150800BAEC00938DF8046001F0F1FE04F638036946FC
S3150800BAFC1E4800938DF8046001F0E8FE0A2604F54A
S3150800BB0C056369461A4800938DF8046001F0DEFE59
S3150800BB1C04F66C036946174800938DF8046001F027
S3150800BB2CD5FE04F6780300936946092312488DF866
S3150800BB3C043001F0CBFE04F5086369460F48009300
S3150800BB4C8DF8046004F6880401F0C0FE07236946E4
S3150800BB5C0B4800948DF8043001F0B8FE284602B064
S3150800BB6C70BD00BF28A4010808A1010850A101084E
S3150800BB7C30A2010880A2010818A4010810A4010823
S3150800BB8C30A4010870470C3000F02AB838B50446C2
S3150800BB9C0D46FFF713FD2046034B40F80C3B294690
S3150800BBAC00F035F8204638BDF889010810B5054B64
S3150800BBBC044640F80C3BFFF773FF2046FFF7F5FCED
S3150800BBCC204610BDF889010810B504462430FFF745
S3150800BBDC28FE94F828102046BDE81040FFF737BF1A
S3150800BBEC10B50446FFF73DFF04F124000021BDE81B
S3150800BBFC1040FFF712BE38B504461D46FFF736FF50
S3150800BC0C294604F12400FFF71BFE204638BD38B53B
S3150800BC1C0C460A7909680546FFF728FFA16805F15D
S3150800BC2C2400FFF70DFE284638BD426813682433F6
S3150800BC3C53600120704738B504462368656803F1DC
S3150800BC4C2402D3F8243802EB03139D4202D1626016
S3150800BC5C002038BD05F110036360284600F0EAF8A9
S3150800BC6C0028EAD02B6828461C8800F0BAF844EA63
S3150800BC7CC070EEE74068FFF7DEBF000013B50A4B4D
S3150800BC8C0160C0E90230243100F108030446416022
S3150800BC9C00936946032305488DF8043001F016FE17
S3150800BCAC204602B010BD00BF108A010858A1010831
S3150800BCBC002070474368D3F8240870470020704763
S3150800BCCC4368D3F8240870474368D3F824288A4273
S3150800BCDC88BF03EB011382B083BF5B6A1B88ADF880
S3150800BCEC0430002388BF01238DF80630BDF80430D4
S3150800BCFC002063F30F00BDF8063063F31F4002B053
S3150800BD0C70474368D3F8240870478B689A423DBF3E
S3150800BD1C4B6853F822300360002338BF01230371A4
S3150800BD2C70478068704740687047000010B5054B2F
S3150800BD3C03600446FFF7C3FC2046FFF773FC204656
S3150800BD4C10BD00BF208A010810B50446FFF7EEFFA8
S3150800BD5C20461821FFF74CFE204610BD036803EB5E
S3150800BD6C01130360704700000346104A70B543F888
S3150800BD7C242BD0F824580446002065B11946013DF9
S3150800BD8C51F8082F8A4204D01668C2E900003246D8
S3150800BD9CF8E71033F1E704F10C00FFF7C7FF044B83
S3150800BDAC20461D60FFF701FC204670BD988A0108E5
S3150800BDBCEC20002010B50446FFF7D6FF20464FF4BA
S3150800BDCC0961FFF715FE204610BD024610B58C68B2
S3150800BDDC42F8084BC1E900220122C0E9021142606F
S3150800BDEC10BD034653F8082F9A4203D0107D10B99C
S3150800BDFC1268F9E700207047436807B5D3F824287A
S3150800BE0C8A4215D9243303EB0110FFF7EAFF012305
S3150800BE1C8DF804008DF805309DF80430002063F386
S3150800BE2C07009DF8053063F30F2003B05DF804FB9B
S3150800BE3C0023EFE70346002053F8082F9A4203D055
S3150800BE4CD16912680844F9E770474B68D3F8241887
S3150800BE5C914210B5044609D9243303EB0210FFF7B7
S3150800BE6CE9FF012320602371204610BD0023FAE761
S3150800BE7C38B5044654F8085FA54204D02846FFF79F
S3150800BE8CF0FD2D68F8E738BD024670B552F8083F44
S3150800BE9C002593420CD0994208D1D1E9004634606A
S3150800BEAC66604468013C4460C1E900551B68F0E7CC
S3150800BEBC70BD38B5D0F8245800F1240404EB0515E8
S3150800BECCA54204D02046FFF7D3FF1034F8E738BD57
S3150800BEDC10B50446FFF7EDFF04F10C00BDE8104061
S3150800BEECFFF774BBF8B504460C30FFF77DFB94F8E6
S3150800BEFC2C382BB1002384F82C382046FFF7D9FFB1
S3150800BF0C0023C4F84038C4F84438C4F84838C4F890
S3150800BF1C4C38C4F85C38C4F86038C4F86438C4F8CB
S3150800BF2C6838D4F8243804F1240104F5046704F6B7
S3150800BF3C5C0601EB031104F12C02A2F108039942E9
S3150800BF4C08D104F5056100238F421DD057F8042B40
S3150800BF5C1344F9E71368934214D01D7D187B35B149
S3150800BF6C04EB800CDCF840580135CCF84058DD69F8
S3150800BF7C35B104EB8000D0F85C580135C0F85C5834
S3150800BF8C1B68E8E71032D8E7C4F8343804F66C01B5
S3150800BF9C00238E4203D056F8042B1344F9E7C4F851
S3150800BFAC3C38F8BD2DE9F347D1F8245801F124089B
S3150800BFBC07468946924645F31B054446002D11DD76
S3150800BFCC6E10314601A80194FFF7C8FE019B514635
S3150800BFDC1868FFF735FD18B1019CAE1B1034013EED
S3150800BFEC3546EBE7D9F8245808EB0515A54209D0D0
S3150800BFFC21685046FFF724FD20B13D60384602B053
S3150800C00CBDE8F0873C60F9E737B504468A680D4603
S3150800C01C014601A8FFF7C6FFD4F82428019804F1B5
S3150800C02C240303EB0213984202D02946FFF72CFF90
S3150800C03C03B030BD2DE9F0410446FFF7BFFA284B93
S3150800C04C284A1C602346002143F80C2B1822184654
S3150800C05C0CF018FBFFF716FB234BE360234BC4F8D5
S3150800C06C2838234BC4F830380025C4F838384FF034
S3150800C07C100804F5046342462946C4F8245884F883
S3150800C08C2C58C4F83458C4F83C5818460CF0FAFA2C
S3150800C09C184FC4F8540804F65C030426C4F8507800
S3150800C0ACC4F858684246294618460CF0EBFA124B67
S3150800C0BCC4F87838114BC4F88038114BC4F870089A
S3150800C0CCC4F86C78C4F87468C4F87C48C4F8844816
S3150800C0DCC4F88838C4F88C482046BDE8F08100BFFF
S3150800C0ECEC200020988A0108208A01088487010818
S3150800C0FC388A0108488A01085C8A0108708A01088E
S3150800C10C848A01088142F0B524D002680B680AB902
S3150800C11CC0E900000BB9C1E90011D1E90064D0E906
S3150800C12C00C57768DCF804E0CCF80470C6F804E0BF
S3150800C13C27682E682F60266004680D6805604D68B0
S3150800C14C0C60446845604C600AB9C1E900220BB919
S3150800C15CC0E90033F0BD2DE9F84FD1F8005800239B
S3150800C16C01EB051A81460E4617460360037145F323
S3150800C17C1B050C4695B14FEA55084FEA0813396862
S3150800C18CE05804EB081BFFF75BFC28B1013D0BF1EB
S3150800C19C1004A5EB0805EDE74546EBE7A24508D1E3
S3150800C1ACD6F800580123802D89F804300ED10CF0EE
S3150800C1BC1BFA21683868FFF743FC0028F0D189F888
S3150800C1CC0450C9F800404846BDE8F88F290106EB2B
S3150800C1DC0515A54204F1080A07F1080B4FF00003F0
S3150800C1EC12D13A685946C4E90023C4E902AA504652
S3150800C1FCFFF788FF63687A6862607B60D6F8003858
S3150800C20C0133C6F80038DCE755F8102C725005F1E6
S3150800C21C08006B60C5E90200A5F10801FFF772FF7B
S3150800C22C6B6855F80C2C45F80C3CD6F800386A6047
S3150800C23C0133A5F11008C6F80038A04512D058F8F5
S3150800C24C103DC8F8103008F1080108F11800FFF77E
S3150800C25C59FFD8F81430D8F80420C8F81420C8F8B0
S3150800C26C0430EAE73B68236059465046FFF74AFF15
S3150800C27C63687A6862607B60A3E770B5054688B028
S3150800C28C8A680C46014601A8FFF78CFED5F82428C7
S3150800C29C019B05F1240606EB021293420BD0DA68D1
S3150800C2AC626003F108012160DC6014605A6801328F
S3150800C2BC5A6008B070BD214604A8FFF786FD04AA8B
S3150800C2CC02A83146FFF747FF069B06A800228342C1
S3150800C2DCEFD01968C3E900220B46F8E710B5034BF3
S3150800C2EC03600446FFF762FC204610BDB08A0108BD
S3150800C2FC10B50446FFF7F2FF20464821FFF778FBF6
S3150800C30C204610BD10B5034B03600446FFF74EFCE0
S3150800C31C204610BDC88A010810B50446FFF7F2FF7F
S3150800C32C20464821FFF764FB204610BD10B504468D
S3150800C33C006C03681B689847B4F944108142A8BF7F
S3150800C34C002104F10C00B8BF0121BDE81040FFF72D
S3150800C35C3BBC10B50446006C03681B689847B4F9D7
S3150800C36C44108142D8BF002104F10C00C8BF01213A
S3150800C37CBDE81040FFF728BC2DE9F0410C4B0546EB
S3150800C38C48201F6835F9048B0E46FFF723FB294610
S3150800C39C0446FFF7FBFB074B23602664A4F844808E
S3150800C3AC214607F10C00BDE8F041FFF77BB900BF49
S3150800C3BCEC200020B08A01082DE9F04105464820FA
S3150800C3CCB3F9008016460F46FFF704FB39460446B8
S3150800C3DCFFF7DCFB054B2360284621462664A4F8A8
S3150800C3EC4480FFF75FF92046BDE8F081C88A01084A
S3150800C3FC13B5074B0A4601461C6831F9043BADF8E0
S3150800C40C043004F10C0001ABFFF7D6FF02B010BDE7
S3150800C41CEC20002013B5074B0A4601461C6831F977
S3150800C42C043BADF8043004F10C0001ABFFF7C4FF74
S3150800C43C02B010BDEC200020B0F9040070470020B3
S3150800C44C7047002070474068704700207047007995
S3150800C45C7047002070474368988A7047B0F9040003
S3150800C46C7047818001207047406870474160012001
S3150800C47C704790F84000012802D0031F58425841D3
S3150800C48C7047000090F8083123B9034B1B6893F8E2
S3150800C49CA401704700207047F02000204068FFF781
S3150800C4ACF1BF0000044BC0681B685B6803EB5003C4
S3150800C4BCB3FBF0F0704700BFF02000204068FFF790
S3150800C4CCF1BF000011B9C16001207047064B1B680B
S3150800C4DC5B68B1EB430F04D803EB5103B3FBF1F1E3
S3150800C4ECF1E70020704700BFF02000204068FFF7F6
S3150800C4FCE9BF0000044B00691B685B6803EB50033B
S3150800C50CB3FBF0F0704700BFF02000204068FFF73F
S3150800C51CF1BF000021B90161C0F8B01001207047C5
S3150800C52C094B1B685B68B1EB430F0BD803EB510344
S3150800C53CB3FBF1F1838A016159434FF47A73B1FB6A
S3150800C54CF3F1E9E700207047F02000204068FFF778
S3150800C55CE1BF90F84030032B0BD1B1F57A7F08D8A0
S3150800C56CB0F8B630994228BF1946A0F8B810012081
S3150800C57C7047002070474068FFF7EBBF0369B1F5B9
S3150800C58C7A7F28BF4FF47A7181824B434FF47A71C4
S3150800C59CB3FBF1F3C0F8B030012070474068FFF7E1
S3150800C5ACEDBF00000B4B0C491A6802F12403C31AA1
S3150800C5BC9B104B4302EB83024FF4FA631269534305
S3150800C5CCA3F50C43A03B5200B3FBF2F3A0F8B6302C
S3150800C5DC704700BFF020002077A927E3124B70B5EF
S3150800C5EC1D682A6842F20F740A2342F2107103FB83
S3150800C5FC0242B2FBF1F2C0F8E0202A68642606FB78
S3150800C60C0242B2FBF1F2C0F8F0202A6806FB02429D
S3150800C61CB2FBF1F2C0F800212B6806FB0343B3FB0F
S3150800C62CF1F3C0F8103170BDF0200020006805F059
S3150800C63C7BBE006805F072BE037A10B50BB1C1F566
S3150800C64C7A71094B44681B6803F12402801A074A5D
S3150800C65C8010504303EB80031B6959434FF47A73DC
S3150800C66CB1FBF3F1216010BDF020002077A927E378
S3150800C67C0B4B0C491A6802F12403C31A9B104B4343
S3150800C68C02EB8302017A436812691B6801B1D31A5B
S3150800C69C4FF47A705843B0FBF2F080B2704700BF83
S3150800C6ACF020002077A927E34068FFF7E1BF38B5EB
S3150800C6BC0025C0E94555C0E92F55C0E93155C0E9F3
S3150800C6CC335504462946E430FFF7A7F8294604F102
S3150800C6DCF400BDE83840FFF7A0B80023C0E92F33B3
S3150800C6ECC0E93133C0E933337047000082B0F0B586
S3150800C6FCD0E930548D42069365DD491B90F84060AD
S3150800C70C022E65D0A6F1050CDCF1000646EB0C06EC
S3150800C71C0029D4BF00270127B6EBD17F0CBF01FB3C
S3150800C72C01F30023B7426FF41C7633440CBF49431C
S3150800C73C0021002BD0F8CC604CDA334423EAE3739F
S3150800C74CC0F8CC306FF41C7319440029D0F8D030DB
S3150800C75C48DA194421EAE171264B079E1B68C0F892
S3150800C76CD0109F69069B9642A8BF1646711B9A4223
S3150800C77CB8BF1A46002943F6FF73B8BF494207FBF0
S3150800C78C01310029B8BFC91805EBA135131BB542F1
S3150800C79CD4BFC0F8C050C0F8C060002BB8BF5B420D
S3150800C7AC43F6FF7107FB0313002BB8BF5B18A4EB0A
S3150800C7BCA333BDE8F0409342ACBFC0F8C430C0F810
S3150800C7CCC42002B070478C42B4BF091B002195E700
S3150800C7DC01269DE76FF00047BF1B9F42D4BFF31994
S3150800C7ECF318ADE76FF00046F61A8E42D4BF9919C6
S3150800C7FC5918B1E7F0200020D0E933301844054B1E
S3150800C80C1B685A6940F2712353439842D4BF0020DF
S3150800C81C01207047F0200020D0F818310269013346
S3150800C82C9342C0F8183121BF0023C0F818310123F0
S3150800C83C80F8B430D0F81821D0F8B0309A4224BF1A
S3150800C84C002380F8B43070472DE9F0410446D0F83F
S3150800C85C1401E6680130B04228BF0023C4F814015D
S3150800C86C28BFC4F8143120468846FFF702FEB4F9EF
S3150800C87C74703D4600B17D4294F8B4300BB9226908
S3150800C88C7ABB16B3002FA26DB8BF7F42BFB202FBAC
S3150800C89C07F34FF47A72B3FBF8F37343B3FBF2F373
S3150800C8AC721E9342A8BF1346B4F95020BA42A8BFC9
S3150800C8BC3A4600B15242D4F814118B4208DDC3EB48
S3150800C8CC41014A4392FBF3F31D442846BDE8F08127
S3150800C8DCF61ACB1AA6EB43035A4392FBF6F2154407
S3150800C8ECF3E71D46F1E700002DE9F04F164685B033
S3150800C8FC04468A46FFF790FF3146FFF7A5FF754BAE
S3150800C90C1D68814620466A684FF00A08B2FBF8FB98
S3150800C91CFFF7AFFD2968B1FBF8FEA16AE369656B01
S3150800C92CDE45A8BFDE4601FB0EFEA16D4FF47A72FA
S3150800C93C01FB09F191FBF2F1D4F8C82041F28837D2
S3150800C94C03FB0BF39EFBF7FE93FBF7F305FB0BF5CB
S3150800C95C95FBF7F5071E18BFB046A9EB0A0008BFEA
S3150800C96C4FF000086A4303FB00F348BFFF3203EBA2
S3150800C97C222240F6B835D4F8BC30C4F8C82005FBDA
S3150800C98C0BF50EFB003E68428645AAEB090C4144A2
S3150800C99C03DB75452846A8BF704611444FF47A75D3
S3150800C9AC90FBFBF20A44554395FBF6F2B2F57A7FF7
S3150800C9BCC4F8BC0005DDBCF1000F07DAC4F8BC30BE
S3150800C9CC04E0002A02DABCF1000FF7DCB4F8B65022
S3150800C9DC9542A8BF154625EAE575A9B22046FFF784
S3150800C9EC2BFE94F8B5102046FFF723FE94F8B530C5
S3150800C9FC2BB9012384F8B53005B0BDE8F08F94F84F
S3150800CA0C4020A16DB4F8B630022A4FEA410045D051
S3150800CA1C052A43D04FF6184216FB02F2A3F57A7391
S3150800CA2C92FBF0F202924FF47A727343490893FB25
S3150800CA3CF2F35A4392FBF1F20392039B00934A4694
S3150800CA4C20465146029BFFF751FEA16D4FF47A72B0
S3150800CA5C01FB09F1754391FBF2F995FBF2F504F12B
S3150800CA6CE4004FF4FA62A5EB0805F43491FBF2F1F5
S3150800CA7CFFB101F5FA718D42D4BF00210121A9F14C
S3150800CA8CFA09FEF7CEFEB5EB490FB4BF012100211A
S3150800CA9C204605B0BDE8F04FFEF7C3BE0022029251
S3150800CAAC4FF47A72734393FBF2F35A4392FBF0F208
S3150800CABCC2E7A1F5FA718D42ACBF0021012109F13B
S3150800CACCFA09FEF7AEFEB5EB490FCCBF01210021E2
S3150800CADCDEE700BFF02000202DE9F04104460E46A3
S3150800CAEC1746FFF799FEB0F9745035B190F8B45063
S3150800CAFC1DB90569B5FA85F56D092046FFF7B9FC28
S3150800CB0C854214BFB4F8B610002180462046FFF7BC
S3150800CB1C93FD94F8B5102046FFF78BFD2046FFF7DA
S3150800CB2CDCFD94F8B53023B9012384F8B530BDE89B
S3150800CB3CF081454514BF3D460025B8F1000F08BFE6
S3150800CB4C0027A5EB07054FF47A7101FB05F5A16DD6
S3150800CB5C95FBF1F505EBD57704F1E4004FEA670789
S3150800CB6C4FEA450504F1F40411D0323DB542D4BF61
S3150800CB7C00210121FEF755FE07F13201B142ACBF87
S3150800CB8C002101212046BDE8F041FEF74ABE3235A8
S3150800CB9CB542ACBF00210121FEF743FEA7F13201D5
S3150800CBACB142D4BF00210121ECE70000144B1B68ED
S3150800CBBC70B55E680446FFF75BFD05462046FFF731
S3150800CBCC35FDB4F8B830C8B10E48B0FBF6F0291AE2
S3150800CBDC8B4203DB41199942A8BF194689B22046F4
S3150800CBECFFF72AFD94F8B5102046FFF722FD2046DC
S3150800CBFCFFF75DFD012384F8B53070BD1946EDE7E6
S3150800CC0CF020002040420F00F8B5A1F5006140F66F
S3150800CC1C8D154D4348BF05F2FF7504461646ED12B1
S3150800CC2CFFF727FC00283CD06B421BB205F6CA015D
S3150800CC3CA4F88C3041F29413994204F1D40794BFAA
S3150800CC4C002101213846FEF7ECFD1EB901213846B4
S3150800CC5CFEF7E3FD94F86C302BBB00212046FFF75A
S3150800CC6CE8FC002384F8B53094F84030032B00F028
S3150800CC7C88804FF4FA712046FFF7DEFC2046FFF752
S3150800CC8C16FD002DB8BF6D42182D79DC94F8D830F6
S3150800CC9C002B75D104F582700121BDE8F840FEF72A
S3150800CCACC0BD2BB2C2E794F80861002ED5D094F813
S3150800CCBC40305A1E012A0BD91A1F012A47D8324B63
S3150800CCCC1B682946B3F98C212046FFF705FF07E0B8
S3150800CCDC2D4B1B682946B3F98C212046FFF704FE19
S3150800CCEC2046FFF789FD50B1D4E933320A2192FB6D
S3150800CCFCF1F0834236DA062384F89C30002694F841
S3150800CD0CD8301BB1032384F89C30002694F8E830FD
S3150800CD1C1BB1012384F89C30002694F8F83043B3F1
S3150800CD2C022384F89C30002104F58270FEF775FD09
S3150800CD3C94F84030032B0CBFB4F8B830B4F97430FF
S3150800CD4CC4F8A430B4F88C30A4F8AC3013E0032B38
S3150800CD5C03D12046FFF72AFFC2E7072384F89C3045
S3150800CD6C0026BDE793FBF1F39342CCBF05230423BE
S3150800CD7CC2E7002ED7D094F80831002B3FF46DAFDC
S3150800CD8CF8BDB4F8B81076E7F020002038B5037271
S3150800CD9C4FF47A738382384B83614362036340236F
S3150800CDACC0E9001243631822344BC261C36340F6D0
S3150800CDBCB832334B8262334A0025C0E91130324B04
S3150800CDCCC364C0E915250367304A314B80F84050D7
S3150800CDDCC0E91820C0E91E302E4A2F4B82662F4A0E
S3150800CDECA0F85050C0E920302D4B80F86C50A0F8B4
S3150800CDFC7450C0F88830C0E90355A0F88C50C0E9C7
S3150800CE0C2420284AC0F89820C0F8A830264A274B70
S3150800CE1CC0F8B4304FF4FA730446C0E92825A0F8D4
S3150800CE2CB830C0E92F55C0E93155C0E9335580F8FB
S3150800CE3C9C50A0F8AC50C0F8B0502946D430FEF738
S3150800CE4CFFFC294604F1E400FEF7FAFC294604F136
S3150800CE5CF400FEF7F5FC294604F58270FEF7F0FCA3
S3150800CE6C2068C4E9455505F0ABF92068294605F054
S3150800CE7C55FA204638BD00BFF08A010874870108A8
S3150800CE8C008B0108E8890108108B0108208B010822
S3150800CE9C308B010884870108408B0108508B0108E8
S3150800CEACE08A0108608B0108708B01080000DE031C
S3150800CEBC80687047002070478068704780687047A4
S3150800CECC80687047806870478068704780687047CC
S3150800CEDC80687047806870478068704780687047BC
S3150800CEEC8068704780687047806870470B461146A3
S3150800CEFC8268934208D240684FF48E7202FB030094
S3150800CF0C3C3003685B681847002070470B4611468F
S3150800CF1C8268934208D240684FF48E7202FB030073
S3150800CF2C443003685B681847002070470B46114667
S3150800CF3C8268934208D240684FF48E7202FB030053
S3150800CF4C4C3003685B681847002070470B4611463F
S3150800CF5C8268934208D240684FF48E7202FB030033
S3150800CF6C543003685B681847002070470B46114617
S3150800CF7C8268934208D240684FF48E7202FB030013
S3150800CF8C603003685B681847002070470B461146EB
S3150800CF9C8268934208D240684FF48E7202FB0300F3
S3150800CFAC683003685B681847002070470B461146C3
S3150800CFBC8268934208D240684FF48E7202FB0300D3
S3150800CFCC703003685B681847002070470B4611469B
S3150800CFDC8268934208D240684FF48E7202FB0300B3
S3150800CFEC783003685B681847002070470B46114673
S3150800CFFC8268934208D240684FF48E7202FB030093
S3150800D00C803003685B68184700207047836899422C
S3150800D01C07B519D240684FF48E7303FB01004C30E8
S3150800D02C03681B6898470123ADF804008DF8063091
S3150800D03CBDF80430002063F30F00BDF8063063F327
S3150800D04C1F4003B05DF804FB0023EFE783689942A1
S3150800D05C07B519D240684FF48E7303FB0100703084
S3150800D06C03681B6898470123ADF804008DF8063051
S3150800D07CBDF80430002063F30F00BDF8063063F3E7
S3150800D08C1F4003B05DF804FB0023EFE78368994261
S3150800D09C07B519D240684FF48E7303FB010088302C
S3150800D0AC03681B6898470123ADF804008DF8063011
S3150800D0BCBDF80430002063F30F00BDF8063063F3A7
S3150800D0CC1F4003B05DF804FB0023EFE78368994221
S3150800D0DC07B519D240684FF48E7303FB0100A830CC
S3150800D0EC03681B6898470123ADF804008DF80630D1
S3150800D0FCBDF80430002063F30F00BDF8063063F367
S3150800D10C1F4003B05DF804FB0023EFE78B689A42D7
S3150800D11C10B504460DD248684FF48E7303FB020013
S3150800D12CA03003681B6898470123206023712046AA
S3150800D13C10BD0023FAE78368994207B519D24068EF
S3150800D14C4FF48E7303FB01003C3003681B68984749
S3150800D15C01238DF804008DF805309DF80430002065
S3150800D16C63F307009DF8053063F30F2003B05DF8F1
S3150800D17C04FB0023EFE78368994207B519D2406888
S3150800D18C4FF48E7303FB0100983003681B689847AD
S3150800D19C01238DF804008DF805309DF80430002025
S3150800D1AC63F307009DF8053063F30F2003B05DF8B1
S3150800D1BC04FB0023EFE78368994207B519D2406848
S3150800D1CC4FF48E7303FB0100683003681B6898479D
S3150800D1DC01238DF804008DF805309DF804300020E5
S3150800D1EC63F307009DF8053063F30F2003B05DF871
S3150800D1FC04FB0023EFE78368994207B519D2406808
S3150800D20C4FF48E7303FB0100903003681B68984734
S3150800D21C01238DF804008DF805309DF804300020A4
S3150800D22C63F307009DF8053063F30F2003B05DF830
S3150800D23C04FB0023EFE78368994207B519D24068C7
S3150800D24C4FF48E7303FB0100783003681B6898470C
S3150800D25C0123ADF804008DF80630BDF80430002023
S3150800D26C63F30F00BDF8063063F31F4003B05DF897
S3150800D27C04FB0023EFE78368994207B519D2406887
S3150800D28C4FF48E7303FB0100803003681B689847C4
S3150800D29C0123ADF804008DF80630BDF804300020E3
S3150800D2AC63F30F00BDF8063063F31F4003B05DF857
S3150800D2BC04FB0023EFE78B689A4210B504460DD29F
S3150800D2CC48684FF48E7303FB0200443003681B68EE
S3150800D2DC9847012320602371204610BD0023FAE7E6
S3150800D2EC8B689A4210B504460DD248684FF48E7373
S3150800D2FC03FB0200543003681B689847012320601F
S3150800D30C2371204610BD0023FAE78B689A4210B5A4
S3150800D31C04460DD248684FF48E7303FB0200603046
S3150800D32C03681B689847012320602371204610BDAB
S3150800D33C0023FAE7634A644B2DE9F3412431C0E92B
S3150800D34C0321624AC0E90621614AC0E90921614AFA
S3150800D35CC0E90C21604AC0E90F21604AC0E91221D4
S3150800D36C5F4AC0E915215F4AC0E918215E4AC0E93F
S3150800D37C1B215E4AC0E900310123836043610362C5
S3150800D38CC362836343640365C36583664367C0E905
S3150800D39C1E21574AC0F88030C0E92121554AC0F8E9
S3150800D3AC8C30C0E92421544AC0F89830C0E92721AA
S3150800D3BC0446C0F8A4300090082769464F488DF8F3
S3150800D3CC04700A2600F082FA04F10C0369464C48EC
S3150800D3DC00930C258DF8046000F078FA04F1180314
S3150800D3EC6946484800938DF8045000F06FFA04F12A
S3150800D3FC24036946444800938DF8046000F066FAE5
S3150800D40C04F130036946414800938DF8046000F036
S3150800D41C5DFA072604F13C0369463D4800938DF8EE
S3150800D42C046000F053FA04F148036946394800933E
S3150800D43C4FF009088DF8045000F048FA04F154032B
S3150800D44C6946354800938DF8048000F03FFA04F1DC
S3150800D45C60036946314800938DF8048000F036FA6B
S3150800D46C04F16C0369462E4800938DF8045000F0BD
S3150800D47C2DFA04F1780369462A4800938DF804605E
S3150800D48C00F024FA04F184036946274800938DF8C2
S3150800D49C047000F01BFA04F19003009369460D23FF
S3150800D4AC22488DF8043000F011FA04F19C03694601
S3150800D4BC1F4800938DF8045000F008FA204602B075
S3150800D4CCBDE8F081948B0108808B0108A88B0108B4
S3150800D4DCBC8B0108D08B0108E48B0108F88B01087A
S3150800D4EC0C8C0108208C0108348C0108488C010826
S3150800D4FC5C8C0108708C0108848C010898A20108C0
S3150800D50CD0A30108C8A3010800A40108E0A30108D8
S3150800D51CF8A20108C0A30108D8A3010850A3010862
S3150800D52C20A3010828A3010890A30108F0A3010869
S3150800D53CF8A30108704710B50446084663681146F7
S3150800D54C2278FEF701F8237A2BB123785A1E012389
S3150800D55C93405840C01A10BD02460846918969B1D5
S3150800D56C5369984203DB93698342A8BF0346B2F911
S3150800D57C0A004343106993FBF1F318447047436957
S3150800D58C8B4205DC80698842B4BF002001207047B5
S3150800D59C0020704770B50D460446114628461A46B3
S3150800D5ACFFF7C9FFD5E90732014603EBC2029342DE
S3150800D5BC184609D053F8086B8E42F8D14368236095
S3150800D5CC01232371204670BD2846FFF7D8FF20B1EA
S3150800D5DC2846FFF7C1FF2060F2E72071F2E74161A8
S3150800D5EC7047000013B50C4B0C4A0360C368CDE9B1
S3150800D5FC002004466946D86804F009FB04F14C007F
S3150800D60CFEF74EFA04F11800FEF74AFA2046FDF723
S3150800D61CCCFF204602B010BD988C0108A3D6000892
S3150800D62C10B50446FFF7DEFF20467021FEF7E0F939
S3150800D63C204610BD10B503695B7B04464BB101212E
S3150800D64C1830FEF7C1FA94F82C3013B123691B690C
S3150800D65C636110BD37B504460D4618300021FEF738
S3150800D66CB3FA21692A460B7D68461831FFF792FFF3
S3150800D67C9DF8043004F14C055BB1236800991B69CD
S3150800D68C204698470021284603B0BDE83040FEF7EF
S3150800D69CDEB90121F7E74068FFF7DCBF7FB5044622
S3150800D6AC15460E46FDF78AFF184B23602B69AA7B95
S3150800D6BCA9686361C4E903656B7B04F11800FEF77E
S3150800D6CC9AFAAA7B696804F14C00FEF7CFF9104A5E
S3150800D6DCE068D5E90F31CDE90224019A23F000431D
S3150800D6EC02F000421A43009B019203F0004321F01A
S3150800D6FC00421343009301AA6B4602A903F0B4FB3C
S3150800D70C23691B7B6364204604B070BD988C0108A2
S3150800D71CA3D600087047036810B51B6904469847DA
S3150800D72C30B104F110000021BDE81040FEF775B8C1
S3150800D73C10BD4068FFF7EFBF00211030FEF76DB83B
S3150800D74CFFF7FABF10B5044601211030FEF769F849
S3150800D75C237D43B1236820465B6998472046BDE87C
S3150800D76C1040FFF7E9BF10BDF0B5044685B0154665
S3150800D77C0F461E46FDF722FF134B23603146E76022
S3150800D78C04F11000FEF75CF80B9A0A9B11680F4A15
S3150800D79C1B68E068A561CDE90224019A23F00043D1
S3150800D7AC02F000421A43009B019203F0004321F059
S3150800D7BC00421343009301AA6B4602A903F054FBDB
S3150800D7CC204605B0F0BD00BFB48C01083FD7000851
S3150800D7DC13B5084B084A0360C368CDE90020044614
S3150800D7EC6946D86804F013FA2046FDF7DEFE204693
S3150800D7FC02B010BDB48C01083FD70008704710B5AD
S3150800D80C10210446FEF7F4F8204610BD80887047B0
S3150800D81CC3888B4205D803898B4202D381800120A9
S3150800D82C704700207047022070470420704700009C
S3150800D83C034B1868D0F8103200F504701B681847AB
S3150800D84CD4200020086803689B681847086808B540
S3150800D85C03689B689847400008BD086808B50368C4
S3150800D86C9B689847800008BD086803689B6818473A
S3150800D87C086808B503689B689847400008BD08689F
S3150800D88C08B503689B689847800008BD0120704757
S3150800D89C042070470120704701207047022070470A
S3150800D8AC086803689B68184707B5037A064AFF2B6E
S3150800D8BC08BF4FF0FF33011D52F8233001A89847D3
S3150800D8CC03B05DF804FB00BF5C8D010870B5064615
S3150800D8DC10200D46FEF77EF80346044695E803002D
S3150800D8EC43F8046B83E803000023A381E381034B0D
S3150800D8FC2146186800F0BCFC204670BDD4200020D8
S3150800D90C10B50468FFF794FF0444A07810BD73B5EE
S3150800D91C0446086816680D46FFF7F2FF18B9207119
S3150800D92C204602B070BD6A68336812681B683146B7
S3150800D93C684698479DF8043013B1009B2360012371
S3150800D94C2371EDE773B50446086816680D46FFF7AC
S3150800D95CD7FF18B92071204602B070BD6A683368C3
S3150800D96C11681B683046984710F47F0F0190C0F376
S3150800D97C07431EBFBDF90430236001232371EAE770
S3150800D98C73B50446086816680D46FFF7B9FF18B94B
S3150800D99C2071204602B070BD6A68336811681B682E
S3150800D9AC3046984710F47F4FADF80400C0F30723B0
S3150800D9BC1EBF9DF90430236001232371E9E773B573
S3150800D9CC0446086816680D46FFF79AFF18B92071C1
S3150800D9DC204602B070BD6A68336812681B68314607
S3150800D9EC684698479DF8043013B1009B23600123C1
S3150800D9FC2371EDE773B50446086816680D46FFF7FC
S3150800DA0C7FFF18B92071204602B070BD6A6833686A
S3150800DA1C11681B683046984710F47F0F0190C0F3C5
S3150800DA2C07431EBFBDF80430236001232371EAE7C0
S3150800DA3C73B50446086816680D46FFF761FF18B9F2
S3150800DA4C2071204602B070BD6A68336811681B687D
S3150800DA5C3046984710F47F4FADF80400C0F30723FF
S3150800DA6C1EBF9DF80430236001232371E9E773B5C3
S3150800DA7C0446086816680D46FFF742FF18B9207168
S3150800DA8C204602B070BD6A68336811681B68304658
S3150800DA9C984710F47F4FADF80400C0F307231EBF58
S3150800DAAC9DF80430236001232371E9E770B5044619
S3150800DABC086816680D46FFF723FF10B92071204633
S3150800DACC70BD6B681B683BB9336830461B68984752
S3150800DADC012320602371F2E70023FBE770B50446A7
S3150800DAEC086816680D46FFF70BFF10B9207120461B
S3150800DAFC70BD6B681B683BB9336830461B68984722
S3150800DB0C012320602371F2E70023FBE770B5044676
S3150800DB1C086816680D46FFF7F3FE10B92071204603
S3150800DB2C70BD6B681B683BB9336830461B689847F1
S3150800DB3C012320602371F2E70023FBE770B5044646
S3150800DB4C086816680D46FFF7DBFE10B920712046EB
S3150800DB5C70BD6B681B683BB9336830461B689847C1
S3150800DB6C012320602371F2E70023FBE770B5044616
S3150800DB7C086816680D46FFF7C3FE10B920712046D3
S3150800DB8C70BD6B681B683BB9336830461B68984791
S3150800DB9C012320602371F2E70023FBE770B50446E6
S3150800DBAC086816680D46FFF7ABFE10B920712046BB
S3150800DBBC70BD6B681B683BB9336830461B68984761
S3150800DBCC012320602371F2E70023FBE770B50446B6
S3150800DBDC086816680D46FFF793FE10B920712046A3
S3150800DBEC70BD6B681B683BB9336830461B68984731
S3150800DBFC012320602371F2E70023FBE710B50468C4
S3150800DC0CFFF716FE0444207910BD70B5044600686B
S3150800DC1C0D68FFF7F3FF68B163681B6853B9A3680F
S3150800DC2C19682B68003928465B68BDE8704018BF30
S3150800DC3C01211847002070BD70B5044600680D68B0
S3150800DC4CFFF7DCFF50B163681B683BB9A2682B6809
S3150800DC5C11785B682846BDE870401847002070BDEF
S3150800DC6C70B5044600680D68FFF7C8FF50B16368C5
S3150800DC7C1B683BB9A2682B6811885B682846BDE807
S3150800DC8C70401847002070BD70B5044600680D68D2
S3150800DC9CFFF7B4FF50B163681B683BB9A2682B68E1
S3150800DCAC11685B682846BDE870401847002070BDAF
S3150800DCBC70B5044600680D68FFF7A0FF58B1636895
S3150800DCCC1B6843B9A2682B6892F900105B68284652
S3150800DCDCBDE870401847002070BD70B50446006852
S3150800DCEC0D68FFF78BFF58B163681B6843B9A268C8
S3150800DCFC2B68B2F900105B682846BDE870401847D7
S3150800DD0C002070BD70B5044600680D68FFF776FFF5
S3150800DD1C50B163681B683BB9A2682B6811685B68CD
S3150800DD2C2846BDE870401847002070BD70B50446FB
S3150800DD3C00680D68FFF762FF60B1A36861681A682E
S3150800DD4C2B6809685B68003A284618BF0122BDE8AB
S3150800DD5C7040184770BD70B5044600680D68FFF72B
S3150800DD6C4DFF48B1D4E901122B6812785B68096833
S3150800DD7C2846BDE87040184770BD70B50446006863
S3150800DD8C0D68FFF73BFF48B1D4E901122B681288DE
S3150800DD9C5B6809682846BDE87040184770BD70B5C1
S3150800DDAC044600680D68FFF729FF48B1D4E901124B
S3150800DDBC2B6812685B6809682846BDE870401847E6
S3150800DDCC70BD70B5044600680D68FFF717FF50B1B3
S3150800DDDCD4E901122B6892F900205B680968284679
S3150800DDECBDE87040184770BD70B5044600680D68EC
S3150800DDFCFFF704FF50B1D4E901122B68B2F90020E1
S3150800DE0C5B6809682846BDE87040184770BD70B550
S3150800DE1C044600680D68FFF7F1FE48B1D4E9011213
S3150800DE2C2B6812685B6809682846BDE87040184775
S3150800DE3C70BD03689B790BB1FFF7E0BE18467047B7
S3150800DE4C1FB501AB03930B7AFF2BCDE9012108BF54
S3150800DE5C4FF0FF33044A52F823300A1D02A9044630
S3150800DE6C9847204604B010BD248D010830B587B0FC
S3150800DE7C01ABCDE90432037A0C4A0191FF2B08BF9A
S3150800DE8C4FF0FF330390011D52F82330044603A8C4
S3150800DE9C9847054638B12046FFF7CBFF18B1A3893A
S3150800DEAC01339BB2A381284607B030BDEC8C010820
S3150800DEBC0120704737B5044600F5067006F008FED3
S3150800DECCD4F85C15D4F8583511F0010F4FEA6101F6
S3150800DEDC6D4618BF62582846214418BFD358984730
S3150800DEEC95E8030004F5AB6484E8030003B030BD81
S3150800DEFC4368184710B5EFF31083DB4303F00103AF
S3150800DF0C72B6B1F86425B1F8664592B2A4B2A242CB
S3150800DF1C09D1B1F86825B1F86A4592B2A4B2A24201
S3150800DF2C0DD10B4A05E0A1F86625012281F86C256E
S3150800DF3C084A02600022426043B162B610BDA1F8DD
S3150800DF4C6A25012281F86C25034AF2E772B6F5E7D1
S3150800DF5C01DF0008EDDF0008B5DF0008D0E9031380
S3150800DF6C044A914206BFB3FA83F04009002080F0B8
S3150800DF7C010070473139010838B5044601F50970B6
S3150800DF8C0D46FFF7EBFF30B9054B85F86C05C4E970
S3150800DF9C0030204638BD034B236000236360F8E746
S3150800DFAC01DF000885DF000870B5044601F5097025
S3150800DFBC01F50676FFF7D2FF054628B1064B236016
S3150800DFCC00236360204670BD304607F07DF9034B8D
S3150800DFDCC4E90035F6E700BFB5DF000885DF0008A1
S3150800DFEC38B5044601F509700D46FFF7B7FF08B1B9
S3150800DFFC104B0AE0D5F80C3205F10C0202EB830241
S3150800E00CD5F860359A4205D10B4B23600023636023
S3150800E01C204638BD53F8041BC5F860358B89C8896A
S3150800E02C9BB280B28342EBD0CB8105F5067007F024
S3150800E03C03F9DDE7EDDF0008B5DF00080B681968A2
S3150800E04C136808881B681B8898422CBF002001207F
S3150800E05C7047D0F80C3270B500F10C0404EB830051
S3150800E06C43F31D03002B0EDD5A1004EB820554F8FE
S3150800E07C2260366836888E423EBF9A1A02F1FF3203
S3150800E08C2C1D1346EEE7A04206D0206803681B88B1
S3150800E09C8B4288BF002070BD0020FCE700F5067097
S3150800E0AC07F086B8D0F80C3270B500F10C050446AA
S3150800E0BC05EB8306B54205D055F8041B2046FFF739
S3150800E0CCEDFFF7E770BD00F10C03C0F86035B0F84A
S3150800E0DC643501339BB2A0F86435012380F86C359E
S3150800E0EC7047D0F80C3270B500F10C04054604EBF9
S3150800E0FC8306A6420AD02068FFF79BFE20B1226849
S3150800E10C938901339BB293810434F2E72846BDE820
S3150800E11C7040FFF7D8BF10B5044600F5067007F037
S3150800E12CD8F8B4F8683501339BB2A4F868350123DE
S3150800E13C84F86C3510BD000073B50446FDF73EFA3D
S3150800E14C1A4B1C601A4B23601A4BC4F81032012365
S3150800E15C84F81432184B0093184B0193002502AB24
S3150800E16C04F5067613E90600C4F80C52304607F097
S3150800E17CB3F8D4F80C22124BC4F8583504F10C0336
S3150800E18C03EB8203A4F86455C4F85C55A4F86655E9
S3150800E19CC4F86035A4F8685584F86C55A4F86A5523
S3150800E1AC304606F0EDFF204602B070BDD4200020A4
S3150800E1BC9C8D010884870108FDDE0008BDDE000879
S3150800E1CC01DF00082DE9F74FD1F800420023074676
S3150800E1DC0E4691460360037101EB840A44F31D084D
S3150800E1EC0D46B8F1000F12D04FEA580B05EB8B0110
S3150800E1FC4A4630460191FFF721FF019928B108F1EB
S3150800E20CFF380D1DA8EB0B08EBE7D846E9E7AA453E
S3150800E21C05D10123802C3B711FD10AF0E5F92A465A
S3150800E22C49463046FFF70AFFE8B10123802C3B71BB
S3150800E23CF3D0524652F8043D46F82430521B04F1EA
S3150800E24C0104C6F8004204D02946AAEB02000AF0DB
S3150800E25CFFF9D9F800302B6005E0D9F800302B60AF
S3150800E26C0134C6F8004238463D6003B0BDE8F08F6D
S3150800E27C1FB50446019101AA00F10C0102A8FFF78B
S3150800E28CA1FF01990B689B7913B12046FFF706FF8E
S3150800E29C04B010BD10B5074B0360044600F50670B4
S3150800E2AC07F032F8044B002220461A60FDF77DF978
S3150800E2BC204610BD9C8D0108D420002010B50446BC
S3150800E2CCFFF7E8FF20464FF4AE61FDF791FB2046B9
S3150800E2DC10BD808870478180012070474368188A72
S3150800E2EC7047000010B5034B03600446FDF75DF953
S3150800E2FC204610BDD48D010810B50446FFF7F2FF71
S3150800E30C20462421FDF774FB204610BD0346C06841
S3150800E31C198A1A8C03688A1A51425B685141184744
S3150800E32C08B5038C23B10182FFF7F0FF012008BD65
S3150800E33C1846FCE74068FFF7F3BF000037B50446FC
S3150800E34CFDF73CF9174B2360174B18491B681848FF
S3150800E35C002203F50473C4E90514164922822284A3
S3150800E36CE360E16169468DF8042000930225FFF706
S3150800E37CADFA04F1140369460F4800938DF804505E
S3150800E38CFFF7A4FA04F11C0369460C4800938DF8B0
S3150800E39C0450FFF79BFA2046FFF7B8FF204603B058
S3150800E3AC30BD00BFD48D0108D4200020B48D0108DF
S3150800E3BCA0A00108C48D0108D8A00108A0A10108D5
S3150800E3CC03681988014B1868FFF743BED420002050
S3150800E3DC406803681B681847406803681B68184739
S3150800E3EC00797047C36880689B00043B18447047E3
S3150800E3FC08B5C3681BB1FFF7F5FF408808BD18467A
S3150800E40CFCE710B5D0E9023203EB820293421846B8
S3150800E41C05D033F9044B8C42F8D1408810BD002046
S3150800E42CFCE7D0E9023203EB82029342194607D085
S3150800E43C5888632803F10403F7D8B1F9000070472C
S3150800E44C002070470346C06858B19B6803EB8001EF
S3150800E45C0020994205D05A88904238BF104604339A
S3150800E46CF7E7704740687047808870478368994219
S3150800E47C05D3C368994202D8416001207047002031
S3150800E48C7047000010B5034B03600446FDF78DF882
S3150800E49C204610BD448E010810B50446FFF7F2FF5E
S3150800E4AC20466421FDF7A4FA204610BD10B5044693
S3150800E4BC806D70B1E06803681B689847236943430D
S3150800E4CCA06DB3FBF0F043F69823984228BF184684
S3150800E4DC80B210BDD0E90B239B1A5810002BB8BF7D
