S02B0000453A5C7265706F735C63735C72656C656173655C6C636D335C6C636D335C6170705C6C636D332D62D4
S31508009000002000202D9200083192000837920008AF
S31508009010519200085792000871920008000000005B
S31508009020FFFFFFFF00000000000000008B92000811
S315080090309192000800000000979200089D9200088F
S31508009040755001088550010895500108A55001087A
S31508009050B5500108C5500108D5500108E55001086A
S31508009060F550010805510108155101082551010857
S315080090703551010845510108555101086551010846
S31508009080755101088551010895510108A551010836
S31508009090B5510108C5510108D5510108E551010826
S315080090A0F551010805520108155201082552010813
S315080090B03552010845520108555201086552010802
S315080090C0755201088552010895520108A5520108F2
S315080090D0B5520108C5520108D5520108E5520108E2
S315080090E0F5520108055301081553010825530108CF
S315080090F035530108455301085553010865530108BE
S315080091000000000000000000000000007553010880
S315080091108553010895530108A5530108B55301085D
S31508009120C5530108D5530108E5530108F55301084D
S31508009130055401081554010800000000000000004D
S31508009140255401083554010845540108000000005B
S315080091500000000000000000000000000000000001
S31508009160000000000000000055540108655401087D
S31508009170755401080000000000000000000000000F
S30D080091800000000085540108F7
S31508009188326336623538390008B500F0D1F81D4A19
S315080091981D48824217D31D4A1D4900208A421DD3FD
S315080091A81C4D1D4C02F06EF9641BA4100026B4422F
S315080091B81DDC1A4D1A4C641BA4100026B4421BDC8D
S315080091C812F09CFAFEE7D2E9001394680C32C91A21
S315080091D89C42DED95D5843F8045BF9E752F8083B28
S315080091E852F8044C9C42D9D943F8040BFAE755F8C7
S315080091F8043B98470136DAE755F8043B98470136A1
S31508009208DCE700BF4494000850940008509400080E
S315080092185894000858940008589400085894000868
S31508009228649400081C48004708B509F0ABF91EF015
S31508009238040F0CBFEFF30880EFF309807146174A4D
S31508009248104708B509F09EF908B509F09BF91EF00C
S31508009258040F0CBFEFF30880EFF309807146104A34
S31508009268104708B509F08EF91EF0040F0CBFEFF386
S315080092780880EFF3098071460A4A104708B509F0CD
S3150800928881F908B509F07EF908B509F07BF908B53A
S3150800929809F078F970470000919100084B92000888
S315080092A86B920008859200081C4B1A6822F4502213
S315080092B81A601A6842F480321A601A689103FCD553
S315080092C8174A520102F18442012111604FF4806263
S315080092D85A60144A116821F0040111606FF07F4141
S315080092E85160116841F0010111600F4A5A60002265
S315080092F8DA621A6842F080721A601A689201FCD516
S315080093080A4A122111605A6842F002025A605A68DB
S3150800931802F00C02082AFAD1704700BF0010024072
S315080093282410020010E000E00004110000200240AA
S3150800933838B53C4C2368002243F001032360626079
S31508009348236823F0847323F480332360E262236856
S3150800935823F480232360A260E36843F00103E360F3
S31508009368E36823F00103E360A36943F00103A361FB
S31508009378FFF79AFF2C4B2D4A9A6062B62C4ADA6098
S31508009388A36A43F08053A362A36A23F08053A362B7
S31508009398636943F080536361E36A23F4F873E3620D
S315080093A8E36A43F48073E362BFF34F8F214DAB68DA
S315080093B823F04053AB60AB6842F2107043F0805319
S315080093C8AB6009F06DF9AB6843F00043AB60AB6876
S315080093D8002BFCDB382009F063F9AB68164843F024
S315080093E80103AB600AF08CFEC1232B630023AA682D
S315080093F842F00402AA602A685207FCD52A6CB2F51C
S31508009408946FF4D30133642BF1D1A36A43F08053E4
S31508009418A362A36A23F08053A362636923F0805387
S31508009428636138BD0010024000ED00E000900008B6
S311080094380003FA0500000050DC330208AF
S31508009444284602080020002040230020402300204C
S31508009454704B0020F9B40008110601083D060108FE
S315080094700020704700797047017101207047007914
S315080094807047017101207047004870478FA900088E
S3150800949008B5406800F020FB08BD000008B5034683
S315080094A078B1084A904206D9074A904201D912F083
S315080094B048F912F043F92C205843BDE8084002F059
S315080094C007B808BD2EBAE8025D74D10510B5D1E912
S315080094D00232934200D110BD5A1C8A601A788368FA
S315080094E05C1C84601A70F2E737B502AB03E9060024
S315080094F00B460A449A4201D103B030BD816813F87D
S31508009500014B4D1C85600C70F4E713B50446ADF8A5
S31508009510061002220DF10601806812F00FFBA368FF
S315080095200233A36002B010BD13B504468DF80710C8
S3150800953001220DF10701806812F000FBA3680133D0
S31508009540A36002B010BD000070B590F87830B3FA89
S3150800955083F38EB001215B0906AA80F8983080F85B
S3150800956099100DF13603044602A8CDE9033202929A
S315080095700593FFF7D9FF4FF6864102A8FFF7C5FF07
S315080095801A2102A8FFF7D0FF002102A8FFF7CCFF97
S31508009590002102A8FFF7C8FF1025002102A8FFF73F
S315080095A0C3FF013DF9D102A80721FFF7BDFF02A8B5
S315080095B01021FFF7B9FF294602A8FFF7B5FF049E59
S315080095C000956D4604222946304612F0B7FA04364D
S315080095D094F89810049602A8FFF7A6FF029A049B2F
S315080095E0E0689B1ACDE9002395E8060009F04EF9D4
S315080095F002480A23C4E92A330EB070BDBDAC000880
S3150800960030B504468BB0B43001F026FF002504F1CE
S31508009610BC0001F021FF02AA0DF1160306A884F882
S3150800962084500121CDE9073206920993FFF77CFFA2
S3150800963006A84FF68151FFF768FF06A80A21FFF72B
S3150800964073FFB4F89A1006A8FFF75FFF06A806216D
S31508009650FFF75BFF06A80C21FFF757FF294606A868
S31508009660FFF753FF06A8C821FFF74FFF069A089B86
S31508009670E0689B1ACDE900231A46009909F006F915
S3150800968001480BB030BD00BF81A8000810B588B0EE
S315080096900DF105030446012104A805930793CDF8A7
S315080096A010D0CDF818D0FFF73FFF04A84FF68F412A
S315080096B0FFF72BFF04A80121FFF736FF04A80A21AC
S315080096C0FFF732FF049A069BE0689B1ACDE902234E
S315080096D01A46029909F0DAF802480A23C4E92A3335
S315080096E008B010BD5DAD000870B592B0044601A87B
S315080096F00BF0D8FE029D0BAA0DF14603082D07A80C
S315080097004FF0010128BF0825CDE9083207920A93D0
S31508009710FFF70AFF07A84FF68341FFF7F6FE05F1A4
S315080097200E0107A8C9B2FFF7FFFE07A80021FFF739
S31508009730FBFE07A82021FFF7E8FE07A82021FFF770
S31508009740E4FE07A80121FFF7EFFE07A80021FFF7AF
S31508009750EBFE691CC9B207A805AEFFF7E5FE304661
S315080097600BF0A0FE069B082B8CBF0821092107A831
S31508009770FFF7DAFE019BCDE9053507A896E806004E
S31508009780FFF7B2FE0021FFF7CFFE07A80021FFF77B
S31508009790BCFE07A80021FFF7B8FE079A099BE068F8
S315080097A09B1ACDE903231A46039909F06FF8034873
S315080097B00A23C4E92A3312B070BD00BF15AD0008EC
S315080097C030B589B00DF107030446012104A80593B5
S315080097D00793CDF810D0CDF818D0FFF7A5FE04A84A
S315080097E04FF68A41FFF791FE04A80321FFF79CFE76
S315080097F004A80321FFF798FE02AD002104A8FFF78D
S3150800980093FE28460BF04EFE9DF80C1004A8FFF7B1
S315080098108BFE049A069BE0689B1ACDE9022395E81D
S31508009820060009F033F803480A23C4E92A3309B0C5
S3150800983030BD00BF05AB0008F0B5A9B06C4684E89A
S31508009840060006461F4604A80DF19F03154601218A
S3150800985008AACDE9053207930492EDB2FFF764FE34
S3150800986004A84FF60651FFF750FEA91D04A8C9B271
S31508009870FFF75AFE394604A8FFF747FEBDF8B810A9
S3150800988004A8FFF742FE04A80021FFF74DFE29466B
S3150800989004A8FFF749FE94E8060004A8FFF724FE8B
S315080098A0049A069B9B1ACDE90223304602991A466A
S315080098B008F0ECFF29B0F0BD012804D0831E5842F9
S315080098C05841000170470220704708B5406800F00B
S315080098D006F908BD70B594B00BAE044630460BF0D9
S315080098E0E1FD0C9B082B05D8204614B0BDE8704056
S315080098F0FFF7CCBE01A80BF0D5FD029D079614AB69
S315080099001D2D4FF0010107A828BF1D25CDE90836F2
S315080099100A93FFF709FE42F2090107A8FFF7F5FDCA
S31508009920EEB2202107A8FFF7FFFDB11CC9B207A8B0
S31508009930FFF7FAFD711CC9B207A8FFF7F5FD092163
S3150800994007A8FFF7F1FD019B2A46194607A8CDE9A6
S315080099500335FFF7C9FDDDE9092393420ED1079ABE
S3150800996005929B1AE068059906931A4608F08EFF39
S3150800997005480A23C4E92A3314B070BD002107A894
S31508009980FFF7D2FDE7E700BF39AD00080F4B70B50A
S3150800999004460360D0F8B00040B9666E04F11405B9
S315080099A056B9204601F005FB204670BD05680C2116
S315080099B001F09AFD2846EFE7E869013E18B1696AA1
S315080099C0091A01F091FD2835EAE700BFD01A020806
S315080099D010B50446FFF7DAFF2046C82101F084FDDA
S315080099E0204610BD90F8993013B1002380F89930BD
S315080099F090F89C3013B1002380F89C3000487047DB
S31508009A00F9A1000830B5036991B00446187CFFF740
S31508009A1053FF0AAA0DF13F030546012102A8CDE925
S31508009A20033202920593FFF77FFD02A84FF68E4197
S31508009A30FFF76BFDE91C02A8C9B2FFF775FD23699C
S31508009A40187CFFF739FF811CC9B202A8FFF76CFD25
S31508009A502369187CFFF730FF411CC9B202A8FFF73B
S31508009A6063FD02A80721FFF75FFD23691A7C012A17
S31508009A7006A903F1140202A809BF12332433CDE95B
S31508009A800632CDE908321CBFCDE90623CDE9082305
S31508009A90FFF71CFD029A049BE0689B1ACDE9002398
S31508009AA01A46009908F0F2FE02480A23C4E92A3346
S31508009AB011B030BD81AD0008064B132219688142EA
S31508009AC001D198887047013A03F10803F6D14FF699
S31508009AD0FF707047E01A0208C06EFFF7EDBF006F0F
S31508009AE0FFF7EABFF0B503460C460F46054601F1F7
S31508009AF0100C3E4603CE664528606960374605F178
S31508009B000805F6D130682860A17DA08A98829975E3
S31508009B10D4E90601DA75E27D1A7603F11C0282E8B9
S31508009B200300002283F8262083F828201846F0BD73
S31508009B3090F8262000230AB180F8263080F82830CD
S31508009B40704700002DE9F04190F826509CB0044675
S31508009B500E4617469846002D64D10078394AFFF715
S31508009B60ABFE974294BF09220A220CAB8518012145
S31508009B701CAA04A8CDE9052304930792FFF7D4FC91
S31508009B804FF6045104A8FFF7C0FCE9B204A8FFF792
S31508009B90CBFC414604A8FFF7B8FC217804A8FFF7D8
S31508009BA0C3FC234608A913F8042B012A0CBFA21CE0
S31508009BB004F1140204A807BFCDE90823CDE90A2356
S31508009BC0CDE90832CDE90A32FFF780FC1D4B217D2D
S31508009BD09F4224D8FFF7A8FC617D04A8FFF7A4FCE0
S31508009BE0A17D04A8FFF7A0FCE17D04A8FFF79CFC73
S31508009BF0072104A8FFF798FC217E04A8FFF794FC28
S31508009C00049A069B9B1ACDE90223304602991A4606
S31508009C1008F03CFE012528461CB0BDE8F081FFF798
S31508009C2074FCD9E7026A52B190F828203AB9828CB6
S31508009C300092D0E907123046FFF7FEFDEBE7002554
S31508009C40E9E700BF1F00070090F8263082B08BB9FD
S31508009C504FF60453ADF8043001238DF80630BDF8ED
S31508009C600430002063F30F00BDF8063063F31F408D
S31508009C7002B07047036A1BB190F8283083F00103DD
S31508009C804FF60652ADF80420E7E7000084B02DE948
S31508009C90F041DDE90C5C044607A880E80E000BAF2E
S31508009CA0034622461E4603CEBE4210605160334626
S31508009CB002F10802F6D130681060012363610023BF
S31508009CC0C4E90733A3766362194BB3EB4C1F05EB64
S31508009CD04C184CF31A0702D2164811F035FD3846CF
S31508009CE0FFF7DCFB2C2303FB070767620646E061E8
S31508009CF02F46B84508D126622B4643450CD1204647
S31508009D00BDE8F04104B07047394630460122FFF7F6
S31508009D10E9FE20372C36ECE75A7D12F0300F6269DF
S31508009D2014BF032102210A4462612033E5E700BF1C
S31508009D30C045175D741A020808B5837E0BB1002367
S31508009D408376D0E90701814200D108BDFFF7F0FE0E
S31508009D502C30F8E72DE9F041837E9AB004460E468A
S31508009D601746002B45D10078FFF7A6FD1AAA0AABBD
S31508009D700546012102A8CDE903230293059203357E
S31508009D80FFF7D2FB4FF6025102A8FFF7BEFBE9B276
S31508009D9002A8FFF7C9FB217802A8FFF7C5FB2346EF
S31508009DA002A813F8042B012A0CBFA21C04F1140202
S31508009DB006A907BFCDE90623CDE90823CDE9063272
S31508009DC0CDE90832FFF782FB0121FFF7ADFB217DC4
S31508009DD002A8FFF7A9FB029A049B9B1ACDE9002368
S31508009DE0304600991A4608F051FD01201AB0BDE820
S31508009DF0F081D0E90758A84501D10020F6E72846A2
S31508009E00238B3A463146FFF79DFE2C350028F2D0C3
S31508009E10ECE7837E37B500248BB94FF60253ADF8CD
S31508009E20003001238DF80230BDF80030002063F3BE
S31508009E300F00BDF8023063F31F4003B030BDD0E910
S31508009E4007158D4201D100230DE00846FFF7FCFEF9
S31508009E5010F47F0F0090C0F3074301F12C01F0D0F6
S31508009E60BDF800400190ADF804408DF80630019B1E
S31508009E700093D9E738B504460C200D4601F028FBB7
S31508009E800346021D95E8030082E80300D4F8B020D3
S31508009E901A60C4F8B03038BD1FB590F89C3002ACD3
S31508009EA084E8060063B1142A0AD8836DB3F85030E3
S31508009EB00093B0F85430C06894E80600FFF7BCFC7D
S31508009EC004B010BD70B5044621B1C36E0367012303
S31508009ED080F88430E5686868002118300AF0C2F90D
S31508009EE00123C5F82C33636E04F11405282202FBFE
S31508009EF00356B5420ED194F8A0200023A3660AB1F2
S31508009F0084F8A03094F8A43013B1002384F8A43060
S31508009F10034870BD2846FFF70FFF2835E9E700BF5D
S31508009F20899F000810B50446A83001F0AAFA04F182
S31508009F30B40001F0A6FA04F1BC0001F0A2FAE36E3F
S31508009F4020469847E368E06693F8302312B993F8F9
S31508009F5031233AB10022A3F8302301212046FFF726
S31508009F60B1FFE06610BD0000C36810B50446586826
S31508009F70012118300AF076F91423C4E92A33014876
S31508009F8010BD00BF99A10008FFF7EEBF7FB50446D4
S31508009F9002ADC66828460BF085FAB4F8A2300093DD
S31508009FA03046B4F89E3095E80600FFF745FC0348AE
S31508009FB00A23C4E92A3304B070BD00BF75AC000893
S31508009FC010B588B00DF105030446012104A80593D0
S31508009FD00793CDF810D0CDF818D0FFF7A5FA04A846
S31508009FE04FF68541FFF791FA04A80121FFF79CFA7D
S31508009FF004A80321FFF798FA049A069BE0689B1ABF
S3150800A000CDE902231A46029908F040FC02480A23C1
S3150800A010C4E92A3308B010BD99AC0008436E70B580
S3150800A020282200F11405044602FB0356AE4204D169
S3150800A0302046BDE87040FFF7C3BF2846A26EE16818
S3150800A040FFF788FE28350028F0D0014870BD00BF0C
S3150800A050AFAB000870B58AB00DF1170304460D467C
S3150800A060164606A803AA0121CDE9073206920993E6
S3150800A070FFF75AFA06A84FF6A441FFF746FA06A8CC
S3150800A0800721FFF751FA314606A8FFF74DFA0623CE
S3150800A0900195029301AD95E8060006A8FFF724FA94
S3150800A0A0069A089BE0689B1ACDE9012395E8060005
S3150800A0B008F0ECFB02480A23C4E92A330AB070BD4B
S3150800A0C0A5AD0008F0B589B001AB044602AE0F464F
S3150800A0D004A801211546CDE9056304930796FFF701
S3150800A0E023FA394604A8FFF710FA04A80021FFF757
S3150800A0F01BFA049A069BE0689B1ACDE9022396E8A8
S3150800A100060008F0C3FBC4E92A5509B0F0BD0000F3
S3150800A11008B50A2241F20101FFF7D4FF004808BD3D
S3150800A12029AE00082DE9F043DFF86480A5B004469F
S3150800A130002504AF4FF07F09E1684B463A4668466A
S3150800A140CDE9027908F0E2FD9DF8046056B1009A5F
S3150800A150062AF1D14146384611F0E0FC002808BF2E
S3150800A1603546E9E72DB1204625B0BDE8F043FFF7AF
S3150800A170CFBFD4F8A83033B90121204625B0BDE8B1
S3150800A180F043FFF79FBE034825B0BDE8F08300BF44
S3150800A190781B020899A10008FFF7C4BF08B50A2270
S3150800A1A04FF69241FFF78EFF004808BD2DAC000818
S3150800A1B008B50A224FF60151FFF784FF004808BD8B
S3150800A1C051AC000808B50A224FF69441FFF77AFF0A
S3150800A1D0004808BDF1AC000890F87820012A06D896
S3150800A1E090F880300BB1FFF7EDBFFFF77DBA014855
S3150800A1F0704700BFF9A10008FFF7EEBF82B002A9B9
S3150800A20001E90C0013461278042A01BF019A59780D
S3150800A2100170033305BF033AC0E901320023012365
S3150800A220037302B0704700002DE9F0470446AAB050
S3150800A2300D46164600F0C6FE614B2360614B636708
S3150800A240614BE367614BC4E92234614BC4E90356A9
S3150800A250C4E9243400251923C4E92E3504AF332371
S3150800A260C4F8C0303846C4E91B55C4E92A55C4E9C0
S3150800A2702C55656684F8785084F8805084F88450A4
S3150800A28084F8995084F89C5084F8A05084F8A45017
S3150800A290A4F8C4500DF1480A0BF004F960222946C7
S3150800A2A0504611F073FC4B4B4B4A129302238DF820
S3150800A2B05D301A928DF87D308DF89D3002F580322A
S3150800A2C0236922925A688DF85C20D3E90012CDE9F9
S3150800A2D01812DA688DF87C20D3E9022397E8030080
S3150800A2E0CDE92023059B8DF89C302AAB03E90300B2
S3150800A2F01022294609A811F049FC636E04F11408D6
S3150800A3004FF02809022B09FB038C2AD001238DF86C
S3150800A310203041F60A03ADF8223008AF0FCF0DAD55
S3150800A3200FC5CDF818A03B682B600698032319467D
S3150800A3300DF1080A07938AE8030010AF97E80300AF
S3150800A3408DE803000DAD95E80E006046FFF79EFC0C
S3150800A350636E0133022B636609FB03880DF1200E39
S3150800A36001D111F0C3FB06F110032A4620361868FE
S3150800A37059689446ACE803000833B3426246F6D1FE
S3150800A3801868164BCCF800000893022309939EE838
S3150800A39003008AE8030097E803008DE803004046B7
S3150800A3A095E80E00FFF772FC636E013363660021C1
S3150800A3B02046FFF787FDE06620462AB0BDE8F0870D
S3150800A3C0D01A02085C1A02086C1A0208B01A0208A7
S3150800A3D0C01A02080100292A0100242A801B020843
S3150800A3E013B50446816802220DF1060011F0A6FB9A
S3150800A3F0A368BDF806000233A36002B010BD30B5ED
S3150800A40089B06B4683E8060090F826300446BBB947
S3150800A4100B46022A1144CDE90431CDE906310CBFB9
S3150800A4200125002506D104A8FFF7DAFF0123A08439
S3150800A43084F826308DF80C5001238DF80D300BE08A
S3150800A440036AA3B190F828308BB9012380F8283025
S3150800A45040F20113ADF80C309DF80C30002063F380
S3150800A46007009DF80D3063F30F2009B030BD0023B7
S3150800A470E3E770B5837E88B06D4685E80600044636
S3150800A480B3B90B46022A1144CDE90431CDE90631A8
S3150800A4900CBF0125002505D104A8FFF7A1FF01235C
S3150800A4A02083A3768DF80C5001238DF80D3013E028
S3150800A4B0D0E90746B44201D10023F6E7204695E8DD
S3150800A4C00600FFF79CFF10F47F4FADF8100004F16B
S3150800A4D02C04EFD0ADF80C009DF80C30002063F387
S3150800A4E007009DF80D3063F30F2008B070BD13B553
S3150800A4F00446816801220DF1070011F01FFBA368CD
S3150800A5009DF807000133A36002B010BD30B50B7883
S3150800A510052B85B0044602D0002005B030BD8B68F7
S3150800A520032BF9D94A6868461344CDE90023CDE9D7
S3150800A5300223FFF7DCFF05466846FFF751FF03468F
S3150800A540002DE9D194F89C000028E5D0B4F89A20AB
S3150800A5509A42E1D184F89C50DFE7F0B5A9B00446E9
S3150800A56008AE7F27CDE9046704AD95E80C00E168DD
S3150800A570684608F0CBFB9DF8043053B9D4F8A830E8
S3150800A5802BB900212046FFF79DFC29B0F0BDE06EEF
S3150800A590FBE7009B03933246214628460296FFF7BF
S3150800A5A02DFE9DF81C30002BDCD029462046FFF7EF
S3150800A5B0ADFF0028D6D0E4E7FFF7CFBF10B590F877
S3150800A5C09C3088B004462BB9012108B0BDE810407C
S3150800A5D0FFF778BC0DF1070304A80121059307933B
S3150800A5E0CDF810D0CDF818D0FEF79EFF04A84FF688
S3150800A5F09341FEF78AFF04A80321FEF795FFB4F8F6
S3150800A6009A1004A8FEF781FF04A81321FEF78CFF11
S3150800A610049A069BE0689B1ACDE902231A4602991A
S3150800A62008F034F93223C4E92A332046FFF795FFA8
S3150800A63008B010BD1FB50B780E2B03D0002005B04F
S3150800A6405DF804FB8B68022BF8D94A686846134400
S3150800A650CDE90023CDE90223FFF749FF6846FFF756
S3150800A660BFFE4FF606539842E8D16846FFF73FFF0C
S3150800A670B0FA80F04009E2E773B502AB03E90600D9
S3150800A68004460E460D46019B33449D4209D0D4E943
S3150800A69002329A4205D02046FFF729FF05F8010B3A
S3150800A6A0F1E702B070BD2DE9F0410B78FF2B8EB0B3
S3150800A6B0054604D0002738460EB0BDE8F0818B6801
S3150800A6C0092BF7D94A6805A81344CDE90523CDE92E
S3150800A6D00723FFF785FE074605A8FFF781FE804694
S3150800A6E005A8FFF77DFE064605A8FFF700FF044606
S3150800A6F005A8FFF775FE40F601439F42DAD195F8A3
S3150800A7009C70002FD6D0B5F89A304345D2D1DDE9F2
S3150800A71007135B1A9C42CDD10028CBD1AB6D9B8C1D
S3150800A72001339BB29E42C5D1142C13D809AE2246DA
S3150800A730314605A8CDE90164FFF79EFFD5F8B0506C
S3150800A740002DB8D06B68281DCDE9036403A9984786
S3150800A7502D68F5E70746AEE770B590F87830032B15
S3150800A760AAB0044604D12AB0BDE87040FFF726BF58
S3150800A770D0F8B46006AD06BB02AA03AB01210AA84D
S3150800A780CDE90B320A920D93FEF7CEFE4FF47C41CB
S3150800A7900AA8FEF7BAFE31460AA8FEF7C5FE0A9AC7
S3150800A7A00C9BE0689B1ACDE9062395E8060008F09D
S3150800A7B06DF804F1B40000F04FFE7F260AABCDE930
S3150800A7C00636E16895E80C00684608F09FFA9DF899
S3150800A7D0043013B9E06E2AB070BD0AAB0693009B2D
S3150800A7E0079395E80C00214602A8FFF707FD9DF898
S3150800A7F01430002BE2D001462046FFF787FE20B131
S3150800A80000212046FFF75EFBE5E702A92046FFF791
S3150800A8104AFF02A92046FFF779FE02A92046FFF75C
S3150800A82009FF38B104F1B40000F016FE04F1BC00CB
S3150800A83000F012FE9DF808300E2B13D1DDE9032334
S3150800A84028461344CDE90623CDE90823FFF74FFE32
S3150800A8502846FFF7C5FDB0F57C4F03D104F1BC00CF
S3150800A86000F0FAFDD4F8BC302BB9E36E2367204616
S3150800A870FFF7A4FEAFE70148ADE700BF81A80008CF
S3150800A880FFF76ABF2DE9F04190F88030AEB0044674
S3150800A890F3B990F878309A1E012A19D990F89820B9
S3150800A8A0B3FA83F35B099A4212D10EAF4FF07F08D1
S3150800A8B0CDE90A780AAD95E80C00E16802A808F027
S3150800A8C025FA9DF80C3053B9E06E2EB0BDE8F0813C
S3150800A8D0002120462EB0BDE8F041FFF7F3BA029BEF
S3150800A8E00A970B9395E80C00214606A8FFF786FC05
S3150800A8F09DF82430002BDBD0DDE907329918CDE925
S3150800A9000A31CDE90C319DF818303E2B04D006A942
S3150800A9102046FFF7FBFDCBE7032AF8D92846FFF7C1
S3150800A920E6FD01280646F2D12846FFF7E0FD002895
S3150800A930EDD12846FFF754FD94F87830A4F89A002C
S3150800A94084F89C60FBB1DDE90A239B1A0B2B04D81B
S3150800A95031462046FFF7B6FAB7E72846FFF7C7FDA0
S3150800A9602846FFF7C4FD062306461A4669462846C2
S3150800A970CDF810D00593FFF77FFE3246694620468C
S3150800A980FFF768FBA1E72046FEF73AFE9DE7FFF7CB
S3150800A99079BF2DE9F04FABB0E94689E80C00349E43
S3150800A9A0074688460DF1280A06AC7F23CDF818A07D
S3150800A9B0079394E80C00F96804A808F0A7F99DF82D
S3150800A9C0143093B9D7F8A8200AB940F2FF13ADF8A6
S3150800A9D00C309DF80C30002063F307009DF80D300D
S3150800A9E063F30F202BB0BDE8F08F049B2046534439
S3150800A9F0CDE906A3CDE908A3FFF779FD83462046EE
S3150800AA00FFF775FD05462046FFF771FDBBF1040FFC
S3150800AA10CBD10E2D23D10228C7D92046FFF767FDD3
S3150800AA202046FFF7DDFC4045BFD12046FFF75FFD16
S3150800AA3005463EB1DDE908239B1A019A934294BF65
S3150800AA4033603260009B23B199E806002046FFF781
S3150800AA5013FE01238DF80C508DF80D30B9E70F2D34
S3150800AA60A3D10328A1D92046FFF741FD0546204674
S3150800AA70FFF73DFD2046FFF7B3FC804595D1002D35
S3150800AA8093D0002EE5D000233360E2E770B58AB094
S3150800AA900723079304AE03AB0696009306AD95E825
S3150800AAA00C004FF68A410446FFF773FF10F47F4FF8
S3150800AAB0ADF8080002D1E06E0AB070BD9DF8083006
S3150800AAC0DBB9039B062B18D10DF117032846CDE9F0
S3150800AAD0073606960993FFF783FC0126A4F89E001D
S3150800AAE084F8A0602846FFF77BFC84F8A460A4F8E5
S3150800AAF0A2002046FFF74AFADEE701212046FFF7C3
S3150800AB00E1F9D9E7FFF7C2BF2DE9F041436E00F13D
S3150800AB101405282290B0044602FB03582F462E46F9
S3150800AB200021464508D03046FFF773F910F47F0F29
S3150800AB3081B206F12806F4D02023079308AE05ABA8
S3150800AB40069600930DF1180898E80C002046FFF7C2
S3150800AB5020FF10F47F4FADF8080003D1E06E10B067
S3150800AB60BDE8F0819DF8083023B101212046FFF7A2
S3150800AB70A9F9F4E7636E282202FB0355AF42F4D025
S3150800AB80059B06960793384698E80600FFF771FC7A
S3150800AB9010F47F4FADF80C0007F12807EED09DF8AA
S3150800ABA00C30002BE1D02046FFF738FAD7E7FFF73D
S3150800ABB0ABBF30B589B002AD85E80C000023CDE9FE
S3150800ABC00633009308AB154613E90C000446FFF755
S3150800ABD0E0FE10F47F4FADF8140002D1E06E09B024
S3150800ABE030BD9DF814304BB9039B5A1004EB630033
S3150800ABF0DB0744BFA3585D59A847F0E70121204663
S3150800AC0009B0BDE83040FFF75DB9000082B0064BD9
S3150800AC1000930023019302AB13E90C004FF692410F
S3150800AC2002B0FFF7C6BF00BFB1A10008FFF7EEBF2D
S3150800AC3082B0064B00930023019302AB13E90C0084
S3150800AC404FF6015102B0FFF7B4BF00BFC197000825
S3150800AC50FFF7EEBF82B0064B00930023019302ABC9
S3150800AC6013E90C004FF6065102B0FFF7A2BF00BF6A
S3150800AC701DA00008FFF7EEBF82B0064B0093002325
S3150800AC80019302AB13E90C004FF6854102B0FFF7BA
S3150800AC9090BF00BF49950008FFF7EEBF82B0064B8C
S3150800ACA000930023019302AB13E90C004FF686418B
S3150800ACB002B0FFF77EBF00BFE5990008FFF7EEBFB9
S3150800ACC037B5094B00930025019502AB13E90C0033
S3150800ACD04FF694410446FFF76CFF044B984208BFB1
S3150800ACE084F8805003B030BDE996000815AD000819
S3150800ACF0FFF7E6BF82B0064B00930023019302AB31
S3150800AD0013E90C004FF6834102B0FFF752BF00BFAC
S3150800AD10D5980008FFF7EEBF82B0064B00930023D4
S3150800AD20019302AB13E90C0042F2090102B0FFF7E6
S3150800AD3040BF00BF8D960008FFF7EEBF82B0064BF6
S3150800AD4000930023019302AB13E90C004FF68F41E1
S3150800AD5002B0FFF72EBF00BF059A0008FFF7EEBF47
S3150800AD6082B0064B00930023019302AB13E90C0053
S3150800AD704FF68E4102B0FFF71CBF00BF899400084A
S3150800AD80FFF7EEBF82B0064B00930023019302AB98
S3150800AD9013E90C004FF6A44102B0FFF70ABF00BF43
S3150800ADA001960008FFF7EEBF70B58CB0092309932A
S3150800ADB005AE04AB0896009308AC94E80C0041F283
S3150800ADC001010546FFF7E5FD10F47F4FADF80C00CD
S3150800ADD002D1E86E0CB070BD9DF80C30FBB9049B2F
S3150800ADE0082B1CD10DF11D032046CDE909360B931E
S3150800ADF00896FFF77CFB2046FFF7F2FA2046FFF796
S3150800AE0076FB06462046FFF7EBFA2046FFF7E8FAF8
S3150800AE1040EA0640A8662846FFF7C0F9DAE70121A6
S3150800AE202846FFF74FF8D5E7FFF7BEBF10B5054B25
S3150800AE30044640F8103B00F0D3FB204600F0B9F872
S3150800AE40204610BDC81B020810B50446FFF7EEFFE2
S3150800AE5020462C2100F048FB204610BDC368103060
S3150800AE6093F8841000F093BB73B505460C4600F0C2
S3150800AE70A9F8194B2B600122EC60184905F110005E
S3150800AE8000F094FB04F17403009369460123144807
S3150800AE908DF8043003F0BEF804F17C03009369468C
S3150800AEA0002310488DF80430022603F0B3F804F1A5
S3150800AEB0880369460C4800938DF80460903403F0C3
S3150800AEC0A9F86946094800948DF8046003F0A2F8C9
S3150800AED0284602B070BD00BFC81B0208BA34020873
S3150800AEE0FC3C02080439020824380208443B0208DC
S3150800AEF073B505460C4601F50563022669460068E2
S3150800AF0000938DF8046003F085F804F65C0369463F
S3150800AF10A86800938DF8046003F07CF804F66403CF
S3150800AF206946686800938DF8046003F073F8012693
S3150800AF3004F66C036946286900938DF8046004F6E4
S3150800AF40740403F067F8E868009469468DF80460AD
S3150800AF5003F060F802B070BD30B504460120904099
S3150800AF6001381BB1012B15D0002030BDA568E36858
S3150800AF70C1F140018A1A2DBA1BBAC2F12004A2F106
S3150800AF802001D34005FA04F4234325FA01F10B43C3
S3150800AF901840EAE7D4E90235C1F12004A1F12002FC
S3150800AFA0CB4005FA04F4234325FA02F21343EFE7EC
S3150800AFB07047704710B50C21044600F095FA2046F4
S3150800AFC010BD0000024A02600022C0E90122704753
S3150800AFD0E01B020838B5054655F8104FA54200D1C2
S3150800AFE038BD54F8043C201F1B6898472468F5E7C9
S3150800AFF038B5044654F8105FA54200D138BD55F857
S3150800B000043C281F5B6898472D68F5E710B5044689
S3150800B010FFF7D8FF044B23600023E36004F1100315
S3150800B020C4E90433204610BDF81B020843698B6047
S3150800B03010B50A1D00F110044C6042611A60C3681D
S3150800B0400133C36010BDF8B50546044655F8100F20
S3150800B0500026854203D1C4E90455E660F8BD50F8D8
S3150800B060042C0768D268C0E9006604389047384659
S3150800B070EFE7000010B50446FFF7C8FF014B236051
S3150800B080204610BD101C020810B50346002153F8CF
S3150800B090042F934203D1C0E90133016010BD14683F
S3150800B0A0C2E900112246F4E710B5054B044640F8FC
S3150800B0B00C3BFFF7E9FF2046FFF77BFF204610BD54
S3150800B0C0F81B020810B50446FFF7EEFF20461821C4
S3150800B0D000F00AFA204610BD10B5054B044640F8A4
S3150800B0E00C3BFFF7D1FF2046FFF7DEFF204610BDD9
S3150800B0F0101C020810B50446FFF7EEFF204618217B
S3150800B10000F0F2F9204610BD0068B0FA80F0400958
S3150800B11070470020704708B54068FFF7F5FF08BD7F
S3150800B1208068704700207047436818687047002099
S3150800B13070478368994238BF436882B03CBF5B5CFE
S3150800B1408DF804309DF8040034BF0123002340EA3B
S3150800B150032002B07047000030B587B0044600F0FF
S3150800B160C7F92F4D25600C30606000F0C1F9083032
S3150800B170A560E06000F0BCF9C4E9045000F0B8F935
S3150800B1800430A561E06102A800F07EF8029B254D17
S3150800B1906362039B2562A36204A800F07FF8049B00
S3150800B1A02363059BE5626363032569461E488DF89C
S3150800B1B00450009402F02EFF04F1080369461B4868
S3150800B1C000938DF8045002F025FF04F11003694638
S3150800B1D0174800938DF8045002F01CFF04F1180379
S3150800B1E06946144800938DF8045002F013FF0825A9
S3150800B1F004F120031048009369468DF8045002F0C4
S3150800B20009FF636B43B104F12C030C4800936946AC
S3150800B2108DF8045002F0FEFE204607B030BD00BF90
S3150800B220381C0208481C02086C39020874390208DE
S3150800B230143C0208BC3B02089C3B02083C3C020842
S3150800B240704729B1037A83F00103037101727047CD
S3150800B2500B46FAE719B9037A03710172704700239E
S3150800B260FAE720F02003413B052B0AD9A0F1300369
S3150800B270092B06D9A0F12B035842584180F001004A
S3150800B28070470120FAE70000034A034692E80300E4
S3150800B29083E8030018467047541C0208254970B510
S3150800B2A0044602260D460878FFF7DBFF00283FD143
S3150800B2B04878FFF7D6FF68B14A1C521B062AD6BF44
S3150800B2C00023C4E90052C4E90033204670BD0126B4
S3150800B2D01146E8E78878FFF7C4FF08B18A1CECE74F
S3150800B2E0C878FFF7BEFF08B1CA1CE6E7012E01F1D0
S3150800B2F00402ECD11048831A022B0BD0032B03D07F
S3150800B300012B0DD00246D8E70879FFF7AAFF0028D7
S3150800B310D3D14A1D1078FFF7A4FF0028CDD10132FA
S3150800B3201078FFF79EFF044B002808BF1A46C4E7AB
S3150800B3300A46C2E78801000890010008704708B568
S3150800B34007F024F9027843781AB11B0183F31188B0
S3150800B35070470BB162B6704772B6704711B9436849
S3150800B360036070470023FBE709B100F08AB800F0D4
S3150800B37073B843681847000013B5044640F8041B21
S3150800B380FFF778FE04F11C00FFF774FE206800231F
S3150800B390A36384F83430E36303694FF47A715B6816
S3150800B3A010309847044B20686946CDE9003409F007
S3150800B3B07DF8204602B010BDEFB3000838B5836BA0
S3150800B3C00133836304460068836918301B6898470D
S3150800B3D094F83430054613B1201DFFF709FE20689E
S3150800B3E0836918301B689847401BE06338BD40687E
S3150800B3F0FFF7E4BF38B590F8343004468BB904300B
S3150800B40004F11C05FFF7E6FD2846FFF7E3FD0123D7
S3150800B41084F834302846FFF7EBFD94F83430002BD7
S3150800B420F8D138BD37B505460446094B55F81C0B07
S3150800B43000936946074B019309F038F82846FFF749
S3150800B4404BFE201DFFF748FE204603B030BD00BF67
S3150800B45073B300083DB30008436803607047436848
S3150800B46033B1026864214A43B2FBF3F398B27047DA
S3150800B4701846704708B5FFF7F2FFC0F1640080B2BE
S3150800B48008BD03680BB1013B036070477047FEE7D0
S3150800B49008B510F03DFB582303604FF0FF3008BD98
S3150800B4A0094A1168013110B5116041070749034679
S3150800B4B018BF20F00703086818BF0833C4180C60C3
S3150800B4C091681944916010BD442300200020002093
S3150800B4D0FFF7E6BFFFF7E4BF024A5368013353603C
S3150800B4E0704700BF44230020FFF7F6BFFFF7F4BFFD
S3150800B4F00048704744230020024B0349034A5B1A5D
S3150800B500D3607047C07F0020704B00204423002082
S3150800B510FEE75B1A10B50446084607D0121B05D08D
S3150800B5200299091B594391FBF2F1084410BDF0B585
S3150800B530002304460D464FF080429C4275EB0201FB
S3150800B54005D30020014653EA020605D1F0BD9B0843
S3150800B55043EA82739208F0E71E1842EB0107B442E9
S3150800B56075EB070C05D3A41B65EB0705F01847EB2D
S3150800B570020140089B0840EAC17043EA8273490801
S3150800B5809208E0E740687047416001207047037BF6
S3150800B5902BB921B143697E2B9CBF013343610173EB
S3150800B5A070470023436103737047000010B5094BC9
S3150800B5B00271094A83600023C0E904230373074B19
S3150800B5C00160044618680FF0F6FD214600F027FCD6
S3150800B5D0204610BD6C1A0208641C0208402300208D
S3150800B5E010B5054B044618680FF0E5FD214600F036
S3150800B5F0E9FB204610BD00BF4023002003685B68B6
S3150800B6001868704703680BB9184670475A68107B64
S3150800B6100028FAD11B68F6E70368002003B97047CB
S3150800B6205A681B6852691044F8E710B5046804B9EB
S3150800B63010BD6068FFF7B5FF2468F8E710B5024645
S3150800B640002013461A461B6863B15C688C42F9D120
S3150800B6501C68146018601846F3E704680821FFF7A9
S3150800B66043FF20460028F8D110BD38B50446082007
S3150800B6700D46FFF72DFF2B684360236803602060A3
S3150800B68038BD13B500230191036001A90446FFF7ED
S3150800B690ECFF204602B010BD07B5019101A9FFF7DE
S3150800B6A0E4FF03B05DF804FB10B50446806A03683E
S3150800B6B01B689847014604F10C00BDE81040FFF7E7
S3150800B6C066BF000010B5054B044640F80C3BFFF773
S3150800B6D087FF2046FFF76DFC204610BD741C020844
S3150800B6E010B50446FFF7EEFF20462C21FFF7FCFEB7
S3150800B6F0204610BD70B504460D461646FFF762FC97
S3150800B7002046054B40F80C3B2A792968FFF74EFF7F
S3150800B710A662204670BD00BF741C020873B50C46AD
S3150800B7200546032600F0F0F869462A488DF80460B5
S3150800B730009502F06FFC04F50A730093694600232E
S3150800B74025488DF8043002F065FC04F50C7369464B
S3150800B750224800938DF8046002F05CFC04F50E7331
S3150800B76069461F4800938DF8046002F053FC0A26C8
S3150800B77004F5147369461B4800938DF8046002F0BB
S3150800B78049FC04F51B736946174800938DF8046055
S3150800B79002F040FC04F51E7300936946092313481A
S3150800B7A08DF8043002F036FC04F52073694610481B
S3150800B7B000938DF8046004F5227402F02BFC07232D
S3150800B7C069460C4800948DF8043002F023FC28469C
S3150800B7D002B070BDDC380208043D0208743802085D
S3150800B7E0D4380208FC390208DC3A0208F43C02089C
S3150800B7F0EC3C02080C3D020870470C3000F02CB8EF
S3150800B80038B504460D46FFF7DDFB2046034B40F8E6
S3150800B8100C3B294600F03EF8204638BD8C1C020831
S3150800B82010B5054B044640F80C3BFFF7D9FE2046F9
S3150800B830FFF7BFFB204610BD8C1C020810B5044656
S3150800B8401C30FFF791FDE169B1FA81F120464909FB
S3150800B850BDE81040FFF79BBE10B50446FFF7A1FEF2
S3150800B86004F11C000021BDE81040FFF777BD000079
S3150800B87038B504461D46FFF799FE0023C4E9073587
S3150800B880034B636204F11C03A362204638BD00BF64
S3150800B890281C020838B50D460A7909680446FFF7D8
S3150800B8A085FEAB680022C4E90723034B636204F1F3
S3150800B8B01C03A362204638BD281C020843682433AB
S3150800B8C083600120704738B504466368A56803F1AC
S3150800B8D02402D3F8243202EB83039D4202D1A260EC
S3150800B8E0002038BD2B1DA3602846FFF795FE0028CB
S3150800B8F0EBD02846FFF782FE04882846FFF782FE2B
S3150800B90044EAC070EDE70000024AC0E9002124318C
S3150800B91081607047A41C0208D0F8240270470020F2
S3150800B920704700207047002070478068704740685D
S3150800B930704708B5243000EB8100FFF75FFE0088EA
S3150800B94008BD243000EB8100FFF75CBE243000EB15
S3150800B9508100FFF761BE000010B5054B0360044681
S3150800B960FFF771FB2046FFF79FFB204610BD00BF7F
S3150800B970B41C020810B50446FFF7EEFF204618214E
S3150800B980FFF7B2FD204610BD8B689A423DBF4B6853
S3150800B99053F822300360002338BF01230371704730
S3150800B9A008B54068FFF7B8FF08BD70B504460846F5
S3150800B9B016460D46FFF7F4FFB04208D968683146C7
S3150800B9C0FFF7C4FF012320602371204670BD0023C2
S3150800B9D0FAE770B5044600680D4620B920602B6862
S3150800B9E02360286070BD06680821FFF77DFD304694
S3150800B9F0F3E7884204D0B4BF4FF0FF300120704708
S3150800BA000020704708B54068FFF786FF08BD37B5C0
S3150800BA100C460546FFF7F6FFA04213D9686821468B
S3150800BA20FFF78FFF01238DF804008DF805309DF888
S3150800BA300430002063F307009DF8053063F30F20F8
S3150800BA4003B030BD0023F0E708B54068FFF764FF90
S3150800BA5008BD37B50C460546FFF7F6FFA04213D9D1
S3150800BA6068682146FFF765FF0123ADF804008DF8E5
S3150800BA700630BDF80430002063F30F00BDF8063029
S3150800BA8063F31F4003B030BD0023F0E710B510463E
S3150800BA900C46FFF7B3FD01882088FFF7AAFFC0F31D
S3150800BAA0C01010BD10B508461446FFF7A7FD21883B
S3150800BAB00088FFF79EFFC0F3C01010BD38B50846D2
S3150800BAC01546FFF79BFD04462846FFF797FD0188B4
S3150800BAD02088FFF78EFFC0F3C01038BD38B5D0F800
S3150800BAE0245200F1240404EB8505A54200D138BD93
S3150800BAF02046FFF79AFD0434F7E710B50446FFF72A
S3150800BB00EDFF04F10C00BDE81040FFF763BA2DE91C
S3150800BB10F84304460C30FFF76BFA94F82C322BB135
S3150800BB20002384F82C322046FFF7D8FF04F510715D
S3150800BB3004F51470431A002B06DD03F5107323442D
S3150800BB400A4600259A4221D104F5177504F51B7794
S3150800BB507B1B002B06DD03F5177323442A460026B4
S3150800BB609A4216D1D4F8242204F1240303EB820E58
S3150800BB70734511D1002388422ED1C4F834320023EC
S3150800BB80AF422DD1C4F83C32BDE8F88342F8045BD5
S3150800BB90D8E742F8046BE3E753F804CBBCF1000F8F
S3150800BBA0E6D0DCF8048098F80C6098F8042036B1E2
S3150800BBB004EB8209D9F840620136C9F84062D8F820
S3150800BBC0146036B104EB8202D2F85C620136C2F820
S3150800BBD05C62DCF800C0E1E751F8042B1344CAE7BD
S3150800BBE055F8042B1344CBE72DE9F0410446FFF73B
S3150800BBF0E9F923461F4A43F80C2B00211822184658
S3150800BC000FF0C4FFFFF702FA1B4BE3601B4BC4F8A7
S3150800BC1028321B4B1B4F0025C4E98C35C4E98E35E9
S3150800BC204FF0100804F5107342462946C4F824520A
S3150800BC3084F82C5218460FF0A9FF042604F517734A
S3150800BC40C4E99470C4F858624246294618460FF06B
S3150800BC509DFF0D4BC4F87462C4E99E340B4BC4E9CE
S3150800BC60A0340B4BC4E99B70C4E9A2342046BDE856
S3150800BC70F08100BF2C1D0208B41C02086C1A0208C9
S3150800BC80CC1C0208DC1C0208F01C0208041D020871
S3150800BC90181D02082DE9F047D1F8004206460D4660
S3150800BCA0904644F31D040F4684B9D5F80042376020
S3150800BCB005EB8404BC4206D03A4641462846FFF7BF
S3150800BCC0E5FE00B134603046BDE8F0874FEA540916
S3150800BCD007EB890A424651462846FFF7E3FE28B194
S3150800BCE0013C0AF10407A4EB0904DDE74C46DBE74F
S3150800BCF02DE9F84FD1F80052002301EB850A0746D3
S3150800BD000C4690460360037145F31D050E464DB972
S3150800BD10B24519D1D4F800220123802A3B711FD1DC
S3150800BD200FF0E4FE4FEA550B06EB8B0942464946EF
S3150800BD302046FFF7C3FE28B1013D09F10406A5EB2D
S3150800BD400B05E4E75D46E2E7324641462046FFF743
S3150800BD50B5FE0028DED13D713E603846BDE8F88F55
S3150800BD6004EB8203B34202F101004FF0000107D150
S3150800BD70D8F800303360C8F80010C4F80002EBE7C2
S3150800BD8053F804CC44F822C043F8041C1D1FC4F819
S3150800BD900002B54204D141463046FFF71AFEDBE7FA
S3150800BDA0043D2946281DFFF714FEF2E738B5044678
S3150800BDB0006808B9204638BD05680821FFF794FBD6
S3150800BDC02846F6E773B500F1240605460A6801A871
S3150800BDD00C463146FFF75EFFD5F82432019806EB8C
S3150800BDE08303984214D02146FFF728FC019C236858
S3150800BDF073B9D5F8243206EB83060434A64209D172
S3150800BE00301FFFF7D3FFD5F82432013BC5F824329B
S3150800BE1002B070BD2146201FFFF7DBFDEDE77FB5B9
S3150800BE2000F1240605460A680C4668463146FFF7BF
S3150800BE3031FFD5F82432009806EB83039842214651
S3150800BE4003D0FFF729FC04B070BD01A8FFF719FC61
S3150800BE5002A801AA3146FFF74BFF01A8FFF7A6FF84
S3150800BE60F1E7000070B505460A4B45F8243BD0F8C3
S3150800BE702462044646B904F10C00FFF76DFD20461E
S3150800BE80FFF797F8204670BD2846FFF78FFF013E5B
S3150800BE900435EFE72C1D020810B50446FFF7E2FF4C
S3150800BEA020464FF42471FFF71FFB204610BDB0F95A
S3150800BEB00400704700207047002070470368026935
S3150800BEC05B6803EB5203B3FBF2F070470368426901
S3150800BED05B6803EB5203B3FBF2F0704790F844300B
S3150800BEE0032B0BD1B1F57A7F08D8B0F8BC308B425A
S3150800BEF028BF0B46A0F8BE300120704700207047C7
S3150800BF004369B1F57A7F28BF4FF47A7101835943A3
S3150800BF104FF47A73B1FBF3F1C0F8B41001207047FF
S3150800BF2040687047002070470079704700207047C6
S3150800BF30B0F9040070478180012070474068704757
S3150800BF4041600120704711B90161012070470368FB
S3150800BF505B68B1EB430F05D803EB5103B3FBF1F371
S3150800BF600361F2E70020704721B94161C0F8B410B7
S3150800BF700120704703685B68B1EB430F0DD8028B4D
S3150800BF8003EB5103B3FBF1F3436153434FF47A7266
S3150800BF90B3FBF2F3C0F8B430EAE700207047034673
S3150800BFA0D0F8080128B11B68D3F8A401B0FA80F0CC
S3150800BFB0400970474068FFF781BF4068FFF7A0BF98
S3150800BFC04068FFF7ECBF4368188B70474068FFF777
S3150800BFD07DBF4068FFF7C8BF4068FFF7B4BF406839
S3150800BFE0FFF77CBF90F84400012802D0031F58428F
S3150800BFF05841704702680A4902F12403C31A5B11C3
S3150800C0004B4302EB83024FF4FA6312695343A3F5D9
S3150800C0100C43A03B5200B3FBF2F3A0F8BC307047C8
S3150800C020398EE338036810B51C680A2242F20F738A
S3150800C03002FB043242F21071B2FBF1F2C0F8DC20C6
S3150800C040642202FB0433B3FBF1F3C0F8EC30C0F80A
S3150800C050FC30C0F80C3110BD406808F009B94068DA
S3150800C06008F000B9037B10B50BB1C1F57A71036806
S3150800C070826803F12404001B064C4011604303EB5D
S3150800C08080031B6959434FF47A73B1FBF3F11160CE
S3150800C09010BD00BF398EE33802680A4902F124034D
S3150800C0A0C31A5B114B4302EB8302017B1369826857
S3150800C0B0106801B1181A4FF47A725043B0FBF3F0C6
S3150800C0C080B27047398EE3384068FFF7E5BF002332
S3150800C0D0C0E93033C0E93233C0E93433012380F88C
S3150800C0E0B930704738B50025C0E94655FFF7EFFF68
S3150800C0F004462946E830FFF731F9294604F1F800E5
S3150800C100BDE83840FFF72AB9D0F8C4308B4210B5DD
S3150800C11031DDC91A90F84430022B32D0A3F1050C50
S3150800C120DCF1000343EB0C030029D4BF00240124EF
S3150800C130B3EBD17F0CBF01FB01F200229C426FF4E6
S3150800C1401C7422440CBF49430021002AD0F8D03081
S3150800C15019DA134423EAE373C0F8D0306FF41C737A
S3150800C16019440029D0F8D43015DA0B4423EAE373CE
S3150800C170C0F8D43010BDD0F8C8308B42C9DB0021D6
S3150800C180C8E70123D0E76FF00044E41A9442D4BF0D
S3150800C1901B199B18E0E76FF00042D21A8A42D4BFF7
S3150800C1A09B185B18E4E7D0E934321A4403685B69E4
S3150800C1B040F271214B439A42D4BF002001207047B8
S3150800C1C0426922B9C0F81C2180F8B8207047D0F817
S3150800C1D01C3101339A4297BF0023C0F81C31C0F8BE
S3150800C1E01C3180F8B830D0F81C21D0F8B4309A4207
S3150800C1F024BF012380F8B83070472DE9F041D0F804
S3150800C2001841066990F8B8300134B44228BF0024B2
S3150800C21005468846C0F81841002B33D1FFF7E2FEE1
S3150800C220B5F97830024658B358423EB3002BB8BF2A
S3150800C2305B429FB2EB6D7B43B3FBF8F14FF47A7325
S3150800C2407143B1FBF3F1731E9942A8BF1946B5F9BC
S3150800C2505430BB42A8BF3B4602B15B428C42A5BFE5
S3150800C260641A761AC1EB4404A6EB4404B5BF5C43D2
S3150800C2705C4394FBF1F494FBF6F42044BDE8F081AA
S3150800C2801846D2E70020F9E791F8B83070B51BB127
S3150800C29000230360436070BD91F84460CC6DB1F82B
S3150800C2A0BC30022E4FEA440514D0052E12D04FF6A4
S3150800C2B01841A3F57A7312FB01F153434FF47A72CE
S3150800C2C0640891FBF5F193FBF2F30160534393FB8A
S3150800C2D0F4F3DFE75A4300214FF47A73016092FBC7
S3150800C2E0F3F25A4392FBF5F24260D4E7F7B50368D6
S3150800C2F00E460446014668469D69FFF7C5FF019844
S3150800C300009BB042A8BF304631469E42D4E931620E
S3150800C310B8BF1946831B002B43F6FF77B8BF5B42AD
S3150800C32005FB0373002BB8BFDB1906EBA3368B1A84
S3150800C3308642D4BFC4F8C460C4F8C400002B43F6D0
S3150800C340FF70B8BF5B4205FB0303002BB8BF1B1881
S3150800C350A2EBA3328A42ACBFC4F8C820C4F8C810FE
S3150800C36003B0F0BD2DE9F04F0446164685B0894660
S3150800C3703146FFF725FFFFF740FF2368D3E9007230
S3150800C380054620460A23B2FBF3F8FFF72BFE236A7D
S3150800C390A26BD4F82CC041F2883102FB08F203FBE9
S3150800C3A008F393FBF1F392FBF1F1021E0292E26DA0
S3150800C3B014BFB3464FF0000B4FF47A706A4392FBF2
S3150800C3C0F0F25A440392D4F8CC20A5EB0900514365
S3150800C3D048BFFF3194F8B8200192434303EB212369
S3150800C3E0A9EB050AD4F8C010C4F8CC30DAB940F67F
S3150800C3F0B8324FF00A0EB7FBFEF74745A8BF4746C7
S3150800C40002FB08F20CFB07F741F2883C97FBFCF7A6
S3150800C41000FB07175042874203DBBA42A8BF3A46D9
S3150800C4201046C4F8C000D4F8C02092FBF8F7039A67
S3150800C43013441F444FF47A735F4397FBF6F79F4202
S3150800C44066DD4FEADA7394F8B92002B90BB1C4F87D
S3150800C450C01084F8B93033B12046FFF7C3FD002871
S3150800C46060D04FEADA7394F8BA80B8F1000F04D0B6
S3150800C470019A002A5CD183F00108B4F8BC309F42C7
S3150800C480A8BF1F464146204627EAE777FFF7E7FD9C
S3150800C490B9B22046FFF7E6FD94F8BA303BB14946F3
S3150800C4A02046FFF731FE32462946FFF71FFFB8F14F
S3150800C4B0000F27D0E36D7E4303FB05F14FF47A7333
S3150800C4C091FBF3F896FBF3F64FF4FA6391FBF3F15D
S3150800C4D0029BA6EB0B0604F1E80004F1F80553B33A
S3150800C4E001F5FA718E42D4BF00210121A8F1FA089C
S3150800C4F0FEF73AFFB6EB480FB4BF012100212846E4
S3150800C500FEF732FF012384F8BA3005B0BDE8F08F94
S3150800C510002F05DABAF1000FD4BF0023012392E7F2
S3150800C520002390E7BAF1000FD4BF002301239AE74E
S3150800C5304FF00008A1E7A1F5FA718E42ACBF0021C1
S3150800C540012108F1FA08FEF70FFFB6EB480FCCBF3A
S3150800C55001210021D3E72DE9F0471746FFF730FE02
S3150800C560B0F9786005460C461EB190F8B86086F0BA
S3150800C57001062846FFF736FD95F8BA808146B8F1D8
S3150800C580000F03D095F8B88088F001084E4514BF0F
S3150800C590B5F8BCA04FF0000A41462846FFF75FFDF4
S3150800C5A028465146FFF75EFD2846FFF790FDB8F18D
S3150800C5B0000F2BD04E4514BF3B460023B9F1000FA0
S3150800C5C008BF0027A3EB07034FF47A7202FB03F3B5
S3150800C5D0EA6D93FBF2F303EBD3764FEA66064FEA6E
S3150800C5E0430305F1E80005F1F80714D0323BA342EE
S3150800C5F0D4BF00210121FEF7B7FE06F13201A142A0
S3150800C600ACBF002101213846FEF7AEFE012385F8AE
S3150800C610BA30BDE8F0873233A342ACBF002101210E
S3150800C620FEF7A2FEA6F13201A142D4BF00210121E4
S3150800C630E9E7000070B5FFF7C3FD036804465D68C7
S3150800C640FFF72AFD06462046FFF706FDB4F8BE208A
S3150800C650F0B1104BB3FBF5F3F51AAA4203DB9D19AB
S3150800C6609542A8BF154694F8BA1019B194F8B810AF
S3150800C67081F001012046FFF7F2FCA9B22046FFF738
S3150800C680F1FC2046FFF72EFD012384F8BA3070BD71
S3150800C6901546E8E740420F00F8B5A1F5006140F6F7
S3150800C6A08D154D4348BF05F2FF7504461646ED1233
S3150800C6B0FFF798FC00283CD06B421BB205F6CA016E
S3150800C6C0A4F8903041F29413994204F1D80794BF24
S3150800C6D0002101213846FEF747FE1EB901213846DA
S3150800C6E0FEF73CFE94F870602EBB00212046FFF74B
S3150800C6F0B6FC002384F8BA3094F84430032B00F0D3
S3150800C70086804FF4FA712046FFF7ACFC2046FFF707
S3150800C710E9FC002DB8BF6D42182D77DCD4F8D83067
S3150800C720002B73D004F584700121BDE8F840FEF7AC
S3150800C7301BBE2BB2C2E7D4F80821002AD5D194F83B
S3150800C7404430591E01290AD9191F012945D82368D9
S3150800C7502946B3F990212046FFF7FDFE06E0236837
S3150800C7602946B3F990212046FFF7FCFD2046FFF73E
S3150800C7701AFD50B1D4E934320A2192FBF1F0834212
S3150800C78036DA062384F8A0300026D4F8D8301BB948
S3150800C790032284F8A0201E46D4F8E8301BB90122EB
S3150800C7A084F8A0201E46D4F8F83043BB022384F848
S3150800C7B0A030002104F58470FEF7D0FD94F84430CB
S3150800C7C0032B0CBFB4F8BE30B4F97830C4F8A830DF
S3150800C7D0B4F89030A4F8B03013E0032B03D1204608
S3150800C7E0FFF728FFC2E7072384F8A0301646BDE7FF
S3150800C7F093FBF1F39342CCBF05230423C2E7002E33
S3150800C800D7D0D4F80831002B7FF46FAFF8BDB4F851
S3150800C810BE1078E738B50446C4E90012A3609DF84F
S3150800C820103023734FF47A7323833B4BE36110462E
S3150800C830A3626363182240232262A36340F6B832D8
S3150800C840364BE2622364364A364B0025C4E9123475
S3150800C850C4E91625344B354A23656367344B84F897
S3150800C8604450C4E91924334AE266C4E91F34324AFB
S3150800C870324BA4F85450C4E9045584F87050A4F80F
S3150800C8807850C4E92134C4E925242D4B2D4AC4F82F
S3150800C8908C30C4F89C20C4F8AC302B4AA4F89050CD
S3150800C8A04FF48073A4F8B830284B84F8A050C4E934
S3150800C8B0292504F1D802C4E92F35C4E93925244BC2
S3150800C8C0C4F8E03004F1E802C4E93D2504F1F802B1
S3150800C8D0C4E93B53C4E93F53C4E93155C4E9335568
S3150800C8E0C4E93555A4F8B050C4F8B45084F8BA5021
S3150800C8F0C4F8DC50C4E94125C4E9435304F58473FC
S3150800C900C4E94535C4F81C5107F0FEFB60682946A2
S3150800C91007F0A8FC204638BD541D02085C1A020818
S3150800C920641C0208641D0208741D0208841D02089E
S3150800C930941D02086C1A0208B41D0208A41D0208F8
S3150800C940441D0208C41D0208D41D0208DE03F401B2
S3150800C950281C0208483070475830704764307047C2
S3150800C9608068704700207047806870478068704705
S3150800C970806870478068704780687047806870472D
S3150800C980806870478068704780687047806870471D
S3150800C9908068704780687047806870470B46114604
S3150800C9A08268934208D240684FF4907202FB0300F3
S3150800C9B0403003685B681847002070470B461146ED
S3150800C9C08268934208D240684FF4907202FB0300D3
S3150800C9D06C3003685B681847002070478368994283
S3150800C9E007B512D240684FF4907303FB010040303C
S3150800C9F003681B68984701238DF804009DF8040016
S3150800CA0040EA032003B05DF804FB0023F6E78368D9
S3150800CA10994207B519D240684FF4907303FB010099
S3150800CA208C3003681B6898470123ADF804008DF81D
S3150800CA300630BDF80430002063F30F00BDF8063059
S3150800CA4063F31F4003B05DF804FB0023EFE7836838
S3150800CA50994207B519D240684FF4907303FB010059
S3150800CA60AC3003681B6898470123ADF804008DF8BD
S3150800CA700630BDF80430002063F30F00BDF8063019
S3150800CA8063F31F4003B05DF804FB0023EFE78B68F0
S3150800CA909A4210B504460DD248684FF4907303FBCA
S3150800CAA00200A43003681B6898470123206023719D
S3150800CAB0204610BD0023FAE78368994207B512D2CB
S3150800CAC040684FF4907303FB01006C3003681B68E1
S3150800CAD0984701238DF804009DF8040040EA0320D6
S3150800CAE003B05DF804FB0023F6E78368994207B5AF
S3150800CAF012D240684FF4907303FB01009430036828
S3150800CB001B68984701238DF804009DF8040040EA45
S3150800CB10032003B05DF804FB0023F6E78368994217
S3150800CB2007B512D240684FF4907303FB01009C309E
S3150800CB3003681B68984701238DF804009DF80400D4
S3150800CB4040EA032003B05DF804FB0023F6E70B4632
S3150800CB5011468268934208D240684FF4907202FBED
S3150800CB600300843003685B681847002070478368B1
S3150800CB70994207B519D240684FF4907303FB010038
S3150800CB80843003681B6898470123ADF804008DF8C4
S3150800CB900630BDF80430002063F30F00BDF80630F8
S3150800CBA063F31F4003B05DF804FB0023EFE70B4671
S3150800CBB011468268934208D240684FF4907202FB8D
S3150800CBC003007C3003685B68184700207047836859
S3150800CBD0994207B519D240684FF4907303FB0100D8
S3150800CBE07C3003681B6898470123ADF804008DF86C
S3150800CBF00630BDF80430002063F30F00BDF8063098
S3150800CC0063F31F4003B05DF804FB0023EFE70B4610
S3150800CC1011468268934208D240684FF4907202FB2C
S3150800CC200300743003685B68184700207047836800
S3150800CC30994207B519D240684FF4907303FB010077
S3150800CC40743003681B6898470123ADF804008DF813
S3150800CC500630BDF80430002063F30F00BDF8063037
S3150800CC6063F31F4003B05DF804FB0023EFE70B46B0
S3150800CC7011468268934208D240684FF4907202FBCC
S3150800CC800300503003685B681847002070478368C4
S3150800CC90994207B519D240684FF4907303FB010017
S3150800CCA0503003681B6898470123ADF804008DF8D7
S3150800CCB00630BDF80430002063F30F00BDF80630D7
S3150800CCC063F31F4003B05DF804FB0023EFE70000A1
S3150800CCD0634A644B2DE9F3412431C0E90321624AD2
S3150800CCE0C0E90621614AC0E90921614AC0E90C2167
S3150800CCF0604AC0E90F21604AC0E912215F4AC0E9CB
S3150800CD0015215F4AC0E918215E4AC0E91B215E4A1F
S3150800CD10C0E900310123836043610362C362836310
S3150800CD2043640365C36583664367C0E91E21574AA2
S3150800CD30C0F88030C0E92121554AC0F88C30C0E9D6
S3150800CD402421544AC0F89830C0E927210446C0F87F
S3150800CD50A4300090082769464F488DF804700A26C3
S3150800CD6001F058F904F10C0369464C4800930C2568
S3150800CD708DF8046001F04EF904F118036946484835
S3150800CD8000938DF8045001F045F904F1240369462F
S3150800CD90444800938DF8046001F03CF904F130032F
S3150800CDA06946414800938DF8046001F033F9072677
S3150800CDB004F13C0369463D4800938DF8046001F090
S3150800CDC029F904F148036946394800934FF00908E0
S3150800CDD08DF8045001F01EF904F1540369463548EC
S3150800CDE000938DF8048001F015F904F16003694693
S3150800CDF0314800938DF8048001F00CF904F16C03B6
S3150800CE0069462E4800938DF8045001F003F904F1A1
S3150800CE10780369462A4800938DF8046001F0FAF809
S3150800CE2004F184036946274800938DF8047001F0DD
S3150800CE30F1F804F19003009369460D2322488DF812
S3150800CE40043001F0E7F804F19C0369461F48009393
S3150800CE508DF8045001F0DEF8204602B0BDE8F081F6
S3150800CE60F81D0208E41D02080C1E0208201E02080E
S3150800CE70341E0208481E02085C1E0208701E0208BC
S3150800CE80841E0208981E0208AC1E0208C01E02086C
S3150800CE90D41E0208E81E02080C3B0208A43C02083D
S3150800CEA09C3C0208DC3C0208B43C0208943B02089D
S3150800CEB0943C0208AC3C0208F43B0208C43B020856
S3150800CEC0CC3B02085C3C0208C43C0208CC3C020885
S3150800CED07047D0E9003201EB6200184713B51446D3
S3150800CEE08268914203464FF000000ED2084A5B68FA
S3150800CEF0CDE900204FF4907202FB01316846FFF736
S3150800CF00E8FF036821465B68984702B010BD00BF7A
S3150800CF1055C9000813B514468268914203464FF076
S3150800CF2000000ED2084A5B68CDE900204FF49072E3
S3150800CF3002FB01316846FFF7CCFF036821465B68B0
S3150800CF40984702B010BD00BF59C9000813B514466A
S3150800CF508268914203464FF000000ED2084A5B6889
S3150800CF60CDE900204FF4907202FB01316846FFF7C5
S3150800CF70B0FF036821465B68984702B010BD00BF42
S3150800CF805DC900088B689A4213B54FF00003044642
S3150800CF900FD20A48CDE900034B684FF4907101FBA4
S3150800CFA002316846FFF795FF03681B689847012317
S3150800CFB020602046237102B010BD00BF55C9000885
S3150800CFC08B689A4213B54FF0000304460FD20A48FD
S3150800CFD0CDE900034B684FF4907101FB02316846B6
S3150800CFE0FFF777FF03681B689847012320602046F0
S3150800CFF0237102B010BD00BF59C900088B689A4258
S3150800D00013B54FF0000304460FD20A48CDE90003D2
S3150800D0104B684FF4907101FB02316846FFF759FFE0
S3150800D02003681B689847012320602046237102B0D5
S3150800D03010BD00BF5DC9000800680B689842ACBF08
S3150800D04000200120704710B504460846636811465B
S3150800D0502278FDF781FF237A2BB122780123013A42
S3150800D06093405840C01A10BD2DE9F043D0E900643A
S3150800D07085B006EBC408039144F31C043546002C1E
S3150800D08006DCA84513D158F8040C05B0BDE8F083B2
S3150800D090671005EBC709494603A8FFF7CDFF20B976
S3150800D0A0E41B09F10805013CE9E73C46E7E7AE421F
S3150800D0B06868EAD0039B009355E90112034655F8C0
S3150800D0C0080CFEF726FAE0E773B50446084611464B
S3150800D0D0D0E9053203EBC20293421D4607D1036924
S3150800D0E0012B0CD800232046237102B070BD53F8DB
S3150800D0F0086B8E42F0D16B6823600123F3E7C268A0
S3150800D100156802EBC300A94250F8080CEADB814215
S3150800D110E8DC6846CDE90023FFF7A6FF2060ECE7C8
S3150800D12038B50D460446114628461A46FFF78BFFC2
S3150800D130294602462046FFF7C7FF204638BD41610B
S3150800D140704737B504460D4618300021FEF776FBC2
S3150800D15021692A460B7D89696846FFF7E1FF94F83D
S3150800D16060309DF8045004F1440063B985F001016C
S3150800D170FEF70DFA4DB1236800991B69204603B0E6
S3150800D180BDE8304018470021F2E703B030BD000083
S3150800D19013B50C4B0C4A0360C368CDE9002004465E
S3150800D1A06946D86806F0F9FC04F14400FEF718FA57
S3150800D1B004F11800FEF714FA2046FDF7FAFE204699
S3150800D1C002B010BDFC1E020813D2000810B50446B2
S3150800D1D0FFF7DEFF20466421FEF786F9204610BDDC
S3150800D1E010B590F8603004461BB1013B80F86030FA
S3150800D1F010BD03695B7B002BFAD001211830FEF7BE
S3150800D2001DFB94F82430002BF2D023691B69636157
S3150800D210EEE74068FFF795BF7FB5044615460E460C
S3150800D220FDF7D0FE184B23602B69AA7BA9686361BA
S3150800D230C4E903656B7B04F11800FEF719FBAA7BAA
S3150800D240696804F14400FEF7B1F92B7B84F8603075
S3150800D2500E4BE068D5E90712CDE90234019B21F0AF
S3150800D260004103F000430B430193009B22F0004268
S3150800D27003F000431343009301AA6B4602A905F085
S3150800D28010FE204604B070BDFC1E020813D200082A
S3150800D2907047036810B51B690446984730B104F116
S3150800D2A010000021BDE81040FEF758B810BD4068D0
S3150800D2B0FFF7EFBF00211030FEF750B8FFF7FABFAF
S3150800D2C010B5044601211030FEF74EF8236943B91C
S3150800D2D0236820465B6998472046BDE81040FFF75B
S3150800D2E0E9BF10BD7FB504460D461646FDF76AFE32
S3150800D2F0134B2360134BA36104F11003E361089BEE
S3150800D300E5601968099B1A680F4BCDE90234019B41
S3150800D31021F0004103F000430B430193009B22F0E8
S3150800D320004203F00043134300932846C4E9046609
S3150800D3306B4601AA02A905F0B4FD204604B070BDEB
S3150800D340181F0208281C0208AFD2000813B5084B9C
S3150800D350084A0360C368CDE9002004466946D868D0
S3150800D36006F01BFC2046FDF724FE204602B010BD41
S3150800D370181F0208AFD200080079704710B5034B92
S3150800D38003600446FEF74CFA204610BD481F020803
S3150800D39010B50446FFF7F2FF20464021FEF7A4F831
S3150800D3A0204610BD10B5034B03600446FEF738FA55
S3150800D3B0204610BD601F020810B50446FFF7F2FFAD
S3150800D3C020464021FEF790F8204610BD10B50446C9
S3150800D3D0806B03681B689847B4F93C108142A8BF64
S3150800D3E0002104F10C00B8BF0121BDE81040FEF78A
S3150800D3F025BA10B50446806B03681B689847B4F9CC
S3150800D4003C108142D8BF002104F10C00C8BF01219D
S3150800D410BDE81040FEF712BA2DE9F0410546402056
S3150800D42035F9048B0E461746FEF752F82946044688
S3150800D430FEF7E6F9054B2360A763A4F83C8021466E
S3150800D44006F10C00BDE8F041FDF7F0BD481F0208E3
S3150800D4502DE9F0410546402035F9048B0E4617465E
S3150800D460FEF736F829460446FEF7CAF9054B236047
S3150800D470A763A4F83C80214606F10C00BDE8F041FC
S3150800D480FDF7D4BD601F02082DE9F041054640208E
S3150800D49035F9048B0E461746FEF71AF82946044650
S3150800D4A0FEF7AEF9054B2360A763A4F83C80214636
S3150800D4B006F10C00BDE8F041FDF7B8BD601F020893
S3150800D4C038B50A4604460D4601460748FFF7A4FF45
S3150800D4D02A4621460548FFF79FFF2A462146044863
S3150800D4E0BDE83840FFF7B4BF901F0208A01F020826
S3150800D4F0801F02080A4601460148FFF7C5BF00BF5C
S3150800D500701F020810B5034B03600446FDF751FD72
S3150800D510204610BDB81F020810B50446FFF7F2FFF3
S3150800D52020463021FDF7E0FF204610BD70B50446C1
S3150800D530C06803681B689847014604F11400FDF7A4
S3150800D54013FF6169B1FA81F1490904F12400FDF775
S3150800D55078FE94F828306BB1246923682046D3E90D
S3150800D5600035984780F001012B462046C9B2BDE830
S3150800D5707040184770BD10B5002104461430FDF7F9
S3150800D580F3FE04F124000021BDE81040FDF759BE62
S3150800D590FFF7F1BFF8B5044616461D460F46FDF7D8
S3150800D5A011FD0A4B23600A4BE36104F114030022C0
S3150800D5B02362084B84F82C20C4E90376C4E90525C0
S3150800D5C0636284F828202046F8BD00BFB81F020809
S3150800D5D0281C0208381F020890F82C100C3081F01D
S3150800D5E00101FDF7D4BF000010B5054B044640F80D
S3150800D5F00C3BFDF7F5FF2046FDF7DBFC204610BD8A
S3150800D600D01F020810B50446FFF7EEFF204630216A
S3150800D610FDF76AFF204610BD13B50446FDF7D2FC98
S3150800D62020460C4B40F80C3B0B490322FDF7BEFF86
S3150800D6300A4BA362002304F1280284F82C306946B9
S3150800D640074800928DF8043000F0E4FC204602B04A
S3150800D65010BD00BFD01F0208B23402086C1A0208B7
S3150800D660043A020880887047C3888B4205D8038924
S3150800D6708B4202D381800120704700207047F8B59D
S3150800D6800446C06803681B68984704F11807267D96
S3150800D690207505463846FDF7F4FEA3693BB9012E09
S3150800D6A015D0A5B13846BDE8F840FDF7D5BE012D21
S3150800D6B00DD066B125692B682846D3E90036984708
S3150800D6C080F00101C9B22846B0470023A361F8BD1E
S3150800D6D010B5034B03600446FDF76BFC204610BDEE
S3150800D6E0F81F020810B50446FFF7F2FF204620216E
S3150800D6F0FDF7FAFE204610BDF8B504461D460F464E
S3150800D7001646FDF75FFC054B23600023C4E9037644
S3150800D710C4E9063523752046F8BD00BFF81F020880
S3150800D7200220704704207047064B10B518680DF0A4
S3150800D7303EFDD0F82033BDE810401B6800F5487060
S3150800D740184700BF4023002001207047086808B525
S3150800D75003689B689847800008BD086808B5036891
S3150800D7609B689847400008BD086803689B68184787
S3150800D770086808B503689B689847800008BD08686C
S3150800D78008B503689B689847400008BD08680368A1
S3150800D7909B681847086803689B6818470420704701
S3150800D7A001207047012070470220704707B5054BD6
S3150800D7B0027A011D53F8223001A8984703B05DF894
S3150800D7C004FB00BFB020020810B5054B04461868D4
S3150800D7D00DF0EDFC2146BDE8104000F0EDBC00BFA1
S3150800D7E04023002010B50468FFF79EFF0444A07884
S3150800D7F010BD73B50446086816680D46FFF7F2FFB4
S3150800D80018B92071204602B070BD6A68336812687C
S3150800D8101B683146684698479DF8043013B1009B4B
S3150800D820236001232371EDE773B50446086816687B
S3150800D8300D46FFF7D7FF18B92071204602B070BD14
S3150800D8406A68336811681B683046984710F47F0F7A
S3150800D8500190C0F307431EBFBDF9043023600123BE
S3150800D8602371EAE773B50446086816680D46FFF79C
S3150800D870B9FF18B92071204602B070BD6A683368CE
S3150800D88011681B683046984710F47F4FADF80400BE
S3150800D890C0F307231EBF9DF90430236001232371BB
S3150800D8A0E9E773B50446086816680D46FFF79AFF58
S3150800D8B018B92071204602B070BD6A6833681268CC
S3150800D8C01B683146684698479DF8043013B1009B9B
S3150800D8D0236001232371EDE773B5044608681668CB
S3150800D8E00D46FFF77FFF18B92071204602B070BDBC
S3150800D8F06A68336811681B683046984710F47F0FCA
S3150800D9000190C0F307431EBFBDF80430236001230E
S3150800D9102371EAE773B50446086816680D46FFF7EB
S3150800D92061FF18B92071204602B070BD6A68336875
S3150800D93011681B683046984710F47F4FADF804000D
S3150800D940C0F307231EBF9DF804302360012323710B
S3150800D950E9E773B50446086816680D46FFF742FFFF
S3150800D96018B92071204602B070BD6A68336811681C
S3150800D9701B683046984710F47F4FADF80400C0F393
S3150800D98007231EBF9DF80430236001232371E9E7AE
S3150800D99070B50446086816680D46FFF723FF10B9E8
S3150800D9A02071204670BD6B681B683BB933683046EA
S3150800D9B01B689847012320602371F2E70023FBE7E1
S3150800D9C070B50446086816680D46FFF70BFF10B9D0
S3150800D9D02071204670BD6B681B683BB933683046BA
S3150800D9E01B689847012320602371F2E70023FBE7B1
S3150800D9F070B50446086816680D46FFF7F3FE10B9B9
S3150800DA002071204670BD6B681B683BB93368304689
S3150800DA101B689847012320602371F2E70023FBE780
S3150800DA2070B50446086816680D46FFF7DBFE10B9A0
S3150800DA302071204670BD6B681B683BB93368304659
S3150800DA401B689847012320602371F2E70023FBE750
S3150800DA5070B50446086816680D46FFF7C3FE10B988
S3150800DA602071204670BD6B681B683BB93368304629
S3150800DA701B689847012320602371F2E70023FBE720
S3150800DA8070B50446086816680D46FFF7ABFE10B970
S3150800DA902071204670BD6B681B683BB933683046F9
S3150800DAA01B689847012320602371F2E70023FBE7F0
S3150800DAB070B50446086816680D46FFF793FE10B958
S3150800DAC02071204670BD6B681B683BB933683046C9
S3150800DAD01B689847012320602371F2E70023FBE7C0
S3150800DAE073B50446086816680D46FFF77BFE18B935
S3150800DAF02071204602B070BD6A68336812681B68D8
S3150800DB003146684698479DF8043013B1009B236058
S3150800DB1001232371EDE773B50446086816680D46B8
S3150800DB20FFF760FE18B92071204602B070BD6A681A
S3150800DB30336811681B683046984710F47F0F0190C8
S3150800DB40C0F307431EBFBDF90430236001232371C8
S3150800DB50EAE773B50446086816680D46FFF742FEFD
S3150800DB6018B92071204602B070BD6A68336811681A
S3150800DB701B683046984710F47F4FADF80400C0F391
S3150800DB8007231EBF9DF90430236001232371E9E7AB
S3150800DB9073B50446086816680D46FFF723FE18B9DC
S3150800DBA02071204602B070BD6A68336812681B6827
S3150800DBB03146684698479DF8043013B1009B2360A8
S3150800DBC001232371EDE773B50446086816680D4608
S3150800DBD0FFF708FE18B92071204602B070BD6A68C2
S3150800DBE0336811681B683046984710F47F0F019018
S3150800DBF0C0F307431EBFBDF8043023600123237119
S3150800DC00EAE773B50446086816680D46FFF7EAFDA5
S3150800DC1018B92071204602B070BD6A683368116869
S3150800DC201B683046984710F47F4FADF80400C0F3E0
S3150800DC3007231EBF9DF80430236001232371E9E7FB
S3150800DC4073B50446086816680D46FFF7CBFD18B984
S3150800DC502071204602B070BD6A68336811681B6877
S3150800DC603046984710F47F4FADF80400C0F30723F9
S3150800DC701EBF9DF80430236001232371E9E770B5C0
S3150800DC800446086816680D46FFF7ACFD10B9207102
S3150800DC90204670BD6B681B683BB9336830461B6805
S3150800DCA09847012320602371F2E70023FBE770B54C
S3150800DCB00446086816680D46FFF794FD10B92071EA
S3150800DCC0204670BD6B681B683BB9336830461B68D5
S3150800DCD09847012320602371F2E70023FBE770B51C
S3150800DCE00446086816680D46FFF77CFD10B92071D2
S3150800DCF0204670BD6B681B683BB9336830461B68A5
S3150800DD009847012320602371F2E70023FBE770B5EB
S3150800DD100446086816680D46FFF764FD10B92071B9
S3150800DD20204670BD6B681B683BB9336830461B6874
S3150800DD309847012320602371F2E70023FBE770B5BB
S3150800DD400446086816680D46FFF74CFD10B92071A1
S3150800DD50204670BD6B681B683BB9336830461B6844
S3150800DD609847012320602371F2E70023FBE770B58B
S3150800DD700446086816680D46FFF734FD10B9207189
S3150800DD80204670BD6B681B683BB9336830461B6814
S3150800DD909847012320602371F2E70023FBE770B55B
S3150800DDA00446086816680D46FFF71CFD10B9207171
S3150800DDB0204670BD6B681B683BB9336830461B68E4
S3150800DDC09847012320602371F2E70023FBE710B58B
S3150800DDD00468FFF7A9FC0444207910BD70B5044611
S3150800DDE000680D68FFF7F3FF68B163681B6853B9ED
S3150800DDF0A36819682B68003928465B68BDE8704037
S3150800DE0018BF01211847002070BD70B50446006888
S3150800DE100D68FFF7DCFF50B163681B683BB9A26861
S3150800DE202B6811785B682846BDE8704018470020C3
S3150800DE3070BD70B5044600680D68FFF7C8FF50B19D
S3150800DE4063681B683BB9A2682B6811885B6828461B
S3150800DE50BDE870401847002070BD70B504460068DC
S3150800DE600D68FFF7B4FF50B163681B683BB9A26839
S3150800DE702B6811685B682846BDE870401847002083
S3150800DE8070BD70B5044600680D68FFF7A0FF58B16D
S3150800DE9063681B6843B9A2682B6892F900105B682F
S3150800DEA02846BDE870401847002070BD70B5044686
S3150800DEB000680D68FFF78BFF58B163681B6843B9A4
S3150800DEC0A2682B68B2F900105B682846BDE8704066
S3150800DED01847002070BD70B5044600680D68FFF746
S3150800DEE076FF50B163681B683BB9A2682B68116856
S3150800DEF05B682846BDE870401847002070BD70B5BD
S3150800DF00044600680D68FFF762FF60B1A3686168A0
S3150800DF101A682B6809685B68003A284618BF012208
S3150800DF20BDE87040184770BD70B5044600680D68B6
S3150800DF30FFF74DFF48B1D4E901122B6812785B68E8
S3150800DF4009682846BDE87040184770BD70B5044694
S3150800DF5000680D68FFF73BFF48B1D4E901122B684A
S3150800DF6012885B6809682846BDE87040184770BD86
S3150800DF7070B5044600680D68FFF729FF48B1D4E973
S3150800DF8001122B6812685B6809682846BDE870406C
S3150800DF90184770BD70B5044600680D68FFF717FF8F
S3150800DFA050B1D4E901122B6892F900205B68096820
S3150800DFB02846BDE87040184770BD70B5044600682D
S3150800DFC00D68FFF704FF50B1D4E901122B68B2F9C6
S3150800DFD000205B6809682846BDE87040184770BD90
S3150800DFE070B5044600680D68FFF7F1FE48B1D4E93C
S3150800DFF001122B6812685B6809682846BDE87040FC
S3150800E000184770BD03689B790BB1FFF7E0BE184649
S3150800E0107047000073B5064610200D46FDF758FAFE
S3150800E0200346044695E8030043F8046B83E80300B7
S3150800E0300023A381E381084B18680DF0B8F801A9FD
S3150800E040019400F049FA019810B11021FDF74CFA35
S3150800E050204602B070BD00BF402300201FB501ABAB
S3150800E060CDE9012103930A7A044B53F822300A1D9D
S3150800E07002A904469847204604B010BD7820020835
S3150800E0801FB501ABCDE9012103930A7A044B53F876
S3150800E09022300A1D02A904469847204604B010BD3E
S3150800E0A04020020830B587B001ABCDE90432027AC8
S3150800E0B00A4B01910390011D53F82230044603A828
S3150800E0C09847054638B12046FFF79CFF18B1A38943
S3150800E0D001339BB2A381284607B030BD0820020849
S3150800E0E010B5044600F54A7008F038FCD4F8F43741
S3150800E0F020469847C4F8F40710BD0079704707F022
S3150800E100A1BB0B681968136808881B681B889842A6
S3150800E1102CBF00200120704700F10C03D0F81C0327
S3150800E12070B503EB800440F31D0040B99C4205D04E
S3150800E130186803681B888B4288BF002070BD420898
S3150800E14003EB820553F82260366836888E423DBF57
S3150800E15000F1FF302B1D801A1046E6E710B5098836
S3150800E1600446FFF7D9FF014628B104F54A70BDE811
S3150800E170104008F0A5BF10BDB0F8FC27B0F8FE3770
S3150800E18092B29BB29A420AD1B0F80028B0F8023887
S3150800E19092B29BB29A4202D190F8040870470120C5
S3150800E1A0704710B504462046FFF7E6FF00B910BDD4
S3150800E1B02046FFF795FFF6E700F54A7008F080BF9E
S3150800E1C0D0F81C3370B500F10C05044605EB830640
S3150800E1D0B54200D170BD55F8041B2046FFF7ECFF89
S3150800E1E0F6E710B5044600F54A7008F0A9FF40B1F5
S3150800E1F0B4F8003801339BB2A4F80038012384F838
S3150800E200043810BD10B509880446FFF785FF014696
S3150800E21020B12046BDE81040FFF7E3BF10BD00F16E
S3150800E2200C03C0F8F837B0F8FC3701339BB2A0F8F6
S3150800E230FC37012380F804387047D0F81C3370B5D2
S3150800E24000F10C04054604EB8306A64204D12846D1
S3150800E250BDE87040FFF7E3BF2068FFF7D3FE20B1A3
S3150800E2602268938901339BB293810434EDE710B594
S3150800E270044600F54A7008F0A8FFB4F800380133E0
S3150800E2809BB2A4F80038012384F8043810BD0000B6
S3150800E290EFF31083DB4303F0010372B6B0F8FC27F3
S3150800E2A0B0F8FE1792B289B28A420BD1B0F80028AC
S3150800E2B0B0F8021892B289B28A420AD109487BB1EB
S3150800E2C062B67047A0F8FE27012280F8042806489F
S3150800E2D0F5E7A0F80228012280F804280348EEE7AB
S3150800E2E072B67047F1E2000849E3000875E30008D2
S3150800E2F0FFF7CEBFD0F83823104B9A4210B518D185
S3150800E300D0F81C2300F10C0303EB8203D0F8F8279E
S3150800E310934210D0111DC0F8F81711688A89CC8964
S3150800E32092B2A4B2A242F1D0CA8100F54A7008F0AE
S3150800E33007FF034800E0034810BD00BFFFE00008E0
S3150800E34049E3000875E30008FFF7D4BF08B5D0F81D
S3150800E3503823054B9A4205D100F54A7008F030FF7C
S3150800E360024808BD0248FCE7FFE000089DE30008F4
S3150800E37075E30008FFF7EABFD0F83823044B9A4242
S3150800E38003BF002380F8043802480348704700BFDB
S3150800E390FFE00008F1E200089DE30008FFF7ECBF84
S3150800E3A070B50446FCF70EFE124B2360124BC4F8F8
S3150800E3B020330025012304F54A76104984F82433CE
S3150800E3C0C4F81C53304608F003FF0D4BA4F8FC575D
S3150800E3D0C4F8F437A4F8FE57C4F8F857A4F8005858
S3150800E3E084F80458A4F80258304608F051FE20462E
S3150800E3F070BD00BF002102086C1A02080420002024
S3150800E400F1E200082DE9F74FD1F8105300238046B2
S3150800E4100E4691460360037101EB850B45F31D0417
S3150800E4200F4644B9BB4518D10123C42D88F80430DA
S3150800E43036D10DF05BFB4FEA540A07EB8A014A46D0
S3150800E44030460191FFF75DFE019920B1013C0F1D91
S3150800E450A4EB0A04E5E75446E3E73A46494630465C
S3150800E460FFF74FFE20B30123C42D88F80430E0D00F
S3150800E4705BF8043C46F8253001354BF8044CABF103
S3150800E480040AC6F81053574518D1D9F80030C9F808
S3150800E490004038683B6058B11021FDF725F807E0C1
S3150800E4A0D9F800303B600135C9F80040C6F810536A
S3150800E4B04046C8F8007003B0BDE8F08F5AF8043D2E
S3150800E4C0CAF80040DAF80400CAF804300028DAD09E
S3150800E4D01021FDF709F8D6E707B50A4600F10C0141
S3150800E4E06846FFF78FFF03B05DF804FB70B50D4B68
S3150800E4F00360044600F54A7008F034FAD4F81C5351
