S02B0000453A5C7265706F735C63735C72656C656173655C6C636D335C6C636D335C6170705C6C636D332D62D4
S315080090000020002025920008299200082B920008CB
S315080090104192000843920008599200080000000097
S31508009020FFFFFFFF00000000000000006F9200082D
S3150800903071920008000000007392000875920008FB
S31508009040553001086530010875300108853001087A
S3150800905095300108A5300108B5300108C53001086A
S31508009060D5300108E5300108F53001080531010859
S315080090701531010825310108353101084531010846
S315080090805531010865310108753101088531010836
S3150800909095310108A5310108B5310108C531010826
S315080090A0D5310108E5310108F53101080532010815
S315080090B01532010825320108353201084532010802
S315080090C055320108653201087532010885320108F2
S315080090D095320108A5320108B5320108C5320108E2
S315080090E0D5320108E5320108F532010805330108D1
S315080090F015330108253301083533010845330108BE
S3150800910000000000000000000000000055330108C0
S31508009110653301087533010885330108953301085D
S31508009120A5330108B5330108C5330108D53301084D
S31508009130E5330108F53301080000000000000000CF
S31508009140053401081534010825340108000000001B
S315080091500000000000000000000000000000000001
S3150800916000000000000000003534010845340108FD
S31508009170553401080000000000000000000000004F
S31508009180000000006534010808B500F0C1F81D4D5F
S315080091901D4AAA420AD2D2E9001394680C32C91AA7
S315080091A09C42F6D9585843F8040BF9E7174A184C65
S315080091B00021A24208D252F8083B52F8040C984201
S315080091C0F7D943F8041BFAE7124C134D02F01BFAC1
S315080091D02D1BAD100026B54204DD54F8043B984714
S315080091E00136F8E70D4C0E4D2D1BAD100026B54285
S315080091F004DD54F8043B98470136F8E70FF0E8FC1D
S31508009200FEE700BF289400081C940008289400086C
S315080092103094000830940008309400083094000810
S315080092203C94000814480047FEE71EF0040F0CBFE4
S31508009230EFF30880EFF309807146104A1047FEE7FE
S31508009240FEE71EF0040F0CBFEFF30880EFF309806A
S3150800925071460B4A1047FEE71EF0040F0CBFEFF3EA
S315080092600880EFF309807146064A1047FEE7FEE7D5
S31508009270FEE7FEE770470000899100083F92000864
S31508009280579200086D9200081C4B1A6822F4502267
S315080092901A601A6842F480321A601A689103FCD57B
S315080092A0174A520102F18442012111604FF480628B
S315080092B05A60144A116821F0040111606FF07F4169
S315080092C05160116841F0010111600F4A5A6000228D
S315080092D0DA621A6842F080721A601A689201FCD53E
S315080092E00A4A122111605A6842F002025A605A6804
S315080092F002F00C02082AFAD1704700BF001002409B
S315080093002410020010E000E00004110000200240D2
S3150800931038B53C4C2368002243F0010323606260A1
S31508009320236823F0847323F480332360E26223687E
S3150800933023F480232360A260E36843F00103E3601B
S31508009340E36823F00103E360A36943F00103A36123
S31508009350FFF79AFF2C4B2D4A9A6062B62C4ADA60C0
S31508009360A36A43F08053A362A36A23F08053A362DF
S31508009370636943F080536361E36A23F4F873E36235
S31508009380E36A43F48073E362BFF34F8F214DAB6802
S3150800939023F04053AB60AB6842F2107043F0805341
S315080093A0AB6007F07DF8AB6843F00043AB60AB6891
S315080093B0002BFCDB382007F073F8AB68164843F03F
S315080093C00103AB6008F082FEC1232B630023AA6861
S315080093D042F00402AA602A685207FCD52A6CB2F544
S315080093E0946F00D30133642BF1D1A36A43F0805301
S315080093F0A362A36A23F08053A362636923F08053B0
S31508009400636138BD0010024000ED00E000900008DE
S311080094100003FA050000005008A6010839
S3150800941C48B40108002000205823002058230020B7
S3150800942CFC4E002079B60008B1EA0008DDEA00080F
S3150800943C0020704700797047017101207047007948
S3150800944C7047017101207047024A0260002242608F
S3150800945C704700BFE9AC000838B5CB6804465868B5
S3150800946C0D461830012108F0D9FE1423C5E91A3324
S3150800947C024B236000236360204638BD59A60008BA
S3150800948C012804D0022814BF00201020704702209F
S3150800949C704713B50446016802220DF106000FF059
S315080094AC57FD2368BDF806000233236002B010BDD1
S315080094BC08B5054B984201D90FF0A3FB2C2358434A
S315080094CCBDE8084002F0BCB82EBAE80213B504464B
S315080094DC016801220DF107000FF03AFD23689DF88B
S315080094EC07000133236002B010BDF0B503460C46E5
S315080094FC0F46054601F1100C3E4603CE664528601C
S3150800950C6960374605F10805F6D130682860A17DF3
S3150800951CA08A98829975D4E90601DA75E27D1A76DD
S3150800952C03F11C0282E8030000225A6283F8282001
S3150800953C83F826201846F0BD90F8263082B08BB9F1
S3150800954C4FF60453ADF8043001238DF80630BDF8F8
S3150800955C0430002063F30F00BDF8063063F31F4098
S3150800956C02B07047036A1BB190F8283083F00103E8
S3150800957C4FF60652ADF80420E7E730B589B06B46CE
S3150800958C83E8060090F8263004460BBB0B46022AE5
S3150800959C1144CDE90431CDE906310CBF012500256E
S315080095AC06D106A8FFF775FF0123A08484F8263098
S315080095BC8DF80C5001238DF80D309DF80C300020D9
S315080095CC63F307009DF80D3063F30F2009B030BD27
S315080095DC036A2BB190F8283033B9012380F8283068
S315080095EC01228DF80C20E6E70023F9E784B02DE973
S315080095FCF843DDE90E65044609A880E80E000DF16E
S3150800960C340C034622461F4603CF6745106051604B
S3150800961C3B4602F10802F6D1386810600023012295
S3150800962CC4E90523C4E90733A37663621D4B06EB2D
S3150800963C451845F31A059D4202D91B480FF0E4FA62
S3150800964CADB12846FFF734FF07462C2303FB0575F7
S3150800965C6562E761B9463546A8450AD029464846A3
S3150800966C0122FFF742FF203509F12C09F4E72F46B2
S3150800967CEBE7A81B40092C2202FB0077334627622E
S3150800968C9D420AD05A7D12F0300F626914BF03212D
S3150800969C02210A4462612033F2E72046BDE8F8430A
S315080096AC04B070472EBAE802A8900108837E13B559
S315080096BC8BB94FF60253ADF8003001238DF8023002
S315080096CCBDF80030002063F30F00BDF8023063F3D9
S315080096DC1F4002B010BDD0E907148C420FD00846C3
S315080096ECFFF72AFF10F47F0FC0F3074301F12C0193
S315080096FCF3D001908DF80630019B0093E0E7002328
S3150800970CF8E770B5837E88B06D4685E80600044692
S3150800971CB3B90B46022A1144CDE90431CDE9063119
S3150800972C0CBF0125002505D106A8FFF7B2FE0123BB
S3150800973C2083A3768DF80C5001238DF80D3011E09B
S3150800974CD0E90746B44218D0204695E80600FFF73C
S3150800975C14FF10F47F4FADF8100004F12C04F1D06F
S3150800976CADF80C009DF80C30002063F307009DF84B
S3150800977C0D3063F30F2008B070BD0023DDE738B554
S3150800978C04460C200D4601F05BFF0346021D95E8C6
S3150800979C030082E80300226F1A60236738BD82B083
S315080097AC02A901E90C00009B1A78042A01BF019A48
S315080097BC59780170033305BF033AC0E90132002317
S315080097CC0123037302B070471FB50B780E2B03D019
S315080097DC002005B05DF804FB8B68022BF8D94A68A3
S315080097EC02A81344CDE90023CDE90223FFF76EFE48
S315080097FC02A8FFF74EFE4FF606539842E8D102A888
S3150800980CFFF764FEB0FA80F04009E2E71FB50B7863
S3150800981C3E2B044622D18B68052B1FD94A6802A811
S3150800982C1344CDE90023CDE90223FFF74FFE0328A5
S3150800983C14D102A8FFF74AFE02A8FFF72AFEB4F8CD
S3150800984C5630834207D102A8FFF723FE0123A4F85A
S3150800985C620084F86430012004B010BD0020FBE7D8
S3150800986C13B504468DF8071001220DF1070180681F
S3150800987C0FF06EFBA36820460133A36002B010BD3F
S3150800988C13B50446ADF8061002220DF106018068E0
S3150800989C0FF05EFBA36820460233A36002B010BD2E
S315080098AC70B588B00DF1070304460D4604A80121CE
S315080098BC05930793CDF810D0CDF818D0FFF7D0FF45
S315080098CC4FF68A4104A8FFF7DBFF032104A8FFF72C
S315080098DCC7FF032104A8FFF7C3FF02AE002104A8A3
S315080098ECFFF7BEFF304609F0C7FD9DF80C1004A81B
S315080098FCFFF7B6FF049A069B07939B1A03930292EB
S3150800990CE868069296E8060006F008FF0A23C5E9F9
S3150800991C1A33034B236020460023636008B070BDDE
S3150800992CD1A6000830B589B00DF1050304460D46DD
S3150800993C04A8012105930793CDF810D0CDF818D0BB
S3150800994CFFF78EFF4FF6854104A8FFF799FF012113
S3150800995C04A8FFF785FF032104A8FFF781FF049AE3
S3150800996C069B029207939B1AE86806920299039340
S3150800997C1A4606F0D3FE0A23C5E91A33034B2360AD
S3150800998C20460023636009B030BD00BFB5A80008A7
S3150800999C30B589B00DF1050304460D4604A801211E
S315080099AC05930793CDF810D0CDF818D0FFF758FFCC
S315080099BC4FF68F4104A8FFF763FF012104A8FFF7B0
S315080099CC4FFF0A2104A8FFF74BFF049A069B029245
S315080099DC07939B1AE8680692029903931A4606F0AF
S315080099EC9DFE0A23C5E91A33034B23602046002340
S315080099FC636009B030BD00BF59A9000870B50C46A4
S31508009A0C8AB0054601F1740001F0DEFD002604F16A
S31508009A1C7C0001F0D9FD02AA0DF1160384F840600A
S31508009A2C012106A8CDE9073206920993FFF718FF1C
S31508009A3C4FF6815106A8FFF723FF0A2106A8FFF760
S31508009A4C0FFFB4F8561006A8FFF71AFF062106A84A
S31508009A5CFFF716FF0C2106A8FFF712FF314606A8DA
S31508009A6CFFF70EFFC82106A8FFF70AFF069A089B00
S31508009A7C009209939B1AE0680892009901931A467A
S31508009A8C06F04CFE024B2846C5E900360AB070BDF6
S31508009A9CA5AB0008F0B589B001AB044602AE0F467B
S31508009AAC04A801211546CDE9056304930796FFF72B
S31508009ABCD7FE394604A8FFF7E3FE002104A8FFF7F2
S31508009ACCCFFE049A069B07939B1A0292039306925F
S31508009ADCE06896E8060006F021FEC4E91A5509B0B6
S31508009AECF0BD000010B50A220446084641F20101F1
S31508009AFCFFF7D0FF024B236000236360204610BD9E
S31508009B0CADA9000810B50A22044608464FF692413C
S31508009B1CFFF7C0FF024B236000236360204610BD8D
S31508009B2C61A8000810B50A22044608464FF60151EA
S31508009B3CFFF7B0FF024B236000236360204610BD7D
S31508009B4C7DA8000810B50A22044608464FF694412B
S31508009B5CFFF7A0FF024B236000236360204610BD6D
S31508009B6CEDA80008F0B591F83430B3FA83F30C4637
S31508009B7C5B098FB081F85430012106AA0DF1360322
S31508009B8C84F85510064602A8CDE9033202920593CD
S31508009B9CFFF766FE4FF6864102A8FFF771FE1A21FB
S31508009BAC02A8FFF75DFE002102A8FFF759FE002167
S31508009BBC02A8FFF755FE1025002102A8FFF750FE54
S31508009BCC013DF9D1072102A8FFF74AFE102102A888
S31508009BDCFFF746FE6F46294602A8FFF741FE042208
S31508009BEC3946049800950FF0B3F9049B94F8551070
S31508009BFC043302A80493FFF733FE029A049B0593D9
S31508009C0C9B1A01930092E068049297E8060006F006
S31508009C1C85FD0A23C4E91A33024B3046C6E90035DA
S31508009C2C0FB0F0BDD1A8000837B502AB03E90600A2
S31508009C3CDDE900321A44934206D0816813F8014BC9
S31508009C4C4D1C85600C70F6E703B030BDF0B5A9B0B5
S31508009C5C6C4684E8060006461F4615460DF19F031A
S31508009C6C08AA012104A8CDE9053207930492EDB29E
S31508009C7CFFF7F6FD4FF6065104A8FFF701FEA91DDE
S31508009C8CC9B204A8FFF7ECFD394604A8FFF7F8FD9E
S31508009C9CBDF8B81004A8FFF7F3FD002104A8FFF7D8
S31508009CACDFFD294604A8FFF7DBFD94E8060004A8A7
S31508009CBCFFF7BAFF049A069B029207939B1A069221
S31508009CCC029903931A46304606F028FD29B0F0BDD2
S31508009CDC10B590F8583086B002AC84E806007BB113
S31508009CEC039B142B0CD88369D3E90632B2F850209F
S31508009CFC0092059394E80600C0689BB2FFF7A6FF8E
S31508009D0C06B010BDF0B585B00C4602AE0546304619
S31508009D1CCF6809F0B1FBB4F85E3000933846B4F856
S31508009D2C5A3096E80600FFF791FF0A23C4E91A335E
S31508009D3C034B2B60284600236B6005B0F0BD00BFB3
S31508009D4C99A80008F0B593B0044601A80D4609F089
S31508009D5C93FB029E0BAA0DF14603082E4FF0010148
S31508009D6C07A828BF0826CDE9083207920A93FFF7F9
S31508009D7C77FD4FF6834107A8FFF782FD06F10E0122
S31508009D8CC9B207A8FFF76CFD002107A8FFF768FD05
S31508009D9C202107A8FFF774FD202107A8FFF770FDFF
S31508009DAC012107A8FFF75CFD002107A8FFF758FD5E
S31508009DBC711CC9B205AF07A8FFF752FD384609F062
S31508009DCC5BFB069B082B8CBF0821092107A8FFF70C
S31508009DDC47FD019BCDE9053607A897E80600FFF76E
S31508009DEC23FF002107A8FFF73BFD002107A8FFF773
S31508009DFC47FD002107A8FFF743FD079A099B039225
S31508009E0C0A939B1AE8680992039904931A4606F072
S31508009E1C85FC0A23C5E91A33034B23602046002325
S31508009E2C636013B0F0BD00BF21A9000891F8342077
S31508009E3C012A10B5044605D891F83C3043B9FFF70A
S31508009E4C81FF03E0044B036000234360204610BDEA
S31508009E5CFFF778FEFAE700BF399E0008F0B595B013
S31508009E6C0BAF044638460D4609F006FB0C9B082B2F
S31508009E7C06D829462046FFF78BFD204615B0F0BDBF
S31508009E8C01A809F0F9FA029E079714AB1D2E4FF09C
S31508009E9C010107A828BF1D26CDE908370A93FFF745
S31508009EACDFFC42F2090107A8FFF7EAFCF7B220210A
S31508009EBC07A8FFF7D5FCB91CC9B207A8FFF7D0FC51
S31508009ECC791CC9B207A8FFF7CBFC092107A8FFF72D
S31508009EDCC7FC019B3246194607A8CDE90336FFF79E
S31508009EECA3FEDDE90923934204D0002107A8FFF756
S31508009EFCB7FCF6E7079A05929B1A09920599E86842
S31508009F0C06931A4606F00AFC0A23C5E91A33024BCD
S31508009F1C236000236360B0E73DA90008F0B58BB059
S31508009F2C04460D4616461F4603AA0DF117030121D2
S31508009F3C06A8CDE9073206920993FFF791FC4FF66E
S31508009F4CA44106A8FFF79CFC072106A8FFF788FC86
S31508009F5C394606A8FFF784FC06230196029301AE40
S31508009F6C96E8060006A8FFF75FFE069A089B099373
S31508009F7C9B1A02930192E868089296E8060006F086
S31508009F8CCDFB0A23C5E91A33034B2360204600236D
S31508009F9C63600BB0F0BD00BF91A9000810B5D1E9FC
S31508009FAC02329A4207D05A1C8A601A7883685C1C5B
S31508009FBC84601A70F3E710BD2DE9F04190F826502D
S31508009FCC9CB004460E4617469846002D67D13B4D65
S31508009FDC0078AA4294BF09250A25FFF751FA0CAB5B
S31508009FEC1CAA0544012104A8CDE90523049307926C
S31508009FFCFFF736FC4FF6045104A8FFF741FCE9B20B
S3150800A00C04A8FFF72DFC414604A8FFF739FC217874
S3150800A01C04A8FFF725FC234608A913F8042B012AE4
S3150800A02C0CBFA21C04F1140204A807BFCDE908232F
S3150800A03CCDE90A23CDE90832CDE90A32FFF7AEFF9E
S3150800A04C1E4B217D9F4204A826D8FFF709FC617D8B
S3150800A05C04A8FFF705FCA17D04A8FFF701FCE17D28
S3150800A06C04A8FFF7FDFB072104A8FFF7F9FB217EDF
S3150800A07C04A8FFF7F5FB049A069B029207939B1A12
S3150800A08C0692029903931A46304606F047FB0125B9
S3150800A09C28461CB0BDE8F081FFF7F2FBD7E7026A49
S3150800A0AC52B190F828203AB9828C0092D0E907125E
S3150800A0BC3046FFF7CBFDEBE70025E9E71F00070065
S3150800A0CC2DE9F041837E9AB004460E461746002BBE
S3150800A0DC48D10078FFF7D4F90AAB1AAA054601212C
S3150800A0EC02A8CDE90323029305920335FFF7B8FBC3
S3150800A0FC4FF6025102A8FFF7C3FBE9B202A8FFF715
S3150800A10CAFFB217802A8FFF7ABFB234606A913F889
S3150800A11C042B012A0CBFA21C04F1140202A807BFC7
S3150800A12CCDE90623CDE90823CDE90632CDE9083277
S3150800A13CFFF734FF012102A8FFF792FB217D02A845
S3150800A14CFFF78EFB029A049B009205939B1A0492C6
S3150800A15C3046009901931A4606F0E0FA01201AB027
S3150800A16CBDE8F081D0E90758454509D02846238B28
S3150800A17C3A463146FFF720FF2C350028F4D0EEE797
S3150800A18C0020ECE738B50C46CA69C968054660690B
S3150800A19CFFF796FF58B9E269E168A069FFF790FFE7
S3150800A1AC28B921462846FFF7BDFB284638BD024B81
S3150800A1BC2B6000236B60F8E757A7000870B50B698E
S3150800A1CC90B00546187C0C46FFF75AF90AAA0DF109
S3150800A1DC3F030646012102A8CDE9033202920593F4
S3150800A1ECFFF73EFB4FF68E4102A8FFF749FBF11C21
S3150800A1FCC9B202A8FFF734FB2369187CFFF740F9AC
S3150800A20C811CC9B202A8FFF72BFB2369187CFFF740
S3150800A21C37F9411CC9B202A8FFF722FB072102A88D
S3150800A22CFFF71EFB23691A7C012A06A903F11402FF
S3150800A23C02A809BF12332433CDE90632CDE9083218
S3150800A24C1CBFCDE90623CDE90823FFF7A7FE029A22
S3150800A25C049B009205939B1AE0680492009901935B
S3150800A26C1A4606F05BFA0A23C4E91A33034B2B6029
S3150800A27C284600236B6010B070BD00BF75A9000896
S3150800A28CF7B502AB03E90600009E0446354600F115
S3150800A29C0807019B33449D4209D0D4E902329A42FD
S3150800A2AC05D03846FFF712F905F8010BF1E72046F9
S3150800A2BC03B0F0BD2DE9F04FABB0E84688E80C00CA
S3150800A2CC349D06460F460DF128090DF1180A7F2311
S3150800A2DCCDF8189007939AE80C00F16804A806F0D4
S3150800A2EC90FC9DF8143093B9B26E002A46D140F210
S3150800A2FCFF13ADF80C309DF80C30002063F3070003
S3150800A30C9DF80D3063F30F202BB0BDE8F08F049B3E
S3150800A31C08A84B44CDE90693CDE90893FFF7D6F880
S3150800A32C834608A8FFF7D2F8044608A8FFF7CEF824
S3150800A33CBBF1040FCBD10E2C23D10228C7D908A800
S3150800A34CFFF7C4F808A8FFF7A4F8B842BFD108A8C5
S3150800A35CFFF7BCF804463DB1DDE908239B1A019AC0
S3150800A36C934294BF2B602A60009B23B198E80600A1
S3150800A37C5046FFF785FF8DF80C4001238DF80D30FC
S3150800A38CB9E70F2CA3D10328A1D908A8FFF79EF883
S3150800A39C044608A8FFF79AF808A8FFF77AF8874240
S3150800A3AC95D1002C93D0002DE5D000232B60E2E745
S3150800A3BC2DE9F0410B78FF2B8EB0054604D000270B
S3150800A3CC38460EB0BDE8F0818B68092BF7D94A6878
S3150800A3DC07A81344CDE90523CDE90723FFF759F858
S3150800A3EC074607A8FFF755F8804607A8FFF751F860
S3150800A3FC064607A8FFF76AF8044607A8FFF749F8C0
S3150800A40C40F601439F42DAD195F85870002FD6D002
S3150800A41CB5F856304345D2D1DDE907135B1A9C4291
S3150800A42CCDD10028CBD1AB69DB695B6A00930133CC
S3150800A43C9BB29E42C3D1142C12D809AE2246314681
S3150800A44C05A8CDE90164FFF71BFF2D6F002DB7D0CA
S3150800A45C6B68281DCDE9036403A998472D68F5E7B1
S3150800A46C0746ADE710B586B002AC84E8030069462A
S3150800A47C81E80C00039A0C21034601FB0201DDE975
S3150800A48C00048B421CD01A68824206D15A68944240
S3150800A49C05D010B92243D20701D50C33F1E71B8935
S3150800A4ACADF8143001238DF81630BDF814300020A1
S3150800A4BC63F30F00BDF8163063F31F4006B010BDEA
S3150800A4CC0023F0E77FB54368D3E90A32CDE90232B7
S3150800A4DC0A4B04931323059306A9134611E90300A3
S3150800A4EC029AFFF7BFFF82B210F47F0F4FF6FF7088
S3150800A4FC18BF104607B05DF804FB00BFFC900108B6
S3150800A50C7FB54368D3E90832CDE902320A4B049386
S3150800A51C1323059306A9134611E90300029AFFF7BC
S3150800A52CA1FF82B210F47F0F4FF6FF7018BF1046CA
S3150800A53C07B05DF804FB00BFFC90010883780BB1EB
S3150800A54C00238370704710B504462430FFF7F6FFD6
S3150800A55C002384F8283010BD38B504461830FFF7A8
S3150800A56CEDFFD4E90745A54204D02046FFF7EBFFDB
S3150800A57C2C34F8E738BD000070B505460C4642B1D8
S3150800A58C01F12803D1E9080183E80300012384F8C3
S3150800A59C4030E66870680021183007F03FFE01234A
S3150800A5ACC6F82C336069FFF7D7FF0026A069FFF7BA
S3150800A5BCD3FF04F15A00E661FFF7C0FF04F15E0011
S3150800A5CCFFF7BCFF04F16200FFF7B8FF024B284601
S3150800A5DCC5E9003670BD00BF659400087FB5044612
S3150800A5EC683001F005F804F1740001F001F804F183
S3150800A5FC7C0000F0FDFF616A236A11F0010F4FEA37
S3150800A60C610102AE18BF6258304618BFD3582144B0
S3150800A61C984796E8030004F1200585E80300E368EB
S3150800A62C93F8302312B993F8312362B100226E469F
S3150800A63CA3F83023214630460122FFF79DFF96E802
S3150800A64C030085E8030004B070BD00002DE9F0474F
S3150800A65CDFF86C90A4B004460D4600260DF11008E0
S3150800A66C4FF07F0AE968534642466846CDE9028AA6
S3150800A67C06F0C7FA9DF8047057B1009A062AF1D16C
S3150800A68C494640460EF056FC002808BF3E46E9E708
S3150800A69C3EB129462046FFF725FA204624B0BDE8E8
S3150800A6ACF087AB6E2BB9012229462046FFF764FFCB
S3150800A6BCF3E7024BC4E90036EFE700BF59A60008DA
S3150800A6CCF891010870B58AB007230C4604AE0793B7
S3150800A6DC03AB00930546072332464FF68A412046BC
S3150800A6EC0696FFF7E7FD10F47F4FADF8080006D184
S3150800A6FCD4E9080185E8030028460AB070BD9DF820
S3150800A70C0830E3B9039B062B19D10DF1170308A8DA
S3150800A71CCDE9073606960993FEF7BBFE0126A4F883
S3150800A72C5A0084F85C6008A8FEF7B3FE84F86060EB
S3150800A73CA4F85E0021462846FFF7E4FADCE7012276
S3150800A74C21462846FFF718FFD6E72DE9F0430546BC
S3150800A75C91B048690C46FEF7A9FF10F47F0F81B239
S3150800A76C03D1A069FEF7A2FF81B22023079308AE96
S3150800A77C05AB0696009306AF97E80C002046FFF744
S3150800A78C99FD10F47F4FADF8080007D1D4E90801FC
S3150800A79C85E80300284611B0BDE8F0839DF808301B
S3150800A7ACDBB904F1100804F11809C84515D0059B46
S3150800A7BC0696079397E8060058F8040FFEF7A1FFCC
S3150800A7CC10F47F4FADF80C00EFD09DF80C3023B188
S3150800A7DC21462846FFF7D6FCDCE701222146284607
S3150800A7ECFFF7CAFED6E782B0F0B587B01E460D93C2
S3150800A7FC0023CDE9043300930C4606AB11460546F7
S3150800A80C13E90C0020460E9FFFF754FD10F47F4FFA
S3150800A81CADF80C0009D1D4E9080185E803002846EF
S3150800A82C07B0BDE8F04002B070479DF80C3053B93C
S3150800A83C7B10FA0748BFE35804EB670148BF9E59DB
S3150800A84C2846B047EBE7012221462846FFF794FE37
S3150800A85CE5E700001FB5002300934FF69242034B21
S3150800A86C0446FFF7C0FF204604B010BD319B000814
S3150800A87C1FB5002300934FF60152034B0446FFF70E
S3150800A88CB2FF204604B010BDAD9800081FB50023D2
S3150800A89C00934FF60652034B0446FFF7A4FF2046D7
S3150800A8AC04B010BD91A100081FB5002300934FF604
S3150800A8BC8542034B0446FFF796FF204604B010BDAD
S3150800A8CC719B00081FB5002300934FF68642034B75
S3150800A8DC0446FFF788FF204604B010BD3DAA0008C1
S3150800A8EC30B585B00446002300934FF69442074BC7
S3150800A8FC0D46FFF778FF2268054B9A4203D1636829
S3150800A90C0BB985F83C30204605B030BD519D000882
S3150800A91C21A900081FB5002300934FF68342034B69
S3150800A92C0446FFF760FF204604B010BD699E000878
S3150800A93C1FB50023009342F20902034B0446FFF7A6
S3150800A94C52FF204604B010BD9D9900081FB5002380
S3150800A95C00934FF68F42034B0446FFF744FF2046FD
S3150800A96C04B010BDC9A100081FB5002300934FF60B
S3150800A97C8E42034B0446FFF736FF204604B010BD43
S3150800A98C559400081FB5002300934FF6A442034BB9
S3150800A99C0446FFF728FF204604B010BD099A0008A4
S3150800A9AC70B58CB009230C4605AE099304AB00931D
S3150800A9BC05460923324641F2010120460896FFF75F
S3150800A9CC79FC10F47F4FADF80C0006D1D4E90801D8
S3150800A9DC85E8030028460CB070BD9DF80C3003BB07
S3150800A9EC049B082B1DD10DF11D030AA8CDE90936C8
S3150800A9FC0B930896FEF76AFD0AA8FEF74AFD0AA805
S3150800AA0CFEF764FD06460AA8FEF743FD0AA8FEF7FC
S3150800AA1C40FD40EA0640E06121462846FFF772F8F9
S3150800AA2CD8E7012221462846FFF7A6FDD2E7000003
S3150800AA3C91F8553010B5044613B1002381F85530FA
S3150800AA4C01F15600FFF77AFD024B23600023636081
S3150800AA5C204610BD399E000830B50B78052B85B0FD
S3150800AA6C044603D00025284605B030BD8B68032B59
S3150800AA7CF8D94A6802A81344CDE90023CDE9022384
S3150800AA8CFEF724FD054602A8FEF703FD002DE9D1C5
S3150800AA9C94F85850002DE5D0B4F856308342E1D1DD
S3150800AAAC04F15600FFF74AFDDDE72DE9F041A8B0A1
S3150800AABC05460C4608AF4FF07F08CDE9047804AE7E
S3150800AACC96E80C00E168684606F09BF89DF8043099
S3150800AADC7BB9A36E43B9002221462846FFF74CFDE5
S3150800AAEC284628B0BDE8F081D4E9080185E80300BA
S3150800AAFCF6E7009B03933A46214630460297FEF743
S3150800AB0C4EFE9DF81C30002BD7D031462046FFF759
S3150800AB1CA3FF0028D1D0DEE730B591F8583089B0BC
S3150800AB2C05460C46002B33D00DF10703012104A86A
S3150800AB3C05930793CDF810D0CDF818D0FEF790FEF4
S3150800AB4C4FF6934104A8FEF79BFE032104A8FEF7D3
S3150800AB5C87FEB4F8561004A8FEF792FE132104A833
S3150800AB6CFEF77EFE049A069B029207939B1A02999D
S3150800AB7CE06806921A46039305F0D0FD3223C4E921
S3150800AB8C1A3321462846FFF790FF284609B030BDF0
S3150800AB9C0122FFF7F1FCF8E7F0B591F83430032BF6
S3150800ABACABB005460C4602D1FFF7B6FF36E04F6F41
S3150800ABBC06AE17BB02AA03AB01210AA8CDE90B32D4
S3150800ABCC0A920D93FEF74CFE4FF47C410AA8FEF749
S3150800ABDC57FE39460AA8FEF743FE0A9A0C9B0D93B4
S3150800ABEC9B1A06920793E0680C9296E8060005F005
S3150800ABFC95FD04F1740000F0E7FC7F270AABCDE95C
S3150800AC0C0637E16896E80C00684605F0FAFF9DF8E9
S3150800AC1C043033B9D4E9080185E8030028462BB07B
S3150800AC2CF0BD0AAB0693009B079396E80C002146E9
S3150800AC3C02A8FEF7B4FD9DF81430002BDED002A94D
S3150800AC4C2046FFF709FF28B1002221462846FFF7C0
S3150800AC5C93FCE3E702A92046FFF7AAFB02A92046C4
S3150800AC6CFFF7FAFE02A92046FEF7D0FD02A92046F8
S3150800AC7CFEF7AAFD38B104F1740000F0A5FC04F146
S3150800AC8C7C0000F0A1FC9DF808300E2B13D1DDE9F1
S3150800AC9C032308A81344CDE90623CDE90823FEF7B8
S3150800ACAC15FC08A8FEF7F5FBB0F57C4F03D104F1AB
S3150800ACBC7C0000F089FCE36F43B9D4E9080104F180
S3150800ACCC280383E80300214628466DE7024B2B60D0
S3150800ACDC00236B60A2E700BFA5AB00082DE9F04383
S3150800ACEC91F83C30AFB005460C4613BB91F834309E
S3150800ACFC9A1E012A1DD991F85420B3FA83F35B09DD
S3150800AD0C9A4216D10EAF4FF07F09CDE90A790AAEF1
S3150800AD1C96E80C00E16802A805F073FF9DF80C3064
S3150800AD2C6BB9D4E9080185E8030028462FB0BDE8BD
S3150800AD3CF083002221462846FFF71EFCF5E7029B06
S3150800AD4C0A970B9396E80C00214606A8FEF727FDF2
S3150800AD5C9DF82430002BD8D0DDE907329918CDE9B7
S3150800AD6C0A31CDE90C319DF818303E2B04D006A9D2
S3150800AD7C2046FFF771FEC8E7032AF8D90CA8FEF798
S3150800AD8CA5FB01288046F2D10CA8FEF79FFB0028EC
S3150800AD9CEDD10CA8FEF77DFB94F83430A4F85600D8
S3150800ADAC84F85880EBB1DDE90A239B1A0B2B01D8E2
S3150800ADBC4246BFE70CA8FEF789FB0CA8FEF786FBF4
S3150800ADCC062307461A46694630460593CDF810D031
S3150800ADDCFFF756FA3B466A4621462846FFF79EF881
S3150800ADECA3E721462846FEF709FE9EE710B504465A
S3150800ADFC48B1C06908B100F02FFC20462821BDE8EF
S3150800AE0C104000F02BBC10BD10B50446006808B104
S3150800AE1CFFF7ECFF204610BD2DE9F04F0446A9B00C
S3150800AE2C16460D4600F0E2F9714B2360714B23630D
S3150800AE3C714BA363714BC4E91134714BC4E90356C6
S3150800AE4C0025C4E91334C4F85650C4F85A50C4F84B
S3150800AE5C5E50C4F862502946C4E90555C4E908553C
S3150800AE6CC4E90A5584F8345084F83C5084F84050A8
S3150800AE7C84F8555084F8585084F85C5084F860501F
S3150800AE8C84F8645004F1680000F098FB25671921D2
S3150800AE9C04F1740000F092FB07AF332104F17C0037
S3150800AEAC00F08CFB0DF140083846A4F8845008F0E5
S3150800AEBCE3FA2946602240460EF072F842F6292338
S3150800AECCADF8423042F62423ADF8623042F625231B
S3150800AEDC4FF0020AADF8823023698DF855A08DF82B
S3150800AEEC75A08DF895A059688DF85410D3E9001003
S3150800AEFCCDE91610D9688DF87410D3E90213CDE98B
S3150800AF0C1E1397E80300089B8DF89430012228AB92
S3150800AF1C03E903008DF8402029468DF860208DF84A
S3150800AF2C80208DF82C2041F60A0310220CA8ADF8C7
S3150800AF3C2E300EF035F803232820CDF824800A93FA
S3150800AF4C00F07EFB0DF12408834698E803000DF10A
S3150800AF5C080989E803000EAB93E803008DE80300A3
S3150800AF6C0BAF97E80E005846FEF740FB6369C4F82A
S3150800AF7C14B0384609930B951036FFF745FF404633
S3150800AF8CFFF742FF0FCEBC46ACE80F003368CCF88F
S3150800AF9C00301C4B2820CDE9093A00F051FB064637
S3150800AFAC98E8030089E803000EAB93E803008DE8E4
S3150800AFBC0300304697E80E00FEF718FBA369A66156
S3150800AFCC3846099304AE0B95FFF71EFF4046FFF76C
S3150800AFDC1BFF214630462A46FFF7CEFA96E80300B1
S3150800AFEC04F1200383E80300204629B0BDE8F08F5E
S3150800AFFCE891010890900108A0900108E4900108D6
S3150800B00CF49001080092010838B50A4B036004460F
S3150800B01C006F20B1056800F01FFB2846F9E7606948
S3150800B02CFFF7E4FEA069FFF7E1FE204600F0D5F82D
S3150800B03C204638BDE891010810B50446FFF7E4FF31
S3150800B04C2046882100F00AFB204610BD10B5054B9A
S3150800B05C044640F8103B00F059FB204600F0BDF8BA
S3150800B06C204610BD4892010810B50446FFF7EEFFBE
S3150800B07C2046342100F0F2FA204610BDC368103081
S3150800B08C93F8401000F019BB73B505460C4600F052
S3150800B09CADF8194B2B600222EC60184905F110002B
S3150800B0AC00F01AFB04F13003009369460123144897
S3150800B0BC8DF8043002F00EFB04F138030093694650
S3150800B0CC002310488DF80430022602F003FB04F125
S3150800B0DC440369460C4800938DF804604C3402F01E
S3150800B0ECF9FA6946094800948DF8046002F0F2FAF8
S3150800B0FC284602B070BD00BF48920108E8A60108B0
S3150800B10CCCAD01080CAB01085CAA010854AC0108CB
S3150800B11C73B505460C4601F50563022669460068B3
S3150800B12C00938DF8046002F0D5FA04F65C036946C0
S3150800B13CA86800938DF8046002F0CCFA04F6640350
S3150800B14C6946686800938DF8046002F0C3FA012614
S3150800B15C04F66C036946286900938DF8046004F6B6
S3150800B16C740402F0B7FAE868009469468DF804602E
S3150800B17C02F0B0FA02B070BD70B501259540013DDC
S3150800B18C1BB1012B17D0002070BD8668C368C1F1AE
S3150800B19C4004A41A36BA1BBAC4F1200006FA00F009
S3150800B1ACA4F1200123FA04F2024326FA01F10A4318
S3150800B1BC05EA0200E8E7D0E90234C1F12000A1F162
S3150800B1CC200204FA00F023FA01F1014324FA02F2F0
S3150800B1DC114305EA0100D7E77047704710B50C21F3
S3150800B1EC044600F03BFA204610BD0000024A0260F5
S3150800B1FC0022C0E9012270476092010838B505465D
S3150800B20C55F8104FAC4206D054F8043C201F1B6866
S3150800B21C98472468F6E738BD38B5054655F8104FF3
S3150800B22CAC4206D054F8043C201F5B689847246847
S3150800B23CF6E738BD10B50346002153F8042F9342A0
S3150800B24C04D01468C2E900112246F8E7C0E90133B4
S3150800B25C016010BD10B5054B044640F80C3BFFF7D2
S3150800B26CE9FF2046FFF7B9FF204610BD7892010882
S3150800B27C10B50446FFF7EEFF2046182100F0EEF94C
S3150800B28C204610BD10B5054B044640F80C3BFFF79D
S3150800B29CD1FF2046FFF7DEFF204610BD909201082D
S3150800B2AC10B50446FFF7EEFF2046182100F0D6F934
S3150800B2BC204610BD10B50446FFF798FF044B2360D3
S3150800B2CC0023E36004F11003C4E90433204610BDDF
S3150800B2DC7892010843698B6010B50A1D00F11004B9
S3150800B2EC4C6042611A60C3680133C36010BDF8B57F
S3150800B2FC0546044655F8100F0026854209D050F825
S3150800B30C042C0768D268C0E90066043890473846AA
S3150800B31CF3E7C4E90455E660F8BD000010B5044629
S3150800B32CFFF7C8FF014B2360204610BD9092010819
S3150800B33C8368994238BF436882B03BBF5B5C8DF823
S3150800B34C0430002301238DF805309DF804300020C5
S3150800B35C63F307009DF8053063F30F2002B07047BE
S3150800B36C002070478068704743681868704700204B
S3150800B37C7047000037B5044600F074F9234D256074
S3150800B38C0C30606000F06EF90830A560E06000F0E3
S3150800B39C69F9C4E9045000F065F91D4B23621D4B8D
S3150800B3AC636204300723A561E0610325A36269463D
S3150800B3BC194800948DF8045002F08CF904F108032E
S3150800B3CC6946164800938DF8045002F083F904F187
S3150800B3DC10036946124800938DF8045002F07AF966
S3150800B3EC04F1180369460F4800938DF8045002F0CF
S3150800B3FC71F904F120030093694608230A488DF86D
S3150800B40C043002F067F9204603B030BDA892010853
S3150800B41CB8920108C49201085CAB010864AB010838
S3150800B42C0CAD0108BCAC0108A4AC01087047007946
S3150800B43C7047002070470000024A02600022027121
S3150800B44C02727047D492010829B1037A83F001037A
S3150800B45C0371017270470B46FAE770470278437816
S3150800B46C1AB11B0183F3118870470BB162B670478A
S3150800B47C72B6704743681868B0FA80F0400970478E
S3150800B48C11B94368036070470023FBE709B100F064
S3150800B49CAFB800F099B8000010B5044600F08EF865
S3150800B4AC024B2046C4E9023410BD00BFE4920108E1
S3150800B4BC43681847124B13B51860124B1B6803F5F3
S3150800B4CCA563044640F8043BFFF728FF04F11C006B
S3150800B4DCFFF724FF20680023A36384F83430E36362
S3150800B4EC03694FF47A715B6810309847064B2068ED
S3150800B4FC6946CDE9003406F00FFF204602B010BDB0
S3150800B50C58230020602300204BB5000838B5836B00
S3150800B51C0133836304460068836918301B689847AF
S3150800B52C94F83430054613B1201DFFF775FE2068D4
S3150800B53C836918301B689847401BE06338BD406820
S3150800B54CFFF7E4BF38B590F834300446ABB904308D
S3150800B55C04F11C05FFF752FE2846FFF74FFE074B72
S3150800B56C186802F0A3FC012384F834302846FFF748
S3150800B57C53FE94F83430002BF8D138BD5C230020E8
S3150800B58C37B5054604460A4B55F81C0B0093694615
S3150800B59C084B019306F0C0FE2846FFF773FE201DE4
S3150800B5ACFFF770FE044B002220461A6003B030BD2C
S3150800B5BCBDB4000867B4000858230020C0E9001180
S3150800B5CC7047C0E90012704743680360704703462A
S3150800B5DC406828B11A6864235343B3FBF0F080B271
S3150800B5EC704708B5FFF7F3FFC0F1640080B208BDD9
S3150800B5FC03680BB1013B036070477047FEE708B55B
S3150800B60C0DF092FC582303604FF0FF3008BD000084
S3150800B61C094A1168013110B51160410707490346FB
S3150800B62C18BF20F00703086818BF0833C4180C6045
S3150800B63C91680B44936010BD642300200020002001
S3150800B64CFFF7E6BFFFF7E4BF024A536801335360BE
S3150800B65C704700BF64230020FFF7F6BFFFF7F4BF5F
S3150800B66CFFF7F2BF0048704764230020024B0349DA
S3150800B67C034A5B1AD3607047C07F0020FC4E00203B
S3150800B68C64230020FEE75B1A10B50446084607D06B
S3150800B69C121B05D002990C1B634393FBF2F3184457
S3150800B6AC10BD4068704741600120704700880B88C0
S3150800B6BC98422CBF002001207047037D2BB921B17D
S3150800B6CCC3697E2B9CBF0133C36101757047002388
S3150800B6DCC36103757047000010B50273084A02610E
S3150800B6EC084A81600023C0E90623C0E900330375C4
S3150800B6FC054B04460146186800F0F9FB204610BDB8
S3150800B70CA0900108F49201087423002010B5044B8C
S3150800B71C04460146186800F0B1FA204610BD00BF71
S3150800B72C7423002073B50C46054600F0DFF804F6C2
S3150800B73C280300936946002325488DF80430032610
S3150800B74C01F0C8FF04F503636946224800938DF897
S3150800B75C046001F0BFFF04F6380369461E480093DF
S3150800B76C8DF8046001F0B6FF0A2604F505636946F0
S3150800B77C1A4800938DF8046001F0ACFF04F66C03CC
S3150800B78C6946174800938DF8046001F0A3FF04F688
S3150800B79C780300936946092312488DF8043001F0A2
S3150800B7AC99FF04F5086369460F4800938DF8046001
S3150800B7BC04F6880401F08EFF072369460B480094AB
S3150800B7CC8DF8043001F086FF284602B070BD00BF24
S3150800B7DCD4AD010894AA0108DCAA0108BCAB01087F
S3150800B7EC0CAC0108C4AD0108BCAD0108DCAD010800
S3150800B7FC70470C3000F02CB838B504460D46FFF7E8
S3150800B80CF5FC2046034B40F80C3B294600F037F86C
S3150800B81C204638BD0493010810B5054B044640F87C
S3150800B82C0C3BFFF773FF2046FFF7D7FC204610BDED
S3150800B83C0493010810B504462430FFF727FE616A05
S3150800B84CB1FA81F120464909BDE81040FFF735BF2A
S3150800B85C10B50446FFF73BFF04F124000021BDE8B0
S3150800B86C1040FFF70DBE38B504461D46FFF734FFEA
S3150800B87C294604F12400FFF70FFE204638BD38B5DB
S3150800B88C0C460A7909680546FFF726FFA16805F1F3
S3150800B89C2400FFF701FE284638BD42681368243396
S3150800B8AC53600120704738B504462368656803F170
S3150800B8BC2402D3F8243802EB03139D4202D16260AA
S3150800B8CC002038BD05F110036360284600F0ECF83B
S3150800B8DC0028EAD02B6828461C8800F0BCF844EAF5
S3150800B8ECC070EEE74068FFF7DEBF000013B50A4BE1
S3150800B8FC0160C0E90230243100F1080304464160B6
S3150800B90C00936946032305488DF8043001F0E2FEDE
S3150800B91C204602B010BD00BF1C930108E4AA01081A
S3150800B92C002070474368D3F82408704700207047F6
S3150800B93C4368D3F8240870474368D3F824288A4206
S3150800B94C88BF03EB011382B083BF5B6A1B88ADF813
S3150800B95C0430002388BF01238DF80630BDF8043067
S3150800B96C002063F30F00BDF8063063F31F4002B0E6
S3150800B97C7047002070474368D3F8240870478B68D3
S3150800B98C9A423DBF4B6853F822300360002338BFF8
S3150800B99C0123037170478068704740687047000040
S3150800B9AC10B5054B03600446FFF7A1FC2046FFF7CC
S3150800B9BC51FC204610BD00BF2C93010810B5044657
S3150800B9CCFFF7EEFF20461821FFF748FE204610BD6C
S3150800B9DC036803EB01130360704700000346104A23
S3150800B9EC70B543F8242BD0F824580446002065B1CA
S3150800B9FC1946013D51F8082F8A4204D01668C2E947
S3150800BA0C00003246F8E71033F1E704F10C00FFF7B3
S3150800BA1CC7FF044B20461D60FFF7DFFB204670BDB1
S3150800BA2CA49301087423002010B50446FFF7D6FF2B
S3150800BA3C20464FF40961FFF711FE204610BD024659
S3150800BA4C10B58C6842F8084BC1E900220122C0E9FE
S3150800BA5C0211426010BD034653F8082F9A4203D0D0
S3150800BA6C107D10B91268F9E700207047436807B5CE
S3150800BA7CD3F824288A4215D9243303EB0110FFF78F
S3150800BA8CEAFF01238DF804008DF805309DF8043083
S3150800BA9C002063F307009DF8053063F30F2003B00D
S3150800BAAC5DF804FB0023EFE70346002053F8082F44
S3150800BABC9A4203D0D16912680844F9E770474B6873
S3150800BACCD3F82418914210B5044609D9243303EB4C
S3150800BADC0210FFF7E9FF012320602371204610BDF1
S3150800BAEC0023FAE738B5044654F8085FA54204D093
S3150800BAFC2846FFF7ECFD2D68F8E738BD024670B509
S3150800BB0C52F8083F002593420CD0994208D1D1E946
S3150800BB1C0046346066604468013C4460C1E90055DF
S3150800BB2C1B68F0E770BD38B5D0F8245800F124042A
S3150800BB3C04EB0515A54204D02046FFF7D3FF1034B5
S3150800BB4CF8E738BD10B50446FFF7EDFF04F10C0015
S3150800BB5CBDE81040FFF752BBF8B504460C30FFF7AA
S3150800BB6C5BFB94F82C382BB1002384F82C38204630
S3150800BB7CFFF7D9FF0023C4F84038C4F84438C4F892
S3150800BB8C4838C4F84C38C4F85C38C4F86038C4F87B
S3150800BB9C6438C4F86838D4F8243804F1240104F558
S3150800BBAC046704F65C0601EB031104F12C02A2F1FE
S3150800BBBC0803994208D104F5056100238F421DD06C
S3150800BBCC57F8042B1344F9E71368934214D01D7DD8
S3150800BBDC187B35B104EB800CDCF840580135CCF8F1
S3150800BBEC4058DD6935B104EB8000D0F85C58013556
S3150800BBFCC0F85C581B68E8E71032D8E7C4F8343844
S3150800BC0C04F66C0100238E4203D056F8042B134419
S3150800BC1CF9E7C4F83C38F8BD2DE9F347D1F82458B0
S3150800BC2C01F1240807468946924645F31B05444606
S3150800BC3C002D11DD6E10314601A80194FFF7C8FEE0
S3150800BC4C019B51461868FFF731FD18B1019CAE1BD4
S3150800BC5C1034013E3546EBE7D9F8245808EB0515A0
S3150800BC6CA54209D021685046FFF720FD20B13D605A
S3150800BC7C384602B0BDE8F0873C60F9E737B50446AC
S3150800BC8C8A680D46014601A8FFF7C6FFD4F8242892
S3150800BC9C019804F1240303EB0213984202D02946B7
S3150800BCACFFF72CFF03B030BD2DE9F0410446FFF732
S3150800BCBC9DFA284B284A1C602346002143F80C2B76
S3150800BCCC182218460DF06CF9FFF7F4FA234BE360CB
S3150800BCDC234BC4F82838234BC4F830380025C4F84D
S3150800BCEC38384FF0100804F5046342462946C4F860
S3150800BCFC245884F82C58C4F83458C4F83C581846B8
S3150800BD0C0DF04EF9184FC4F8540804F65C030426D3
S3150800BD1CC4F85078C4F858684246294618460DF0B7
S3150800BD2C3FF9124BC4F87838114BC4F88038114BCC
S3150800BD3CC4F87008C4F86C78C4F87468C4F87C48FD
S3150800BD4CC4F88448C4F88838C4F88C482046BDE83A
S3150800BD5CF08100BF74230020A49301082C930108DA
S3150800BD6CA0900108449301085493010868930108AC
S3150800BD7C7C930108909301088142F0B524D002689F
S3150800BD8C0B680AB9C0E900000BB9C1E90011D1E981
S3150800BD9C0064D0E900C57768DCF804E0CCF80470D8
S3150800BDACC6F804E027682E682F60266004680D68BC
S3150800BDBC05604D680C60446845604C600AB9C1E979
S3150800BDCC00220BB9C0E90033F0BD2DE9F84FD1F8C4
S3150800BDDC0058002301EB051A81460E4617460360E8
S3150800BDEC037145F31B050C4695B14FEA55084FEA06
S3150800BDFC08133968E05804EB081BFFF757FC28B101
S3150800BE0C013D0BF11004A5EB0805EDE74546EBE7FC
S3150800BE1CA24508D1D6F800580123802D89F804309C
S3150800BE2C0ED10DF06FF821683868FFF73FFC002833
S3150800BE3CF0D189F80450C9F800404846BDE8F88F97
S3150800BE4C290106EB0515A54204F1080A07F1080BAA
S3150800BE5C4FF0000312D13A685946C4E90023C4E9E5
S3150800BE6C02AA5046FFF788FF63687A6862607B60AF
S3150800BE7CD6F800380133C6F80038DCE755F8102C2C
S3150800BE8C725005F108006B60C5E90200A5F10801BE
S3150800BE9CFFF772FF6B6855F80C2C45F80C3CD6F876
S3150800BEAC00386A600133A5F11008C6F80038A045B9
S3150800BEBC12D058F8103DC8F8103008F1080108F1EE
S3150800BECC1800FFF759FFD8F81430D8F80420C8F82A
S3150800BEDC1420C8F80430EAE73B68236059465046F4
S3150800BEECFFF74AFF63687A6862607B60A3E770B500
S3150800BEFC054688B08A680C46014601A8FFF78CFEF1
S3150800BF0CD5F82428019B05F1240606EB0212934268
S3150800BF1C0BD0DA68626003F108012160DC601460FA
S3150800BF2C5A6801325A6008B070BD214604A8FFF75A
S3150800BF3C86FD04AA02A83146FFF747FF069B06A80A
S3150800BF4C00228342EFD01968C3E900220B46F8E7B2
S3150800BF5C10B5034B03600446FFF75EFC204610BD84
S3150800BF6CBC93010810B50446FFF7F2FF204648219A
S3150800BF7CFFF774FB204610BD10B5034B036004464F
S3150800BF8CFFF74AFC204610BDD493010810B50446A9
S3150800BF9CFFF7F2FF20464821FFF760FB204610BD4D
S3150800BFAC10B50446006C03681B689847B4F944102E
S3150800BFBC8142A8BF002104F10C00B8BF0121BDE8DD
S3150800BFCC1040FFF737BC10B50446006C03681B68B5
S3150800BFDC9847B4F944108142D8BF002104F10C00EB
S3150800BFECC8BF0121BDE81040FFF724BC2DE9F0417C
S3150800BFFC0C4B054648201F6835F9048B0E46FFF78F
S3150800C00C1FFB29460446FFF7F7FB074B23602664FC
S3150800C01CA4F84480214607F10C00BDE8F041FFF76F
S3150800C02C59B900BF74230020BC9301082DE9F041CF
S3150800C03C05464820B3F9008016460F46FFF700FB65
S3150800C04C39460446FFF7D8FB054B2360284621469C
S3150800C05C2664A4F84480FFF73DF92046BDE8F08134
S3150800C06CD493010813B5074B0A4601461C6831F9E7
S3150800C07C043BADF8043004F10C0001ABFFF7D6FF16
S3150800C08C02B010BD7423002013B5074B0A460146AF
S3150800C09C1C6831F9043BADF8043004F10C0001AB13
S3150800C0ACFFF7C4FF02B010BD74230020B0F90400DA
S3150800C0BC7047002070470020704740687047002082
S3150800C0CC704700797047002070474368988A704714
S3150800C0DCB0F90400704781800120704740687047AA
S3150800C0EC41600120704790F84000012802D0031FD8
S3150800C0FC5842584170470000D0F8040130B1044B3F
S3150800C10C1B68D3F8A001B0FA80F04009704700BF4D
S3150800C11C782300204068FFF7EFBF0000044BC06887
S3150800C12C1B685B6803EB5003B3FBF0F0704700BF6A
S3150800C13C782300204068FFF7F1BF000011B9C160F1
S3150800C14C01207047064B1B685B68B1EB430F04D89C
S3150800C15C03EB5103B3FBF1F1F1E70020704700BF85
S3150800C16C782300204068FFF7E9BF0000044B0069FC
S3150800C17C1B685B6803EB5003B3FBF0F0704700BF1A
S3150800C18C782300204068FFF7F1BF000021B9016150
S3150800C19CC0F8B01001207047094B1B685B68B1EBFF
S3150800C1AC430F0BD803EB5103B3FBF1F1838A0161FF
S3150800C1BC59434FF47A73B1FBF3F1E9E70020704762
S3150800C1CC782300204068FFF7E1BF90F84030032B36
S3150800C1DC0BD1B1F57A7F08D8B0F8B630994228BF9A
S3150800C1EC1946A0F8B810012070470020704740681F
S3150800C1FCFFF7EBBF0369B1F57A7F28BF4FF47A7165
S3150800C20C81824B434FF47A71B3FBF1F3C0F8B0302B
S3150800C21C012070474068FFF7EDBF00000B4B0C4937
S3150800C22C1A6802F12403C31A9B104B4302EB8302D0
S3150800C23C4FF4FA6312695343A3F50C43A03B52001F
S3150800C24CB3FBF2F3A0F8B630704700BF7823002092
S3150800C25C77A927E3124B70B51D682A6842F20F744A
S3150800C26C0A2342F2107103FB0242B2FBF1F2C0F848
S3150800C27CD8202A68642606FB0242B2FBF1F2C0F803
S3150800C28CE8202A6806FB0242B2FBF1F2C0F8F82055
S3150800C29C2B6806FB0343B3FBF1F3C0F8083170BDFA
S3150800C2AC78230020006805F0BFBF006805F0B6BF0C
S3150800C2BC037A10B50BB1C1F57A71094B44681B6842
S3150800C2CC03F12402801A074A8010504303EB8003BB
S3150800C2DC1B6959434FF47A73B1FBF3F1216010BD16
S3150800C2EC7823002077A927E30B4B0C491A6802F12F
S3150800C2FC2403C31A9B104B4302EB8302017A43684F
S3150800C30C12691B6801B1D31A4FF47A705843B0FB03
S3150800C31CF2F080B2704700BF7823002077A927E394
S3150800C32C4068FFF7E1BF38B50025C0E94555C0E9B7
S3150800C33C2F55C0E93155C0E9335504462946E43032
S3150800C34CFFF79EF8294604F1F400BDE83840FFF7DC
S3150800C35C97B80023C0E92F33C0E93133C0E933332A
S3150800C36C7047000082B0F0B5D0E930548D42069380
S3150800C37C65DD491B90F84060022E65D0A6F1050CC8
S3150800C38CDCF1000646EB0C060029D4BF0027012772
S3150800C39CB6EBD17F0CBF01FB01F30023B7426FF458
S3150800C3AC1C7633440CBF49430021002BD0F8CC60D3
S3150800C3BC4CDA334423EAE373C0F8CC306FF41C73BD
S3150800C3CC19440029D0F8D03048DA194421EAE17129
S3150800C3DC264B079E1B68C0F8D0109F69069B964291
S3150800C3ECA8BF1646711B9A42B8BF1A46002943F6CF
S3150800C3FCFF73B8BF494207FB01310029B8BFC918FA
S3150800C40C05EBA135131BB542D4BFC0F8C050C0F814
S3150800C41CC060002BB8BF5B4243F6FF7107FB0313E2
S3150800C42C002BB8BF5B18A4EBA333BDE8F0409342CE
S3150800C43CACBFC0F8C430C0F8C42002B070478C42F8
S3150800C44CB4BF091B002195E701269DE76FF000474D
S3150800C45CBF1B9F42D4BFF319F318ADE76FF0004624
S3150800C46CF61A8E42D4BF99195918B1E778230020C9
S3150800C47CD0E933301844054B1B685A6940F27123CE
S3150800C48C53439842D4BF00200120704778230020DC
S3150800C49CD0F81831026901339342C0F8183121BF1C
S3150800C4AC0023C0F81831012380F8B430D0F81821CD
S3150800C4BCD0F8B0309A4224BF002380F8B4307047C5
S3150800C4CC2DE9F0410446D0F81401E6680130B04273
S3150800C4DC28BF0023C4F8140128BFC4F81431204619
S3150800C4EC8846FFF700FEB4F974703D4600B17D42EC
S3150800C4FC94F8B4300BB922697ABB16B3002FA26D27
S3150800C50CB8BF7F42BFB202FB07F34FF47A72B3FB94
S3150800C51CF8F37343B3FBF2F3721E9342A8BF1346A8
S3150800C52CB4F95020BA42A8BF3A4600B15242D4F8E0
S3150800C53C14118B4208DDC3EB41014A4392FBF3F31A
S3150800C54C1D442846BDE8F081F61ACB1AA6EB430320
S3150800C55C5A4392FBF6F21544F3E71D46F1E7000041
S3150800C56C2DE9F04F164685B004468A46FFF790FF2C
S3150800C57C3146FFF7A5FF754B1D68814620466A684C
S3150800C58C4FF00A08B2FBF8FBFFF7ADFD2968B1FBC3
S3150800C59CF8FEA16AE369656BDE45A8BFDE4601FBBA
S3150800C5AC0EFEA16D4FF47A7201FB09F191FBF2F1C3
S3150800C5BCD4F8C82041F2883703FB0BF39EFBF7FE31
S3150800C5CC93FBF7F305FB0BF595FBF7F5071E18BF61
S3150800C5DCB046A9EB0A0008BF4FF000086A4303FBF4
S3150800C5EC00F348BFFF3203EB222240F6B835D4F8E5
S3150800C5FCBC30C4F8C82005FB0BF50EFB003E6842A0
S3150800C60C8645AAEB090C414403DB75452846A8BFA9
S3150800C61C704611444FF47A7590FBFBF20A44554365
S3150800C62C95FBF6F2B2F57A7FC4F8BC0005DDBCF1D1
S3150800C63C000F07DAC4F8BC3004E0002A02DABCF1B1
S3150800C64C000FF7DCB4F8B6509542A8BF154625EA94
S3150800C65CE575A9B22046FFF72BFE94F8B5102046CF
S3150800C66CFFF723FE94F8B5302BB9012384F8B530BF
S3150800C67C05B0BDE8F08F94F84020A16DB4F8B6303B
S3150800C68C022A4FEA410045D0052A43D04FF61842F4
S3150800C69C16FB02F2A3F57A7392FBF0F202924FF4B0
S3150800C6AC7A727343490893FBF2F35A4392FBF1F2FD
S3150800C6BC0392039B00934A4620465146029BFFF77A
S3150800C6CC51FEA16D4FF47A7201FB09F1754391FB8A
S3150800C6DCF2F995FBF2F504F1E4004FF4FA62A5EBD6
S3150800C6EC0805F43491FBF2F1FFB101F5FA718D42AC
S3150800C6FCD4BF00210121A9F1FA09FEF7C7FEB5EB53
S3150800C70C490FB4BF01210021204605B0BDE8F04F02
S3150800C71CFEF7BCBE002202924FF47A72734393FB67
S3150800C72CF2F35A4392FBF0F2C2E7A1F5FA718D4285
S3150800C73CACBF0021012109F1FA09FEF7A7FEB5EBFA
S3150800C74C490FCCBF01210021DEE700BF782300206A
S3150800C75C2DE9F04104460E461746FFF799FEB0F947
S3150800C76C745035B190F8B4501DB90569B5FA85F50C
S3150800C77C6D092046FFF7B7FC854214BFB4F8B6100E
S3150800C78C002180462046FFF793FD94F8B510204605
S3150800C79CFFF78BFD2046FFF7DCFD94F8B53023B97F
S3150800C7AC012384F8B530BDE8F081454514BF3D46F4
S3150800C7BC0025B8F1000F08BF0027A5EB07054FF4B5
S3150800C7CC7A7101FB05F5A16D95FBF1F505EBD577AE
S3150800C7DC04F1E4004FEA67074FEA450504F1F4044F
S3150800C7EC11D0323DB542D4BF00210121FEF74EFED1
S3150800C7FC07F13201B142ACBF002101212046BDE848
S3150800C80CF041FEF743BE3235B542ACBF00210121DB
S3150800C81CFEF73CFEA7F13201B142D4BF002101213B
S3150800C82CECE70000144B1B6870B55E680446FFF70E
S3150800C83C5BFD05462046FFF735FDB4F8B830C8B1A0
S3150800C84C0E48B0FBF6F0291A8B4203DB41199942C4
S3150800C85CA8BF194689B22046FFF72AFD94F8B510E9
S3150800C86C2046FFF722FD2046FFF75DFD012384F8DD
S3150800C87CB53070BD1946EDE77823002040420F000D
S3150800C88CF8B5A1F5006140F68D154D4348BF05F284
S3150800C89CFF7504461646ED12FFF725FC00283CD01A
S3150800C8AC6B421BB205F6CA01A4F88C3041F29413FC
S3150800C8BC994204F1D40794BF002101213846FEF7AA
S3150800C8CCE5FD1EB901213846FEF7DAFD94F86C60D1
S3150800C8DC2EBB00212046FFF7E8FC002384F8B53070
S3150800C8EC94F84030032B00F088804FF4FA712046F8
S3150800C8FCFFF7DEFC2046FFF716FD002DB8BF6D428C
S3150800C90C182D79DCD4F8D430002B75D004F5827048
S3150800C91C0121BDE8F840FEF7B9BD2BB2C2E7D4F841
S3150800C92C0421002AD5D194F84030591E01290BD977
S3150800C93C191F012947D8324B1B682946B3F98C2194
S3150800C94C2046FFF705FF07E02D4B1B682946B3F970
S3150800C95C8C212046FFF704FE2046FFF789FD50B1CF
S3150800C96CD4E933320A2192FBF1F0984236DD0623DC
S3150800C97C84F89C300026D4F8D4301BB9032284F8EA
S3150800C98C9C201E46D4F8E4301BB9012284F89C205E
S3150800C99C1E46D4F8F43043BB022384F89C3000219D
S3150800C9AC04F58270FEF76CFD94F84030032B0CBF2F
S3150800C9BCB4F8B830B4F97430C4F8A430B4F88C3080
S3150800C9CCA4F8AC3013E0032B03D12046FFF72AFF5B
S3150800C9DCC2E7072384F89C301646BDE793FBF1F3B0
S3150800C9EC9342CCBF05230423C2E7002ED7D0D4F834
S3150800C9FC0431002B7FF46DAFF8BDB4F8B81076E7A8
S3150800CA0C7823002038B503724FF47A738382384B37
S3150800CA1C8361436203634023C0E90012436318220F
S3150800CA2C344BC261C36340F6B832334B8262334A25
S3150800CA3C0025C0E91130324BC364C0E915250367DC
S3150800CA4C304A314B80F84050C0E91820C0E91E30F6
S3150800CA5C2E4A2F4B82662F4AA0F85050C0E9203038
S3150800CA6C2D4B80F86C50A0F87450C0F88830C0E98B
S3150800CA7C0355A0F88C50C0E92420284AC0F8982001
S3150800CA8CC0F8A830264A274BC0F8B4304FF4FA73CE
S3150800CA9C0446C0E92825A0F8B830C0E92F55C0E9E6
S3150800CAAC3155C0E9335580F89C50A0F8AC50C0F805
S3150800CABCB0502946D430FEF7EFFC294604F1E400C1
S3150800CACCFEF7EAFC294604F1F400FEF7E5FC2946D4
S3150800CADC04F58270FEF7E0FC2068C4E9455505F0BC
S3150800CAECEFFA2068294605F099FB204638BD00BFA9
S3150800CAFCFC930108909001080C940108F492010823
S3150800CB0C1C9401082C9401083C940108A090010877
S3150800CB1C4C9401085C940108EC9301086C94010888
S3150800CB2C7C9401080000DE0380687047002070477B
S3150800CB3C806870478068704780687047806870475F
S3150800CB4C806870478068704780687047806870474F
S3150800CB5C806870478068704780687047806870473F
S3150800CB6C806870470B4611468268934208D2406823
S3150800CB7C4FF48E7202FB03003C3003685B6818475F
S3150800CB8C002070470B4611468268934208D24068CB
S3150800CB9C4FF48E7202FB0300443003685B68184737
S3150800CBAC002070470B4611468268934208D24068AB
S3150800CBBC4FF48E7202FB03004C3003685B6818470F
S3150800CBCC002070470B4611468268934208D240688B
S3150800CBDC4FF48E7202FB0300543003685B681847E7
S3150800CBEC002070470B4611468268934208D240686B
S3150800CBFC4FF48E7202FB0300603003685B681847BB
S3150800CC0C002070470B4611468268934208D240684A
S3150800CC1C4FF48E7202FB0300683003685B68184792
S3150800CC2C002070470B4611468268934208D240682A
S3150800CC3C4FF48E7202FB0300703003685B6818476A
S3150800CC4C002070470B4611468268934208D240680A
S3150800CC5C4FF48E7202FB0300783003685B68184742
S3150800CC6C002070470B4611468268934208D24068EA
S3150800CC7C4FF48E7202FB0300803003685B6818471A
S3150800CC8C002070478368994207B519D240684FF45B
S3150800CC9C8E7303FB01004C3003681B68984701230D
S3150800CCACADF804008DF80630BDF80430002063F3A7
S3150800CCBC0F00BDF8063063F31F4003B05DF804FBA4
S3150800CCCC0023EFE78368994207B519D240684FF4F9
S3150800CCDC8E7303FB0100703003681B6898470123A9
S3150800CCECADF804008DF80630BDF80430002063F367
S3150800CCFC0F00BDF8063063F31F4003B05DF804FB64
S3150800CD0C0023EFE78368994207B519D240684FF4B8
S3150800CD1C8E7303FB0100883003681B689847012350
S3150800CD2CADF804008DF80630BDF80430002063F326
S3150800CD3C0F00BDF8063063F31F4003B05DF804FB23
S3150800CD4C0023EFE78368994207B519D240684FF478
S3150800CD5C8E7303FB0100A83003681B6898470123F0
S3150800CD6CADF804008DF80630BDF80430002063F3E6
S3150800CD7C0F00BDF8063063F31F4003B05DF804FBE3
S3150800CD8C0023EFE78B689A4210B504460DD2486823
S3150800CD9C4FF48E7303FB0200A03003681B68984798
S3150800CDAC012320602371204610BD0023FAE783680F
S3150800CDBC994207B519D240684FF48E7303FB0100EC
S3150800CDCC3C3003681B68984701238DF804008DF8DE
S3150800CDDC05309DF80430002063F307009DF80530F4
S3150800CDEC63F30F2003B05DF804FB0023EFE78368B9
S3150800CDFC994207B519D240684FF48E7303FB0100AC
S3150800CE0C983003681B68984701238DF804008DF841
S3150800CE1C05309DF80430002063F307009DF80530B3
S3150800CE2C63F30F2003B05DF804FB0023EFE7836878
S3150800CE3C994207B519D240684FF48E7303FB01006B
S3150800CE4C683003681B68984701238DF804008DF831
S3150800CE5C05309DF80430002063F307009DF8053073
S3150800CE6C63F30F2003B05DF804FB0023EFE7836838
S3150800CE7C994207B519D240684FF48E7303FB01002B
S3150800CE8C903003681B68984701238DF804008DF8C9
S3150800CE9C05309DF80430002063F307009DF8053033
S3150800CEAC63F30F2003B05DF804FB0023EFE78368F8
S3150800CEBC994207B519D240684FF48E7303FB0100EB
S3150800CECC783003681B6898470123ADF804008DF881
S3150800CEDC0630BDF80430002063F30F00BDF80630A9
S3150800CEEC63F31F4003B05DF804FB0023EFE7836888
S3150800CEFC994207B519D240684FF48E7303FB0100AB
S3150800CF0C803003681B6898470123ADF804008DF838
S3150800CF1C0630BDF80430002063F30F00BDF8063068
S3150800CF2C63F31F4003B05DF804FB0023EFE78B683F
S3150800CF3C9A4210B504460DD248684FF48E7303FB1B
S3150800CF4C0200443003681B6898470123206023714C
S3150800CF5C204610BD0023FAE78B689A4210B50446A2
S3150800CF6C0DD248684FF48E7303FB020054300368E5
S3150800CF7C1B689847012320602371204610BD0023A7
S3150800CF8CFAE78B689A4210B504460DD248684FF4F6
S3150800CF9C8E7303FB0200603003681B6898470123F5
S3150800CFAC20602371204610BD0023FAE7634A644BC0
S3150800CFBC2DE9F3412431C0E90321624AC0E906216F
S3150800CFCC614AC0E90921614AC0E90C21604AC0E9F5
S3150800CFDC0F21604AC0E912215F4AC0E915215F4A50
S3150800CFECC0E918215E4AC0E91B215E4AC0E9003136
S3150800CFFC0123836043610362C362836343640365ED
S3150800D00CC36583664367C0E91E21574AC0F880305A
S3150800D01CC0E92121554AC0F88C30C0E92421544A6C
S3150800D02CC0F89830C0E927210446C0F8A43000900F
S3150800D03C082769464F488DF804700A2600F04AFB03
S3150800D04C04F10C0369464C4800930C258DF80460D2
S3150800D05C00F040FB04F118036946484800938DF824
S3150800D06C045000F037FB04F1240369464448009346
S3150800D07C8DF8046000F02EFB04F130036946414834
S3150800D08C00938DF8046000F025FB072604F13C0399
S3150800D09C69463D4800938DF8046000F01BFB04F1CB
S3150800D0AC48036946394800934FF009088DF804502F
S3150800D0BC00F010FB04F154036946354800938DF8CB
S3150800D0CC048000F007FB04F16003694631480093BD
S3150800D0DC8DF8048000F0FEFA04F16C0369462E48BC
S3150800D0EC00938DF8045000F0F5FA04F178036946BC
S3150800D0FC2A4800938DF8046000F0ECFA04F18403D6
S3150800D10C6946274800938DF8047000F0E3FA04F199
S3150800D11C9003009369460D2322488DF8043000F0DD
S3150800D12CD9FA04F19C0369461F4800938DF80450FC
S3150800D13C00F0D0FA204602B0BDE8F081A0940108B0
S3150800D14C8C940108B4940108C8940108DC9401086D
S3150800D15CF094010804950108189501082C95010806
S3150800D16C4095010854950108689501087C950108B5
S3150800D17C909501082CAC01087CAD010874AD01082A
S3150800D18CACAD01088CAD01089CAC01086CAD01086E
S3150800D19C84AD0108F4AC0108C4AC0108CCAC010898
S3150800D1AC3CAD01089CAD0108A4AD0108704710B54B
S3150800D1BC04460846636811462278FDF7DDFF237A94
S3150800D1CC2BB123785A1E012393405840C01A10BD20
S3150800D1DC02460846918969B15369984203DB9369FB
S3150800D1EC8342A8BF0346B2F90A004343106993FB6E
S3150800D1FCF1F31844704743698B4205DC8069884211
S3150800D20CB4BF0020012070470020704770B50D464A
S3150800D21C0446114628461A46FFF7C9FFD5E90732D0
S3150800D22C014603EBC2029342184609D053F8086B21
S3150800D23C8E42F8D14368236001232371204670BDC2
S3150800D24C2846FFF7D8FF20B12846FFF7C1FF206014
S3150800D25CF2E72071F2E741617047000013B50C4BF9
S3150800D26C0C4A0360C368CDE9002004466946D868B1
S3150800D27C04F04DFC04F14C00FEF748FA04F11800D2
S3150800D28CFEF744FA2046FDF7A8FF204602B010BD6B
S3150800D29CA495010837D3000810B50446FFF7DEFF3E
S3150800D2AC20467421FEF7DAF9204610BD10B590F821
S3150800D2BC703004461BB1013B80F8703010BD036911
S3150800D2CC5B7B002BFAD001211830FEF7B3FA94F8E1
S3150800D2DC2C30002BF2D023691B696361EEE737B556
S3150800D2EC04460D4618300021FEF7A4FA21692A4691
S3150800D2FC0B7D68461831FFF789FF94F870309DF856
S3150800D30C045004F14C0063B985F00101FEF7D5F918
S3150800D31C4DB1236800991B69204603B0BDE830401F
S3150800D32C18470021F2E703B030BD4068FFF7D7BFB6
S3150800D33C7FB5044615460E46FDF758FF184B236075
S3150800D34C2B69AA7BA9686361C4E903656B7B04F145
S3150800D35C1800FEF788FAAA7B696804F14C00FEF7F8
S3150800D36CBBF92B7B84F870300E4AE068D5E90F318F
S3150800D37CCDE90224019A23F0004302F000421A4335
S3150800D38C009B019203F0004321F0004213430093E3
S3150800D39C01AA6B4602A903F0E7FC204604B070BD4F
S3150800D3ACA495010837D300087047036810B51B69A4
S3150800D3BC0446984730B104F110000021BDE810402E
S3150800D3CCFEF75EB810BD4068FFF7EFBF00211030BE
S3150800D3DCFEF756B8FFF7FABF10B504460121103010
S3150800D3ECFEF754F8236943B9236820465B699847C6
S3150800D3FC2046BDE81040FFF7E9BF10BDF0B504465E
S3150800D40C85B015460F461E46FDF7F0FE134B2360F6
S3150800D41C3146E76004F11000FEF73EF80B9A0A9BBA
S3150800D42C11680F4A1B68E068CDE90224019A23F0BB
S3150800D43C004302F000421A43009B019203F000439A
S3150800D44C21F0004213430093C4E904556B4601AA24
S3150800D45C02A903F089FC204605B0F0BDC095010869
S3150800D46CD3D3000813B5084B084A0360C368CDE943
S3150800D47C002004466946D86804F049FB2046FDF7A7
S3150800D48CACFE204602B010BDC0950108D3D30008E7
S3150800D49C704710B510210446FEF7E0F8204610BD7B
S3150800D4AC10B5034B03600446FDF797FE204610BDE6
S3150800D4BCF095010810B50446FFF7F2FF2046302117
S3150800D4CCFEF7CCF8204610BD70B50446C068036854
S3150800D4DC1B689847014604F11400FDF7D7FF6169EC
S3150800D4ECB1FA81F1490904F12400FDF7ADFF94F86E
S3150800D4FC28306BB1246923682046D3E90035984750
S3150800D50C80F001012B462046C9B2BDE87040184789
S3150800D51C70BD10B5002104461430FDF7B7FF04F1B1
S3150800D52C24000021BDE81040FDF78EBFFFF7F1BFC0
S3150800D53CF8B5044616460F461D46FDF757FE0A4B28
S3150800D54C23602946C4E9037604F11400FDF7A4FF09
S3150800D55C0023636284F8283084F82C3004F1240004
S3150800D56CFDF76AFF2046F8BDF095010880887047DC
S3150800D57CC3888B4205D803898B4202D3818001204C
S3150800D58C704700207047000010B5034B0360044633
S3150800D59CFDF723FE204610BD1896010810B5044663
S3150800D5ACFFF7F2FF20462021FEF758F8204610BD5B
S3150800D5BCF8B50446C06803681B68984704F1180751
S3150800D5CC267D207505463846FEF712F8A3693BB941
S3150800D5DC012E15D0A5B13846BDE8F840FDF7F4BFC5
S3150800D5EC012D0DD066B125692B682846D3E900367E
S3150800D5FC984780F00101C9B22846B0470023A361B9
S3150800D60CF8BD0000F8B504460F4616461D46FDF74C
S3150800D61CEDFD064B23600021C4E9037621752A46E5
S3150800D62C04F11800FDF7CDFF2046F8BD1896010841
S3150800D63C0220704704207047034B1868D0F8103244
S3150800D64C00F504701B6818475C23002008680368FB
S3150800D65C9B681847086808B503689B689847400094
S3150800D66C08BD086808B503689B689847800008BD1C
S3150800D67C086803689B681847086808B503689B68B8
S3150800D68C9847400008BD086808B503689B68984722
S3150800D69C800008BD012070470420704701207047A0
S3150800D6AC0120704702207047086803689B68184772
S3150800D6BC07B5037A064AFF2B08BF4FF0FF33011D47
S3150800D6CC52F8233001A8984703B05DF804FB00BF55
S3150800D6DC9896010870B5064610200D46FDF7B0FF62
S3150800D6EC0346044695E8030043F8046B83E80300F5
S3150800D6FC0023A381E381034B2146186800F0BCFC88
S3150800D70C204670BD5C23002010B50468FFF794FF13
S3150800D71C0444A07810BD73B50446086816680D460F
S3150800D72CFFF7F2FF18B92071204602B070BD6A687F
S3150800D73C336812681B683146684698479DF804306A
S3150800D74C13B1009B236001232371EDE773B50446DF
S3150800D75C086816680D46FFF7D7FF18B920712046DA
S3150800D76C02B070BD6A68336811681B683046984702
S3150800D77C10F47F0F0190C0F307431EBFBDF90430A8
S3150800D78C236001232371EAE773B504460868166813
S3150800D79C0D46FFF7B9FF18B92071204602B070BDC7
S3150800D7AC6A68336811681B683046984710F47F4FCF
S3150800D7BCADF80400C0F307231EBF9DF9043023609F
S3150800D7CC01232371E9E773B50446086816680D4604
S3150800D7DCFFF79AFF18B92071204602B070BD6A6827
S3150800D7EC336812681B683146684698479DF80430BA
S3150800D7FC13B1009B236001232371EDE773B504462F
S3150800D80C086816680D46FFF77FFF18B92071204681
S3150800D81C02B070BD6A68336811681B683046984751
S3150800D82C10F47F0F0190C0F307431EBFBDF80430F8
S3150800D83C236001232371EAE773B504460868166862
S3150800D84C0D46FFF761FF18B92071204602B070BD6E
S3150800D85C6A68336811681B683046984710F47F4F1E
S3150800D86CADF80400C0F307231EBF9DF804302360EF
S3150800D87C01232371E9E773B50446086816680D4653
S3150800D88CFFF742FF18B92071204602B070BD6A68CE
S3150800D89C336811681B683046984710F47F4FADF80B
S3150800D8AC0400C0F307231EBF9DF804302360012330
S3150800D8BC2371E9E770B50446086816680D46FFF744
S3150800D8CC23FF10B92071204670BD6B681B683BB9E5
S3150800D8DC336830461B689847012320602371F2E7AA
S3150800D8EC0023FBE770B50446086816680D46FFF773
S3150800D8FC0BFF10B92071204670BD6B681B683BB9CD
S3150800D90C336830461B689847012320602371F2E779
S3150800D91C0023FBE770B50446086816680D46FFF742
S3150800D92CF3FE10B92071204670BD6B681B683BB9B5
S3150800D93C336830461B689847012320602371F2E749
S3150800D94C0023FBE770B50446086816680D46FFF712
S3150800D95CDBFE10B92071204670BD6B681B683BB99D
S3150800D96C336830461B689847012320602371F2E719
S3150800D97C0023FBE770B50446086816680D46FFF7E2
S3150800D98CC3FE10B92071204670BD6B681B683BB985
S3150800D99C336830461B689847012320602371F2E7E9
S3150800D9AC0023FBE770B50446086816680D46FFF7B2
S3150800D9BCABFE10B92071204670BD6B681B683BB96D
S3150800D9CC336830461B689847012320602371F2E7B9
S3150800D9DC0023FBE770B50446086816680D46FFF782
S3150800D9EC93FE10B92071204670BD6B681B683BB955
S3150800D9FC336830461B689847012320602371F2E789
S3150800DA0C0023FBE710B50468FFF716FE04442079DB
S3150800DA1C10BD70B5044600680D68FFF7F3FF68B1D2
S3150800DA2C63681B6853B9A36819682B6800392846BC
S3150800DA3C5B68BDE8704018BF01211847002070BD0F
S3150800DA4C70B5044600680D68FFF7DCFF50B16368D3
S3150800DA5C1B683BB9A2682B6811785B682846BDE839
S3150800DA6C70401847002070BD70B5044600680D68F4
S3150800DA7CFFF7C8FF50B163681B683BB9A2682B68EF
S3150800DA8C11885B682846BDE870401847002070BDB1
S3150800DA9C70B5044600680D68FFF7B4FF50B16368AB
S3150800DAAC1B683BB9A2682B6811685B682846BDE8F9
S3150800DABC70401847002070BD70B5044600680D68A4
S3150800DACCFFF7A0FF58B163681B6843B9A2682B68B7
S3150800DADC92F900105B682846BDE87040184700208C
S3150800DAEC70BD70B5044600680D68FFF78BFF58B11A
S3150800DAFC63681B6843B9A2682B68B2F900105B68A7
S3150800DB0C2846BDE870401847002070BD70B504461D
S3150800DB1C00680D68FFF776FF50B163681B683BB960
S3150800DB2CA2682B6811685B682846BDE870401847E0
S3150800DB3C002070BD70B5044600680D68FFF762FFDB
S3150800DB4C60B1A36861681A682B6809685B68003A53
S3150800DB5C284618BF0122BDE87040184770BD70B53D
S3150800DB6C044600680D68FFF74DFF48B1D4E9011269
S3150800DB7C2B6812785B6809682846BDE87040184718
S3150800DB8C70BD70B5044600680D68FFF73BFF48B1D9
S3150800DB9CD4E901122B6812885B6809682846BDE827
S3150800DBAC7040184770BD70B5044600680D68FFF7DD
S3150800DBBC29FF48B1D4E901122B6812685B68096819
S3150800DBCC2846BDE87040184770BD70B50446006815
S3150800DBDC0D68FFF717FF50B1D4E901122B6892F9BB
S3150800DBEC00205B6809682846BDE87040184770BD78
S3150800DBFC70B5044600680D68FFF704FF50B1D4E908
S3150800DC0C01122B68B2F900205B6809682846BDE842
S3150800DC1C7040184770BD70B5044600680D68FFF76C
S3150800DC2CF1FE48B1D4E901122B6812685B680968E1
S3150800DC3C2846BDE87040184770BD03689B790BB140
S3150800DC4CFFF7E0BE184670471FB501AB03930B7A76
S3150800DC5CFF2BCDE9012108BF4FF0FF33044A52F8D8
S3150800DC6C23300A1D02A904469847204604B010BD65
S3150800DC7C6096010830B587B001ABCDE90432037A5A
S3150800DC8C0C4A0191FF2B08BF4FF0FF330390011D7F
S3150800DC9C52F82330044603A89847054638B120465F
S3150800DCACFFF7CBFF18B1A38901339BB2A381284692
S3150800DCBC07B030BD289601080120704737B50446D1
S3150800DCCC00F5067006F090FED4F85C15D4F85835B5
S3150800DCDC11F0010F4FEA61016D4618BF62582846CC
S3150800DCEC214418BFD358984795E8030004F5AB644C
S3150800DCFC84E8030003B030BD4368184710B5EFF34A
S3150800DD0C1083DB4303F0010372B6B1F86425B1F84E
S3150800DD1C664592B2A4B2A24209D1B1F86825B1F807
S3150800DD2C6A4592B2A4B2A2420DD10B4A05E0A1F8FB
S3150800DD3C6625012281F86C25084A02600022426099
S3150800DD4C43B162B610BDA1F86A25012281F86C258B
S3150800DD5C034AF2E772B6F5E709DD0008F5DD0008B7
S3150800DD6CBDDD0008D0E90313044A914206BFB3FA95
S3150800DD7C83F04009002080F00100704749380108FB
S3150800DD8C38B5044601F509700D46FFF7EBFF30B9B7
S3150800DD9C054B85F86C05C4E90030204638BD034BA5
S3150800DDAC236000236360F8E709DD00088DDD0008B1
S3150800DDBC70B5044601F5097001F50676FFF7D2FF32
S3150800DDCC054628B1064B236000236360204670BDC8
S3150800DDDC304607F005FA034BC4E90035F6E700BFF1
S3150800DDECBDDD00088DDD000838B5044601F509705F
S3150800DDFC0D46FFF7B7FF08B1104B0AE0D5F80C3201
S3150800DE0C05F10C0202EB8302D5F860359A4205D16E
S3150800DE1C0B4B236000236360204638BD53F8041B64
S3150800DE2CC5F860358B89C8899BB280B28342EBD022
S3150800DE3CCB8105F5067007F08BF9DDE7F5DD0008F3
S3150800DE4CBDDD00080B681968136808881B681B88F1
S3150800DE5C98422CBF002001207047D0F80C3270B5C0
S3150800DE6C00F10C0404EB830043F31D03002B0EDDB9
S3150800DE7C5A1004EB820554F82260366836888E42AE
S3150800DE8C3EBF9A1A02F1FF322C1D1346EEE7A0424A
S3150800DE9C06D0206803681B888B4288BF002070BD9B
S3150800DEAC0020FCE700F5067007F00EB9D0F80C3226
S3150800DEBC70B500F10C05044605EB8306B54205D092
S3150800DECC55F8041B2046FFF7EDFFF7E770BD00F188
S3150800DEDC0C03C0F86035B0F8643501339BB2A0F872
S3150800DEEC6435012380F86C357047D0F80C3270B560
S3150800DEFC00F10C04054604EB8306A6420AD02068FA
S3150800DF0CFFF79BFE20B12268938901339BB293815C
S3150800DF1C0434F2E72846BDE87040FFF7D8BF10B5C1
S3150800DF2C044600F5067007F060F9B4F86835013355
S3150800DF3C9BB2A4F86835012384F86C3510BD000033
S3150800DF4C73B50446FDF752F91A4B1C601A4B23603D
S3150800DF5C1A4BC4F81032012384F81432184B009368
S3150800DF6C184B0193002502AB04F5067613E9060057
S3150800DF7CC4F80C52304607F03BF9D4F80C22124B75
S3150800DF8CC4F8583504F10C0303EB8203A4F8645562
S3150800DF9CC4F85C55A4F86655C4F86035A4F86855F9
S3150800DFAC84F86C55A4F86A55304607F075F820467F
S3150800DFBC02B070BD5C230020D8960108A090010819
S3150800DFCC05DD0008C5DC000809DD00082DE9F74F5A
S3150800DFDCD1F80042002307460E46914603600371AA
S3150800DFEC01EB840A44F31D080D46B8F1000F12D054
S3150800DFFC4FEA580B05EB8B014A4630460191FFF761
S3150800E00C21FF019928B108F1FF380D1DA8EB0B0863
S3150800E01CEBE7D846E9E7AA4505D10123802C3B71E5
S3150800E02C1FD10AF06FFF2A4649463046FFF70AFF0A
S3150800E03CE8B10123802C3B71F3D0524652F8043DCB
S3150800E04C46F82430521B04F10104C6F8004204D0E9
S3150800E05C2946AAEB02000AF089FFD9F800302B6092
S3150800E06C05E0D9F800302B600134C6F80042384672
S3150800E07C3D6003B0BDE8F08F1FB50446019101AAB7
S3150800E08C00F10C0102A8FFF7A1FF01990B689B7917
S3150800E09C13B12046FFF706FF04B010BD10B5074BA9
S3150800E0AC0360044600F5067007F0BAF8044B002224
S3150800E0BC20461A60FDF791F8204610BDD89601083F
S3150800E0CC5C23002010B50446FFF7E8FF20464FF402
S3150800E0DCAE61FDF7C3FA204610BD80887047818073
S3150800E0EC012070474368188A7047000010B5034B27
S3150800E0FC03600446FDF771F8204610BD1097010819
S3150800E10C10B50446FFF7F2FF20462421FDF7A6FAC0
S3150800E11C204610BD0346C068198A1A8C03688A1AE9
S3150800E12C51425B685141184708B5038C23B10182EB
S3150800E13CFFF7F0FF012008BD1846FCE74068FFF71B
S3150800E14CF3BF000037B50446FDF750F8174B2360AC
S3150800E15C174B18491B681848002203F50473C4E9C1
S3150800E16C0514164922822284E360E16169468DF81A
S3150800E17C042000930225FFF7ADFA04F1140369464F
S3150800E18C0F4800938DF80450FFF7A4FA04F11C030A
S3150800E19C69460C4800938DF80450FFF79BFA204605
S3150800E1ACFFF7B8FF204603B030BD00BF1097010833
S3150800E1BC5C230020F096010834AA01080097010890
S3150800E1CC6CAA01082CAB01087047406803681B68E9
S3150800E1DC1847406803681B68184700797047C36876
S3150800E1EC80689B00043B1844704708B5C3681BB18C
S3150800E1FCFFF7F5FF408808BD1846FCE710B5D0E9CF
S3150800E20C023203EB82029342184605D033F9044BCB
S3150800E21C8C42F8D1408810BD0020FCE7D0E90232C8
S3150800E22C03EB82029342194607D05888632803F1F8
S3150800E23C0403F7D8B1F9000070470020704703466D
S3150800E24CC06858B19B6803EB80010020994205D041
S3150800E25C5A88904238BF10460433F7E7704740682F
S3150800E26C7047808870478368994205D3C36899427A
S3150800E27C02D84160012070470020704710B5034B47
S3150800E28C03600446FCF7A9FF204610BD80970108D9
S3150800E29C10B50446FFF7F2FF20466421FDF7DEF9B8
S3150800E2AC204610BD10B50446806D70B1E068036851
S3150800E2BC1B68984723694343A06DB3FBF0F043F6FC
S3150800E2CC9823984228BF184680B210BDD0E90B2374
S3150800E2DC9B1A5810002BB8BF1630704770B50446F9
S3150800E2EC1830FFF7F3FF002104F14402884208D0E6
S3150800E2FC636C0233934201D32C3BFBE76364013115
S3150800E30CF4E7002304F144061D46994209D0A06C93
S3150800E31C821CB24201D32C3AFBE705800133A26476
S3150800E32CF3E70023A4F8503070BDFFF7D7BF126887
S3150800E33C2DE9F0430468023A944225D20F68B7F8DF
S3150800E34C00902546134628462E4630F802EBCE4555
S3150800E35C18D39C46BCF80080C8456346ACF1020C41
S3150800E36CF8D8AB4207D3844520F8028C0646A3F8A6
S3150800E37C00E0634606D29F4288BF3446B74238BF90
S3150800E38C1A46D9E70546DEE7BDE8F0837FB5C36ACA
S3150800E39C01905D1E25F0010500EB43024119DB07D0
S3150800E3ACCDE90221044602AA03A901A815D4FFF750
S3150800E3BCBEFFE36A665B019423F0010562190392BA
S3150800E3CC04EB430301A802AA03A90293FFF7AFFFC4
S3150800E3DC605B3044400804B070BDFFF7A8FF605B73
S3150800E3ECF9E7D0E90023D26A934236BF03F12C0031
S3150800E3FC981A801A4010704770B590B000260446DB
S3150800E40C0F96FFF763FF1528054601D90AF07AFD22
S3150800E41C20B14200314604A80AF0C2FD0F95D4E992
S3150800E42C0B536846CDE90243CDE90045FFF7D9FF02
S3150800E43C064602A8FFF7D5FF2C34801B04AB002830
S3150800E44C09DD35F8022B23F8022BA54201D32C3D06
S3150800E45CFBE70138F3E704A8FFF798FF10B070BD87
S3150800E46C10B50446FFF71EFFA36C0246023B04F1E7
S3150800E47C1800984201D92C33FBE7A364636C023B62
S3150800E48C984201D92C33FBE71A806364FFF7B4FF73
S3150800E49CA4F8500010BD15292DE9F04128BF152107
S3150800E4AC00F104080129044640460D46174638BFB4
S3150800E4BC0125FFF70BFF2E1A324604F13001002A0C
S3150800E4CC0EDB002EA0EB0501C8BF0021314404F178
S3150800E4DC300091B1626B931C83420AD32C3BFBE749
