S01E00007372632F6C636D332F6170702F6C636D332D626173652E737265634A
S3150800900000100020E9920008ED920008F39200088B
S315080090100D930008139300082D9300080000000024
S31508009020FFFFFFFF00000000000000004793000854
S315080090304D93000800000000539300085993000858
S31508009040A1040108B1040108C1040108D1040108FA
S31508009050E1040108F10401080105010811050108E8
S3150800906021050108310501084105010851050108D6
S3150800907061050108710501088105010891050108C6
S31508009080A1050108B1050108C1050108D1050108B6
S31508009090E1050108F10501080106010811060108A4
S315080090A02106010831060108410601085106010892
S315080090B06106010871060108810601089106010882
S315080090C0A1060108B1060108C1060108D106010872
S315080090D0E1060108F1060108010701081107010860
S315080090E0210701083107010841070108510701084E
S315080090F0610701087107010881070108910701083E
S31508009100000000000000000000000000A1070108A0
S31508009110B1070108C1070108D1070108E1070108DD
S31508009120F1070108010801081108010821080108CA
S31508009130310801084108010800000000000000008D
S3150800914051080108610801087108010800000000BB
S315080091500000000000000000000000000000000001
S3150800916000000000000000008108010891080108BD
S31508009170A10801080000000000000000000000002F
S30D0800918000000000B108010817
S31508009188663365663763380070B52B4CA36A43F0B7
S315080091988053A362A36A23F08053A362636943F0EA
S315080091A880536361E36A23F4F873E362E36A43F47A
S315080091B88073E362BFF34F8F204DAB6823F04053AB
S315080091C8AB60AB6842F2107043F08053AB6000F0B6
S315080091D8A3FBAB6843F00043AB60AB68002BFCDB32
S315080091E8382000F099FBAB68154843F00103AB60DB
S315080091F807F0D4FDC1232B630026AB684FF47A70B9
S3150800920843F00403AB6000F087FB2B685B07FCD5CB
S315080092182B6CB3F5946FF0D30136642EEDD1A36A9F
S3150800922843F08053A362A36A23F08053A362636959
S3150800923823F08053636170BD00100240000000509F
S31508009248604F02081C4B1A6822F450221A601A68E2
S3150800925842F480321A601A689103FCD5174A5201FB
S3150800926802F18442012111604FF480625A60144A5F
S31508009278116821F0040111606FF07F41516011688F
S3150800928841F0010111600F4A5A600022DA621A6831
S3150800929842F080721A601A689201FCD50A4A1221AD
S315080092A811605A6842F002025A605A6802F00C02C3
S315080092B8082AFAD1704700BF00100240241002405D
S315080092C810E000E0000411000020024008B506F08E
S315080092D8EFFCFFF7B7FFBDE80840FFF755BF00BF2B
S315080092E81C48004708B509F0ABFC1EF0040F0CBF74
S315080092F8EFF30880EFF309807146174A104708B557
S3150800930809F09EFC08B509F09BFC1EF0040F0CBF7B
S31508009318EFF30880EFF309807146104A104708B53D
S3150800932809F08EFC1EF0040F0CBFEFF30880EFF36C
S31508009338098071460A4A104708B509F081FC08B53C
S3150800934809F07EFC08B509F07BFC08B509F078FC3D
S31508009358704700006D9300080793000827930008D4
S315080093684193000808B5FFF7B1FF1D4A1D48824218
S3150800937817D31D4A1D4900208A421DD30BF08EF8C3
S315080093881B4D1C4B5B1B9C100026B4421DDC1A4D5A
S315080093981A4B5B1B9C100026B4421BDC06F06CFCBF
S315080093A8FEE7D2E9001394680C32C91A9C42DED942
S315080093B85D5843F8045BF9E752F8083B52F8044C41
S315080093C89C42D9D943F8040BFAE755F8043B984761
S315080093D80136DAE755F8043B98470136DCE700BF5B
S315080093E80894000814940008149400081C940008AB
S315080093F81C9400081C9400081C940008289400086B
S31508009408C89302080010002018130020181300201B
S31508009418C83D00201D450108C5AC0108F1AC010886
S31508009430007970470020704700207047B0F9040093
S315080094407047002070470079704701710120704706
S3150800945010B50446406807F041FD237B5840C0B26A
S3150800946010BD10B50446406807F046FD237A5840FB
S31508009470C0B210BD08B5037A4068594007F036FDFA
S31508009480012008BD1268F0B50468023A944200D378
S31508009490F0BDB1F900E020461346054630F9027BD7
S315080094A0BE45FADC1E46B6F900C0E6453346A6F1C7
S315080094B00206F8DB9D4206D8864220F802CC05460D
S315080094C01F803346E9D2994288BF2C46A94238BF45
S315080094D01A46DBE7F8B5214B0360214BC0F8CC35BB
S315080094E0204BC0F8F035044600F5BE600AF0F3FDDF
S315080094F004F2CC500AF0EFFD04F29C5007F0A0FEEF
S3150800950004F5AB6007F0E8FF04F5A56007F0E4FF93
S31508009510154E04F20C5504F21C47AF4205D045F827
S315080095203C6D28460AF0D7FDF7E7104BC4F83032F1
S3150800953004F50C700AF0CFFD04F5907007F02EFCC8
S3150800954004F5867007F09CFA04F5807007F098FA1F
S3150800955020460AF055FE2046F8BD00BFDC4D02083D
S315080095602051020808510208F0500208C065020896
S3150800957010B50446FFF7AEFF20464FF4C0610AF067
S31508009580C7FF204610BD2DE9F341456915F0010FC7
S31508009590044605F1FF3600EB450721D14FEA560888
S315080095A026F001010144CDE9000701AA6846FFF744
S315080095B069FF34F9186025F001014FEA5508684635
S315080095C001AA2144CDE90047FFF75CFF34F91800EA
S315080095D0304400EBD07040F34F0002B0BDE8F08194
S315080095E0CDE90007811901AA6846FFF74BFFA05F7E
S315080095F0F3E7F0B5D0E9064787B0002305933B1B90
S315080096005D10002BB8BF0B350A2D064601D915F09B
S31508009610E5FC25B16A000021684615F015FD05959B
S315080096206B461636BC4204D16846FFF7ACFF07B056
S31508009630F0BD34F9022B23F8022BB442F2D3163CC0
S31508009640FBE7F8B50446D0E907300A2928BF0A21FE
S315080096500129A0EB030038BF012143100028B8BF39
S315080096600B33CD1A2E4604F11A07002E0EDB002DF9
S31508009670A3EB0103C8BF00232B4404F11A0673B9F0
S315080096801DB1201DFFF7B5FF2085F8BDE069023042
S31508009690B84202D2E0610136E7E71638F8E7206AF1
S315080096A0811CB14203D20280013B2162E7E71639E9
S315080096B0F7E700002DE9F84F04460AF06FFD684BFE
S315080096C0236007F01DFF674BA3616749207704F104
S315080096D0200006F0E3FB1622002104F1D80015F05D
S315080096E0B3FC0025614BC4F8F830C4E93C0042F6E7
S315080096F0E0620A2104F1D400C4F8FC50FFF7A1FF88
S315080097005B4ADFF870A1DFF870B104F1200104F5B7
S31508009710807007F0A7F9594A04F1200104F586700C
S3150800972007F0A0F904F1200104F58C7006F038FD65
S3150800973004F59277524904F5907007F01DFB514ADB
S3150800974004F59071384607F06FFA4F4A394604F522
S315080097500C7007F011FE04F21C4704F51E7000F0A9
S31508009760D1FC4A49384600F0C5FE494904F58B60E4
S3150800977000F0C0FE474904F2944000F0BBFE46499B
S3150800978004F59A6000F0B6FE444BC4F80C35444B19
S315080097904448C4F81435012384F81835C4F810056C
S315080097A007F000FB4048C4F82005C4F81CA584F857
S315080097B0245507F0F7FA294604F21C50FFF75AFE1B
S315080097C03A4904F5A56007F02FFE394904F5AB6060
S315080097D007F02AFE3748C4F88C05C4F888A584F82B
S315080097E0905507F0DFFA294604F5B160FFF742FE07
S315080097F0314904F2945007F09FFB304904F29C501B
S3150800980007F08EFC04F2CC5000F078FF242D1BD113
S315080098102B4B2C4A1A6004F2CC5120460AF098FCCD
S3150800982004F50C7120460AF093FC04F20C55AF427D
S3150800983010D104F1200006F0F3FA04F5907007F051
S3150800984095FA2046BDE8F88F0BEB050007F0AAFA53
S315080098500C35DBE7394620460AF07AFC3C37E6E762
S31508009860DC4D0208CC4D0208404E0208BC4D0208E9
S31508009870284E0208AC4D0208EC4D0208104E0208AC
S3150800988000000040244F0208184F0208B04E020894
S31508009890BC4E0208C84E0208D44E02089C4D020867
S315080098A08C4D0208484F0208544F0208944E02088D
S315080098B06C4E02083C4F0208044F0208484E020844
S315080098C020000140C100030010B504460AF022FC3E
S315080098D0D4F8F430B4F9002404F1D800023B9842D5
S315080098E019D8C4F8F430D4F8F030023B984214D8AA
S315080098F01A80C4F8F030FFF77CFEB0F5165FA4F8BE
S31508009900FC0002DA072007F0E9FD04F12000BDE8B3
S31508009910104006F049BA1633E1E71633E6E70000C9
S3150800992038B50E4B0E4C9842A5680DD800EBC00012
S315080099304FF47A73B0FBF3F00230A368EB1A23F006
S315080099407F439842F9D838BD09214FF47A7200232B
S31508009950A0FB010115F0A0F9EEE700BF1BC7711CBB
S3150800996010E000E038B51C4652B91B681D690B6843
S3150800997008461B68984701462046A847012038BD77
S315080099800020FCE713B50C466AB91A680DF1060102
S315080099901846126990472368BDF806105B6820468A
S315080099A0984702B010BD0020FBE738B51C4652B9EF
S315080099B01B681D680B6808461B68984701462046C1
S315080099C0A847012038BD0020FCE713B50C466AB944
S315080099D01A680DF1070118461268904723689DF822
S315080099E007105B682046984702B010BD0020FBE7C9
S315080099F038B51C4652B91B689D690B6808461B6832
S31508009A00984701462046A847012038BD0020FCE7B4
S31508009A1013B50C465AB91A6801A9184692699047AF
S31508009A20236801995B682046984702B010BD00205C
S31508009A30FBE738B51C4652B91B68DD680B68084653
S31508009A401B68984701462046A847012038BD0020D4
S31508009A50FCE713B50C466AB91A680DF106011846F3
S31508009A60D26890472368BDF906105B682046984778
S31508009A7002B010BD0020FBE713B50C4672B91A6890
S31508009A800DF1070192681846904723689DF807105C
S31508009A905B68204602B0BDE810401847002002B0B7
S31508009AA010BD10B51C4652B90B6808461B68984786
S31508009AB0236801469B6820469847012010BD002070
S31508009AC0FCE770B50D461646044610200AF014FD4C
S31508009AD033462A462146BDE870400AF08FBE70B567
S31508009AE00D461646044610200AF006FD33462A4659
S31508009AF02146BDE870400AF081BE000038B50C4624
S31508009B0001F51E7105460DF031FC04F58071424AD7
S31508009B104248FFF7E4FF04F58C713F4A4048FFF7D7
S31508009B20DEFF04F57F713C4A3E48FFF7D8FF04F193
S31508009B30F801394A3C48FFF7D2FF04F58671364AE0
S31508009B403A48FFF7CCFF10200AF0D6FC04F5147249
S31508009B50374B38490AF052FE10200AF0CDFC364B36
S31508009B60364904F118020AF049FE04F22C41344A37
S31508009B703448FFF7A6FF04F58D61314A3248FFF7EE
S31508009B80A0FF04F2A4412E4A3048FFF79AFF04F5D5
S31508009B909C612B4A2E48FFF794FF04F58A61284AF0
S31508009BA02C48FFF78EFF04F28C41254A2A48FFF716
S31508009BB088FF04F59961224A2848FFF782FF04F2D4
S31508009BC004511F4A2648FFF77CFF10200AF094FC30
S31508009BD004F5A562234B24490AF010FE10200AF06A
S31508009BE08BFC204B214904F5AB620AF007FE04F50D
S31508009BF0B161134A1E48FFF764FF04F20C51104A7C
S31508009C001C48FFF75EFF0E4A1B4804F21C51FFF77B
S31508009C1058FF284638BD00BFE04F02082850020802
S31508009C2024500208205002081C5002081850020846
S31508009C30DC4F02082C500208D84F020830500208A0
S31508009C40D44F0208145002080C50020804500208A7
S31508009C50FC4F02081050020808500208005002087B
S31508009C60F84F0208D04F0208F44F0208E44F0208E2
S31508009C70F04F0208EC4F0208E84F020810B50446F8
S31508009C800DF064FC204610BD38B5D0F88030044687
S31508009C901B6880300D46984768B9084BA5F6BB2265
S31508009CA09A4207D8B4F85431C4F858510133A4F885
S31508009CB05431012038BD0020FCE700BF65B402001E
S31508009CC000207047406870474068FFF7DDBF12689C
S31508009CD0F0B50468023A944200D3F0BDB1F900E049
S31508009CE020461346054630F9027BBE45FADC1E4679
S31508009CF0B6F900C0E6453346A6F10206F8DB9D42F2
S31508009D0006D8864220F802CC05461F803346E9D29B
S31508009D10994288BF2C46A94238BF1A46DBE74368F2
S31508009D201868704743681868B0FA80F040097047A9
S31508009D308268C368022A03F1010338BF02229342EC
S31508009D4028BF0023C3607047294B984205D1294A8A
S31508009D50936943F40063936107E0274B984207D160
S31508009D60244AD36943F00103D361BFF34F8F704789
S31508009D70224B984204D11F4AD36943F00203F3E702
S31508009D801F4B984204D11B4AD36943F00403EBE7FF
S31508009D901C4B984204D1174AD36943F01003E3E7F2
S31508009DA0194B984204D1134AD36943F02003DBE7E1
S31508009DB0164B984204D10F4A936943F40053CAE7F5
S31508009DC0134B984204D10B4A936943F48033C2E794
S31508009DD0104B984204D1074A936943F40033BAE713
S31508009DE00D4B9842C1D1034A936943F48023B2E7E5
S31508009DF0002C014000100240000000400004004012
S31508009E0000080040001000400014004000340140E3
S31508009E10004001400044014000480140EFF3108231
S31508009E20D24302F0010272B6114BD96821F0010142
S31508009E30D960198821F001011980D96A0139596256
S31508009E40198841F0010119801988C906FCD581686D
S31508009E50022938BF02210239C16000211961D96877
S31508009E6041F00101D9600AB162B6704772B670470F
S31508009E7000080040124B1A88C368DB43C2F300127D
S31508009E8003F001039A4210B5044601D1FFF750FFCB
S31508009E900C4B1A6822F001021A600B4A0F21516016
S31508009EA0E16802225A6004F59A7202EB8102DA60CE
S31508009EB0064A0121D1601A680A431A6010BD00BF1C
S31508009EC00008004008040240000402400001005057
S31508009ED008B50A4B5A68022A05D01A6822F0010208
S31508009EE01A60FFF7C7FF064A936843F004039360B6
S31508009EF0044B6FF001021A6108BD00BF0804024056
S31508009F0000010050000800404068FFF7E1BF00006C
S31508009F10B0F85431B0F856219BB292B2934270B55C
S31508009F20044651D0D0F85811A0F8563146F2A81375
S31508009F30994283BF01F543434F334CF25032012314
S31508009F4084BFB3FBF2F35B00016083604FF4FA72DF
S31508009F504D001E4EB5FBF3F3436042F20F7002FB51
S31508009F600100B04284BF42F21072B0FBF2F26261A5
S31508009F704FF4FA02B2FBF3F3FA22A36142F20F732B
S31508009F8002FB0133124942F210723431B3FBF2F389
S31508009F900022C4F898310F4BB3FBF5F3236141F85F
S31508009FA0083C5B08102A02D08B500432FAE704F109
S31508009FB024000CF0A7FB04F124000CF0BBFB2046A0
S31508009FC0BDE87040FFF72ABF70BD00BF3F4B4C008D
S31508009FD000080040002A75152DE9F341456915F07A
S31508009FE0010F044605F1FF3600EB450721D14FEA7C
S31508009FF0560826F001010144CDE9000701AA684682
S3150800A000FFF765FE34F9186025F001014FEA550897
S3150800A010684601AA2144CDE90047FFF758FE34F9FE
S3150800A0201800304400EBD07040F34F0002B0BDE892
S3150800A030F081CDE90007811901AA6846FFF747FEB6
S3150800A040A05FF3E7F0B5D0E9054787B0002305938D
S3150800A0503B1B5D10002BB8BF0A35092D064601D9F2
S3150800A06014F0BCFF25B16A000021684614F0ECFF25
S3150800A07005956B461436BC4204D16846FFF7ACFF1B
S3150800A08007B0F0BD34F9022B23F8022BB442F2D301
S3150800A090143CFBE7F8B50446D0E90630092928BF81
S3150800A0A009210129A0EB030038BF0121431000282C
S3150800A0B0B8BF0A33CD1A2E4604F11807002E0EDB58
S3150800A0C0002DA3EB0103C8BF00232B4404F1180697
S3150800A0D073B91DB1201DFFF7B5FFA084F8BDA069AF
S3150800A0E00230B84202D2A0610136E7E71438F8E731
S3150800A0F0E069811CB14203D20280013BE161E7E7D6
S3150800A1001439F7E72DE9F041634B644A86B00446F3
S3150800A11000254CF25037C0E907300760604B85616F
S3150800A120C0E90455014604F59A76009524300CF0EA
S3150800A130F9FE20222946304614F086FFA4F8545129
S3150800A140C4F8587114222946A4F8565104F5B0707B
S3150800A15014F07AFF534FC4F88051C4E95D0042F603
S3150800A160E0620921C4F87C7104F5AE70FFF792FF2E
S3150800A17042F6E063C4E961752268A4F888314A4B5F
S3150800A180C4F88C31FA2142F20F7301FB023342F212
S3150800A1901071B3FBF1F3C4E96533444BC4F89C3141
S3150800A1A004F5CA73C4F8A03104F5AA739B1BAB4225
S3150800A1B0C4F890515DDC52003D4FB7FBF2F704F14D
S3150800A1C0100304F114029A425CD1DFF8E8800025F6
S3150800A1D0242D5AD1384805F09DFD3749374A43F2B0
S3150800A1E081030B63536943F002035361BFF34F8F37
S3150800A1F0334A344D42F28253136001F140039360AF
S3150800A200314B3249D66004A8CDE9043406F0EAF8A1
S3150800A2102F4B1B88ADF80C302E4B03A904A8CDE9AB
S3150800A220043406F0DFF82846FFF78EFD60232B80FE
S3150800A23020236B6001232B85EF626B6147F6680369
S3150800A240AB61EB6141F2111321682B6220464FF492
S3150800A25000436B64FFF718FD2046FFF759FE2046BA
S3150800A260FFF766FD2046FFF705FE204606B0BDE867
S3150800A270F08103F59A73234431468B429BD021F82B
S3150800A280025BFAE743F8047B9DE708EB050006F056
S3150800A29089FD0C359CE700BF4C500208985002080F
S3150800A2A034080040BC4D02085C5002083C500208C5
S3150800A2B0002A75157450020800010050001002406B
S3150800A2C00804024000080040099F00086850020878
S3150800A2D0A450020835A400082DE9F84F534B1A6814
S3150800A2E09207044640F19D80514A5268002A40F080
S3150800A2F09880856802225A60C368013D9D4228BF3E
S3150800A3001D464FF47A77012D07D92046FFF710FD31
S3150800A3102046BDE8F84FFFF7ADBD002D3FD0A36836
S3150800A320022B38BF0223194600231A4604F59B7CE4
S3150800A3303CF8220001328A420344F9D148F6CC514E
S3150800A3404B431B0BB3FBF2F3D4F87821A4F88831FE
S3150800A35004F5B070023A90425FD8C4F87821D4F870
S3150800A3607421023A90425AD81380C4F87421FFF730
S3150800A37069FE42F21B518842A4F88001D8BF002129
S3150800A38004F5CA70C8BF01210AF011F8D4F8903153
S3150800A3900133C4F890312046FFF7BAFD21E004F1F5
S3150800A3A024000CF001FAA368022B38BF022303F13C
S3150800A3B0010CC0F57A784FEA5C0C2146AA462B4672
S3150800A3C0A9460122D4450FD100FB03F109FB081168
S3150800A3D004F12400B1FBFCF1B1FBF7F189B20CF0F2
S3150800A3E0E3FCA3681D448EE7B1F834B1B1F838E14F
S3150800A3F0D94473445AB1ABF5807BBBF5606F0AD874
S3150800A400AEF5807EBEF5606F8CBF002201220AF190
S3150800A410010A0831D6E70022F9E714329BE714321D
S3150800A420A0E702225A60BDE8F88F00BF0004024088
S3150800A430080402404068FFF74FBF037D13B1037E4F
S3150800A44083F00103184670470079704730B5C36832
S3150800A4500D46044693E8070085B001AB83E807007C
S3150800A4606B1C01A88DF80C3006F09CFC0120A57623
S3150800A47005B030BD037D10B504460376C06806F006
S3150800A4802DFD94F82030A27E5840637EC0B25B0052
S3150800A490824208BF43F0010303F00F0363760BB94A
S3150800A4A0237510BD0F2BFCD10123F9E710B5034B1B
S3150800A4B00360044609F00FFE204610BDF05002085E
S3150800A4C010B50446FFF7F2FF20463C210AF020F8B3
S3150800A4D0204610BD4068FFF7B9BF4368987E7047AD
S3150800A4E04068FFF7AABF43681A7D0AB9187E704705
S3150800A4F00020704738B504460D4609F0F5FD0F4BA8
S3150800A500236000236361238323620D4BE3610D4AB5
S3150800A5100D4B22612A7AE560C4E909340B4B911E7A
S3150800A520C4E90B344A420A4B4A412846C4E90D3469
S3150800A530A27606F037FC204638BD00BFF050020868
S3150800A5408C4D0208B0500208C0500208D0500208CC
S3150800A550E0500208C268D3680A33136170470000E6
S3150800A56010B5034B0360044609F0B5FD204610BD3F
S3150800A5700851020810B50446FFF7F2FF20461021DD
S3150800A58009F0C6FF204610BD10B5054B044640F835
S3150800A590243BFFF7E5FF204609F09DFD204610BD48
S3150800A5A02051020810B50446FFF7EEFF2046342175
S3150800A5B009F0AEFF204610BD014B00229A60704795
S3150800A5C0002C00402DE9FF41C3680133C360C2680F
S3150800A5D003699B1A002B044641DB434F386805F094
S3150800A5E03FF8D0F8043400F204401B6898478046C8
S3150800A5F0386805F035F8836AC26A9342227E1ABF24
S3150800A600C36201260026012362BB384A237645F237
S3150800A6105553C4F814801360D36813F00203FBD1B2
S3150800A6204FF4837191604CF6CC4111603049CA6988
S3150800A63042F40062CA61BFF34F8F2E4AADF8043068
S3150800A64040F2FF215160F52111602B4B40F2D221D7
S3150800A650516002A801A9CDE9023405F0C3FE04B091
S3150800A660BDE8F081656923763868C4F8148004F07B
S3150800A670F7FF94F82020D0F87C32A8EB050582B3C2
S3150800A680E269E36141F28737012184F8201003F576
S3150800A690FA7041F288343B444FF47A7CB3FBF4F108
S3150800A6A0B0FBFCF002F5FA733A44B3FBFCF3471A25
S3150800A6B0B2FBF4F29C1ABC4228BF3C46A542CED354
S3150800A6C013440844834238BF03469D42C7D8002E28
S3150800A6D0C5D0064B4AF6AA221A60064BF5221A601E
S3150800A6E0BDE71A46CDE700BF18130020003000402A
S3150800A6F000100240002C0040B9A5000810B5044619
S3150800A70009F0F2FC084B23600023C4E90433C4E9CA
S3150800A7100633E360236204F1240009F0E5FC034BE9
S3150800A72063622463204610BD2051020808510208BE
S3150800A73000797047B0F9040070470B6808469B68B3
S3150800A74018478180012070470079704700207047BC
S3150800A75043685856704780687047002070474068BD
S3150800A76003681B6818470079704740687047836814
S3150800A7701A68914205D35B68994202D84160012064
S3150800A78070470020704713B50C4672B91A680DF168
S3150800A790070192681846904723689DF807105B687A
S3150800A7A0204602B0BDE810401847002002B010BD90
S3150800A7B010B51C4652B90B6808461B6898472368AB
S3150800A7C001469B6820469847012010BD0020FCE7FB
S3150800A7D073B51E460B6808469B6815460C4698478F
S3150800A7E0A8420FD933680DF107015B6830469847D0
S3150800A7F023689DF907205B682946204602B0BDE814
S3150800A80070401847002002B070BD70B51D460B6831
S3150800A81008469B6816460C469847B0420BD92368EB
S3150800A82031461B68204698472B6801465B682846D0
S3150800A8309847012070BD0020FCE713B50C4672B995
S3150800A8401A680DF1070192681846904723689DF823
S3150800A85007105B68204602B0BDE810401847002084
S3150800A86002B010BD10B51C4652B90B6808461B68E5
S3150800A8709847236801469B6820469847012010BDE3
S3150800A8800020FCE7B1F5803F10B50AD2026894882B
S3150800A8908BB29C4205D8D2889A4202D381600120A5
S3150800A8A010BD0020FCE708B54068FFF7EBFF08BDC0
S3150800A8B070B50D4616460446102009F01DFE3346AF
S3150800A8C02A462146BDE8704009F098BF90F90C3039
S3150800A8D0934207DC90F90D30934203DB436801206D
S3150800A8E05A54704700207047436898687047436811
S3150800A8F01868704710B504680CB9204610BD606822
S3150800A90003681B6898470028F8D12468F4E710B54F
S3150800A91004462430FFF7EEFF30B104F12800FFF7B4
S3150800A920E9FF80F00100C0B210BD10B50446406BC7
S3150800A930436A24301B68984760B904F11C00FFF786
S3150800A9400EFF48B904F11400FFF709FF30B994F86F
S3150800A950440010BD0220FCE70420FAE70320F8E7CC
S3150800A96008B590F83C300344503093F9601093F8DA
S3150800A9706030042B03D8FFF7FAFE012008BD00213A
S3150800A980FFF7F5FE0020F9E7002380F87C3080F811
S3150800A990B03080F8B830A0F8C030012380F8A8306D
S3150800A9A0704738B50546406B0C460CF085FE08B175
S3150800A9B0B5F9C840204638BDF8B504463030FFF72B
S3150800A9C099FF10B1002384F87C302046FFF7C8FFB2
S3150800A9D0054630B104F12C00FFF78CFF80F0010525
S3150800A9E0EDB2294604F1840009F0E1FC35B1D4F84A
S3150800A9F0843043BB94F87C5085F0010584F8B05048
S3150800AA002046FFF784FF94F87C5007460DB994F862
S3150800AA10B05004F10C00FFF7A2FE00BBAFB1012352
S3150800AA2084F8B83004F10C00FFF799FE78B975B9C7
S3150800AA300323B4F9C81084F8A8302046FFF7B1FFFD
S3150800AA40A4F8C000F8BD0025D8E784F8B85094F8F3
S3150800AA507C3053B1052384F8A8300021EDE70123A3
S3150800AA6084F8B830002FDDD1F1E794F8B0302BB177
S3150800AA700423B4F9D81084F8A830DEE794F8B800AF
S3150800AA8028B10223B4F9D01084F8A830D5E70123F9
S3150800AA9084F8A830D4E710B50446FFF746FF022825
S3150800AAA004BF002384F84430636B84F83C0093F8B1
S3150800AAB0FC3020461BB9BDE81040FFF77DBFBDE856
S3150800AAC01040FFF761BF00002DE9F74F04460191DA
S3150800AAD009F00AFB5C4B5D4A23605D495D4B2362C6
S3150800AAE00025C4E90432C4E90632C4E91415019BF9
S3150800AAF0636304F14801A165574B5849A36321666E
S3150800AB00574B5849E260A166052204F16001C4E981
S3150800AB101B12C4E91E352364E264534BC4F8803023
S3150800AB2040F2FF42A4F874204FF4FA734F4AE563E3
S3150800AB30C4E90955C4E90B556564A56484F86450ED
S3150800AB40C4E9213304F18403C4E92323484AC4E948
S3150800AB502523484BC4F89C3004F18003C4F8A03080
S3150800AB60102009F0C9FC4449444B04F19C0209F041
S3150800AB7045FE434BC4F8A430424BC4F8AC30C4E994
S3150800AB802D35414BC4F8BC30404BC4F8C85064223C
S3150800AB90C4E93335C4E93535C4F8C430A4F8C82047
S3150800ABA0C4F8A850C4F8B050C4F8C050102009F032
S3150800ABB0A3FC04F13802364B364909F01FFE102073
S3150800ABC009F09AFC04F168023349344B09F016FE81
S3150800ABD0019B04F1B4061E62102009F08DFC304B6F
S3150800ABE03049324609F00AFE04F1BC012E4A2F48C4
S3150800ABF0FFF75EFE04F1C4012B4A2D48FFF758FE05
S3150800AC0004F1D40704F1CC01274A2A48FFF750FE7D
S3150800AC103946254A2848FFF74BFE102009F06CFCF8
S3150800AC2004F178021E4B254909F0E8FD102009F0C9
S3150800AC3063FC234B234904F1A40209F0DFFD2046F7
S3150800AC4003B0BDE8F08F00BFCC5102086851020876
S3150800AC504851020800100020885102080001FF022E
S3150800AC608C4D020898510208245202083C500208EA
S3150800AC70385102087851020844520208DC4F02088B
S3150800AC80AC510208B0500208BC4D0208BC5102087B
S3150800AC9020520208485202084C5202081C52020866
S3150800ACA0D44F020854520208E04F020850520208D4
S3150800ACB0405202083C52020838520208345202082E
S3150800ACC0185202083052020838B50446006808B916
S3150800ACD0204638BD0568082109F01AFC2846F6E71B
S3150800ACE00B4B10B5044640F8303BFFF7EDFF04F177
S3150800ACF02C00FFF7E9FF04F12800FFF7E5FF04F150
S3150800AD002400FFF7E1FF204609F0E5F9204610BDCB
S3150800AD10CC51020810B50446FFF7E2FF2046DC21B5
S3150800AD2009F0F6FB204610BD10B504460C3009F0B4
S3150800AD30B4FB606903681B68984708B12369E36038
S3150800AD4010BD000010B5034B0360044609F0C3F9B3
S3150800AD50204610BD7052020810B50446FFF7F2FFF0
S3150800AD602046282109F0D4FB204610BD4368D86840
S3150800AD7000B1187F7047000038B504460D4609F043
S3150800AD80B3F90D4B23604FF416720023C4E903325E
S3150800AD90E3610A4BA36101232377094B6561C4E983
S3150800ADA00834102009F0A8FB064B074904F11802DD
S3150800ADB009F024FD204638BD705202088C4D020861
S3150800ADC060520208D44F02088052020810B50446A1
S3150800ADD0C06803681B689847B4F91030B4F91220A4
S3150800ADE08342B8BF03461BB29342A8BF13464FF02F
S3150800ADF0640113FB01F393FBF2F3238310BD8088F0
S3150800AE00704700207047000010B5034B03600446E6
S3150800AE1009F061F9204610BD9C52020810B5044697
S3150800AE20FFF7F2FF20461C2109F072FB204610BDF1
S3150800AE3070B504460E46154609F056F9054B2360CB
S3150800AE4000232382A361044BE66065826361204682
S3150800AE5070BD00BF9C5202088C52020810B5044609
S3150800AE60283009F01AFB636A20469847606210BDCD
S3150800AE7038B5084B03600446006A20B9204609F035
S3150800AE802AF9204638BD0568082109F041FB2846FD
S3150800AE90F3E700BFB452020810B50446FFF7E8FF0F
S3150800AEA02046302109F034FB204610BD10B5D0E904
S3150800AEB00340C36C4C301B689847D4E9013203EB56
S3150800AEC042029A42194605D0B1F90040844203F17C
S3150800AED00203F6D1501A18BF012010BD38B5C36851
S3150800AEE09C7805462CB90069C3691C301B689847CD
S3150800AEF004462846FFF7DAFF80F001002040C0B27A
S3150800AF0038BD036993F8F400C0F34000704710B5E4
S3150800AF100446FFF7F6FF28B92046FFF7DFFF10B90A
S3150800AF20246A0CB9002010BD606803681B6898473E
S3150800AF300028F8D12468F4E710B504468069E26869
S3150800AF40036851785B6898476069C36D01215B683F
S3150800AF505C309847004810BDC9AF000810B50446D4
S3150800AF60C069036801215B6898470F23C4E90A335F
S3150800AF70004810BDF5AF000810B50446806903689F
S3150800AF8000215B6898476069C36D00215B685C3087
S3150800AF909847E069036800215B6898470F23C4E96E
S3150800AFA00A33014810BD00BF19B0000810B50446A1
S3150800AFB0FFF7ADFF20B92046BDE81040FFF7DCBF1C
S3150800AFC0004810BDC9AF0008FFF7F0BF10B504462A
S3150800AFD0FFF79DFF20B92046BDE81040FFF7CCBF1C
S3150800AFE0A36A1BB92046FFF7A7FF10BD0048FCE778
S3150800AFF0F5AF0008FFF7EABF836A10B504463BB908
S3150800B000FFF785FF20B12046BDE81040FFF7A6BF31
S3150800B010004810BD19B00008FFF7EEBF70B504462A
S3150800B0200D46164609F060F8124B2360E66028467E
S3150800B03004F090FD2061284604F012FB33784FF4A3
S3150800B040887202FB030000F527706061284604F049
S3150800B05007FB00F21C50A061284604F001FB064AD3
S3150800B060002300F5B160E061C4E909232362E362C5
S3150800B070204670BDB452020819B0000838B5044617
S3150800B0800069C36E6C301B6898470546606903689B
S3150800B0901B689847854294BF0020012038BDA0F15F
S3150800B0A00C00FFF7EBBF0B6808469B681847436818
S3150800B0B033F81100704780687047000010B5044BDC
S3150800B0C003601C330446C36009F005F8204610BD2A
S3150800B0D0CC52020810B50446FFF7F0FF20461821A7
S3150800B0E009F016FA204610BDF8B51D460B68084645
S3150800B0F09B6816460C469847B0420BD92B681F69C1
S3150800B100236831461B682046984701462846B847B3
S3150800B1100120F8BD0020FCE773B51E460B680846FB
S3150800B1209B6815460C469847A8420ED933680DF118
S3150800B13006011B69304698472368BDF806205B68F8
S3150800B14029462046984702B070BD0020FBE7838950
S3150800B150934207D8C389934204D34368012023F84E
S3150800B160112070470020704770B5846840682368CE
S3150800B1701D68836808301B6898472B460146204699
S3150800B180BDE87040184700002DE9F34716460D46FE
S3150800B1901F46044608F0A8FF1F4AD6F804901F4B1E
S3150800B1A022601C32C4E90327B5F808A02F68D5F831
S3150800B1B004804FEA4905994594BF28464FF0FF3069
S3150800B1C009F09CF9CDE900090544A84221D11020CF
S3150800B1D009F092F903460546114A43F8042BDDE9BE
S3150800B1E0000183E80300C5F80C80102009F084F9F3
S3150800B1F00C4B2A46394609F001FB0C2009F07CF96C
S3150800B200094B8560C0E900366061204602B0BDE89A
S3150800B210F08720F802ABD8E7CC520208FCFFFF3FC4
S3150800B220F85202082853020820530208B0F904000D
S3150800B23070470B6808469B6818474368585C704710
S3150800B240436801205A5470478068704710B5044B0C
S3150800B25003601C330446C36008F03DFF204610BD5A
S3150800B2604453020810B50446FFF7F0FF2046242190
S3150800B27009F04EF9204610BDF8B51D460B6808467C
S3150800B2809B6816460C469847B0420BD92B681F6830
S3150800B290236831461B682046984701462846B84722
S3150800B2A00120F8BD0020FCE773B51E460B6808466A
S3150800B2B09B6815460C469847A8420ED933680DF187
S3150800B2C007011B683046984723689DF807205B6886
S3150800B2D029462046984702B070BD0020FBE710B506
S3150800B2E00446406903681B68984758B12069D0F836
S3150800B2F08C308C301B689847B4F91C308342D4BF15
S3150800B3000020012010BDA0F10C00FFF7E8BF70B5C2
S3150800B3108468406823681D68836808301B689847F6
S3150800B3202B4601462046BDE870401847B0F906305E
S3150800B3308B4206DCB0F908308B4202DB81800120A3
S3150800B34070470020704700002DE9F7430D461E465A
S3150800B3500446174608F0C8FE244A22601C32C4E98F
S3150800B36003267E68D5F8008095F80490304609F0E3
S3150800B370C5F8CDE900060644864234D10C2009F00A
S3150800B380BBF8034606461A4A43F8042BDDE90001D2
S3150800B39083E80300102009F0AFF832464146154B02
S3150800B3A009F02CFA0C2009F0A7F8134BB5F90C2074
S3150800B3B0B5F910108660C0E900376061B5F90E303E
S3150800B3C00E48AD68A061A183E2832384102009F0AA
S3150800B3D093F80B4B04F11802294609F00FFA204698
S3150800B3E003B0BDE8F08300F8019BC5E744530208A3
S3150800B3F070530208A05302089853020834530208EF
S3150800B400E04F020810B504460069436914301B680A
S3150800B410984738B92069C36D5C301B689847C0F3F4
S3150800B420C03010BD0020FCE7A0F10C00FFF7EABF12
S3150800B43010B5044B03601C330446C36008F04BFE8A
S3150800B440204610BDAC53020810B50446FFF7F0FFBE
S3150800B4502046142109F05CF8204610BD38B504468C
S3150800B4600D4608F041FE034B23601C33C4E903353F
S3150800B470204638BDAC53020810B504460069C36CB3
S3150800B4804C301B689847D4E9053203EB42029A42CE
S3150800B490194605D0B1F90040844203F10203F6D1FA
S3150800B4A0501A18BF012010BDA0F10C00FFF7E4BF29
S3150800B4B010B5044B03601C330446C36008F00BFE4A
S3150800B4C0204610BDD853020810B50446FFF7F0FF12
S3150800B4D020461C2109F01CF8204610BD37B5044645
S3150800B4E00D468DE80C0008F0FFFD9DE80300054BAE
S3150800B4F02360C4E905011C332046C4E9033503B0BB
S3150800B50030BD00BFD853020890F8240080F001002F
S3150800B5107047A0F10C00F7E710B5044B03601C3325
S3150800B5200446C36008F0D7FD204610BD045402083F
S3150800B53010B50446FFF7F0FF2046282108F0E8FF7B
S3150800B540204610BD70B504460069436F74301B6809
S3150800B55098470646606903681B6898470546A069C8
S3150800B56003681B689847AE4234BF00230123A27FB5
S3150800B570864288BF00239A4203D000226277A377C7
S3150800B58070BD637F217F994286BF0133637784F854
S3150800B5902420F5E72DE9F743D0F804801A4B0E6806
S3150800B5A0B1F808904F684FEA48040546984594BF95
S3150800B5B020464FF0FF3008F0A1FFCDE9000804440B
S3150800B5C0A0421ED1102008F097FF034604460F4AF2
S3150800B5D043F8042BDDE9000183E80300E760102047
S3150800B5E008F08AFF0A4B2246314609F007F90C2073
S3150800B5F008F082FF074B8460C0E9003503B0BDE858
S3150800B600F08320F8029BDBE7FCFFFF3FF8520208B5
S3150800B6102853020820530208F8B504461F460D466B
S3150800B620164608F061FD0D4A22601C32C4E903275C
S3150800B63029463046FFF7AEFF05F10C01606130463A
S3150800B640FFF7A8FF2B7E064A237763770023A061BE
S3150800B650A377226284F824302046F8BD04540208F1
S3150800B660B050020838B504460069C36C4C301B68F4
S3150800B67098470546606903681B6898478542ACBFCA
S3150800B6800020012038BDA0F10C00FFF7EBBF0B68C6
S3150800B69008469B681847436833F911007047806865
S3150800B6A07047000010B5044B03601C330446C360A2
S3150800B6B008F011FD204610BD3054020810B50446A6
S3150800B6C0FFF7F0FF2046182108F022FF204610BD9C
S3150800B6D0F8B51D460B6808469B6816460C469847FB
S3150800B6E0B0420BD92B68DF68236831461B682046B1
S3150800B6F0984701462846B8470120F8BD0020FCE7D0
S3150800B70073B51E460B6808469B6815460C4698474F
S3150800B710A8420ED933680DF10601DB683046984712
S3150800B7202368BDF906205B6829462046984702B07B
S3150800B73070BD0020FBE770B58468406823681D6803
S3150800B740836808301B6898472B4601462046BDE8A3
S3150800B75070401847B0F90C30934208DCB0F90E3047
S3150800B760934204DB4368012023F811207047002028
S3150800B770704700002DE9F34716460D461F46044656
S3150800B78008F0B2FC1F4AD6F804901F4B22601C3200
S3150800B790C4E90327B5F908A02F68D5F804804FEA4D
S3150800B7A04905994594BF28464FF0FF3008F0A6FE94
S3150800B7B0CDE900090544A84221D1102008F09CFED5
S3150800B7C003460546114A43F8042BDDE9000183E8E0
S3150800B7D00300C5F80C80102008F08EFE0C4B2A4694
S3150800B7E0394609F00BF80C2008F086FE094B8560EF
S3150800B7F0C0E900366061204602B0BDE8F08720F84F
S3150800B80002ABD8E730540208FCFFFF3F5C5402083D
S3150800B8108C54020884540208807E7047807B7047E7
S3150800B82038B50446406903681B6898470546206989
S3150800B83003681B68984718B1237E23B145B9607E13
S3150800B840A076657638BD2DB1607E80F00100F7E7F9
S3150800B8500020F5E72846F3E710B5044B03601C33D0
S3150800B8600446C36008F037FC204610BD9854020809
S3150800B87010B50446FFF7F0FF20461C2108F048FEE5
S3150800B880204610BD2DE9F34717460E46044698464E
S3150800B89008F02AFC1C4B7D6823601C332846E360AD
S3150800B8A0D6F8049096F808A008F028FECDE9000519
S3150800B8B00544854225D10C2008F01EFE03460546A0
S3150800B8C0124A43F8042BDDE9000183E8030010203F
S3150800B8D008F012FE0E4B2A46494608F08FFF0C2048
S3150800B8E008F00AFE0B4B8560C0E9003733782376EB
S3150800B8F0C4E90408002320466376A37602B0BDE8AF
S3150800B900F08700F801ABD4E7985402087053020890
S3150800B910A05302089853020890F8280080F0010006
S3150800B9207047A0F10C00F7E710B5044B03601C3311
S3150800B9300446C36008F0CFFB204610BDC454020875
S3150800B94010B50446FFF7F0FF20462C2108F0E0FD6D
S3150800B950204610BDF8B50446806903681B689847F9
S3150800B9600646E06903681B6898470546A0690368A8
S3150800B9701B6898470746606903681B689847BD4275
S3150800B98028BF3D46ADB2002808BF35462069036882
S3150800B9901B68984794F82230A84234BF002001203B
S3150800B9A0984205D0002384F8213084F82200F8BD97
S3150800B9B094F8213094F820209A4286BF013384F8FF
S3150800B9C0213084F82800F2E7F8B504460D461646F5
S3150800B9D01F4608F089FB104A069B22601C32C4E900
S3150800B9E00327636129463046FFF7D4FD05F10C01AC
S3150800B9F0A0613046FFF7CEFD2B7E084A84F820303A
S3150800BA0084F821300023E06184F82230626284F8E9
S3150800BA1028302046F8BD00BFC4540208B0500208BA
S3150800BA2073B54368ADF80610A3B1046803F1804303
S3150800BA30B4F90050013BA94204EB830634F92330DC
S3150800BA40BABF294622460DF106028B42B8BF3246D6
S3150800BA50B2F900100181012002B070BD08B5406836
S3150800BA60FFF7DEFF012008BD074B10B5044603604B
S3150800BA70C06818B16169091A08F04AFD204608F03D
S3150800BA802AFB204610BD00BF3855020810B50446EB
S3150800BA90FFF7EAFF2046502108F03AFD204610BD80
S3150800BAA0B0F91030934209DCB0F91230934205DB45
S3150800BAB0036803EB810301205A8070470020704712
S3150800BAC04368B3F9080070474368D3E90030C01AE1
S3150800BAD0801070474368D3E90030C01A8010704759
S3150800BAE043681B6803EB8103B3F902007047436898
S3150800BAF01B6833F92100704708B54068FFF7D0FF87
S3150800BB0008BDB0F90C30934210B517DCB0F90E3009
S3150800BB10934213DB046804EB810324F8212041686F
S3150800BB2004330431994201D1012010BD33F9040CC4
S3150800BB309042B8BF23F8042C0433F3E70020F4E757
S3150800BB4008B54068FFF7DDFF08BD000070B504467C
S3150800BB5026460D4608F0C8FA324B46F80C3B4020FC
S3150800BB6008F0CAFC00F14002E06062610346002169
S3150800BB701980598004339A42FAD14FF096632261AC
S3150800BB804FF0FA62C4E90623274B284AC4E9083667
S3150800BB90274BC4E90A36031D4430118823F8041CD0
S3150800BBA0518823F8021C0433834202F10402F4D1BB
S3150800BBB0102008F0A1FC04F120021E4B1E4906467F
S3150800BBC008F01CFE304608F07BFD102008F094FCB7
S3150800BBD004F12802174B1949064608F00FFE3046AD
S3150800BBE008F06EFDD4E903135B1A9B10C4E90C1325
S3150800BBF000232387124B134804F13002C4E90F329D
S3150800BC00114B2946C4E911320CF032FAE0641020CF
S3150800BC1008F072FC0D4B0E4904F13C0208F0EEFDEB
S3150800BC20204670BD38550208F054020848550208E7
S3150800BC30045502088C540208D0550208B05502086B
S3150800BC40185502088855020828550208E04F0208C8
S3150800BC50AC550208F0B585B0CDE9020100EB8105C7
S3150800BC6041F31D030446002B06DCAC4211D134F91E
S3150800BC70023C184605B0F0BD591004EB810634F9AC
S3150800BC8021709742DEBF591A01F1FF31341D0B4668
S3150800BC90E9E7A042B4F90230EBD0B4F9005034F920
S3150800BCA0021C34F9040C00922A4608F044FC03B23C
S3150800BCB0DFE708B543682BB1B0F9082003C8FFF7DA
S3150800BCC0C9FF08BD1846FCE708B54068FFF7F1FF4D
S3150800BCD008BDC36C70B503F164055B6E44305C68DF
S3150800BCE0FFF7F2FF234601462846BDE8704018478D
S3150800BCF0074B10B504460360C06818B16169091A94
S3150800BD0008F006FC204608F0E6F9204610BD00BFFC
S3150800BD10F855020810B50446FFF7EAFF20465021F9
S3150800BD2008F0F6FB204610BD70B5044626460D46BB
S3150800BD3008F0DAF9324B46F80C3B402008F0DCFBF9
S3150800BD4000F14002E06062610346002119805980D3
S3150800BD5004339A42FAD14FF0966322614FF0FA62A1
S3150800BD60C4E90623274B284AC4E90836274BC4E901
S3150800BD700A36031D4430118823F8041C518823F819
S3150800BD80021C0433834202F10402F4D1102008F0A5
S3150800BD90B3FB04F120021E4B1E49064608F02EFD91
S3150800BDA0304608F08DFC102008F0A6FB04F12802A6
S3150800BDB0174B1949064608F021FD304608F080FC65
S3150800BDC0D4E903135B1A9B10C4E90C1300232387D9
S3150800BDD0124B134804F13002C4E90F32114B2946BD
S3150800BDE0C4E911320CF044F9E064102008F084FB31
S3150800BDF00D4B0E4904F13C0208F000FD204670BDCB
S3150800BE00F8550208F05402082C5602080455020890
S3150800BE108C540208D0550208B05502081855020875
S3150800BE200856020828550208E04F0208AC550208D1
S3150800BE30C36C70B503F164055B6E44305C68FFF74C
S3150800BE4043FF234601462846BDE8704018470000D0
S3150800BE50074B10B504460360C06818B16169091A32
S3150800BE6008F056FB204608F036F9204610BD00BFFC
S3150800BE707456020810B50446FFF7EAFF204650211B
S3150800BE8008F046FB204610BD70B5044626460D460A
S3150800BE9008F02AF9324B46F80C3B402008F02CFBF8
S3150800BEA000F14002E0606261034600211980598072
S3150800BEB004339A42FAD14FF0966322614FF0FA6240
S3150800BEC0C4E90623274B284AC4E90836274BC4E9A0
S3150800BED00A36031D4430118823F8041C518823F8B8
S3150800BEE0021C0433834202F10402F4D1102008F044
S3150800BEF003FB04F120021E4B1E49064608F07EFC91
S3150800BF00304608F0DDFB102008F0F6FA04F12802A6
S3150800BF10174B1949064608F071FC304608F0D0FB65
S3150800BF20D4E903135B1A9B10C4E90C130023238777
S3150800BF30124B134804F13002C4E90F32114B29465B
S3150800BF40C4E911320CF094F8E064102008F0D4FA31
S3150800BF500D4B0E4904F13C0208F050FC204670BD1A
S3150800BF6074560208F054020884560208045502085A
S3150800BF708C540208D0550208B05502081855020814
S3150800BF80C456020828550208E04F0208AC550208B4
S3150800BF90C36C70B503F164055B6E44305C68FFF7EB
S3150800BFA093FE234601462846BDE870401847000020
S3150800BFB0074B10B504460360C06818B16169091AD1
S3150800BFC008F0A6FA204608F086F8204610BD00BFFD
S3150800BFD0F056020810B50446FFF7EAFF204650213E
S3150800BFE008F096FA204610BD70B5044626460D465A
S3150800BFF008F07AF8324B46F80C3B402008F07CFAF9
S3150800C00000F14002E0606261034600211980598010
S3150800C01004339A42FAD14FF0966322614FF0FA62DE
S3150800C020C4E90623274B284AC4E90836274BC4E93E
S3150800C0300A36031D4430118823F8041C518823F856
S3150800C040021C0433834202F10402F4D1102008F0E2
S3150800C05053FA04F120021E4B1E49064608F0CEFB91
S3150800C060304608F02DFB102008F046FA04F12802A5
S3150800C070174B1949064608F0C1FB304608F020FB65
S3150800C080D4E903135B1A9B10C4E90C130023238716
S3150800C090124B134804F13002C4E90F32114B2946FA
S3150800C0A0C4E911320BF0E4FFE064102008F024FA2A
S3150800C0B00D4B0E4904F13C0208F0A0FB204670BD6A
S3150800C0C0F0560208F0540208005702080455020800
S3150800C0D08C540208D0550208B055020818550208B3
S3150800C0E04057020828550208E04F0208AC550208D6
S3150800C0F0C36C70B503F164055B6E44305C68FFF78A
S3150800C100E3FD234601462846BDE87040184700006F
S3150800C110074B10B504460360C06818B16169091A6F
S3150800C12008F0F6F9204607F0D6FF204610BD00BFF6
S3150800C1306C57020810B50446FFF7EAFF204650215F
S3150800C14008F0E6F9204610BD70B5044626460D46A9
S3150800C15007F0CAFF324B46F80C3B402008F0CCF9F2
S3150800C16000F14002E06062610346002119805980AF
S3150800C17004339A42FAD14FF0966322614FF0FA627D
S3150800C180C4E90623274B284AC4E90836274BC4E9DD
S3150800C1900A36031D4430118823F8041C518823F8F5
S3150800C1A0021C0433834202F10402F4D1102008F081
S3150800C1B0A3F904F120021E4B1E49064608F01EFB91
S3150800C1C0304608F07DFA102008F096F904F12802A6
S3150800C1D0174B1949064608F011FB304608F070FA65
S3150800C1E0D4E903135B1A9B10C4E90C1300232387B5
S3150800C1F0124B134804F13002C4E90F32114B294699
S3150800C200C4E911320BF034FFE064102008F074F929
S3150800C2100D4B0E4904F13C0208F0F0FA204670BDB9
S3150800C2206C570208F05402087C57020804550208A5
S3150800C2308C540208D0550208B05502081855020851
S3150800C240BC57020828550208E04F0208AC550208F8
S3150800C250C36C70B503F164055B6E44305C68FFF728
S3150800C26033FD234601462846BDE87040184770B599
S3150800C270064603F06FFC0446A82008F03DF931464F
S3150800C28005460FF0E9FD294604F1C000BDE87040F7
S3150800C29007F05EBF10B5034B0360044607F01BFFAB
S3150800C2A0204610BDE857020810B50446FFF7F2FF0E
S3150800C2B020466C2108F02CF9204610BD10B5034B1A
S3150800C2C00360044607F007FF204610BD0058020821
S3150800C2D010B50446FFF7F2FF20463C2108F018F98E
S3150800C2E0204610BD10B5034B03600446FFF7E6FF72
S3150800C2F0204610BD2858020810B50446FFF7F2FF7D
S3150800C3002046442108F004F9204610BDC268B0F959
S3150800C310203073B5B2F948100B44B0F93C108B4283
S3150800C320CCBF01230023044680F8603003DD9088E3
S3150800C330A08202B070BD806903681B689847E368ED
S3150800C340B3F93A10B4F93C30194488420546B4BFEB
S3150800C3500021012104F1440008F029F8E368B4F942
S3150800C3602010B3F922302B448B42CCBF0021012187
S3150800C37004F1280008F01BF8B4F92060B4F93C0071
S3150800C380E36894F85820D9891B8AB542B8BF354660
S3150800C3902DB28542A8BF0546009522B90246304609
S3150800C3A008F0C9F8C4E73246FAE770B50D461646EE
S3150800C3B00446102008F0A0F833462A462146BDE870
S3150800C3C0704008F01BBA10B500210446283007F063
S3150800C3D0E8FF002104F1440007F0E3FF002384F896
S3150800C3E06030E3689B88A38210BD08B5FFF7EBFFB2
S3150800C3F008BD10B50446FFF7E6FF626E9389013360
S3150800C4009381A26E93890133938110BD08B5406864
S3150800C410FFF7EFFF08BDF8B5054610200E4617468C
S3150800C42008F06AF83B4604463246294608F0E6F91B
S3150800C4302046F8BDD0E906239B1A5810002BB8BF32
S3150800C4400B30704770B504461430FFF7F3FF00222F
S3150800C45004F12A01904208D1002304F12A051E4658
S3150800C4609A420BD10023238770BDE36A02338B42BD
S3150800C47002D2E3620132EDE7163BF8E7206B811C36
S3150800C480A94203D2068001332163E9E71639F7E7A3
S3150800C490406808B50430FFF7CDFF80B208BD38B54F
S3150800C4A0D0E90632002400F116019A4205D1FFF7B9
S3150800C4B0C1FFB4FBF0F080B238BD33F8025B2C4400
S3150800C4C08B42F2D3163BFBE710B50446C0680368F7
S3150800C4D01B689847236B04F11402023B9A420BD857
S3150800C4E02363E36A023B9A4208D81880E36210463F
S3150800C4F0FFF7D5FF208710BD1633EFE71633F2E7AF
S3150800C5000A29F8B528BF0A21071D01290446384615
S3150800C5100D46164638BF0125FFF78CFF2A1A114625
S3150800C52004F11A0C00290EDB002AA0EB0500C8BF8F
S3150800C5300020104404F11A0570B91AB13846FFF7FD
S3150800C540AEFF2085F8BDE3690233634502D2E36195
S3150800C5500131E7E7163BF8E7216A8B1CAB4203D2A9
S3150800C5600E8001382362E7E7163BF7E72DE9F04F1F
S3150800C5708DB005460068049103F0ECFA83462868F6
S3150800C580DFF890A1644F03F06BF881466C2007F042
S3150800C590B3FF044604F1100607F0A6FD5F4B2360BF
S3150800C5A04FF0000809F58073C4F80CA041F28839E9
S3150800C5B0C6F80480A3615A4BE361C4F82090A4F836
S3150800C5C024900AF12401276104F1280008F0A4FD4B
S3150800C5D0534BA4F84090C4E90E380AF13C0104F123
S3150800C5E0440008F099FD4F4B6365C4F85880022251
S3150800C5F041F2017104F15C0004F1380808F050FDBD
S3150800C600494A4A484146FFF706FF04F11C09464ACB
S3150800C610606649464648FFF7FEFE464AA06631462A
S3150800C6204548FFF7C2FEA1693F4A4448FFF7F3FEB3
S3150800C630E368D96C49B11020059107F05DFF404BBE
S3150800C640059904F1540208F0D9F821460BF1C00007
S3150800C65007F07EFD286803F07DFAA369CDF82480EB
S3150800C660CDE90739374B82464820CDE90A3407F029
S3150800C67043FF0CAB044613E90F008DE80F00079B38
S3150800C680049A3149204609F073F921460AF1C00097
S3150800C69007F05EFD286803F05DFA8046442007F03F
S3150800C6A02BFF044607F020FD284B2360E660162280
S3150800C6B0002104F1140012F0C7FC04F11006002250
S3150800C6C0C4E90B00C4E90D7230460A21FFF718FFCA
S3150800C6D004F13401174A1E48FFF767FE1D4B236015
S3150800C6E01D4B144A1D48C4E90F3604F13C01FFF7F7
S3150800C6F05CFE214608F1C00007F02AFD0D4A1848DD
S3150800C70004F13401FFF751FE04F134000DB0BDE821
S3150800C710F08F00BF385802088C520208E857020802
S3150800C720345302088C4D0208E04F0208BC58020830
S3150800C730C0580208D04F0208B0580208A858020884
S3150800C740D44F02080DC40008885802080058020889
S3150800C750AC5802082858020818580208B85802089F
S3150800C760B45802080A2908B505D840680022FFF718
S3150800C770C7FE012008BD0020FCE703685B68184770
S3150800C78070B5D0E90334226855681A6818461268E5
S3150800C79090472B4601462046BDE8704018470000E2
S3150800C7A010B5034B0360044607F095FC204610BD00
S3150800C7B0D458020810B50446FFF7F2FF20461C219C
S3150800C7C007F0A6FE204610BD10B5034B03600446CD
S3150800C7D007F081FC204610BD0459020810B504462E
S3150800C7E0FFF7F2FF2046142107F092FE204610BDFF
S3150800C7F010B5034B0360044607F06DFC204610BDD8
S3150800C800EC58020810B50446FFF7F2FF20461C2133
S3150800C81007F07EFE204610BDF8B5054614200F46E3
S3150800C820164607F069FE044607F05EFC054B2360D2
S3150800C830C4E90376214605F1C000BDE8F84007F0D3
S3150800C84087BC00BF0459020803F084B938B504460A
S3150800C85008200D4607F050FE2368456003602060F7
S3150800C86038BD000070B50546006802F0F9FE0646B8
S3150800C8701C2007F041FE044607F036FC0F4B2360E8
S3150800C8804FF47A720023E28106F5A5660C4AA38165
S3150800C8902376626128682661FFF7D6FF696804F186
S3150800C8A01402AC31FFF7B8FF2868FFF7CDFF214621
S3150800C8B0C030BDE8704007F04BBC00BFD458020832
S3150800C8C08C4D020870B50446006802F0C9FE06469B
S3150800C8D0282007F011FE06F5AB61C822054609F0C7
S3150800C8E059FB2068FFF7B0FF616805F1180240316F
S3150800C8F0FFF792FF2068FFF7A7FF616805F11002AE
S3150800C9007831FFF789FF2068FFF79EFF2946C03078
S3150800C910BDE8704007F01CBC2DE9F0410446D0E99B
S3150800C9200006FFF791FF62680746206802F148058E
S3150800C930FFF78AFF8046282007F0DEFD43460446B7
S3150800C9402A460849FEF768FE214607F1C00007F0A7
S3150800C950FFFB04F10C0106F12C00FFF777FFBDE899
S3150800C960F08100BF685902082DE9F04105460068C4
S3150800C970FFF76AFF6A680746286802F14806FFF764
S3150800C98063FF8046182007F0B7FD43460446324643
S3150800C9900B49FEF7F9FB214607F1C00007F0D8FB63
S3150800C9A06D6804F10C0105F12C00FFF74FFF04F147
S3150800C9B00C0105F13000FFF749FFBDE8F08100BF23
S3150800C9C05C5902082DE9F0410446D0E90006FFF754
S3150800C9D03BFF62680746206802F14805FFF734FF07
S3150800C9E08046182007F088FD434604462A4608492B
S3150800C9F0FEF7C0FE214607F1C00007F0A9FB04F1C7
S3150800CA000C0106F12C00FFF721FFBDE8F08100BFFD
S3150800CA10505902082DE9F7430446D0E90007FFF705
S3150800CA2013FF62688046206802F14805FFF70CFF8D
S3150800CA3081462C20646807F05FFDAC34064609F58C
S3150800CA40E4732A4608490094FEF7BEFF314608F10A
S3150800CA50C00007F07DFB06F10C0107F12C00FFF77B
S3150800CA60F5FE03B0BDE8F0833459020870B50546F3
S3150800CA70006802F0F5FD00F58D642868FFF7E4FE0E
S3150800CA808462102007F038FD2246034B0349BDE8AF
S3150800CA90704007F0B3BE00BFD44F0208B059020871
S3150800CAA0F7B505460068FFF7CFFE06462868FFF784
S3150800CAB0CBFE07461C2007F01FFD0F4B00930323F0
S3150800CAC00193DDE9002304463946FEF707FD2146B2
S3150800CAD006F1C00007F03CFB6D6804F10C0105F196
S3150800CAE02C00FFF7B3FE04F10C0105F13000FFF747
S3150800CAF0ADFE03B0F0BD00BF84590208F8B5044680
S3150800CB00D0E90005FFF7A0FE06462068FFF79CFE61
S3150800CB100746142007F0F0FC39460446FEF79EFC4B
S3150800CB20214606F1C00007F013FB04F10C0105F1DC
S3150800CB302C00FFF78BFEF8BD2DE9F041044600688E
S3150800CB40FFF782FE62680746206802F14805FFF78C
S3150800CB507BFE8046242007F0CFFC434606462A463D
S3150800CB600749FEF7F1FB314607F1C00007F0F0FA76
S3150800CB70606806F10C013030FFF768FEBDE8F08109
S3150800CB80205902082DE9F041044600688846FFF757
S3150800CB905BFE626807461C2002F1480507F0ACFCFC
S3150800CBA0434606462A460849FEF76CFE314607F113
S3150800CBB0C00007F0CDFA606806F10C013030FFF7C7
S3150800CBC045FEBDE8F08100BF1459020843681961A3
S3150800CBD0704743689961704743681962704708B59A
S3150800CBE040682430FFF732FE08BD08B54068283093
S3150800CBF0FFF72CFE08BDF7B5044600688DE8060069
S3150800CC00FFF722FE06462068FFF71EFE07461C2091
S3150800CC1007F072FC9DE80C0005463946FEF75EFCF7
S3150800CC20294606F1C00007F093FA05F10C012046E3
S3150800CC3003B0BDE8F040FFF7D8BF00002DE9F74381
S3150800CC4005460846296801920BF012FA0646286836
S3150800CC50FFF7FAFD07461C20BDF90490BDF90680CA
S3150800CC6007F04AFC044607F03FFA134B2360134BC0
S3150800CC7063616436002323762661A4F80C90A4F831
S3150800CC800E80214607F1C00007F062FA2868FFF710
S3150800CC90DBFD06462868FFF7D7FD143400F11C01B2
S3150800CCA022463046FFF7B8FD2868FFF7CDFD8461B8
S3150800CCB003B0BDE8F08300BFEC5802088C4D0208AB
S3150800CCC02DE9F8430446006888469146FFF7BCFDFF
S3150800CCD006462068FFF7B8FD07464FF48C7007F044
S3150800CCE00BFC4B460546424639460DF045FE29469D
S3150800CCF006F1C00007F02CFA702007F0FDFB064687
S3150800CD002068FFF7A1FD05F1BC0100F19402304649
S3150800CD100DF00CFA63682068BC3368362B61AE6187
S3150800CD20FFF792FD06462068FFF78EFD0746D820D6
S3150800CD3007F0E2FB3946044605F134020DF024F803
S3150800CD40214606F1C000BDE8F84307F001BA10B560
S3150800CD5004460068FFF78BFA204610BD2DE9FF410F
S3150800CD60044601600846FFF76FFD06462068FFF790
S3150800CD706BFD0746DC2007F0BFFB39460546FDF785
S3150800CD80A3FE294606F1C00007F0E2F965602068AF
S3150800CD9002F066FCD0F8503406465B68002100F5C0
S3150800CDA08A609847274A51681068128901AB03C3FD
S3150800CDB020681A804FF096730193FFF745FD0746E2
S3150800CDC0782007F099FB01AA054606F22C4109F0DE
S3150800CDD02DF8294607F1C00007F0BAF92068FFF7D1
S3150800CDE033FD62680746142002F1400607F084FB0B
S3150800CDF03246804605F1340109F086F8414607F1C6
S3150800CE00C00007F0A5F92068FFF71EFD626807460F
S3150800CE10142002F1780607F06FFB3246804605F1CA
S3150800CE201C0109F071F8414607F1C00007F090F9B6
S3150800CE302046FFF717FD2046FFF744FD204604B0BD
S3150800CE40BDE8F081B459020803460069197E0268F4
S3150800CE50526811B1B3F90E101047B3F90C10FBE77D
S3150800CE6008B5FFF7F1FF08BD08B5FFF7EDFF08BDE8
S3150800CE7003460069197E0268526809B1D9891047C4
S3150800CE809989FCE708B5FFF7F3FF08BD08B5FFF772
S3150800CE90EFFF08BD70474368084618472DE9F74372
S3150800CEA0814602F057FE0646484602F0E5FB00F5C5
S3150800CEB06875382007F020FB06F1C00407462946A6
S3150800CEC00EF06EFC3946204607F042F9382007F086
S3150800CED013FB294680460EF08FFD4146204608F191
S3150800CEE0300807F035F9C6F860801C2007F004FB07
S3150800CEF04FF49A7207464146FDF79AFF394620468F
S3150800CF00143707F025F9B767C6F88070102007F0C0
S3150800CF10F3FA3A46654B664907F070FC382007F085
S3150800CF20EBFA294607460EF0A1FD3946204630376A
S3150800CF3007F00EF9C6F89070382007F0DDFA294692
S3150800CF4007460EF007FE39462046303707F000F947
S3150800CF50C6F89870382007F0CFFA294607460EF02B
S3150800CF6033FE39462046303707F0F2F8C6F8A07087
S3150800CF70382007F0C1FA294607460EF05FFE394603
S3150800CF802046303707F0E4F8B762382007F0B4FADD
S3150800CF90294607460EF09AFC39462046303707F0F0
S3150800CFA0D7F83761382007F0A7FA294607460EF062
S3150800CFB031FC39462046303707F0CAF8376738203B
S3150800CFC007F09AFA294607460EF08AFD39462046A2
S3150800CFD007F0BEF8382007F08FFA294607460EF004
S3150800CFE0B3FC3946204607F0B3F849466846FFF7CA
S3150800CFF0B5FE6846FFF7B8FC6846FFF78DFC68463D
S3150800D000FFF7E0FC6846FFF74BFD6846FFF702FDB1
S3150800D0106846FFF791FD4C2007F06EFA2946074649
S3150800D0200EF078FE3946204607F092F807F12008F8
S3150800D030102007F061FA42461E4B1F4907F0DEFB37
S3150800D04007F12805102007F057FA1A4B1B492A46FC
S3150800D05007F0D4FB07F13C01C6F8508035636846F3
S3150800D060FFF7B4FD502007F047FA49460546FEF794
S3150800D0706DFD302007F040FA114A06464946FDF78D
S3150800D080CDFF3146204607F063F805F13C026846B5
S3150800D0900C49FFF715FE2946204607F059F8684659
S3150800D0A0FFF755FE03B0BDE8F08300BFD04F020876
S3150800D0B0B4580208E04F0208385A02083C5A0208D7
S3150800D0C0105A02081C5A02082DE9F04F85B0894605
S3150800D0D0074602F03FFD0546384602F0C1FA824689
S3150800D0E0384602F0C9FA00F56876382007F004FADF
S3150800D0F005F1C004804631460FF0F6FA414620464F
S3150800D10007F026F8382007F0F7F9314683460FF07E
S3150800D1109DFB594620460BF1300B07F019F8C5F868
S3150800D12060B01C2007F0E8F94FF49A728046594619
S3150800D130FDF77EFE4146204608F1140807F008F878
S3150800D140C5F87880C5F88080102007F0D5F94246E2
S3150800D1506C4B6D4907F052FB382007F0CDF9314684
S3150800D16080460FF0ADFB4146204606F0F1FF08F178
S3150800D1703003C5F89030642007F0BEF90AF514723A
S3150800D1808046624908F0A8FA4146204606F0E0FFC4
S3150800D19008F14C03C5F89830382007F0ADF9314648
S3150800D1A080460FF073FC4146204606F0D1FF08F191
S3150800D1B03003C5F8A030B9F1000F0DD0382007F0BC
S3150800D1C09BF9314680460FF0B5FB4146204606F0EE
S3150800D1D0BFFF08F13003AB62382007F08DF93146FE
S3150800D1E080460FF0F5FA4146204606F0B1FF08F1F1
S3150800D1F030032B61382007F07FF9314680460FF05F
S3150800D200ADFA4146204606F0A3FF08F130032B6726
S3150800D21039466846FFF7A2FD6846FFF7A5FB68464C
S3150800D220FFF77AFB6846FFF7CDFB6846FFF738FC41
S3150800D2306846FFF7EFFB6846FFF77EFC482007F0D5
S3150800D2405BF9314680460FF0E9FB4146204606F079
S3150800D2507FFF08F12009102007F04EF94A462C4BAB
S3150800D2602C4907F0CBFA08F12806102007F044F9F4
S3150800D2703246274B284907F0C1FA102007F03CF937
S3150800D28008F14002254B264907F0B8FA08F1400193
S3150800D2906846FFF777FCC5F850902E6308F1380109
S3150800D2A06846FFF79CFC1F4B029301230393DDE9B5
S3150800D2B002126846FFF79FFC502007F01DF9394611
S3150800D2C00546FEF7E1FD302007F016F9164A064630
S3150800D2D03946FDF7A3FE3146204606F039FF05F12B
S3150800D2E03C0268461149FFF7EBFC2946204606F042
S3150800D2F02FFF3846FEF7BBFF6846FFF728FD05B047
S3150800D300BDE8F08FD04F0208B4580208C072020870
S3150800D310E04F0208385A02083C5A0208D44F02085D
S3150800D320C45A0208C05A0208B45A0208A45A020883
S3150800D3300121FFF7C9BE0021FFF7C6BE2DE9FF4749
S3150800D340074602F007FC0546384602F089F9814689
S3150800D350384602F091F900F56876382007F0CCF8DF
S3150800D36005F1C004804631460FF0BEF94146204615
S3150800D37006F0EEFE382007F0BFF8314682460FF079
S3150800D38065FA514620460AF1300A06F0E1FEC5F86C
S3150800D39060A01C2007F0B0F84FF49A7280465146F8
S3150800D3A0FDF746FD4146204608F1140806F0D0FE72
S3150800D3B0C5F87880C5F88080102007F09DF84246A9
S3150800D3C06B4B6C4907F01AFA382007F095F8314686
S3150800D3D080460FF075FA4146204606F0B9FE08F178
S3150800D3E03003C5F89030642007F086F809F5147202
S3150800D3F08046614908F070F94146204606F0A8FEC5
S3150800D40008F14C03C5F89830382007F075F831460E
S3150800D41080460FF03BFB4146204606F099FE08F190
S3150800D4203003C5F8A030382007F066F83146804644
S3150800D4300FF080FA4146204606F08AFE08F13003CE
S3150800D440AB62382007F058F8314680460FF0C0F92D
S3150800D4504146204606F07CFE08F130032B61382051
S3150800D46007F04AF8314680460FF078F941462046DB
S3150800D47006F06EFE08F130032B6739466846FFF75B
S3150800D4806DFC6846FFF770FA6846FFF745FA684686
S3150800D490FFF798FA6846FFF703FB6846FFF7BAFAFC
S3150800D4A06846FFF749FB482007F026F831468046CC
S3150800D4B00FF0B4FA4146204606F04AFE08F1200964
S3150800D4C0102007F019F84A462C4B2D4907F096F913
S3150800D4D008F12806102007F00FF83246274B29498D
S3150800D4E007F08CF9102007F007F808F14002264BE0
S3150800D4F0264907F083F908F140016846FFF742FB21
S3150800D500C5F850902E6308F138016846FFF767FBA7
S3150800D5101F4B029301230393DDE902126846FFF7C6
S3150800D5206AFB502006F0E8FF39460546FEF70CFE72
S3150800D530302006F0E1FF174A06463946FDF76EFD2C
S3150800D5403146204606F004FE05F13C0268461249BB
S3150800D550FFF7B6FB2946204606F0FAFD3846FEF7E1
S3150800D56086FE6846FFF7F3FB04B0BDE8F08700BF08
S3150800D570D04F0208B458020888720208E04F020821
S3150800D580385A02083C5A0208D44F0208C45A0208FC
S3150800D590C05A0208185B02082C5B02082DE9FF47EF
S3150800D5A0804602F069F800F56875404602F0D2FA3E
S3150800D5B00646382006F0A0FF06F1C00407462946AD
S3150800D5C010F07EF93946204606F0C2FD382006F0EE
S3150800D5D093FF2946814610F025FA4946204609F167
S3150800D5E0300906F0B5FDC6F860901C2006F084FFE9
S3150800D5F04FF49A7207464946FDF71AFC3946204603
S3150800D600143706F0A5FDB767C6F88070102006F037
S3150800D61073FF3A46764B774907F0F0F8382006F05C
S3150800D6206BFF2946074610F037FA39462046303749
S3150800D63006F08EFDC6F89070382006F05DFF294684
S3150800D640074610F063FA39462046303706F080FD63
S3150800D650C6F89870382006F04FFF2946074610F09E
S3150800D6608FFA39462046303706F072FDC6F8A070A4
S3150800D670382006F041FF2946074610F0BBFA39461E
S3150800D6802046303706F064FDB762382006F034FFCE
S3150800D6902946074610F088F939462046303706F0FD
S3150800D6A057FD3761382006F027FF2946074610F050
S3150800D6B041F939462046303706F04AFD4146376774
S3150800D6C06846FFF74BFB6846FFF74EF96846FFF7D3
S3150800D6D023F96846FFF712FA6846FFF773F96846B2
S3150800D6E0FFF7DEF96846FFF795F96846FFF724FA6B
S3150800D6F04C2006F001FF2946074610F003FB394681
S3150800D700204606F025FD07F1200A102006F0F4FE53
S3150800D7105246394B394907F071F807F128091020A4
S3150800D72006F0EAFE4A46344B354907F067F8C6F86C
S3150800D73050A0C6F8309007F13C016846FFF746FA54
S3150800D74007F144016846FFF74AFA2E4B0293012374
S3150800D7500393DDE902126846FFF74DFA402006F00A
S3150800D760CBFE2946064610F027FB3146204606F032
S3150800D770EFFC06F12005102006F0BEFE2A46224BD5
S3150800D780224907F03BF8102006F0B6FE1E4B20494A
S3150800D79006F1300207F032F829466846FFF7F2F933
S3150800D7A006F130016846FFF714FA502006F0A4FE89
S3150800D7B041460546FEF718FC302006F09DFE154A40
S3150800D7C006464146FDF72AFC3146204606F0C0FCCF
S3150800D7D005F13C0268461049FFF772FA29462046C9
S3150800D7E006F0B6FC6846FFF7B2FA04B0BDE8F08763
S3150800D7F0D04F0208B4580208E04F0208385A020807
S3150800D8003C5A0208C05A0208D44F0208C45A0208F1
S3150800D810A85B02089C5B02088C5B02082DE9FF479F
S3150800D820074601466846FFF799FA384601F024FF8D
S3150800D83000F56874384602F08DF90546382006F07A
S3150800D8405BFE05F1C006804621460FF071FC414695
S3150800D850304606F07DFC382006F04EFE214681460D
S3150800D8600FF090FD4946304609F1300906F070FC84
S3150800D870C5F860901C2006F03FFE4FF49A72804669
S3150800D8804946FDF7D5FA4146304608F1140806F030
S3150800D8905FFCC5F87880C5F88080102006F02CFE5D
S3150800D8A04246734B734906F0A9FF382006F024FE5A
S3150800D8B0214680460FF0DAFD4146304606F048FC20
S3150800D8C008F13003C5F89030382006F015FE2146D9
S3150800D8D080460FF005FE4146304606F039FC08F151
S3150800D8E03003C5F89830902006F006FE214680469B
S3150800D8F00FF088FF4146304606F02AFC08F18803F7
S3150800D900C5F8A030382006F0F7FD214680460FF00E
S3150800D9105BFE4146304606F01BFC08F13003AB625D
S3150800D920382006F0E9FD214680460FF075FC414691
S3150800D930304606F00DFC08F130032B61382006F05E
S3150800D940DBFD214680460FF02DFC4146304606F0A9
S3150800D950FFFB08F130032B676846FFF705F86846B2
S3150800D960FEF7DAFF6846FFF72DF86846FFF798F8DE
S3150800D9706846FFF74FF86846FFF7DEF84C2006F0D2
S3150800D980BBFD214680460FF0A1FE4146304606F013
S3150800D990DFFB08F1200A102006F0AEFD5246364B92
S3150800D9A0364906F02BFF08F12809102006F0A4FDD9
S3150800D9B04A46314B324906F021FFC5F850A0C5F852
S3150800D9C0309008F13C016846FFF700F908F1440178
S3150800D9D06846FFF704F92B4B029301230393DDE90D
S3150800D9E002126846FFF707F9282006F085FD21464A
S3150800D9F005460FF0B1FE2946304606F0A9FB102071
S3150800DA0006F07AFD204B214905F1200206F0F6FEC4
S3150800DA1005F120016846FFF7B5F8384602F09AF88E
S3150800DA2000F1C004502006F067FD39460546FEF7AA
S3150800DA30DBFA302006F060FD154A06463946FDF742
S3150800DA40EDFA3146204606F083FB05F13C026846AE
S3150800DA501049FFF735F92946204606F079FB38467E
S3150800DA60FEF705FC6846FFF772F904B0BDE8F087D3
S3150800DA70D04F0208B4580208E04F0208385A020884
S3150800DA803C5A0208C05A0208D44F0208C45A02086F
S3150800DA900C5C0208FC5B02082DE9F04385B0804661
S3150800DAA001F0EAFD00F56875404602F053F80446B1
S3150800DAB0404601F0D5FD8146382006F01DFD04F1EB
S3150800DAC0C006074629460EF097FA394630463037DB
S3150800DAD006F03EFBA767102006F00EFD3A46344BCB
S3150800DAE0344906F08BFE382006F006FD294607461F
S3150800DAF00EF0BCFA39463046303706F029FBC4F832
S3150800DB009070382006F0F8FC294607460EF0E8FA29
S3150800DB1039463046303706F01BFB2763382006F0B7
S3150800DB20EBFC294607460EF015FB394630463037DA
S3150800DB3006F00EFBC4F89870382006F0DDFC29467E
S3150800DB4007460EF041FB3946304606F001FB3037F2
S3150800DB5009F58D63A3624146C4F8A07002A8FFF7D1
S3150800DB60FDF802A8FEF782FF02A8FEF7D5FE02A876
S3150800DB70FEF728FF02A8FEF7DFFF02A8FEF74AFF16
S3150800DB800D494FF07A7202A8FFF758F8302006F0D0
S3150800DB90B3FC0A4A04464146FDF740FA2146304698
S3150800DBA006F0D6FA02A8FFF7D2F805B0BDE8F0836A
S3150800DBB0D04F0208AC580208645C0208885C020868
S3150800DBC02DE9F04385B0804601F056FD00F56876EC
S3150800DBD0404601F0BFFF0546382006F08DFC314669
S3150800DBE007460EF02BFB394605F1C00006F0B0FAE1
S3150800DBF0382006F081FC314681460EF0D1FB4946B5
S3150800DC0005F1C00009F1300906F0A2FAC5F86090DE
S3150800DC101C2006F071FC4FF49A7207464946FDF738
S3150800DC2007F9394605F1C000143706F091FAAF67CF
S3150800DC30C5F88070102006F05FFC3A46734B7449AD
S3150800DC4006F0DCFD382006F057FC314607460EF094
S3150800DC50E1FB394605F1C000303706F079FAC5F818
S3150800DC609070382006F048FC314607460EF00CFC4A
S3150800DC70394605F1C000303706F06AFAC5F89870DB
S3150800DC80382006F039FC314607460EF037FC39468F
S3150800DC9005F1C000303706F05BFAC5F8A0703820E9
S3150800DCA006F02AFC314607460EF062FC394605F1B5
S3150800DCB0C000303706F04CFAAF62382006F01CFC7C
S3150800DCC0314607460EF02EFB394605F1C0003037BF
S3150800DCD006F03EFA2F61382006F00EFC314607465C
S3150800DCE00EF0E6FA394605F1C000303706F030FA8C
S3150800DCF041462F676846FFF731F86846FEF734FE57
S3150800DD006846FEF709FE6846FEF75CFE6846FEF7BB
S3150800DD10C7FE6846FEF77EFE6846FEF70DFF5820EA
S3150800DD2006F0EAFB314607460EF0A2FC394605F135
S3150800DD30C00006F00DFA07F12009102006F0DCFBFA
S3150800DD404A46344B344906F059FD07F12806102097
S3150800DD5006F0D2FB32462F4B304906F04FFD2E63B4
S3150800DD60C5F85090102006F0C7FB07F130022C4B7F
S3150800DD702C4906F043FD07F130016846FEF702FF1D
S3150800DD8007F140016846FEF721FF07F15001684692
S3150800DD90FEF725FF244B029301230393DDE90212C4
S3150800DDA06846FEF728FF502006F0A6FB41460646C1
S3150800DDB0FEF7CAF9302006F09FFB1C4A0746414683
S3150800DDC0FDF72CF9394605F1C00006F0C1F94FF404
S3150800DDD08C7006F091FB164A06F13C030746294665
S3150800DDE00CF0CAFD394605F1C00006F0B1F9314616
S3150800DDF005F1C00006F0ACF94046FEF738FA684669
S3150800DE00FEF7A5FF05B0BDE8F08300BFD04F0208B6
S3150800DE10B4580208E04F0208385A02083C5A020869
S3150800DE20D44F0208C45A0208C05A0208E45C020821
S3150800DE30F85C02082DE9F743804601F01DFC00F561
S3150800DE406877404601F086FE0446382006F054FB03
S3150800DE5004F1C005064639460EF052FE31462846FC
S3150800DE60303606F075F9A667C4F88060102006F00B
S3150800DE7043FB3246594B5A4906F0C0FC382006F097
S3150800DE803BFB394606460EF0B3FE31462846303689
S3150800DE9006F05EF9C4F89060382006F02DFB394686
S3150800DEA006460EF0DFFE31462846303606F050F9B3
S3150800DEB0C4F89860382006F01FFB394606460EF06F
S3150800DEC00BFF31462846303606F042F9C4F8A06002
S3150800DED0382006F011FB394606460EF04BFE314651
S3150800DEE02846303606F034F9414626616846FEF77C
S3150800DEF035FF6846FEF738FD6846FEF70DFD6846AD
S3150800DF00FEF760FD6846FEF7CBFD6846FEF782FD24
S3150800DF106846FEF7ABFD6846FEF70EFE404601F082
S3150800DF209FFB012100F58B60FCF790FA482006F06C
S3150800DF30E3FA394606460EF03FFF3146284606F014
S3150800DF4007F906F12009102006F0D6FA4A46254BAD
S3150800DF50254906F053FC06F12807102006F0CCFAEE
S3150800DF603A46204B214906F049FC06F13801C4F827
S3150800DF70509027636846FEF729FE102006F0BCFA83
S3150800DF801B4B1C4906F1300206F038FC06F130013D
S3150800DF906846FEF7F7FD502006F0AEFA41460446FD
S3150800DFA0FDF7C2FE302006F0A7FA134A0646414698
S3150800DFB0FDF734F83146284606F0CAF804F13C0263
S3150800DFC068460E49FEF77CFE2146284606F0C0F84C
S3150800DFD06846FEF7BCFE03B0BDE8F083D04F0208E2
S3150800DFE0B4580208E04F0208385A02083C5A020898
S3150800DFF0D44F0208C45A0208785D0208685D020810
S3150800E0002DE9FF41804601F037FB00F5687540466B
S3150800E01001F0A0FD0446382006F06EFA04F1C006A9
S3150800E020074629460EF000FF39463046303706F0D7
S3150800E0308FF8A767102006F05FFA04F174024B4BBD
S3150800E0404B4906F0DBFB382006F056FA2946074608
S3150800E0500EF062FF39463046303706F079F8C4F8D4
S3150800E0609070382006F048FA294607460EF0CCFF8D
S3150800E07039463046303706F06BF8C4F8A0703820B9
S3150800E08006F03AFA294607460EF008FF39463046A2
S3150800E090303706F05DF84146276102A8FEF75EFEB6
S3150800E0A002A8FEF739FC02A8FEF78CFC02A8FEF7C8
S3150800E0B0F7FC02A8FEF740FD02A8FEF7ABFC02A893
S3150800E0C0FEF752FC382006F017FA294607460EF0E6
S3150800E0D05DFF3946304606F03BF807F1300102A8E5
S3150800E0E0FEF777FD302006F007FA294607460EF0B8
S3150800E0F0EDFF3946304606F02BF807F120051020CB
S3150800E10006F0FAF92A461B4B1B4906F077FB102046
S3150800E11006F0F2F92A46174B184906F06FFB28371E
S3150800E12025632565102006F0E7F9154B15493A468B
S3150800E13006F064FB394602A8FEF74EFD12494FF079
S3150800E1407A7202A8FEF77AFD302006F0D5F90F4A52
S3150800E15004464146FCF762FF2146304605F0F8FFC3
S3150800E16002A8FEF7F4FD04B0BDE8F081D04F02081E
S3150800E170AC580208E04F0208385A02083C5A02080E
S3150800E180D44F0208FC5D0208CC5D0208F05D020867
S3150800E19070B50D4616460446102006F0ADF933460E
S3150800E1A02A462146BDE8704006F028BB2DE9F04313
S3150800E1B085B0054601F0CEFC0746284601F050FA20
S3150800E1C033490295044602A8FEF7D0F9B8676420D9
S3150800E1D006F092F904F5147206462E4907F07CFA01
S3150800E1E0314607F1C0004C3605F0B2FF2946C7F89C
S3150800E1F0A06002A8FEF7B2FD02A8FEF78DFB02A8F2
S3150800E200FEF708FC02A8FEF7AFFB284601F028FA3D
S3150800E2104FF0010900F58D661F4A80F8789431465B
S3150800E2201E48FFF7B5FF49463E6104F29440FCF7E5
S3150800E2300DF9194A1A4804F2A441FFF7A9FF04F296
S3150800E240A44102A8FEF7C5FC134A164804F59C61CA
S3150800E250FFF79EFF04F59C6102A8FEF7BDFC124974
S3150800E2604FF07A7202A8FEF7E9FC302006F044F96E
S3150800E2700E4A04462946FCF7D1FE214607F1C0009E
S3150800E28005F066FF02A8FEF762FD05B0BDE8F0835B
S3150800E29000100020345E0208D44F0208805E02088F
S3150800E2A0A85B0208FC5D0208505E0208745E02085C
S3150800E2B02DE9F74F804601F0D3F90746404601F0AD
S3150800E2C049FC0446404601F0D7F9414600F5687511
S3150800E2D06846FEF743FD6846FEF71EFB6846FEF7EE
S3150800E2E099FB382006F008F904F1C006814629464C
S3150800E2F010F02EFB4946304605F02AFF09F1300397
S3150800E300C4F89030382006F0F7F82946814610F010
S3150800E310E5FA4946304609F1300905F019FFC4F80F
S3150800E3207890102006F0E8F84A46464B464906F02B
S3150800E33065FA382006F0E0F82946814610F0A8FB71
S3150800E3404946304605F004FF09F13003C4F8983011
S3150800E350382006F0D1F82946814610F0EFFB4946E9
S3150800E360304605F0F5FE09F1200B102006F0C4F83A
S3150800E3705A46364B364906F041FA09F1280A102062
S3150800E38006F0BAF85246314B324906F037FAC4F865
S3150800E39050B0C4F830A0202006F0AEF829468246D0
S3150800E3A010F034FB5146304605F0D2FE0AF1100350
S3150800E3B0A362382006F0A0F82946824610F0F2FB40
S3150800E3C05146304605F0C4FE0AF13003C4F8A030C1
S3150800E3D009F130016846FEF7F9FBD7F8C834012180
S3150800E3E05B6807F59960984707F2A447102006F07E
S3150800E3F083F83A46184B194906F000FA2761684629
S3150800E400FEF7B2FA6846FEF7DDFA4146144809F007
S3150800E4102FFE436E4FF47A715B686430984730205C
S3150800E42006F06AF80F4A04464146FCF7F7FD21460E
S3150800E430304605F08DFE6846FEF789FC03B0BDE858
S3150800E440F08F00BFD04F0208AC580208E04F020810
S3150800E450385A02083C5A0208D44F0208805E02085D
S3150800E460C05E0208E45E02082DE9FF47804601F017
S3150800E47071FB0646404601F0FFF800F5687538203E
S3150800E48006F03AF806F1C004074629460FF0C8FC1C
S3150800E4903946204605F05CFE382006F02DF8294658
S3150800E4A081460FF06FFD4946204609F1300905F00F
S3150800E4B04FFEC6F860901C2006F01EF84FF49A72BC
S3150800E4C007464946FCF7B4FC39462046143705F09A
S3150800E4D03FFEB767C6F88070102006F00DF83A467A
S3150800E4E0754B764906F08AF9382006F005F829466C
S3150800E4F007460FF081FD39462046303705F028FEDD
