S02B0000453A5C7265706F735C63735C72656C656173655C6C636D335C6C636D335C6170705C6C636D332D62D4
S31508009000002000202D9200083192000837920008AF
S31508009010519200085792000871920008000000005B
S31508009020FFFFFFFF00000000000000008B92000811
S315080090309192000800000000979200089D9200088F
S31508009040595D0108695D0108795D0108895D0108B6
S31508009050995D0108A95D0108B95D0108C95D0108A6
S31508009060D95D0108E95D0108F95D0108095E010895
S31508009070195E0108295E0108395E0108495E010882
S31508009080595E0108695E0108795E0108895E010872
S31508009090995E0108A95E0108B95E0108C95E010862
S315080090A0D95E0108E95E0108F95E0108095F010851
S315080090B0195F0108295F0108395F0108495F01083E
S315080090C0595F0108695F0108795F0108895F01082E
S315080090D0995F0108A95F0108B95F0108C95F01081E
S315080090E0D95F0108E95F0108F95F0108096001080D
S315080090F019600108296001083960010849600108FA
S31508009100000000000000000000000000596001088F
S315080091106960010879600108896001089960010899
S31508009120A9600108B9600108C9600108D960010889
S31508009130E9600108F960010800000000000000006D
S315080091400961010819610108296101080000000088
S315080091500000000000000000000000000000000001
S31508009160000000000000000039610108496101089B
S31508009170596101080000000000000000000000001E
S30D08009180000000006961010806
S31508009188326437613838620008B500F0D1F81D4AEC
S315080091981D48824217D31D4A1D4900208A421DD3FD
S315080091A802F0AAFA1B4D1C4B5B1B9C100026B44206
S315080091B81DDC1A4D1A4B5B1B9C100026B4421BDC9F
S315080091C813F0B0FEFEE7D2E9001394680C32C91A08
S315080091D89C42DED95D5843F8045BF9E752F8083B28
S315080091E852F8044C9C42D9D943F8040BFAE755F8C7
S315080091F8043B98470136DAE755F8043B98470136A1
S31508009208DCE700BF4C9400085894000858940008F6
S315080092186094000860940008609400086094000848
S315080092286C9400081C48004708B50AF0B1F81EF007
S31508009238040F0CBFEFF30880EFF309807146174A4D
S31508009248104708B50AF0A4F808B50AF0A1F81EF000
S31508009258040F0CBFEFF30880EFF309807146104A34
S31508009268104708B50AF094F81EF0040F0CBFEFF380
S315080092780880EFF3098071460A4A104708B50AF0CC
S3150800928887F808B50AF084F808B50AF081F808B529
S315080092980AF07EF870470000919100084B92000882
S315080092A86B920008859200081C4B1A6822F4502213
S315080092B81A601A6842F480321A601A689103FCD553
S315080092C8174A520102F18442012111604FF4806263
S315080092D85A60144A116821F0040111606FF07F4141
S315080092E85160116841F0010111600F4A5A60002265
S315080092F8DA621A6842F080721A601A689201FCD516
S315080093080A4A122111605A6842F002025A605A68DB
S3150800931802F00C02082AFAD1704700BF0010024072
S315080093282410024010E000E000041100002002406A
S3150800933870B53E4C2368002243F00103236062603F
S31508009348236823F0847323F480332360E262236856
S3150800935823F480232360A260E36843F00103E360F3
S31508009368E36823F00103E360A36943F00103A361FB
S31508009378FFF79AFF2E4B2F4A9A6062B62E4ADA6092
S31508009388A36A43F08053A362A36A23F08053A362B7
S31508009398636943F080536361E36A23F4F873E3620D
S315080093A8E36A43F48073E362BFF34F8F234DAB68D8
S315080093B823F04053AB60AB6842F2107043F0805319
S315080093C8AB600AF051F8AB6843F00043AB60AB6892
S315080093D8002BFCDB38200AF047F8AB68184843F03E
S315080093E80103AB600BF0D0FCC1232B630026AB68E6
S315080093F84FF47A7043F00403AB600AF035F82B682B
S315080094085B07FCD52B6CB3F5946FF0D30136642E45
S31508009418EDD1A36A43F08053A362A36A23F080536D
S31508009428A362636923F08053636170BD001002402C
S3150800943800ED00E0009000080003FA05000000505F
S30908009448186102088F
S3150800944CEC75020800200020202300202023002091
S3150800945C2C4E00206DB7000869FC000895FC000826
S315080094700020704700797047017101207047007914
S31508009480704701710120704738B51C4652B91B68F0
S315080094901D690B6808461B68984701462046A84779
S315080094A0012038BD0020FCE713B50C466AB91A68D6
S315080094B00DF106011846126990472368BDF8061093
S315080094C05B682046984702B010BD0020FBE738B518
S315080094D01C4652B91B681D680B6808461B689847E6
S315080094E001462046A847012038BD0020FCE713B5F1
S315080094F00C466AB91A680DF10701184612689047B2
S3150800950023689DF807105B682046984702B010BD8F
S315080095100020FBE738B51C4652B91B689D680B68E6
S3150800952008461B68984701462046A847012038BDCB
S315080095300020FCE713B50C466AB91A680DF1070155
S3150800954018469268904723689DF807105B6820467E
S31508009550984702B010BD0020FBE70000004870479E
S315080095600BAE0008012804D0831E5842584100015A
S3150800957070470220704700000F4B70B50446036021
S31508009580D0F8B00040B9666E04F1140556B9204605
S3150800959001F0B8FD204670BD05680C2102F0E0F820
S315080095A02846EFE7E869013E18B1696A091A02F028
S315080095B0D7F82835EAE700BFC431020810B50446D3
S315080095C0FFF7DAFF2046C82102F0CAF8204610BD88
S315080095D010B5D1E902329A4200D110BD5A1C8A60F0
S315080095E00A68D45C83685A1C82600268D454F0E71F
S315080095F037B50B46CDE900128A18934201D103B05C
S3150800960030BD816813F8015B4C1C8460046865549E
S31508009610F3E70000064B1422013A02D14FF6FF7019
S3150800962070471968814201D1988870470833F3E773
S315080096301C3202084368D86EFFF7ECBF4368186F00
S31508009640FFF7E8BFF0B503460C460F46054601F19D
S31508009650100C3E4603CE664528606960374605F11C
S315080096600805F6D130682860A17DA08A9882997588
S31508009670D4E90601DA75E27D1A760022C3E9070104
S315080096805A6283F828201846F0BD000090F8263064
S3150800969082B063B90A4B0193BDF80430002063F326
S315080096A00F00BDF8063063F31F4002B07047036A27
S315080096B023B190F828300BB9024BECE70023EAE710
S315080096C004FD010006FD010090F8263084B0CDE9BE
S315080096D0001293B9022A03BF0A8882840123002351
S315080096E004BF012280F826208DF80C3001209DF851
S315080096F00C3043EA002004B07047036A2BB190F897
S31508009700283033B9012380F8283018468DF80C0024
S31508009710EDE70020FAE7000084B02DE9F0410546A0
S3150800972007A880E80E000BAE03462A461C4603CC63
S31508009730B44210605160234602F10802F6D120684F
S31508009740106000230122C5E90523DDE90C62C5E99D
S3150800975007336B621A4BB3EB421F06EB421842F310
S315080097601A0402D2174813F0FDFB2C2767431CB1D5
S31508009770384601F0E9FF0446C5E9074427446F6205
S315080097803746B84508D12C62334698450CD1284649
S31508009790BDE8F04104B07047394620460122FFF77C
S315080097A051FF20372C34ECE75A7D02F03002002AAC
S315080097B06A690CBF022103210A446A612033E4E77F
S315080097C0C045175D3E310208837E07B563B9104B65
S315080097D00093BDF80030002063F30F00BDF8023097
S315080097E063F31F4003B000BDD0E90721914202D1BF
S315080097F00023019307E01046FFF748FF10F47F0F98
S31508009800009002D00190019BE2E72C32EEE700BF00
S3150800981002FD01007FB5837ECDE90012D3B9022A85
S3150800982003BF0A8802830123002308BF01228DF89B
S315080098300C304FF0010308BF82768DF80D309DF885
S315080098400C30002063F307009DF80D3063F30F20FA
S3150800985004B070BDD0E90746B44203D10023ADF881
S315080098600C30ECE7DDE900122046FFF72DFF10F477
S315080098707F4F02D0ADF80C00E1E72C34ECE738B5A1
S3150800988004460C200D4601F05FFF034695E80300E9
S31508009890D4F8B0201A60C3E90101C4F8B03038BD65
S315080098A0C36810B504465868012118300BF014FB3C
S315080098B01423C4E92A33014810BD00BF81AA000851
S315080098C0FFF7EEBF13B5CDE9002313461278042A35
S315080098D004460BD1019A597801700333033AC0E95B
S315080098E0013201230373204602B010BD1022002165
S315080098F013F064FDF7E7836801680246C85C013324
S315080099009360704773B5CDE9001205460E460C46BE
S31508009910019B33449C4209D0D5E902329A4205D0CC
S315080099202846FFF7E8FF04F8010BF1E702B070BD1F
S3150800993083680268D154836801338360704730B501
S3150800994005698368026841F2E104A54204BF49BA81
S3150800995089B2D15283680233836030BDF0B5ABB0AB
S31508009960CDE90012D5B21F467F2240F2D243064601
S3150800997006920892099301220AAB05A84FF60651EA
S3150800998005938DF828200792FFF7D9FFA91D05A88A
S31508009990C9B2FFF7CDFF394605A8FFF7D0FFBDF8D6
S315080099A0C01005A8FFF7CBFF05A80021FFF7C0FFE9
S315080099B0294605A8FFF7BCFFDDE9001205A8FFF751
S315080099C017FE059B0393079B039904931A46304693
S315080099D009F0BBFE2BB0F0BD10B590F89C3086B0F0
S315080099E0CDE902126BB1142A0BD8D0E91532B2F8B8
S315080099F0502000920593DDE90212C0689BB2FFF77A
S31508009A00ADFF06B010BD000030B5044685B0C56888
S31508009A1002A80CF0B9FBB4F8A2300093B4F89E3053
S31508009A202846DDE90212FFF799FF03480A23C4E92D
S31508009A302A3305B030BD00BF81A600082DE9F047DE
S31508009A4090F826609EB00446884691469A46002EAF
S31508009A506AD100783C4AFFF785FD91458CBF0A22FA
S31508009A6009224023871805930EAA079340F2D24588
S31508009A7001234FF6045104A804928DF83830069352
S31508009A800895FFF75CFFF9B204A8FFF751FF5146A6
S31508009A9004A8FFF754FF217804A8FFF749FF2378A5
S31508009AA0012B0FBFA31C04F11403221D9B1A08BF28
S31508009AB0099309A908BF022304A8CDE90A36CDE906
S31508009AC00C3518BF0992FFF783FD1F4B217D994579
S31508009AD004A826D8FFF72CFF049A069B617D0492FA
S31508009AE004A80693FFF724FFA17D04A8FFF720FF2B
S31508009AF0E17D04A8FFF71CFF072104A8FFF718FF5C
S31508009B00217E04A8FFF714FF049B0293069B029983
S31508009B1003931A46404609F018FE01201EB0BDE818
S31508009B20F087FFF70CFFD7E7006A0028F6D094F80D
S31508009B3028203AB9A28C0092E16902464046FFF70E
S31508009B400DFFEAE70020E9E71F0007002DE9F041CD
S31508009B50867E9CB0044688461746002E48D1007873
S31508009B60FFF700FD40230CAA07460393059340F22E
S31508009B70D24501234FF6025102A802928DF83030E1
S31508009B8004930695FFF7DBFEF91CC9B202A8FFF796
S31508009B90CFFE217802A8FFF7CBFE2378012B0FBF53
S31508009BA0A31C04F11403221D9B1A08BF079307A9D7
S31508009BB008BF022302A8CDE90836CDE90A3518BF41
S31508009BC00792FFF705FD012102A8FFF7B1FE217DE7
S31508009BD002A8FFF7ADFE029B0093049B0099019330
S31508009BE01A46404609F0B1FD01201CB0BDE8F081D7
S31508009BF0D0E90756B54201D10020F6E72846238B5F
S31508009C003A464146FFF71AFF2C350028F2D0EBE713
S31508009C1030B58BB007230693089340F2D24301AAC6
S31508009C200446099305A801234FF68A418DF80430A6
S31508009C3005920793FFF783FE05A80321FFF778FE31
S31508009C4005A80321FFF774FE002105A8FFF770FE9B
S31508009C5003A80CF099FA9DF8101005A8FFF768FEFE
S31508009C60059B0393079B0493E068DDE9031209F05B
S31508009C706CFD03480A23C4E92A330BB030BD00BF84
S31508009C8091A8000830B58BB005230693089340F2D7
S31508009C90D24304460125099305A801AB4FF6854131
S31508009CA005938DF804500795FFF749FE294605A840
S31508009CB0FFF73EFE05A80321FFF73AFE059B03932F
S31508009CC0079BE068039904931A4609F03EFD03488A
S31508009CD00A23C4E92A330BB030BD00BFA1A6000889
S31508009CE0436E70B5282200F11404054602FB0346AC
S31508009CF0A64204D12846BDE87040FFF7C3BF2046F8
S31508009D00AA6EE968FFF722FF28340028F0D0014838
S31508009D1070BD00BFCDA5000870B592B0054668466F
S31508009D200CF032FA019C1A23082C0793099340F287
S31508009D30D24328BF082401260A9306A80BAB4FF680
S31508009D40834106938DF82C600896FFF7F8FD04F119
S31508009D500E0106A8C9B2FFF7EBFD06A80021FFF71A
S31508009D60E7FD06A82021FFF7EAFD06A82021FFF750
S31508009D70E6FD314606A8FFF7DBFD06A80021FFF73A
S31508009D80D7FDA119C9B206A8FFF7D2FD04A80CF0A1
S31508009D90FBF9059B092B34BF0921082106A8FFF703
S31508009DA0C7FD009BCDE9043406A8DDE90412FFF7D8
S31508009DB01FFC06A80021FFF7BBFD06A80021FFF738
S31508009DC0BEFD06A80021FFF7BAFD069B0293089B75
S31508009DD0E868029903931A4609F0B7FC02480A2371
S31508009DE0C5E92A3312B070BD15A7000830B58BB087
S31508009DF005230693089340F2D243044601250993A6
S31508009E0005A801AB4FF68F4105938DF804500795C9
S31508009E10FFF795FD294605A8FFF78AFD05A80A213B
S31508009E20FFF786FD059B0393079BE0680399049358
S31508009E301A4609F08AFC03480A23C4E92A330BB0F8
S31508009E4030BD00BF55A7000870B594B00BAE0546E7
S31508009E5030460CF099F90C9B082B05D8284614B007
S31508009E60BDE87040FFF7C2BF68460CF08DF9019C4B
S31508009E70069640F2D24224231D2C0A9242F2090188
S31508009E804FF0010206A828BF1D24CDE90823079331
S31508009E908DF82C20FFF753FD202106A8FFF748FD73
S31508009EA0A11CC9B206A8FFF743FD611CC9B206A8E2
S31508009EB0FFF73EFD092106A8FFF73AFD009B22465B
S31508009EC0194606A8CDE90234FFF792FBDDE9081327
S31508009ED08B42069A0CD1CDE90423E86804991A4600
S31508009EE009F033FC06480A23C5E92A3314B070BDC5
S31508009EF0CDE9081306A800210692FFF719FDE5E744
S31508009F0035A7000870B5036992B00446187CFFF7B8
S31508009F1029FB17230CAA06460393059340F2D2455C
S31508009F20012302A84FF68E4102928DF83030049331
S31508009F300695FFF704FDF11C02A8C9B2FFF7F8FC65
S31508009F402369187CFFF70EFB811CC9B202A8FFF72C
S31508009F50EFFC2369187CFFF705FB411CC9B202A870
S31508009F60FFF7E6FC02A80721FFF7E2FC23691A7C43
S31508009F700B95012A0FBF123303F1140224339B1ADF
S31508009F800ABF079307920223002207A902A8CDE970
S31508009F9009230893FFF71CFB029B0093049BE068C8
S31508009FA0009901931A4609F0D0FB03480A23C4E92D
S31508009FB02A3312B070BD00BF75A7000870B58AB005
S31508009FC00B230693089340F2D24305460C461646E1
S31508009FD0099302AA012305A84FF6A4418DF8083073
S31508009FE005920793FFF7ABFC05A80721FFF7A0FC2E
S31508009FF0314605A8FFF79CFC062301930094DDE98A
S3150800A000001205A8FFF7F4FA059B0093079B019336
S3150800A010E868DDE9001209F098FB03480A23C5E958
S3150800A0202A330AB070BD00BF95A7000830B5D0F82E
S3150800A030B8308DB0C0F8B430D0F8C030C0F8BC30F5
S3150800A0400E23002508930A9340F2D24303AA044636
S3150800A05080F884500B9307A801234FF681518DF899
S3150800A0600C3007920993FFF76AFC07A80A21FFF745
S3150800A0705FFCB4F89A1007A8FFF761FC07A8062149
S3150800A080FFF75DFC07A80C21FFF759FC294607A82E
S3150800A090FFF755FC07A8C821FFF751FC079B01935A
S3150800A0A0099BE068019902931A4609F04EFB01489C
S3150800A0B00DB030BDFDAC000830B589B0042304935B
S3150800A0C0069340F2D2430446079303A80123154694
S3150800A0D08DF800300593CDF80CD0FFF730FC03A8B7
S3150800A0E00021FFF725FC039B0193059B0199E06876
S3150800A0F002931A4609F029FBC4E92A5509B030BD6E
S3150800A10008B50A2241F20101FFF7D6FF004808BD4B
S3150800A11015A8000808B50A224FF69241FFF7CCFFAA
S3150800A120004808BD41A6000808B50A224FF60151A5
S3150800A130FFF7C2FF004808BD61A6000808B50A2255
S3150800A1404FF69441FFF7B8FF004808BDF5A600088A
S3150800A15090F87820012A06D890F880300BB1FFF7DE
S3150800A160EDBFFFF7D9BD0148704700BF71A10008D0
S3150800A170FFF7EEBF30B590F87830B3FA83F391B0B5
S3150800A1805B0980F898301E22012380F899300492E2
S3150800A19006928DF8203008AA05934FF6864140F2BC
S3150800A1A0D243044603A803920793FFF7C8FB1A2174
S3150800A1B003A8FFF7BDFB002103A8FFF7B9FB0021A1
S3150800A1C003A8FFF7B5FB0399059A079B102503918A
S3150800A1D003A8002105920793FFF7AAFB013D0399FF
S3150800A1E0059A079BF3D103A80721FFF7A1FB03A84C
S3150800A1F01021FFF79DFB294603A8FFF799FB059B4E
S3150800A200039AD55003A894F8981004330593FFF7DA
S3150800A2108FFB039B0193059BE068019902931A46FD
S3150800A22009F093FA02480A23C4E92A3311B030BD6B
S3150800A230C1A6000810B50246816803681469585A11
S3150800A24041F2E1039C4208BF43BA01F1020108BF8B
S3150800A25098B2916010BD2DE9F04FADB0CDE902235B
S3150800A260369F81468B460DF1300A7F23CDF81CA018
S3150800A2700893DDE90723D9F80C1005A809F05FFC57
S3150800A2809DF81830002B5CD0059E0A9640F2D24302
S3150800A29001220B9307A89DF8303001930992CDE966
S3150800A2A007A6FFF728FB054607A8FFF724FB019B2F
S3150800A2B0042BDAD10E2D2DD10228D6D907A8FFF7FF
S3150800A2C01AFB07A8FFF7B6FF5845CED107A8FFF730
S3150800A2D012FB054637B1099BF61A039B9E4294BFAB
S3150800A2E03E603B60029B23B1DDE9021207A8FFF737
S3150800A2F009FB01238DF810508DF811309DF81030A8
S3150800A300002063F307009DF8113063F30F202DB08A
S3150800A310BDE8F08F0F2DA8D10328A6D907A8FFF707
S3150800A320EAFA054607A8FFF7E6FA07A8FFF782FF45
S3150800A33083459AD1002D98D0002FDAD000233B60B0
S3150800A340D7E7D9F8A82012B1ADF81030D6E740F211
S3150800A350FF13F9E77FB50B780E2B02D0002007B064
S3150800A36000BD8B68022BF9D94A680493CDE901230D
S3150800A37040F2D243059301A801230393FFF75AFF3E
S3150800A3804FF606539842E9D101A8FFF7B4FAB0FA96
S3150800A39080F04009E3E72DE9F0430B78FF2B91B0F5
S3150800A3A0804604D00025284611B0BDE8F0838C68A5
S3150800A3B0092CF7D94B68099440F2D2421D880A92B3
S3150800A3C0CDE9063406A802230893FFF733FF814632
S3150800A3D006A8FFF72FFF074606A8FFF78CFA0646DA
S3150800A3E006A8FFF727FF40F601439D42DAD198F801
S3150800A3F09C50002DD6D0B8F89A304B45D2D1089B40
S3150800A400E41AA642CED10028CCD1D8F858305B6AD7
S3150800A41001930B93009301339BB29F42C2D1142E32
S3150800A42013D80BAF3246394606A8CDE90276FFF7B0
S3150800A43069FAD8F8B040002CB5D06368201DCDE97C
S3150800A440047604A998472468F5E70546ABE78378B8
S3150800A4500BB100238370704710B504462430FFF70C
S3150800A460F6FF002384F8283010BD38B504461830A6
S3150800A470FFF7EDFFD4E90745AC4200D138BD2046C9
S3150800A480FFF7EAFF2C34F7E770B5044621B1C36E2F
S3150800A4900367012380F88430E5686868002118306E
S3150800A4A00AF01AFD0123C5F82C33636E04F114056E
S3150800A4B0282202FB0356AE420BD10023A36604F101
S3150800A4C09E00FFF7C4FF04F1A200FFF7C0FF034890
S3150800A4D070BD2846FFF7C9FF2835ECE7C198000884
S3150800A4E010B50446A83001F006F904F1B40001F0ED
S3150800A4F002F904F1BC0001F0FEF8E36E2046984725
S3150800A500E368E06693F8302312B993F831233AB139
S3150800A5100022A3F8302301212046FFF7B5FFE066A5
S3150800A52010BD2DE9F041436E00F11405282290B0C4
S3150800A530044602FB03582E462F460021B84508D08C
S3150800A5403846FFF741F910F47F0F81B207F1280763
S3150800A550F4D0202307930DF1200805ABCDF8188019
S3150800A560009306AF97E80C002046FFF774FE10F438
S3150800A5707F4FADF8080003D1E06E10B0BDE8F0815A
S3150800A5809DF8083023B101212046FFF77DFFF4E747
S3150800A590636E282202FB0355AE42F4D0059BCDF824
S3150800A5A01880079397E806003046FFF733F910F44A
S3150800A5B07F4FADF80C0007D09DF80C30002BE2D089
S3150800A5C02046FFF78DFBD8E72836E5E7FFF7A9BF52
S3150800A5D030B589B0CDE902230023CDE906330093CF
S3150800A5E0DDE906230446FFF736FE10F47F4FADF883
S3150800A5F0140002D1E06E09B030BD9DF8143053B98D
S3150800A600DDE90232511004EB6200D20744BF6258FA
S3150800A610D3589847EFE70121204609B0BDE83040F6
S3150800A620FFF732BF82B0054B009300230193DDE9A3
S3150800A63000234FF6924102B0FFF7CABF29A10008CE
S3150800A640FFF7F0BF82B0054B009300230193DDE9C5
S3150800A65000234FF6015102B0FFF7BABF119C00085C
S3150800A660FFF7F0BF82B0054B009300230193DDE9A5
S3150800A67000234FF6065102B0FFF7AABFE19C000877
S3150800A680FFF7F0BF82B0054B009300230193DDE985
S3150800A69000234FF6854102B0FFF79ABF75A100085F
S3150800A6A0FFF7F0BF82B0054B009300230193DDE965
S3150800A6B000234FF6864102B0FFF78ABF85AA000835
S3150800A6C0FFF7F0BF37B5094B009300240194DDE985
S3150800A6D000234FF694410546FFF77AFF044B98424C
S3150800A6E008BF85F8804003B030BD00BF199D00083B
S3150800A6F015A70008FFF7E6BF82B0054B00930023B5
S3150800A7000193DDE900234FF6834102B0FFF760BFEE
S3150800A710499E0008FFF7F0BF82B0054B009300235F
S3150800A7200193DDE9002342F2090102B0FFF750BFA9
S3150800A730ED9D0008FFF7F0BF82B0054B009300239C
S3150800A7400193DDE900234FF68F4102B0FFF740BFC2
S3150800A750059F0008FFF7F0BF82B0054B0093002362
S3150800A7600193DDE900234FF68E4102B0FFF730BFB3
S3150800A7705D950008FFF7F0BF82B0054B00930023F4
S3150800A7800193DDE900234FF6A44102B0FFF720BF8D
S3150800A7902DA00008FFF7F0BFF0B58DB004AF09266D
S3150800A7A00797089603AB009341F20101DDE90723F9
S3150800A7B00546FFF750FD10F47F4FADF8080002D1AB
S3150800A7C0E86E0DB0F0BD9DF80830F3B9039B082B71
S3150800A7D01BD140F2D2430B9307A801230993CDE975
S3150800A7E007760A96FFF726FD07A8FFF784F80646B8
S3150800A7F007A8FFF71FFD07A8FFF71CFD40EA06405C
S3150800A800A8662846FFF786FCDBE701212846FFF7FE
S3150800A8103BFED6E7FFF7C0BFF0B58DB005AF0726FC
S3150800A8200797089604AB00934FF68A41DDE907239C
S3150800A8300446FFF710FD10F47F4FADF80C0002D167
S3150800A840E06E0DB0F0BD9DF80C30E3B9049B062B05
S3150800A85019D140F2D243CDE907760A960B93012621
S3150800A860BDF81430A4F89E30022284F8A06007A828
S3150800A8700992FFF7DFFC84F8A460A4F8A20020463A
S3150800A880FFF7C2F8DDE701212046FFF7FDFDD8E70F
S3150800A890FFF7C2BF2DE9F04F0446A7B00D4616468E
S3150800A8A000F038FC544B2360544B6367544BE36702
S3150800A8B0544BC4E92234544BC4E90356C4E924343E
S3150800A8C000251923C4E92E3505AF3323C4F8C03053
S3150800A8D03846C4E91955C4E91B55C4E92A55C4E9DB
S3150800A8E02C55A567C4F8805084F88450A4F898506D
S3150800A8F0C4F89A50C4F89E50C4F8A250A4F8C4509C
S3150800A9000DF138090BF040FC60222946484612F042
S3150800A91055FD3E4B0E93A3F5A023169303F58033FE
S3150800A9201E934FF0020A23698DF84DA08DF86DA08D
S3150800A9308DF88DA05A688DF84C20D3E90012CDE920
S3150800A9401412DA688DF86C20D3E9023297E803000E
S3150800A950CDE91C32CDE92401069B8DF88C301322F3
S3150800A96029460DF1250012F029FD01238DF8243022
S3150800A97041F60A03ADF82630636E04F114084FF069
S3150800A980280B53450BFB038C17D0CDF81C90079862
S3150800A9900323CDE90203DDE90C018DE8030009AFC5
S3150800A9A00893604697E80E00FEF7B6FE636E01331D
S3150800A9B0534563660BFB038801D112F0C9FC144B9F
S3150800A9C0CDE9093A97E80300CDE90201F069316A51
S3150800A9D06B4603C3404631697269B369FEF79CFE4C
S3150800A9E0636E0133636629462046FFF74DFDE06630
S3150800A9F0204627B0BDE8F08FC4310208BC300208F3
S3150800AA00CC300208A4310208B43102080100292A10
S3150800AA10D4310208F0B5A5B00446002504AE7F2758
S3150800AA203B46E16832466846CDE9026709F087F891
S3150800AA309DF804305BB1009A062AF1D10E493046DA
S3150800AA4012F093FC002808BF45F00105E8E72DB190
S3150800AA50204625B0BDE8F040FFF752BBD4F8A83031
S3150800AA6033B90121204625B0BDE8F040FFF70CBDFB
S3150800AA70024825B0F0BD00BF1432020881AA0008BA
S3150800AA80FFF7C8BF08B590F8993013B1002380F8CE
S3150800AA9099309A30FFF7DBFC004808BD71A1000821
S3150800AAA030B50B78052B87B0054603D00024204621
S3150800AAB007B030BD8B68032BF8D94A680493CDE9F3
S3150800AAC00123147840F2D243059301A80123039386
S3150800AAD0FFF7B0FB002CE9D195F89C40002CE5D097
S3150800AAE0B5F89A308342E1D105F19A00FFF7AFFC39
S3150800AAF0DDE7F0B5A9B0044608AE7F27CDE90467BF
S3150800AB00E168DDE90423684609F019F89DF8043080
S3150800AB10BBB1009B03933246214604A80296FEF772
S3150800AB20D1FE9DF81C30002BE8D004A92046FFF77B
S3150800AB30B7FF0028E2D000212046FFF7A5FC29B080
S3150800AB40F0BDD4F8A81029B9204629B0BDE8F040D0
S3150800AB50FFF79ABCE06EF2E7FFF7CBBF10B590F8A7
S3150800AB609C308AB004462BB901210AB0BDE81040D2
S3150800AB70FFF78ABC07230693089340F2D24301AA3B
S3150800AB80099305A801234FF693418DF804300592E1
S3150800AB900793FEF7D4FE05A80321FEF7C9FEB4F80D
S3150800ABA09A1005A8FEF7CBFE05A81321FEF7C0FEEE
S3150800ABB0059B0393079B0399E06804931A4608F0DC
S3150800ABC0C4FD3223C4E92A332046FFF792FF0AB0B0
S3150800ABD010BD0000F0B590F87830032BADB00446F0
S3150800ABE004D12DB0BDE8F040FFF7B8BFD0F8B47077
S3150800ABF00CAE0FBB04230D930F9340F2D24303AA66
S3150800AC0010934FF47C41012330468DF80C300C929A
S3150800AC100E93FEF794FE39463046FEF789FE0C9BE6
S3150800AC2007930E9B0893DDE90712E06808F08DFD8F
S3150800AC30D4F8B830C4F8B4307F27CDE90767E1689F
S3150800AC40DDE9072301A808F07AFF9DF80830002BF4
S3150800AC504FD0019B07960893DDE90723214603A8F1
S3150800AC60FEF730FE9DF81830002BE6D003A92046E3
S3150800AC70FFF716FF28B100212046FFF705FC2DB087
S3150800AC80F0BD03A92046FFF786FB03A92046FFF778
S3150800AC9007FF03A92046FFF75DFB38B1D4F8B830A3
S3150800ACA0C4F8B430D4F8C030C4F8BC309DF80C30C1
S3150800ACB00E2B13D1DDE90423CDE907230A9340F2CD
S3150800ACC0D2430B9307A801230993FFF7B3FAB0F50C
S3150800ACD07C4F04BFD4F8C030C4F8BC30D4F8BC30BC
S3150800ACE02BB9E36E23672046FFF738FFC7E702480C
S3150800ACF0C5E7E06EC3E700BFFDAC0008FFF76ABF13
S3150800AD002DE9F04390F88030B1B00446002B3AD1D3
S3150800AD1090F878309A1E012A35D990F89820B3FA17
S3150800AD2083F35B099A422ED10DF140084FF07F0953
S3150800AD30CDE90B89E168DDE90B2303A808F0FFFEDE
S3150800AD409DF81030002B5ED0039BCDF82C800C9319
S3150800AD50DDE90B23214607A8FEF7B4FD9DF8283048
S3150800AD60002BE5D040F2D242DDE908360F929DF875
S3150800AD701C200E963E2ACDE90B360BD007A9204695
S3150800AD80FFF78EFED4E70021204631B0BDE8F04338
S3150800AD90FFF77ABB032EF1D91F7801239F420D9343
S3150800ADA0ECD10BA8FEF7A7FD0028E7D10BA8FFF703
S3150800ADB041FA94F87830A4F89A0084F89C70F3B1B4
S3150800ADC00B2E06D839462046FFF75EFB31B0BDE8A4
S3150800ADD0F0830BA8FEF78FFD0BA8FEF78CFD01AEDE
S3150800ADE0062307461A4631460BA805960693FEF72C
S3150800ADF089FD3A4631462046FFF7E0F8E6E7204661
S3150800AE00FFF714F9E2E7E06EE0E7FFF779BF000025
S3150800AE1010B5054B044640F8103B00F0F1FC2046FF
S3150800AE2000F070F9204610BDBC32020810B5044681
S3150800AE30FFF7EEFF20462C2100F092FC204610BDBD
S3150800AE40C368103093F8841000F0AFBC38B50546D7
S3150800AE500C4600F05FF9174B2B601749EC6001228E
S3150800AE6005F1100000F0B0FC102000F06DFC04F1B4
S3150800AE707402124B124902F03DFE102000F064FCE9
S3150800AE8004F17C020F4B104902F034FE102000F04A
S3150800AE905BFC04F188020D4B0D4902F02BFE1020D5
S3150800AEA000F052FC094B0B4904F1900202F022FE15
S3150800AEB0284638BDBC3202083C310208183102085F
S3150800AEC034310208143102081C3102081031020814
S3150800AED02C3102082431020870B50D461646044680
S3150800AEE0102000F031FC33462A462146BDE8704062
S3150800AEF002F000BE70B505460C46144A006801F516
S3150800AF000561FFF7E9FFA868104A04F65C01FFF738
S3150800AF10E3FF04F664010D4A6868FFF7DDFF2E6952
S3150800AF20102000F011FC04F66C023146084B02F0C2
S3150800AF30E1FDED68102000F007FC04F674022946CE
S3150800AF40034BBDE8704002F0D5BD00BF10310208C2
S3150800AF501831020830B5012440F2D2459440AB427C
S3150800AF6004F1FF3418D041F2E105AB4217D18568E8
S3150800AF70C368C1F140012DBA1BBA891AC1F1200074
S3150800AF8005FA00F0A1F12002CB40034325FA02F2AC
S3150800AF90134304EA030030BDD0E90235EEE700208A
S3150800AFA0F9E743689A6810B5541C9C601B68995465
S3150800AFB010BD10B5426893681468E45C0133936069
S3150800AFC00C7010BD10B5426893681468E45C0133D0
S3150800AFD093600C7010BD10B5426893681468E45607
S3150800AFE0013393600C7010BD436810B59A681C68ED
S3150800AFF0A1549A6801329A6010BD436810B59A68E0
S3150800B0001C68A1549A6801329A6010BD70B54368ED
S3150800B0109A681C681E69A45A41F2E105AE4208BF47
S3150800B02064BA02329A600C8070BD70B543689A683B
S3150800B0301C681E69A45A41F2E105AE4208BF64BA0B
S3150800B04002329A600C8070BD436870B51E699A68B2
S3150800B0501C6841F2E10589B2AE4204BF49BA89B219
S3150800B060A1529A6802329A6070BD436870B51E692B
S3150800B0709A681C6841F2E105AE4204BF49BA89B232
S3150800B080A1529A6802329A6070BD70B543689A6890
S3150800B0901C681E69A45841F2E105AE4208BF24BAED
S3150800B0A004329A600C6070BD70B543689A681C6873
S3150800B0B01E69A45841F2E105AE4208BF24BA04321B
S3150800B0C09A600C6070BD436870B51E699A681C6802
S3150800B0D041F2E105AE4208BF09BAA1509A680432A6
S3150800B0E09A6070BD436870B51E699A681C6841F21B
S3150800B0F0E105AE4208BF09BAA1509A6804329A60BF
S3150800B10070BD7047704710B50C21044600F028FB47
S3150800B110204610BD024B03600023C0E90133704787
S3150800B1201C33020838B5054655F8104FA54200D11C
S3150800B13038BD54F8043C201F1B6898472468F5E777
S3150800B14038B5054655F8104FA54200D138BD54F814
S3150800B150043C201F5B6898472468F5E710B5044649
S3150800B160FFF7D8FF044B23600023E36004F11003C4
S3150800B170C4E90433204610BD3433020810B54369C8
S3150800B1808B600A1D00F110044C6042611A60C368A6
S3150800B1900133C36010BDF8B50446054654F8100FD0
S3150800B1A00026844203D1C5E90444EE60F8BD50F890
S3150800B1B0043C0768DB68C0E90066043898473846E7
S3150800B1C0EFE7000010B50446FFF7C8FF014B236000
S3150800B1D0204610BD4C33020810B50346002153F82B
S3150800B1E0042F934203D1C0E90133016010BD1468EE
S3150800B1F0C2E900112246F4E710B5054B044640F8AB
S3150800B2000C3BFFF7E9FF2046FFF77CFF204610BD01
S3150800B2103433020810B50446FFF7EEFF204618211E
S3150800B22000F09EFA204610BD10B5054B044640F8BE
S3150800B2300C3BFFF7D1FF2046FFF7DEFF204610BD87
S3150800B2404C33020810B50446FFF7EEFF20461821D6
S3150800B25000F086FA204610BD806870470B680846DD
S3150800B2609B6818474368585C7047002070474368D6
S3150800B2701868704700207047F8B51D460B680846E1
S3150800B2809B6816460C469847B0420BD92B689F68B0
S3150800B290236831461B682046984701462846B84722
S3150800B2A00120F8BD0020FCE773B51E460B6808466A
S3150800B2B09B6815460C469847A8420ED933680DF187
S3150800B2C007019B683046984723689DF807205B6806
S3150800B2D029462046984702B070BD0020FBE738B5DE
S3150800B2E01C4652B91B689D690B6808461B68984737
S3150800B2F001462046A847012038BD0020FCE713B5C3
S3150800B3000C465AB91A6801A91846926990472368E3
S3150800B31001995B682046984702B010BD0020FBE7FC
S3150800B32070B50D4616460446102000F00DFA334651
S3150800B3302A462146BDE8704002F0DCBB30B585B030
S3150800B340044600F00FFA284D25600C30606000F0C6
S3150800B35009FA0830A560E06000F004FAC4E9045070
S3150800B36000F000FA0430A561E061684600F062F872
S3150800B370009B1E4D6362019BA36202A8256200F032
S3150800B38063F8029B2363039B6363194A1948E562C2
S3150800B3902146FFF7C5FF164A174804F10801FFF7CB
S3150800B3A0BFFF134A154804F11001FFF7B9FF104A09
S3150800B3B0134804F11801FFF7B3FF102000F0C4F991
S3150800B3C0104B114904F1200202F094FB636B43B160
S3150800B3D0102000F0B9F90B4B0C4904F12C0202F0CD
S3150800B3E089FB204605B030BD643302087433020871
S3150800B3F0AC330208C0330208C8330208B83302085F
S3150800B400B0330208A8330208D8330208D03302083A
S3150800B4107047037A01728B422CBF00230123037104
S3150800B4207047037A01728B4294BF0023012303718C
S3150800B43070470000034A034692E8030083E80300C6
S3150800B44018467047E03302080D4A70B509241646B7
S3150800B450013C13460CD012F8011B21F02005413D92
S3150800B460052DF5D9A1F13005092DF1D92B29EFD0F4
S3150800B4709B1B062BD6BF002306600360436070BD86
S3150800B480880100084368003B18BF01230B7070470A
S3150800B49043680B70704743680B70704743680B80AE
S3150800B4A0704743680B80704743680B607047436872
S3150800B4B00B607047012341600372704701234160A6
S3150800B4C0037270470123416003727047012341608C
S3150800B4D0037270470123416003727047012341607C
S3150800B4E0037270470123416003727047704708B5BD
S3150800B4F007F052FF037823B143781B0183F31188C1
S3150800B500704743780BB162B6704772B67047002031
S3150800B510704710B50446183000F0EDF8E068036887
S3150800B5201B68984708B1E369A36110BD10B5034BC2
S3150800B53003600446FFF7E6FD204610BD48340208BE
S3150800B54010B50446FFF7F2FF2046202100F008F95F
S3150800B550204610BD43689869003818BF0120704717
S3150800B56070B504460E461546FFF7D4FD054B236015
S3150800B570054BE660C4E904340023C4E906352046D1
S3150800B58070BD00BF483402083834020801207047ED
S3150800B59011B94368036070470023FBE709B100F05F
S3150800B5A0AAB84368036070474368184713B504464A
S3150800B5B040F8041BFFF706FE04F11C00FFF702FE25
S3150800B5C020680023A36384F83430E36303694FF4E7
S3150800B5D07A715B6810309847044B20686946CDE954
S3150800B5E0003409F06DFD204602B010BD23B60008F0
S3150800B5F038B5836B01338363044600688369183062
S3150800B6001B68984794F83430054613B1201DFFF798
S3150800B61097FD2068836918301B689847401BE063CC
S3150800B62038BD4068FFF7E4BF38B590F834300446B3
S3150800B63063B90430FFF776FD04F11C00FFF772FDCD
S3150800B640012384F8343094F8343003B938BD04F152
S3150800B6501C00FFF775FDF6E737B50A4B04460546A5
S3150800B66093E803008DE8030055F81C0B694609F0BA
S3150800B67027FD2846FFF7D8FD201DFFF7D5FD2046F4
S3150800B68003B030BD5834020843680133436070473D
S3150800B6904368013343607047436802334360704729
S3150800B6A04368023343607047436804334360704716
S3150800B6B04368043343607047436801334360704707
S3150800B6C0024B036000234360704700BF68340208DA
S3150800B6D07047436833B1026864214A43B2FBF3F307
S3150800B6E098B270471846704708B5FFF7F2FFC0F1E1
S3150800B6F0640080B208BD03680BB1013B0360704764
S3150800B7007047FEE708B511F061FE582303604FF055
S3150800B710FF3008BD0A4A0B491368013310B510F00B
S3150800B720070F136020F0070303F1080308BF034659
S3150800B7300868C4180C6091681944916010BD00BF70
S3150800B7402423002000200020FFF7E4BFFFF7E2BF14
S3150800B750024A536801335360704700BF2423002010
S3150800B760FFF7F6BF0048704724230020024B034921
S3150800B770034A5B1AD3607047C07F00202C4E002016
S3150800B78024230020FEE75B1A10B507D0121A05D04D
S3150800B790029C241A5C4394FBF2F42144084610BD2B
S3150800B7A040687047416001207047037B2BB921B17F
S3150800B7B043697E2B9CBF01334361017370470023A5
S3150800B7C04361037370470000002310B5C0E90533D1
S3150800B7D0C360084B0361084B0271084A826004463D
S3150800B7E00160186811F0BBF8214600F0B0FC20464D
S3150800B7F010BD00BF8C34020820230020CC3002087C
S3150800B80010B5054B0446186811F0A9F8214600F052
S3150800B8104BFC204610BD00BF2023002003685B6850
S3150800B8201868704703680BB9184670475A68107B42
S3150800B8300028FAD11B68F6E70368002003B97047A9
S3150800B8405A681B6852691044F8E710B5046804B9C9
S3150800B85010BD6068FFF7B3FF2468F8E710B5024625
S3150800B860002013461A461B6863B15C688C42F9D1FE
S3150800B8701C68146018601846F3E704680821FFF787
S3150800B8806FFF20460028F8D110BD38B504460820B9
S3150800B8900D46FFF759FF2B68436023680360206055
S3150800B8A038BD13B500230191036001A90446FFF7CB
S3150800B8B0ECFF204602B010BD07B5019101A9FFF7BC
S3150800B8C0E4FF03B000BD10B50446806A03681B6830
S3150800B8D09847014604F10C00BDE81040FFF765BF24
S3150800B8E010B5054B044640F80C3BFFF789FF204688
S3150800B8F0FFF708FC204610BD9C34020810B5044624
S3150800B900FFF7EEFF20462C21FFF72AFF204610BD41
S3150800B91070B504460D461646FFF7FCFB2046054B58
S3150800B92040F80C3B2A792968FFF74EFFA6622046A5
S3150800B93070BD00BF9C3402080B6808469B68184710
S3150800B9400B6808469B6818470B6808469B681847A3
S3150800B950F8B51D460B6808469B6816460C46984778
S3150800B960B0420BD92B681F68236831461B682046EE
S3150800B970984701462846B8470120F8BD0020FCE74D
S3150800B98073B51E460B6808469B6815460C469847CD
S3150800B990A8420ED933680DF107011B68304698474F
S3150800B9A023689DF807205B6829462046984702B019
S3150800B9B070BD0020FBE7F8B51D460B6808469B6876
S3150800B9C016460C469847B0420BD92B681F69236860
S3150800B9D031461B682046984701462846B847012045
S3150800B9E0F8BD0020FCE773B51E460B6808469B6841
S3150800B9F015460C469847A8420ED933680DF106013C
S3150800BA001B69304698472368BDF806205B682946B7
S3150800BA102046984702B070BD0020FBE7F8B51D46E2
S3150800BA200B6808469B6816460C469847B0420BD9E1
S3150800BA302B689F69236831461B682046984701464C
S3150800BA402846B8470120F8BD0020FCE773B51E4616
S3150800BA500B6808469B6815460C469847A8420CD9B9
S3150800BA60336801A99B69304698472368019A5B6841
S3150800BA7029462046984702B070BD0020FBE770B5FE
S3150800BA800D46164604461020FFF75EFE33462A4644
S3150800BA902146BDE8704002F02DB870B50D46164631
S3150800BAA004461020FFF750FE33462A462146BDE8D5
S3150800BAB0704002F01FB8000038B505460C4600F085
S3150800BAC0E7F829461F4A2048FFF7E7FF1020FFF747
S3150800BAD03BFE1E4B1E4904F50A7202F00BF804F5EC
S3150800BAE00C71184A1B48FFF7D8FF04F50E71154A62
S3150800BAF01948FFF7D2FF04F51471184A1848FFF7DA
S3150800BB00BEFF04F51B71154A1648FFF7B8FF10204B
S3150800BB10FFF71AFE144B154904F51E7201F0EAFFE9
S3150800BB2004F520710D4A1248FFF7A9FF1020FFF708
S3150800BB300BFE104B104904F5227201F0DBFF284674
S3150800BB4038BD00BFAC3302080435020814310208B8
S3150800BB5034350208FC3402082C350208F034020891
S3150800BB60F434020824350208EC3402081C350208AD
S3150800BB7014350208E83402080C350208704700003C
S3150800BB8038B504460D46FFF7C5FA2046034B40F87C
S3150800BB900C3B294600F042F8204638BD44350208D9
S3150800BBA010B5054B044640F80C3BFFF729FE204626
S3150800BBB0FFF7A8FA204610BD4435020843681868FE
S3150800BBC0B0FA80F04009704710B504461C30FFF7FC
S3150800BBD0E5FCE169B1FA81F120464909BDE8104062
S3150800BBE0FFF7E3BD10B50446FFF7E9FD04F11C00B5
S3150800BBF00021BDE81040FFF7CBBC000038B504466D
S3150800BC001D46FFF7E1FD044B636204F11C03C4E91A
S3150800BC100755A362204638BD5C35020838B50D467F
S3150800BC200A7909680446FFF7CFFDAB68C4E907330C
S3150800BC30034B636204F11C03A362204638BD00BFB0
S3150800BC405C3502084368243383600120704738B5A1
S3150800BC5005466B68AC6803F12402D3F8243202EB7C
S3150800BC6083039C4202D1AA6000200FE0231DAB602B
S3150800BC702046FFF7E1FD0028EBD02046FFF7CEFD72
S3150800BC8005882046FFF7CEFD45EAC07038BD00009E
S3150800BC90024BC0E900312431816070476C350208D7
S3150800BCA0002070470020704700207047436853F80B
S3150800BCB021007047806870474068704708B524308F
S3150800BCC000EB8100FFF7AAFD008808BD243000EBD1
S3150800BCD08100FFF7A7BD243000EB8100FFF7ACBD5C
S3150800BCE010B5054B03600446FFF755FA2046FFF7E3
S3150800BCF083FA204610BD00BF7C35020810B50446FD
S3150800BD00FFF7EEFF20461821FFF72AFD204610BD53
S3150800BD1008B54068FFF7D2FF08BD08B54068FFF7C9
S3150800BD20DAFF08BD08B54068FFF7D0FF08BD70B553
S3150800BD30044600680D4620B920602B6823602860F9
S3150800BD4070BD06680821FFF70BFD3046F3E7884209
S3150800BD5004D0ACBF01204FF0FF3070470020704779
S3150800BD604368D3F8240270474368D3F8240270471F
S3150800BD704368D3F82402704710B510460C46FFF7FF
S3150800BD804DFD01882088FFF7E2FFC0F3C01010BD03
S3150800BD9010B508461446FFF741FD21880088FFF7CD
S3150800BDA0D6FFC0F3C01010BD38B508461546FFF7D4
S3150800BDB035FD04462846FFF731FD01882088FFF740
S3150800BDC0C6FFC0F3C01038BD38B5D0F8245200F10C
S3150800BDD0240404EB8505AC4200D138BD2046FFF7A4
S3150800BDE034FD0434F7E710B50446FFF7EDFF04F118
S3150800BDF00C00BDE81040FFF795B92DE9F843044655
S3150800BE000C30FFF79DF994F82C322BB1002384F8F7
S3150800BE102C322046FFF7D8FF04F5107104F514708C
S3150800BE20431A002B06DD03F5107323440A46002542
S3150800BE309A4221D104F5177504F51B777B1B002B55
S3150800BE4006DD03F5177323442A4600269A4216D1BF
S3150800BE50D4F8242204F1240303EB820E9E4511D163
S3150800BE60002381422ED1C4F834320023BD422DD19D
S3150800BE70C4F83C32BDE8F88342F8045BD8E742F8D8
S3150800BE80046BE3E753F804CBBCF1000FE6D0DCF80B
S3150800BE90048098F80C6098F8042036B104EB8209FF
S3150800BEA0D9F840620136C9F84062D8F8146036B14C
S3150800BEB004EB8202D2F85C620136C2F85C62DCF8F6
S3150800BEC000C0E1E751F8042B1344CAE755F8042BE0
S3150800BED01344CBE7F8B50446FFF71CF923461E4A78
S3150800BEE043F80C2B00211822184611F067FAFFF7C1
S3150800BEF035F91A4BE3601A4BC4F82832194BC4F8C3
S3150800BF0030320025C4E98E352946C4F82452C4F8CF
S3150800BF102C52C4F83452102204F5107011F04EFA5F
S3150800BF20114F0426C4E99470C4F8586210222946B1
S3150800BF3004F5177011F042FA0C4BC4F87462C4E9A0
S3150800BF409E340B4BC4E9A0340A4BC4E99B70C4E980
S3150800BF50A2342046F8BD00BFF43502087C35020835
S3150800BF60CC30020894350208A4350208B835020810
S3150800BF70CC350208E03502082DE9F047D1F8004231
S3150800BF8007460D46904644F31D040E4684B9D5F877
S3150800BF9000423E6005EB8404B44206D03246414670
S3150800BFA02846FFF7E9FE00B13C603846BDE8F08751
S3150800BFB04FEA540906EB890A424651462846FFF7D6
S3150800BFC0E7FE28B1013C0AF10406A4EB0904DDE703
S3150800BFD04C46DBE72DE9F84FD1F80042002301EB88
S3150800BFE0840A07460D4690460360037144F31D0410
S3150800BFF00E464CB9B24519D1D5F800220123802A3C
S3150800C0003B711FD111F0A4F94FEA540B06EB8B09CB
S3150800C010424649462846FFF7C7FE28B1013C09F1C2
S3150800C0200406A4EB0B04E4E75C46E2E73246414625
S3150800C0302846FFF7B9FE0028DED13C713E60384637
S3150800C040BDE8F88F05EB8203B34202F101004FF019
S3150800C050000107D1D8F800303360C8F80010C5F8D9
S3150800C0600002EBE753F804CC45F822C043F8041C59
S3150800C0701C1FC5F80002B44204D141463046FFF7FA
S3150800C08056FEDBE7043C2146201DFFF750FEF2E78B
S3150800C09038B50446006808B9204638BD0568082141
S3150800C0A0FFF75EFB2846F6E7F7B500F124050646D6
S3150800C0B00A680F4601A82946FFF75EFFD6F824321C
S3150800C0C0019C05EB83039C4214D039462046FFF7B2
S3150800C0D0C5FB236873B9D6F8243205EB8305043407
S3150800C0E0A54209D1281FFFF7D3FFD6F82432013B12
S3150800C0F0C6F8243203B0F0BD2146201FFFF717FE0D
S3150800C100EDE7000070B505460A4B45F8243BD0F824
S3150800C1102462044646B904F10C00FFF7E1FD204607
S3150800C120FEF7F0FF204670BD2846FFF7B1FF013E37
S3150800C1300435EFE7F435020810B50446FFF7E2FFC9
S3150800C14020464FF42471FFF70BFB204610BD7FB540
S3150800C15000F1240406460A680D4668462146FFF79C
S3150800C1600BFFD6F82432009804EB8303984229463D
S3150800C17004D004B0BDE87040FFF79EBB01A8FFF7E6
S3150800C18090FB01AA214602A8FFF724FF01A8FFF7A2
S3150800C1907FFF04B070BDB0F90400704700207047F7
S3150800C1A000207047D0F8083133B10368D3F8A401EA
S3150800C1B0B0FA80F04009704718467047036802696C
S3150800C1C05B6803EB5203B3FBF2F0704711B90161E8
S3150800C1D00120704703685B68B1EB430F05D803EB92
S3150800C1E05103B3FBF1F30361F2E7002070470368DC
S3150800C1F042695B6803EB5203B3FBF2F0704721B95F
S3150800C2004161C0F8B4100120704703685B68B1EB60
S3150800C210430F0DD8028B03EB5103B3FBF1F34361D4
S3150800C22053434FF47A72B3FBF2F3C0F8B430EAE73B
S3150800C2300020704790F84430032B0BD1B1F57A7F74
S3150800C24008D8B0F8BC308B4228BF0B46A0F8BE30E1
S3150800C25001207047002070474369B1F57A7F28BFEF
S3150800C2604FF47A71018359434FF47A73B1FBF3F1B2
S3150800C270C0F8B41001207047406870470020704726
S3150800C2800079704700207047B0F904007047818034
S3150800C2900120704740687047416001207047406838
S3150800C2A0FFF7A5BF4068FFF77DBF4068FFF7A7BF48
S3150800C2B04068FFF7BFBF4068FFF780BF4368188B29
S3150800C2C070474068FFF782BF4068FFF7C5BF90F820
S3150800C2D04400012818BF04280CBF0120002070471D
S3150800C2E002680A4902F12403C31A5B114B4302EBA5
S3150800C2F083024FF47A7112695200A2F124034B4368
S3150800C300B3FBF2F3A0F8BC30704700BF398EE338B0
S3150800C31010B503681C680A2242F20F7302FB043246
S3150800C32042F21071B2FBF1F2C0F8DC20642202FB83
S3150800C3300433B3FBF1F3C0F8EC30C0F8FC30C0F8B6
S3150800C3400C3110BD406808F0CDBD406808F0C4BD8A
S3150800C350037B10B50BB1C1F57A710368826803F1E6
S3150800C3602404001B064C4011604303EB80031B6941
S3150800C37059434FF47A73B1FBF3F1116010BD00BF56
S3150800C380398EE33802680A4902F12403C31A5B119D
S3150800C3904B4302EB8302017B13698268106801B183
S3150800C3A0181A4FF47A725043B0FBF3F080B2704714
S3150800C3B0398EE3384068FFF7E5BF0023C0E930331C
S3150800C3C0C0E93233C0E93433012380F8B930704705
S3150800C3D038B50025C0E94655FFF7EFFF044629465C
S3150800C3E0E830FFF7D5F8294604F1F800BDE83840EB
S3150800C3F0FFF7CEB8D0F8C4308B4210B52FDDC91A76
S3150800C40090F84430052B18BF022B0CBF01230023DC
S3150800C4100029D4BF00240124B3EBD17F0CBF01FB54
S3150800C42001F200229C426FF41C7422440CBF49435B
S3150800C4300021002AD0F8D03017DA134423EAE37330
S3150800C440C0F8D0306FF41C7319440029D0F8D430E2
S3150800C45013DA0B4423EAE373C0F8D43010BDD0F8DE
S3150800C460C8308B42CBDB0021CAE76FF00044E41AE0
S3150800C4709442D4BF1B199B18E2E76FF00042D21A08
S3150800C4808A42D4BF9B185B18E6E7D0E934321A44CF
S3150800C49003685B6940F271214B439A42D4BF00207E
S3150800C4A001207047426922B9C0F81C2180F8B820DB
S3150800C4B07047D0F81C3101339A42D0F8B4208FBFA8
S3150800C4C0C0F81C31002380F8B830C0F81C319A42F5
S3150800C4D09CBF012380F8B8307047F8B5D0F81841EA
S3150800C4E0056990F8B8300134AC4228BF00240646E6
S3150800C4F00F46C0F818419BBBFFF7E9FEB6F978303E
S3150800C5001A4600B15A424DB3002BB8BF5B421FFA18
S3150800C51083FCF36D4FF47A7103FB0CF3B3FBF7F36B
S3150800C5206B43B3FBF1F3691E8B42A8BF0B46B6F902
S3150800C53054106145A8BF614600B14942A342DBBF1A
S3150800C540E41AED1AC3EB4404A5EB4404CBBF4C43F1
S3150800C5504C4394FBF3F494FBF5F422441046F8BDDF
S3150800C5600022FBE791F8B83070B51BB100230360D1
S3150800C570436070BD91F84460CC6DB1F8BC30022EB2
S3150800C5804FEA440514D0052E12D04FF61841A3F5EC
S3150800C5907A7312FB01F153434FF47A72640891FBE4
S3150800C5A0F5F193FBF2F30160534393FBF4F3DFE7F2
S3150800C5B05A4300214FF47A73016092FBF3F25A430F
S3150800C5C092FBF5F24260D4E7F7B503680F460446D6
S3150800C5D0014668469D69FFF7C5FF019BBB42A8BF98
S3150800C5E03B46D4E931021E46009B9F423946B8BFF6
S3150800C5F01946331A002B43F6FF77B8BF5B4205FB93
S3150800C6000373002BB8BFDB1900EBA3308B1AB042BB
S3150800C610D4BFC4F8C400C4F8C460002B43F6FF7046
S3150800C620B8BF5B4205FB0303002BB8BF1B18A2EB80
S3150800C630A3328A42ACBFC4F8C820C4F8C81003B0F5
S3150800C640F0BD2DE9F04F0446164685B08A463146B8
S3150800C650FFF728FFFFF741FF2368D3E90072054675
S3150800C66020460A23B2FBF3F9FFF731FE236AA26BD1
S3150800C67094F8B8B0D4F82CC041F2883102FB09F21C
S3150800C68003FB09F393FBF1F392FBF1F1021E02920D
S3150800C69014BF324600220192E26D4FF47A706A4363
S3150800C6A092FBF0F2019802440392D4F8CC20A5EB51
S3150800C6B00A00514348BFFF31434303EB2123AAEB4A
S3150800C6C00508D4F8C010C4F8CC30BBF1000F40F010
S3150800C6D0868040F6B8324FF00A0EB7FBFEF74F4594
S3150800C6E0A8BF4F4602FB09F20CFB07F741F2883C4C
S3150800C6F097FBFCF700FB07175042874203DBBA4259
S3150800C700A8BF3A461046C4F8C000039F90FBF9F04C
S3150800C7101F4407444FF47A735F4397FBF6F79F422B
S3150800C7205FDD4FEAD87394F8B920002A61D1002B4F
S3150800C7305FD19846B4F8BC3094F8BA904BEA080B27
S3150800C7408BF0010BB9F1000F18BFD9469F42A8BF5D
S3150800C7501F464946204627EAE777FFF7F6FDB9B2AE
S3150800C7602046FFF7F5FD94F8BA303BB1514620460E
S3150800C770FFF740FE32462946FFF726FFB9F1000FBC
S3150800C78027D0E36D7E4303FB05F14FF47A7391FBE3
S3150800C790F3F896FBF3F6019BF61A4FF4FA6391FB4E
S3150800C7A0F3F1029B04F1E800002B36D001F5FA718B
S3150800C7B08E42D4BF00210121A8F1FA08FEF7EEFE49
S3150800C7C0B6EB480FB4BF0121002104F1F800FEF7CB
S3150800C7D0E5FE012384F8BA3005B0BDE8F08F0846B7
S3150800C7E093E7B8F1000FD4BF0023012303EAD773F8
S3150800C7F099E7C4F8C01084F8B930002B99D02046C0
S3150800C800FFF765FD10B14FEAD87893E78045D4BFA6
S3150800C8104FF000084FF001088CE7A1F5FA718E4237
S3150800C820ACBF0021012108F1FA08FEF7B7FEB6EB06
S3150800C830480FCCBF01210021C7E72DE9F0479046F4
S3150800C840FFF730FEB0F9786005460C461EB190F841
S3150800C850B86086F001062846FFF739FD95F8BA70E4
S3150800C86081461FB195F8B87087F001074E4514BF89
S3150800C870B5F8BCA04FF0000A39462846FFF765FD13
S3150800C88028465146FFF764FD2846FFF796FD67B32D
S3150800C8904E4514BF41460021B9F1000F08BF4FF0BD
S3150800C8A000084FF47A73A1EB080103FB01F1EB6D65
S3150800C8B091FBF3F101EBD1764FEA66064FEA4101A7
S3150800C8C005F1E80005F1F80714D03239A142D4BFC2
S3150800C8D000210121FEF762FE06F13201A142ACBF3A
S3150800C8E0002101213846FEF759FE012385F8BA30A2
S3150800C8F0BDE8F0873231A142ACBF00210121FEF725
S3150800C9004DFEA6F13201A142D4BF00210121E9E77B
S3150800C910F0B585B0FFF7C6FD036804465F68FFF704
S3150800C92031FD06462046FFF70DFDB4F8BE5088B126
S3150800C9301348B0FBF7F0331AAB4201953044C8BF31
S3150800C9401D460293CCBF02AB01ABA842B8BF03ABEE
S3150800C95003901D6894F8BA1019B194F8B81081F0CC
S3150800C96001012046FFF7F1FCA9B22046FFF7F0FCCB
S3150800C9702046FFF72DFD012384F8BA3005B0F0BD37
S3150800C98040420F00F8B5A1F5006140F68D154D43FC
S3150800C99048BF05F2FF7504461646ED12FFF797FCE9
S3150800C9A000283BD06B4205F6CA01A4F8903041F244
S3150800C9B09413994204F1D80794BF002101213846FF
S3150800C9C0FEF7ECFD1EB901213846FEF7E1FD94F8A5
S3150800C9D070602EBB00212046FFF7B7FC002384F8C1
S3150800C9E0BA3094F84430032B00F086804FF4FA717D
S3150800C9F02046FFF7ADFC2046FFF7EAFC002DB8BF3E
S3150800CA006D42182D77DCD4F8D830002B73D004F596
S3150800CA1084700121BDE8F840FEF7C0BD2B46C2E789
S3150800CA20D4F80821002AD5D194F84430591E012992
S3150800CA300AD9191F012945D823682946B3F990212F
S3150800CA402046FFF7FAFE06E023682946B3F9902147
S3150800CA502046FFF7F6FD2046FFF717FD50B1D4E94B
S3150800CA6034320A2192FBF1F0834236DA062384F83F
S3150800CA70A0300026D4F8D8301BB9032284F8A020A9
S3150800CA801E46D4F8E8301BB9012284F8A0201E46B9
S3150800CA90D4F8F83043BB022384F8A030002104F50B
S3150800CAA08470FEF775FD94F84430032B0CBFB4F878
S3150800CAB0BE30B4F97830C4F8A830B4F89030A4F889
S3150800CAC0B03013E0032B03D12046FFF721FFC2E75E
S3150800CAD0072384F8A0301646BDE793FBF1F393428B
S3150800CAE0CCBF05230423C2E7002ED7D0D4F80831DB
S3150800CAF0002B7FF46FAFF8BDB4F8BE1078E70000DE
S3150800CB0038B583609DF8103003734FF47A73038346
S3150800CB103C4BC361C0E9001283624363182140237A
S3150800CB200162836340F6B831374BC1620364374903
S3150800CB30374B81653749C0E91230374B0365002505
S3150800CB40C0E9191035494562C0E90455C0E91755C9
S3150800CB500563C563456445650567C166C0E91D3556
S3150800CB602F4B3049C0F89050C0E91F302E4BC0F803
S3150800CB70A050C0E921302D4BC0F88C30C0E92B35C8
S3150800CB804FF48073C0E92510A0F8B8302849294B1E
S3150800CB90C0F89C102849C0F8A410C0E92F3500F148
S3150800CBA0D801264BC0F8A850C0E9391500F1E801AC
S3150800CBB0C0E93B530446C0E93155C0E93355C0E9DD
S3150800CBC03555C0F8B45080F8BA50C0F8DC50C0F8F3
S3150800CBD0E030C0E93D15C0E93F53C0E9435300F1D1
S3150800CBE0F80100F58473C0E94115C0E94535C0F878
S3150800CBF01C51104608F0CCF86068294608F06CF914
S3150800CC00204638BD1C360208BC3002088C3402089F
S3150800CC102C3602084C3602083C360208CC3002088C
S3150800CC205C3602087C3602086C3602080C360208A6
S3150800CC308C360208DE03F4019C3602085C350208CD
S3150800CC404830704758307047643070470B6808465C
S3150800CC509B6818470B6808469B68184780687047A2
S3150800CC600020704780687047806870478068704702
S3150800CC70806870478068704780687047806870472A
S3150800CC80806870478068704780687047806870471A
S3150800CC908068704780687047F8B51D460B68084677
S3150800CCA09B6816460C469847B0420BD92B685F69B5
S3150800CCB0236831461B682046984701462846B847E8
S3150800CCC00120F8BD0020FCE773B51E460B68084630
S3150800CCD09B6815460C469847A8420CD9336801A9A3
S3150800CCE05B69304698472368019A5B68294620465F
S3150800CCF0984702B070BD0020FBE7F8B51D460B68E3
S3150800CD0008469B6816460C469847B0420BD92B68CE
S3150800CD10DF68236831461B6820469847014628463F
S3150800CD20B8470120F8BD0020FCE773B51E460B681E
S3150800CD3008469B6815460C469847A8420ED933689C
S3150800CD400DF10601DB68304698472368BDF90620D1
S3150800CD505B6829462046984702B070BD0020FBE76D
S3150800CD6070B50D46164604461020FEF7EDFC334610
S3150800CD702A462146BDE8704000F0BCBE70B50D4697
S3150800CD80164604461020FEF7DFFC33462A4621469F
S3150800CD90BDE8704000F0AEBE40684FF4907303FBE8
S3150800CDA00100A43003681B68184740684FF4907365
S3150800CDB003FB0100943003681B68184740684FF46A
S3150800CDC0907303FB0100AC3003681B681847406882
S3150800CDD04FF4907303FB01008C3003681B681847F7
S3150800CDE040684FF4907303FB01009C3003681B688E
S3150800CDF0184740684FF4907303FB01006C300368D2
S3150800CE001B68184740684FF4907303FB01004030D5
S3150800CE1003681B68184740684FF4907303FB0100CA
S3150800CE206C30036811465B68184740684FF4907386
S3150800CE3003FB01004030036811465B6818474068E9
S3150800CE404FF4907303FB01008430036811465B6856
S3150800CE50184740684FF4907303FB01008430036859
S3150800CE601B68184740684FF4907303FB01007C3039
S3150800CE70036811465B68184740684FF4907303FBD4
S3150800CE8001007C3003681B68184740684FF49073AC
S3150800CE9003FB01007430036811465B681847406855
S3150800CEA04FF4907303FB0100743003681B6818473E
S3150800CEB040684FF4907303FB010050300368114635
S3150800CEC05B68184740684FF4907303FB01005030C5
S3150800CED003681B6818470000544A554B243110B59F
S3150800CEE0C0E90321534AC0E90621534AC0E909218A
S3150800CEF0524AC0E90C21524AC0E90F21514AC0E9F9
S3150800CF001221514AC0E91521504AC0E91821504A50
S3150800CF10C0E91B214F4AC0E9003101238360436100
S3150800CF200362C362836343640365C36583664367B9
S3150800CF30C0E91E21484AC0F88030C0E92121474A85
S3150800CF40C0F88C30C0E92421454AC0F89830044618
S3150800CF50C0E92721C0F8A4301020FEF7F5FB414BA5
S3150800CF604149224600F0C6FD04F10C013F4A4048FB
S3150800CF70FFF704FF04F118013E4A3F48FFF7F0FEA9
S3150800CF8004F12401394A3D48FFF7F8FE04F130015F
S3150800CF90364A3B48FFF7F2FE1020FEF7D5FB394B21
S3150800CFA0394904F13C0200F0A5FD04F14801314A73
S3150800CFB03648FFF7D5FE1020FEF7C6FB04F15402EB
S3150800CFC0334B344900F096FD1020FEF7BDFB304B7D
S3150800CFD0314904F1600200F08DFD04F16C01254A27
S3150800CFE02E48FFF7BDFE1020FEF7AEFB04F17802CF
S3150800CFF0244B2B4900F07EFD1020FEF7A5FB04F11B
S3150800D0008402184B274900F075FD1020FEF79CFB9B
S3150800D010254B264904F1900200F06CFD154A244878
S3150800D02004F19C01FFF79CFE204610BDC03602089D
S3150800D030AC360208D4360208E8360208FC3602087E
S3150800D0401037020824370208383702084C37020816
S3150800D0506037020874370208883702089C370208C6
S3150800D060B0370208A8330208EC370208F034020881
S3150800D07054380208E83702084C38020844380208CF
S3150800D0803C380208E83402082C380208243802081A
S3150800D090EC34020834380208F43702081C3802084F
S3150800D0A0143802080C380208E43702080438020863
S3150800D0B0FC3702087047D0E9003201EB62001847D6
S3150800D0C013B50A4B009300230193436814464FF4A3
S3150800D0D0907202FB01316846FFF7EDFF03685B6853
S3150800D0E0214602B0BDE81040184700BF49CC0008E9
S3150800D0F013B50A4B009300230193436814464FF473
S3150800D100907202FB01316846FFF7D5FF03685B683A
S3150800D110214602B0BDE81040184700BF45CC0008BC
S3150800D12013B50A4B009300230193436814464FF442
S3150800D130907202FB01316846FFF7BDFF03685B6822
S3150800D140214602B0BDE81040184700BF41CC000890
S3150800D15007B5094B00930023019343684FF4907277
S3150800D16002FB01316846FFF7A6FF03681B6803B098
S3150800D1705DF804EB184700BF49CC000807B5094B12
S3150800D18000930023019343684FF4907202FB013128
S3150800D1906846FFF790FF03681B6803B05DF804EB69
S3150800D1A0184700BF45CC000807B5094B0093002374
S3150800D1B0019343684FF4907202FB01316846FFF70A
S3150800D1C07AFF03681B6803B05DF804EB184700BFD5
S3150800D1D041CC000810B50446084663681146227813
S3150800D1E0FDF7B8FE237A2BB122780123013A934042
S3150800D1F05840C01A10BDF0B5054685B0CDE9020104
S3150800D20041F31C0300EBC1002C46002B05DC8442CD
S3150800D21011D154F8040C05B0F0BD591004EBC10641
S3150800D22054F831709742DEBF591A01F1FF3106F101
S3150800D23008040B46E9E7A5426068ECD0009203466D
S3150800D24054E9011254F8080CFEF79DFAE3E770B5A5
S3150800D2500446D1E9053086B003EBC00083421D467B
S3150800D26008D10D69012D0ED80023C4E900332046E4
S3150800D27006B070BD53F8086B9642EFD16B68236011
S3150800D28001232371F3E7CB6893E80300CDE9003562
S3150800D290CDE9020105F10055013D03EBC50393E80D
S3150800D2A00300029B9A42CDE90401DDDB8242DBDC06
S3150800D2B0DDE90001FFF79FFF2060E1E738B50D467D
S3150800D2C00446114628461A46FFF784FF29460246B1
S3150800D2D02046FFF7BCFF204638BD4161704737B589
S3150800D2E004460D4618300021FEF76EFC21692A46D1
S3150800D2F00B7D89696846FFF7E1FF9DF8045094F8AD
S3150800D300603085F00101002B14BF002101F00101F6
S3150800D31004F14400FEF749FA3DB1236800991B69F8
S3150800D320204603B0BDE83040184703B030BD0000C2
S3150800D33013B50C4B0C4A0360C368CDE900200446BC
S3150800D3406946D86807F0F5F804F14400FEF758FA7C
S3150800D35004F11800FEF754FA2046FDF7D3FE2046DE
S3150800D36002B010BD64380208B3D3000810B50446ED
S3150800D370FFF7DEFF20466421FEF7F2F9204610BDCE
S3150800D38010B590F8603004461BB1013B80F8603058
S3150800D39010BD03695B7B002BFAD001211830FEF71C
S3150800D3A013FC94F82430002BF2D023691B696361BF
S3150800D3B0EEE74068FFF793BF73B5044615460E4679
S3150800D3C0FDF7A8FE104B23602B69AA7BA968636149
S3150800D3D0C4E903656B7B04F11800FEF70FFCAA7B12
S3150800D3E0696804F14400FEF7EFF92B7B84F8603096
S3150800D3F0064BE068CDE900346946D5E9072306F00F
S3150800D40066FC204602B070BD64380208B3D3000833
S3150800D4107047036810B51B690446984730B104F194
S3150800D42010000021BDE81040FEF7B2B810BD4068F4
S3150800D430FFF7EFBF00211030FEF7AAB8FFF7FABFD3
S3150800D44010B5044601211030FEF7A8F8236943B940
S3150800D450236820465B6998472046BDE81040FFF7D9
S3150800D460E9BF10BD73B504460D461646FDF752FED4
S3150800D4700A4B23600A4BA36104F11003E361094BCD
S3150800D480E560CDE900342846C4E90466DDE90623EB
S3150800D490694606F01CFC204602B070BD80380208BA
S3150800D4A05C3502082FD4000813B5084B084A0360F8
S3150800D4B0C368CDE9002004466946D86807F039F8FC
S3150800D4C02046FDF71FFE204602B010BD8038020830
S3150800D4D02FD400088088704781800120704700009B
S3150800D4E0002370B54360134B0360044610200E46B4
S3150800D4F0FEF72AF91049114B224600F0FBFA104BA9
S3150800D50018680FF028FA0C49054600F03FFBA38877
S3150800D510B3420DD0284600F0B4FB284600F028FD9B
S3150800D5200549A680284600F079FB284600F020FD2C
S3150800D530204670BDA0380208A83802081031020833
S3150800D540202300200079704710B5034B036004467A
S3150800D550FEF726FB204610BDC838020810B504465B
S3150800D560FFF7F2FF20464021FEF7FAF8204610BDE5
S3150800D57010B5034B03600446FEF712FB204610BDA8
S3150800D580E038020810B50446FFF7F2FF20464021AE
S3150800D590FEF7E6F8204610BD10B50446806B036812
S3150800D5A01B689847B4F93C108142A8BF002104F1D2
S3150800D5B00C00B8BF0121BDE81040FEF705BB10B549
S3150800D5C00446806B03681B689847B4F93C1081428F
S3150800D5D0D8BF002104F10C00C8BF0121BDE81040E6
S3150800D5E0FEF7F2BA2DE9F34104460023402034F948
S3150800D5F0048BADF802300E461746FEF7A5F8ADF8CF
S3150800D6000080009B019321460546FEF7B9FA01986A
S3150800D610054BE863294606F10C002B60AF6302B0A0
S3150800D620BDE8F041FDF7AABDC83802082DE9F34167
S3150800D63004460023402034F9048BADF802300E4628
S3150800D6401746FEF781F8ADF80080009B0193214646
S3150800D6500546FEF795FA0198054BE863294606F153
S3150800D6600C002B60AF6302B0BDE8F041FDF786BD44
S3150800D670E03802082DE9F34104460023402034F936
S3150800D680048BADF802300E461746FEF75DF8ADF886
S3150800D6900080009B019321460546FEF771FA019822
S3150800D6A0054BE863294606F10C002B60AF6302B010
S3150800D6B0BDE8F041FDF762BDE038020838B50A4614
S3150800D6C004460D4601460748FFF78CFF2A462146C1
S3150800D6D00548FFF787FF2A4621460448BDE8384033
S3150800D6E0FFF7A4BF203902081039020800390208DA
S3150800D6F00A4601460148FFF7BDBF00BFF0380208D9
S3150800D70010B5034B03600446FDF7FCFC204610BD2C
S3150800D7104039020810B50446FFF7F2FF20463021CB
S3150800D720FEF71EF8204610BD70B50446C0680368AB
S3150800D7301B689847014604F11400FDF72FFF61693D
S3150800D740B1FA81F1490904F12400FDF762FE94F863
S3150800D75028306BB1246923682046D3E900359847F9
S3150800D76080F001012B462046C9B2BDE87040184733
S3150800D77070BD0000F8B504461D460F461646FDF76F
S3150800D780C9FC094B2360094BE36104F114032362C6
S3150800D7900023C4E90A33064B6362C4E90376C4E985
S3150800D7A005552046F8BD00BF403902085C35020819
S3150800D7B0B838020890F82C100C3081F00101FDF7FA
S3150800D7C0F4BF000010B5054B044640F80C3BFEF7C5
S3150800D7D017F82046FDF796FC204610BD5839020872
S3150800D7E010B50446FFF7EEFF20463021FDF7B8FFD7
S3150800D7F0204610BD38B50446FDF78CFC20460B4B79
S3150800D8000B4940F80C3B0322FDF7DEFF0023E362D9
S3150800D810084BA3621020FDF797FF074B074904F151
S3150800D820280200F067F9204638BD00BF58390208BB
S3150800D83070390208CC300208143102086839020827
S3150800D84080887047C3888B4205D803898B4202D3E8
S3150800D85081800120704700207047037F30B402465C
S3150800D860046A23B1436AA342B4BF01330023D068D4
S3150800D87053620168127D4D6882B94FF4FA6202FB61
S3150800D88003F191FBF4F1A1F57A710029B8BF494279
S3150800D890C1F57A712B4689B230BC18474FF47A71B4
S3150800D8A0F8E7000010B5034B03600446FDF72AFCB1
S3150800D8B0204610BD8C39020810B50446FFF7F2FF62
S3150800D8C020462821FDF74CFF204610BD70B50446BA
S3150800D8D00E461546FDF71EFC0649074B2360002336
S3150800D8E0C4E90613C4E90853E6606361216120466A
S3150800D8F070BD00BFCC3002088C39020870B50446EA
S3150800D900C06803681B689847267D2075054604F19C
S3150800D9101800FDF7F0FEA3692BB9012E02D00DB150
S3150800D920E369A36170BD85F00105EDB2002DF9D05C
S3150800D930002EF7D025692B682846D3E90036984784
S3150800D94080F00101C9B22846B0470023E9E7000084
S3150800D95010B5034B03600446FDF7D4FB204610BD03
S3150800D960A439020810B50446FFF7F2FF2046202125
S3150800D970FDF7F6FE204610BDF8B5044616461D46C8
S3150800D9800F46FDF7C7FB0022044B2360C4E9037664
S3150800D990C4E9062522752046F8BD00BFA439020849
S3150800D9A0064B10B518680EF0D6FFD0F81034BDE84F
S3150800D9B010401B6800F58260184700BF202300202E
S3150800D9C0836841681A6818469268104710B5054B6F
S3150800D9D0044618680EF0BFFF2146BDE8104000F067
S3150800D9E0F8B800BF2023002010B50468FFF7D8FF59
S3150800D9F00444E07810BD2DE9F04104460F4616466A
S3150800DA00FFF7F2FF48B1A068616803681D683246EF
S3150800DA103B46AC46BDE8F0416047BDE8F0810000F2
S3150800DA201FB500230446CDE902330846054B01938A
S3150800DA3001A9FFF7E0FFDDE9020184E803002046BB
S3150800DA4004B010BD1434020813B504466846FDF741
S3150800DA5037FE002269462046FFF7CDFF6846019C3F
S3150800DA60FDF736FE204602B010BD38B50546FFF76D
S3150800DA70A7FF04462846FFF7E7FF604338BD10B501
S3150800DA800468FFF78DFF0444607910BD2DE9F04165
S3150800DA9004460F461646FFF7F2FF48B1A0686168CC
S3150800DAA003685D6832463B46AC46BDE8F0416047D0
S3150800DAB0BDE8F0810368DB790BB1FFF7E0BF1846D4
S3150800DAC07047000037B50A4BCDE900320A46694669
S3150800DAD00446FFF7DBFF054630B12046FFF7EAFFAD
S3150800DAE010B1A3890133A381284603B030BD00BF16
S3150800DAF0F033020813B5836000238381C381094B81
S3150800DB00C0E90012044618680EF025FF01A9019421
S3150800DB1000F0EBF9019810B11021FDF721FE20461F
S3150800DB2002B010BD2023002070470079704708F026
S3150800DB3061BC0B681B68188813681B681B889842A9
S3150800DB40ACBF00200120704700F10C03D0F80C048C
S3150800DB5070B503EB800440F31D0040B99C4205D024
S3150800DB60186803681B888B4288BF002070BD42086E
S3150800DB7003EB820553F82260366836888E423DBF2D
S3150800DB8000F1FF302B1D801A1046E6E710B509880C
S3150800DB900446FFF7D9FF014628B104F58360BDE8BE
S3150800DBA0104009F01FBC10BDB0F8542AB0F8563A18
S3150800DBB092B29BB29A420AD1B0F8582AB0F85A3AA9
S3150800DBC092B29BB29A4202D190F85C0A7047012041
S3150800DBD0704700F5836009F005BCD0F80C3470B5C1
S3150800DBE000F10C04064604EB8305AC4200D170BD77
S3150800DBF054F8041B3046FFF7ECFFF6E710B5044669
S3150800DC0000F5836009F040FC38B1B4F8583A01339E
S3150800DC10A4F8583A012384F85C3A10BD10B509886F
S3150800DC200446FFF791FF014620B12046BDE81040A3
S3150800DC30FFF7E4BF10BD00F10C03C0F8503AB0F886
S3150800DC40543A0133A0F8543A012380F85C3A7047F5
S3150800DC50D0F80C3470B500F10C04054604EB8306C5
S3150800DC60A64204D12846BDE87040FFF7E4BF206805
S3150800DC70FFF720FF18B12268938901339381043492
S3150800DC80EEE710B5044600F5836009F050FCB4F8D9
S3150800DC90583A0133A4F8583A012384F85C3A10BD7F
S3150800DCA0EFF31083DB4303F0010372B6B0F8542A8E
S3150800DCB0B0F8561A92B289B28A420BD1B0F8582AED
S3150800DCC0B0F85A1A92B289B28A420AD109487BB187
S3150800DCD062B67047A0F8562A012280F85C2A0648E0
S3150800DCE0F5E7A0F85A2A012280F85C2A0348EEE7ED
S3150800DCF072B6704701DD000859DD000885DD0008A9
S3150800DD00FFF7CEBFD0F82824104B9A4210B518D189
S3150800DD10D0F80C2400F10C0303EB8203D0F8502A48
S3150800DD20934210D0111DC0F8501A11688A89CC89FF
S3150800DD3092B2A4B2A242F1D0CA8100F5836009F07A
S3150800DD40A3FB034800E0034810BD00BF2FDB000813
S3150800DD5059DD000885DD0008FFF7D4BF08B5D0F8FF
S3150800DD602824054B9A4205D100F5836009F0DAFBB1
S3150800DD70024808BD0248FCE72FDB0008ADDD0008B5
S3150800DD8085DD0008FFF7EABFD0F82824044B9A423D
S3150800DD9003BF002380F85C3A02480348704700BF77
S3150800DDA02FDB000801DD0008ADDD0008FFF7ECBF3A
S3150800DDB070B50446FDF7AEF9134B2360134BC4F850
S3150800DDC01034002501231249C4F81454C4F80C541D
S3150800DDD084F8143404F5836009F0ACFB0D4BA4F801
S3150800DDE0545AC4F84C3AA4F8565AC4F8505AA4F8E7
S3150800DDF0585A84F85C5AA4F85A5A04F5836009F00C
S3150800DE00D9FA204670BD00BFCC390208CC300208CA
S3150800DE100420002001DD000810B50468016044B143
S3150800DE202046FFF781FE20461021BDE81040FDF789
S3150800DE3097BC10BD2DE9F84FD1F800740023814630
S3150800DE408B469246036001EB870547F31D04884617
S3150800DE504CB9454516D10123B7F5807F89F80430BA
S3150800DE602FD10FF075FA660808EB86015246584618
S3150800DE70FFF75FFE20B1013C01F10408A41BE7E7A8
S3150800DE803446E5E7424651465846FFF752FE89F8BA
S3150800DE900400F8B1B7F5807FE3D055F8043C4BF899
S3150800DEA02730013745F8044DCBF800744545284618
S3150800DEB015D1DAF80010CAF800404046FFF7ACFF63
S3150800DEC008E0DAF80030C8F800300137CAF8004030
S3150800DED0CBF80074C9F800804846BDE8F88F55F8B5
S3150800DEE0041D2C60FFF798FFE0E707B50A4600F126
S3150800DEF00C016846FFF79EFF03B000BDF8B504465F
S3150800DF000E4B036000F5836009F03AFAD4F80C5416
S3150800DF1004F10C0725B92046FDF7F4F82046F8BDAC
S3150800DF2057F8046B013D002EF4D03046FFF7FCFD90
S3150800DF3010213046FDF714FCECE700BFCC39020887
S3150800DF4010B50446FFF7DAFF20464FF42661FDF7C1
S3150800DF5007FC204610BD10B5044600F5836009F09D
S3150800DF600BFAD4F84C3A20469847C4F84C0A10BD28
S3150800DF7010B504462046FFF717FE00B910BD204627
S3150800DF80FFF7E9FFF6E7000010B5034B0360044608
S3150800DF90FDF7B8F8204610BDF439020810B5044656
S3150800DFA0FFF7F2FF20462421FDF7DAFB204610BDD5
S3150800DFB04368188A70470346C068198A1A8C03682A
S3150800DFC08A1A51425B6851411847FFF7F4BF08B5F2
S3150800DFD0038C23B10182FFF7EEFF012008BD184626
S3150800DFE0FCE74068FFF7F3BF70B504460E46FDF739
S3150800DFF091F8134B134A2360002323822362124BA2
S3150800E000E361C4E90524E6601020FDF79DFB32466E
S3150800E0100E4B0F49FFF76EFD1020FDF795FB04F137
S3150800E02014020C4B0C49FFF765FD1020FDF78CFB1D
S3150800E030084B0A4904F11C02FFF75CFD204670BD37
S3150800E040F4390208E4390208A03802081431020833
S3150800E050043A020810310208143A02080C3A020877
S3150800E06038B51C4652B91B685D690B6808461B68BB
S3150800E070984701462046A847012038BD0020FCE7FE
S3150800E08013B50C465AB91A6801A918465269904739
S3150800E090236801995B682046984702B010BD0020A6
S3150800E0A0FBE790F8C4311BB990F8E43183F001031B
S3150800E0B018467047406803681B68184708B50C304F
S3150800E0C0FFF7F8FF002814BF6420002008BD406849
S3150800E0D003681B68184738B504462C30FFF7F7FF66
S3150800E0E0054604F14C00FFF7F2FF281A18BF012075
S3150800E0F038BD406803681B681847436803EB81030B
S3150800E1005888704780687047436833F9210070471C
S3150800E110806870470079704780887047B0F90400B6
S3150800E12070478088704738B51C4652B91B68DD6849
S3150800E1300B6808461B68984701462046A8470120F1
S3150800E14038BD0020FCE713B50C466AB91A680DF10C
S3150800E15006011846D26890472368BDF906105B6821
S3150800E1602046984702B010BD0020FBE74068FFF73D
S3150800E170A5BF4068FFF7AFBF37B583688DF80710AE
S3150800E18004460D4608300DF10701984700B1257180
S3150800E19003B030BD0978406800F020BC70B50D4664
S3150800E1A0164604461020FDF7CFFA33462A4621467E
S3150800E1B0BDE87040FFF79EBC70B50D46164604468E
S3150800E1C01020FDF7C1FA33462A462146BDE87040BD
S3150800E1D0FFF790BC4368B3F9000070474068FFF743
S3150800E1E060BF000038B5174B03600446164BC0F8ED
S3150800E1F0203100F59070FCF785FFD4F81C0170B942
S3150800E200D4F8100188B9D4F80C01A0B904F1CC00EF
S3150800E210FDF766FD2046FCF775FF204638BD056804
S3150800E2200821FDF79DFA2846E9E705680821FDF764
S3150800E23097FA2846E6E705680821FDF791FA284681
S3150800E240E3E700BF143B0208243C020810B5044665
S3150800E250FFF7C8FF20464FF40E71FDF781FA2046F6
S3150800E26010BD03681B68184710B5044600F5907082
S3150800E270FFF7F7FF04F1CC00FFF7F3FF10BD0368C3
S3150800E2805B681847D0F8C43010B5D868144600F053
S3150800E29095FB64236043B0FBF3F000B210BD10B5E4
S3150800E2A059B1B0F9EC4194304C43642394FBF3F430
S3150800E2B0FFF70DFF241A20B210BD0846FCE7D0F878
S3150800E2C0C43010B50446D86800F078FB01462046ED
S3150800E2D0BDE81040FFF7E3BFF8B504469C30FFF7EA
S3150800E2E0F6FE94F8DE21B0FA80F35B099342054600
S3150800E2F06ED0002284F8DD2184F8DE3104F1240092
S3150800E300FFF7D8FE00286FD0B4F8B41194F8CC0102
S3150800E310B4F8903101284FF0640272D0022865D013
S3150800E320A4F8EC515543B5FBF1F55543B5FBF3F5A8
S3150800E330A4F8F45104F12C00FFF7C9FEB4F9EC2156
S3150800E34001462046FFF79EFFA4F8FC0104F12C00C5
S3150800E350FFF7BDFE01462046FFF7B1FFA4F8040209
S3150800E36004F19400FFF7B3FEB4F9EC312BB14FF08A
S3150800E370640210FB02F0B0FBF3F304F18C07A4F877
S3150800E3800C323846FFF7A3FE054604F19400FFF762
S3150800E3909EFE2D1AA4F814523846FFF798FE94F8F4
S3150800E3A0BE310028D4BF00200120984235D0002372
S3150800E3B084F8BD3184F8BE0104F1A400FFF799FE84
S3150800E3C0B4F8D831A4F8D801C31AA4F8DA31F8BDDC
S3150800E3D094F8DD2194F8DC11914286BF013284F865
S3150800E3E0DD2184F8E43189E764218FE76B43A4F8DB
S3150800E3F0F451B3FBF2F34B43B3FBF2F3A4F8EC315D
S3150800E40098E705FB02F04D43B0FBF3F3B5FBF2F5D5
S3150800E410A4F8F431A4F8EC518CE794F8BD3194F8DB
S3150800E420BC219A4286BF013384F8BD3184F8C40101
S3150800E430C2E710B5D0F81C4134B1606803681B68A0
S3150800E440984708B92468F7E7201E18BF012010BDB1
S3150800E45010B5D0F80C4104B910BD606803680021F6
S3150800E4605B6898472468F6E708B5054B18680EF008
S3150800E47076FAD0F86802003818BF012008BD00BF38
S3150800E4802023002010B50446FFF7EEFF84F80801A4
S3150800E49010B12046FFF7DCFF2046FFF71DFF204698
S3150800E4A0FFF7C7FF84F8180104F59070FFF7E7FE39
S3150800E4B004F1CC00FFF7E3FE10BDF8B505461020C1
S3150800E4C00E461746FDF740F93B46044632462946AE
S3150800E4D0FFF710FB2046F8BD2DE9F74F04460F4617
S3150800E4E01646FCF717FEAE4BAE482360AE4BE0600F
