S02B0000433A5C55736572735C646F75675C6465765C61726D5C63735C72656C656173655C6C636D335C6C6342
S315080090000020002025920008299200082B920008CB
S315080090104192000843920008599200080000000097
S31508009020FFFFFFFF00000000000000006F9200082D
S3150800903071920008000000007392000875920008FB
S3150800904035350108453501085535010865350108E6
S31508009050753501088535010895350108A5350108D6
S31508009060B5350108C5350108D5350108E5350108C6
S31508009070F5350108053601081536010825360108B3
S3150800908035360108453601085536010865360108A2
S31508009090753601088536010895360108A536010892
S315080090A0B5360108C5360108D5360108E536010882
S315080090B0F53601080537010815370108253701086F
S315080090C0353701084537010855370108653701085E
S315080090D0753701088537010895370108A53701084E
S315080090E0B5370108C5370108D5370108E53701083E
S315080090F0F53701080538010815380108253801082B
S3150800910000000000000000000000000035380108DB
S3150800911045380108553801086538010875380108C9
S315080091208538010895380108A5380108B5380108B9
S31508009130C5380108D5380108000000000000000005
S31508009140E5380108F538010805390108000000006E
S315080091500000000000000000000000000000000001
S315080091600000000000000000153901082539010833
S31508009170353901080000000000000000000000006A
S31508009180000000004539010808B500F0C1F81D4D7A
S315080091901D4AAA420BD2D2E900130C3252F8044CEB
S315080091A0C91A9C42F5D9585843F8040BF9E7174AE7
S315080091B0174C0021A24208D252F8083B52F8040C78
S315080091C09842F7D943F8041BFAE7124C124D02F0FD
S315080091D013FC2D1BAD100026B54204DD54F8043BE4
S315080091E098470136F8E70D4C0D4D2D1BAD1000269E
S315080091F0B54204DD54F8043B98470136F8E70FF00A
S31508009200A1FAFEE7289400081C9400082894000890
S315080092103094000830940008309400083094000810
S315080092204094000814480047FEE71EF0040F0CBFE0
S31508009230EFF30880EFF309807146104A1047FEE7FE
S31508009240FEE71EF0040F0CBFEFF30880EFF309806A
S3150800925071460B4A1047FEE71EF0040F0CBFEFF3EA
S315080092600880EFF309807146064A1047FEE7FEE7D5
S31508009270FEE7FEE770470000899100083F92000864
S31508009280579200086D9200081C4B1A6822F4502267
S315080092901A601A6842F480321A601A689103FCD57B
S315080092A0174A520102F18442012111604FF480628B
S315080092B05A60144A116821F0040111606FF07F4169
S315080092C05160116841F0010111600F4A5A6000228D
S315080092D0DA621A6842F080721A601A689201FCD53E
S315080092E00A4A122111605A6842F002025A605A6804
S315080092F002F00C02082AFAD1704700BF001002409B
S315080093002410020010E000E00004110000200240D2
S3150800931038B53C4C2368002243F0010323606260A1
S31508009320236823F0847323F480332360E26223687E
S3150800933023F480232360A260E36843F00103E3601B
S31508009340E36823F00103E360A36943F00103A36123
S31508009350FFF79AFF2C4B2D4A9A6062B62C4ADA60C0
S31508009360A36A43F08053A362A36A23F08053A362DF
S31508009370636943F080536361E36A23F4F873E36235
S31508009380E36A43F48073E362BFF34F8F214DAB6802
S3150800939023F04053AB60AB6842F2107043F0805341
S315080093A0AB6007F0B3F9AB6843F00043AB60AB685A
S315080093B0002BFCDB382007F0A9F9AB68164843F008
S315080093C00103AB6009F0E6F8C1232B630023AA6802
S315080093D042F00402AA602A685207FCD52A6CB2F544
S315080093E0946F00D30133642BF1D1A36A43F0805301
S315080093F0A362A36A23F08053A362636923F08053B0
S31508009400636138BD0010024000ED00E000900008DE
S311080094100003FA050000005014A0010833
S3150800941CA8AD010800200020D0200020D020002074
S3150800942C4455002069BA000819F0000845F00008F0
S3090800943C753B010865
S315080094400020704700797047017101207047007944
S31508009450704701710120704700207047002070474F
S3150800946010B50C1A134605D00146224618460FF0C9
S315080094703BFB0346181910BD024A026000224260EF
S31508009480704700BF79940008024A026000224260D1
S31508009490704700BF89940008024A026000224260B1
S315080094A0704700BF79AE000838B5CB6804465868DF
S315080094B00D461830012109F015F905F1640014214B
S315080094C002F080FA024B236000236360204638BD11
S315080094D015A5000838B5B1F85630A1F8843001232F
S315080094E00C46054681F8863001F1D40002F067FA89
S315080094F004F1DC0002F063FA034A002384F84030E2
S31508009500C5E90023284638BD45B00008012804D01F
S3150800951002280CBF10200020704702207047000068
S3150800952008B5054B984201D90FF024F92C23584366
S31508009530BDE8084002F082BA5D74D10503680246A8
S3150800954013F8010B136070470368597813F8022B58
S31508009550036042EA01207047024A02600022426024
S31508009560704700BF59950008F0B503460C460F46EC
S31508009570054601F1100C3E4603CE66452860696033
S31508009580374605F10805F6D130682860217D19753A
S31508009590617D5975A17D9975DA75E27D1A76D4E9EA
S315080095A00612C3E9071200225A6283F8282083F8B4
S315080095B026201846F0BD90F8263082B08BB94FF6B3
S315080095C00453ADF8043001238DF80630BDF8043095
S315080095D0002063F30F00BDF8063063F31F4002B0A6
S315080095E07047D0E907329A4218BF90F828304FF6EC
S315080095F0065214BF83F001030023ADF80420E3E705
S3150800960030B589B06B4683E8060090F826300446E4
S315080096100BBB019BCDE90413CDE906135B1A022B9C
S315080096200CBF0125002506D106A8FFF78DFF0123EB
S31508009630A08484F826308DF80C5001238DF80D305F
S315080096409DF80C30002063F307009DF80D3063F396
S315080096500F2009B030BDD0E907329A4209D090F8F8
S31508009660283033B9012380F8283001228DF80C20E0
S31508009670E4E70023F9E784B02DE9F843DDE90E575E
S31508009680044609A880E80E000DF1340C034622466C
S315080096901E4603CE664510605160334602F1080245
S315080096A0F6D1306810607E1B002301227611C4E9CA
S315080096B00523C4E90733A376636216D03046FFF75D
S315080096C02FFF80462C2303FB06866662C4F81C809F
S315080096D0C1462E46B7420AD0314648460122FFF710
S315080096E043FF203609F12C09F4E7B046EAE7701B78
S315080096F040092C2202FB00802B4620629E420AD09B
S315080097005A7D12F0300F626914BF032102210A4400
S3150800971062612033F2E72046BDE8F84304B070479B
S31508009720837E13B58BB94FF60253ADF8003001238B
S315080097308DF80230BDF80030002063F30F00BDF845
S31508009740023063F31F4002B010BDD0E907148C4203
S315080097500DD00846FFF72FFFC0F307432C31002B27
S31508009760F5D001908DF80630019B0093E2E70023BF
S31508009770F8E72DE9F04188B06B4683E80600837E5A
S3150800978005460E461446ABB9541A022CCDE9041206
S31508009790CDE906120CBF0124002405D106A8FFF75F
S315080097A0D3FE01232883AB768DF80C4001238DF870
S315080097B00D3012E0D0E9075804AF454519D0CDE978
S315080097C00464284697E80600FFF71AFF10F47F4F4F
S315080097D005F12C05F1D0ADF80C009DF80C300020F1
S315080097E063F307009DF80D3063F30F2008B0BDE85A
S315080097F0F0810023DBE7000038B500240546016048
S31508009800C0E9014421460C3002F0D6F80823EB6182
S3150800981005F122036C61AC611846AC75AC76402242
S3150800982021460FF07BF905F16203046044608470F9
S31508009830847108308342F8D1024B2846C5E90134C1
S3150800984038BD00BF519B0008837D37B50446BBB1C0
S315080098500C3002F0CCF8A3685A1013F0010F04EB91
S315080098600201636818BFA2586D46284618BFD35828
S31508009870984795E80300043484E8030003B030BD34
S31508009880014AC0E90123F9E7519B000838B50446A7
S315080098900C200D4602F0D2F80346021D95E8030097
S315080098A082E80300E26E1A60E36638BD82B002A958
S315080098B001E90C00009B1A78042A01BF5A78027045
S315080098C00333436005BF019B8360002301230373B1
S315080098D002B070471FB50B780E2B15D1D1E90123BD
S315080098E0991A022910D902A8CDE90023CDE9022345
S315080098F0FFF724FE02A8FFF727FE4FF60653984205
S3150800990002D1029B1B781BB1002005B05DF804FB51
S315080099100120FAE730B585B06B4683E8060045684E
S3150800992003680C461146AB421CD01A68A24206D1FF
S315080099305A688A4205D014B90A43D20701D50C33AE
S31508009940F1E71B89ADF80C3001238DF80E30BDF810
S315080099500C30002063F30F00BDF80E3063F31F4090
S3150800996005B030BD0023F0E71FB54268203292E803
S31508009970030002AB83E80300074893E80600FFF7F5
S31508009980C9FF019010F47F0F14BFBDF804004FF60D
S31508009990FF7005B05DF804FB388C01081FB54268F6
S315080099A0283292E8030002AB83E80300074893E8ED
S315080099B00600FFF7AFFF019010F47F0F14BFBDF844
S315080099C004004FF6FF7005B05DF804FB388C0108FB
S315080099D082681170826801328260704782681170ED
S315080099E009125170826802328260704710B58CB0D5
S315080099F004AA0DF11E030446019108A80121CDE928
S31508009A00093208920B93FFF7E3FF4FF6815108A836
S31508009A10FFF7E4FF0A2108A8FFF7DAFFA18A08A8DA
S31508009A20FFF7DCFFBDF8041008A8FFF7D7FFBDF85D
S31508009A30061008A8FFF7D2FF002108A8FFF7CEFFF7
S31508009A40C82108A8FFF7CAFF0A9B089A0B93CDE915
S31508009A50022302AB0A92206893E8060006F09AFFF2
S31508009A600CB010BDF8B5002307460C4608461E463E
S31508009A701A46194694F824501DB1658CDAB18D4200
S31508009A8019D30D4694F8281019B1E18CB2B1A94240
S31508009A9014D329460133082B04F10804EAD122B16C
S31508009AA0084B53F82610FFF7A1FF074B3B6000232E
S31508009AB07B603846F8BD1E460122E3E71E460122B2
S31508009AC0E8E700BF248D01088994000838B50446E4
S31508009AD0084672B10023CB6180F820301A4BC26960
S31508009AE053F82210FFF782FF184B236000236360A8
S31508009AF022E08B7E9BB10B4601F1400293F82410BD
S31508009B0019B15D8C018B8D4212D393F8281019B1C7
S31508009B10DD8C018B8D420BD308339A42EED190F837
S31508009B202020C3691AB9072B08D10123D4E743B902
S31508009B3001462046FFF796FF204638BD0133C3612C
S31508009B40CCE7013BFBE700BF248D010879940008A8
S31508009B508B7D10B5044623B10122FFF7B7FF2046D7
S31508009B6010BD024AC0E90023F9E700BF519B00086F
S31508009B70CA68F8B505468AB991F82030CF699B00BE
S31508009B8003EBC70301F12206F4184FF6FE77F752E6
S31508009B900123A370FFF79AFF2846F8BD024B03601E
S31508009BA000234360F8E700BF719B00082DE9F041E8
S31508009BB004460A78D1E9013086B03E2A0F46CDE937
S31508009BC00230CDE9043000F09380FF2A38D00F2AFE
S31508009BD019D16168624A914215D1A6689EB9C01A20
S31508009BE0032810D913F8015B049304A8FFF7A6FC11
S31508009BF004A8FFF7A9FC4FF68153984203D12DB963
S31508009C00584BC4E9013506B0BDE8F08194F8203018
S31508009C10E1699B0003EBC10304F12202D01805F5A4
S31508009C200051D152012383706D46214628460022F1
S31508009C30FFF74CFF95E80300043484E80300E2E7E5
S31508009C406168484A9142DED1A668002EDBD1C31A64
S31508009C50042BD8D904A8FFF777FC804604A8FFF799
S31508009C6073FC049B1D4615F8012B0495D7E90115CD
S31508009C700532691A8A42C6D8A28A8242C3D1B8F581
S31508009C80006F15D10A29BED95E7804A80233049359
S31508009C90FFF754FC04A8FFF757FC132E054618D106
S31508009CA0B8B9C82104F10C0001F08CFE2E4BA8E7C8
S31508009CB040F601039845A6D194F82030E1699B0047
S31508009CC004F1220203EBC1034FF6FE70D118D052FD
S31508009CD00BE0E36994F82010DB0004F1220203EBA1
S31508009CE0810305F50055D552D11801238B709BE7E2
S31508009CF0C01A052887D91A4612F8011B04920329A7
S31508009D0081D15D7804A802330493FFF71DFCA38A6A
S31508009D1083427FF478AF04A8FFF716FC0123A376E5
S31508009D20D4E901230F4920838A4210D1002B7FF4FE
S31508009D306AAFE36994F82020DB0004F1220103EB03
S31508009D408203CE1801273DB9C852B7706CE7064999
S31508009D508A427FF458AFE9E705F50052CA52F4E79C
S31508009D607994000859950008719B000870B588B069
S31508009D700DF1070304460E4604A80121059307932F
S31508009D80CDF810D0CDF818D0FFF722FE4FF68A414D
S31508009D9004A8FFF723FE032104A8FFF719FE0321F1
S31508009DA004A8FFF715FE02AD002104A8FFF710FE70
S31508009DB0284609F0D7FDDDE90231C91AC9B204A857
S31508009DC0FFF706FE069B049A0692CDE90223F06881
S31508009DD0079395E8060006F0DDFD06F164000A2102
S31508009DE001F0F0FD034B236020460023636008B0B2
S31508009DF070BD00BFF3AD000830B589B00DF105039D
S31508009E0004460D4604A8012105930793CDF810D002
S31508009E10CDF818D0FFF7DCFD4FF6854104A8FFF70B
S31508009E20DDFD012104A8FFF7D3FD032104A8FFF7F0
S31508009E30CFFD069B049A0793CDE9022302AB06924F
S31508009E40E86893E8060006F0A5FD05F164000A2116
S31508009E5001F0B8FD034B236020460023636009B078
S31508009E6030BD00BF6DAC000830B589B00DF10503F3
S31508009E7004460D4604A8012105930793CDF810D092
S31508009E80CDF818D0FFF7A4FD4FF68F4104A8FFF7C9
S31508009E90A5FD012104A8FFF79BFD0A2104A8FFF7E9
S31508009EA097FD069B049A0793CDE9022302AB069217
S31508009EB0E86893E8060006F06DFD05F164000A21DE
S31508009EC001F080FD034B236020460023636009B040
S31508009ED030BD00BF11AD0008F0B589B001AB05462D
S31508009EE002AC0F4604A8012116460493CDE90543A2
S31508009EF00794FFF76DFD394604A8FFF76FFD0021AB
S31508009F0004A8FFF765FD069B049A0692CDE902238D
S31508009F10E868079394E8060006F03CFD314605F12B
S31508009F20640001F04FFD09B0F0BD000010B50A222B
S31508009F300446084641F20101FFF7CEFF024B2360B3
S31508009F4000236360204610BD65AD000810B50A22DF
S31508009F50044608464FF69241FFF7BEFF024B2360C0
S31508009F6000236360204610BD19AC000810B50A220C
S31508009F70044608464FF60151FFF7AEFF024B236031
S31508009F8000236360204610BD35AC000810B50A22D0
S31508009F90044608464FF69441FFF79EFF024B23609E
S31508009FA000236360204610BDA5AC000870B591F883
S31508009FB03430B3FA83F30D465B098EB081F854301A
S31508009FC0012106AA0DF1360385F85510064602A8A2
S31508009FD00292CDE903320593FFF7FAFC4FF6864164
S31508009FE002A8FFF7FBFC1A2102A8FFF7F1FC0021E3
S31508009FF002A8FFF7EDFC002102A8FFF7E9FC1024F0
S3150800A000002102A8FFF7E4FC013CF9D1072102A8C8
S3150800A010FFF7DEFC102102A8FFF7DAFC214602A8AA
S3150800A020FFF7D6FC049B1C705C709C70DC70049B6C
S3150800A03095F85510043302A80493FFF7C9FC049B4E
S3150800A040029A0593CDE900236B460492E86893E8E3
S3150800A050060006F09FFC05F164000A2101F0B2FC37
S3150800A060024B3046C6E900340EB070BD89AC000814
S3150800A07030B5914206D0836811F8014B5D1C8560A6
S3150800A0801C70F6E730BD2DE9F041A8B0541A054614
S3150800A090684680E806000E4608A804F10A0101444D
S3150800A0A0CDE90401CDE90601012104A89846174621
S3150800A0B0E4B2FFF78DFC4FF6065104A8FFF78EFCB5
S3150800A0C0A11DC9B204A8FFF783FC414604A8FFF7FF
S3150800A0D085FCBDF8B81004A8FFF780FC002104A889
S3150800A0E0FFF776FC214604A8FFF772FC3A4631468C
S3150800A0F004A8FFF7BDFF069B049A0793CDE9022340
S3150800A10002AB0692284693E8060006F043FC28B000
S3150800A110BDE8F08110B588B002AB83E8060090F878
S3150800A12058309BB1039A531A142B0FD88369DC69EC
S3150800A1309B690593CDE90612B4F85020009208AA47
S3150800A1409BB212E90600C068FFF79DFF08B010BD74
S3150800A150F0B585B00C4602AE05463046CF6809F024
S3150800A16001FCB4F85E30009396E80600B4F85A305D
S3150800A1703846FFF788FF04F164000A2101F022FC43
S3150800A180034B2B60284600236B6005B0F0BD00BF6B
S3150800A19051AC00082DE9F04190B0054601A8884663
S3150800A1A009F0E0FBDDE90174E41B082C28BF08244C
S3150800A1B009AA04F112031344012105A8CDE90523D0
S3150800A1C0CDE90723FFF704FC4FF6834105A8FFF7FF
S3150800A1D005FC04F10E01C9B205A8FFF7F9FB002139
S3150800A1E005A8FFF7F5FB202105A8FFF7F7FB2021B7
S3150800A1F005A8FFF7F3FB012105A8FFF7E9FB0021F6
S3150800A20005A8FFF7E5FB611CC9B203AE05A8FFF771
S3150800A210DFFB304609F0A6FBDDE903239B1A082B72
S3150800A2208CBF0821092105A8FFF7D2FB3A19394640
S3150800A23005A8FFF71DFF002105A8FFF7C9FB0021A8
S3150800A24005A8FFF7CBFB002105A8FFF7C7FB079B6F
S3150800A250059A0792CDE90323D8F80C00089396E8E7
S3150800A260060006F097FB08F164000A2101F0AAFB34
S3150800A270034B2B60284600236B6010B0BDE8F081C5
S3150800A280D9AC000891F83420012A10B5044605D83F
S3150800A29091F83C3043B9FFF77DFF03E0044B0360B8
S3150800A2A000234360204610BDFFF770FEFAE700BFA3
S3150800A2B085A200082DE9F04192B009AE0546304660
S3150800A2C00F4609F04FFBDDE909239B1A082B07D82F
S3150800A2D039462846FFF7C8FD284612B0BDE8F08182
S3150800A2E001A809F03FFBDDE90184A4EB080412ABE1
S3150800A2F01D2C4FF0010105A828BF1D24CDE90636FF
S3150800A30008930596FFF764FB42F2090105A8FFF7D3
S3150800A31065FBE6B2202105A8FFF75AFBB11CC9B2B6
S3150800A32005A8FFF755FB711CC9B205A8FFF750FB36
S3150800A330092105A8FFF74CFB08EB0402414605A8CE
S3150800A340FFF796FEDDE90723934204D0002105A80E
S3150800A350FFF73EFBF6E7059A0792CDE9032303AB21
S3150800A36093E80600F86806F015FB0A2107F1640071
S3150800A37001F028FB024B2B6000236B60ACE700BFA3
S3150800A380F5AC0008F0B58BB00D46164603A90DF1DD
S3150800A3901702CDE907210446069106A801211F46A2
S3150800A3A00992FFF715FB4FF6A44106A8FFF716FB1F
S3150800A3B0072106A8FFF70CFB394606A8FFF708FB96
S3150800A3C0B21D314606A8FFF753FE089B069A099365
S3150800A3D0CDE9012301AB0892E86893E8060006F088
S3150800A3E0D9FA05F164000A2101F0ECFA034B23605F
S3150800A3F02046002363600BB0F0BD00BF49AD0008DE
S3150800A40083780BB100238370704710B50446243057
S3150800A410FFF7F6FF002384F8283010BD38B5044648
S3150800A4201830FFF7EDFFD4E90745A54204D02046CA
S3150800A430FFF7EBFF2C34F8E738BD000070B505468A
S3150800A4400C4652B101F1200201F1280392E80300FB
S3150800A45083E80300012384F84030E6687068002129
S3150800A460183008F03FF90123C6F82C336069FFF766
S3150800A470D5FF0026A069FFF7D1FF04F15A00E6616F
S3150800A480FFF7BEFF04F15E00FFF7BAFF024B28464E
S3150800A490C5E9003670BD00BFA99400087FB504461B
S3150800A4A0643001F0A4FA04F1D40001F0A0FA04F132
S3150800A4B0DC0001F09CFA636A5A1013F0010F04EBF2
S3150800A4C00201236A18BFA25802AE18BFD3583046F5
S3150800A4D0984796E8030004F1200585E8030004F18F
S3150800A4E07000FFF7B1F9E36893F8302312B993F8CF
S3150800A4F0312362B100226E46A3F830232146304646
S3150800A5000122FFF79BFF96E8030085E8030004B0E5
S3150800A51070BD00002DE9F047DFF86C90A4B0044642
S3150800A5200E4600250DF110080DF18F0ACDE9028AB5
S3150800A53002AB0CCBF168684606F0BEFC9DF80470C9
S3150800A54057B1009A062AF1D1494640460EF0B0FAAC
S3150800A550002808BF3D46E9E73DB131462046FFF7EA
S3150800A560E5FC204624B0BDE8F087736E2BB90122BE
S3150800A57031462046FFF762FFF3E7024BC4E9003590
S3150800A580EFE700BF15A50008648D010891F855305E
S3150800A59010B5044613B1002381F8553001F1560071
S3150800A5A0FFF72EFF024B236000236360204610BD91
S3150800A5B085A2000830B50B78052B85B0054603D073
S3150800A5C00024204605B030BDD1E90132D11A03294D
S3150800A5D0F6D9CDE90232CDE9003213F8014B0293E0
S3150800A5E002A8FEF7B1FF002CEAD195F85840002CD6
S3150800A5F0E6D0B5F856308342E2D105F15600FFF7AA
S3150800A600FFFEDEE72DE9F041A8B006460C4608AD88
S3150800A6100DF19F08CDE9045804AF97E80C00E168EE
S3150800A620684606F049FC9DF8043083B9636E43B961
S3150800A630002221463046FFF701FF304628B0BDE824
S3150800A640F081203494E8030086E80300F5E7009BD0
S3150800A6502B44CDE9025302AB0CCB21463846FFF713
S3150800A66025F99DF81C30002BD4D039462046FFF733
S3150800A670A1FF0028CED0DBE730B591F8583089B075
S3150800A68005460C46002B35D00DF10703012104A819
S3150800A69005930793CDF810D0CDF818D0FFF798F9A1
S3150800A6A04FF6934104A8FFF799F9032104A8FFF789
S3150800A6B08FF9B4F8561004A8FFF790F9132104A8E7
S3150800A6C0FFF786F9069B049A0793CDE9022302ABA6
S3150800A6D00692E06893E8060006F05CF9322104F178
S3150800A6E0640001F06FF921462846FFF78BFF2846DC
S3150800A6F009B030BD0122FFF7A1FEF8E710B5D1E990
S3150800A70002329A4207D05A1C8A601A7883685C1CFF
S3150800A71084601A70F3E710BD2DE9F04190F82650D1
S3150800A7209CB004460E4617469846002D68D13D4D06
S3150800A7300078AA4294BF09250A25FEF7E7FE0544D4
S3150800A7400CAA2B1D1344012104A8CDE90423CDE945
S3150800A7500623FFF73DF94FF6045104A8FFF73EF923
S3150800A760E9B204A8FFF734F9414604A8FFF736F919
S3150800A770217804A8FFF72CF9234608A913F8042B17
S3150800A780012A0CBFA21C04F1140204A807BFCDE9D4
S3150800A7900823CDE90A23CDE90832CDE90A32FFF7C5
S3150800A7A0ADFF204B217D9F4204A826D8FFF710F95C
S3150800A7B0617D04A8FFF70CF9A17D04A8FFF708F945
S3150800A7C0E17D04A8FFF704F9072104A8FFF700F9BB
S3150800A7D0217E04A8FFF7FCF8069B049A0793CDE9A7
S3150800A7E0022302AB0692304693E8060006F0D2F83A
S3150800A7F0012528461CB0BDE8F081FFF7EFF8D7E73A
S3150800A800D0E9072191420BD090F8282042B9828CD2
S3150800A81000921C3494E806003046FFF734FCE8E75B
S3150800A8200025E6E71F0007002DE9F041837E9AB070
S3150800A83004460E461746002B49D10078FEF766FEF9
S3150800A8400AAAC31D13440546012102A8CDE902231D
S3150800A850CDE90423FFF7BCF84FF6025102A8FFF72B
S3150800A860BDF8E91CC9B202A8FFF7B2F8217802A818
S3150800A870FFF7AEF8234606A913F8042B012A0CBFE6
S3150800A880A21C04F1140202A807BFCDE90623CDE9EC
S3150800A8900823CDE90632CDE90832FFF72FFF01215B
S3150800A8A002A8FFF795F8217D02A8FFF791F8049B07
S3150800A8B0029A0593CDE900236B460492304693E845
S3150800A8C0060006F067F801201AB0BDE8F081D0E965
S3150800A8D00758454509D02846238B3A463146FFF79F
S3150800A8E01BFF2C350028F4D0EEE70020ECE700002B
S3150800A8F038B50C460546CA696069C968FFF794FF0A
S3150800A90058B9E269E168A069FFF78EFF28B92146C0
S3150800A9102846FFF771FA284638BD024B2B600023FC
S3150800A9206B60F8E707AB000870B50B6990B0064690
S3150800A930187C0C46FEF7EAFD0AAAC31D1344054611
S3150800A940012102A8CDE90223CDE90423FFF740F847
S3150800A9504FF68E4102A8FFF741F8E91CC9B202A8D2
S3150800A960FFF736F82369187CFEF7D0FD811CC9B2BB
S3150800A97002A8FFF72DF82369187CFEF7C7FD411CCE
S3150800A980C9B202A8FFF724F8072102A8FFF720F8A2
S3150800A99023691A7C012A06A903F1140202A809BF31
S3150800A9A012332433CDE90632CDE908321CBFCDE98E
S3150800A9B00623CDE90823FFF7A1FE049B029A059317
S3150800A9C0CDE900236B460492E06893E8060005F09B
S3150800A9D0E1FF04F164000A2100F0F4FF034B336041
S3150800A9E030460023736010B070BD00BF2DAD00085F
S3150800A9F010B5914209D0D0E902349C4205D013F82B
S3150800AA00014B836001F8014BF3E710BD2DE9F04FC8
S3150800AA10ABB08A46694681E80C00349C81461546E7
S3150800AA2098460AAE06AF0DF1A7030696079397E870
S3150800AA300C00D9F80C1004A806F03EFA9DF814305C
S3150800AA409BB9D9F86420002A41D140F2FF13ADF82A
S3150800AA500C309DF80C30002063F307009DF80D308C
S3150800AA6063F30F202BB0BDE8F08F049B9DF82810E8
S3150800AA709DF8292033440DF12B000429CDE90663FE
S3150800AA80099308909DF82A30CDD10E2A22D1022B9F
S3150800AA90C9D908A8FEF752FD08A8FEF755FD504586
S3150800AAA0C1D1089B13F8016B08933CB1099AD31AD4
S3150800AAB0A8EB0502934294BF2360226025B1424663
S3150800AAC029463846FFF794FF8DF80C6001238DF868
S3150800AAD00D30BEE70F2AA6D1032BA4D90BAB08A8C5
S3150800AAE008939DF82BB0FEF729FD08A8FEF72CFD64
S3150800AAF0824598D1BBF1000F95D00CB10023236095
S3150800AB008DF80CB0E2E72DE9F043074691B04869A5
S3150800AB100C46FEF705FE10F47F0F81B203D1A0693B
S3150800AB20FEF7FEFD81B210AB079308AE05AB06969D
S3150800AB3000930DF1180898E80C002046FFF766FF09
S3150800AB4010F47F4FADF8080008D1203494E80300CC
S3150800AB5087E80300384611B0BDE8F0839DF8083051
S3150800AB60E3B904F1100504F118094D4516D0059B03
S3150800AB7055F8040F3344CDE9066398E80600FEF756
S3150800AB80F8FD10F47F4FADF80C00EED09DF80C30B0
S3150800AB9023B121463846FFF7ABFEDBE70122214603
S3150800ABA03846FFF74BFCD5E782B0F0B587B01E46AE
S3150800ABB00D930023CDE9043300930C4606AB1146EA
S3150800ABC0054613E90C0020460E9FFFF71FFF10F4F9
S3150800ABD07F4FADF80C000AD1203494E8030085E8CD
S3150800ABE00300284607B0BDE8F04002B070479DF85C
S3150800ABF00C3053B97B10FA0704EB030148BFE3583E
S3150800AC00284648BF9E59B047EBE701222146284609
S3150800AC10FFF714FCE5E700001FB5002300934FF685
S3150800AC209242034B0446FFF7BFFF204604B010BD0F
S3150800AC306D9F00081FB5002300934FF60152034B82
S3150800AC400446FFF7B1FF204604B010BD6D9D00080D
S3150800AC501FB5002300934FF60652034B0446FFF731
S3150800AC60A3FF204604B010BDF1A800081FB50023B5
S3150800AC7000934FF68542034B0446FFF795FF20469F
S3150800AC8004B010BDAD9F00081FB5002300934FF612
S3150800AC908642034B0446FFF787FF204604B010BDE3
S3150800ACA08DA5000830B585B00446002300934FF6FD
S3150800ACB09442074B0D46FFF777FF2268054B9A42E9
S3150800ACC003D163680BB985F83C30204605B030BD22
S3150800ACD095A10008D9AC00081FB5002300934FF6CC
S3150800ACE08342034B0446FFF75FFF204604B010BDBE
S3150800ACF0B5A200081FB50023009342F20902034BD0
S3150800AD000446FFF751FF204604B010BD699E0008AF
S3150800AD101FB5002300934FF68F42034B0446FFF7F7
S3150800AD2043FF204604B010BD29A900081FB500231B
S3150800AD3000934FF68E42034B0446FFF735FF204635
S3150800AD4004B010BD999400081FB5002300934FF670
S3150800AD50A442034B0446FFF727FF204604B010BD64
S3150800AD60D5940008F0B58DB004AB05AE0DF11D0500
S3150800AD7000930C460896099508AB07460CCB41F29A
S3150800AD8001012046FFF742FE10F47F4FADF80C0094
S3150800AD9007D1203494E8030087E8030038460DB04D
S3150800ADA0F0BD9DF80C30F3B9049B082B1BD10AA8FB
S3150800ADB0CDE90865CDE90A65FEF7C0FB0AA8FEF7E6
S3150800ADC0C3FB0A9B0AA813F8015B0A93FEF7BCFBB0
S3150800ADD00AA8FEF7B9FB40EA0540E0612146384675
S3150800ADE0FFF7B4F8DAE7012221463846FFF726FBD3
S3150800ADF0D4E7F0B58BB003AB04AE0DF1170500939D
S3150800AE000C460696079506AB07460CCB4FF68A41C5
S3150800AE102046FFF7FBFD10F47F4FADF8080007D179
S3150800AE20203494E8030087E8030038460BB0F0BDE9
S3150800AE309DF80830D3B9039B062B17D108A8CDE98E
S3150800AE400665CDE90865FEF77FFB0125A4F85A00DB
S3150800AE5084F85C5008A8FEF777FB84F86050A4F8DD
S3150800AE605E0021463846FFF773F9DEE701222146E0
S3150800AE703846FFF7E3FAD8E72DE9F04391F83C3076
S3150800AE80ADB006460C461BBB91F834309A1E012A13
S3150800AE901ED991F85420B3FA83F35B099A4217D165
S3150800AEA00CAD0DF1AF08CDE9085808AF97E80C00CE
S3150800AEB0E16802A806F000F89DF80C3073B9203452
S3150800AEC094E8030086E8030030462DB0BDE8F08319
S3150800AED0002221463046FFF7B1FAF5E7029B2B44DC
S3150800AEE0CDE90853214697E80C0004A8FEF7DEFCD6
S3150800AEF09DF81C30002BD6D004A904F17000FEF78B
S3150800AF0055FEDDE905329DF810103E29CDE90832D7
S3150800AF10CDE90A3204D004A92046FFF74BFBC2E765
S3150800AF20D21A032AF7D91A4612F8019B0A92B9F1DE
S3150800AF30010FF0D15A7802330A93002AEBD10AA8F6
S3150800AF40FEF702FB94F83430A4F8560084F85890BB
S3150800AF50D3B1DDE908239B1A0B2B01D84A46B8E77B
S3150800AF600AA8FEF7EBFA0A9A12F8015B0A926946F2
S3150800AF700DF106023846FFF73BFD2B466A46214689
S3150800AF803046FFF7FFF99FE721463046FEF7A2FA5B
S3150800AF909AE72DE9F0410B78FF2B8CB0054604D0D3
S3150800AFA0002630460CB0BDE8F081D1E90123991A94
S3150800AFB00929F5D905A8CDE90323CDE90523FEF727
S3150800AFC0C3FA064605A8FEF7BFFA804605A8FEF7A7
S3150800AFD0BBFA059B074613F8014B059305A8FEF730
S3150800AFE0B3FA40F601439E42DAD195F85860002E2E
S3150800AFF0D6D0B5F856304345D2D1DDE905239B1A9C
S3150800B0009C42CDD10028CBD1AB69DB695B6A009342
S3150800B01001339BB29F42C3D1142C11D807AF3C44CD
S3150800B0202246394603A8FFF7E3FCED6E002DB8D09B
S3150800B0306B68281DCDE9017401A998472D68F5E7C5
S3150800B0400646AEE72DE9F04191F83430032BAAB055
S3150800B05005460C4602D1FFF70FFB3AE0D1F8D4803B
S3150800B0600AAF06AEB8F1000F21D102AA03AB01213F
S3150800B0703846CDE90B320A920D93FEF7A9FC4FF438
S3150800B0807C413846FEF7AAFC41463846FEF7A0FC46
S3150800B0900C9B0A9A0C92CDE90623E0680D9396E874
S3150800B0A0060005F077FC04F1D40000F088FC0DF1E9
S3150800B0B0A708CDE90678E16896E80C00684605F029
S3150800B0C0FBFE9DF8043043B9203494E8030085E874
S3150800B0D0030028462AB0BDE8F081009B3B44CDE931
S3150800B0E00673214696E80C0002A8FEF7DFFB9DF8DA
S3150800B0F01430002BDDD002A904F17000FEF756FDCE
S3150800B10002A92046FFF756FA28B10022214628460A
S3150800B110FFF794F9DDE702A92046FFF73AFF02A9EF
S3150800B1202046FFF747FA02A92046FEF7D3FB38B1B7
S3150800B13004F1D40000F043FC04F1DC0000F03FFC0D
S3150800B1409DF808300E2B12D1DDE9032308A8CDE9B6
S3150800B1500623CDE90823FEF7F1F908A8FEF7F4F966
S3150800B160B0F57C4F03D104F1DC0000F028FCD4F8DC
S3150800B170DC3053B904F1200292E8030004F12803F5
S3150800B18083E803002146284665E7024B2B60002327
S3150800B1906B609EE745B0000810B5044648B1C06923
S3150800B1A008B100F057FC20462821BDE8104000F001
S3150800B1B053BC10BD10B50446006808B1FFF7ECFF94
S3150800B1C0204610BD2DE9F04F0446A9B016460D4697
S3150800B1D000F0F0F9724B2360724B2363724BA36342
S3150800B1E0724BC4E91134724BC4E903560025C4E90D
S3150800B1F01334C4F85650C4F85A50C4F85E50294659
S3150800B200C4E90555C4E90855C4E90A5584F8345013
S3150800B21084F83C5084F8405084F8555084F85850C7
S3150800B22084F85C5084F8605004F1640000F0C4FBB4
S3150800B230E168E56604F17000FEF7DEFA192104F10B
S3150800B240D40000F0B9FB332104F1DC0000F0B4FBB4
S3150800B25010AF07A8A4F8E45008F084FB294660223A
S3150800B2603846DDE907980DF059FC42F6292342F6DF
S3150800B2702422ADF862202169ADF84230012002236C
S3150800B28042F625228DF860008DF880008DF855303D
S3150800B2908DF87530ADF882208DF895308DF8400020
S3150800B2A0D1E900239B1A8DF85430D1E90023CDE962
S3150800B2B01623D1E902239B1A8DF87430D1E902329C
S3150800B2C0CDE91E32A8EB090329468DF894308DF88E
S3150800B2D02C0041F60A0310220CA8CDE92698ADF8F1
S3150800B2E02E300DF01BFC28AB282009970A9300F096
S3150800B2F0A5FB0DF12408834698E803000DF1080A1A
S3150800B3008AE803000DF1380999E803008DE803007F
S3150800B3100BAF97E80E005846FEF7ADF96369C4F817
S3150800B32014B0384609930B951036FFF743FF40468D
S3150800B330FFF740FF0FCEBC46ACE80F003368CCF8E9
S3150800B34000301C4B0993282040330A9300F076FB03
S3150800B350064698E803008AE8030099E803008DE8A2
S3150800B3600300304697E80E00FEF785F9A369A66143
S3150800B3703846099304AE0B95FFF71CFF4046FFF7C6
S3150800B38019FF214630462A46FFF758F896E8030083
S3150800B39004F1200383E80300204629B0BDE8F08FB6
S3150800B3A04C8D0108008C0108108C0108208C0108BE
S3150800B3B0308C01086C8D010838B50A4B03600446C9
S3150800B3C0C06E20B1056800F045FB2846F9E76069BC
S3150800B3D0FFF7E2FEA069FFF7DFFE204600F0E2F87D
S3150800B3E0204638BD4C8D010810B50446FFF7E4FF2A
S3150800B3F02046E82100F030FB204610BD0D4B10B565
S3150800B400044640F8503B00F07DFB04F1400002F092
S3150800B4104BFC04F1300002F047FC04F1200002F076
S3150800B42043FC04F1100002F03FFC204600F0BAF895
S3150800B430204610BDB48D010810B50446FFF7DEFF9F
S3150800B4402046742100F008FB204610BDC368503022
S3150800B45093F8401000F02EBB38B504460D4600F0B0
S3150800B460A9F8134B236005F13002E560114904F190
S3150800B470100002F0A3FB05F138020F4904F1200081
S3150800B48002F05CFB05F144020C4904F1300002F0BD
S3150800B4907BFB05F14C020A4904F1400002F074FBFB
S3150800B4A00222084904F1500000F012FB204638BD7C
S3150800B4B0B48D01083CA70108C4A401080CA401081E
S3150800B4C0F4A50108A8A0010870B5154604460E465D
S3150800B4D001F50562296802F057FB06F65C02A968C1
S3150800B4E004F1100002F050FB06F66402696804F1E4
S3150800B4F0200002F049FB06F66C02296904F13000C7
S3150800B50002F05CFB06F67402E96804F1400002F0FA
S3150800B51055FB204670BD10B50446403002F0C4FB0A
S3150800B52004F1300002F0C0FB04F1200002F0BCFB7D
S3150800B53004F1100002F0B8FB204602F0B5FB2046E5
S3150800B54010BD30B501249440013C1BB1012B17D026
S3150800B550002030BD8568C368C1F140018A1A2DBA3A
S3150800B560C2F120001BBAA2F1200105FA00F023FA65
S3150800B57002F2024325FA01F10A4304EA0200E8E767
S3150800B580D0E90235C1F12000A1F1200205FA00F048
S3150800B59023FA01F1014325FA02F2114304EA0100F4
S3150800B5A0D7E77047704710B50C21044600F054FAE7
S3150800B5B0204610BD024A02600022C0E901227047F7
S3150800B5C0D48D010838B5054655F8104FAC4206D05B
S3150800B5D054F8043C201F9B6898472468F6E738BD52
S3150800B5E038B5054655F8104FAC4206D054F8043C19
S3150800B5F0201FDB6898472468F6E738BD38B5054646
S3150800B60055F8104FAC4206D054F8043C201F1B696D
S3150800B61098472468F6E738BD38B5054655F8104FFB
S3150800B620AC4206D054F8043C201F5B69984724684E
S3150800B630F6E738BD10B50346002153F8042F9342A8
S3150800B64004D01468C2E900112246F8E7C0E90133BC
S3150800B650016010BD10B5054B044640F80C3BFFF7DA
S3150800B660E9FF2046FFF79EFF204610BDF48D01082E
S3150800B67010B50446FFF7EEFF2046182100F0ECF956
S3150800B680204610BD10B5054B044640F80C3BFFF7A5
S3150800B690D1FF2046FFF7DEFF204610BD148E0108B5
S3150800B6A010B50446FFF7EEFF2046182100F0D4F93E
S3150800B6B0204610BD10B50446FFF77CFF044B2360F7
S3150800B6C00023E36004F11003C4E90433204610BDE7
S3150800B6D0F48D010843698B6010B50A1D00F110044A
S3150800B6E04C6042611A60C3680133C36010BDF8B587
S3150800B6F00446054654F8103F00269C420AD0181FF7
S3150800B7001F68C3E9006603D053F8043C5B68984792
S3150800B7103B46F2E7C5E90444EE60F8BD10B50446B9
S3150800B720FFF7C8FF014B2360204610BD148E0108A1
S3150800B730D0E901239B1A82B099423BBF535C8DF82E
S3150800B7400430002301238DF805309DF804300020CD
S3150800B75063F307009DF8053063F30F2002B07047C6
S3150800B76000207047D0E90102101A7047436818682C
S3150800B7707047000038B5044600F072F91D4D1E49A1
S3150800B78025600C302246606004F1080002F009FAD0
S3150800B79000F066F9083004F11802E0611749A5615E
S3150800B7A004F1200002F0FDF900F05AF904F1300224
S3150800B7B0C4E90C50124904F1380002F0F2F900F01D
S3150800B7C04FF90430E06404F14802A5640D4904F118
S3150800B7D0500002F0E6F90C4B23660C4B63660833FF
S3150800B7E0A36604F160020A4904F16C0002F034FA17
S3150800B7F0204638BD348E010814A501081CA5010889
S3150800B800A4A6010854A60108448E0108508E010812
S3150800B8103CA6010810B504466C3002F045FA04F15E
S3150800B820500002F041FA04F1380002F03DFA04F142
S3150800B830200002F039FA04F1080002F035FA204631
S3150800B84010BD0079704700207047027843781AB116
S3150800B8501B0183F3118870470BB162B6704772B645
S3150800B8607047C36801718360704719B9C36801716D
S3150800B87083607047836823B1013B836000230371AB
S3150800B88070470123FBE70000034A026000220271A9
S3150800B890C0E90221704700BF608E0108124B13B53C
S3150800B8A01860124B1B6803F5A163044640F8043B75
S3150800B8B0FFF734FF04F11C00FFF730FF2068002370
S3150800B8C0A36384F83430E36303694FF47A715B68E1
S3150800B8D010309847064B20686946CDE9003406F0D3
S3150800B8E07FFF204602B010BDD0200020D8200020BF
S3150800B8F027B9000838B5836B0133836304460068AB
S3150800B900836918301B68984794F83430054613B194
S3150800B910201DFFF773FE2068836918301B68984757
S3150800B920401BE06338BD4068FFF7E4BF90F8343049
S3150800B93070B5044623BB061D304604F11C05FFF707
S3150800B94041FE2846FFF73EFE0E4B186802F05BFCE8
S3150800B9503046FFF745FE2846FFF742FE012384F8E6
S3150800B96034302846FFF74AFE94F83430002BF8D1D5
S3150800B9703046FFF751FE2846BDE87040FFF74CBE3B
S3150800B98070BD00BFD420002073B50646044656F89D
S3150800B9901C0B69460025CDE9005506F021FF304607
S3150800B9A0FFF770FE201DFFF76DFE024B20461D6057
S3150800B9B002B070BDD0200020C0E90011704743686E
S3150800B9C003607047C0E900117047436833B10268E5
S3150800B9D064205043B0FBF3F398B27047184670479B
S3150800B9E008B5FFF7F2FFC0F1640080B208BD03682E
S3150800B9F00BB1013B036070477047FEE708B50DF0D1
S3150800BA0051F8582303604FF0FF3008BD094A116802
S3150800BA10013110B5116041070749034618BF20F0E8
S3150800BA200703086818BF0833C4180C6091680B44EC
S3150800BA30936010BDDC20002000200020FFF7E6BF41
S3150800BA40FFF7E4BF024A536801335360704700BFEB
S3150800BA50DC200020FFF7F6BFFFF7F4BFFFF7F2BFC1
S3150800BA6000487047DC200020024B0349034A5B1A52
S3150800BA70D3607047C07F002044550020DC2000209A
S3150800BA80FEE75B1A10B507D0121A05D0029C241AD5
S3150800BA90634393FBF2F31944084610BD40687047A8
S3150800BAA041600120704700880B8898422CBF00200F
S3150800BAB001207047037D2BB921B1C3697E2B9CBF3A
S3150800BAC00133C361017570470023C361037570476D
S3150800BAD010B50273084A0261084A81600023C0E96A
S3150800BAE00623C0E900330375054B0446014618686A
S3150800BAF000F082FC204610BD108C0108708E0108EB
S3150800BB00EC20002010B5044B04460146186800F0E6
S3150800BB1003FB204610BD00BFEC20002038B50446C4
S3150800BB200D4600F0F1F805F628221C4904F120001C
S3150800BB3002F004F805F52362194904F1300002F011
S3150800BB4030F805F63822174904F1400002F029F8C2
S3150800BB5005F52562144904F1500002F070F805F65F
S3150800BB606822124904F1600002F069F805F52762B7
S3150800BB700F4904F1700002F055F805F678220D49D0
S3150800BB8004F1800002F05BF805F528620A4904F121
S3150800BB90900002F020F8204638BD00BF44A70108EF
S3150800BBA04CA4010894A401086CA50108BCA50108C9
S3150800BBB034A701082CA701084CA7010810B50446AC
S3150800BBC0903002F071F804F1800002F06DF804F18B
S3150800BBD0700002F069F804F1600002F065F804F1FB
S3150800BBE0500002F061F804F1400002F05DF804F13B
S3150800BBF0300002F059F804F1200002F055F804F17B
S3150800BC00100002F051F8204610BD0C3000F02AB89A
S3150800BC1038B504460D46FFF7CDFC2046034B40F8E1
S3150800BC200C3B294600F035F8204638BD808E0108C1
S3150800BC3010B5054B044640F80C3BFFF763FF20465A
S3150800BC40FFF7B0FC204610BD808E010810B50446EB
S3150800BC502430FFF70AFE94F828102046BDE8104065
S3150800BC60FFF728BF10B50446FFF72EFF04F124009E
S3150800BC700021BDE81040FFF7F4BD38B504461D465F
S3150800BC80FFF726FF294604F12400FFF7FDFD2046AD
S3150800BC9038BD38B50C4605460A790968FFF718FF16
S3150800BCA0A16805F12400FFF7EFFD284638BD426874
S3150800BCB01368243353600120704770B5054614266F
S3150800BCC02B6803F12402D3F8243A3BB106FB03237D
S3150800BCD06C689C4204D16A60002070BD1346F7E781
S3150800BCE004F114036B60204600F0E5F80028E7D05D
S3150800BCF0236820461D8800F0B4F845EAC070ECE7D2
S3150800BD004068FFF7DABF000010B5074B0160243121
S3150800BD1004464160C0E9023000F1080203491030C8
S3150800BD2001F03FFF204610BDA08E01089CA4010823
S3150800BD30002070474368D3F8240A704700207047EC
S3150800BD404368D3F8240A70474368D3F8242A9142F3
S3150800BD503CBF142202FB013182B03DBF4B6A1B88EF
S3150800BD60ADF80430002338BF01238DF80630BDF83E
S3150800BD700430002063F30F00BDF8063063F31F405C
S3150800BD8002B070474368D3F8240A7047032A9DBF58
S3150800BD904B6853F822300360002398BF01230371D0
S3150800BDA0704704207047406870470C30FFF718BC8E
S3150800BDB010B5054B03600446FFF799FC2046FFF7CC
S3150800BDC049FC204610BD00BFB08E010810B50446D8
S3150800BDD0FFF7EEFF20461821FFF73EFE204610BD6E
S3150800BDE00268142303FB0121016070470346104AC9
S3150800BDF070B543F8242B0446D0F8245A002065B1C0
S3150800BE001946013D51F80C2F8A4204D01668C2E93A
S3150800BE1000003246F8E71433F1E704F10C00FFF7A7
S3150800BE20C7FF044B20461D60FFF7BCFB204670BDCC
S3150800BE30308F0108EC20002010B50446FFF7D6FF26
S3150800BE40204640F68821FFF707FE204610BDD1F8A8
S3150800BE50242A01F1240312B1142101FB02330360E1
S3150800BE60704750F80C3F834203D01A7D12B91B68FD
S3150800BE70F9E700221046704707B54068D0F8243A1B
S3150800BE808B4216D91423243003FB0100FFF7E9FF80
S3150800BE9001238DF804008DF805309DF80430002044
S3150800BEA063F307009DF8053063F30F2003B05DF8D0
S3150800BEB004FB0023EFE750F80C3F0022834203D02F
S3150800BEC0D9691B680A44F9E7104670474B68D3F8E6
S3150800BED0241A914210B504460AD92433142000FBCB
S3150800BEE00230FFF7E8FF012320602371204610BDCA
S3150800BEF00023FAE738B5054655F80C4FAC4204D08E
S3150800BF002046FFF7E1FD2468F8E738BD03790A7B88
S3150800BF10934228BF1346037103694B6000F10C0274
S3150800BF200A6001611960836801338360704710B540
S3150800BF308B680A7B03600023836000F10C0302719F
S3150800BF40C0E90333FFF7E2FF10BD0246042303717D
S3150800BF5052F80C3F70B50025934213D099420AD186
S3150800BF60D1E90046346066608468013C8460C1E9B2
S3150800BF7000551B68F0E71C7B0679B44228BF344697
S3150800BF800471F6E770BD38B5D0F8243A00F12404F8
S3150800BF904BB1142505FB0345A54204D02046FFF7FF
S3150800BFA0A9FF1434F8E738BD10B50446FFF7EBFFD0
S3150800BFB004F10C00BDE81040FFF704BB2DE9F84377
S3150800BFC004460C30FFF71AFB94F82C3A2BB10023E1
S3150800BFD084F82C3A2046FFF7D6FFD4F8247A0023B3
S3150800BFE004F52469C4F8403AC4F8443AC4F8483A0F
S3150800BFF0C4F84C3A04F65828C4F8583AC4F85C3AD7
S3150800C000C4F8603AC4F8643A04F12405EFB114237D
S3150800C01003FB0757BD4218D028462E79FFF721FFA4
S3150800C02030B104EB8602D2F8403A0133C2F8403AFE
S3150800C0302846FFF740FF30B104EB8606D6F8583A93
S3150800C0400133C6F8583A1435E4E704F525610023A8
S3150800C050894503D059F8042B1344F9E7C4F8343A50
S3150800C06004F668210023884503D058F8042B1344A6
S3150800C070F9E7C4F83C3ABDE8F88310B504460C3035
S3150800C080FFF7CAFA2046BDE81040FFF77CBF00005C
S3150800C090D1F8243A2DE9F34706468846174601F1B2
S3150800C0A0240503B3142202FB03535B1B194A9B1096
S3150800C0B002FB03F92C46B9F1000F16DD4FEA690AAF
S3150800C0C0514601A80194FFF78BFE019B3946186873
S3150800C0D0FFF7E9FC28B1019CA9EB0A0A14340AF116
S3150800C0E0FF3AD146E7E72B46DFE7D8F8243A13B1FB
S3150800C0F0142202FB0355AC4206D021683846FFF7E6
S3150800C100D2FC002818BF2C463046346002B0BDE881
S3150800C110F08700BFCDCCCCCC37B58A6805460C462F
S3150800C12001466846FFF7B4FF01A82946FFF78FFEC8
S3150800C130DDE90003834202D02146FFF706FF03B07C
S3150800C14030BD0000F8B50446FFF734FA244B254AFB
S3150800C1501C602346002143F80C2B182218460CF0C5
S3150800C160DDFCFFF7A7FA204BE360204BC4F8283A1A
S3150800C1701F4BC4F8303A0025C4F8383A102704F59E
S3150800C18024633A462946C4F8245A84F82C5AC4F833
S3150800C190345AC4F83C5A18460CF0C0FC154EC4F87C
S3150800C1A0540A04F65823C4F8506A3A4629461846EB
S3150800C1B00CF0B4FC104BC4F8703A104BC4F8783A3B
S3150800C1C00F4BC4F86C0AC4F8686AC4F8744AC4F811
S3150800C1D07C4AC4F8803AC4F8844A2046F8BD00BFB1
S3150800C1E0EC200020308F0108B08E0108108C010861
S3150800C1F0D08E0108E08E0108F48E0108088F010828
S3150800C2001C8F01088142F0B524D002680B680AB970
S3150800C210C0E900000BB9C1E90011D1E90064D0E911
S3150800C22000C57768DCF804E0CCF80470C6F804E0CA
S3150800C23027682E682F60266004680D6805600C6004
S3150800C2404D68446845604C600AB9C1E900220BB9DB
S3150800C250C0E90033F0BD00002DE9F84380460E46DC
S3150800C2601746104608F10C054FF00009A5F10C0316
S3150800C2709E4200F1140419D055F80C3C44F8143CBD
S3150800C28015F8083C0371C0F808900C3044E9020020
S3150800C2902946FFF7B7FF55F8042C54F80C3C44F828
S3150800C2A00C2C143545F8183C2046DFE7A6EB0806A3
S3150800C2B00448B608464326F04046142000FB06709C
S3150800C2C0BDE8F883CDCCCC0C38B50B6803600B7988
S3150800C2D003710023044683600D460C30C4E903004D
S3150800C2E00C31FFF78FFFA368AA68A2602046AB60EF
S3150800C2F038BD00002DE9F84F002303600371D1F81B
S3150800C300003A80460E461746EBB14FF0140909FB72
S3150800C3100319A9EB0605AB10364D34465D431423C5
S3150800C320ADB14FEA550A03FB0AF23968A05804EB87
S3150800C330020BFFF7B8FB142338B1013DA5EB0A053C
S3150800C3400BEB0304ECE78946E3E75546E8E7A14526
S3150800C35008D1D6F8002A0123802A88F804300ED19D
S3150800C3600CF08EFB21683868FFF79DFB0028F0D19A
S3150800C37088F80450C8F800404046BDE8F88F1423F2
S3150800C38003FB0262944209D139462046FFF79CFF17
S3150800C390D6F8003A0133C6F8003AEBE7A2F11405DD
S3150800C3A011462846FFF758FFD6F8003A0133C6F873
S3150800C3B0003AAC420FD055F8143D6B612B792B76B9
S3150800C3C005F10C0105F12000FFF71CFFEB69AA68CF
S3150800C3D0EA61AB60EDE73B6823603B79237107F1BF
S3150800C3E00C0104F10C00FFF70DFFA368BA68A26000
S3150800C3F0BB60BFE7CDCCCCCC30B589B08A680446E3
S3150800C4000D4601466846FFF743FE214603A8FFF797
S3150800C4101EFD0098039B8342294603D0FFF776FD4D
S3150800C42009B030BD03A8FFF782FD03AA01A804F1ED
S3150800C4302401FFF75FFF069B06A800228342EFD080
S3150800C4401968C3E900220B46F8E710B50446006CE4
S3150800C45003681B689847B4F944108142A8BF0021B5
S3150800C46004F10C00B8BF0121BDE81040FFF7EEBB90
S3150800C47010B50446006C03681B689847B4F9441065
S3150800C4808142D8BF002104F10C00C8BF0121BDE8D4
S3150800C4901040FFF7DBBB000010B5034B03600446F2
S3150800C4A0FFF7C6FB204610BD508F010810B504469D
S3150800C4B0FFF7F2FF20464821FFF7CEFA204610BDC7
S3150800C4C010B5034B03600446FFF7B2FB204610BDC8
S3150800C4D0708F010810B50446FFF7F2FF2046482181
S3150800C4E0FFF7BAFA204610BD2DE9F0410C4B054678
S3150800C4F048201E6835F9047B8846FFF79FFA2946C7
S3150800C5000446FFF785FB074B2360C4F84080A4F870
S3150800C5104470214606F10C00BDE8F041FFF7DAB891
S3150800C520EC200020508F01082DE9F04105464820EF
S3150800C5301746B3F900608846FFF780FA4146044675
S3150800C540FFF766FB054B2360284621462764A4F8B7
S3150800C5504460FFF7BFF82046BDE8F081708F0108F8
S3150800C56013B5074B1C6830F9043BADF804300A468E
S3150800C57001AB014604F10C00FFF7D6FF02B010BD6F
S3150800C580EC20002013B5074B1C6830F9043BADF8C6
S3150800C59004300A4601AB014604F10C00FFF7C4FF5C
S3150800C5A002B010BDEC200020B0F90400704700204E
S3150800C5B07047002070474068704700207047007930
S3150800C5C07047002070474368988A7047B0F904009E
S3150800C5D0704781800120704740687047416001209C
S3150800C5E0704790F84000012802D0031F584258416E
S3150800C5F07047000090F8083123B9034B1B6893F87D
S3150800C600A401704700207047F02000204068FFF71B
S3150800C610F1BF0000044BC0681B685B6803EB50035E
S3150800C620B3FBF0F0704700BFF02000204068FFF72A
S3150800C630F1BF000011B9C16001207047064B1B68A5
S3150800C6405B68B1EB430F05D803EB5103B3FBF1F37A
S3150800C650C360F1E700207047F02000204068FFF72C
S3150800C660E9BF0000044B00691B685B6803EB5003D5
S3150800C670B3FBF0F0704700BFF02000204068FFF7DA
S3150800C680F1BF000021B90161C0F8B0100120704760
S3150800C690094B1B685B68B1EB430F0BD803EB5103DF
S3150800C6A0B3FBF1F1838A016159434FF47A73B1FB05
S3150800C6B0F3F1E9E700207047F02000204068FFF713
S3150800C6C0E1BF90F84030032B0BD1B1F57A7F08D83B
S3150800C6D0B0F8B6308B4228BF0B46A0F8B830012018
S3150800C6E07047002070474068FFF7EBBFB1F57A7FC7
S3150800C6F0036928BF4FF47A7181824B434FF47A71EC
S3150800C700B3FBF1F3C0F8B030012070474068FFF77B
S3150800C710EDBF00000B4B0C491A6802F12403C31A3B
S3150800C7209B104B4302EB83024FF4FA63126953439F
S3150800C730A3F50C43A03B5200B3FBF2F3A0F8B630C6
S3150800C740704700BFF020002077A927E3124B70B589
S3150800C7501D682A6842F20F740A2342F2107103FB1D
S3150800C7600242B2FBF1F2C0F8E0202A68642606FB12
S3150800C7700242B2FBF1F2C0F8F0202A6806FB024238
S3150800C780B2FBF1F2C0F800212B6806FB0343B3FBAA
S3150800C790F1F3C0F8103170BDF0200020006805F0F4
S3150800C7A0A7BF006805F09EBF037A10B50BB1C1F5A7
S3150800C7B07A71094B44681B6803F12402801A074AF8
S3150800C7C08010504303EB80031B6959434FF47A7377
S3150800C7D0B1FBF3F1216010BDF020002077A927E313
S3150800C7E00B4B0C491A6802F12403C31A9B104B43DE
S3150800C7F002EB8302017A436812691B6801B1D31AF6
S3150800C8004FF47A705843B0FBF2F080B2704700BF1D
S3150800C810F020002077A927E34068FFF7E1BF38B585
S3150800C82000250446C0E94555C0E92F55C0E93155EC
S3150800C830C0E933552946E430FFF713F8294604F1D1
S3150800C840F400BDE83840FFF70CB80023C0E92F33E1
S3150800C850C0E93133C0E933337047000082B0F0B520
S3150800C860D0E930548D42069365DD491B90F8406047
S3150800C870022E65D0A6F1050CDCF1000646EB0C0687
S3150800C8800029D4BF00270127B6EBD17F0CBF01FBD7
S3150800C89001F30023B7426FF41C7633440CBF4943B7
S3150800C8A00021002BD0F8CC604CDA334423EAE3733A
S3150800C8B0C0F8CC306FF41C7319440029D0F8D03076
S3150800C8C048DA194421EAE171264B079E1B68C0F82D
S3150800C8D0D0109F69069B9642A8BF1646711B9A42BE
S3150800C8E0B8BF1A46002943F6FF73B8BF494207FB8B
S3150800C8F001310029B8BFC91805EBA135131BB5428C
S3150800C900D4BFC0F8C050C0F8C060002BB8BF5B42A7
S3150800C91043F6FF7107FB0313002BB8BF5B18A4EBA4
S3150800C920A333BDE8F0409342ACBFC0F8C430C0F8AA
S3150800C930C42002B07047A142CCBF091B002195E76D
S3150800C94001269DE76FF00047BF1B9F42D4BFF3192E
S3150800C950F318ADE76FF00046F61A8E42D4BF991960
S3150800C9605918B1E7F0200020D0E933301844054BB8
S3150800C9701B685A6940F2712353439842D4BF00207A
S3150800C98001207047F0200020D0F8183102690133E1
S3150800C9909342C0F8183121BF0023C0F8183101238B
S3150800C9A080F8B430D0F81821D0F8B0309A4224BFB5
S3150800C9B0002380F8B4307047D0F81421F8B5C5685C
S3150800C9C00132AA4228BF0023C0F8142128BFC0F8A4
S3150800C9D0143104460F46FFF704FEB4F9746048B3F1
S3150800C9E0724294F8B4300BB9216971BB05B3002EB5
S3150800C9F0A36DB8BF76427343B3FBF7F14FF47A736E
S3150800CA006943B1FBF3F16B1E9942A8BF1946B4F905
S3150800CA105030B342A8BF334600B15B42D4F8140184
S3150800CA20884209DAC1EB4000434393FBF1F10A441B
S3150800CA301046F8BD3246D4E76D1A411AA5EB4101F6
S3150800CA404B4393FBF5F31A44F2E71A46F0E7000066
S3150800CA502DE9F04F164687B004468A46FFF794FF3D
S3150800CA603146FFF7A9FF754B1D68814620466B685E
S3150800CA704FF00A08B3FBF8FBFFF7B3FD626B2968B2
S3150800CA80E369B1FBF8FC41F2883702FB0BF292FB33
S3150800CA90F7FEA26DA16ADC45A8BFDC464FF47A759D
S3150800CAA002FB09F292FBF5F2D4F8C85001FB0CFC24
S3150800CAB003FB0BF39CFBF7FC93FBF7F3071E0393AF
S3150800CAC0734614BFB0464FF000085D43039BD4F885
S3150800CAD0BCE0A9EB0A0003FB00F348BFFF3503EBF4
S3150800CAE0252540F6B83303FB0BF30CFB00EC584244
S3150800CAF08445AAEB09014244C4F8C85003DB6345E0
S3150800CB00A8BF634618462A4490FBFBF34FF47A7590
S3150800CB1013445D4395FBF6F3B3F57A7FC4F8BC007E
S3150800CB2004DD002906DAC4F8BCE003E0002B01DACC
S3150800CB300029F8DCB4F8B6509D42A8BF1D4625EA80
S3150800CB40E575A9B22046FFF72FFE94F8B5102046E2
S3150800CB50FFF727FE94F8B5302BB9012384F8B530D2
S3150800CB6007B0BDE8F08F94F84020A16DB4F8B63050
S3150800CB70022A4FEA410045D0052A43D04FF618420B
S3150800CB8016FB02F2A3F57A7392FBF0F204924FF4C5
S3150800CB907A727343490893FBF2F35A4392FBF1F214
S3150800CBA00592059B00932046049B4A465146FFF78B
S3150800CBB055FEA16D4FF47A7301FB09F1754391FB9C
S3150800CBC0F3F995FBF3F504F1E4004FF4FA63A5EBEA
S3150800CBD00805F43491FBF3F1FFB101F5FA718D42C2
S3150800CBE0D4BF00210121A9F1FA09FEF73EFEB5EBF3
S3150800CBF0490FB4BF01210021204607B0BDE8F04F18
S3150800CC00FEF733BE002204924FF47A72734393FB05
S3150800CC10F2F35A4392FBF0F2C2E7A1F5FA718D429C
S3150800CC20ACBF0021012109F1FA09FEF71EFEB5EB9A
S3150800CC30490FCCBF01210021DEE700BFF02000200C
S3150800CC402DE9F04104460E461746FFF79DFEB0F95A
S3150800CC50745035B190F8B4501DB90569B5FA85F523
S3150800CC606D092046FFF7BDFC854214BFB4F8B6101F
S3150800CC70002180462046FFF797FD94F8B510204618
S3150800CC80FFF78FFD2046FFF7E0FD94F8B53023B98E
S3150800CC90012384F8B530BDE8F081454514BF3D460B
S3150800CCA00025B8F1000F08BF0027A5EB07054FF4CC
S3150800CCB07A7101FB05F5A16D95FBF1F505EBD577C5
S3150800CCC004F1E4004FEA67074FEA450504F1F40466
S3150800CCD011D0323DB542D4BF00210121FEF7C5FD72
S3150800CCE007F13201B142ACBF002101212046BDE85F
S3150800CCF0F041FEF7BABD3235B542ACBF002101217D
S3150800CD00FEF7B3FDA7F13201B142D4BF00210121DC
S3150800CD10ECE70000144B1B6870B504465E68FFF725
S3150800CD205FFD05462046FFF739FDB4F8B820C8B1BF
S3150800CD300E4BB3FBF6F3E91A8A4203DB5919914203
S3150800CD40A8BF114689B22046FFF72EFD94F8B51004
S3150800CD502046FFF726FD2046FFF761FD012384F8EC
S3150800CD60B53070BD1146EDE7F020002040420F00B7
S3150800CD70F8B5A1F5006140F68D154D4348BF05F29B
S3150800CD80FF7504461646ED12FFF72BFC00283CD02B
S3150800CD906B421BB205F6CA01A4F88C3041F2941313
S3150800CDA0994204F1D40794BF002101213846FEF7C1
S3150800CDB05CFD1EB901213846FEF753FD94F86C3028
S3150800CDC02BBB00212046FFF7ECFC002384F8B53086
S3150800CDD094F84030032B00F088804FF4FA7120460F
S3150800CDE0FFF7E2FC2046FFF71AFD002DB8BF6D429B
S3150800CDF0182D79DC94F8D830002B75D104F582709B
S3150800CE000121BDE8F840FEF730BD2BB2C2E794F821
S3150800CE100861002ED5D094F840305A1E012A0BD945
S3150800CE201A1F012A47D8324B1B682946B3F98C21A9
S3150800CE302046FFF705FF07E02D4B1B682946B3F987
S3150800CE408C212046FFF704FE2046FFF78DFD50B1E2
S3150800CE50D4E933320A2192FBF1F0834236DA06230B
S3150800CE6084F89C30002694F8D8301BB1032384F844
S3150800CE709C30002694F8E8301BB1012384F89C30D6
S3150800CE80002694F8F83043B3022384F89C30002136
S3150800CE9004F58270FEF7E5FC94F84030032B0CBFCE
S3150800CEA0B4F8B830B4F97430C4F8A430B4F88C3097
S3150800CEB0A4F8AC3013E0032B03D12046FFF72AFF72
S3150800CEC0C2E7072384F89C300026BDE793FBF1F3FD
S3150800CED09342CCBF05230423C2E7002ED7D094F88B
S3150800CEE00831002B3FF46DAFF8BDB4F8B81076E7FB
S3150800CEF0F020002038B503724FF47A738382384BDA
S3150800CF008361436203634023C0E900124363182226
S3150800CF10344BC261C36340F6B832334B8262334A3C
S3150800CF200025C0E91130324BC364C0E915250367F3
S3150800CF30304A314B80F84050C0E91820C0E91E300D
S3150800CF402E4A2F4B82662F4AA0F85050C0E920304F
S3150800CF502D4B80F86C50A0F87450C0F88830C0E9A2
S3150800CF600355A0F88C50C0E92420284AC0F8982018
S3150800CF70C0F8A830264A274BC0F8B4304FF4FA73E5
S3150800CF800446C0E92825A0F8B83080F89C50A0F8D7
S3150800CF90AC50C0F8B050C0E92F55C0E93155C0E9CA
S3150800CFA033552946D430FEF76FFC294604F1E400D0
S3150800CFB0FEF76AFC294604F1F400FEF765FC2946EB
S3150800CFC004F58270FEF760FC2068C4E9455505F053
S3150800CFD0E1FA2068294605F085FB204638BD00BFE2
S3150800CFE0A08F0108008C0108B08F0108708E010817
S3150800CFF0C08F0108D08F0108E08F0108108C010846
S3150800D000F08F010800900108908F01081090010820
S3150800D010209001080000DE0313B5D0E90143104A49
S3150800D0201B1B9B105343994217D24FF48E7000FB7B
S3150800D0300140A83003681B6898470123ADF804002F
S3150800D0408DF80630BDF80430002063F30F00BDF8F4
S3150800D050063063F31F4002B010BD0023F0E700BF9F
S3150800D06077A927E3D0E901031B1A02489B10584306
S3150800D070704700BF77A927E310B50446D1E9010335
S3150800D0800A491B1A9B104B439A420CD24FF48E73D3
S3150800D09003FB0200A03003681B6898470123206041
S3150800D0A02371204610BD0023FAE700BF77A927E3BE
S3150800D0B000207047D0E901031B1A02489B10584309
S3150800D0C0704700BF77A927E313B5D0E90143104A93
S3150800D0D01B1B9B105343994217D24FF48E7000FBCB
S3150800D0E00140983003681B68984701238DF80400AF
S3150800D0F08DF805309DF80430002063F307009DF88D
S3150800D100053063F30F2002B010BD0023F0E700BF1F
S3150800D11077A927E3D0E901031B1A02489B10584355
S3150800D120704700BF77A927E313B5D0E90143104A32
S3150800D1301B1B9B105343994217D24FF48E7000FB6A
S3150800D1400140903003681B68984701238DF8040056
S3150800D1508DF805309DF80430002063F307009DF82C
S3150800D160053063F30F2002B010BD0023F0E700BFBF
S3150800D17077A927E3D0E901031B1A02489B105843F5
S3150800D180704700BF77A927E313B5D0E90143104AD2
S3150800D1901B1B9B105343994217D24FF48E7000FB0A
S3150800D1A00140883003681B6898470123ADF80400DE
S3150800D1B08DF80630BDF80430002063F30F00BDF883
S3150800D1C0063063F31F4002B010BD0023F0E700BF2E
S3150800D1D077A927E3D0E901031B1A02489B10584395
S3150800D1E0704700BF77A927E313B5D0E90143104A72
S3150800D1F01B1B9B105343994217D24FF48E7000FBAA
S3150800D2000140803003681B6898470123ADF8040085
S3150800D2108DF80630BDF80430002063F30F00BDF822
S3150800D220063063F31F4002B010BD0023F0E700BFCD
S3150800D23077A927E370B4D0E90164094DA41BA410AB
S3150800D2406C43A14209D24FF48E7000FB0160803016
S3150800D250036811465B6870BC1847002070BC7047AD
S3150800D26077A927E3D0E901031B1A02489B10584304
S3150800D270704700BF77A927E313B5D0E90143104AE1
S3150800D2801B1B9B105343994217D24FF48E7000FB19
S3150800D2900140783003681B6898470123ADF80400FD
S3150800D2A08DF80630BDF80430002063F30F00BDF892
S3150800D2B0063063F31F4002B010BD0023F0E700BF3D
S3150800D2C077A927E370B4D0E90164094DA41BA4101B
S3150800D2D06C43A14209D24FF48E7000FB016078308E
S3150800D2E0036811465B6870BC1847002070BC70471D
S3150800D2F077A927E3D0E901031B1A02489B10584374
S3150800D300704700BF77A927E313B5D0E90143104A50
S3150800D3101B1B9B105343994217D24FF48E7000FB88
S3150800D3200140703003681B6898470123ADF8040074
S3150800D3308DF80630BDF80430002063F30F00BDF801
S3150800D340063063F31F4002B010BD0023F0E700BFAC
S3150800D35077A927E370B4D0E90164094DA41BA4108A
S3150800D3606C43A14209D24FF48E7000FB0160703005
S3150800D370036811465B6870BC1847002070BC70478C
S3150800D38077A927E3D0E901031B1A02489B105843E3
S3150800D390704700BF77A927E313B5D0E90143104AC0
S3150800D3A01B1B9B105343994217D24FF48E7000FBF8
S3150800D3B00140683003681B68984701238DF804000C
S3150800D3C08DF805309DF80430002063F307009DF8BA
S3150800D3D0053063F30F2002B010BD0023F0E700BF4D
S3150800D3E077A927E370B4D0E90164094DA41BA410FA
S3150800D3F06C43A14209D24FF48E7000FB016068307D
S3150800D400036811465B6870BC1847002070BC7047FB
S3150800D41077A927E3D0E901031B1A02489B10584352
S3150800D420704700BF77A927E310B50446D1E9010381
S3150800D4300A491B1A9B104B439A420CD24FF48E731F
S3150800D44003FB0200603003681B68984701232060CD
S3150800D4502371204610BD0023FAE700BF77A927E30A
S3150800D46070B4D0E90164094DA41BA4106C43A14211
S3150800D47009D24FF48E7000FB0160603003681146D4
S3150800D4805B6870BC1847002070BC704777A927E313
S3150800D490D0E901031B1A02489B105843704700BF86
S3150800D4A077A927E310B50446D1E901030A491B1AEF
S3150800D4B09B104B439A420CD24FF48E7303FB020027
S3150800D4C0543003681B68984701232060237120465F
S3150800D4D010BD0023FAE700BF77A927E370B4D0E9A7
S3150800D4E00164094DA41BA4106C43A14209D24FF450
S3150800D4F08E7000FB01605430036811465B6870BC8F
S3150800D5001847002070BC704777A927E3D0E90103C4
S3150800D5101B1A02489B105843704700BF77A927E398
S3150800D52013B5D0E90143104A1B1B9B10534399427C
S3150800D53017D24FF48E7000FB01404C3003681B680D
S3150800D54098470123ADF804008DF80630BDF804307D
S3150800D550002063F30F00BDF8063063F31F4002B0E6
S3150800D56010BD0023F0E700BF77A927E370B4D0E920
S3150800D5700164094DA41BA4106C43A14209D24FF4BF
S3150800D5808E7000FB01604C30036811465B6870BC06
S3150800D5901847002070BC704777A927E3D0E9010334
S3150800D5A01B1A02489B105843704700BF77A927E308
S3150800D5B010B50446D1E901030A491B1A9B104B43CF
S3150800D5C09A420CD24FF48E7303FB02004430036870
S3150800D5D01B689847012320602371204610BD00234D
S3150800D5E0FAE700BF77A927E370B4D0E90164094DCB
S3150800D5F0A41BA4106C43A14209D24FF48E7000FB01
S3150800D60001604430036811465B6870BC1847002007
S3150800D61070BC704777A927E3D0E901031B1A0248B3
S3150800D6209B105843704700BF77A927E313B5D0E985
S3150800D6300143104A1B1B9B105343994217D24FF4C0
S3150800D6408E7000FB01403C3003681B689847012335
S3150800D6508DF804008DF805309DF80430002063F33A
S3150800D66007009DF8053063F30F2002B010BD0023B4
S3150800D670F0E700BF77A927E370B4D0E90164094D44
S3150800D680A41BA4106C43A14209D24FF48E7000FB70
S3150800D69001603C30036811465B6870BC184700207F
S3150800D6A070BC704777A927E3D0E901031B1A024823
S3150800D6B09B105843704700BF77A927E3544B70B5B2
S3150800D6C001F1240601F5A0750446C0E90036856017
S3150800D6D0024650490C3000F0BFFA4F4B6562C4E968
S3150800D6E0073604F11C024D4904F1280000F0A7FA98
S3150800D6F04B4B2564C4E90E3604F13802494904F156
S3150800D700440000F075FA484BE565C4E9153604F19E
S3150800D7105402464904F1600000F091FA444BA567AB
S3150800D720C4E91C3604F17002424904F17C0000F099
S3150800D73086FA414BC4F89450C4E9233604F18C02A6
S3150800D7403E4904F1980000F046FA3D4BC4F8B05043
S3150800D750C4E92A3604F1A8023A4904F1B40000F0F3
S3150800D76047FA394BC4F8CC50C4E9313604F1C4023F
S3150800D770364904F1D00000F055FA354BC4F8E850A4
S3150800D780C4E9383604F1E002324904F1EC0000F04D
S3150800D79049FA314BC4F80451C4E93F3604F1FC0296
S3150800D7A02E4904F5847000F023FA2D4BC4F8205155
S3150800D7B0C4E9463604F58C722A4904F5927000F0DD
S3150800D7C00AFA294BC4F83C51C4E94D3604F59A7255
S3150800D7D0264904F5A07000F03FFA254BC4F85851C5
S3150800D7E0C4E9543604F5A872224904F5AE7000F06F
S3150800D7F00CFA214BC4F87451C4E95B3604F5B672C9
S3150800D8001E4904F5BC7000F0F3F9204670BD00BF50
S3150800D81030900108D4A5010844900108ECA6010837
S3150800D82058900108E4A601086C9001081CA7010895
S3150800D83080900108FCA601089490010834A6010806
S3150800D840A8900108DCA60108BC900108F4A6010806
S3150800D850D09001088CA60108E49001085CA601088E
S3150800D860F890010864A601080C910108CCA60108E5
S3150800D870209101080CA701083491010814A7010892
S3150800D88010B5044600F5BC7000F00EFA04F5AE704B
S3150800D89000F00AFA04F5A07000F006FA04F5927092
S3150800D8A000F002FA04F5847000F0FEF904F1EC00C9
S3150800D8B000F0FAF904F1D00000F0F6F904F1B4002A
S3150800D8C000F0F2F904F1980000F0EEF904F17C009A
S3150800D8D000F0EAF904F1600000F0E6F904F144000A
S3150800D8E000F0E2F904F1280000F0DEF904F10C007A
S3150800D8F000F0DAF9204610BD10B5044608466368FC
S3150800D90011462278FDF71DFE237A2BB123785A1E7D
S3150800D910012393405840C01A10BD82896AB14369F1
S3150800D920994203DB83698B42A8BF0B46B0F90A10FC
S3150800D9304B43016993FBF2F3194408467047436960
S3150800D9408B4205DC80698842B4BF002001207047FD
S3150800D9500020704770B50D460446114628461A46FB
S3150800D960FFF7CAFFD5E90731024603EBC1018B422F
S3150800D970184609D053F8086B9642F8D143682360D5
S3150800D98001232371204670BD11462846FFF7D7FFAD
S3150800D99020B12846FFF7C1FF2060F1E72071F1E7C3
S3150800D9A04161704703691A7B42641B69436170478A
S3150800D9B003691B694361704710B504460121183095
S3150800D9C0FEF744F994F82C3013B123691B69636197
S3150800D9D010BD000013B50C4B0C4A0360C36804461F
S3150800D9E0CDE900206946D86804F0D9F904F14C005D
S3150800D9F0FEF788F804F11800FEF784F82046FDF7CC
S3150800DA00D1FD204602B010BD4891010873DA00081E
S3150800DA1010B50446FFF7DEFF20467021FEF71CF816
S3150800DA20204610BD37B5044600690A46037D00F155
S3150800DA3018016846FFF78EFF9DF8043004F14C057F
S3150800DA4083B1236800999B69204698472846002198
S3150800DA50FEF730F8002104F1180003B0BDE83040A5
S3150800DA60FEF7F4B80121284603B0BDE83040FEF7BA
S3150800DA7021B84068FFF7D6BF7FB5044615460E465F
S3150800DA80FDF798FDC4E90365164B23602B696361AE
S3150800DA906B7BAA7BA96804F11800FEF7EEF8AA7B4F
S3150800DAA0696804F14C00FEF713F80F4AE068D5E9F7
S3150800DAB00F31CDE90224019A23F0004302F0004217
S3150800DAC01A43009B019203F0004321F000421343DE
S3150800DAD0009301AA6B4602A903F0DCFA204604B0BB
S3150800DAE070BD00BF4891010873DA0008704710B589
S3150800DAF010210446FDF7B0FF204610BD8088704708
S3150800DB00C3888B4205D803898B4202D381800120C2
S3150800DB107047002070470000034B1868D0F8103291
S3150800DB2000F504701B681847D4200020024B0146F4
S3150800DB30186800F0CFBC00BFD420002010B5002321
S3150800DB4083810446016082604360C381FFF7EEFF6C
S3150800DB50204610BD10B50523436000238381044683
S3150800DB6001608260C381FFF7E1FF204610BD10B552
S3150800DB700623436000238381044601608260C381D3
S3150800DB80FFF7D4FF204610BD10B5022343600023DB
S3150800DB908381044601608260C381FFF7C7FF204680
S3150800DBA010BD10B50323436000238381044601603A
S3150800DBB08260C381FFF7BAFF204610BD10B5012366
S3150800DBC0436000238381044601608260C381FFF7B6
S3150800DBD0ADFF204610BD10B507234360002383819F
S3150800DBE0044601608260C381FFF7A0FF204610BD8E
S3150800DBF010B50C23436000238381044601608260CC
S3150800DC00C381FFF793FF204610BD10B50D2343606F
S3150800DC1000238381044601608260C381FFF786FF83
S3150800DC20204610BD10B509234360002383810446AE
S3150800DC3001608260C381FFF779FF204610BD10B5E9
S3150800DC400A23436000238381044601608260C381FE
S3150800DC50FFF76CFF204610BD10B50823436000236C
S3150800DC608381044601608260C381FFF75FFF204617
S3150800DC7010BD10B50468FFF74FFF2044807810BD2B
S3150800DC8010B50468FFF748FF2044007910BD036803
S3150800DC909B790BB1FFF7F4BF184670470368D84362
S3150800DCA09842B8BF18467047074B10B50146044658
S3150800DCB0186800F0F5FA201DFFF7F0FF0D2801D9C6
S3150800DCC00AF0DEFE204610BDD420002073B5069962
S3150800DCD004460D2A00F28180DFE802F00C0C0C0CD9
S3150800DCE00C0C0C1D1D326C45596C00232046237103
S3150800DCF002B070BD1E680D683068FFF7BAFF0028CD
S3150800DD00F3D07368002BF0D12B6828461B68984718
S3150800DD1020600123EAE71E680D683068FFF7A9FF4F
S3150800DD200028E2D02B6871681B682846984710F4CB
S3150800DD307F4FADF80000D8D09DF800302360E8E7A3
S3150800DD401E680D683068FFF794FF0028CDD02B6851
S3150800DD5071681B682846984710F47F0F0090C4D056
S3150800DD60BDF80030EAE71E680D683068FFF781FFE6
S3150800DD700028BAD02B6871681B682846984710F4A3
S3150800DD807F4FADF80000B0D09DF90030D6E71E6889
S3150800DD900D683068FFF76DFF0028A6D02B687168FC
S3150800DDA01B682846984710F47F0F00909DD0BDF950
S3150800DDB00030C3E71E680D683068FFF75AFF002871
S3150800DDC093D02B6872681B682946684698479DF861
S3150800DDD00430002B89D0009BB0E70AF051FE30B51D
S3150800DDE08BB0054608AB081D0C46CDE9081207930B
S3150800DDF0FFF754FF0023CDE903338DF808308DF87B
S3150800DE00043004F108030093024607AB284661680C
S3150800DE10FFF75CFF28460BB030BD70B50D2900F240
S3150800DE20D580DFE811F00E00250036006B004A00A9
S3150800DE305B006B007D0090009C00C400AC00B8003D
S3150800DE40C40014681D682068FFF71AFF002800F050
S3150800DE50BF806368002B40F0BB80A36819682B68F5
S3150800DE6000315B6818BF01212846BDE87040184795
S3150800DE7014681D682068FFF703FF002800F0A880D3
S3150800DE806368002B40F0A480A2682B6811785B6851
S3150800DE90EAE714681D682068FFF7F2FE002800F01C
S3150800DEA097806368002B40F09380A2682B681188DE
S3150800DEB05B682846BDE87040184714681D682068E6
S3150800DEC0FFF7DEFE002800F083806368002B7FD111
S3150800DED0A2682B6892F900105B68C5E714681D688C
S3150800DEE02068FFF7CDFE002872D06368002B6FD13B
S3150800DEF0A2682B68B2F900105B68DAE714681D6837
S3150800DF002068FFF7BDFE002862D06368002B5FD14A
S3150800DF10A2682B6811685B682846BDE870401847F8
S3150800DF2014681D682068FFF7ABFE002850D0A36868
S3150800DF301A682B6800325B6818BF01226168284698
S3150800DF40BDE87040184714681D682068FFF798FEFA
S3150800DF5000283DD0A2682B6812785B68EEE7146843
S3150800DF601D682068FFF78CFE002831D0A2682B6850
S3150800DF7012885B6861682846BDE8704018471468CF
S3150800DF801D682068FFF77CFE10B3A2682B6892F91B
S3150800DF9000205B68D2E714681D682068FFF770FEEA
S3150800DFA0B0B1A2682B68B2F900205B68E2E7146892
S3150800DFB01D682068FFF764FE50B1A2682B68616887
S3150800DFC05B6812682846BDE8704018470AF058FD95
S3150800DFD0002070BD30B589B00446CDE9050105AB12
S3150800DFE0043007920493FFF759FE0023CDE9023364
S3150800DFF08DF804308DF80030014604F1080304AAB0
S3150800E0006068FFF70AFF054638B12046FFF73FFE6E
S3150800E01018B1A38901339BB2A381284609B030BD44
S3150800E020012070474368184738B5D1F838220A4B9B
S3150800E0309A4204460BD1D1F83C5245B901F506700F
S3150800E04007F037F9054BC4E90035204638BD044BBF
S3150800E050236000236360F8E76D3D0108D5E00008FA
S3150800E06029E00008036803EB81010160704700009E
S3150800E07010B5EFF31083DB4303F0010372B6B1F872
S3150800E0806C25B1F86E4592B2A24208D1B1F8702556
S3150800E090B1F8724592B2A2420DD10B4A05E0A1F839
S3150800E0A06E25012281F87425084A02600022426022
S3150800E0B043B162B610BDA1F87225012281F8742514
S3150800E0C0034AF2E772B6F5E771E0000819E10008BD
S3150800E0D029E00008D1F83822074B9A4208D1D1F82E
S3150800E0E03C322BB9054A81F87435026043607047A3
S3150800E0F0034B03600023F9E76D3D010871E0000852
S3150800E100D5E00008D1F80C2201F10C030AB103EBA3
S3150800E110820303607047000037B5154BD1F83822E3
S3150800E1209A4204460D4602D1D1F83C320BB1114B46
S3150800E13009E0294601A8FFF7E5FFD5F86835019AF1
S3150800E140934206D10C4B236020460023636003B03C
S3150800E15030BD53F8041BC5F868358B89CA899BB24C
S3150800E1609342E6D0CB8105F5067007F00DF9DEE798
S3150800E1706D3D010819E1000829E000080B681968D7
S3150800E180136808881B681B8898422CBF002001204A
S3150800E1907047D0F80C222DE9F34180460F4600F16E
S3150800E1A00C04C2B104EB8202121B92102646002A06
S3150800E1B013DD5510294601A80196FFF753FF019B69
S3150800E1C0196809680988B9423EBF551B05F1FF352C
S3150800E1D01E1D2A46EBE72246E6E7D8F80C320BB1B5
S3150800E1E004EB8304B44208D0306803681B88BB423A
S3150800E1F088BF002002B0BDE8F0810020FAE700F5EC
S3150800E200067007F086B837B5044600F10C050146D6
S3150800E21001A8FFF777FF019BAB4205D055F8041B11
S3150800E2202046FFF7ECFFF6E703B030BD00F10C031C
S3150800E230C0F86835B0F86C3501339BB2A0F86C3578
S3150800E240012380F87435704773B50446014601A862
S3150800E250FFF758FF04F10C06019BB3420BD056F8A2
S3150800E260045B2846FFF713FD0028F5D0AB89013378
S3150800E2709BB2AB81F0E72046FFF7D8FF02B070BD2E
S3150800E28010B5044600F5067007F018F8B4F87035AE
S3150800E29001339BB2A4F87035012384F8743510BD98
S3150800E2A02DE9F74FD0F80C720191064600F10C04DF
S3150800E2B0CFB104EB87052D1BAD10A046002D65D008
S3150800E2C04FEA550B4FEA8B0A08EB0A0901AA494699
S3150800E2D02046FFF753FF40B1013D09F10408A5EBBD
S3150800E2E00B0B5D46EAE72546E5E74A4601A92046BF
S3150800E2F0FFF744FF0028F4D108EB85054FEAAA0A80
S3150800E300BAF1000F14D04FEA5A0B08EB8B031946E3
S3150800E31001AA20460093FFF731FF009B30B10AF1AE
S3150800E320FF3AAAEB0B0A03F10408E9E7DA46E7E73E
S3150800E33009F10409A5EB0905AD108DB14FEA550A97
S3150800E34009EB8A0B5A4601A92046FFF717FF28B999
S3150800E350013DA5EB0A050BF10409EEE75546ECE786
S3150800E360C14513D004EB8704A14507D0A4EB0905E2
S3150800E37040462A4649460AF0B7FBA844D6F80C3266
S3150800E380A4EB0804A3EBA404C6F80C4203B0BDE84A
S3150800E390F08F000073B50446FDF70CF9194B1C60A5
S3150800E3A0194B2360194BC4F81032012384F8143230
S3150800E3B0174B0093174B0193002502AB04F506761D
S3150800E3C013E90600C4F80C52304606F07BFF124BE0
S3150800E3D0C4F86035214604F5AD60C4F86455FFF706
S3150800E3E091FEA4F86C5584F87455A4F86E55304619
S3150800E3F0A4F87055A4F8725507F02EF8204602B016
S3150800E40070BD00BFD42000208C910108108C010833
S3150800E41025E0000821E0000871E000082DE9F74F23
S3150800E420D1F80072002380460C46914603600371BA
S3150800E430BFB101EB870AAAEB0406B6102546A6B1BA
S3150800E4404FEA560B05EB8B0319464A4620460193BD
S3150800E450FFF794FE019B30B1013EA6EB0B061D1D8E
S3150800E460EDE78A46E7E75E46E9E7AA4506D10123CE
S3150800E470802F88F804300ED10AF002FB2A46494656
S3150800E4802046FFF77BFE0028F1D14046C8F8005029
S3150800E49003B0BDE8F08F04EB8706B54206D1D9F87C
S3150800E4A000302B600137C4F80072EEE7371F0422EC
S3150800E4B0394630460AF018FBD4F800327A1B013385
S3150800E4C0C4F800322946B01A0AF00EFBD9F8003013
S3150800E4D02B60DAE71FB5019101AA00F10C0102A829
S3150800E4E0FFF79CFF05B05DF804FB000010B5074B6D
